{
	"contractsproxy/CommunityGovernanceMultisigImplementation.sol": {
		"CommunityGovernanceMultiSigImplementation": {
			"abi": [
				{
					"inputs": [],
					"name": "InvalidInitialization",
					"type": "error"
				},
				{
					"inputs": [],
					"name": "NotInitializing",
					"type": "error"
				},
				{
					"inputs": [
						{
							"internalType": "address",
							"name": "owner",
							"type": "address"
						}
					],
					"name": "OwnableInvalidOwner",
					"type": "error"
				},
				{
					"inputs": [
						{
							"internalType": "address",
							"name": "account",
							"type": "address"
						}
					],
					"name": "OwnableUnauthorizedAccount",
					"type": "error"
				},
				{
					"anonymous": false,
					"inputs": [
						{
							"indexed": false,
							"internalType": "uint64",
							"name": "version",
							"type": "uint64"
						}
					],
					"name": "Initialized",
					"type": "event"
				},
				{
					"anonymous": false,
					"inputs": [
						{
							"indexed": true,
							"internalType": "uint256",
							"name": "communityId",
							"type": "uint256"
						},
						{
							"indexed": true,
							"internalType": "address",
							"name": "member",
							"type": "address"
						}
					],
					"name": "MemberRemoved",
					"type": "event"
				},
				{
					"anonymous": false,
					"inputs": [
						{
							"indexed": true,
							"internalType": "address",
							"name": "previousOwner",
							"type": "address"
						},
						{
							"indexed": true,
							"internalType": "address",
							"name": "newOwner",
							"type": "address"
						}
					],
					"name": "OwnershipTransferred",
					"type": "event"
				},
				{
					"anonymous": false,
					"inputs": [
						{
							"indexed": true,
							"internalType": "uint256",
							"name": "communityId",
							"type": "uint256"
						},
						{
							"indexed": true,
							"internalType": "uint256",
							"name": "proposalId",
							"type": "uint256"
						},
						{
							"indexed": false,
							"internalType": "enum CommunityGovernanceMultiSigStorage.ProposalType",
							"name": "proposalType",
							"type": "uint8"
						}
					],
					"name": "ProposalCreated",
					"type": "event"
				},
				{
					"anonymous": false,
					"inputs": [
						{
							"indexed": true,
							"internalType": "uint256",
							"name": "communityId",
							"type": "uint256"
						},
						{
							"indexed": true,
							"internalType": "uint256",
							"name": "proposalId",
							"type": "uint256"
						}
					],
					"name": "ProposalExecuted",
					"type": "event"
				},
				{
					"anonymous": false,
					"inputs": [
						{
							"indexed": true,
							"internalType": "uint256",
							"name": "communityId",
							"type": "uint256"
						},
						{
							"indexed": true,
							"internalType": "uint256",
							"name": "proposalId",
							"type": "uint256"
						},
						{
							"indexed": false,
							"internalType": "address",
							"name": "signer",
							"type": "address"
						}
					],
					"name": "ProposalSigned",
					"type": "event"
				},
				{
					"anonymous": false,
					"inputs": [
						{
							"indexed": true,
							"internalType": "uint256",
							"name": "communityId",
							"type": "uint256"
						},
						{
							"indexed": false,
							"internalType": "uint256",
							"name": "newAmount",
							"type": "uint256"
						}
					],
					"name": "RespectToDistributeChanged",
					"type": "event"
				},
				{
					"anonymous": false,
					"inputs": [
						{
							"indexed": true,
							"internalType": "uint256",
							"name": "communityId",
							"type": "uint256"
						},
						{
							"indexed": false,
							"internalType": "uint256",
							"name": "amount",
							"type": "uint256"
						}
					],
					"name": "TokensMinted",
					"type": "event"
				},
				{
					"anonymous": false,
					"inputs": [
						{
							"indexed": true,
							"internalType": "uint256",
							"name": "communityId",
							"type": "uint256"
						},
						{
							"indexed": false,
							"internalType": "address[5]",
							"name": "topUsers",
							"type": "address[5]"
						}
					],
					"name": "TopRespectedUsersUpdated",
					"type": "event"
				},
				{
					"inputs": [],
					"name": "contributionsContract",
					"outputs": [
						{
							"internalType": "contract ICommunityGovernanceContributions",
							"name": "",
							"type": "address"
						}
					],
					"stateMutability": "view",
					"type": "function"
				},
				{
					"inputs": [
						{
							"internalType": "uint256",
							"name": "_communityId",
							"type": "uint256"
						},
						{
							"internalType": "uint256",
							"name": "_proposalId",
							"type": "uint256"
						},
						{
							"internalType": "enum CommunityGovernanceMultiSigStorage.ProposalType",
							"name": "_type",
							"type": "uint8"
						},
						{
							"internalType": "uint256",
							"name": "_value",
							"type": "uint256"
						},
						{
							"internalType": "address",
							"name": "_targetMember",
							"type": "address"
						}
					],
					"name": "createProposal",
					"outputs": [],
					"stateMutability": "nonpayable",
					"type": "function"
				},
				{
					"inputs": [
						{
							"internalType": "uint256",
							"name": "_communityId",
							"type": "uint256"
						}
					],
					"name": "getMultiSigInfo",
					"outputs": [
						{
							"internalType": "uint256",
							"name": "respectToDistribute",
							"type": "uint256"
						},
						{
							"internalType": "address[5]",
							"name": "topRespectedUsers",
							"type": "address[5]"
						}
					],
					"stateMutability": "view",
					"type": "function"
				},
				{
					"inputs": [
						{
							"internalType": "uint256",
							"name": "_communityId",
							"type": "uint256"
						},
						{
							"internalType": "uint256",
							"name": "_proposalId",
							"type": "uint256"
						}
					],
					"name": "getProposal",
					"outputs": [
						{
							"internalType": "enum CommunityGovernanceMultiSigStorage.ProposalType",
							"name": "proposalType",
							"type": "uint8"
						},
						{
							"internalType": "uint256",
							"name": "value",
							"type": "uint256"
						},
						{
							"internalType": "address",
							"name": "targetMember",
							"type": "address"
						},
						{
							"internalType": "uint256",
							"name": "signatureCount",
							"type": "uint256"
						},
						{
							"internalType": "bool",
							"name": "executed",
							"type": "bool"
						}
					],
					"stateMutability": "view",
					"type": "function"
				},
				{
					"inputs": [
						{
							"internalType": "uint256",
							"name": "_communityId",
							"type": "uint256"
						}
					],
					"name": "getRespectToDistribute",
					"outputs": [
						{
							"internalType": "uint256",
							"name": "",
							"type": "uint256"
						}
					],
					"stateMutability": "view",
					"type": "function"
				},
				{
					"inputs": [
						{
							"internalType": "uint256",
							"name": "_communityId",
							"type": "uint256"
						}
					],
					"name": "getTopRespectedUsers",
					"outputs": [
						{
							"internalType": "address[5]",
							"name": "",
							"type": "address[5]"
						}
					],
					"stateMutability": "view",
					"type": "function"
				},
				{
					"inputs": [
						{
							"internalType": "uint256",
							"name": "_communityId",
							"type": "uint256"
						},
						{
							"internalType": "uint256",
							"name": "_proposalId",
							"type": "uint256"
						},
						{
							"internalType": "address",
							"name": "_signer",
							"type": "address"
						}
					],
					"name": "hasSignedProposal",
					"outputs": [
						{
							"internalType": "bool",
							"name": "",
							"type": "bool"
						}
					],
					"stateMutability": "view",
					"type": "function"
				},
				{
					"inputs": [
						{
							"internalType": "address",
							"name": "initialOwner",
							"type": "address"
						}
					],
					"name": "initialize",
					"outputs": [],
					"stateMutability": "nonpayable",
					"type": "function"
				},
				{
					"inputs": [],
					"name": "owner",
					"outputs": [
						{
							"internalType": "address",
							"name": "",
							"type": "address"
						}
					],
					"stateMutability": "view",
					"type": "function"
				},
				{
					"inputs": [],
					"name": "profilesContract",
					"outputs": [
						{
							"internalType": "contract ICommunityGovernanceProfiles",
							"name": "",
							"type": "address"
						}
					],
					"stateMutability": "view",
					"type": "function"
				},
				{
					"inputs": [],
					"name": "renounceOwnership",
					"outputs": [],
					"stateMutability": "nonpayable",
					"type": "function"
				},
				{
					"inputs": [
						{
							"internalType": "address",
							"name": "_contributionsContractAddress",
							"type": "address"
						}
					],
					"name": "setContributionsContract",
					"outputs": [],
					"stateMutability": "nonpayable",
					"type": "function"
				},
				{
					"inputs": [
						{
							"internalType": "address",
							"name": "_profilesContractAddress",
							"type": "address"
						}
					],
					"name": "setProfilesContract",
					"outputs": [],
					"stateMutability": "nonpayable",
					"type": "function"
				},
				{
					"inputs": [
						{
							"internalType": "uint256",
							"name": "_communityId",
							"type": "uint256"
						},
						{
							"internalType": "uint256",
							"name": "_proposalId",
							"type": "uint256"
						}
					],
					"name": "signProposal",
					"outputs": [],
					"stateMutability": "nonpayable",
					"type": "function"
				},
				{
					"inputs": [
						{
							"internalType": "address",
							"name": "newOwner",
							"type": "address"
						}
					],
					"name": "transferOwnership",
					"outputs": [],
					"stateMutability": "nonpayable",
					"type": "function"
				},
				{
					"inputs": [
						{
							"internalType": "uint256",
							"name": "_communityId",
							"type": "uint256"
						},
						{
							"internalType": "address[]",
							"name": "allMembers",
							"type": "address[]"
						}
					],
					"name": "updateTopRespectedUsers",
					"outputs": [],
					"stateMutability": "nonpayable",
					"type": "function"
				}
			],
			"devdoc": {
				"errors": {
					"InvalidInitialization()": [
						{
							"details": "The contract is already initialized."
						}
					],
					"NotInitializing()": [
						{
							"details": "The contract is not initializing."
						}
					],
					"OwnableInvalidOwner(address)": [
						{
							"details": "The owner is not a valid owner account. (eg. `address(0)`)"
						}
					],
					"OwnableUnauthorizedAccount(address)": [
						{
							"details": "The caller account is not authorized to perform an operation."
						}
					]
				},
				"events": {
					"Initialized(uint64)": {
						"details": "Triggered when the contract has been initialized or reinitialized."
					}
				},
				"kind": "dev",
				"methods": {
					"owner()": {
						"details": "Returns the address of the current owner."
					},
					"renounceOwnership()": {
						"details": "Leaves the contract without owner. It will not be possible to call `onlyOwner` functions. Can only be called by the current owner. NOTE: Renouncing ownership will leave the contract without an owner, thereby disabling any functionality that is only available to the owner."
					},
					"transferOwnership(address)": {
						"details": "Transfers ownership of the contract to a new account (`newOwner`). Can only be called by the current owner."
					}
				},
				"version": 1
			},
			"evm": {
				"assembly": "    /* \"contractsproxy/CommunityGovernanceMultisigImplementation.sol\":479:8163  contract CommunityGovernanceMultiSigImplementation is Initializable, OwnableUpgradeable, CommunityGovernanceMultiSigStorage, ICommunityGovernanceMultiSig {... */\n  mstore(0x40, 0x80)\n  callvalue\n  dup1\n  iszero\n  tag_1\n  jumpi\n  0x00\n  dup1\n  revert\ntag_1:\n  pop\n  dataSize(sub_0)\n  dup1\n  dataOffset(sub_0)\n  0x00\n  codecopy\n  0x00\n  return\nstop\n\nsub_0: assembly {\n        /* \"contractsproxy/CommunityGovernanceMultisigImplementation.sol\":479:8163  contract CommunityGovernanceMultiSigImplementation is Initializable, OwnableUpgradeable, CommunityGovernanceMultiSigStorage, ICommunityGovernanceMultiSig {... */\n      mstore(0x40, 0x80)\n      callvalue\n      dup1\n      iszero\n      tag_1\n      jumpi\n      0x00\n      dup1\n      revert\n    tag_1:\n      pop\n      jumpi(tag_2, lt(calldatasize, 0x04))\n      shr(0xe0, calldataload(0x00))\n      dup1\n      0xc4d66de8\n      gt\n      tag_19\n      jumpi\n      dup1\n      0xde04bbd2\n      gt\n      tag_20\n      jumpi\n      dup1\n      0xde04bbd2\n      eq\n      tag_15\n      jumpi\n      dup1\n      0xe7d3f1f9\n      eq\n      tag_16\n      jumpi\n      dup1\n      0xf2fde38b\n      eq\n      tag_17\n      jumpi\n      dup1\n      0xfadc1930\n      eq\n      tag_18\n      jumpi\n      jump(tag_2)\n    tag_20:\n      dup1\n      0xc4d66de8\n      eq\n      tag_11\n      jumpi\n      dup1\n      0xc56b4aed\n      eq\n      tag_12\n      jumpi\n      dup1\n      0xd599ba92\n      eq\n      tag_13\n      jumpi\n      dup1\n      0xd5d8617a\n      eq\n      tag_14\n      jumpi\n      jump(tag_2)\n    tag_19:\n      dup1\n      0x715018a6\n      gt\n      tag_21\n      jumpi\n      dup1\n      0x715018a6\n      eq\n      tag_7\n      jumpi\n      dup1\n      0x8da5cb5b\n      eq\n      tag_8\n      jumpi\n      dup1\n      0xaba21009\n      eq\n      tag_9\n      jumpi\n      dup1\n      0xc0458ddc\n      eq\n      tag_10\n      jumpi\n      jump(tag_2)\n    tag_21:\n      dup1\n      0x06428f02\n      eq\n      tag_3\n      jumpi\n      dup1\n      0x392ee8c1\n      eq\n      tag_4\n      jumpi\n      dup1\n      0x674e9c60\n      eq\n      tag_5\n      jumpi\n      dup1\n      0x69c43915\n      eq\n      tag_6\n      jumpi\n    tag_2:\n      0x00\n      dup1\n      revert\n        /* \"contractsproxy/CommunityGovernanceMultiSigStorage.sol\":225:277  ICommunityGovernanceProfiles public profilesContract */\n    tag_3:\n      tag_22\n      tag_23\n      jump\t// in\n    tag_22:\n      mload(0x40)\n      tag_24\n      swap2\n      swap1\n      tag_25\n      jump\t// in\n    tag_24:\n      mload(0x40)\n      dup1\n      swap2\n      sub\n      swap1\n      return\n        /* \"contractsproxy/CommunityGovernanceMultisigImplementation.sol\":7855:8159  function getMultiSigInfo(uint256 _communityId) external view returns (uint256 respectToDistribute, address[5] memory topRespectedUsers) {... */\n    tag_4:\n      tag_26\n      0x04\n      dup1\n      calldatasize\n      sub\n      dup2\n      add\n      swap1\n      tag_27\n      swap2\n      swap1\n      tag_28\n      jump\t// in\n    tag_27:\n      tag_29\n      jump\t// in\n    tag_26:\n      mload(0x40)\n      tag_30\n      swap3\n      swap2\n      swap1\n      tag_31\n      jump\t// in\n    tag_30:\n      mload(0x40)\n      dup1\n      swap2\n      sub\n      swap1\n      return\n        /* \"contractsproxy/CommunityGovernanceMultisigImplementation.sol\":7627:7849  function hasSignedProposal(uint256 _communityId, uint256 _proposalId, address _signer) external view returns (bool) {... */\n    tag_5:\n      tag_32\n      0x04\n      dup1\n      calldatasize\n      sub\n      dup2\n      add\n      swap1\n      tag_33\n      swap2\n      swap1\n      tag_34\n      jump\t// in\n    tag_33:\n      tag_35\n      jump\t// in\n    tag_32:\n      mload(0x40)\n      tag_36\n      swap2\n      swap1\n      tag_37\n      jump\t// in\n    tag_36:\n      mload(0x40)\n      dup1\n      swap2\n      sub\n      swap1\n      return\n        /* \"contractsproxy/CommunityGovernanceMultisigImplementation.sol\":1179:2775  function updateTopRespectedUsers(uint256 _communityId, address[] memory allMembers) external  {... */\n    tag_6:\n      tag_38\n      0x04\n      dup1\n      calldatasize\n      sub\n      dup2\n      add\n      swap1\n      tag_39\n      swap2\n      swap1\n      tag_40\n      jump\t// in\n    tag_39:\n      tag_41\n      jump\t// in\n    tag_38:\n      stop\n        /* \"@openzeppelin/contracts-upgradeable/access/OwnableUpgradeable.sol\":3155:3256  function renounceOwnership() public virtual onlyOwner {... */\n    tag_7:\n      tag_42\n      tag_43\n      jump\t// in\n    tag_42:\n      stop\n        /* \"@openzeppelin/contracts-upgradeable/access/OwnableUpgradeable.sol\":2441:2585  function owner() public view virtual returns (address) {... */\n    tag_8:\n      tag_44\n      tag_45\n      jump\t// in\n    tag_44:\n      mload(0x40)\n      tag_46\n      swap2\n      swap1\n      tag_47\n      jump\t// in\n    tag_46:\n      mload(0x40)\n      dup1\n      swap2\n      sub\n      swap1\n      return\n        /* \"contractsproxy/CommunityGovernanceMultisigImplementation.sol\":7084:7621  function getProposal(uint256 _communityId, uint256 _proposalId) external view returns (... */\n    tag_9:\n      tag_48\n      0x04\n      dup1\n      calldatasize\n      sub\n      dup2\n      add\n      swap1\n      tag_49\n      swap2\n      swap1\n      tag_50\n      jump\t// in\n    tag_49:\n      tag_51\n      jump\t// in\n    tag_48:\n      mload(0x40)\n      tag_52\n      swap6\n      swap5\n      swap4\n      swap3\n      swap2\n      swap1\n      tag_53\n      jump\t// in\n    tag_52:\n      mload(0x40)\n      dup1\n      swap2\n      sub\n      swap1\n      return\n        /* \"contractsproxy/CommunityGovernanceMultisigImplementation.sol\":2781:3571  function createProposal(uint256 _communityId, uint256 _proposalId, ProposalType _type, uint256 _value, address _targetMember) external {... */\n    tag_10:\n      tag_54\n      0x04\n      dup1\n      calldatasize\n      sub\n      dup2\n      add\n      swap1\n      tag_55\n      swap2\n      swap1\n      tag_56\n      jump\t// in\n    tag_55:\n      tag_57\n      jump\t// in\n    tag_54:\n      stop\n        /* \"contractsproxy/CommunityGovernanceMultisigImplementation.sol\":639:745  function initialize(address initialOwner) public initializer {... */\n    tag_11:\n      tag_58\n      0x04\n      dup1\n      calldatasize\n      sub\n      dup2\n      add\n      swap1\n      tag_59\n      swap2\n      swap1\n      tag_60\n      jump\t// in\n    tag_59:\n      tag_61\n      jump\t// in\n    tag_58:\n      stop\n        /* \"contractsproxy/CommunityGovernanceMultisigImplementation.sol\":751:923  function setProfilesContract(address _profilesContractAddress) external onlyOwner {... */\n    tag_12:\n      tag_62\n      0x04\n      dup1\n      calldatasize\n      sub\n      dup2\n      add\n      swap1\n      tag_63\n      swap2\n      swap1\n      tag_60\n      jump\t// in\n    tag_63:\n      tag_64\n      jump\t// in\n    tag_62:\n      stop\n        /* \"contractsproxy/CommunityGovernanceMultisigImplementation.sol\":929:1126  function setContributionsContract(address _contributionsContractAddress) external onlyOwner {... */\n    tag_13:\n      tag_65\n      0x04\n      dup1\n      calldatasize\n      sub\n      dup2\n      add\n      swap1\n      tag_66\n      swap2\n      swap1\n      tag_60\n      jump\t// in\n    tag_66:\n      tag_67\n      jump\t// in\n    tag_65:\n      stop\n        /* \"contractsproxy/CommunityGovernanceMultisigImplementation.sol\":6389:6549  function getRespectToDistribute(uint256 _communityId) public view returns (uint256) {... */\n    tag_14:\n      tag_68\n      0x04\n      dup1\n      calldatasize\n      sub\n      dup2\n      add\n      swap1\n      tag_69\n      swap2\n      swap1\n      tag_28\n      jump\t// in\n    tag_69:\n      tag_70\n      jump\t// in\n    tag_68:\n      mload(0x40)\n      tag_71\n      swap2\n      swap1\n      tag_72\n      jump\t// in\n    tag_71:\n      mload(0x40)\n      dup1\n      swap2\n      sub\n      swap1\n      return\n        /* \"contractsproxy/CommunityGovernanceMultiSigStorage.sol\":283:345  ICommunityGovernanceContributions public contributionsContract */\n    tag_15:\n      tag_73\n      tag_74\n      jump\t// in\n    tag_73:\n      mload(0x40)\n      tag_75\n      swap2\n      swap1\n      tag_76\n      jump\t// in\n    tag_75:\n      mload(0x40)\n      dup1\n      swap2\n      sub\n      swap1\n      return\n        /* \"contractsproxy/CommunityGovernanceMultisigImplementation.sol\":6910:7078  function getTopRespectedUsers(uint256 _communityId) external view returns (address[5] memory) {... */\n    tag_16:\n      tag_77\n      0x04\n      dup1\n      calldatasize\n      sub\n      dup2\n      add\n      swap1\n      tag_78\n      swap2\n      swap1\n      tag_28\n      jump\t// in\n    tag_78:\n      tag_79\n      jump\t// in\n    tag_77:\n      mload(0x40)\n      tag_80\n      swap2\n      swap1\n      tag_81\n      jump\t// in\n    tag_80:\n      mload(0x40)\n      dup1\n      swap2\n      sub\n      swap1\n      return\n        /* \"@openzeppelin/contracts-upgradeable/access/OwnableUpgradeable.sol\":3405:3620  function transferOwnership(address newOwner) public virtual onlyOwner {... */\n    tag_17:\n      tag_82\n      0x04\n      dup1\n      calldatasize\n      sub\n      dup2\n      add\n      swap1\n      tag_83\n      swap2\n      swap1\n      tag_60\n      jump\t// in\n    tag_83:\n      tag_84\n      jump\t// in\n    tag_82:\n      stop\n        /* \"contractsproxy/CommunityGovernanceMultisigImplementation.sol\":3577:4397  function signProposal(uint256 _communityId, uint256 _proposalId) external {... */\n    tag_18:\n      tag_85\n      0x04\n      dup1\n      calldatasize\n      sub\n      dup2\n      add\n      swap1\n      tag_86\n      swap2\n      swap1\n      tag_50\n      jump\t// in\n    tag_86:\n      tag_87\n      jump\t// in\n    tag_85:\n      stop\n        /* \"contractsproxy/CommunityGovernanceMultiSigStorage.sol\":225:277  ICommunityGovernanceProfiles public profilesContract */\n    tag_23:\n      0x00\n      dup1\n      sload\n      swap1\n      0x0100\n      exp\n      swap1\n      div\n      0xffffffffffffffffffffffffffffffffffffffff\n      and\n      dup2\n      jump\t// out\n        /* \"contractsproxy/CommunityGovernanceMultisigImplementation.sol\":7855:8159  function getMultiSigInfo(uint256 _communityId) external view returns (uint256 respectToDistribute, address[5] memory topRespectedUsers) {... */\n    tag_29:\n        /* \"contractsproxy/CommunityGovernanceMultisigImplementation.sol\":7925:7952  uint256 respectToDistribute */\n      0x00\n        /* \"contractsproxy/CommunityGovernanceMultisigImplementation.sol\":7954:7989  address[5] memory topRespectedUsers */\n      tag_88\n      tag_89\n      jump\t// in\n    tag_88:\n        /* \"contractsproxy/CommunityGovernanceMultisigImplementation.sol\":8001:8034  MultiSigInfo storage multiSigInfo */\n      0x00\n        /* \"contractsproxy/CommunityGovernanceMultisigImplementation.sol\":8037:8055  communityMultiSigs */\n      0x02\n        /* \"contractsproxy/CommunityGovernanceMultisigImplementation.sol\":8037:8069  communityMultiSigs[_communityId] */\n      0x00\n        /* \"contractsproxy/CommunityGovernanceMultisigImplementation.sol\":8056:8068  _communityId */\n      dup6\n        /* \"contractsproxy/CommunityGovernanceMultisigImplementation.sol\":8037:8069  communityMultiSigs[_communityId] */\n      dup2\n      mstore\n      0x20\n      add\n      swap1\n      dup2\n      mstore\n      0x20\n      add\n      0x00\n      keccak256\n        /* \"contractsproxy/CommunityGovernanceMultisigImplementation.sol\":8001:8069  MultiSigInfo storage multiSigInfo = communityMultiSigs[_communityId] */\n      swap1\n      pop\n        /* \"contractsproxy/CommunityGovernanceMultisigImplementation.sol\":8087:8099  multiSigInfo */\n      dup1\n        /* \"contractsproxy/CommunityGovernanceMultisigImplementation.sol\":8087:8119  multiSigInfo.respectToDistribute */\n      0x06\n      add\n      sload\n        /* \"contractsproxy/CommunityGovernanceMultisigImplementation.sol\":8121:8133  multiSigInfo */\n      dup2\n        /* \"contractsproxy/CommunityGovernanceMultisigImplementation.sol\":8121:8151  multiSigInfo.topRespectedUsers */\n      0x01\n      add\n        /* \"contractsproxy/CommunityGovernanceMultisigImplementation.sol\":8079:8152  return (multiSigInfo.respectToDistribute, multiSigInfo.topRespectedUsers) */\n      dup1\n      0x05\n      dup1\n      0x20\n      mul\n      mload(0x40)\n      swap1\n      dup2\n      add\n      0x40\n      mstore\n      dup1\n      swap3\n      swap2\n      swap1\n      dup3\n      0x05\n      dup1\n      iszero\n      tag_91\n      jumpi\n      0x20\n      mul\n      dup3\n      add\n      swap2\n    tag_92:\n      dup2\n      0x00\n      swap1\n      sload\n      swap1\n      0x0100\n      exp\n      swap1\n      div\n      0xffffffffffffffffffffffffffffffffffffffff\n      and\n      0xffffffffffffffffffffffffffffffffffffffff\n      and\n      dup2\n      mstore\n      0x20\n      add\n      swap1\n      0x01\n      add\n      swap1\n      dup1\n      dup4\n      gt\n      tag_92\n      jumpi\n    tag_91:\n      pop\n      pop\n      pop\n      pop\n      pop\n      swap1\n      pop\n      swap3\n      pop\n      swap3\n      pop\n      pop\n        /* \"contractsproxy/CommunityGovernanceMultisigImplementation.sol\":7855:8159  function getMultiSigInfo(uint256 _communityId) external view returns (uint256 respectToDistribute, address[5] memory topRespectedUsers) {... */\n      swap2\n      pop\n      swap2\n      jump\t// out\n        /* \"contractsproxy/CommunityGovernanceMultisigImplementation.sol\":7627:7849  function hasSignedProposal(uint256 _communityId, uint256 _proposalId, address _signer) external view returns (bool) {... */\n    tag_35:\n        /* \"contractsproxy/CommunityGovernanceMultisigImplementation.sol\":7737:7741  bool */\n      0x00\n        /* \"contractsproxy/CommunityGovernanceMultisigImplementation.sol\":7760:7778  communityMultiSigs */\n      0x02\n        /* \"contractsproxy/CommunityGovernanceMultisigImplementation.sol\":7760:7792  communityMultiSigs[_communityId] */\n      0x00\n        /* \"contractsproxy/CommunityGovernanceMultisigImplementation.sol\":7779:7791  _communityId */\n      dup6\n        /* \"contractsproxy/CommunityGovernanceMultisigImplementation.sol\":7760:7792  communityMultiSigs[_communityId] */\n      dup2\n      mstore\n      0x20\n      add\n      swap1\n      dup2\n      mstore\n      0x20\n      add\n      0x00\n      keccak256\n        /* \"contractsproxy/CommunityGovernanceMultisigImplementation.sol\":7760:7802  communityMultiSigs[_communityId].proposals */\n      0x00\n      add\n        /* \"contractsproxy/CommunityGovernanceMultisigImplementation.sol\":7760:7815  communityMultiSigs[_communityId].proposals[_proposalId] */\n      0x00\n        /* \"contractsproxy/CommunityGovernanceMultisigImplementation.sol\":7803:7814  _proposalId */\n      dup5\n        /* \"contractsproxy/CommunityGovernanceMultisigImplementation.sol\":7760:7815  communityMultiSigs[_communityId].proposals[_proposalId] */\n      dup2\n      mstore\n      0x20\n      add\n      swap1\n      dup2\n      mstore\n      0x20\n      add\n      0x00\n      keccak256\n        /* \"contractsproxy/CommunityGovernanceMultisigImplementation.sol\":7760:7833  communityMultiSigs[_communityId].proposals[_proposalId].hasSignedProposal */\n      0x04\n      add\n        /* \"contractsproxy/CommunityGovernanceMultisigImplementation.sol\":7760:7842  communityMultiSigs[_communityId].proposals[_proposalId].hasSignedProposal[_signer] */\n      0x00\n        /* \"contractsproxy/CommunityGovernanceMultisigImplementation.sol\":7834:7841  _signer */\n      dup4\n        /* \"contractsproxy/CommunityGovernanceMultisigImplementation.sol\":7760:7842  communityMultiSigs[_communityId].proposals[_proposalId].hasSignedProposal[_signer] */\n      0xffffffffffffffffffffffffffffffffffffffff\n      and\n      0xffffffffffffffffffffffffffffffffffffffff\n      and\n      dup2\n      mstore\n      0x20\n      add\n      swap1\n      dup2\n      mstore\n      0x20\n      add\n      0x00\n      keccak256\n      0x00\n      swap1\n      sload\n      swap1\n      0x0100\n      exp\n      swap1\n      div\n      0xff\n      and\n        /* \"contractsproxy/CommunityGovernanceMultisigImplementation.sol\":7753:7842  return communityMultiSigs[_communityId].proposals[_proposalId].hasSignedProposal[_signer] */\n      swap1\n      pop\n        /* \"contractsproxy/CommunityGovernanceMultisigImplementation.sol\":7627:7849  function hasSignedProposal(uint256 _communityId, uint256 _proposalId, address _signer) external view returns (bool) {... */\n      swap4\n      swap3\n      pop\n      pop\n      pop\n      jump\t// out\n        /* \"contractsproxy/CommunityGovernanceMultisigImplementation.sol\":1179:2775  function updateTopRespectedUsers(uint256 _communityId, address[] memory allMembers) external  {... */\n    tag_41:\n        /* \"contractsproxy/CommunityGovernanceMultisigImplementation.sol\":1307:1308  0 */\n      0x00\n        /* \"contractsproxy/CommunityGovernanceMultisigImplementation.sol\":1287:1297  allMembers */\n      dup2\n        /* \"contractsproxy/CommunityGovernanceMultisigImplementation.sol\":1287:1304  allMembers.length */\n      mload\n        /* \"contractsproxy/CommunityGovernanceMultisigImplementation.sol\":1287:1308  allMembers.length > 0 */\n      gt\n        /* \"contractsproxy/CommunityGovernanceMultisigImplementation.sol\":1279:1340  require(allMembers.length > 0, \"Community must have members\") */\n      tag_95\n      jumpi\n      mload(0x40)\n      0x08c379a000000000000000000000000000000000000000000000000000000000\n      dup2\n      mstore\n      0x04\n      add\n      tag_96\n      swap1\n      tag_97\n      jump\t// in\n    tag_96:\n      mload(0x40)\n      dup1\n      swap2\n      sub\n      swap1\n      revert\n    tag_95:\n        /* \"contractsproxy/CommunityGovernanceMultisigImplementation.sol\":1396:1397  0 */\n      0x00\n        /* \"contractsproxy/CommunityGovernanceMultisigImplementation.sol\":1354:1398  address(contributionsContract) != address(0) */\n      0xffffffffffffffffffffffffffffffffffffffff\n      and\n        /* \"contractsproxy/CommunityGovernanceMultisigImplementation.sol\":1362:1383  contributionsContract */\n      0x01\n      0x00\n      swap1\n      sload\n      swap1\n      0x0100\n      exp\n      swap1\n      div\n      0xffffffffffffffffffffffffffffffffffffffff\n      and\n        /* \"contractsproxy/CommunityGovernanceMultisigImplementation.sol\":1354:1398  address(contributionsContract) != address(0) */\n      0xffffffffffffffffffffffffffffffffffffffff\n      and\n      sub\n        /* \"contractsproxy/CommunityGovernanceMultisigImplementation.sol\":1346:1433  require(address(contributionsContract) != address(0), \"Contributions contract not set\") */\n      tag_98\n      jumpi\n      mload(0x40)\n      0x08c379a000000000000000000000000000000000000000000000000000000000\n      dup2\n      mstore\n      0x04\n      add\n      tag_99\n      swap1\n      tag_100\n      jump\t// in\n    tag_99:\n      mload(0x40)\n      dup1\n      swap2\n      sub\n      swap1\n      revert\n    tag_98:\n        /* \"contractsproxy/CommunityGovernanceMultisigImplementation.sol\":1440:1470  uint256[] memory respectScores */\n      0x00\n        /* \"contractsproxy/CommunityGovernanceMultisigImplementation.sol\":1487:1497  allMembers */\n      dup2\n        /* \"contractsproxy/CommunityGovernanceMultisigImplementation.sol\":1487:1504  allMembers.length */\n      mload\n        /* \"contractsproxy/CommunityGovernanceMultisigImplementation.sol\":1473:1505  new uint256[](allMembers.length) */\n      0xffffffffffffffff\n      dup2\n      gt\n      iszero\n      tag_101\n      jumpi\n      tag_102\n      tag_103\n      jump\t// in\n    tag_102:\n    tag_101:\n      mload(0x40)\n      swap1\n      dup1\n      dup3\n      mstore\n      dup1\n      0x20\n      mul\n      0x20\n      add\n      dup3\n      add\n      0x40\n      mstore\n      dup1\n      iszero\n      tag_104\n      jumpi\n      dup2\n      0x20\n      add\n      0x20\n      dup3\n      mul\n      dup1\n      calldatasize\n      dup4\n      calldatacopy\n      dup1\n      dup3\n      add\n      swap2\n      pop\n      pop\n      swap1\n      pop\n    tag_104:\n      pop\n        /* \"contractsproxy/CommunityGovernanceMultisigImplementation.sol\":1440:1505  uint256[] memory respectScores = new uint256[](allMembers.length) */\n      swap1\n      pop\n        /* \"contractsproxy/CommunityGovernanceMultisigImplementation.sol\":1517:1526  uint256 i */\n      0x00\n        /* \"contractsproxy/CommunityGovernanceMultisigImplementation.sol\":1512:1808  for (uint256 i = 0; i < allMembers.length; i++) {... */\n    tag_105:\n        /* \"contractsproxy/CommunityGovernanceMultisigImplementation.sol\":1536:1546  allMembers */\n      dup3\n        /* \"contractsproxy/CommunityGovernanceMultisigImplementation.sol\":1536:1553  allMembers.length */\n      mload\n        /* \"contractsproxy/CommunityGovernanceMultisigImplementation.sol\":1532:1533  i */\n      dup2\n        /* \"contractsproxy/CommunityGovernanceMultisigImplementation.sol\":1532:1553  i < allMembers.length */\n      lt\n        /* \"contractsproxy/CommunityGovernanceMultisigImplementation.sol\":1512:1808  for (uint256 i = 0; i < allMembers.length; i++) {... */\n      iszero\n      tag_106\n      jumpi\n        /* \"contractsproxy/CommunityGovernanceMultisigImplementation.sol\":1574:1595  contributionsContract */\n      0x01\n      0x00\n      swap1\n      sload\n      swap1\n      0x0100\n      exp\n      swap1\n      div\n      0xffffffffffffffffffffffffffffffffffffffff\n      and\n        /* \"contractsproxy/CommunityGovernanceMultisigImplementation.sol\":1574:1613  contributionsContract.getAverageRespect */\n      0xffffffffffffffffffffffffffffffffffffffff\n      and\n      0xd91d9733\n        /* \"contractsproxy/CommunityGovernanceMultisigImplementation.sol\":1614:1624  allMembers */\n      dup5\n        /* \"contractsproxy/CommunityGovernanceMultisigImplementation.sol\":1625:1626  i */\n      dup4\n        /* \"contractsproxy/CommunityGovernanceMultisigImplementation.sol\":1614:1627  allMembers[i] */\n      dup2\n      mload\n      dup2\n      lt\n      tag_108\n      jumpi\n      tag_109\n      tag_110\n      jump\t// in\n    tag_109:\n    tag_108:\n      0x20\n      mul\n      0x20\n      add\n      add\n      mload\n        /* \"contractsproxy/CommunityGovernanceMultisigImplementation.sol\":1629:1641  _communityId */\n      dup7\n        /* \"contractsproxy/CommunityGovernanceMultisigImplementation.sol\":1574:1642  contributionsContract.getAverageRespect(allMembers[i], _communityId) */\n      mload(0x40)\n      dup4\n      0xffffffff\n      and\n      0xe0\n      shl\n      dup2\n      mstore\n      0x04\n      add\n      tag_111\n      swap3\n      swap2\n      swap1\n      tag_112\n      jump\t// in\n    tag_111:\n      0x20\n      mload(0x40)\n      dup1\n      dup4\n      sub\n      dup2\n      dup7\n      gas\n      staticcall\n      swap3\n      pop\n      pop\n      pop\n      dup1\n      iszero\n      tag_113\n      jumpi\n      pop\n      mload(0x40)\n      returndatasize\n      not(0x1f)\n      0x1f\n      dup3\n      add\n      and\n      dup3\n      add\n      dup1\n      0x40\n      mstore\n      pop\n      dup2\n      add\n      swap1\n      tag_114\n      swap2\n      swap1\n      tag_115\n      jump\t// in\n    tag_114:\n      0x01\n    tag_113:\n        /* \"contractsproxy/CommunityGovernanceMultisigImplementation.sol\":1570:1802  try contributionsContract.getAverageRespect(allMembers[i], _communityId) returns (uint256 score) {... */\n      tag_116\n      jumpi\n        /* \"contractsproxy/CommunityGovernanceMultisigImplementation.sol\":1756:1757  0 */\n      0x00\n        /* \"contractsproxy/CommunityGovernanceMultisigImplementation.sol\":1737:1750  respectScores */\n      dup3\n        /* \"contractsproxy/CommunityGovernanceMultisigImplementation.sol\":1751:1752  i */\n      dup3\n        /* \"contractsproxy/CommunityGovernanceMultisigImplementation.sol\":1737:1753  respectScores[i] */\n      dup2\n      mload\n      dup2\n      lt\n      tag_120\n      jumpi\n      tag_121\n      tag_110\n      jump\t// in\n    tag_121:\n    tag_120:\n      0x20\n      mul\n      0x20\n      add\n      add\n        /* \"contractsproxy/CommunityGovernanceMultisigImplementation.sol\":1737:1757  respectScores[i] = 0 */\n      dup2\n      dup2\n      mstore\n      pop\n      pop\n        /* \"contractsproxy/CommunityGovernanceMultisigImplementation.sol\":1570:1802  try contributionsContract.getAverageRespect(allMembers[i], _communityId) returns (uint256 score) {... */\n      jump(tag_122)\n    tag_116:\n        /* \"contractsproxy/CommunityGovernanceMultisigImplementation.sol\":1700:1705  score */\n      dup1\n        /* \"contractsproxy/CommunityGovernanceMultisigImplementation.sol\":1681:1694  respectScores */\n      dup4\n        /* \"contractsproxy/CommunityGovernanceMultisigImplementation.sol\":1695:1696  i */\n      dup4\n        /* \"contractsproxy/CommunityGovernanceMultisigImplementation.sol\":1681:1697  respectScores[i] */\n      dup2\n      mload\n      dup2\n      lt\n      tag_123\n      jumpi\n      tag_124\n      tag_110\n      jump\t// in\n    tag_124:\n    tag_123:\n      0x20\n      mul\n      0x20\n      add\n      add\n        /* \"contractsproxy/CommunityGovernanceMultisigImplementation.sol\":1681:1705  respectScores[i] = score */\n      dup2\n      dup2\n      mstore\n      pop\n      pop\n        /* \"contractsproxy/CommunityGovernanceMultisigImplementation.sol\":1643:1716  returns (uint256 score) {... */\n      pop\n        /* \"contractsproxy/CommunityGovernanceMultisigImplementation.sol\":1570:1802  try contributionsContract.getAverageRespect(allMembers[i], _communityId) returns (uint256 score) {... */\n    tag_122:\n        /* \"contractsproxy/CommunityGovernanceMultisigImplementation.sol\":1555:1558  i++ */\n      dup1\n      dup1\n      0x01\n      add\n      swap2\n      pop\n      pop\n        /* \"contractsproxy/CommunityGovernanceMultisigImplementation.sol\":1512:1808  for (uint256 i = 0; i < allMembers.length; i++) {... */\n      jump(tag_105)\n    tag_106:\n      pop\n        /* \"contractsproxy/CommunityGovernanceMultisigImplementation.sol\":1814:1830  uint256 topCount */\n      0x00\n        /* \"contractsproxy/CommunityGovernanceMultisigImplementation.sol\":1853:1854  5 */\n      0x05\n        /* \"contractsproxy/CommunityGovernanceMultisigImplementation.sol\":1833:1843  allMembers */\n      dup4\n        /* \"contractsproxy/CommunityGovernanceMultisigImplementation.sol\":1833:1850  allMembers.length */\n      mload\n        /* \"contractsproxy/CommunityGovernanceMultisigImplementation.sol\":1833:1854  allMembers.length < 5 */\n      lt\n        /* \"contractsproxy/CommunityGovernanceMultisigImplementation.sol\":1833:1878  allMembers.length < 5 ? allMembers.length : 5 */\n      tag_125\n      jumpi\n        /* \"contractsproxy/CommunityGovernanceMultisigImplementation.sol\":1877:1878  5 */\n      0x05\n        /* \"contractsproxy/CommunityGovernanceMultisigImplementation.sol\":1833:1878  allMembers.length < 5 ? allMembers.length : 5 */\n      jump(tag_126)\n    tag_125:\n        /* \"contractsproxy/CommunityGovernanceMultisigImplementation.sol\":1857:1867  allMembers */\n      dup3\n        /* \"contractsproxy/CommunityGovernanceMultisigImplementation.sol\":1857:1874  allMembers.length */\n      mload\n        /* \"contractsproxy/CommunityGovernanceMultisigImplementation.sol\":1833:1878  allMembers.length < 5 ? allMembers.length : 5 */\n    tag_126:\n        /* \"contractsproxy/CommunityGovernanceMultisigImplementation.sol\":1814:1878  uint256 topCount = allMembers.length < 5 ? allMembers.length : 5 */\n      swap1\n      pop\n        /* \"contractsproxy/CommunityGovernanceMultisigImplementation.sol\":1884:1910  address[5] memory topUsers */\n      tag_127\n      tag_89\n      jump\t// in\n    tag_127:\n        /* \"contractsproxy/CommunityGovernanceMultisigImplementation.sol\":1922:1931  uint256 i */\n      0x00\n        /* \"contractsproxy/CommunityGovernanceMultisigImplementation.sol\":1917:2441  for (uint256 i = 0; i < topCount; i++) {... */\n    tag_128:\n        /* \"contractsproxy/CommunityGovernanceMultisigImplementation.sol\":1941:1949  topCount */\n      dup3\n        /* \"contractsproxy/CommunityGovernanceMultisigImplementation.sol\":1937:1938  i */\n      dup2\n        /* \"contractsproxy/CommunityGovernanceMultisigImplementation.sol\":1937:1949  i < topCount */\n      lt\n        /* \"contractsproxy/CommunityGovernanceMultisigImplementation.sol\":1917:2441  for (uint256 i = 0; i < topCount; i++) {... */\n      iszero\n      tag_129\n      jumpi\n        /* \"contractsproxy/CommunityGovernanceMultisigImplementation.sol\":1966:1982  uint256 maxIndex */\n      0x00\n        /* \"contractsproxy/CommunityGovernanceMultisigImplementation.sol\":1985:1986  i */\n      dup2\n        /* \"contractsproxy/CommunityGovernanceMultisigImplementation.sol\":1966:1986  uint256 maxIndex = i */\n      swap1\n      pop\n        /* \"contractsproxy/CommunityGovernanceMultisigImplementation.sol\":2001:2010  uint256 j */\n      0x00\n        /* \"contractsproxy/CommunityGovernanceMultisigImplementation.sol\":2017:2018  1 */\n      0x01\n        /* \"contractsproxy/CommunityGovernanceMultisigImplementation.sol\":2013:2014  i */\n      dup4\n        /* \"contractsproxy/CommunityGovernanceMultisigImplementation.sol\":2013:2018  i + 1 */\n      tag_134\n      swap2\n      swap1\n      tag_135\n      jump\t// in\n    tag_134:\n        /* \"contractsproxy/CommunityGovernanceMultisigImplementation.sol\":2001:2018  uint256 j = i + 1 */\n      swap1\n      pop\n        /* \"contractsproxy/CommunityGovernanceMultisigImplementation.sol\":1996:2165  for (uint256 j = i + 1; j < allMembers.length; j++) {... */\n    tag_131:\n        /* \"contractsproxy/CommunityGovernanceMultisigImplementation.sol\":2024:2034  allMembers */\n      dup7\n        /* \"contractsproxy/CommunityGovernanceMultisigImplementation.sol\":2024:2041  allMembers.length */\n      mload\n        /* \"contractsproxy/CommunityGovernanceMultisigImplementation.sol\":2020:2021  j */\n      dup2\n        /* \"contractsproxy/CommunityGovernanceMultisigImplementation.sol\":2020:2041  j < allMembers.length */\n      lt\n        /* \"contractsproxy/CommunityGovernanceMultisigImplementation.sol\":1996:2165  for (uint256 j = i + 1; j < allMembers.length; j++) {... */\n      iszero\n      tag_132\n      jumpi\n        /* \"contractsproxy/CommunityGovernanceMultisigImplementation.sol\":2085:2098  respectScores */\n      dup6\n        /* \"contractsproxy/CommunityGovernanceMultisigImplementation.sol\":2099:2107  maxIndex */\n      dup3\n        /* \"contractsproxy/CommunityGovernanceMultisigImplementation.sol\":2085:2108  respectScores[maxIndex] */\n      dup2\n      mload\n      dup2\n      lt\n      tag_136\n      jumpi\n      tag_137\n      tag_110\n      jump\t// in\n    tag_137:\n    tag_136:\n      0x20\n      mul\n      0x20\n      add\n      add\n      mload\n        /* \"contractsproxy/CommunityGovernanceMultisigImplementation.sol\":2066:2079  respectScores */\n      dup7\n        /* \"contractsproxy/CommunityGovernanceMultisigImplementation.sol\":2080:2081  j */\n      dup3\n        /* \"contractsproxy/CommunityGovernanceMultisigImplementation.sol\":2066:2082  respectScores[j] */\n      dup2\n      mload\n      dup2\n      lt\n      tag_138\n      jumpi\n      tag_139\n      tag_110\n      jump\t// in\n    tag_139:\n    tag_138:\n      0x20\n      mul\n      0x20\n      add\n      add\n      mload\n        /* \"contractsproxy/CommunityGovernanceMultisigImplementation.sol\":2066:2108  respectScores[j] > respectScores[maxIndex] */\n      gt\n        /* \"contractsproxy/CommunityGovernanceMultisigImplementation.sol\":2062:2155  if (respectScores[j] > respectScores[maxIndex]) {... */\n      iszero\n      tag_140\n      jumpi\n        /* \"contractsproxy/CommunityGovernanceMultisigImplementation.sol\":2139:2140  j */\n      dup1\n        /* \"contractsproxy/CommunityGovernanceMultisigImplementation.sol\":2128:2140  maxIndex = j */\n      swap2\n      pop\n        /* \"contractsproxy/CommunityGovernanceMultisigImplementation.sol\":2062:2155  if (respectScores[j] > respectScores[maxIndex]) {... */\n    tag_140:\n        /* \"contractsproxy/CommunityGovernanceMultisigImplementation.sol\":2043:2046  j++ */\n      dup1\n      dup1\n      0x01\n      add\n      swap2\n      pop\n      pop\n        /* \"contractsproxy/CommunityGovernanceMultisigImplementation.sol\":1996:2165  for (uint256 j = i + 1; j < allMembers.length; j++) {... */\n      jump(tag_131)\n    tag_132:\n      pop\n        /* \"contractsproxy/CommunityGovernanceMultisigImplementation.sol\":2190:2191  i */\n      dup2\n        /* \"contractsproxy/CommunityGovernanceMultisigImplementation.sol\":2178:2186  maxIndex */\n      dup2\n        /* \"contractsproxy/CommunityGovernanceMultisigImplementation.sol\":2178:2191  maxIndex != i */\n      eq\n        /* \"contractsproxy/CommunityGovernanceMultisigImplementation.sol\":2174:2398  if (maxIndex != i) {... */\n      tag_141\n      jumpi\n        /* \"contractsproxy/CommunityGovernanceMultisigImplementation.sol\":2248:2258  allMembers */\n      dup6\n        /* \"contractsproxy/CommunityGovernanceMultisigImplementation.sol\":2259:2267  maxIndex */\n      dup2\n        /* \"contractsproxy/CommunityGovernanceMultisigImplementation.sol\":2248:2268  allMembers[maxIndex] */\n      dup2\n      mload\n      dup2\n      lt\n      tag_142\n      jumpi\n      tag_143\n      tag_110\n      jump\t// in\n    tag_143:\n    tag_142:\n      0x20\n      mul\n      0x20\n      add\n      add\n      mload\n        /* \"contractsproxy/CommunityGovernanceMultisigImplementation.sol\":2270:2280  allMembers */\n      dup7\n        /* \"contractsproxy/CommunityGovernanceMultisigImplementation.sol\":2281:2282  i */\n      dup4\n        /* \"contractsproxy/CommunityGovernanceMultisigImplementation.sol\":2270:2283  allMembers[i] */\n      dup2\n      mload\n      dup2\n      lt\n      tag_144\n      jumpi\n      tag_145\n      tag_110\n      jump\t// in\n    tag_145:\n    tag_144:\n      0x20\n      mul\n      0x20\n      add\n      add\n      mload\n        /* \"contractsproxy/CommunityGovernanceMultisigImplementation.sol\":2208:2218  allMembers */\n      dup8\n        /* \"contractsproxy/CommunityGovernanceMultisigImplementation.sol\":2219:2220  i */\n      dup5\n        /* \"contractsproxy/CommunityGovernanceMultisigImplementation.sol\":2208:2221  allMembers[i] */\n      dup2\n      mload\n      dup2\n      lt\n      tag_146\n      jumpi\n      tag_147\n      tag_110\n      jump\t// in\n    tag_147:\n    tag_146:\n      0x20\n      mul\n      0x20\n      add\n      add\n        /* \"contractsproxy/CommunityGovernanceMultisigImplementation.sol\":2223:2233  allMembers */\n      dup9\n        /* \"contractsproxy/CommunityGovernanceMultisigImplementation.sol\":2234:2242  maxIndex */\n      dup5\n        /* \"contractsproxy/CommunityGovernanceMultisigImplementation.sol\":2223:2243  allMembers[maxIndex] */\n      dup2\n      mload\n      dup2\n      lt\n      tag_148\n      jumpi\n      tag_149\n      tag_110\n      jump\t// in\n    tag_149:\n    tag_148:\n      0x20\n      mul\n      0x20\n      add\n      add\n        /* \"contractsproxy/CommunityGovernanceMultisigImplementation.sol\":2207:2284  (allMembers[i], allMembers[maxIndex]) = (allMembers[maxIndex], allMembers[i]) */\n      dup3\n      0xffffffffffffffffffffffffffffffffffffffff\n      and\n      0xffffffffffffffffffffffffffffffffffffffff\n      and\n      dup2\n      mstore\n      pop\n      dup3\n      0xffffffffffffffffffffffffffffffffffffffff\n      and\n      0xffffffffffffffffffffffffffffffffffffffff\n      and\n      dup2\n      mstore\n      pop\n      pop\n      pop\n        /* \"contractsproxy/CommunityGovernanceMultisigImplementation.sol\":2345:2358  respectScores */\n      dup5\n        /* \"contractsproxy/CommunityGovernanceMultisigImplementation.sol\":2359:2367  maxIndex */\n      dup2\n        /* \"contractsproxy/CommunityGovernanceMultisigImplementation.sol\":2345:2368  respectScores[maxIndex] */\n      dup2\n      mload\n      dup2\n      lt\n      tag_150\n      jumpi\n      tag_151\n      tag_110\n      jump\t// in\n    tag_151:\n    tag_150:\n      0x20\n      mul\n      0x20\n      add\n      add\n      mload\n        /* \"contractsproxy/CommunityGovernanceMultisigImplementation.sol\":2370:2383  respectScores */\n      dup6\n        /* \"contractsproxy/CommunityGovernanceMultisigImplementation.sol\":2384:2385  i */\n      dup4\n        /* \"contractsproxy/CommunityGovernanceMultisigImplementation.sol\":2370:2386  respectScores[i] */\n      dup2\n      mload\n      dup2\n      lt\n      tag_152\n      jumpi\n      tag_153\n      tag_110\n      jump\t// in\n    tag_153:\n    tag_152:\n      0x20\n      mul\n      0x20\n      add\n      add\n      mload\n        /* \"contractsproxy/CommunityGovernanceMultisigImplementation.sol\":2299:2312  respectScores */\n      dup7\n        /* \"contractsproxy/CommunityGovernanceMultisigImplementation.sol\":2313:2314  i */\n      dup5\n        /* \"contractsproxy/CommunityGovernanceMultisigImplementation.sol\":2299:2315  respectScores[i] */\n      dup2\n      mload\n      dup2\n      lt\n      tag_154\n      jumpi\n      tag_155\n      tag_110\n      jump\t// in\n    tag_155:\n    tag_154:\n      0x20\n      mul\n      0x20\n      add\n      add\n        /* \"contractsproxy/CommunityGovernanceMultisigImplementation.sol\":2317:2330  respectScores */\n      dup8\n        /* \"contractsproxy/CommunityGovernanceMultisigImplementation.sol\":2331:2339  maxIndex */\n      dup5\n        /* \"contractsproxy/CommunityGovernanceMultisigImplementation.sol\":2317:2340  respectScores[maxIndex] */\n      dup2\n      mload\n      dup2\n      lt\n      tag_156\n      jumpi\n      tag_157\n      tag_110\n      jump\t// in\n    tag_157:\n    tag_156:\n      0x20\n      mul\n      0x20\n      add\n      add\n        /* \"contractsproxy/CommunityGovernanceMultisigImplementation.sol\":2298:2387  (respectScores[i], respectScores[maxIndex]) = (respectScores[maxIndex], respectScores[i]) */\n      dup3\n      dup2\n      mstore\n      pop\n      dup3\n      dup2\n      mstore\n      pop\n      pop\n      pop\n        /* \"contractsproxy/CommunityGovernanceMultisigImplementation.sol\":2174:2398  if (maxIndex != i) {... */\n    tag_141:\n        /* \"contractsproxy/CommunityGovernanceMultisigImplementation.sol\":2421:2431  allMembers */\n      dup6\n        /* \"contractsproxy/CommunityGovernanceMultisigImplementation.sol\":2432:2433  i */\n      dup3\n        /* \"contractsproxy/CommunityGovernanceMultisigImplementation.sol\":2421:2434  allMembers[i] */\n      dup2\n      mload\n      dup2\n      lt\n      tag_158\n      jumpi\n      tag_159\n      tag_110\n      jump\t// in\n    tag_159:\n    tag_158:\n      0x20\n      mul\n      0x20\n      add\n      add\n      mload\n        /* \"contractsproxy/CommunityGovernanceMultisigImplementation.sol\":2407:2415  topUsers */\n      dup4\n        /* \"contractsproxy/CommunityGovernanceMultisigImplementation.sol\":2416:2417  i */\n      dup4\n        /* \"contractsproxy/CommunityGovernanceMultisigImplementation.sol\":2407:2418  topUsers[i] */\n      0x05\n      dup2\n      lt\n      tag_160\n      jumpi\n      tag_161\n      tag_110\n      jump\t// in\n    tag_161:\n    tag_160:\n      0x20\n      mul\n      add\n        /* \"contractsproxy/CommunityGovernanceMultisigImplementation.sol\":2407:2434  topUsers[i] = allMembers[i] */\n      swap1\n      0xffffffffffffffffffffffffffffffffffffffff\n      and\n      swap1\n      dup2\n      0xffffffffffffffffffffffffffffffffffffffff\n      and\n      dup2\n      mstore\n      pop\n      pop\n        /* \"contractsproxy/CommunityGovernanceMultisigImplementation.sol\":1956:2441  {... */\n      pop\n        /* \"contractsproxy/CommunityGovernanceMultisigImplementation.sol\":1951:1954  i++ */\n      dup1\n      dup1\n      0x01\n      add\n      swap2\n      pop\n      pop\n        /* \"contractsproxy/CommunityGovernanceMultisigImplementation.sol\":1917:2441  for (uint256 i = 0; i < topCount; i++) {... */\n      jump(tag_128)\n    tag_129:\n      pop\n        /* \"contractsproxy/CommunityGovernanceMultisigImplementation.sol\":2521:2530  uint256 i */\n      0x00\n        /* \"contractsproxy/CommunityGovernanceMultisigImplementation.sol\":2533:2541  topCount */\n      dup3\n        /* \"contractsproxy/CommunityGovernanceMultisigImplementation.sol\":2521:2541  uint256 i = topCount */\n      swap1\n      pop\n        /* \"contractsproxy/CommunityGovernanceMultisigImplementation.sol\":2516:2596  for (uint256 i = topCount; i < 5; i++) {... */\n    tag_162:\n        /* \"contractsproxy/CommunityGovernanceMultisigImplementation.sol\":2547:2548  5 */\n      0x05\n        /* \"contractsproxy/CommunityGovernanceMultisigImplementation.sol\":2543:2544  i */\n      dup2\n        /* \"contractsproxy/CommunityGovernanceMultisigImplementation.sol\":2543:2548  i < 5 */\n      lt\n        /* \"contractsproxy/CommunityGovernanceMultisigImplementation.sol\":2516:2596  for (uint256 i = topCount; i < 5; i++) {... */\n      iszero\n      tag_163\n      jumpi\n        /* \"contractsproxy/CommunityGovernanceMultisigImplementation.sol\":2587:2588  0 */\n      0x00\n        /* \"contractsproxy/CommunityGovernanceMultisigImplementation.sol\":2565:2573  topUsers */\n      dup3\n        /* \"contractsproxy/CommunityGovernanceMultisigImplementation.sol\":2574:2575  i */\n      dup3\n        /* \"contractsproxy/CommunityGovernanceMultisigImplementation.sol\":2565:2576  topUsers[i] */\n      0x05\n      dup2\n      lt\n      tag_165\n      jumpi\n      tag_166\n      tag_110\n      jump\t// in\n    tag_166:\n    tag_165:\n      0x20\n      mul\n      add\n        /* \"contractsproxy/CommunityGovernanceMultisigImplementation.sol\":2565:2589  topUsers[i] = address(0) */\n      swap1\n      0xffffffffffffffffffffffffffffffffffffffff\n      and\n      swap1\n      dup2\n      0xffffffffffffffffffffffffffffffffffffffff\n      and\n      dup2\n      mstore\n      pop\n      pop\n        /* \"contractsproxy/CommunityGovernanceMultisigImplementation.sol\":2550:2553  i++ */\n      dup1\n      dup1\n      0x01\n      add\n      swap2\n      pop\n      pop\n        /* \"contractsproxy/CommunityGovernanceMultisigImplementation.sol\":2516:2596  for (uint256 i = topCount; i < 5; i++) {... */\n      jump(tag_162)\n    tag_163:\n      pop\n        /* \"contractsproxy/CommunityGovernanceMultisigImplementation.sol\":2704:2712  topUsers */\n      dup1\n        /* \"contractsproxy/CommunityGovernanceMultisigImplementation.sol\":2651:2669  communityMultiSigs */\n      0x02\n        /* \"contractsproxy/CommunityGovernanceMultisigImplementation.sol\":2651:2683  communityMultiSigs[_communityId] */\n      0x00\n        /* \"contractsproxy/CommunityGovernanceMultisigImplementation.sol\":2670:2682  _communityId */\n      dup8\n        /* \"contractsproxy/CommunityGovernanceMultisigImplementation.sol\":2651:2683  communityMultiSigs[_communityId] */\n      dup2\n      mstore\n      0x20\n      add\n      swap1\n      dup2\n      mstore\n      0x20\n      add\n      0x00\n      keccak256\n        /* \"contractsproxy/CommunityGovernanceMultisigImplementation.sol\":2651:2701  communityMultiSigs[_communityId].topRespectedUsers */\n      0x01\n      add\n        /* \"contractsproxy/CommunityGovernanceMultisigImplementation.sol\":2651:2712  communityMultiSigs[_communityId].topRespectedUsers = topUsers */\n      swap1\n      0x05\n      tag_167\n      swap3\n      swap2\n      swap1\n      tag_168\n      jump\t// in\n    tag_167:\n      pop\n        /* \"contractsproxy/CommunityGovernanceMultisigImplementation.sol\":2749:2761  _communityId */\n      dup5\n        /* \"contractsproxy/CommunityGovernanceMultisigImplementation.sol\":2724:2772  TopRespectedUsersUpdated(_communityId, topUsers) */\n      0x0d725b01f2a8656cdf0767f5c4125384f89eb28243de781481360d45343029cb\n        /* \"contractsproxy/CommunityGovernanceMultisigImplementation.sol\":2763:2771  topUsers */\n      dup3\n        /* \"contractsproxy/CommunityGovernanceMultisigImplementation.sol\":2724:2772  TopRespectedUsersUpdated(_communityId, topUsers) */\n      mload(0x40)\n      tag_169\n      swap2\n      swap1\n      tag_81\n      jump\t// in\n    tag_169:\n      mload(0x40)\n      dup1\n      swap2\n      sub\n      swap1\n      log2\n        /* \"contractsproxy/CommunityGovernanceMultisigImplementation.sol\":1273:2775  {... */\n      pop\n      pop\n      pop\n        /* \"contractsproxy/CommunityGovernanceMultisigImplementation.sol\":1179:2775  function updateTopRespectedUsers(uint256 _communityId, address[] memory allMembers) external  {... */\n      pop\n      pop\n      jump\t// out\n        /* \"@openzeppelin/contracts-upgradeable/access/OwnableUpgradeable.sol\":3155:3256  function renounceOwnership() public virtual onlyOwner {... */\n    tag_43:\n        /* \"@openzeppelin/contracts-upgradeable/access/OwnableUpgradeable.sol\":2334:2347  _checkOwner() */\n      tag_171\n        /* \"@openzeppelin/contracts-upgradeable/access/OwnableUpgradeable.sol\":2334:2345  _checkOwner */\n      tag_172\n        /* \"@openzeppelin/contracts-upgradeable/access/OwnableUpgradeable.sol\":2334:2347  _checkOwner() */\n      jump\t// in\n    tag_171:\n        /* \"@openzeppelin/contracts-upgradeable/access/OwnableUpgradeable.sol\":3219:3249  _transferOwnership(address(0)) */\n      tag_174\n        /* \"@openzeppelin/contracts-upgradeable/access/OwnableUpgradeable.sol\":3246:3247  0 */\n      0x00\n        /* \"@openzeppelin/contracts-upgradeable/access/OwnableUpgradeable.sol\":3219:3237  _transferOwnership */\n      tag_175\n        /* \"@openzeppelin/contracts-upgradeable/access/OwnableUpgradeable.sol\":3219:3249  _transferOwnership(address(0)) */\n      jump\t// in\n    tag_174:\n        /* \"@openzeppelin/contracts-upgradeable/access/OwnableUpgradeable.sol\":3155:3256  function renounceOwnership() public virtual onlyOwner {... */\n      jump\t// out\n        /* \"@openzeppelin/contracts-upgradeable/access/OwnableUpgradeable.sol\":2441:2585  function owner() public view virtual returns (address) {... */\n    tag_45:\n        /* \"@openzeppelin/contracts-upgradeable/access/OwnableUpgradeable.sol\":2487:2494  address */\n      0x00\n        /* \"@openzeppelin/contracts-upgradeable/access/OwnableUpgradeable.sol\":2506:2530  OwnableStorage storage $ */\n      dup1\n        /* \"@openzeppelin/contracts-upgradeable/access/OwnableUpgradeable.sol\":2533:2553  _getOwnableStorage() */\n      tag_177\n        /* \"@openzeppelin/contracts-upgradeable/access/OwnableUpgradeable.sol\":2533:2551  _getOwnableStorage */\n      tag_178\n        /* \"@openzeppelin/contracts-upgradeable/access/OwnableUpgradeable.sol\":2533:2553  _getOwnableStorage() */\n      jump\t// in\n    tag_177:\n        /* \"@openzeppelin/contracts-upgradeable/access/OwnableUpgradeable.sol\":2506:2553  OwnableStorage storage $ = _getOwnableStorage() */\n      swap1\n      pop\n        /* \"@openzeppelin/contracts-upgradeable/access/OwnableUpgradeable.sol\":2570:2571  $ */\n      dup1\n        /* \"@openzeppelin/contracts-upgradeable/access/OwnableUpgradeable.sol\":2570:2578  $._owner */\n      0x00\n      add\n      0x00\n      swap1\n      sload\n      swap1\n      0x0100\n      exp\n      swap1\n      div\n      0xffffffffffffffffffffffffffffffffffffffff\n      and\n        /* \"@openzeppelin/contracts-upgradeable/access/OwnableUpgradeable.sol\":2563:2578  return $._owner */\n      swap2\n      pop\n      pop\n        /* \"@openzeppelin/contracts-upgradeable/access/OwnableUpgradeable.sol\":2441:2585  function owner() public view virtual returns (address) {... */\n      swap1\n      jump\t// out\n        /* \"contractsproxy/CommunityGovernanceMultisigImplementation.sol\":7084:7621  function getProposal(uint256 _communityId, uint256 _proposalId) external view returns (... */\n    tag_51:\n        /* \"contractsproxy/CommunityGovernanceMultisigImplementation.sol\":7180:7205  ProposalType proposalType */\n      0x00\n        /* \"contractsproxy/CommunityGovernanceMultisigImplementation.sol\":7215:7228  uint256 value */\n      dup1\n        /* \"contractsproxy/CommunityGovernanceMultisigImplementation.sol\":7238:7258  address targetMember */\n      0x00\n        /* \"contractsproxy/CommunityGovernanceMultisigImplementation.sol\":7268:7290  uint256 signatureCount */\n      dup1\n        /* \"contractsproxy/CommunityGovernanceMultisigImplementation.sol\":7300:7313  bool executed */\n      0x00\n        /* \"contractsproxy/CommunityGovernanceMultisigImplementation.sol\":7330:7363  MultiSigProposal storage proposal */\n      dup1\n        /* \"contractsproxy/CommunityGovernanceMultisigImplementation.sol\":7366:7384  communityMultiSigs */\n      0x02\n        /* \"contractsproxy/CommunityGovernanceMultisigImplementation.sol\":7366:7398  communityMultiSigs[_communityId] */\n      0x00\n        /* \"contractsproxy/CommunityGovernanceMultisigImplementation.sol\":7385:7397  _communityId */\n      dup10\n        /* \"contractsproxy/CommunityGovernanceMultisigImplementation.sol\":7366:7398  communityMultiSigs[_communityId] */\n      dup2\n      mstore\n      0x20\n      add\n      swap1\n      dup2\n      mstore\n      0x20\n      add\n      0x00\n      keccak256\n        /* \"contractsproxy/CommunityGovernanceMultisigImplementation.sol\":7366:7408  communityMultiSigs[_communityId].proposals */\n      0x00\n      add\n        /* \"contractsproxy/CommunityGovernanceMultisigImplementation.sol\":7366:7421  communityMultiSigs[_communityId].proposals[_proposalId] */\n      0x00\n        /* \"contractsproxy/CommunityGovernanceMultisigImplementation.sol\":7409:7420  _proposalId */\n      dup9\n        /* \"contractsproxy/CommunityGovernanceMultisigImplementation.sol\":7366:7421  communityMultiSigs[_communityId].proposals[_proposalId] */\n      dup2\n      mstore\n      0x20\n      add\n      swap1\n      dup2\n      mstore\n      0x20\n      add\n      0x00\n      keccak256\n        /* \"contractsproxy/CommunityGovernanceMultisigImplementation.sol\":7330:7421  MultiSigProposal storage proposal = communityMultiSigs[_communityId].proposals[_proposalId] */\n      swap1\n      pop\n        /* \"contractsproxy/CommunityGovernanceMultisigImplementation.sol\":7452:7460  proposal */\n      dup1\n        /* \"contractsproxy/CommunityGovernanceMultisigImplementation.sol\":7452:7473  proposal.proposalType */\n      0x00\n      add\n      0x00\n      swap1\n      sload\n      swap1\n      0x0100\n      exp\n      swap1\n      div\n      0xff\n      and\n        /* \"contractsproxy/CommunityGovernanceMultisigImplementation.sol\":7487:7495  proposal */\n      dup2\n        /* \"contractsproxy/CommunityGovernanceMultisigImplementation.sol\":7487:7501  proposal.value */\n      0x01\n      add\n      sload\n        /* \"contractsproxy/CommunityGovernanceMultisigImplementation.sol\":7515:7523  proposal */\n      dup3\n        /* \"contractsproxy/CommunityGovernanceMultisigImplementation.sol\":7515:7536  proposal.targetMember */\n      0x02\n      add\n      0x00\n      swap1\n      sload\n      swap1\n      0x0100\n      exp\n      swap1\n      div\n      0xffffffffffffffffffffffffffffffffffffffff\n      and\n        /* \"contractsproxy/CommunityGovernanceMultisigImplementation.sol\":7550:7558  proposal */\n      dup4\n        /* \"contractsproxy/CommunityGovernanceMultisigImplementation.sol\":7550:7573  proposal.signatureCount */\n      0x03\n      add\n      sload\n        /* \"contractsproxy/CommunityGovernanceMultisigImplementation.sol\":7587:7595  proposal */\n      dup5\n        /* \"contractsproxy/CommunityGovernanceMultisigImplementation.sol\":7587:7604  proposal.executed */\n      0x05\n      add\n      0x00\n      swap1\n      sload\n      swap1\n      0x0100\n      exp\n      swap1\n      div\n      0xff\n      and\n        /* \"contractsproxy/CommunityGovernanceMultisigImplementation.sol\":7431:7614  return (... */\n      swap6\n      pop\n      swap6\n      pop\n      swap6\n      pop\n      swap6\n      pop\n      swap6\n      pop\n      pop\n        /* \"contractsproxy/CommunityGovernanceMultisigImplementation.sol\":7084:7621  function getProposal(uint256 _communityId, uint256 _proposalId) external view returns (... */\n      swap3\n      swap6\n      pop\n      swap3\n      swap6\n      swap1\n      swap4\n      pop\n      jump\t// out\n        /* \"contractsproxy/CommunityGovernanceMultisigImplementation.sol\":2781:3571  function createProposal(uint256 _communityId, uint256 _proposalId, ProposalType _type, uint256 _value, address _targetMember) external {... */\n    tag_57:\n        /* \"contractsproxy/CommunityGovernanceMultisigImplementation.sol\":3129:3130  0 */\n      0x00\n        /* \"contractsproxy/CommunityGovernanceMultisigImplementation.sol\":3055:3073  communityMultiSigs */\n      0x02\n        /* \"contractsproxy/CommunityGovernanceMultisigImplementation.sol\":3055:3087  communityMultiSigs[_communityId] */\n      0x00\n        /* \"contractsproxy/CommunityGovernanceMultisigImplementation.sol\":3074:3086  _communityId */\n      dup8\n        /* \"contractsproxy/CommunityGovernanceMultisigImplementation.sol\":3055:3087  communityMultiSigs[_communityId] */\n      dup2\n      mstore\n      0x20\n      add\n      swap1\n      dup2\n      mstore\n      0x20\n      add\n      0x00\n      keccak256\n        /* \"contractsproxy/CommunityGovernanceMultisigImplementation.sol\":3055:3097  communityMultiSigs[_communityId].proposals */\n      0x00\n      add\n        /* \"contractsproxy/CommunityGovernanceMultisigImplementation.sol\":3055:3110  communityMultiSigs[_communityId].proposals[_proposalId] */\n      0x00\n        /* \"contractsproxy/CommunityGovernanceMultisigImplementation.sol\":3098:3109  _proposalId */\n      dup7\n        /* \"contractsproxy/CommunityGovernanceMultisigImplementation.sol\":3055:3110  communityMultiSigs[_communityId].proposals[_proposalId] */\n      dup2\n      mstore\n      0x20\n      add\n      swap1\n      dup2\n      mstore\n      0x20\n      add\n      0x00\n      keccak256\n        /* \"contractsproxy/CommunityGovernanceMultisigImplementation.sol\":3055:3125  communityMultiSigs[_communityId].proposals[_proposalId].signatureCount */\n      0x03\n      add\n      sload\n        /* \"contractsproxy/CommunityGovernanceMultisigImplementation.sol\":3055:3130  communityMultiSigs[_communityId].proposals[_proposalId].signatureCount == 0 */\n      eq\n        /* \"contractsproxy/CommunityGovernanceMultisigImplementation.sol\":3047:3161  require(communityMultiSigs[_communityId].proposals[_proposalId].signatureCount == 0, \"Proposal ID already exists\") */\n      tag_181\n      jumpi\n      mload(0x40)\n      0x08c379a000000000000000000000000000000000000000000000000000000000\n      dup2\n      mstore\n      0x04\n      add\n      tag_182\n      swap1\n      tag_183\n      jump\t// in\n    tag_182:\n      mload(0x40)\n      dup1\n      swap2\n      sub\n      swap1\n      revert\n    tag_181:\n        /* \"contractsproxy/CommunityGovernanceMultisigImplementation.sol\":3180:3213  MultiSigProposal storage proposal */\n      0x00\n        /* \"contractsproxy/CommunityGovernanceMultisigImplementation.sol\":3216:3234  communityMultiSigs */\n      0x02\n        /* \"contractsproxy/CommunityGovernanceMultisigImplementation.sol\":3216:3248  communityMultiSigs[_communityId] */\n      0x00\n        /* \"contractsproxy/CommunityGovernanceMultisigImplementation.sol\":3235:3247  _communityId */\n      dup8\n        /* \"contractsproxy/CommunityGovernanceMultisigImplementation.sol\":3216:3248  communityMultiSigs[_communityId] */\n      dup2\n      mstore\n      0x20\n      add\n      swap1\n      dup2\n      mstore\n      0x20\n      add\n      0x00\n      keccak256\n        /* \"contractsproxy/CommunityGovernanceMultisigImplementation.sol\":3216:3258  communityMultiSigs[_communityId].proposals */\n      0x00\n      add\n        /* \"contractsproxy/CommunityGovernanceMultisigImplementation.sol\":3216:3271  communityMultiSigs[_communityId].proposals[_proposalId] */\n      0x00\n        /* \"contractsproxy/CommunityGovernanceMultisigImplementation.sol\":3259:3270  _proposalId */\n      dup7\n        /* \"contractsproxy/CommunityGovernanceMultisigImplementation.sol\":3216:3271  communityMultiSigs[_communityId].proposals[_proposalId] */\n      dup2\n      mstore\n      0x20\n      add\n      swap1\n      dup2\n      mstore\n      0x20\n      add\n      0x00\n      keccak256\n        /* \"contractsproxy/CommunityGovernanceMultisigImplementation.sol\":3180:3271  MultiSigProposal storage proposal = communityMultiSigs[_communityId].proposals[_proposalId] */\n      swap1\n      pop\n        /* \"contractsproxy/CommunityGovernanceMultisigImplementation.sol\":3314:3319  _type */\n      dup4\n        /* \"contractsproxy/CommunityGovernanceMultisigImplementation.sol\":3290:3298  proposal */\n      dup2\n        /* \"contractsproxy/CommunityGovernanceMultisigImplementation.sol\":3290:3311  proposal.proposalType */\n      0x00\n      add\n      0x00\n        /* \"contractsproxy/CommunityGovernanceMultisigImplementation.sol\":3290:3319  proposal.proposalType = _type */\n      0x0100\n      exp\n      dup2\n      sload\n      dup2\n      0xff\n      mul\n      not\n      and\n      swap1\n      dup4\n      0x02\n      dup2\n      gt\n      iszero\n      tag_184\n      jumpi\n      tag_185\n      tag_186\n      jump\t// in\n    tag_185:\n    tag_184:\n      mul\n      or\n      swap1\n      sstore\n      pop\n        /* \"contractsproxy/CommunityGovernanceMultisigImplementation.sol\":3346:3352  _value */\n      dup3\n        /* \"contractsproxy/CommunityGovernanceMultisigImplementation.sol\":3329:3337  proposal */\n      dup2\n        /* \"contractsproxy/CommunityGovernanceMultisigImplementation.sol\":3329:3343  proposal.value */\n      0x01\n      add\n        /* \"contractsproxy/CommunityGovernanceMultisigImplementation.sol\":3329:3352  proposal.value = _value */\n      dup2\n      swap1\n      sstore\n      pop\n        /* \"contractsproxy/CommunityGovernanceMultisigImplementation.sol\":3386:3399  _targetMember */\n      dup2\n        /* \"contractsproxy/CommunityGovernanceMultisigImplementation.sol\":3362:3370  proposal */\n      dup2\n        /* \"contractsproxy/CommunityGovernanceMultisigImplementation.sol\":3362:3383  proposal.targetMember */\n      0x02\n      add\n      0x00\n        /* \"contractsproxy/CommunityGovernanceMultisigImplementation.sol\":3362:3399  proposal.targetMember = _targetMember */\n      0x0100\n      exp\n      dup2\n      sload\n      dup2\n      0xffffffffffffffffffffffffffffffffffffffff\n      mul\n      not\n      and\n      swap1\n      dup4\n      0xffffffffffffffffffffffffffffffffffffffff\n      and\n      mul\n      or\n      swap1\n      sstore\n      pop\n        /* \"contractsproxy/CommunityGovernanceMultisigImplementation.sol\":3435:3436  1 */\n      0x01\n        /* \"contractsproxy/CommunityGovernanceMultisigImplementation.sol\":3409:3417  proposal */\n      dup2\n        /* \"contractsproxy/CommunityGovernanceMultisigImplementation.sol\":3409:3432  proposal.signatureCount */\n      0x03\n      add\n        /* \"contractsproxy/CommunityGovernanceMultisigImplementation.sol\":3409:3436  proposal.signatureCount = 1 */\n      dup2\n      swap1\n      sstore\n      pop\n        /* \"contractsproxy/CommunityGovernanceMultisigImplementation.sol\":3487:3491  true */\n      0x01\n        /* \"contractsproxy/CommunityGovernanceMultisigImplementation.sol\":3446:3454  proposal */\n      dup2\n        /* \"contractsproxy/CommunityGovernanceMultisigImplementation.sol\":3446:3472  proposal.hasSignedProposal */\n      0x04\n      add\n        /* \"contractsproxy/CommunityGovernanceMultisigImplementation.sol\":3446:3484  proposal.hasSignedProposal[msg.sender] */\n      0x00\n        /* \"contractsproxy/CommunityGovernanceMultisigImplementation.sol\":3473:3483  msg.sender */\n      caller\n        /* \"contractsproxy/CommunityGovernanceMultisigImplementation.sol\":3446:3484  proposal.hasSignedProposal[msg.sender] */\n      0xffffffffffffffffffffffffffffffffffffffff\n      and\n      0xffffffffffffffffffffffffffffffffffffffff\n      and\n      dup2\n      mstore\n      0x20\n      add\n      swap1\n      dup2\n      mstore\n      0x20\n      add\n      0x00\n      keccak256\n      0x00\n        /* \"contractsproxy/CommunityGovernanceMultisigImplementation.sol\":3446:3491  proposal.hasSignedProposal[msg.sender] = true */\n      0x0100\n      exp\n      dup2\n      sload\n      dup2\n      0xff\n      mul\n      not\n      and\n      swap1\n      dup4\n      iszero\n      iszero\n      mul\n      or\n      swap1\n      sstore\n      pop\n        /* \"contractsproxy/CommunityGovernanceMultisigImplementation.sol\":3545:3556  _proposalId */\n      dup5\n        /* \"contractsproxy/CommunityGovernanceMultisigImplementation.sol\":3531:3543  _communityId */\n      dup7\n        /* \"contractsproxy/CommunityGovernanceMultisigImplementation.sol\":3515:3564  ProposalCreated(_communityId, _proposalId, _type) */\n      0xb6e96f518c19cffcfba1957109656f5d029c7562f7b417e9556d302c857c090f\n        /* \"contractsproxy/CommunityGovernanceMultisigImplementation.sol\":3558:3563  _type */\n      dup7\n        /* \"contractsproxy/CommunityGovernanceMultisigImplementation.sol\":3515:3564  ProposalCreated(_communityId, _proposalId, _type) */\n      mload(0x40)\n      tag_187\n      swap2\n      swap1\n      tag_188\n      jump\t// in\n    tag_187:\n      mload(0x40)\n      dup1\n      swap2\n      sub\n      swap1\n      log3\n        /* \"contractsproxy/CommunityGovernanceMultisigImplementation.sol\":2916:3571  {... */\n      pop\n        /* \"contractsproxy/CommunityGovernanceMultisigImplementation.sol\":2781:3571  function createProposal(uint256 _communityId, uint256 _proposalId, ProposalType _type, uint256 _value, address _targetMember) external {... */\n      pop\n      pop\n      pop\n      pop\n      pop\n      jump\t// out\n        /* \"contractsproxy/CommunityGovernanceMultisigImplementation.sol\":639:745  function initialize(address initialOwner) public initializer {... */\n    tag_61:\n        /* \"@openzeppelin/contracts-upgradeable/proxy/utils/Initializable.sol\":4158:4188  InitializableStorage storage $ */\n      0x00\n        /* \"@openzeppelin/contracts-upgradeable/proxy/utils/Initializable.sol\":4191:4217  _getInitializableStorage() */\n      tag_190\n        /* \"@openzeppelin/contracts-upgradeable/proxy/utils/Initializable.sol\":4191:4215  _getInitializableStorage */\n      tag_191\n        /* \"@openzeppelin/contracts-upgradeable/proxy/utils/Initializable.sol\":4191:4217  _getInitializableStorage() */\n      jump\t// in\n    tag_190:\n        /* \"@openzeppelin/contracts-upgradeable/proxy/utils/Initializable.sol\":4158:4217  InitializableStorage storage $ = _getInitializableStorage() */\n      swap1\n      pop\n        /* \"@openzeppelin/contracts-upgradeable/proxy/utils/Initializable.sol\":4279:4298  bool isTopLevelCall */\n      0x00\n        /* \"@openzeppelin/contracts-upgradeable/proxy/utils/Initializable.sol\":4302:4303  $ */\n      dup2\n        /* \"@openzeppelin/contracts-upgradeable/proxy/utils/Initializable.sol\":4302:4317  $._initializing */\n      0x00\n      add\n      0x08\n      swap1\n      sload\n      swap1\n      0x0100\n      exp\n      swap1\n      div\n      0xff\n      and\n        /* \"@openzeppelin/contracts-upgradeable/proxy/utils/Initializable.sol\":4301:4317  !$._initializing */\n      iszero\n        /* \"@openzeppelin/contracts-upgradeable/proxy/utils/Initializable.sol\":4279:4317  bool isTopLevelCall = !$._initializing */\n      swap1\n      pop\n        /* \"@openzeppelin/contracts-upgradeable/proxy/utils/Initializable.sol\":4327:4345  uint64 initialized */\n      0x00\n        /* \"@openzeppelin/contracts-upgradeable/proxy/utils/Initializable.sol\":4348:4349  $ */\n      dup3\n        /* \"@openzeppelin/contracts-upgradeable/proxy/utils/Initializable.sol\":4348:4362  $._initialized */\n      0x00\n      add\n      0x00\n      swap1\n      sload\n      swap1\n      0x0100\n      exp\n      swap1\n      div\n      0xffffffffffffffff\n      and\n        /* \"@openzeppelin/contracts-upgradeable/proxy/utils/Initializable.sol\":4327:4362  uint64 initialized = $._initialized */\n      swap1\n      pop\n        /* \"@openzeppelin/contracts-upgradeable/proxy/utils/Initializable.sol\":4706:4723  bool initialSetup */\n      0x00\n        /* \"@openzeppelin/contracts-upgradeable/proxy/utils/Initializable.sol\":4741:4742  0 */\n      dup1\n        /* \"@openzeppelin/contracts-upgradeable/proxy/utils/Initializable.sol\":4726:4737  initialized */\n      dup3\n        /* \"@openzeppelin/contracts-upgradeable/proxy/utils/Initializable.sol\":4726:4742  initialized == 0 */\n      0xffffffffffffffff\n      and\n      eq\n        /* \"@openzeppelin/contracts-upgradeable/proxy/utils/Initializable.sol\":4726:4760  initialized == 0 && isTopLevelCall */\n      dup1\n      iszero\n      tag_192\n      jumpi\n      pop\n        /* \"@openzeppelin/contracts-upgradeable/proxy/utils/Initializable.sol\":4746:4760  isTopLevelCall */\n      dup3\n        /* \"@openzeppelin/contracts-upgradeable/proxy/utils/Initializable.sol\":4726:4760  initialized == 0 && isTopLevelCall */\n    tag_192:\n        /* \"@openzeppelin/contracts-upgradeable/proxy/utils/Initializable.sol\":4706:4760  bool initialSetup = initialized == 0 && isTopLevelCall */\n      swap1\n      pop\n        /* \"@openzeppelin/contracts-upgradeable/proxy/utils/Initializable.sol\":4770:4787  bool construction */\n      0x00\n        /* \"@openzeppelin/contracts-upgradeable/proxy/utils/Initializable.sol\":4805:4806  1 */\n      0x01\n        /* \"@openzeppelin/contracts-upgradeable/proxy/utils/Initializable.sol\":4790:4801  initialized */\n      dup4\n        /* \"@openzeppelin/contracts-upgradeable/proxy/utils/Initializable.sol\":4790:4806  initialized == 1 */\n      0xffffffffffffffff\n      and\n      eq\n        /* \"@openzeppelin/contracts-upgradeable/proxy/utils/Initializable.sol\":4790:4840  initialized == 1 && address(this).code.length == 0 */\n      dup1\n      iszero\n      tag_193\n      jumpi\n      pop\n        /* \"@openzeppelin/contracts-upgradeable/proxy/utils/Initializable.sol\":4839:4840  0 */\n      0x00\n        /* \"@openzeppelin/contracts-upgradeable/proxy/utils/Initializable.sol\":4818:4822  this */\n      address\n        /* \"@openzeppelin/contracts-upgradeable/proxy/utils/Initializable.sol\":4810:4835  address(this).code.length */\n      0xffffffffffffffffffffffffffffffffffffffff\n      and\n      extcodesize\n        /* \"@openzeppelin/contracts-upgradeable/proxy/utils/Initializable.sol\":4810:4840  address(this).code.length == 0 */\n      eq\n        /* \"@openzeppelin/contracts-upgradeable/proxy/utils/Initializable.sol\":4790:4840  initialized == 1 && address(this).code.length == 0 */\n    tag_193:\n        /* \"@openzeppelin/contracts-upgradeable/proxy/utils/Initializable.sol\":4770:4840  bool construction = initialized == 1 && address(this).code.length == 0 */\n      swap1\n      pop\n        /* \"@openzeppelin/contracts-upgradeable/proxy/utils/Initializable.sol\":4856:4868  initialSetup */\n      dup2\n        /* \"@openzeppelin/contracts-upgradeable/proxy/utils/Initializable.sol\":4855:4868  !initialSetup */\n      iszero\n        /* \"@openzeppelin/contracts-upgradeable/proxy/utils/Initializable.sol\":4855:4885  !initialSetup && !construction */\n      dup1\n      iszero\n      tag_194\n      jumpi\n      pop\n        /* \"@openzeppelin/contracts-upgradeable/proxy/utils/Initializable.sol\":4873:4885  construction */\n      dup1\n        /* \"@openzeppelin/contracts-upgradeable/proxy/utils/Initializable.sol\":4872:4885  !construction */\n      iszero\n        /* \"@openzeppelin/contracts-upgradeable/proxy/utils/Initializable.sol\":4855:4885  !initialSetup && !construction */\n    tag_194:\n        /* \"@openzeppelin/contracts-upgradeable/proxy/utils/Initializable.sol\":4851:4942  if (!initialSetup && !construction) {... */\n      iszero\n      tag_195\n      jumpi\n        /* \"@openzeppelin/contracts-upgradeable/proxy/utils/Initializable.sol\":4908:4931  InvalidInitialization() */\n      mload(0x40)\n      0xf92ee8a900000000000000000000000000000000000000000000000000000000\n      dup2\n      mstore\n      0x04\n      add\n      mload(0x40)\n      dup1\n      swap2\n      sub\n      swap1\n      revert\n        /* \"@openzeppelin/contracts-upgradeable/proxy/utils/Initializable.sol\":4851:4942  if (!initialSetup && !construction) {... */\n    tag_195:\n        /* \"@openzeppelin/contracts-upgradeable/proxy/utils/Initializable.sol\":4968:4969  1 */\n      0x01\n        /* \"@openzeppelin/contracts-upgradeable/proxy/utils/Initializable.sol\":4951:4952  $ */\n      dup6\n        /* \"@openzeppelin/contracts-upgradeable/proxy/utils/Initializable.sol\":4951:4965  $._initialized */\n      0x00\n      add\n      0x00\n        /* \"@openzeppelin/contracts-upgradeable/proxy/utils/Initializable.sol\":4951:4969  $._initialized = 1 */\n      0x0100\n      exp\n      dup2\n      sload\n      dup2\n      0xffffffffffffffff\n      mul\n      not\n      and\n      swap1\n      dup4\n      0xffffffffffffffff\n      and\n      mul\n      or\n      swap1\n      sstore\n      pop\n        /* \"@openzeppelin/contracts-upgradeable/proxy/utils/Initializable.sol\":4983:4997  isTopLevelCall */\n      dup4\n        /* \"@openzeppelin/contracts-upgradeable/proxy/utils/Initializable.sol\":4979:5046  if (isTopLevelCall) {... */\n      iszero\n      tag_196\n      jumpi\n        /* \"@openzeppelin/contracts-upgradeable/proxy/utils/Initializable.sol\":5031:5035  true */\n      0x01\n        /* \"@openzeppelin/contracts-upgradeable/proxy/utils/Initializable.sol\":5013:5014  $ */\n      dup6\n        /* \"@openzeppelin/contracts-upgradeable/proxy/utils/Initializable.sol\":5013:5028  $._initializing */\n      0x00\n      add\n      0x08\n        /* \"@openzeppelin/contracts-upgradeable/proxy/utils/Initializable.sol\":5013:5035  $._initializing = true */\n      0x0100\n      exp\n      dup2\n      sload\n      dup2\n      0xff\n      mul\n      not\n      and\n      swap1\n      dup4\n      iszero\n      iszero\n      mul\n      or\n      swap1\n      sstore\n      pop\n        /* \"@openzeppelin/contracts-upgradeable/proxy/utils/Initializable.sol\":4979:5046  if (isTopLevelCall) {... */\n    tag_196:\n        /* \"contractsproxy/CommunityGovernanceMultisigImplementation.sol\":710:738  __Ownable_init(initialOwner) */\n      tag_198\n        /* \"contractsproxy/CommunityGovernanceMultisigImplementation.sol\":725:737  initialOwner */\n      dup7\n        /* \"contractsproxy/CommunityGovernanceMultisigImplementation.sol\":710:724  __Ownable_init */\n      tag_199\n        /* \"contractsproxy/CommunityGovernanceMultisigImplementation.sol\":710:738  __Ownable_init(initialOwner) */\n      jump\t// in\n    tag_198:\n        /* \"@openzeppelin/contracts-upgradeable/proxy/utils/Initializable.sol\":5070:5084  isTopLevelCall */\n      dup4\n        /* \"@openzeppelin/contracts-upgradeable/proxy/utils/Initializable.sol\":5066:5167  if (isTopLevelCall) {... */\n      iszero\n      tag_200\n      jumpi\n        /* \"@openzeppelin/contracts-upgradeable/proxy/utils/Initializable.sol\":5118:5123  false */\n      0x00\n        /* \"@openzeppelin/contracts-upgradeable/proxy/utils/Initializable.sol\":5100:5101  $ */\n      dup6\n        /* \"@openzeppelin/contracts-upgradeable/proxy/utils/Initializable.sol\":5100:5115  $._initializing */\n      0x00\n      add\n      0x08\n        /* \"@openzeppelin/contracts-upgradeable/proxy/utils/Initializable.sol\":5100:5123  $._initializing = false */\n      0x0100\n      exp\n      dup2\n      sload\n      dup2\n      0xff\n      mul\n      not\n      and\n      swap1\n      dup4\n      iszero\n      iszero\n      mul\n      or\n      swap1\n      sstore\n      pop\n        /* \"@openzeppelin/contracts-upgradeable/proxy/utils/Initializable.sol\":5142:5156  Initialized(1) */\n      0xc7f505b2f371ae2175ee4913f4499e1f2633a7b5936321eed1cdaeb6115181d2\n        /* \"@openzeppelin/contracts-upgradeable/proxy/utils/Initializable.sol\":5154:5155  1 */\n      0x01\n        /* \"@openzeppelin/contracts-upgradeable/proxy/utils/Initializable.sol\":5142:5156  Initialized(1) */\n      mload(0x40)\n      tag_201\n      swap2\n      swap1\n      tag_202\n      jump\t// in\n    tag_201:\n      mload(0x40)\n      dup1\n      swap2\n      sub\n      swap1\n      log1\n        /* \"@openzeppelin/contracts-upgradeable/proxy/utils/Initializable.sol\":5066:5167  if (isTopLevelCall) {... */\n    tag_200:\n        /* \"@openzeppelin/contracts-upgradeable/proxy/utils/Initializable.sol\":4092:5173  {... */\n      pop\n      pop\n      pop\n      pop\n      pop\n        /* \"contractsproxy/CommunityGovernanceMultisigImplementation.sol\":639:745  function initialize(address initialOwner) public initializer {... */\n      pop\n      jump\t// out\n        /* \"contractsproxy/CommunityGovernanceMultisigImplementation.sol\":751:923  function setProfilesContract(address _profilesContractAddress) external onlyOwner {... */\n    tag_64:\n        /* \"@openzeppelin/contracts-upgradeable/access/OwnableUpgradeable.sol\":2334:2347  _checkOwner() */\n      tag_204\n        /* \"@openzeppelin/contracts-upgradeable/access/OwnableUpgradeable.sol\":2334:2345  _checkOwner */\n      tag_172\n        /* \"@openzeppelin/contracts-upgradeable/access/OwnableUpgradeable.sol\":2334:2347  _checkOwner() */\n      jump\t// in\n    tag_204:\n        /* \"contractsproxy/CommunityGovernanceMultisigImplementation.sol\":891:915  _profilesContractAddress */\n      dup1\n        /* \"contractsproxy/CommunityGovernanceMultisigImplementation.sol\":843:859  profilesContract */\n      0x00\n      dup1\n        /* \"contractsproxy/CommunityGovernanceMultisigImplementation.sol\":843:916  profilesContract = ICommunityGovernanceProfiles(_profilesContractAddress) */\n      0x0100\n      exp\n      dup2\n      sload\n      dup2\n      0xffffffffffffffffffffffffffffffffffffffff\n      mul\n      not\n      and\n      swap1\n      dup4\n      0xffffffffffffffffffffffffffffffffffffffff\n      and\n      mul\n      or\n      swap1\n      sstore\n      pop\n        /* \"contractsproxy/CommunityGovernanceMultisigImplementation.sol\":751:923  function setProfilesContract(address _profilesContractAddress) external onlyOwner {... */\n      pop\n      jump\t// out\n        /* \"contractsproxy/CommunityGovernanceMultisigImplementation.sol\":929:1126  function setContributionsContract(address _contributionsContractAddress) external onlyOwner {... */\n    tag_67:\n        /* \"@openzeppelin/contracts-upgradeable/access/OwnableUpgradeable.sol\":2334:2347  _checkOwner() */\n      tag_207\n        /* \"@openzeppelin/contracts-upgradeable/access/OwnableUpgradeable.sol\":2334:2345  _checkOwner */\n      tag_172\n        /* \"@openzeppelin/contracts-upgradeable/access/OwnableUpgradeable.sol\":2334:2347  _checkOwner() */\n      jump\t// in\n    tag_207:\n        /* \"contractsproxy/CommunityGovernanceMultisigImplementation.sol\":1089:1118  _contributionsContractAddress */\n      dup1\n        /* \"contractsproxy/CommunityGovernanceMultisigImplementation.sol\":1031:1052  contributionsContract */\n      0x01\n      0x00\n        /* \"contractsproxy/CommunityGovernanceMultisigImplementation.sol\":1031:1119  contributionsContract = ICommunityGovernanceContributions(_contributionsContractAddress) */\n      0x0100\n      exp\n      dup2\n      sload\n      dup2\n      0xffffffffffffffffffffffffffffffffffffffff\n      mul\n      not\n      and\n      swap1\n      dup4\n      0xffffffffffffffffffffffffffffffffffffffff\n      and\n      mul\n      or\n      swap1\n      sstore\n      pop\n        /* \"contractsproxy/CommunityGovernanceMultisigImplementation.sol\":929:1126  function setContributionsContract(address _contributionsContractAddress) external onlyOwner {... */\n      pop\n      jump\t// out\n        /* \"contractsproxy/CommunityGovernanceMultisigImplementation.sol\":6389:6549  function getRespectToDistribute(uint256 _communityId) public view returns (uint256) {... */\n    tag_70:\n        /* \"contractsproxy/CommunityGovernanceMultisigImplementation.sol\":6464:6471  uint256 */\n      0x00\n        /* \"contractsproxy/CommunityGovernanceMultisigImplementation.sol\":6490:6508  communityMultiSigs */\n      0x02\n        /* \"contractsproxy/CommunityGovernanceMultisigImplementation.sol\":6490:6522  communityMultiSigs[_communityId] */\n      0x00\n        /* \"contractsproxy/CommunityGovernanceMultisigImplementation.sol\":6509:6521  _communityId */\n      dup4\n        /* \"contractsproxy/CommunityGovernanceMultisigImplementation.sol\":6490:6522  communityMultiSigs[_communityId] */\n      dup2\n      mstore\n      0x20\n      add\n      swap1\n      dup2\n      mstore\n      0x20\n      add\n      0x00\n      keccak256\n        /* \"contractsproxy/CommunityGovernanceMultisigImplementation.sol\":6490:6542  communityMultiSigs[_communityId].respectToDistribute */\n      0x06\n      add\n      sload\n        /* \"contractsproxy/CommunityGovernanceMultisigImplementation.sol\":6483:6542  return communityMultiSigs[_communityId].respectToDistribute */\n      swap1\n      pop\n        /* \"contractsproxy/CommunityGovernanceMultisigImplementation.sol\":6389:6549  function getRespectToDistribute(uint256 _communityId) public view returns (uint256) {... */\n      swap2\n      swap1\n      pop\n      jump\t// out\n        /* \"contractsproxy/CommunityGovernanceMultiSigStorage.sol\":283:345  ICommunityGovernanceContributions public contributionsContract */\n    tag_74:\n      0x01\n      0x00\n      swap1\n      sload\n      swap1\n      0x0100\n      exp\n      swap1\n      div\n      0xffffffffffffffffffffffffffffffffffffffff\n      and\n      dup2\n      jump\t// out\n        /* \"contractsproxy/CommunityGovernanceMultisigImplementation.sol\":6910:7078  function getTopRespectedUsers(uint256 _communityId) external view returns (address[5] memory) {... */\n    tag_79:\n        /* \"contractsproxy/CommunityGovernanceMultisigImplementation.sol\":6985:7002  address[5] memory */\n      tag_210\n      tag_89\n      jump\t// in\n    tag_210:\n        /* \"contractsproxy/CommunityGovernanceMultisigImplementation.sol\":7021:7039  communityMultiSigs */\n      0x02\n        /* \"contractsproxy/CommunityGovernanceMultisigImplementation.sol\":7021:7053  communityMultiSigs[_communityId] */\n      0x00\n        /* \"contractsproxy/CommunityGovernanceMultisigImplementation.sol\":7040:7052  _communityId */\n      dup4\n        /* \"contractsproxy/CommunityGovernanceMultisigImplementation.sol\":7021:7053  communityMultiSigs[_communityId] */\n      dup2\n      mstore\n      0x20\n      add\n      swap1\n      dup2\n      mstore\n      0x20\n      add\n      0x00\n      keccak256\n        /* \"contractsproxy/CommunityGovernanceMultisigImplementation.sol\":7021:7071  communityMultiSigs[_communityId].topRespectedUsers */\n      0x01\n      add\n        /* \"contractsproxy/CommunityGovernanceMultisigImplementation.sol\":7014:7071  return communityMultiSigs[_communityId].topRespectedUsers */\n      0x05\n      dup1\n      0x20\n      mul\n      mload(0x40)\n      swap1\n      dup2\n      add\n      0x40\n      mstore\n      dup1\n      swap3\n      swap2\n      swap1\n      dup3\n      0x05\n      dup1\n      iszero\n      tag_212\n      jumpi\n      0x20\n      mul\n      dup3\n      add\n      swap2\n    tag_213:\n      dup2\n      0x00\n      swap1\n      sload\n      swap1\n      0x0100\n      exp\n      swap1\n      div\n      0xffffffffffffffffffffffffffffffffffffffff\n      and\n      0xffffffffffffffffffffffffffffffffffffffff\n      and\n      dup2\n      mstore\n      0x20\n      add\n      swap1\n      0x01\n      add\n      swap1\n      dup1\n      dup4\n      gt\n      tag_213\n      jumpi\n    tag_212:\n      pop\n      pop\n      pop\n      pop\n      pop\n      swap1\n      pop\n        /* \"contractsproxy/CommunityGovernanceMultisigImplementation.sol\":6910:7078  function getTopRespectedUsers(uint256 _communityId) external view returns (address[5] memory) {... */\n      swap2\n      swap1\n      pop\n      jump\t// out\n        /* \"@openzeppelin/contracts-upgradeable/access/OwnableUpgradeable.sol\":3405:3620  function transferOwnership(address newOwner) public virtual onlyOwner {... */\n    tag_84:\n        /* \"@openzeppelin/contracts-upgradeable/access/OwnableUpgradeable.sol\":2334:2347  _checkOwner() */\n      tag_215\n        /* \"@openzeppelin/contracts-upgradeable/access/OwnableUpgradeable.sol\":2334:2345  _checkOwner */\n      tag_172\n        /* \"@openzeppelin/contracts-upgradeable/access/OwnableUpgradeable.sol\":2334:2347  _checkOwner() */\n      jump\t// in\n    tag_215:\n        /* \"@openzeppelin/contracts-upgradeable/access/OwnableUpgradeable.sol\":3509:3510  0 */\n      0x00\n        /* \"@openzeppelin/contracts-upgradeable/access/OwnableUpgradeable.sol\":3489:3511  newOwner == address(0) */\n      0xffffffffffffffffffffffffffffffffffffffff\n      and\n        /* \"@openzeppelin/contracts-upgradeable/access/OwnableUpgradeable.sol\":3489:3497  newOwner */\n      dup2\n        /* \"@openzeppelin/contracts-upgradeable/access/OwnableUpgradeable.sol\":3489:3511  newOwner == address(0) */\n      0xffffffffffffffffffffffffffffffffffffffff\n      and\n      sub\n        /* \"@openzeppelin/contracts-upgradeable/access/OwnableUpgradeable.sol\":3485:3576  if (newOwner == address(0)) {... */\n      tag_217\n      jumpi\n        /* \"@openzeppelin/contracts-upgradeable/access/OwnableUpgradeable.sol\":3562:3563  0 */\n      0x00\n        /* \"@openzeppelin/contracts-upgradeable/access/OwnableUpgradeable.sol\":3534:3565  OwnableInvalidOwner(address(0)) */\n      mload(0x40)\n      0x1e4fbdf700000000000000000000000000000000000000000000000000000000\n      dup2\n      mstore\n      0x04\n      add\n      tag_218\n      swap2\n      swap1\n      tag_47\n      jump\t// in\n    tag_218:\n      mload(0x40)\n      dup1\n      swap2\n      sub\n      swap1\n      revert\n        /* \"@openzeppelin/contracts-upgradeable/access/OwnableUpgradeable.sol\":3485:3576  if (newOwner == address(0)) {... */\n    tag_217:\n        /* \"@openzeppelin/contracts-upgradeable/access/OwnableUpgradeable.sol\":3585:3613  _transferOwnership(newOwner) */\n      tag_219\n        /* \"@openzeppelin/contracts-upgradeable/access/OwnableUpgradeable.sol\":3604:3612  newOwner */\n      dup2\n        /* \"@openzeppelin/contracts-upgradeable/access/OwnableUpgradeable.sol\":3585:3603  _transferOwnership */\n      tag_175\n        /* \"@openzeppelin/contracts-upgradeable/access/OwnableUpgradeable.sol\":3585:3613  _transferOwnership(newOwner) */\n      jump\t// in\n    tag_219:\n        /* \"@openzeppelin/contracts-upgradeable/access/OwnableUpgradeable.sol\":3405:3620  function transferOwnership(address newOwner) public virtual onlyOwner {... */\n      pop\n      jump\t// out\n        /* \"contractsproxy/CommunityGovernanceMultisigImplementation.sol\":3577:4397  function signProposal(uint256 _communityId, uint256 _proposalId) external {... */\n    tag_87:\n        /* \"contractsproxy/CommunityGovernanceMultisigImplementation.sol\":3669:3751  isTopRespectedUser(msg.sender, communityMultiSigs[_communityId].topRespectedUsers) */\n      tag_221\n        /* \"contractsproxy/CommunityGovernanceMultisigImplementation.sol\":3688:3698  msg.sender */\n      caller\n        /* \"contractsproxy/CommunityGovernanceMultisigImplementation.sol\":3700:3718  communityMultiSigs */\n      0x02\n        /* \"contractsproxy/CommunityGovernanceMultisigImplementation.sol\":3700:3732  communityMultiSigs[_communityId] */\n      0x00\n        /* \"contractsproxy/CommunityGovernanceMultisigImplementation.sol\":3719:3731  _communityId */\n      dup6\n        /* \"contractsproxy/CommunityGovernanceMultisigImplementation.sol\":3700:3732  communityMultiSigs[_communityId] */\n      dup2\n      mstore\n      0x20\n      add\n      swap1\n      dup2\n      mstore\n      0x20\n      add\n      0x00\n      keccak256\n        /* \"contractsproxy/CommunityGovernanceMultisigImplementation.sol\":3700:3750  communityMultiSigs[_communityId].topRespectedUsers */\n      0x01\n      add\n        /* \"contractsproxy/CommunityGovernanceMultisigImplementation.sol\":3669:3751  isTopRespectedUser(msg.sender, communityMultiSigs[_communityId].topRespectedUsers) */\n      0x05\n      dup1\n      0x20\n      mul\n      mload(0x40)\n      swap1\n      dup2\n      add\n      0x40\n      mstore\n      dup1\n      swap3\n      swap2\n      swap1\n      dup3\n      0x05\n      dup1\n      iszero\n      tag_222\n      jumpi\n      0x20\n      mul\n      dup3\n      add\n      swap2\n    tag_223:\n      dup2\n      0x00\n      swap1\n      sload\n      swap1\n      0x0100\n      exp\n      swap1\n      div\n      0xffffffffffffffffffffffffffffffffffffffff\n      and\n      0xffffffffffffffffffffffffffffffffffffffff\n      and\n      dup2\n      mstore\n      0x20\n      add\n      swap1\n      0x01\n      add\n      swap1\n      dup1\n      dup4\n      gt\n      tag_223\n      jumpi\n    tag_222:\n      pop\n      pop\n      pop\n      pop\n      pop\n        /* \"contractsproxy/CommunityGovernanceMultisigImplementation.sol\":3669:3687  isTopRespectedUser */\n      tag_224\n        /* \"contractsproxy/CommunityGovernanceMultisigImplementation.sol\":3669:3751  isTopRespectedUser(msg.sender, communityMultiSigs[_communityId].topRespectedUsers) */\n      jump\t// in\n    tag_221:\n        /* \"contractsproxy/CommunityGovernanceMultisigImplementation.sol\":3661:3770  require(isTopRespectedUser(msg.sender, communityMultiSigs[_communityId].topRespectedUsers), \"Not authorized\") */\n      tag_225\n      jumpi\n      mload(0x40)\n      0x08c379a000000000000000000000000000000000000000000000000000000000\n      dup2\n      mstore\n      0x04\n      add\n      tag_226\n      swap1\n      tag_227\n      jump\t// in\n    tag_226:\n      mload(0x40)\n      dup1\n      swap2\n      sub\n      swap1\n      revert\n    tag_225:\n        /* \"contractsproxy/CommunityGovernanceMultisigImplementation.sol\":3789:3822  MultiSigProposal storage proposal */\n      0x00\n        /* \"contractsproxy/CommunityGovernanceMultisigImplementation.sol\":3825:3843  communityMultiSigs */\n      0x02\n        /* \"contractsproxy/CommunityGovernanceMultisigImplementation.sol\":3825:3857  communityMultiSigs[_communityId] */\n      0x00\n        /* \"contractsproxy/CommunityGovernanceMultisigImplementation.sol\":3844:3856  _communityId */\n      dup5\n        /* \"contractsproxy/CommunityGovernanceMultisigImplementation.sol\":3825:3857  communityMultiSigs[_communityId] */\n      dup2\n      mstore\n      0x20\n      add\n      swap1\n      dup2\n      mstore\n      0x20\n      add\n      0x00\n      keccak256\n        /* \"contractsproxy/CommunityGovernanceMultisigImplementation.sol\":3825:3867  communityMultiSigs[_communityId].proposals */\n      0x00\n      add\n        /* \"contractsproxy/CommunityGovernanceMultisigImplementation.sol\":3825:3880  communityMultiSigs[_communityId].proposals[_proposalId] */\n      0x00\n        /* \"contractsproxy/CommunityGovernanceMultisigImplementation.sol\":3868:3879  _proposalId */\n      dup4\n        /* \"contractsproxy/CommunityGovernanceMultisigImplementation.sol\":3825:3880  communityMultiSigs[_communityId].proposals[_proposalId] */\n      dup2\n      mstore\n      0x20\n      add\n      swap1\n      dup2\n      mstore\n      0x20\n      add\n      0x00\n      keccak256\n        /* \"contractsproxy/CommunityGovernanceMultisigImplementation.sol\":3789:3880  MultiSigProposal storage proposal = communityMultiSigs[_communityId].proposals[_proposalId] */\n      swap1\n      pop\n        /* \"contractsproxy/CommunityGovernanceMultisigImplementation.sol\":3924:3925  0 */\n      0x00\n        /* \"contractsproxy/CommunityGovernanceMultisigImplementation.sol\":3898:3906  proposal */\n      dup2\n        /* \"contractsproxy/CommunityGovernanceMultisigImplementation.sol\":3898:3921  proposal.signatureCount */\n      0x03\n      add\n      sload\n        /* \"contractsproxy/CommunityGovernanceMultisigImplementation.sol\":3898:3925  proposal.signatureCount > 0 */\n      gt\n        /* \"contractsproxy/CommunityGovernanceMultisigImplementation.sol\":3890:3953  require(proposal.signatureCount > 0, \"Proposal does not exist\") */\n      tag_228\n      jumpi\n      mload(0x40)\n      0x08c379a000000000000000000000000000000000000000000000000000000000\n      dup2\n      mstore\n      0x04\n      add\n      tag_229\n      swap1\n      tag_230\n      jump\t// in\n    tag_229:\n      mload(0x40)\n      dup1\n      swap2\n      sub\n      swap1\n      revert\n    tag_228:\n        /* \"contractsproxy/CommunityGovernanceMultisigImplementation.sol\":3972:3980  proposal */\n      dup1\n        /* \"contractsproxy/CommunityGovernanceMultisigImplementation.sol\":3972:3989  proposal.executed */\n      0x05\n      add\n      0x00\n      swap1\n      sload\n      swap1\n      0x0100\n      exp\n      swap1\n      div\n      0xff\n      and\n        /* \"contractsproxy/CommunityGovernanceMultisigImplementation.sol\":3971:3989  !proposal.executed */\n      iszero\n        /* \"contractsproxy/CommunityGovernanceMultisigImplementation.sol\":3963:4019  require(!proposal.executed, \"Proposal already executed\") */\n      tag_231\n      jumpi\n      mload(0x40)\n      0x08c379a000000000000000000000000000000000000000000000000000000000\n      dup2\n      mstore\n      0x04\n      add\n      tag_232\n      swap1\n      tag_233\n      jump\t// in\n    tag_232:\n      mload(0x40)\n      dup1\n      swap2\n      sub\n      swap1\n      revert\n    tag_231:\n        /* \"contractsproxy/CommunityGovernanceMultisigImplementation.sol\":4038:4046  proposal */\n      dup1\n        /* \"contractsproxy/CommunityGovernanceMultisigImplementation.sol\":4038:4064  proposal.hasSignedProposal */\n      0x04\n      add\n        /* \"contractsproxy/CommunityGovernanceMultisigImplementation.sol\":4038:4076  proposal.hasSignedProposal[msg.sender] */\n      0x00\n        /* \"contractsproxy/CommunityGovernanceMultisigImplementation.sol\":4065:4075  msg.sender */\n      caller\n        /* \"contractsproxy/CommunityGovernanceMultisigImplementation.sol\":4038:4076  proposal.hasSignedProposal[msg.sender] */\n      0xffffffffffffffffffffffffffffffffffffffff\n      and\n      0xffffffffffffffffffffffffffffffffffffffff\n      and\n      dup2\n      mstore\n      0x20\n      add\n      swap1\n      dup2\n      mstore\n      0x20\n      add\n      0x00\n      keccak256\n      0x00\n      swap1\n      sload\n      swap1\n      0x0100\n      exp\n      swap1\n      div\n      0xff\n      and\n        /* \"contractsproxy/CommunityGovernanceMultisigImplementation.sol\":4037:4076  !proposal.hasSignedProposal[msg.sender] */\n      iszero\n        /* \"contractsproxy/CommunityGovernanceMultisigImplementation.sol\":4029:4095  require(!proposal.hasSignedProposal[msg.sender], \"Already signed\") */\n      tag_234\n      jumpi\n      mload(0x40)\n      0x08c379a000000000000000000000000000000000000000000000000000000000\n      dup2\n      mstore\n      0x04\n      add\n      tag_235\n      swap1\n      tag_236\n      jump\t// in\n    tag_235:\n      mload(0x40)\n      dup1\n      swap2\n      sub\n      swap1\n      revert\n    tag_234:\n        /* \"contractsproxy/CommunityGovernanceMultisigImplementation.sol\":4155:4159  true */\n      0x01\n        /* \"contractsproxy/CommunityGovernanceMultisigImplementation.sol\":4114:4122  proposal */\n      dup2\n        /* \"contractsproxy/CommunityGovernanceMultisigImplementation.sol\":4114:4140  proposal.hasSignedProposal */\n      0x04\n      add\n        /* \"contractsproxy/CommunityGovernanceMultisigImplementation.sol\":4114:4152  proposal.hasSignedProposal[msg.sender] */\n      0x00\n        /* \"contractsproxy/CommunityGovernanceMultisigImplementation.sol\":4141:4151  msg.sender */\n      caller\n        /* \"contractsproxy/CommunityGovernanceMultisigImplementation.sol\":4114:4152  proposal.hasSignedProposal[msg.sender] */\n      0xffffffffffffffffffffffffffffffffffffffff\n      and\n      0xffffffffffffffffffffffffffffffffffffffff\n      and\n      dup2\n      mstore\n      0x20\n      add\n      swap1\n      dup2\n      mstore\n      0x20\n      add\n      0x00\n      keccak256\n      0x00\n        /* \"contractsproxy/CommunityGovernanceMultisigImplementation.sol\":4114:4159  proposal.hasSignedProposal[msg.sender] = true */\n      0x0100\n      exp\n      dup2\n      sload\n      dup2\n      0xff\n      mul\n      not\n      and\n      swap1\n      dup4\n      iszero\n      iszero\n      mul\n      or\n      swap1\n      sstore\n      pop\n        /* \"contractsproxy/CommunityGovernanceMultisigImplementation.sol\":4169:4177  proposal */\n      dup1\n        /* \"contractsproxy/CommunityGovernanceMultisigImplementation.sol\":4169:4192  proposal.signatureCount */\n      0x03\n      add\n      0x00\n        /* \"contractsproxy/CommunityGovernanceMultisigImplementation.sol\":4169:4194  proposal.signatureCount++ */\n      dup2\n      sload\n      dup1\n      swap3\n      swap2\n      swap1\n      tag_237\n      swap1\n      tag_238\n      jump\t// in\n    tag_237:\n      swap2\n      swap1\n      pop\n      sstore\n      pop\n        /* \"contractsproxy/CommunityGovernanceMultisigImplementation.sol\":4247:4258  _proposalId */\n      dup2\n        /* \"contractsproxy/CommunityGovernanceMultisigImplementation.sol\":4233:4245  _communityId */\n      dup4\n        /* \"contractsproxy/CommunityGovernanceMultisigImplementation.sol\":4218:4271  ProposalSigned(_communityId, _proposalId, msg.sender) */\n      0x256519eb26d028f45eb678b9c4cf084619387132430e282b40fd12a40b4e2732\n        /* \"contractsproxy/CommunityGovernanceMultisigImplementation.sol\":4260:4270  msg.sender */\n      caller\n        /* \"contractsproxy/CommunityGovernanceMultisigImplementation.sol\":4218:4271  ProposalSigned(_communityId, _proposalId, msg.sender) */\n      mload(0x40)\n      tag_239\n      swap2\n      swap1\n      tag_47\n      jump\t// in\n    tag_239:\n      mload(0x40)\n      dup1\n      swap2\n      sub\n      swap1\n      log3\n        /* \"contractsproxy/CommunityGovernanceMultisigImplementation.sol\":4321:4322  3 */\n      0x03\n        /* \"contractsproxy/CommunityGovernanceMultisigImplementation.sol\":4294:4302  proposal */\n      dup2\n        /* \"contractsproxy/CommunityGovernanceMultisigImplementation.sol\":4294:4317  proposal.signatureCount */\n      0x03\n      add\n      sload\n        /* \"contractsproxy/CommunityGovernanceMultisigImplementation.sol\":4294:4322  proposal.signatureCount >= 3 */\n      lt\n        /* \"contractsproxy/CommunityGovernanceMultisigImplementation.sol\":4290:4391  if (proposal.signatureCount >= 3) {... */\n      tag_240\n      jumpi\n        /* \"contractsproxy/CommunityGovernanceMultisigImplementation.sol\":4338:4380  executeProposal(_communityId, _proposalId) */\n      tag_241\n        /* \"contractsproxy/CommunityGovernanceMultisigImplementation.sol\":4354:4366  _communityId */\n      dup4\n        /* \"contractsproxy/CommunityGovernanceMultisigImplementation.sol\":4368:4379  _proposalId */\n      dup4\n        /* \"contractsproxy/CommunityGovernanceMultisigImplementation.sol\":4338:4353  executeProposal */\n      tag_242\n        /* \"contractsproxy/CommunityGovernanceMultisigImplementation.sol\":4338:4380  executeProposal(_communityId, _proposalId) */\n      jump\t// in\n    tag_241:\n        /* \"contractsproxy/CommunityGovernanceMultisigImplementation.sol\":4290:4391  if (proposal.signatureCount >= 3) {... */\n    tag_240:\n        /* \"contractsproxy/CommunityGovernanceMultisigImplementation.sol\":3651:4397  {... */\n      pop\n        /* \"contractsproxy/CommunityGovernanceMultisigImplementation.sol\":3577:4397  function signProposal(uint256 _communityId, uint256 _proposalId) external {... */\n      pop\n      pop\n      jump\t// out\n        /* \"@openzeppelin/contracts-upgradeable/access/OwnableUpgradeable.sol\":2658:2820  function _checkOwner() internal view virtual {... */\n    tag_172:\n        /* \"@openzeppelin/contracts-upgradeable/access/OwnableUpgradeable.sol\":2728:2740  _msgSender() */\n      tag_244\n        /* \"@openzeppelin/contracts-upgradeable/access/OwnableUpgradeable.sol\":2728:2738  _msgSender */\n      tag_245\n        /* \"@openzeppelin/contracts-upgradeable/access/OwnableUpgradeable.sol\":2728:2740  _msgSender() */\n      jump\t// in\n    tag_244:\n        /* \"@openzeppelin/contracts-upgradeable/access/OwnableUpgradeable.sol\":2717:2740  owner() != _msgSender() */\n      0xffffffffffffffffffffffffffffffffffffffff\n      and\n        /* \"@openzeppelin/contracts-upgradeable/access/OwnableUpgradeable.sol\":2717:2724  owner() */\n      tag_246\n        /* \"@openzeppelin/contracts-upgradeable/access/OwnableUpgradeable.sol\":2717:2722  owner */\n      tag_45\n        /* \"@openzeppelin/contracts-upgradeable/access/OwnableUpgradeable.sol\":2717:2724  owner() */\n      jump\t// in\n    tag_246:\n        /* \"@openzeppelin/contracts-upgradeable/access/OwnableUpgradeable.sol\":2717:2740  owner() != _msgSender() */\n      0xffffffffffffffffffffffffffffffffffffffff\n      and\n      eq\n        /* \"@openzeppelin/contracts-upgradeable/access/OwnableUpgradeable.sol\":2713:2814  if (owner() != _msgSender()) {... */\n      tag_247\n      jumpi\n        /* \"@openzeppelin/contracts-upgradeable/access/OwnableUpgradeable.sol\":2790:2802  _msgSender() */\n      tag_248\n        /* \"@openzeppelin/contracts-upgradeable/access/OwnableUpgradeable.sol\":2790:2800  _msgSender */\n      tag_245\n        /* \"@openzeppelin/contracts-upgradeable/access/OwnableUpgradeable.sol\":2790:2802  _msgSender() */\n      jump\t// in\n    tag_248:\n        /* \"@openzeppelin/contracts-upgradeable/access/OwnableUpgradeable.sol\":2763:2803  OwnableUnauthorizedAccount(_msgSender()) */\n      mload(0x40)\n      0x118cdaa700000000000000000000000000000000000000000000000000000000\n      dup2\n      mstore\n      0x04\n      add\n      tag_249\n      swap2\n      swap1\n      tag_47\n      jump\t// in\n    tag_249:\n      mload(0x40)\n      dup1\n      swap2\n      sub\n      swap1\n      revert\n        /* \"@openzeppelin/contracts-upgradeable/access/OwnableUpgradeable.sol\":2713:2814  if (owner() != _msgSender()) {... */\n    tag_247:\n        /* \"@openzeppelin/contracts-upgradeable/access/OwnableUpgradeable.sol\":2658:2820  function _checkOwner() internal view virtual {... */\n      jump\t// out\n        /* \"@openzeppelin/contracts-upgradeable/access/OwnableUpgradeable.sol\":3774:4022  function _transferOwnership(address newOwner) internal virtual {... */\n    tag_175:\n        /* \"@openzeppelin/contracts-upgradeable/access/OwnableUpgradeable.sol\":3847:3871  OwnableStorage storage $ */\n      0x00\n        /* \"@openzeppelin/contracts-upgradeable/access/OwnableUpgradeable.sol\":3874:3894  _getOwnableStorage() */\n      tag_251\n        /* \"@openzeppelin/contracts-upgradeable/access/OwnableUpgradeable.sol\":3874:3892  _getOwnableStorage */\n      tag_178\n        /* \"@openzeppelin/contracts-upgradeable/access/OwnableUpgradeable.sol\":3874:3894  _getOwnableStorage() */\n      jump\t// in\n    tag_251:\n        /* \"@openzeppelin/contracts-upgradeable/access/OwnableUpgradeable.sol\":3847:3894  OwnableStorage storage $ = _getOwnableStorage() */\n      swap1\n      pop\n        /* \"@openzeppelin/contracts-upgradeable/access/OwnableUpgradeable.sol\":3904:3920  address oldOwner */\n      0x00\n        /* \"@openzeppelin/contracts-upgradeable/access/OwnableUpgradeable.sol\":3923:3924  $ */\n      dup2\n        /* \"@openzeppelin/contracts-upgradeable/access/OwnableUpgradeable.sol\":3923:3931  $._owner */\n      0x00\n      add\n      0x00\n      swap1\n      sload\n      swap1\n      0x0100\n      exp\n      swap1\n      div\n      0xffffffffffffffffffffffffffffffffffffffff\n      and\n        /* \"@openzeppelin/contracts-upgradeable/access/OwnableUpgradeable.sol\":3904:3931  address oldOwner = $._owner */\n      swap1\n      pop\n        /* \"@openzeppelin/contracts-upgradeable/access/OwnableUpgradeable.sol\":3952:3960  newOwner */\n      dup3\n        /* \"@openzeppelin/contracts-upgradeable/access/OwnableUpgradeable.sol\":3941:3942  $ */\n      dup3\n        /* \"@openzeppelin/contracts-upgradeable/access/OwnableUpgradeable.sol\":3941:3949  $._owner */\n      0x00\n      add\n      0x00\n        /* \"@openzeppelin/contracts-upgradeable/access/OwnableUpgradeable.sol\":3941:3960  $._owner = newOwner */\n      0x0100\n      exp\n      dup2\n      sload\n      dup2\n      0xffffffffffffffffffffffffffffffffffffffff\n      mul\n      not\n      and\n      swap1\n      dup4\n      0xffffffffffffffffffffffffffffffffffffffff\n      and\n      mul\n      or\n      swap1\n      sstore\n      pop\n        /* \"@openzeppelin/contracts-upgradeable/access/OwnableUpgradeable.sol\":4006:4014  newOwner */\n      dup3\n        /* \"@openzeppelin/contracts-upgradeable/access/OwnableUpgradeable.sol\":3975:4015  OwnershipTransferred(oldOwner, newOwner) */\n      0xffffffffffffffffffffffffffffffffffffffff\n      and\n        /* \"@openzeppelin/contracts-upgradeable/access/OwnableUpgradeable.sol\":3996:4004  oldOwner */\n      dup2\n        /* \"@openzeppelin/contracts-upgradeable/access/OwnableUpgradeable.sol\":3975:4015  OwnershipTransferred(oldOwner, newOwner) */\n      0xffffffffffffffffffffffffffffffffffffffff\n      and\n      0x8be0079c531659141344cd1fd0a4f28419497f9722a3daafe3b4186f6b6457e0\n      mload(0x40)\n      mload(0x40)\n      dup1\n      swap2\n      sub\n      swap1\n      log3\n        /* \"@openzeppelin/contracts-upgradeable/access/OwnableUpgradeable.sol\":3837:4022  {... */\n      pop\n      pop\n        /* \"@openzeppelin/contracts-upgradeable/access/OwnableUpgradeable.sol\":3774:4022  function _transferOwnership(address newOwner) internal virtual {... */\n      pop\n      jump\t// out\n        /* \"@openzeppelin/contracts-upgradeable/access/OwnableUpgradeable.sol\":1192:1351  function _getOwnableStorage() private pure returns (OwnableStorage storage $) {... */\n    tag_178:\n        /* \"@openzeppelin/contracts-upgradeable/access/OwnableUpgradeable.sol\":1244:1268  OwnableStorage storage $ */\n      0x00\n        /* \"@openzeppelin/contracts-upgradeable/access/OwnableUpgradeable.sol\":1313:1335  OwnableStorageLocation */\n      0x9016d09d72d40fdae2fd8ceac6b6234c7706214fd39c1cd1e609a0528c199300\n        /* \"@openzeppelin/contracts-upgradeable/access/OwnableUpgradeable.sol\":1303:1335  $.slot := OwnableStorageLocation */\n      swap1\n      pop\n        /* \"@openzeppelin/contracts-upgradeable/access/OwnableUpgradeable.sol\":1192:1351  function _getOwnableStorage() private pure returns (OwnableStorage storage $) {... */\n      swap1\n      jump\t// out\n        /* \"@openzeppelin/contracts-upgradeable/proxy/utils/Initializable.sol\":8737:8907  function _getInitializableStorage() private pure returns (InitializableStorage storage $) {... */\n    tag_191:\n        /* \"@openzeppelin/contracts-upgradeable/proxy/utils/Initializable.sol\":8795:8825  InitializableStorage storage $ */\n      0x00\n        /* \"@openzeppelin/contracts-upgradeable/proxy/utils/Initializable.sol\":8870:8891  INITIALIZABLE_STORAGE */\n      0xf0c57e16840df040f15088dc2f81fe391c3923bec73e23a9662efc9c229c6a00\n        /* \"@openzeppelin/contracts-upgradeable/proxy/utils/Initializable.sol\":8860:8891  $.slot := INITIALIZABLE_STORAGE */\n      swap1\n      pop\n        /* \"@openzeppelin/contracts-upgradeable/proxy/utils/Initializable.sol\":8737:8907  function _getInitializableStorage() private pure returns (InitializableStorage storage $) {... */\n      swap1\n      jump\t// out\n        /* \"@openzeppelin/contracts-upgradeable/access/OwnableUpgradeable.sol\":1847:1974  function __Ownable_init(address initialOwner) internal onlyInitializing {... */\n    tag_199:\n        /* \"@openzeppelin/contracts-upgradeable/proxy/utils/Initializable.sol\":6931:6951  _checkInitializing() */\n      tag_255\n        /* \"@openzeppelin/contracts-upgradeable/proxy/utils/Initializable.sol\":6931:6949  _checkInitializing */\n      tag_256\n        /* \"@openzeppelin/contracts-upgradeable/proxy/utils/Initializable.sol\":6931:6951  _checkInitializing() */\n      jump\t// in\n    tag_255:\n        /* \"@openzeppelin/contracts-upgradeable/access/OwnableUpgradeable.sol\":1929:1967  __Ownable_init_unchained(initialOwner) */\n      tag_258\n        /* \"@openzeppelin/contracts-upgradeable/access/OwnableUpgradeable.sol\":1954:1966  initialOwner */\n      dup2\n        /* \"@openzeppelin/contracts-upgradeable/access/OwnableUpgradeable.sol\":1929:1953  __Ownable_init_unchained */\n      tag_259\n        /* \"@openzeppelin/contracts-upgradeable/access/OwnableUpgradeable.sol\":1929:1967  __Ownable_init_unchained(initialOwner) */\n      jump\t// in\n    tag_258:\n        /* \"@openzeppelin/contracts-upgradeable/access/OwnableUpgradeable.sol\":1847:1974  function __Ownable_init(address initialOwner) internal onlyInitializing {... */\n      pop\n      jump\t// out\n        /* \"contractsproxy/CommunityGovernanceMultisigImplementation.sol\":6554:6905  function isTopRespectedUser(address _user, address[5] memory _topUsers) internal pure returns (bool) {... */\n    tag_224:\n        /* \"contractsproxy/CommunityGovernanceMultisigImplementation.sol\":6649:6653  bool */\n      0x00\n        /* \"contractsproxy/CommunityGovernanceMultisigImplementation.sol\":6666:6675  uint256 i */\n      dup1\n        /* \"contractsproxy/CommunityGovernanceMultisigImplementation.sol\":6678:6679  0 */\n      0x00\n        /* \"contractsproxy/CommunityGovernanceMultisigImplementation.sol\":6666:6679  uint256 i = 0 */\n      swap1\n      pop\n        /* \"contractsproxy/CommunityGovernanceMultisigImplementation.sol\":6661:6885  for (uint256 i = 0; i < 5; i++) {... */\n    tag_261:\n        /* \"contractsproxy/CommunityGovernanceMultisigImplementation.sol\":6685:6686  5 */\n      0x05\n        /* \"contractsproxy/CommunityGovernanceMultisigImplementation.sol\":6681:6682  i */\n      dup2\n        /* \"contractsproxy/CommunityGovernanceMultisigImplementation.sol\":6681:6686  i < 5 */\n      lt\n        /* \"contractsproxy/CommunityGovernanceMultisigImplementation.sol\":6661:6885  for (uint256 i = 0; i < 5; i++) {... */\n      iszero\n      tag_262\n      jumpi\n        /* \"contractsproxy/CommunityGovernanceMultisigImplementation.sol\":6723:6728  _user */\n      dup4\n        /* \"contractsproxy/CommunityGovernanceMultisigImplementation.sol\":6707:6728  _topUsers[i] == _user */\n      0xffffffffffffffffffffffffffffffffffffffff\n      and\n        /* \"contractsproxy/CommunityGovernanceMultisigImplementation.sol\":6707:6716  _topUsers */\n      dup4\n        /* \"contractsproxy/CommunityGovernanceMultisigImplementation.sol\":6717:6718  i */\n      dup3\n        /* \"contractsproxy/CommunityGovernanceMultisigImplementation.sol\":6707:6719  _topUsers[i] */\n      0x05\n      dup2\n      lt\n      tag_264\n      jumpi\n      tag_265\n      tag_110\n      jump\t// in\n    tag_265:\n    tag_264:\n      0x20\n      mul\n      add\n      mload\n        /* \"contractsproxy/CommunityGovernanceMultisigImplementation.sol\":6707:6728  _topUsers[i] == _user */\n      0xffffffffffffffffffffffffffffffffffffffff\n      and\n      sub\n        /* \"contractsproxy/CommunityGovernanceMultisigImplementation.sol\":6703:6766  if (_topUsers[i] == _user) {... */\n      tag_266\n      jumpi\n        /* \"contractsproxy/CommunityGovernanceMultisigImplementation.sol\":6751:6755  true */\n      0x01\n        /* \"contractsproxy/CommunityGovernanceMultisigImplementation.sol\":6744:6755  return true */\n      swap2\n      pop\n      pop\n      jump(tag_260)\n        /* \"contractsproxy/CommunityGovernanceMultisigImplementation.sol\":6703:6766  if (_topUsers[i] == _user) {... */\n    tag_266:\n        /* \"contractsproxy/CommunityGovernanceMultisigImplementation.sol\":6803:6804  0 */\n      0x00\n        /* \"contractsproxy/CommunityGovernanceMultisigImplementation.sol\":6779:6805  _topUsers[i] == address(0) */\n      0xffffffffffffffffffffffffffffffffffffffff\n      and\n        /* \"contractsproxy/CommunityGovernanceMultisigImplementation.sol\":6779:6788  _topUsers */\n      dup4\n        /* \"contractsproxy/CommunityGovernanceMultisigImplementation.sol\":6789:6790  i */\n      dup3\n        /* \"contractsproxy/CommunityGovernanceMultisigImplementation.sol\":6779:6791  _topUsers[i] */\n      0x05\n      dup2\n      lt\n      tag_267\n      jumpi\n      tag_268\n      tag_110\n      jump\t// in\n    tag_268:\n    tag_267:\n      0x20\n      mul\n      add\n      mload\n        /* \"contractsproxy/CommunityGovernanceMultisigImplementation.sol\":6779:6805  _topUsers[i] == address(0) */\n      0xffffffffffffffffffffffffffffffffffffffff\n      and\n      sub\n        /* \"contractsproxy/CommunityGovernanceMultisigImplementation.sol\":6775:6879  if (_topUsers[i] == address(0)) {... */\n      iszero\n        /* \"contractsproxy/CommunityGovernanceMultisigImplementation.sol\":6821:6826  break */\n      tag_262\n        /* \"contractsproxy/CommunityGovernanceMultisigImplementation.sol\":6775:6879  if (_topUsers[i] == address(0)) {... */\n      jumpi\n        /* \"contractsproxy/CommunityGovernanceMultisigImplementation.sol\":6688:6691  i++ */\n      dup1\n      dup1\n      0x01\n      add\n      swap2\n      pop\n      pop\n        /* \"contractsproxy/CommunityGovernanceMultisigImplementation.sol\":6661:6885  for (uint256 i = 0; i < 5; i++) {... */\n      jump(tag_261)\n    tag_262:\n      pop\n        /* \"contractsproxy/CommunityGovernanceMultisigImplementation.sol\":6897:6902  false */\n      0x00\n        /* \"contractsproxy/CommunityGovernanceMultisigImplementation.sol\":6890:6902  return false */\n      swap1\n      pop\n        /* \"contractsproxy/CommunityGovernanceMultisigImplementation.sol\":6554:6905  function isTopRespectedUser(address _user, address[5] memory _topUsers) internal pure returns (bool) {... */\n    tag_260:\n      swap3\n      swap2\n      pop\n      pop\n      jump\t// out\n        /* \"contractsproxy/CommunityGovernanceMultisigImplementation.sol\":4399:5254  function executeProposal(uint256 _communityId, uint256 _proposalId) internal {... */\n    tag_242:\n        /* \"contractsproxy/CommunityGovernanceMultisigImplementation.sol\":4486:4519  MultiSigProposal storage proposal */\n      0x00\n        /* \"contractsproxy/CommunityGovernanceMultisigImplementation.sol\":4522:4540  communityMultiSigs */\n      0x02\n        /* \"contractsproxy/CommunityGovernanceMultisigImplementation.sol\":4522:4554  communityMultiSigs[_communityId] */\n      0x00\n        /* \"contractsproxy/CommunityGovernanceMultisigImplementation.sol\":4541:4553  _communityId */\n      dup5\n        /* \"contractsproxy/CommunityGovernanceMultisigImplementation.sol\":4522:4554  communityMultiSigs[_communityId] */\n      dup2\n      mstore\n      0x20\n      add\n      swap1\n      dup2\n      mstore\n      0x20\n      add\n      0x00\n      keccak256\n        /* \"contractsproxy/CommunityGovernanceMultisigImplementation.sol\":4522:4564  communityMultiSigs[_communityId].proposals */\n      0x00\n      add\n        /* \"contractsproxy/CommunityGovernanceMultisigImplementation.sol\":4522:4577  communityMultiSigs[_communityId].proposals[_proposalId] */\n      0x00\n        /* \"contractsproxy/CommunityGovernanceMultisigImplementation.sol\":4565:4576  _proposalId */\n      dup4\n        /* \"contractsproxy/CommunityGovernanceMultisigImplementation.sol\":4522:4577  communityMultiSigs[_communityId].proposals[_proposalId] */\n      dup2\n      mstore\n      0x20\n      add\n      swap1\n      dup2\n      mstore\n      0x20\n      add\n      0x00\n      keccak256\n        /* \"contractsproxy/CommunityGovernanceMultisigImplementation.sol\":4486:4577  MultiSigProposal storage proposal = communityMultiSigs[_communityId].proposals[_proposalId] */\n      swap1\n      pop\n        /* \"contractsproxy/CommunityGovernanceMultisigImplementation.sol\":4596:4604  proposal */\n      dup1\n        /* \"contractsproxy/CommunityGovernanceMultisigImplementation.sol\":4596:4613  proposal.executed */\n      0x05\n      add\n      0x00\n      swap1\n      sload\n      swap1\n      0x0100\n      exp\n      swap1\n      div\n      0xff\n      and\n        /* \"contractsproxy/CommunityGovernanceMultisigImplementation.sol\":4595:4613  !proposal.executed */\n      iszero\n        /* \"contractsproxy/CommunityGovernanceMultisigImplementation.sol\":4587:4643  require(!proposal.executed, \"Proposal already executed\") */\n      tag_271\n      jumpi\n      mload(0x40)\n      0x08c379a000000000000000000000000000000000000000000000000000000000\n      dup2\n      mstore\n      0x04\n      add\n      tag_272\n      swap1\n      tag_233\n      jump\t// in\n    tag_272:\n      mload(0x40)\n      dup1\n      swap2\n      sub\n      swap1\n      revert\n    tag_271:\n        /* \"contractsproxy/CommunityGovernanceMultisigImplementation.sol\":4688:4689  3 */\n      0x03\n        /* \"contractsproxy/CommunityGovernanceMultisigImplementation.sol\":4661:4669  proposal */\n      dup2\n        /* \"contractsproxy/CommunityGovernanceMultisigImplementation.sol\":4661:4684  proposal.signatureCount */\n      0x03\n      add\n      sload\n        /* \"contractsproxy/CommunityGovernanceMultisigImplementation.sol\":4661:4689  proposal.signatureCount >= 3 */\n      lt\n      iszero\n        /* \"contractsproxy/CommunityGovernanceMultisigImplementation.sol\":4653:4715  require(proposal.signatureCount >= 3, \"Not enough signatures\") */\n      tag_273\n      jumpi\n      mload(0x40)\n      0x08c379a000000000000000000000000000000000000000000000000000000000\n      dup2\n      mstore\n      0x04\n      add\n      tag_274\n      swap1\n      tag_275\n      jump\t// in\n    tag_274:\n      mload(0x40)\n      dup1\n      swap2\n      sub\n      swap1\n      revert\n    tag_273:\n        /* \"contractsproxy/CommunityGovernanceMultisigImplementation.sol\":4754:4758  true */\n      0x01\n        /* \"contractsproxy/CommunityGovernanceMultisigImplementation.sol\":4734:4742  proposal */\n      dup2\n        /* \"contractsproxy/CommunityGovernanceMultisigImplementation.sol\":4734:4751  proposal.executed */\n      0x05\n      add\n      0x00\n        /* \"contractsproxy/CommunityGovernanceMultisigImplementation.sol\":4734:4758  proposal.executed = true */\n      0x0100\n      exp\n      dup2\n      sload\n      dup2\n      0xff\n      mul\n      not\n      and\n      swap1\n      dup4\n      iszero\n      iszero\n      mul\n      or\n      swap1\n      sstore\n      pop\n        /* \"contractsproxy/CommunityGovernanceMultisigImplementation.sol\":4806:4831  ProposalType.RemoveMember */\n      0x00\n        /* \"contractsproxy/CommunityGovernanceMultisigImplementation.sol\":4781:4831  proposal.proposalType == ProposalType.RemoveMember */\n      0x02\n      dup2\n      gt\n      iszero\n      tag_276\n      jumpi\n      tag_277\n      tag_186\n      jump\t// in\n    tag_277:\n    tag_276:\n        /* \"contractsproxy/CommunityGovernanceMultisigImplementation.sol\":4781:4789  proposal */\n      dup2\n        /* \"contractsproxy/CommunityGovernanceMultisigImplementation.sol\":4781:4802  proposal.proposalType */\n      0x00\n      add\n      0x00\n      swap1\n      sload\n      swap1\n      0x0100\n      exp\n      swap1\n      div\n      0xff\n      and\n        /* \"contractsproxy/CommunityGovernanceMultisigImplementation.sol\":4781:4831  proposal.proposalType == ProposalType.RemoveMember */\n      0x02\n      dup2\n      gt\n      iszero\n      tag_278\n      jumpi\n      tag_279\n      tag_186\n      jump\t// in\n    tag_279:\n    tag_278:\n      sub\n        /* \"contractsproxy/CommunityGovernanceMultisigImplementation.sol\":4777:5181  if (proposal.proposalType == ProposalType.RemoveMember) {... */\n      tag_280\n      jumpi\n        /* \"contractsproxy/CommunityGovernanceMultisigImplementation.sol\":4847:4896  removeMember(_communityId, proposal.targetMember) */\n      tag_281\n        /* \"contractsproxy/CommunityGovernanceMultisigImplementation.sol\":4860:4872  _communityId */\n      dup4\n        /* \"contractsproxy/CommunityGovernanceMultisigImplementation.sol\":4874:4882  proposal */\n      dup3\n        /* \"contractsproxy/CommunityGovernanceMultisigImplementation.sol\":4874:4895  proposal.targetMember */\n      0x02\n      add\n      0x00\n      swap1\n      sload\n      swap1\n      0x0100\n      exp\n      swap1\n      div\n      0xffffffffffffffffffffffffffffffffffffffff\n      and\n        /* \"contractsproxy/CommunityGovernanceMultisigImplementation.sol\":4847:4859  removeMember */\n      tag_282\n        /* \"contractsproxy/CommunityGovernanceMultisigImplementation.sol\":4847:4896  removeMember(_communityId, proposal.targetMember) */\n      jump\t// in\n    tag_281:\n        /* \"contractsproxy/CommunityGovernanceMultisigImplementation.sol\":4777:5181  if (proposal.proposalType == ProposalType.RemoveMember) {... */\n      jump(tag_283)\n    tag_280:\n        /* \"contractsproxy/CommunityGovernanceMultisigImplementation.sol\":4942:4977  ProposalType.SetRespectToDistribute */\n      0x01\n        /* \"contractsproxy/CommunityGovernanceMultisigImplementation.sol\":4917:4977  proposal.proposalType == ProposalType.SetRespectToDistribute */\n      0x02\n      dup2\n      gt\n      iszero\n      tag_284\n      jumpi\n      tag_285\n      tag_186\n      jump\t// in\n    tag_285:\n    tag_284:\n        /* \"contractsproxy/CommunityGovernanceMultisigImplementation.sol\":4917:4925  proposal */\n      dup2\n        /* \"contractsproxy/CommunityGovernanceMultisigImplementation.sol\":4917:4938  proposal.proposalType */\n      0x00\n      add\n      0x00\n      swap1\n      sload\n      swap1\n      0x0100\n      exp\n      swap1\n      div\n      0xff\n      and\n        /* \"contractsproxy/CommunityGovernanceMultisigImplementation.sol\":4917:4977  proposal.proposalType == ProposalType.SetRespectToDistribute */\n      0x02\n      dup2\n      gt\n      iszero\n      tag_286\n      jumpi\n      tag_287\n      tag_186\n      jump\t// in\n    tag_287:\n    tag_286:\n      sub\n        /* \"contractsproxy/CommunityGovernanceMultisigImplementation.sol\":4913:5181  if (proposal.proposalType == ProposalType.SetRespectToDistribute) {... */\n      tag_288\n      jumpi\n        /* \"contractsproxy/CommunityGovernanceMultisigImplementation.sol\":4993:5045  setRespectToDistribute(_communityId, proposal.value) */\n      tag_289\n        /* \"contractsproxy/CommunityGovernanceMultisigImplementation.sol\":5016:5028  _communityId */\n      dup4\n        /* \"contractsproxy/CommunityGovernanceMultisigImplementation.sol\":5030:5038  proposal */\n      dup3\n        /* \"contractsproxy/CommunityGovernanceMultisigImplementation.sol\":5030:5044  proposal.value */\n      0x01\n      add\n      sload\n        /* \"contractsproxy/CommunityGovernanceMultisigImplementation.sol\":4993:5015  setRespectToDistribute */\n      tag_290\n        /* \"contractsproxy/CommunityGovernanceMultisigImplementation.sol\":4993:5045  setRespectToDistribute(_communityId, proposal.value) */\n      jump\t// in\n    tag_289:\n        /* \"contractsproxy/CommunityGovernanceMultisigImplementation.sol\":4913:5181  if (proposal.proposalType == ProposalType.SetRespectToDistribute) {... */\n      jump(tag_291)\n    tag_288:\n        /* \"contractsproxy/CommunityGovernanceMultisigImplementation.sol\":5091:5114  ProposalType.MintTokens */\n      0x02\n        /* \"contractsproxy/CommunityGovernanceMultisigImplementation.sol\":5066:5114  proposal.proposalType == ProposalType.MintTokens */\n      dup1\n      dup2\n      gt\n      iszero\n      tag_292\n      jumpi\n      tag_293\n      tag_186\n      jump\t// in\n    tag_293:\n    tag_292:\n        /* \"contractsproxy/CommunityGovernanceMultisigImplementation.sol\":5066:5074  proposal */\n      dup2\n        /* \"contractsproxy/CommunityGovernanceMultisigImplementation.sol\":5066:5087  proposal.proposalType */\n      0x00\n      add\n      0x00\n      swap1\n      sload\n      swap1\n      0x0100\n      exp\n      swap1\n      div\n      0xff\n      and\n        /* \"contractsproxy/CommunityGovernanceMultisigImplementation.sol\":5066:5114  proposal.proposalType == ProposalType.MintTokens */\n      0x02\n      dup2\n      gt\n      iszero\n      tag_294\n      jumpi\n      tag_295\n      tag_186\n      jump\t// in\n    tag_295:\n    tag_294:\n      sub\n        /* \"contractsproxy/CommunityGovernanceMultisigImplementation.sol\":5062:5181  if (proposal.proposalType == ProposalType.MintTokens) {... */\n      tag_296\n      jumpi\n        /* \"contractsproxy/CommunityGovernanceMultisigImplementation.sol\":5130:5170  mintTokens(_communityId, proposal.value) */\n      tag_297\n        /* \"contractsproxy/CommunityGovernanceMultisigImplementation.sol\":5141:5153  _communityId */\n      dup4\n        /* \"contractsproxy/CommunityGovernanceMultisigImplementation.sol\":5155:5163  proposal */\n      dup3\n        /* \"contractsproxy/CommunityGovernanceMultisigImplementation.sol\":5155:5169  proposal.value */\n      0x01\n      add\n      sload\n        /* \"contractsproxy/CommunityGovernanceMultisigImplementation.sol\":5130:5140  mintTokens */\n      tag_298\n        /* \"contractsproxy/CommunityGovernanceMultisigImplementation.sol\":5130:5170  mintTokens(_communityId, proposal.value) */\n      jump\t// in\n    tag_297:\n        /* \"contractsproxy/CommunityGovernanceMultisigImplementation.sol\":5062:5181  if (proposal.proposalType == ProposalType.MintTokens) {... */\n    tag_296:\n        /* \"contractsproxy/CommunityGovernanceMultisigImplementation.sol\":4913:5181  if (proposal.proposalType == ProposalType.SetRespectToDistribute) {... */\n    tag_291:\n        /* \"contractsproxy/CommunityGovernanceMultisigImplementation.sol\":4777:5181  if (proposal.proposalType == ProposalType.RemoveMember) {... */\n    tag_283:\n        /* \"contractsproxy/CommunityGovernanceMultisigImplementation.sol\":5235:5246  _proposalId */\n      dup2\n        /* \"contractsproxy/CommunityGovernanceMultisigImplementation.sol\":5221:5233  _communityId */\n      dup4\n        /* \"contractsproxy/CommunityGovernanceMultisigImplementation.sol\":5204:5247  ProposalExecuted(_communityId, _proposalId) */\n      0xf758fc91e01b00ea6b4a6138756f7f28e021f9bf21db6dbf8c36c88eb737257a\n      mload(0x40)\n      mload(0x40)\n      dup1\n      swap2\n      sub\n      swap1\n      log3\n        /* \"contractsproxy/CommunityGovernanceMultisigImplementation.sol\":4476:5254  {... */\n      pop\n        /* \"contractsproxy/CommunityGovernanceMultisigImplementation.sol\":4399:5254  function executeProposal(uint256 _communityId, uint256 _proposalId) internal {... */\n      pop\n      pop\n      jump\t// out\n        /* \"@openzeppelin/contracts-upgradeable/utils/ContextUpgradeable.sol\":887:983  function _msgSender() internal view virtual returns (address) {... */\n    tag_245:\n        /* \"@openzeppelin/contracts-upgradeable/utils/ContextUpgradeable.sol\":940:947  address */\n      0x00\n        /* \"@openzeppelin/contracts-upgradeable/utils/ContextUpgradeable.sol\":966:976  msg.sender */\n      caller\n        /* \"@openzeppelin/contracts-upgradeable/utils/ContextUpgradeable.sol\":959:976  return msg.sender */\n      swap1\n      pop\n        /* \"@openzeppelin/contracts-upgradeable/utils/ContextUpgradeable.sol\":887:983  function _msgSender() internal view virtual returns (address) {... */\n      swap1\n      jump\t// out\n        /* \"@openzeppelin/contracts-upgradeable/proxy/utils/Initializable.sol\":7084:7225  function _checkInitializing() internal view virtual {... */\n    tag_256:\n        /* \"@openzeppelin/contracts-upgradeable/proxy/utils/Initializable.sol\":7151:7168  _isInitializing() */\n      tag_301\n        /* \"@openzeppelin/contracts-upgradeable/proxy/utils/Initializable.sol\":7151:7166  _isInitializing */\n      tag_302\n        /* \"@openzeppelin/contracts-upgradeable/proxy/utils/Initializable.sol\":7151:7168  _isInitializing() */\n      jump\t// in\n    tag_301:\n        /* \"@openzeppelin/contracts-upgradeable/proxy/utils/Initializable.sol\":7146:7219  if (!_isInitializing()) {... */\n      tag_303\n      jumpi\n        /* \"@openzeppelin/contracts-upgradeable/proxy/utils/Initializable.sol\":7191:7208  NotInitializing() */\n      mload(0x40)\n      0xd7e6bcf800000000000000000000000000000000000000000000000000000000\n      dup2\n      mstore\n      0x04\n      add\n      mload(0x40)\n      dup1\n      swap2\n      sub\n      swap1\n      revert\n        /* \"@openzeppelin/contracts-upgradeable/proxy/utils/Initializable.sol\":7146:7219  if (!_isInitializing()) {... */\n    tag_303:\n        /* \"@openzeppelin/contracts-upgradeable/proxy/utils/Initializable.sol\":7084:7225  function _checkInitializing() internal view virtual {... */\n      jump\t// out\n        /* \"@openzeppelin/contracts-upgradeable/access/OwnableUpgradeable.sol\":1980:2215  function __Ownable_init_unchained(address initialOwner) internal onlyInitializing {... */\n    tag_259:\n        /* \"@openzeppelin/contracts-upgradeable/proxy/utils/Initializable.sol\":6931:6951  _checkInitializing() */\n      tag_305\n        /* \"@openzeppelin/contracts-upgradeable/proxy/utils/Initializable.sol\":6931:6949  _checkInitializing */\n      tag_256\n        /* \"@openzeppelin/contracts-upgradeable/proxy/utils/Initializable.sol\":6931:6951  _checkInitializing() */\n      jump\t// in\n    tag_305:\n        /* \"@openzeppelin/contracts-upgradeable/access/OwnableUpgradeable.sol\":2100:2101  0 */\n      0x00\n        /* \"@openzeppelin/contracts-upgradeable/access/OwnableUpgradeable.sol\":2076:2102  initialOwner == address(0) */\n      0xffffffffffffffffffffffffffffffffffffffff\n      and\n        /* \"@openzeppelin/contracts-upgradeable/access/OwnableUpgradeable.sol\":2076:2088  initialOwner */\n      dup2\n        /* \"@openzeppelin/contracts-upgradeable/access/OwnableUpgradeable.sol\":2076:2102  initialOwner == address(0) */\n      0xffffffffffffffffffffffffffffffffffffffff\n      and\n      sub\n        /* \"@openzeppelin/contracts-upgradeable/access/OwnableUpgradeable.sol\":2072:2167  if (initialOwner == address(0)) {... */\n      tag_307\n      jumpi\n        /* \"@openzeppelin/contracts-upgradeable/access/OwnableUpgradeable.sol\":2153:2154  0 */\n      0x00\n        /* \"@openzeppelin/contracts-upgradeable/access/OwnableUpgradeable.sol\":2125:2156  OwnableInvalidOwner(address(0)) */\n      mload(0x40)\n      0x1e4fbdf700000000000000000000000000000000000000000000000000000000\n      dup2\n      mstore\n      0x04\n      add\n      tag_308\n      swap2\n      swap1\n      tag_47\n      jump\t// in\n    tag_308:\n      mload(0x40)\n      dup1\n      swap2\n      sub\n      swap1\n      revert\n        /* \"@openzeppelin/contracts-upgradeable/access/OwnableUpgradeable.sol\":2072:2167  if (initialOwner == address(0)) {... */\n    tag_307:\n        /* \"@openzeppelin/contracts-upgradeable/access/OwnableUpgradeable.sol\":2176:2208  _transferOwnership(initialOwner) */\n      tag_309\n        /* \"@openzeppelin/contracts-upgradeable/access/OwnableUpgradeable.sol\":2195:2207  initialOwner */\n      dup2\n        /* \"@openzeppelin/contracts-upgradeable/access/OwnableUpgradeable.sol\":2176:2194  _transferOwnership */\n      tag_175\n        /* \"@openzeppelin/contracts-upgradeable/access/OwnableUpgradeable.sol\":2176:2208  _transferOwnership(initialOwner) */\n      jump\t// in\n    tag_309:\n        /* \"@openzeppelin/contracts-upgradeable/access/OwnableUpgradeable.sol\":1980:2215  function __Ownable_init_unchained(address initialOwner) internal onlyInitializing {... */\n      pop\n      jump\t// out\n        /* \"contractsproxy/CommunityGovernanceMultisigImplementation.sol\":5263:5632  function removeMember(uint256 _communityId, address _member) internal {... */\n    tag_282:\n        /* \"contractsproxy/CommunityGovernanceMultisigImplementation.sol\":5509:5525  profilesContract */\n      0x00\n      dup1\n      sload\n      swap1\n      0x0100\n      exp\n      swap1\n      div\n      0xffffffffffffffffffffffffffffffffffffffff\n      and\n        /* \"contractsproxy/CommunityGovernanceMultisigImplementation.sol\":5509:5551  profilesContract.removeMemberFromCommunity */\n      0xffffffffffffffffffffffffffffffffffffffff\n      and\n      0x3997c656\n        /* \"contractsproxy/CommunityGovernanceMultisigImplementation.sol\":5552:5564  _communityId */\n      dup4\n        /* \"contractsproxy/CommunityGovernanceMultisigImplementation.sol\":5566:5573  _member */\n      dup4\n        /* \"contractsproxy/CommunityGovernanceMultisigImplementation.sol\":5509:5574  profilesContract.removeMemberFromCommunity(_communityId, _member) */\n      mload(0x40)\n      dup4\n      0xffffffff\n      and\n      0xe0\n      shl\n      dup2\n      mstore\n      0x04\n      add\n      tag_311\n      swap3\n      swap2\n      swap1\n      tag_312\n      jump\t// in\n    tag_311:\n      0x00\n      mload(0x40)\n      dup1\n      dup4\n      sub\n      dup2\n      0x00\n      dup8\n      dup1\n      extcodesize\n      iszero\n      dup1\n      iszero\n      tag_313\n      jumpi\n      0x00\n      dup1\n      revert\n    tag_313:\n      pop\n      gas\n      call\n      iszero\n      dup1\n      iszero\n      tag_315\n      jumpi\n      returndatasize\n      0x00\n      dup1\n      returndatacopy\n      revert(0x00, returndatasize)\n    tag_315:\n      pop\n      pop\n      pop\n      pop\n        /* \"contractsproxy/CommunityGovernanceMultisigImplementation.sol\":5617:5624  _member */\n      dup1\n        /* \"contractsproxy/CommunityGovernanceMultisigImplementation.sol\":5589:5625  MemberRemoved(_communityId, _member) */\n      0xffffffffffffffffffffffffffffffffffffffff\n      and\n        /* \"contractsproxy/CommunityGovernanceMultisigImplementation.sol\":5603:5615  _communityId */\n      dup3\n        /* \"contractsproxy/CommunityGovernanceMultisigImplementation.sol\":5589:5625  MemberRemoved(_communityId, _member) */\n      0x1c4c9d2e56d0635d11bc47c997c6909a0d7061f55cbb8f4b27386db37553191c\n      mload(0x40)\n      mload(0x40)\n      dup1\n      swap2\n      sub\n      swap1\n      log3\n        /* \"contractsproxy/CommunityGovernanceMultisigImplementation.sol\":5263:5632  function removeMember(uint256 _communityId, address _member) internal {... */\n      pop\n      pop\n      jump\t// out\n        /* \"contractsproxy/CommunityGovernanceMultisigImplementation.sol\":5638:5861  function setRespectToDistribute(uint256 _communityId, uint256 _amount) internal {... */\n    tag_290:\n        /* \"contractsproxy/CommunityGovernanceMultisigImplementation.sol\":5783:5790  _amount */\n      dup1\n        /* \"contractsproxy/CommunityGovernanceMultisigImplementation.sol\":5728:5746  communityMultiSigs */\n      0x02\n        /* \"contractsproxy/CommunityGovernanceMultisigImplementation.sol\":5728:5760  communityMultiSigs[_communityId] */\n      0x00\n        /* \"contractsproxy/CommunityGovernanceMultisigImplementation.sol\":5747:5759  _communityId */\n      dup5\n        /* \"contractsproxy/CommunityGovernanceMultisigImplementation.sol\":5728:5760  communityMultiSigs[_communityId] */\n      dup2\n      mstore\n      0x20\n      add\n      swap1\n      dup2\n      mstore\n      0x20\n      add\n      0x00\n      keccak256\n        /* \"contractsproxy/CommunityGovernanceMultisigImplementation.sol\":5728:5780  communityMultiSigs[_communityId].respectToDistribute */\n      0x06\n      add\n        /* \"contractsproxy/CommunityGovernanceMultisigImplementation.sol\":5728:5790  communityMultiSigs[_communityId].respectToDistribute = _amount */\n      dup2\n      swap1\n      sstore\n      pop\n        /* \"contractsproxy/CommunityGovernanceMultisigImplementation.sol\":5832:5844  _communityId */\n      dup2\n        /* \"contractsproxy/CommunityGovernanceMultisigImplementation.sol\":5805:5854  RespectToDistributeChanged(_communityId, _amount) */\n      0x103d67daee120044227f39544f0c57945acf17897f464eefc95e6cbd4a17d3b4\n        /* \"contractsproxy/CommunityGovernanceMultisigImplementation.sol\":5846:5853  _amount */\n      dup3\n        /* \"contractsproxy/CommunityGovernanceMultisigImplementation.sol\":5805:5854  RespectToDistributeChanged(_communityId, _amount) */\n      mload(0x40)\n      tag_317\n      swap2\n      swap1\n      tag_72\n      jump\t// in\n    tag_317:\n      mload(0x40)\n      dup1\n      swap2\n      sub\n      swap1\n      log2\n        /* \"contractsproxy/CommunityGovernanceMultisigImplementation.sol\":5638:5861  function setRespectToDistribute(uint256 _communityId, uint256 _amount) internal {... */\n      pop\n      pop\n      jump\t// out\n        /* \"contractsproxy/CommunityGovernanceMultisigImplementation.sol\":5867:6383  function mintTokens(uint256 _communityId, uint256 _amount) internal {... */\n    tag_298:\n        /* \"contractsproxy/CommunityGovernanceMultisigImplementation.sol\":6054:6074  address tokenAddress */\n      0x00\n        /* \"contractsproxy/CommunityGovernanceMultisigImplementation.sol\":6087:6103  profilesContract */\n      dup1\n      0x00\n      swap1\n      sload\n      swap1\n      0x0100\n      exp\n      swap1\n      div\n      0xffffffffffffffffffffffffffffffffffffffff\n      and\n        /* \"contractsproxy/CommunityGovernanceMultisigImplementation.sol\":6087:6123  profilesContract.getCommunityProfile */\n      0xffffffffffffffffffffffffffffffffffffffff\n      and\n      0x99664245\n        /* \"contractsproxy/CommunityGovernanceMultisigImplementation.sol\":6124:6136  _communityId */\n      dup5\n        /* \"contractsproxy/CommunityGovernanceMultisigImplementation.sol\":6087:6137  profilesContract.getCommunityProfile(_communityId) */\n      mload(0x40)\n      dup3\n      0xffffffff\n      and\n      0xe0\n      shl\n      dup2\n      mstore\n      0x04\n      add\n      tag_319\n      swap2\n      swap1\n      tag_72\n      jump\t// in\n    tag_319:\n      0x00\n      mload(0x40)\n      dup1\n      dup4\n      sub\n      dup2\n      dup7\n      gas\n      staticcall\n      iszero\n      dup1\n      iszero\n      tag_321\n      jumpi\n      returndatasize\n      0x00\n      dup1\n      returndatacopy\n      revert(0x00, returndatasize)\n    tag_321:\n      pop\n      pop\n      pop\n      pop\n      mload(0x40)\n      returndatasize\n      0x00\n      dup3\n      returndatacopy\n      returndatasize\n      not(0x1f)\n      0x1f\n      dup3\n      add\n      and\n      dup3\n      add\n      dup1\n      0x40\n      mstore\n      pop\n      dup2\n      add\n      swap1\n      tag_322\n      swap2\n      swap1\n      tag_323\n      jump\t// in\n    tag_322:\n        /* \"contractsproxy/CommunityGovernanceMultisigImplementation.sol\":5942:6137  (... */\n      swap8\n      pop\n      pop\n      pop\n      pop\n      pop\n      pop\n      pop\n      pop\n        /* \"contractsproxy/CommunityGovernanceMultisigImplementation.sol\":6188:6189  0 */\n      0x00\n        /* \"contractsproxy/CommunityGovernanceMultisigImplementation.sol\":6164:6190  tokenAddress != address(0) */\n      0xffffffffffffffffffffffffffffffffffffffff\n      and\n        /* \"contractsproxy/CommunityGovernanceMultisigImplementation.sol\":6164:6176  tokenAddress */\n      dup2\n        /* \"contractsproxy/CommunityGovernanceMultisigImplementation.sol\":6164:6190  tokenAddress != address(0) */\n      0xffffffffffffffffffffffffffffffffffffffff\n      and\n      sub\n        /* \"contractsproxy/CommunityGovernanceMultisigImplementation.sol\":6156:6220  require(tokenAddress != address(0), \"Community token not found\") */\n      tag_324\n      jumpi\n      mload(0x40)\n      0x08c379a000000000000000000000000000000000000000000000000000000000\n      dup2\n      mstore\n      0x04\n      add\n      tag_325\n      swap1\n      tag_326\n      jump\t// in\n    tag_325:\n      mload(0x40)\n      dup1\n      swap2\n      sub\n      swap1\n      revert\n    tag_324:\n        /* \"contractsproxy/CommunityGovernanceMultisigImplementation.sol\":6229:6250  ICommunityToken token */\n      0x00\n        /* \"contractsproxy/CommunityGovernanceMultisigImplementation.sol\":6269:6281  tokenAddress */\n      dup2\n        /* \"contractsproxy/CommunityGovernanceMultisigImplementation.sol\":6229:6282  ICommunityToken token = ICommunityToken(tokenAddress) */\n      swap1\n      pop\n        /* \"contractsproxy/CommunityGovernanceMultisigImplementation.sol\":6292:6297  token */\n      dup1\n        /* \"contractsproxy/CommunityGovernanceMultisigImplementation.sol\":6292:6302  token.mint */\n      0xffffffffffffffffffffffffffffffffffffffff\n      and\n      0x40c10f19\n        /* \"contractsproxy/CommunityGovernanceMultisigImplementation.sol\":6311:6315  this */\n      address\n        /* \"contractsproxy/CommunityGovernanceMultisigImplementation.sol\":6318:6325  _amount */\n      dup6\n        /* \"contractsproxy/CommunityGovernanceMultisigImplementation.sol\":6292:6326  token.mint(address(this), _amount) */\n      mload(0x40)\n      dup4\n      0xffffffff\n      and\n      0xe0\n      shl\n      dup2\n      mstore\n      0x04\n      add\n      tag_327\n      swap3\n      swap2\n      swap1\n      tag_112\n      jump\t// in\n    tag_327:\n      0x00\n      mload(0x40)\n      dup1\n      dup4\n      sub\n      dup2\n      0x00\n      dup8\n      dup1\n      extcodesize\n      iszero\n      dup1\n      iszero\n      tag_328\n      jumpi\n      0x00\n      dup1\n      revert\n    tag_328:\n      pop\n      gas\n      call\n      iszero\n      dup1\n      iszero\n      tag_330\n      jumpi\n      returndatasize\n      0x00\n      dup1\n      returndatacopy\n      revert(0x00, returndatasize)\n    tag_330:\n      pop\n      pop\n      pop\n      pop\n        /* \"contractsproxy/CommunityGovernanceMultisigImplementation.sol\":6354:6366  _communityId */\n      dup4\n        /* \"contractsproxy/CommunityGovernanceMultisigImplementation.sol\":6341:6376  TokensMinted(_communityId, _amount) */\n      0xc61c8e2899bd86923bda7268d6d1b42d8e644ff3dedc13d41d5b798e4aa35237\n        /* \"contractsproxy/CommunityGovernanceMultisigImplementation.sol\":6368:6375  _amount */\n      dup5\n        /* \"contractsproxy/CommunityGovernanceMultisigImplementation.sol\":6341:6376  TokensMinted(_communityId, _amount) */\n      mload(0x40)\n      tag_331\n      swap2\n      swap1\n      tag_72\n      jump\t// in\n    tag_331:\n      mload(0x40)\n      dup1\n      swap2\n      sub\n      swap1\n      log2\n        /* \"contractsproxy/CommunityGovernanceMultisigImplementation.sol\":5935:6383  {... */\n      pop\n      pop\n        /* \"contractsproxy/CommunityGovernanceMultisigImplementation.sol\":5867:6383  function mintTokens(uint256 _communityId, uint256 _amount) internal {... */\n      pop\n      pop\n      jump\t// out\n        /* \"@openzeppelin/contracts-upgradeable/proxy/utils/Initializable.sol\":8487:8607  function _isInitializing() internal view returns (bool) {... */\n    tag_302:\n        /* \"@openzeppelin/contracts-upgradeable/proxy/utils/Initializable.sol\":8537:8541  bool */\n      0x00\n        /* \"@openzeppelin/contracts-upgradeable/proxy/utils/Initializable.sol\":8560:8586  _getInitializableStorage() */\n      tag_333\n        /* \"@openzeppelin/contracts-upgradeable/proxy/utils/Initializable.sol\":8560:8584  _getInitializableStorage */\n      tag_191\n        /* \"@openzeppelin/contracts-upgradeable/proxy/utils/Initializable.sol\":8560:8586  _getInitializableStorage() */\n      jump\t// in\n    tag_333:\n        /* \"@openzeppelin/contracts-upgradeable/proxy/utils/Initializable.sol\":8560:8600  _getInitializableStorage()._initializing */\n      0x00\n      add\n      0x08\n      swap1\n      sload\n      swap1\n      0x0100\n      exp\n      swap1\n      div\n      0xff\n      and\n        /* \"@openzeppelin/contracts-upgradeable/proxy/utils/Initializable.sol\":8553:8600  return _getInitializableStorage()._initializing */\n      swap1\n      pop\n        /* \"@openzeppelin/contracts-upgradeable/proxy/utils/Initializable.sol\":8487:8607  function _isInitializing() internal view returns (bool) {... */\n      swap1\n      jump\t// out\n    tag_89:\n      mload(0x40)\n      dup1\n      0xa0\n      add\n      0x40\n      mstore\n      dup1\n      0x05\n      swap1\n      0x20\n      dup3\n      mul\n      dup1\n      calldatasize\n      dup4\n      calldatacopy\n      dup1\n      dup3\n      add\n      swap2\n      pop\n      pop\n      swap1\n      pop\n      pop\n      swap1\n      jump\t// out\n    tag_168:\n      dup3\n      0x05\n      dup2\n      add\n      swap3\n      dup3\n      iszero\n      tag_334\n      jumpi\n      swap2\n      0x20\n      mul\n      dup3\n      add\n    tag_335:\n      dup3\n      dup2\n      gt\n      iszero\n      tag_336\n      jumpi\n      dup3\n      mload\n      dup3\n      exp(0x0100, 0x00)\n      dup2\n      sload\n      dup2\n      0xffffffffffffffffffffffffffffffffffffffff\n      mul\n      not\n      and\n      swap1\n      dup4\n      0xffffffffffffffffffffffffffffffffffffffff\n      and\n      mul\n      or\n      swap1\n      sstore\n      pop\n      swap2\n      0x20\n      add\n      swap2\n      swap1\n      0x01\n      add\n      swap1\n      jump(tag_335)\n    tag_336:\n    tag_334:\n      pop\n      swap1\n      pop\n      tag_337\n      swap2\n      swap1\n      tag_338\n      jump\t// in\n    tag_337:\n      pop\n      swap1\n      jump\t// out\n    tag_338:\n    tag_339:\n      dup1\n      dup3\n      gt\n      iszero\n      tag_340\n      jumpi\n      0x00\n      dup2\n      0x00\n      swap1\n      sstore\n      pop\n      0x01\n      add\n      jump(tag_339)\n    tag_340:\n      pop\n      swap1\n      jump\t// out\n        /* \"#utility.yul\":7:133   */\n    tag_341:\n        /* \"#utility.yul\":44:51   */\n      0x00\n        /* \"#utility.yul\":84:126   */\n      0xffffffffffffffffffffffffffffffffffffffff\n        /* \"#utility.yul\":77:82   */\n      dup3\n        /* \"#utility.yul\":73:127   */\n      and\n        /* \"#utility.yul\":62:127   */\n      swap1\n      pop\n        /* \"#utility.yul\":7:133   */\n      swap2\n      swap1\n      pop\n      jump\t// out\n        /* \"#utility.yul\":139:199   */\n    tag_342:\n        /* \"#utility.yul\":167:170   */\n      0x00\n        /* \"#utility.yul\":188:193   */\n      dup2\n        /* \"#utility.yul\":181:193   */\n      swap1\n      pop\n        /* \"#utility.yul\":139:199   */\n      swap2\n      swap1\n      pop\n      jump\t// out\n        /* \"#utility.yul\":205:347   */\n    tag_343:\n        /* \"#utility.yul\":255:264   */\n      0x00\n        /* \"#utility.yul\":288:341   */\n      tag_420\n        /* \"#utility.yul\":306:340   */\n      tag_421\n        /* \"#utility.yul\":315:339   */\n      tag_422\n        /* \"#utility.yul\":333:338   */\n      dup5\n        /* \"#utility.yul\":315:339   */\n      tag_341\n      jump\t// in\n    tag_422:\n        /* \"#utility.yul\":306:340   */\n      tag_342\n      jump\t// in\n    tag_421:\n        /* \"#utility.yul\":288:341   */\n      tag_341\n      jump\t// in\n    tag_420:\n        /* \"#utility.yul\":275:341   */\n      swap1\n      pop\n        /* \"#utility.yul\":205:347   */\n      swap2\n      swap1\n      pop\n      jump\t// out\n        /* \"#utility.yul\":353:479   */\n    tag_344:\n        /* \"#utility.yul\":403:412   */\n      0x00\n        /* \"#utility.yul\":436:473   */\n      tag_424\n        /* \"#utility.yul\":467:472   */\n      dup3\n        /* \"#utility.yul\":436:473   */\n      tag_343\n      jump\t// in\n    tag_424:\n        /* \"#utility.yul\":423:473   */\n      swap1\n      pop\n        /* \"#utility.yul\":353:479   */\n      swap2\n      swap1\n      pop\n      jump\t// out\n        /* \"#utility.yul\":485:648   */\n    tag_345:\n        /* \"#utility.yul\":572:581   */\n      0x00\n        /* \"#utility.yul\":605:642   */\n      tag_426\n        /* \"#utility.yul\":636:641   */\n      dup3\n        /* \"#utility.yul\":605:642   */\n      tag_344\n      jump\t// in\n    tag_426:\n        /* \"#utility.yul\":592:642   */\n      swap1\n      pop\n        /* \"#utility.yul\":485:648   */\n      swap2\n      swap1\n      pop\n      jump\t// out\n        /* \"#utility.yul\":654:859   */\n    tag_346:\n        /* \"#utility.yul\":778:852   */\n      tag_428\n        /* \"#utility.yul\":846:851   */\n      dup2\n        /* \"#utility.yul\":778:852   */\n      tag_345\n      jump\t// in\n    tag_428:\n        /* \"#utility.yul\":773:776   */\n      dup3\n        /* \"#utility.yul\":766:853   */\n      mstore\n        /* \"#utility.yul\":654:859   */\n      pop\n      pop\n      jump\t// out\n        /* \"#utility.yul\":865:1161   */\n    tag_25:\n        /* \"#utility.yul\":995:999   */\n      0x00\n        /* \"#utility.yul\":1033:1035   */\n      0x20\n        /* \"#utility.yul\":1022:1031   */\n      dup3\n        /* \"#utility.yul\":1018:1036   */\n      add\n        /* \"#utility.yul\":1010:1036   */\n      swap1\n      pop\n        /* \"#utility.yul\":1046:1154   */\n      tag_430\n        /* \"#utility.yul\":1151:1152   */\n      0x00\n        /* \"#utility.yul\":1140:1149   */\n      dup4\n        /* \"#utility.yul\":1136:1153   */\n      add\n        /* \"#utility.yul\":1127:1133   */\n      dup5\n        /* \"#utility.yul\":1046:1154   */\n      tag_346\n      jump\t// in\n    tag_430:\n        /* \"#utility.yul\":865:1161   */\n      swap3\n      swap2\n      pop\n      pop\n      jump\t// out\n        /* \"#utility.yul\":1167:1242   */\n    tag_347:\n        /* \"#utility.yul\":1200:1206   */\n      0x00\n        /* \"#utility.yul\":1233:1235   */\n      0x40\n        /* \"#utility.yul\":1227:1236   */\n      mload\n        /* \"#utility.yul\":1217:1236   */\n      swap1\n      pop\n        /* \"#utility.yul\":1167:1242   */\n      swap1\n      jump\t// out\n        /* \"#utility.yul\":1248:1365   */\n    tag_348:\n        /* \"#utility.yul\":1357:1358   */\n      0x00\n        /* \"#utility.yul\":1354:1355   */\n      dup1\n        /* \"#utility.yul\":1347:1359   */\n      revert\n        /* \"#utility.yul\":1371:1488   */\n    tag_349:\n        /* \"#utility.yul\":1480:1481   */\n      0x00\n        /* \"#utility.yul\":1477:1478   */\n      dup1\n        /* \"#utility.yul\":1470:1482   */\n      revert\n        /* \"#utility.yul\":1494:1571   */\n    tag_350:\n        /* \"#utility.yul\":1531:1538   */\n      0x00\n        /* \"#utility.yul\":1560:1565   */\n      dup2\n        /* \"#utility.yul\":1549:1565   */\n      swap1\n      pop\n        /* \"#utility.yul\":1494:1571   */\n      swap2\n      swap1\n      pop\n      jump\t// out\n        /* \"#utility.yul\":1577:1699   */\n    tag_351:\n        /* \"#utility.yul\":1650:1674   */\n      tag_436\n        /* \"#utility.yul\":1668:1673   */\n      dup2\n        /* \"#utility.yul\":1650:1674   */\n      tag_350\n      jump\t// in\n    tag_436:\n        /* \"#utility.yul\":1643:1648   */\n      dup2\n        /* \"#utility.yul\":1640:1675   */\n      eq\n        /* \"#utility.yul\":1630:1693   */\n      tag_437\n      jumpi\n        /* \"#utility.yul\":1689:1690   */\n      0x00\n        /* \"#utility.yul\":1686:1687   */\n      dup1\n        /* \"#utility.yul\":1679:1691   */\n      revert\n        /* \"#utility.yul\":1630:1693   */\n    tag_437:\n        /* \"#utility.yul\":1577:1699   */\n      pop\n      jump\t// out\n        /* \"#utility.yul\":1705:1844   */\n    tag_352:\n        /* \"#utility.yul\":1751:1756   */\n      0x00\n        /* \"#utility.yul\":1789:1795   */\n      dup2\n        /* \"#utility.yul\":1776:1796   */\n      calldataload\n        /* \"#utility.yul\":1767:1796   */\n      swap1\n      pop\n        /* \"#utility.yul\":1805:1838   */\n      tag_439\n        /* \"#utility.yul\":1832:1837   */\n      dup2\n        /* \"#utility.yul\":1805:1838   */\n      tag_351\n      jump\t// in\n    tag_439:\n        /* \"#utility.yul\":1705:1844   */\n      swap3\n      swap2\n      pop\n      pop\n      jump\t// out\n        /* \"#utility.yul\":1850:2179   */\n    tag_28:\n        /* \"#utility.yul\":1909:1915   */\n      0x00\n        /* \"#utility.yul\":1958:1960   */\n      0x20\n        /* \"#utility.yul\":1946:1955   */\n      dup3\n        /* \"#utility.yul\":1937:1944   */\n      dup5\n        /* \"#utility.yul\":1933:1956   */\n      sub\n        /* \"#utility.yul\":1929:1961   */\n      slt\n        /* \"#utility.yul\":1926:2045   */\n      iszero\n      tag_441\n      jumpi\n        /* \"#utility.yul\":1964:2043   */\n      tag_442\n      tag_348\n      jump\t// in\n    tag_442:\n        /* \"#utility.yul\":1926:2045   */\n    tag_441:\n        /* \"#utility.yul\":2084:2085   */\n      0x00\n        /* \"#utility.yul\":2109:2162   */\n      tag_443\n        /* \"#utility.yul\":2154:2161   */\n      dup5\n        /* \"#utility.yul\":2145:2151   */\n      dup3\n        /* \"#utility.yul\":2134:2143   */\n      dup6\n        /* \"#utility.yul\":2130:2152   */\n      add\n        /* \"#utility.yul\":2109:2162   */\n      tag_352\n      jump\t// in\n    tag_443:\n        /* \"#utility.yul\":2099:2162   */\n      swap2\n      pop\n        /* \"#utility.yul\":2055:2172   */\n      pop\n        /* \"#utility.yul\":1850:2179   */\n      swap3\n      swap2\n      pop\n      pop\n      jump\t// out\n        /* \"#utility.yul\":2185:2303   */\n    tag_353:\n        /* \"#utility.yul\":2272:2296   */\n      tag_445\n        /* \"#utility.yul\":2290:2295   */\n      dup2\n        /* \"#utility.yul\":2272:2296   */\n      tag_350\n      jump\t// in\n    tag_445:\n        /* \"#utility.yul\":2267:2270   */\n      dup3\n        /* \"#utility.yul\":2260:2297   */\n      mstore\n        /* \"#utility.yul\":2185:2303   */\n      pop\n      pop\n      jump\t// out\n        /* \"#utility.yul\":2309:2413   */\n    tag_354:\n        /* \"#utility.yul\":2374:2380   */\n      0x00\n        /* \"#utility.yul\":2402:2406   */\n      0x05\n        /* \"#utility.yul\":2392:2406   */\n      swap1\n      pop\n        /* \"#utility.yul\":2309:2413   */\n      swap2\n      swap1\n      pop\n      jump\t// out\n        /* \"#utility.yul\":2419:2562   */\n    tag_355:\n        /* \"#utility.yul\":2516:2527   */\n      0x00\n        /* \"#utility.yul\":2553:2556   */\n      dup2\n        /* \"#utility.yul\":2538:2556   */\n      swap1\n      pop\n        /* \"#utility.yul\":2419:2562   */\n      swap3\n      swap2\n      pop\n      pop\n      jump\t// out\n        /* \"#utility.yul\":2568:2666   */\n    tag_356:\n        /* \"#utility.yul\":2633:2637   */\n      0x00\n        /* \"#utility.yul\":2656:2659   */\n      dup2\n        /* \"#utility.yul\":2648:2659   */\n      swap1\n      pop\n        /* \"#utility.yul\":2568:2666   */\n      swap2\n      swap1\n      pop\n      jump\t// out\n        /* \"#utility.yul\":2672:2768   */\n    tag_357:\n        /* \"#utility.yul\":2709:2716   */\n      0x00\n        /* \"#utility.yul\":2738:2762   */\n      tag_450\n        /* \"#utility.yul\":2756:2761   */\n      dup3\n        /* \"#utility.yul\":2738:2762   */\n      tag_341\n      jump\t// in\n    tag_450:\n        /* \"#utility.yul\":2727:2762   */\n      swap1\n      pop\n        /* \"#utility.yul\":2672:2768   */\n      swap2\n      swap1\n      pop\n      jump\t// out\n        /* \"#utility.yul\":2774:2882   */\n    tag_358:\n        /* \"#utility.yul\":2851:2875   */\n      tag_452\n        /* \"#utility.yul\":2869:2874   */\n      dup2\n        /* \"#utility.yul\":2851:2875   */\n      tag_357\n      jump\t// in\n    tag_452:\n        /* \"#utility.yul\":2846:2849   */\n      dup3\n        /* \"#utility.yul\":2839:2876   */\n      mstore\n        /* \"#utility.yul\":2774:2882   */\n      pop\n      pop\n      jump\t// out\n        /* \"#utility.yul\":2888:3067   */\n    tag_359:\n        /* \"#utility.yul\":2957:2967   */\n      0x00\n        /* \"#utility.yul\":2978:3024   */\n      tag_454\n        /* \"#utility.yul\":3020:3023   */\n      dup4\n        /* \"#utility.yul\":3012:3018   */\n      dup4\n        /* \"#utility.yul\":2978:3024   */\n      tag_358\n      jump\t// in\n    tag_454:\n        /* \"#utility.yul\":3056:3060   */\n      0x20\n        /* \"#utility.yul\":3051:3054   */\n      dup4\n        /* \"#utility.yul\":3047:3061   */\n      add\n        /* \"#utility.yul\":3033:3061   */\n      swap1\n      pop\n        /* \"#utility.yul\":2888:3067   */\n      swap3\n      swap2\n      pop\n      pop\n      jump\t// out\n        /* \"#utility.yul\":3073:3184   */\n    tag_360:\n        /* \"#utility.yul\":3141:3145   */\n      0x00\n        /* \"#utility.yul\":3173:3177   */\n      0x20\n        /* \"#utility.yul\":3168:3171   */\n      dup3\n        /* \"#utility.yul\":3164:3178   */\n      add\n        /* \"#utility.yul\":3156:3178   */\n      swap1\n      pop\n        /* \"#utility.yul\":3073:3184   */\n      swap2\n      swap1\n      pop\n      jump\t// out\n        /* \"#utility.yul\":3222:3916   */\n    tag_361:\n        /* \"#utility.yul\":3358:3410   */\n      tag_457\n        /* \"#utility.yul\":3404:3409   */\n      dup2\n        /* \"#utility.yul\":3358:3410   */\n      tag_354\n      jump\t// in\n    tag_457:\n        /* \"#utility.yul\":3426:3510   */\n      tag_458\n        /* \"#utility.yul\":3503:3509   */\n      dup2\n        /* \"#utility.yul\":3498:3501   */\n      dup5\n        /* \"#utility.yul\":3426:3510   */\n      tag_355\n      jump\t// in\n    tag_458:\n        /* \"#utility.yul\":3419:3510   */\n      swap3\n      pop\n        /* \"#utility.yul\":3534:3588   */\n      tag_459\n        /* \"#utility.yul\":3582:3587   */\n      dup3\n        /* \"#utility.yul\":3534:3588   */\n      tag_356\n      jump\t// in\n    tag_459:\n        /* \"#utility.yul\":3611:3618   */\n      dup1\n        /* \"#utility.yul\":3642:3643   */\n      0x00\n        /* \"#utility.yul\":3627:3909   */\n    tag_460:\n        /* \"#utility.yul\":3652:3658   */\n      dup4\n        /* \"#utility.yul\":3649:3650   */\n      dup2\n        /* \"#utility.yul\":3646:3659   */\n      lt\n        /* \"#utility.yul\":3627:3909   */\n      iszero\n      tag_462\n      jumpi\n        /* \"#utility.yul\":3728:3734   */\n      dup2\n        /* \"#utility.yul\":3722:3735   */\n      mload\n        /* \"#utility.yul\":3755:3818   */\n      tag_463\n        /* \"#utility.yul\":3814:3817   */\n      dup8\n        /* \"#utility.yul\":3799:3812   */\n      dup3\n        /* \"#utility.yul\":3755:3818   */\n      tag_359\n      jump\t// in\n    tag_463:\n        /* \"#utility.yul\":3748:3818   */\n      swap7\n      pop\n        /* \"#utility.yul\":3841:3899   */\n      tag_464\n        /* \"#utility.yul\":3892:3898   */\n      dup4\n        /* \"#utility.yul\":3841:3899   */\n      tag_360\n      jump\t// in\n    tag_464:\n        /* \"#utility.yul\":3831:3899   */\n      swap3\n      pop\n        /* \"#utility.yul\":3687:3909   */\n      pop\n        /* \"#utility.yul\":3674:3675   */\n      0x01\n        /* \"#utility.yul\":3671:3672   */\n      dup2\n        /* \"#utility.yul\":3667:3676   */\n      add\n        /* \"#utility.yul\":3662:3676   */\n      swap1\n      pop\n        /* \"#utility.yul\":3627:3909   */\n      jump(tag_460)\n    tag_462:\n        /* \"#utility.yul\":3631:3645   */\n      pop\n        /* \"#utility.yul\":3334:3916   */\n      pop\n      pop\n      pop\n        /* \"#utility.yul\":3222:3916   */\n      pop\n      pop\n      jump\t// out\n        /* \"#utility.yul\":3922:4347   */\n    tag_31:\n        /* \"#utility.yul\":4089:4093   */\n      0x00\n        /* \"#utility.yul\":4127:4130   */\n      0xc0\n        /* \"#utility.yul\":4116:4125   */\n      dup3\n        /* \"#utility.yul\":4112:4131   */\n      add\n        /* \"#utility.yul\":4104:4131   */\n      swap1\n      pop\n        /* \"#utility.yul\":4141:4212   */\n      tag_466\n        /* \"#utility.yul\":4209:4210   */\n      0x00\n        /* \"#utility.yul\":4198:4207   */\n      dup4\n        /* \"#utility.yul\":4194:4211   */\n      add\n        /* \"#utility.yul\":4185:4191   */\n      dup6\n        /* \"#utility.yul\":4141:4212   */\n      tag_353\n      jump\t// in\n    tag_466:\n        /* \"#utility.yul\":4222:4340   */\n      tag_467\n        /* \"#utility.yul\":4336:4338   */\n      0x20\n        /* \"#utility.yul\":4325:4334   */\n      dup4\n        /* \"#utility.yul\":4321:4339   */\n      add\n        /* \"#utility.yul\":4312:4318   */\n      dup5\n        /* \"#utility.yul\":4222:4340   */\n      tag_361\n      jump\t// in\n    tag_467:\n        /* \"#utility.yul\":3922:4347   */\n      swap4\n      swap3\n      pop\n      pop\n      pop\n      jump\t// out\n        /* \"#utility.yul\":4353:4475   */\n    tag_362:\n        /* \"#utility.yul\":4426:4450   */\n      tag_469\n        /* \"#utility.yul\":4444:4449   */\n      dup2\n        /* \"#utility.yul\":4426:4450   */\n      tag_357\n      jump\t// in\n    tag_469:\n        /* \"#utility.yul\":4419:4424   */\n      dup2\n        /* \"#utility.yul\":4416:4451   */\n      eq\n        /* \"#utility.yul\":4406:4469   */\n      tag_470\n      jumpi\n        /* \"#utility.yul\":4465:4466   */\n      0x00\n        /* \"#utility.yul\":4462:4463   */\n      dup1\n        /* \"#utility.yul\":4455:4467   */\n      revert\n        /* \"#utility.yul\":4406:4469   */\n    tag_470:\n        /* \"#utility.yul\":4353:4475   */\n      pop\n      jump\t// out\n        /* \"#utility.yul\":4481:4620   */\n    tag_363:\n        /* \"#utility.yul\":4527:4532   */\n      0x00\n        /* \"#utility.yul\":4565:4571   */\n      dup2\n        /* \"#utility.yul\":4552:4572   */\n      calldataload\n        /* \"#utility.yul\":4543:4572   */\n      swap1\n      pop\n        /* \"#utility.yul\":4581:4614   */\n      tag_472\n        /* \"#utility.yul\":4608:4613   */\n      dup2\n        /* \"#utility.yul\":4581:4614   */\n      tag_362\n      jump\t// in\n    tag_472:\n        /* \"#utility.yul\":4481:4620   */\n      swap3\n      swap2\n      pop\n      pop\n      jump\t// out\n        /* \"#utility.yul\":4626:5245   */\n    tag_34:\n        /* \"#utility.yul\":4703:4709   */\n      0x00\n        /* \"#utility.yul\":4711:4717   */\n      dup1\n        /* \"#utility.yul\":4719:4725   */\n      0x00\n        /* \"#utility.yul\":4768:4770   */\n      0x60\n        /* \"#utility.yul\":4756:4765   */\n      dup5\n        /* \"#utility.yul\":4747:4754   */\n      dup7\n        /* \"#utility.yul\":4743:4766   */\n      sub\n        /* \"#utility.yul\":4739:4771   */\n      slt\n        /* \"#utility.yul\":4736:4855   */\n      iszero\n      tag_474\n      jumpi\n        /* \"#utility.yul\":4774:4853   */\n      tag_475\n      tag_348\n      jump\t// in\n    tag_475:\n        /* \"#utility.yul\":4736:4855   */\n    tag_474:\n        /* \"#utility.yul\":4894:4895   */\n      0x00\n        /* \"#utility.yul\":4919:4972   */\n      tag_476\n        /* \"#utility.yul\":4964:4971   */\n      dup7\n        /* \"#utility.yul\":4955:4961   */\n      dup3\n        /* \"#utility.yul\":4944:4953   */\n      dup8\n        /* \"#utility.yul\":4940:4962   */\n      add\n        /* \"#utility.yul\":4919:4972   */\n      tag_352\n      jump\t// in\n    tag_476:\n        /* \"#utility.yul\":4909:4972   */\n      swap4\n      pop\n        /* \"#utility.yul\":4865:4982   */\n      pop\n        /* \"#utility.yul\":5021:5023   */\n      0x20\n        /* \"#utility.yul\":5047:5100   */\n      tag_477\n        /* \"#utility.yul\":5092:5099   */\n      dup7\n        /* \"#utility.yul\":5083:5089   */\n      dup3\n        /* \"#utility.yul\":5072:5081   */\n      dup8\n        /* \"#utility.yul\":5068:5090   */\n      add\n        /* \"#utility.yul\":5047:5100   */\n      tag_352\n      jump\t// in\n    tag_477:\n        /* \"#utility.yul\":5037:5100   */\n      swap3\n      pop\n        /* \"#utility.yul\":4992:5110   */\n      pop\n        /* \"#utility.yul\":5149:5151   */\n      0x40\n        /* \"#utility.yul\":5175:5228   */\n      tag_478\n        /* \"#utility.yul\":5220:5227   */\n      dup7\n        /* \"#utility.yul\":5211:5217   */\n      dup3\n        /* \"#utility.yul\":5200:5209   */\n      dup8\n        /* \"#utility.yul\":5196:5218   */\n      add\n        /* \"#utility.yul\":5175:5228   */\n      tag_363\n      jump\t// in\n    tag_478:\n        /* \"#utility.yul\":5165:5228   */\n      swap2\n      pop\n        /* \"#utility.yul\":5120:5238   */\n      pop\n        /* \"#utility.yul\":4626:5245   */\n      swap3\n      pop\n      swap3\n      pop\n      swap3\n      jump\t// out\n        /* \"#utility.yul\":5251:5341   */\n    tag_364:\n        /* \"#utility.yul\":5285:5292   */\n      0x00\n        /* \"#utility.yul\":5328:5333   */\n      dup2\n        /* \"#utility.yul\":5321:5334   */\n      iszero\n        /* \"#utility.yul\":5314:5335   */\n      iszero\n        /* \"#utility.yul\":5303:5335   */\n      swap1\n      pop\n        /* \"#utility.yul\":5251:5341   */\n      swap2\n      swap1\n      pop\n      jump\t// out\n        /* \"#utility.yul\":5347:5456   */\n    tag_365:\n        /* \"#utility.yul\":5428:5449   */\n      tag_481\n        /* \"#utility.yul\":5443:5448   */\n      dup2\n        /* \"#utility.yul\":5428:5449   */\n      tag_364\n      jump\t// in\n    tag_481:\n        /* \"#utility.yul\":5423:5426   */\n      dup3\n        /* \"#utility.yul\":5416:5450   */\n      mstore\n        /* \"#utility.yul\":5347:5456   */\n      pop\n      pop\n      jump\t// out\n        /* \"#utility.yul\":5462:5672   */\n    tag_37:\n        /* \"#utility.yul\":5549:5553   */\n      0x00\n        /* \"#utility.yul\":5587:5589   */\n      0x20\n        /* \"#utility.yul\":5576:5585   */\n      dup3\n        /* \"#utility.yul\":5572:5590   */\n      add\n        /* \"#utility.yul\":5564:5590   */\n      swap1\n      pop\n        /* \"#utility.yul\":5600:5665   */\n      tag_483\n        /* \"#utility.yul\":5662:5663   */\n      0x00\n        /* \"#utility.yul\":5651:5660   */\n      dup4\n        /* \"#utility.yul\":5647:5664   */\n      add\n        /* \"#utility.yul\":5638:5644   */\n      dup5\n        /* \"#utility.yul\":5600:5665   */\n      tag_365\n      jump\t// in\n    tag_483:\n        /* \"#utility.yul\":5462:5672   */\n      swap3\n      swap2\n      pop\n      pop\n      jump\t// out\n        /* \"#utility.yul\":5678:5795   */\n    tag_366:\n        /* \"#utility.yul\":5787:5788   */\n      0x00\n        /* \"#utility.yul\":5784:5785   */\n      dup1\n        /* \"#utility.yul\":5777:5789   */\n      revert\n        /* \"#utility.yul\":5801:5903   */\n    tag_367:\n        /* \"#utility.yul\":5842:5848   */\n      0x00\n        /* \"#utility.yul\":5893:5895   */\n      0x1f\n        /* \"#utility.yul\":5889:5896   */\n      not\n        /* \"#utility.yul\":5884:5886   */\n      0x1f\n        /* \"#utility.yul\":5877:5882   */\n      dup4\n        /* \"#utility.yul\":5873:5887   */\n      add\n        /* \"#utility.yul\":5869:5897   */\n      and\n        /* \"#utility.yul\":5859:5897   */\n      swap1\n      pop\n        /* \"#utility.yul\":5801:5903   */\n      swap2\n      swap1\n      pop\n      jump\t// out\n        /* \"#utility.yul\":5909:6089   */\n    tag_103:\n        /* \"#utility.yul\":5957:6034   */\n      0x4e487b7100000000000000000000000000000000000000000000000000000000\n        /* \"#utility.yul\":5954:5955   */\n      0x00\n        /* \"#utility.yul\":5947:6035   */\n      mstore\n        /* \"#utility.yul\":6054:6058   */\n      0x41\n        /* \"#utility.yul\":6051:6052   */\n      0x04\n        /* \"#utility.yul\":6044:6059   */\n      mstore\n        /* \"#utility.yul\":6078:6082   */\n      0x24\n        /* \"#utility.yul\":6075:6076   */\n      0x00\n        /* \"#utility.yul\":6068:6083   */\n      revert\n        /* \"#utility.yul\":6095:6376   */\n    tag_368:\n        /* \"#utility.yul\":6178:6205   */\n      tag_488\n        /* \"#utility.yul\":6200:6204   */\n      dup3\n        /* \"#utility.yul\":6178:6205   */\n      tag_367\n      jump\t// in\n    tag_488:\n        /* \"#utility.yul\":6170:6176   */\n      dup2\n        /* \"#utility.yul\":6166:6206   */\n      add\n        /* \"#utility.yul\":6308:6314   */\n      dup2\n        /* \"#utility.yul\":6296:6306   */\n      dup2\n        /* \"#utility.yul\":6293:6315   */\n      lt\n        /* \"#utility.yul\":6272:6290   */\n      0xffffffffffffffff\n        /* \"#utility.yul\":6260:6270   */\n      dup3\n        /* \"#utility.yul\":6257:6291   */\n      gt\n        /* \"#utility.yul\":6254:6316   */\n      or\n        /* \"#utility.yul\":6251:6339   */\n      iszero\n      tag_489\n      jumpi\n        /* \"#utility.yul\":6319:6337   */\n      tag_490\n      tag_103\n      jump\t// in\n    tag_490:\n        /* \"#utility.yul\":6251:6339   */\n    tag_489:\n        /* \"#utility.yul\":6359:6369   */\n      dup1\n        /* \"#utility.yul\":6355:6357   */\n      0x40\n        /* \"#utility.yul\":6348:6370   */\n      mstore\n        /* \"#utility.yul\":6138:6376   */\n      pop\n        /* \"#utility.yul\":6095:6376   */\n      pop\n      pop\n      jump\t// out\n        /* \"#utility.yul\":6382:6511   */\n    tag_369:\n        /* \"#utility.yul\":6416:6422   */\n      0x00\n        /* \"#utility.yul\":6443:6463   */\n      tag_492\n      tag_347\n      jump\t// in\n    tag_492:\n        /* \"#utility.yul\":6433:6463   */\n      swap1\n      pop\n        /* \"#utility.yul\":6472:6505   */\n      tag_493\n        /* \"#utility.yul\":6500:6504   */\n      dup3\n        /* \"#utility.yul\":6492:6498   */\n      dup3\n        /* \"#utility.yul\":6472:6505   */\n      tag_368\n      jump\t// in\n    tag_493:\n        /* \"#utility.yul\":6382:6511   */\n      swap2\n      swap1\n      pop\n      jump\t// out\n        /* \"#utility.yul\":6517:6828   */\n    tag_370:\n        /* \"#utility.yul\":6594:6598   */\n      0x00\n        /* \"#utility.yul\":6684:6702   */\n      0xffffffffffffffff\n        /* \"#utility.yul\":6676:6682   */\n      dup3\n        /* \"#utility.yul\":6673:6703   */\n      gt\n        /* \"#utility.yul\":6670:6726   */\n      iszero\n      tag_495\n      jumpi\n        /* \"#utility.yul\":6706:6724   */\n      tag_496\n      tag_103\n      jump\t// in\n    tag_496:\n        /* \"#utility.yul\":6670:6726   */\n    tag_495:\n        /* \"#utility.yul\":6756:6760   */\n      0x20\n        /* \"#utility.yul\":6748:6754   */\n      dup3\n        /* \"#utility.yul\":6744:6761   */\n      mul\n        /* \"#utility.yul\":6736:6761   */\n      swap1\n      pop\n        /* \"#utility.yul\":6816:6820   */\n      0x20\n        /* \"#utility.yul\":6810:6814   */\n      dup2\n        /* \"#utility.yul\":6806:6821   */\n      add\n        /* \"#utility.yul\":6798:6821   */\n      swap1\n      pop\n        /* \"#utility.yul\":6517:6828   */\n      swap2\n      swap1\n      pop\n      jump\t// out\n        /* \"#utility.yul\":6834:6951   */\n    tag_371:\n        /* \"#utility.yul\":6943:6944   */\n      0x00\n        /* \"#utility.yul\":6940:6941   */\n      dup1\n        /* \"#utility.yul\":6933:6945   */\n      revert\n        /* \"#utility.yul\":6974:7684   */\n    tag_372:\n        /* \"#utility.yul\":7070:7075   */\n      0x00\n        /* \"#utility.yul\":7095:7176   */\n      tag_499\n        /* \"#utility.yul\":7111:7175   */\n      tag_500\n        /* \"#utility.yul\":7168:7174   */\n      dup5\n        /* \"#utility.yul\":7111:7175   */\n      tag_370\n      jump\t// in\n    tag_500:\n        /* \"#utility.yul\":7095:7176   */\n      tag_369\n      jump\t// in\n    tag_499:\n        /* \"#utility.yul\":7086:7176   */\n      swap1\n      pop\n        /* \"#utility.yul\":7196:7201   */\n      dup1\n        /* \"#utility.yul\":7225:7231   */\n      dup4\n        /* \"#utility.yul\":7218:7223   */\n      dup3\n        /* \"#utility.yul\":7211:7232   */\n      mstore\n        /* \"#utility.yul\":7259:7263   */\n      0x20\n        /* \"#utility.yul\":7252:7257   */\n      dup3\n        /* \"#utility.yul\":7248:7264   */\n      add\n        /* \"#utility.yul\":7241:7264   */\n      swap1\n      pop\n        /* \"#utility.yul\":7312:7316   */\n      0x20\n        /* \"#utility.yul\":7304:7310   */\n      dup5\n        /* \"#utility.yul\":7300:7317   */\n      mul\n        /* \"#utility.yul\":7292:7298   */\n      dup4\n        /* \"#utility.yul\":7288:7318   */\n      add\n        /* \"#utility.yul\":7341:7344   */\n      dup6\n        /* \"#utility.yul\":7333:7339   */\n      dup2\n        /* \"#utility.yul\":7330:7345   */\n      gt\n        /* \"#utility.yul\":7327:7449   */\n      iszero\n      tag_501\n      jumpi\n        /* \"#utility.yul\":7360:7439   */\n      tag_502\n      tag_371\n      jump\t// in\n    tag_502:\n        /* \"#utility.yul\":7327:7449   */\n    tag_501:\n        /* \"#utility.yul\":7475:7481   */\n      dup4\n        /* \"#utility.yul\":7458:7678   */\n    tag_503:\n        /* \"#utility.yul\":7492:7498   */\n      dup2\n        /* \"#utility.yul\":7487:7490   */\n      dup2\n        /* \"#utility.yul\":7484:7499   */\n      lt\n        /* \"#utility.yul\":7458:7678   */\n      iszero\n      tag_505\n      jumpi\n        /* \"#utility.yul\":7567:7570   */\n      dup1\n        /* \"#utility.yul\":7596:7633   */\n      tag_506\n        /* \"#utility.yul\":7629:7632   */\n      dup9\n        /* \"#utility.yul\":7617:7627   */\n      dup3\n        /* \"#utility.yul\":7596:7633   */\n      tag_363\n      jump\t// in\n    tag_506:\n        /* \"#utility.yul\":7591:7594   */\n      dup5\n        /* \"#utility.yul\":7584:7634   */\n      mstore\n        /* \"#utility.yul\":7663:7667   */\n      0x20\n        /* \"#utility.yul\":7658:7661   */\n      dup5\n        /* \"#utility.yul\":7654:7668   */\n      add\n        /* \"#utility.yul\":7647:7668   */\n      swap4\n      pop\n        /* \"#utility.yul\":7534:7678   */\n      pop\n        /* \"#utility.yul\":7518:7522   */\n      0x20\n        /* \"#utility.yul\":7513:7516   */\n      dup2\n        /* \"#utility.yul\":7509:7523   */\n      add\n        /* \"#utility.yul\":7502:7523   */\n      swap1\n      pop\n        /* \"#utility.yul\":7458:7678   */\n      jump(tag_503)\n    tag_505:\n        /* \"#utility.yul\":7462:7483   */\n      pop\n        /* \"#utility.yul\":7076:7684   */\n      pop\n      pop\n        /* \"#utility.yul\":6974:7684   */\n      swap4\n      swap3\n      pop\n      pop\n      pop\n      jump\t// out\n        /* \"#utility.yul\":7707:8077   */\n    tag_373:\n        /* \"#utility.yul\":7778:7783   */\n      0x00\n        /* \"#utility.yul\":7827:7830   */\n      dup3\n        /* \"#utility.yul\":7820:7824   */\n      0x1f\n        /* \"#utility.yul\":7812:7818   */\n      dup4\n        /* \"#utility.yul\":7808:7825   */\n      add\n        /* \"#utility.yul\":7804:7831   */\n      slt\n        /* \"#utility.yul\":7794:7916   */\n      tag_508\n      jumpi\n        /* \"#utility.yul\":7835:7914   */\n      tag_509\n      tag_366\n      jump\t// in\n    tag_509:\n        /* \"#utility.yul\":7794:7916   */\n    tag_508:\n        /* \"#utility.yul\":7952:7958   */\n      dup2\n        /* \"#utility.yul\":7939:7959   */\n      calldataload\n        /* \"#utility.yul\":7977:8071   */\n      tag_510\n        /* \"#utility.yul\":8067:8070   */\n      dup5\n        /* \"#utility.yul\":8059:8065   */\n      dup3\n        /* \"#utility.yul\":8052:8056   */\n      0x20\n        /* \"#utility.yul\":8044:8050   */\n      dup7\n        /* \"#utility.yul\":8040:8057   */\n      add\n        /* \"#utility.yul\":7977:8071   */\n      tag_372\n      jump\t// in\n    tag_510:\n        /* \"#utility.yul\":7968:8071   */\n      swap2\n      pop\n        /* \"#utility.yul\":7784:8077   */\n      pop\n        /* \"#utility.yul\":7707:8077   */\n      swap3\n      swap2\n      pop\n      pop\n      jump\t// out\n        /* \"#utility.yul\":8083:8767   */\n    tag_40:\n        /* \"#utility.yul\":8176:8182   */\n      0x00\n        /* \"#utility.yul\":8184:8190   */\n      dup1\n        /* \"#utility.yul\":8233:8235   */\n      0x40\n        /* \"#utility.yul\":8221:8230   */\n      dup4\n        /* \"#utility.yul\":8212:8219   */\n      dup6\n        /* \"#utility.yul\":8208:8231   */\n      sub\n        /* \"#utility.yul\":8204:8236   */\n      slt\n        /* \"#utility.yul\":8201:8320   */\n      iszero\n      tag_512\n      jumpi\n        /* \"#utility.yul\":8239:8318   */\n      tag_513\n      tag_348\n      jump\t// in\n    tag_513:\n        /* \"#utility.yul\":8201:8320   */\n    tag_512:\n        /* \"#utility.yul\":8359:8360   */\n      0x00\n        /* \"#utility.yul\":8384:8437   */\n      tag_514\n        /* \"#utility.yul\":8429:8436   */\n      dup6\n        /* \"#utility.yul\":8420:8426   */\n      dup3\n        /* \"#utility.yul\":8409:8418   */\n      dup7\n        /* \"#utility.yul\":8405:8427   */\n      add\n        /* \"#utility.yul\":8384:8437   */\n      tag_352\n      jump\t// in\n    tag_514:\n        /* \"#utility.yul\":8374:8437   */\n      swap3\n      pop\n        /* \"#utility.yul\":8330:8447   */\n      pop\n        /* \"#utility.yul\":8514:8516   */\n      0x20\n        /* \"#utility.yul\":8503:8512   */\n      dup4\n        /* \"#utility.yul\":8499:8517   */\n      add\n        /* \"#utility.yul\":8486:8518   */\n      calldataload\n        /* \"#utility.yul\":8545:8563   */\n      0xffffffffffffffff\n        /* \"#utility.yul\":8537:8543   */\n      dup2\n        /* \"#utility.yul\":8534:8564   */\n      gt\n        /* \"#utility.yul\":8531:8648   */\n      iszero\n      tag_515\n      jumpi\n        /* \"#utility.yul\":8567:8646   */\n      tag_516\n      tag_349\n      jump\t// in\n    tag_516:\n        /* \"#utility.yul\":8531:8648   */\n    tag_515:\n        /* \"#utility.yul\":8672:8750   */\n      tag_517\n        /* \"#utility.yul\":8742:8749   */\n      dup6\n        /* \"#utility.yul\":8733:8739   */\n      dup3\n        /* \"#utility.yul\":8722:8731   */\n      dup7\n        /* \"#utility.yul\":8718:8740   */\n      add\n        /* \"#utility.yul\":8672:8750   */\n      tag_373\n      jump\t// in\n    tag_517:\n        /* \"#utility.yul\":8662:8750   */\n      swap2\n      pop\n        /* \"#utility.yul\":8457:8760   */\n      pop\n        /* \"#utility.yul\":8083:8767   */\n      swap3\n      pop\n      swap3\n      swap1\n      pop\n      jump\t// out\n        /* \"#utility.yul\":8773:8891   */\n    tag_374:\n        /* \"#utility.yul\":8860:8884   */\n      tag_519\n        /* \"#utility.yul\":8878:8883   */\n      dup2\n        /* \"#utility.yul\":8860:8884   */\n      tag_357\n      jump\t// in\n    tag_519:\n        /* \"#utility.yul\":8855:8858   */\n      dup3\n        /* \"#utility.yul\":8848:8885   */\n      mstore\n        /* \"#utility.yul\":8773:8891   */\n      pop\n      pop\n      jump\t// out\n        /* \"#utility.yul\":8897:9119   */\n    tag_47:\n        /* \"#utility.yul\":8990:8994   */\n      0x00\n        /* \"#utility.yul\":9028:9030   */\n      0x20\n        /* \"#utility.yul\":9017:9026   */\n      dup3\n        /* \"#utility.yul\":9013:9031   */\n      add\n        /* \"#utility.yul\":9005:9031   */\n      swap1\n      pop\n        /* \"#utility.yul\":9041:9112   */\n      tag_521\n        /* \"#utility.yul\":9109:9110   */\n      0x00\n        /* \"#utility.yul\":9098:9107   */\n      dup4\n        /* \"#utility.yul\":9094:9111   */\n      add\n        /* \"#utility.yul\":9085:9091   */\n      dup5\n        /* \"#utility.yul\":9041:9112   */\n      tag_374\n      jump\t// in\n    tag_521:\n        /* \"#utility.yul\":8897:9119   */\n      swap3\n      swap2\n      pop\n      pop\n      jump\t// out\n        /* \"#utility.yul\":9125:9599   */\n    tag_50:\n        /* \"#utility.yul\":9193:9199   */\n      0x00\n        /* \"#utility.yul\":9201:9207   */\n      dup1\n        /* \"#utility.yul\":9250:9252   */\n      0x40\n        /* \"#utility.yul\":9238:9247   */\n      dup4\n        /* \"#utility.yul\":9229:9236   */\n      dup6\n        /* \"#utility.yul\":9225:9248   */\n      sub\n        /* \"#utility.yul\":9221:9253   */\n      slt\n        /* \"#utility.yul\":9218:9337   */\n      iszero\n      tag_523\n      jumpi\n        /* \"#utility.yul\":9256:9335   */\n      tag_524\n      tag_348\n      jump\t// in\n    tag_524:\n        /* \"#utility.yul\":9218:9337   */\n    tag_523:\n        /* \"#utility.yul\":9376:9377   */\n      0x00\n        /* \"#utility.yul\":9401:9454   */\n      tag_525\n        /* \"#utility.yul\":9446:9453   */\n      dup6\n        /* \"#utility.yul\":9437:9443   */\n      dup3\n        /* \"#utility.yul\":9426:9435   */\n      dup7\n        /* \"#utility.yul\":9422:9444   */\n      add\n        /* \"#utility.yul\":9401:9454   */\n      tag_352\n      jump\t// in\n    tag_525:\n        /* \"#utility.yul\":9391:9454   */\n      swap3\n      pop\n        /* \"#utility.yul\":9347:9464   */\n      pop\n        /* \"#utility.yul\":9503:9505   */\n      0x20\n        /* \"#utility.yul\":9529:9582   */\n      tag_526\n        /* \"#utility.yul\":9574:9581   */\n      dup6\n        /* \"#utility.yul\":9565:9571   */\n      dup3\n        /* \"#utility.yul\":9554:9563   */\n      dup7\n        /* \"#utility.yul\":9550:9572   */\n      add\n        /* \"#utility.yul\":9529:9582   */\n      tag_352\n      jump\t// in\n    tag_526:\n        /* \"#utility.yul\":9519:9582   */\n      swap2\n      pop\n        /* \"#utility.yul\":9474:9592   */\n      pop\n        /* \"#utility.yul\":9125:9599   */\n      swap3\n      pop\n      swap3\n      swap1\n      pop\n      jump\t// out\n        /* \"#utility.yul\":9605:9785   */\n    tag_186:\n        /* \"#utility.yul\":9653:9730   */\n      0x4e487b7100000000000000000000000000000000000000000000000000000000\n        /* \"#utility.yul\":9650:9651   */\n      0x00\n        /* \"#utility.yul\":9643:9731   */\n      mstore\n        /* \"#utility.yul\":9750:9754   */\n      0x21\n        /* \"#utility.yul\":9747:9748   */\n      0x04\n        /* \"#utility.yul\":9740:9755   */\n      mstore\n        /* \"#utility.yul\":9774:9778   */\n      0x24\n        /* \"#utility.yul\":9771:9772   */\n      0x00\n        /* \"#utility.yul\":9764:9779   */\n      revert\n        /* \"#utility.yul\":9791:9912   */\n    tag_375:\n        /* \"#utility.yul\":9880:9881   */\n      0x03\n        /* \"#utility.yul\":9873:9878   */\n      dup2\n        /* \"#utility.yul\":9870:9882   */\n      lt\n        /* \"#utility.yul\":9860:9906   */\n      tag_529\n      jumpi\n        /* \"#utility.yul\":9886:9904   */\n      tag_530\n      tag_186\n      jump\t// in\n    tag_530:\n        /* \"#utility.yul\":9860:9906   */\n    tag_529:\n        /* \"#utility.yul\":9791:9912   */\n      pop\n      jump\t// out\n        /* \"#utility.yul\":9918:10061   */\n    tag_376:\n        /* \"#utility.yul\":9971:9978   */\n      0x00\n        /* \"#utility.yul\":10000:10005   */\n      dup2\n        /* \"#utility.yul\":9989:10005   */\n      swap1\n      pop\n        /* \"#utility.yul\":10006:10055   */\n      tag_532\n        /* \"#utility.yul\":10049:10054   */\n      dup3\n        /* \"#utility.yul\":10006:10055   */\n      tag_375\n      jump\t// in\n    tag_532:\n        /* \"#utility.yul\":9918:10061   */\n      swap2\n      swap1\n      pop\n      jump\t// out\n        /* \"#utility.yul\":10067:10210   */\n    tag_377:\n        /* \"#utility.yul\":10131:10140   */\n      0x00\n        /* \"#utility.yul\":10164:10204   */\n      tag_534\n        /* \"#utility.yul\":10198:10203   */\n      dup3\n        /* \"#utility.yul\":10164:10204   */\n      tag_376\n      jump\t// in\n    tag_534:\n        /* \"#utility.yul\":10151:10204   */\n      swap1\n      pop\n        /* \"#utility.yul\":10067:10210   */\n      swap2\n      swap1\n      pop\n      jump\t// out\n        /* \"#utility.yul\":10216:10375   */\n    tag_378:\n        /* \"#utility.yul\":10317:10368   */\n      tag_536\n        /* \"#utility.yul\":10362:10367   */\n      dup2\n        /* \"#utility.yul\":10317:10368   */\n      tag_377\n      jump\t// in\n    tag_536:\n        /* \"#utility.yul\":10312:10315   */\n      dup3\n        /* \"#utility.yul\":10305:10369   */\n      mstore\n        /* \"#utility.yul\":10216:10375   */\n      pop\n      pop\n      jump\t// out\n        /* \"#utility.yul\":10381:11061   */\n    tag_53:\n        /* \"#utility.yul\":10594:10598   */\n      0x00\n        /* \"#utility.yul\":10632:10635   */\n      0xa0\n        /* \"#utility.yul\":10621:10630   */\n      dup3\n        /* \"#utility.yul\":10617:10636   */\n      add\n        /* \"#utility.yul\":10609:10636   */\n      swap1\n      pop\n        /* \"#utility.yul\":10646:10731   */\n      tag_538\n        /* \"#utility.yul\":10728:10729   */\n      0x00\n        /* \"#utility.yul\":10717:10726   */\n      dup4\n        /* \"#utility.yul\":10713:10730   */\n      add\n        /* \"#utility.yul\":10704:10710   */\n      dup9\n        /* \"#utility.yul\":10646:10731   */\n      tag_378\n      jump\t// in\n    tag_538:\n        /* \"#utility.yul\":10741:10813   */\n      tag_539\n        /* \"#utility.yul\":10809:10811   */\n      0x20\n        /* \"#utility.yul\":10798:10807   */\n      dup4\n        /* \"#utility.yul\":10794:10812   */\n      add\n        /* \"#utility.yul\":10785:10791   */\n      dup8\n        /* \"#utility.yul\":10741:10813   */\n      tag_353\n      jump\t// in\n    tag_539:\n        /* \"#utility.yul\":10823:10895   */\n      tag_540\n        /* \"#utility.yul\":10891:10893   */\n      0x40\n        /* \"#utility.yul\":10880:10889   */\n      dup4\n        /* \"#utility.yul\":10876:10894   */\n      add\n        /* \"#utility.yul\":10867:10873   */\n      dup7\n        /* \"#utility.yul\":10823:10895   */\n      tag_374\n      jump\t// in\n    tag_540:\n        /* \"#utility.yul\":10905:10977   */\n      tag_541\n        /* \"#utility.yul\":10973:10975   */\n      0x60\n        /* \"#utility.yul\":10962:10971   */\n      dup4\n        /* \"#utility.yul\":10958:10976   */\n      add\n        /* \"#utility.yul\":10949:10955   */\n      dup6\n        /* \"#utility.yul\":10905:10977   */\n      tag_353\n      jump\t// in\n    tag_541:\n        /* \"#utility.yul\":10987:11054   */\n      tag_542\n        /* \"#utility.yul\":11049:11052   */\n      0x80\n        /* \"#utility.yul\":11038:11047   */\n      dup4\n        /* \"#utility.yul\":11034:11053   */\n      add\n        /* \"#utility.yul\":11025:11031   */\n      dup5\n        /* \"#utility.yul\":10987:11054   */\n      tag_365\n      jump\t// in\n    tag_542:\n        /* \"#utility.yul\":10381:11061   */\n      swap7\n      swap6\n      pop\n      pop\n      pop\n      pop\n      pop\n      pop\n      jump\t// out\n        /* \"#utility.yul\":11067:11182   */\n    tag_379:\n        /* \"#utility.yul\":11156:11157   */\n      0x03\n        /* \"#utility.yul\":11149:11154   */\n      dup2\n        /* \"#utility.yul\":11146:11158   */\n      lt\n        /* \"#utility.yul\":11136:11176   */\n      tag_544\n      jumpi\n        /* \"#utility.yul\":11172:11173   */\n      0x00\n        /* \"#utility.yul\":11169:11170   */\n      dup1\n        /* \"#utility.yul\":11162:11174   */\n      revert\n        /* \"#utility.yul\":11136:11176   */\n    tag_544:\n        /* \"#utility.yul\":11067:11182   */\n      pop\n      jump\t// out\n        /* \"#utility.yul\":11188:11359   */\n    tag_380:\n        /* \"#utility.yul\":11250:11255   */\n      0x00\n        /* \"#utility.yul\":11288:11294   */\n      dup2\n        /* \"#utility.yul\":11275:11295   */\n      calldataload\n        /* \"#utility.yul\":11266:11295   */\n      swap1\n      pop\n        /* \"#utility.yul\":11304:11353   */\n      tag_546\n        /* \"#utility.yul\":11347:11352   */\n      dup2\n        /* \"#utility.yul\":11304:11353   */\n      tag_379\n      jump\t// in\n    tag_546:\n        /* \"#utility.yul\":11188:11359   */\n      swap3\n      swap2\n      pop\n      pop\n      jump\t// out\n        /* \"#utility.yul\":11365:12308   */\n    tag_56:\n        /* \"#utility.yul\":11476:11482   */\n      0x00\n        /* \"#utility.yul\":11484:11490   */\n      dup1\n        /* \"#utility.yul\":11492:11498   */\n      0x00\n        /* \"#utility.yul\":11500:11506   */\n      dup1\n        /* \"#utility.yul\":11508:11514   */\n      0x00\n        /* \"#utility.yul\":11557:11560   */\n      0xa0\n        /* \"#utility.yul\":11545:11554   */\n      dup7\n        /* \"#utility.yul\":11536:11543   */\n      dup9\n        /* \"#utility.yul\":11532:11555   */\n      sub\n        /* \"#utility.yul\":11528:11561   */\n      slt\n        /* \"#utility.yul\":11525:11645   */\n      iszero\n      tag_548\n      jumpi\n        /* \"#utility.yul\":11564:11643   */\n      tag_549\n      tag_348\n      jump\t// in\n    tag_549:\n        /* \"#utility.yul\":11525:11645   */\n    tag_548:\n        /* \"#utility.yul\":11684:11685   */\n      0x00\n        /* \"#utility.yul\":11709:11762   */\n      tag_550\n        /* \"#utility.yul\":11754:11761   */\n      dup9\n        /* \"#utility.yul\":11745:11751   */\n      dup3\n        /* \"#utility.yul\":11734:11743   */\n      dup10\n        /* \"#utility.yul\":11730:11752   */\n      add\n        /* \"#utility.yul\":11709:11762   */\n      tag_352\n      jump\t// in\n    tag_550:\n        /* \"#utility.yul\":11699:11762   */\n      swap6\n      pop\n        /* \"#utility.yul\":11655:11772   */\n      pop\n        /* \"#utility.yul\":11811:11813   */\n      0x20\n        /* \"#utility.yul\":11837:11890   */\n      tag_551\n        /* \"#utility.yul\":11882:11889   */\n      dup9\n        /* \"#utility.yul\":11873:11879   */\n      dup3\n        /* \"#utility.yul\":11862:11871   */\n      dup10\n        /* \"#utility.yul\":11858:11880   */\n      add\n        /* \"#utility.yul\":11837:11890   */\n      tag_352\n      jump\t// in\n    tag_551:\n        /* \"#utility.yul\":11827:11890   */\n      swap5\n      pop\n        /* \"#utility.yul\":11782:11900   */\n      pop\n        /* \"#utility.yul\":11939:11941   */\n      0x40\n        /* \"#utility.yul\":11965:12034   */\n      tag_552\n        /* \"#utility.yul\":12026:12033   */\n      dup9\n        /* \"#utility.yul\":12017:12023   */\n      dup3\n        /* \"#utility.yul\":12006:12015   */\n      dup10\n        /* \"#utility.yul\":12002:12024   */\n      add\n        /* \"#utility.yul\":11965:12034   */\n      tag_380\n      jump\t// in\n    tag_552:\n        /* \"#utility.yul\":11955:12034   */\n      swap4\n      pop\n        /* \"#utility.yul\":11910:12044   */\n      pop\n        /* \"#utility.yul\":12083:12085   */\n      0x60\n        /* \"#utility.yul\":12109:12162   */\n      tag_553\n        /* \"#utility.yul\":12154:12161   */\n      dup9\n        /* \"#utility.yul\":12145:12151   */\n      dup3\n        /* \"#utility.yul\":12134:12143   */\n      dup10\n        /* \"#utility.yul\":12130:12152   */\n      add\n        /* \"#utility.yul\":12109:12162   */\n      tag_352\n      jump\t// in\n    tag_553:\n        /* \"#utility.yul\":12099:12162   */\n      swap3\n      pop\n        /* \"#utility.yul\":12054:12172   */\n      pop\n        /* \"#utility.yul\":12211:12214   */\n      0x80\n        /* \"#utility.yul\":12238:12291   */\n      tag_554\n        /* \"#utility.yul\":12283:12290   */\n      dup9\n        /* \"#utility.yul\":12274:12280   */\n      dup3\n        /* \"#utility.yul\":12263:12272   */\n      dup10\n        /* \"#utility.yul\":12259:12281   */\n      add\n        /* \"#utility.yul\":12238:12291   */\n      tag_363\n      jump\t// in\n    tag_554:\n        /* \"#utility.yul\":12228:12291   */\n      swap2\n      pop\n        /* \"#utility.yul\":12182:12301   */\n      pop\n        /* \"#utility.yul\":11365:12308   */\n      swap3\n      swap6\n      pop\n      swap3\n      swap6\n      swap1\n      swap4\n      pop\n      jump\t// out\n        /* \"#utility.yul\":12314:12643   */\n    tag_60:\n        /* \"#utility.yul\":12373:12379   */\n      0x00\n        /* \"#utility.yul\":12422:12424   */\n      0x20\n        /* \"#utility.yul\":12410:12419   */\n      dup3\n        /* \"#utility.yul\":12401:12408   */\n      dup5\n        /* \"#utility.yul\":12397:12420   */\n      sub\n        /* \"#utility.yul\":12393:12425   */\n      slt\n        /* \"#utility.yul\":12390:12509   */\n      iszero\n      tag_556\n      jumpi\n        /* \"#utility.yul\":12428:12507   */\n      tag_557\n      tag_348\n      jump\t// in\n    tag_557:\n        /* \"#utility.yul\":12390:12509   */\n    tag_556:\n        /* \"#utility.yul\":12548:12549   */\n      0x00\n        /* \"#utility.yul\":12573:12626   */\n      tag_558\n        /* \"#utility.yul\":12618:12625   */\n      dup5\n        /* \"#utility.yul\":12609:12615   */\n      dup3\n        /* \"#utility.yul\":12598:12607   */\n      dup6\n        /* \"#utility.yul\":12594:12616   */\n      add\n        /* \"#utility.yul\":12573:12626   */\n      tag_363\n      jump\t// in\n    tag_558:\n        /* \"#utility.yul\":12563:12626   */\n      swap2\n      pop\n        /* \"#utility.yul\":12519:12636   */\n      pop\n        /* \"#utility.yul\":12314:12643   */\n      swap3\n      swap2\n      pop\n      pop\n      jump\t// out\n        /* \"#utility.yul\":12649:12871   */\n    tag_72:\n        /* \"#utility.yul\":12742:12746   */\n      0x00\n        /* \"#utility.yul\":12780:12782   */\n      0x20\n        /* \"#utility.yul\":12769:12778   */\n      dup3\n        /* \"#utility.yul\":12765:12783   */\n      add\n        /* \"#utility.yul\":12757:12783   */\n      swap1\n      pop\n        /* \"#utility.yul\":12793:12864   */\n      tag_560\n        /* \"#utility.yul\":12861:12862   */\n      0x00\n        /* \"#utility.yul\":12850:12859   */\n      dup4\n        /* \"#utility.yul\":12846:12863   */\n      add\n        /* \"#utility.yul\":12837:12843   */\n      dup5\n        /* \"#utility.yul\":12793:12864   */\n      tag_353\n      jump\t// in\n    tag_560:\n        /* \"#utility.yul\":12649:12871   */\n      swap3\n      swap2\n      pop\n      pop\n      jump\t// out\n        /* \"#utility.yul\":12877:13045   */\n    tag_381:\n        /* \"#utility.yul\":12969:12978   */\n      0x00\n        /* \"#utility.yul\":13002:13039   */\n      tag_562\n        /* \"#utility.yul\":13033:13038   */\n      dup3\n        /* \"#utility.yul\":13002:13039   */\n      tag_344\n      jump\t// in\n    tag_562:\n        /* \"#utility.yul\":12989:13039   */\n      swap1\n      pop\n        /* \"#utility.yul\":12877:13045   */\n      swap2\n      swap1\n      pop\n      jump\t// out\n        /* \"#utility.yul\":13051:13266   */\n    tag_382:\n        /* \"#utility.yul\":13180:13259   */\n      tag_564\n        /* \"#utility.yul\":13253:13258   */\n      dup2\n        /* \"#utility.yul\":13180:13259   */\n      tag_381\n      jump\t// in\n    tag_564:\n        /* \"#utility.yul\":13175:13178   */\n      dup3\n        /* \"#utility.yul\":13168:13260   */\n      mstore\n        /* \"#utility.yul\":13051:13266   */\n      pop\n      pop\n      jump\t// out\n        /* \"#utility.yul\":13272:13578   */\n    tag_76:\n        /* \"#utility.yul\":13407:13411   */\n      0x00\n        /* \"#utility.yul\":13445:13447   */\n      0x20\n        /* \"#utility.yul\":13434:13443   */\n      dup3\n        /* \"#utility.yul\":13430:13448   */\n      add\n        /* \"#utility.yul\":13422:13448   */\n      swap1\n      pop\n        /* \"#utility.yul\":13458:13571   */\n      tag_566\n        /* \"#utility.yul\":13568:13569   */\n      0x00\n        /* \"#utility.yul\":13557:13566   */\n      dup4\n        /* \"#utility.yul\":13553:13570   */\n      add\n        /* \"#utility.yul\":13544:13550   */\n      dup5\n        /* \"#utility.yul\":13458:13571   */\n      tag_382\n      jump\t// in\n    tag_566:\n        /* \"#utility.yul\":13272:13578   */\n      swap3\n      swap2\n      pop\n      pop\n      jump\t// out\n        /* \"#utility.yul\":13584:13899   */\n    tag_81:\n        /* \"#utility.yul\":13723:13727   */\n      0x00\n        /* \"#utility.yul\":13761:13764   */\n      0xa0\n        /* \"#utility.yul\":13750:13759   */\n      dup3\n        /* \"#utility.yul\":13746:13765   */\n      add\n        /* \"#utility.yul\":13738:13765   */\n      swap1\n      pop\n        /* \"#utility.yul\":13775:13892   */\n      tag_568\n        /* \"#utility.yul\":13889:13890   */\n      0x00\n        /* \"#utility.yul\":13878:13887   */\n      dup4\n        /* \"#utility.yul\":13874:13891   */\n      add\n        /* \"#utility.yul\":13865:13871   */\n      dup5\n        /* \"#utility.yul\":13775:13892   */\n      tag_361\n      jump\t// in\n    tag_568:\n        /* \"#utility.yul\":13584:13899   */\n      swap3\n      swap2\n      pop\n      pop\n      jump\t// out\n        /* \"#utility.yul\":13905:14074   */\n    tag_383:\n        /* \"#utility.yul\":13989:14000   */\n      0x00\n        /* \"#utility.yul\":14023:14029   */\n      dup3\n        /* \"#utility.yul\":14018:14021   */\n      dup3\n        /* \"#utility.yul\":14011:14030   */\n      mstore\n        /* \"#utility.yul\":14063:14067   */\n      0x20\n        /* \"#utility.yul\":14058:14061   */\n      dup3\n        /* \"#utility.yul\":14054:14068   */\n      add\n        /* \"#utility.yul\":14039:14068   */\n      swap1\n      pop\n        /* \"#utility.yul\":13905:14074   */\n      swap3\n      swap2\n      pop\n      pop\n      jump\t// out\n        /* \"#utility.yul\":14080:14257   */\n    tag_384:\n        /* \"#utility.yul\":14220:14249   */\n      0x436f6d6d756e697479206d7573742068617665206d656d626572730000000000\n        /* \"#utility.yul\":14216:14217   */\n      0x00\n        /* \"#utility.yul\":14208:14214   */\n      dup3\n        /* \"#utility.yul\":14204:14218   */\n      add\n        /* \"#utility.yul\":14197:14250   */\n      mstore\n        /* \"#utility.yul\":14080:14257   */\n      pop\n      jump\t// out\n        /* \"#utility.yul\":14263:14629   */\n    tag_385:\n        /* \"#utility.yul\":14405:14408   */\n      0x00\n        /* \"#utility.yul\":14426:14493   */\n      tag_572\n        /* \"#utility.yul\":14490:14492   */\n      0x1b\n        /* \"#utility.yul\":14485:14488   */\n      dup4\n        /* \"#utility.yul\":14426:14493   */\n      tag_383\n      jump\t// in\n    tag_572:\n        /* \"#utility.yul\":14419:14493   */\n      swap2\n      pop\n        /* \"#utility.yul\":14502:14595   */\n      tag_573\n        /* \"#utility.yul\":14591:14594   */\n      dup3\n        /* \"#utility.yul\":14502:14595   */\n      tag_384\n      jump\t// in\n    tag_573:\n        /* \"#utility.yul\":14620:14622   */\n      0x20\n        /* \"#utility.yul\":14615:14618   */\n      dup3\n        /* \"#utility.yul\":14611:14623   */\n      add\n        /* \"#utility.yul\":14604:14623   */\n      swap1\n      pop\n        /* \"#utility.yul\":14263:14629   */\n      swap2\n      swap1\n      pop\n      jump\t// out\n        /* \"#utility.yul\":14635:15054   */\n    tag_97:\n        /* \"#utility.yul\":14801:14805   */\n      0x00\n        /* \"#utility.yul\":14839:14841   */\n      0x20\n        /* \"#utility.yul\":14828:14837   */\n      dup3\n        /* \"#utility.yul\":14824:14842   */\n      add\n        /* \"#utility.yul\":14816:14842   */\n      swap1\n      pop\n        /* \"#utility.yul\":14888:14897   */\n      dup2\n        /* \"#utility.yul\":14882:14886   */\n      dup2\n        /* \"#utility.yul\":14878:14898   */\n      sub\n        /* \"#utility.yul\":14874:14875   */\n      0x00\n        /* \"#utility.yul\":14863:14872   */\n      dup4\n        /* \"#utility.yul\":14859:14876   */\n      add\n        /* \"#utility.yul\":14852:14899   */\n      mstore\n        /* \"#utility.yul\":14916:15047   */\n      tag_575\n        /* \"#utility.yul\":15042:15046   */\n      dup2\n        /* \"#utility.yul\":14916:15047   */\n      tag_385\n      jump\t// in\n    tag_575:\n        /* \"#utility.yul\":14908:15047   */\n      swap1\n      pop\n        /* \"#utility.yul\":14635:15054   */\n      swap2\n      swap1\n      pop\n      jump\t// out\n        /* \"#utility.yul\":15060:15240   */\n    tag_386:\n        /* \"#utility.yul\":15200:15232   */\n      0x436f6e747269627574696f6e7320636f6e7472616374206e6f74207365740000\n        /* \"#utility.yul\":15196:15197   */\n      0x00\n        /* \"#utility.yul\":15188:15194   */\n      dup3\n        /* \"#utility.yul\":15184:15198   */\n      add\n        /* \"#utility.yul\":15177:15233   */\n      mstore\n        /* \"#utility.yul\":15060:15240   */\n      pop\n      jump\t// out\n        /* \"#utility.yul\":15246:15612   */\n    tag_387:\n        /* \"#utility.yul\":15388:15391   */\n      0x00\n        /* \"#utility.yul\":15409:15476   */\n      tag_578\n        /* \"#utility.yul\":15473:15475   */\n      0x1e\n        /* \"#utility.yul\":15468:15471   */\n      dup4\n        /* \"#utility.yul\":15409:15476   */\n      tag_383\n      jump\t// in\n    tag_578:\n        /* \"#utility.yul\":15402:15476   */\n      swap2\n      pop\n        /* \"#utility.yul\":15485:15578   */\n      tag_579\n        /* \"#utility.yul\":15574:15577   */\n      dup3\n        /* \"#utility.yul\":15485:15578   */\n      tag_386\n      jump\t// in\n    tag_579:\n        /* \"#utility.yul\":15603:15605   */\n      0x20\n        /* \"#utility.yul\":15598:15601   */\n      dup3\n        /* \"#utility.yul\":15594:15606   */\n      add\n        /* \"#utility.yul\":15587:15606   */\n      swap1\n      pop\n        /* \"#utility.yul\":15246:15612   */\n      swap2\n      swap1\n      pop\n      jump\t// out\n        /* \"#utility.yul\":15618:16037   */\n    tag_100:\n        /* \"#utility.yul\":15784:15788   */\n      0x00\n        /* \"#utility.yul\":15822:15824   */\n      0x20\n        /* \"#utility.yul\":15811:15820   */\n      dup3\n        /* \"#utility.yul\":15807:15825   */\n      add\n        /* \"#utility.yul\":15799:15825   */\n      swap1\n      pop\n        /* \"#utility.yul\":15871:15880   */\n      dup2\n        /* \"#utility.yul\":15865:15869   */\n      dup2\n        /* \"#utility.yul\":15861:15881   */\n      sub\n        /* \"#utility.yul\":15857:15858   */\n      0x00\n        /* \"#utility.yul\":15846:15855   */\n      dup4\n        /* \"#utility.yul\":15842:15859   */\n      add\n        /* \"#utility.yul\":15835:15882   */\n      mstore\n        /* \"#utility.yul\":15899:16030   */\n      tag_581\n        /* \"#utility.yul\":16025:16029   */\n      dup2\n        /* \"#utility.yul\":15899:16030   */\n      tag_387\n      jump\t// in\n    tag_581:\n        /* \"#utility.yul\":15891:16030   */\n      swap1\n      pop\n        /* \"#utility.yul\":15618:16037   */\n      swap2\n      swap1\n      pop\n      jump\t// out\n        /* \"#utility.yul\":16043:16223   */\n    tag_110:\n        /* \"#utility.yul\":16091:16168   */\n      0x4e487b7100000000000000000000000000000000000000000000000000000000\n        /* \"#utility.yul\":16088:16089   */\n      0x00\n        /* \"#utility.yul\":16081:16169   */\n      mstore\n        /* \"#utility.yul\":16188:16192   */\n      0x32\n        /* \"#utility.yul\":16185:16186   */\n      0x04\n        /* \"#utility.yul\":16178:16193   */\n      mstore\n        /* \"#utility.yul\":16212:16216   */\n      0x24\n        /* \"#utility.yul\":16209:16210   */\n      0x00\n        /* \"#utility.yul\":16202:16217   */\n      revert\n        /* \"#utility.yul\":16229:16561   */\n    tag_112:\n        /* \"#utility.yul\":16350:16354   */\n      0x00\n        /* \"#utility.yul\":16388:16390   */\n      0x40\n        /* \"#utility.yul\":16377:16386   */\n      dup3\n        /* \"#utility.yul\":16373:16391   */\n      add\n        /* \"#utility.yul\":16365:16391   */\n      swap1\n      pop\n        /* \"#utility.yul\":16401:16472   */\n      tag_584\n        /* \"#utility.yul\":16469:16470   */\n      0x00\n        /* \"#utility.yul\":16458:16467   */\n      dup4\n        /* \"#utility.yul\":16454:16471   */\n      add\n        /* \"#utility.yul\":16445:16451   */\n      dup6\n        /* \"#utility.yul\":16401:16472   */\n      tag_374\n      jump\t// in\n    tag_584:\n        /* \"#utility.yul\":16482:16554   */\n      tag_585\n        /* \"#utility.yul\":16550:16552   */\n      0x20\n        /* \"#utility.yul\":16539:16548   */\n      dup4\n        /* \"#utility.yul\":16535:16553   */\n      add\n        /* \"#utility.yul\":16526:16532   */\n      dup5\n        /* \"#utility.yul\":16482:16554   */\n      tag_353\n      jump\t// in\n    tag_585:\n        /* \"#utility.yul\":16229:16561   */\n      swap4\n      swap3\n      pop\n      pop\n      pop\n      jump\t// out\n        /* \"#utility.yul\":16567:16710   */\n    tag_388:\n        /* \"#utility.yul\":16624:16629   */\n      0x00\n        /* \"#utility.yul\":16655:16661   */\n      dup2\n        /* \"#utility.yul\":16649:16662   */\n      mload\n        /* \"#utility.yul\":16640:16662   */\n      swap1\n      pop\n        /* \"#utility.yul\":16671:16704   */\n      tag_587\n        /* \"#utility.yul\":16698:16703   */\n      dup2\n        /* \"#utility.yul\":16671:16704   */\n      tag_351\n      jump\t// in\n    tag_587:\n        /* \"#utility.yul\":16567:16710   */\n      swap3\n      swap2\n      pop\n      pop\n      jump\t// out\n        /* \"#utility.yul\":16716:17067   */\n    tag_115:\n        /* \"#utility.yul\":16786:16792   */\n      0x00\n        /* \"#utility.yul\":16835:16837   */\n      0x20\n        /* \"#utility.yul\":16823:16832   */\n      dup3\n        /* \"#utility.yul\":16814:16821   */\n      dup5\n        /* \"#utility.yul\":16810:16833   */\n      sub\n        /* \"#utility.yul\":16806:16838   */\n      slt\n        /* \"#utility.yul\":16803:16922   */\n      iszero\n      tag_589\n      jumpi\n        /* \"#utility.yul\":16841:16920   */\n      tag_590\n      tag_348\n      jump\t// in\n    tag_590:\n        /* \"#utility.yul\":16803:16922   */\n    tag_589:\n        /* \"#utility.yul\":16961:16962   */\n      0x00\n        /* \"#utility.yul\":16986:17050   */\n      tag_591\n        /* \"#utility.yul\":17042:17049   */\n      dup5\n        /* \"#utility.yul\":17033:17039   */\n      dup3\n        /* \"#utility.yul\":17022:17031   */\n      dup6\n        /* \"#utility.yul\":17018:17040   */\n      add\n        /* \"#utility.yul\":16986:17050   */\n      tag_388\n      jump\t// in\n    tag_591:\n        /* \"#utility.yul\":16976:17050   */\n      swap2\n      pop\n        /* \"#utility.yul\":16932:17060   */\n      pop\n        /* \"#utility.yul\":16716:17067   */\n      swap3\n      swap2\n      pop\n      pop\n      jump\t// out\n        /* \"#utility.yul\":17073:17253   */\n    tag_389:\n        /* \"#utility.yul\":17121:17198   */\n      0x4e487b7100000000000000000000000000000000000000000000000000000000\n        /* \"#utility.yul\":17118:17119   */\n      0x00\n        /* \"#utility.yul\":17111:17199   */\n      mstore\n        /* \"#utility.yul\":17218:17222   */\n      0x11\n        /* \"#utility.yul\":17215:17216   */\n      0x04\n        /* \"#utility.yul\":17208:17223   */\n      mstore\n        /* \"#utility.yul\":17242:17246   */\n      0x24\n        /* \"#utility.yul\":17239:17240   */\n      0x00\n        /* \"#utility.yul\":17232:17247   */\n      revert\n        /* \"#utility.yul\":17259:17450   */\n    tag_135:\n        /* \"#utility.yul\":17299:17302   */\n      0x00\n        /* \"#utility.yul\":17318:17338   */\n      tag_594\n        /* \"#utility.yul\":17336:17337   */\n      dup3\n        /* \"#utility.yul\":17318:17338   */\n      tag_350\n      jump\t// in\n    tag_594:\n        /* \"#utility.yul\":17313:17338   */\n      swap2\n      pop\n        /* \"#utility.yul\":17352:17372   */\n      tag_595\n        /* \"#utility.yul\":17370:17371   */\n      dup4\n        /* \"#utility.yul\":17352:17372   */\n      tag_350\n      jump\t// in\n    tag_595:\n        /* \"#utility.yul\":17347:17372   */\n      swap3\n      pop\n        /* \"#utility.yul\":17395:17396   */\n      dup3\n        /* \"#utility.yul\":17392:17393   */\n      dup3\n        /* \"#utility.yul\":17388:17397   */\n      add\n        /* \"#utility.yul\":17381:17397   */\n      swap1\n      pop\n        /* \"#utility.yul\":17416:17419   */\n      dup1\n        /* \"#utility.yul\":17413:17414   */\n      dup3\n        /* \"#utility.yul\":17410:17420   */\n      gt\n        /* \"#utility.yul\":17407:17443   */\n      iszero\n      tag_596\n      jumpi\n        /* \"#utility.yul\":17423:17441   */\n      tag_597\n      tag_389\n      jump\t// in\n    tag_597:\n        /* \"#utility.yul\":17407:17443   */\n    tag_596:\n        /* \"#utility.yul\":17259:17450   */\n      swap3\n      swap2\n      pop\n      pop\n      jump\t// out\n        /* \"#utility.yul\":17456:17632   */\n    tag_390:\n        /* \"#utility.yul\":17596:17624   */\n      0x50726f706f73616c20494420616c726561647920657869737473000000000000\n        /* \"#utility.yul\":17592:17593   */\n      0x00\n        /* \"#utility.yul\":17584:17590   */\n      dup3\n        /* \"#utility.yul\":17580:17594   */\n      add\n        /* \"#utility.yul\":17573:17625   */\n      mstore\n        /* \"#utility.yul\":17456:17632   */\n      pop\n      jump\t// out\n        /* \"#utility.yul\":17638:18004   */\n    tag_391:\n        /* \"#utility.yul\":17780:17783   */\n      0x00\n        /* \"#utility.yul\":17801:17868   */\n      tag_600\n        /* \"#utility.yul\":17865:17867   */\n      0x1a\n        /* \"#utility.yul\":17860:17863   */\n      dup4\n        /* \"#utility.yul\":17801:17868   */\n      tag_383\n      jump\t// in\n    tag_600:\n        /* \"#utility.yul\":17794:17868   */\n      swap2\n      pop\n        /* \"#utility.yul\":17877:17970   */\n      tag_601\n        /* \"#utility.yul\":17966:17969   */\n      dup3\n        /* \"#utility.yul\":17877:17970   */\n      tag_390\n      jump\t// in\n    tag_601:\n        /* \"#utility.yul\":17995:17997   */\n      0x20\n        /* \"#utility.yul\":17990:17993   */\n      dup3\n        /* \"#utility.yul\":17986:17998   */\n      add\n        /* \"#utility.yul\":17979:17998   */\n      swap1\n      pop\n        /* \"#utility.yul\":17638:18004   */\n      swap2\n      swap1\n      pop\n      jump\t// out\n        /* \"#utility.yul\":18010:18429   */\n    tag_183:\n        /* \"#utility.yul\":18176:18180   */\n      0x00\n        /* \"#utility.yul\":18214:18216   */\n      0x20\n        /* \"#utility.yul\":18203:18212   */\n      dup3\n        /* \"#utility.yul\":18199:18217   */\n      add\n        /* \"#utility.yul\":18191:18217   */\n      swap1\n      pop\n        /* \"#utility.yul\":18263:18272   */\n      dup2\n        /* \"#utility.yul\":18257:18261   */\n      dup2\n        /* \"#utility.yul\":18253:18273   */\n      sub\n        /* \"#utility.yul\":18249:18250   */\n      0x00\n        /* \"#utility.yul\":18238:18247   */\n      dup4\n        /* \"#utility.yul\":18234:18251   */\n      add\n        /* \"#utility.yul\":18227:18274   */\n      mstore\n        /* \"#utility.yul\":18291:18422   */\n      tag_603\n        /* \"#utility.yul\":18417:18421   */\n      dup2\n        /* \"#utility.yul\":18291:18422   */\n      tag_391\n      jump\t// in\n    tag_603:\n        /* \"#utility.yul\":18283:18422   */\n      swap1\n      pop\n        /* \"#utility.yul\":18010:18429   */\n      swap2\n      swap1\n      pop\n      jump\t// out\n        /* \"#utility.yul\":18435:18685   */\n    tag_188:\n        /* \"#utility.yul\":18542:18546   */\n      0x00\n        /* \"#utility.yul\":18580:18582   */\n      0x20\n        /* \"#utility.yul\":18569:18578   */\n      dup3\n        /* \"#utility.yul\":18565:18583   */\n      add\n        /* \"#utility.yul\":18557:18583   */\n      swap1\n      pop\n        /* \"#utility.yul\":18593:18678   */\n      tag_605\n        /* \"#utility.yul\":18675:18676   */\n      0x00\n        /* \"#utility.yul\":18664:18673   */\n      dup4\n        /* \"#utility.yul\":18660:18677   */\n      add\n        /* \"#utility.yul\":18651:18657   */\n      dup5\n        /* \"#utility.yul\":18593:18678   */\n      tag_378\n      jump\t// in\n    tag_605:\n        /* \"#utility.yul\":18435:18685   */\n      swap3\n      swap2\n      pop\n      pop\n      jump\t// out\n        /* \"#utility.yul\":18691:18776   */\n    tag_392:\n        /* \"#utility.yul\":18736:18743   */\n      0x00\n        /* \"#utility.yul\":18765:18770   */\n      dup2\n        /* \"#utility.yul\":18754:18770   */\n      swap1\n      pop\n        /* \"#utility.yul\":18691:18776   */\n      swap2\n      swap1\n      pop\n      jump\t// out\n        /* \"#utility.yul\":18782:18883   */\n    tag_393:\n        /* \"#utility.yul\":18818:18825   */\n      0x00\n        /* \"#utility.yul\":18858:18876   */\n      0xffffffffffffffff\n        /* \"#utility.yul\":18851:18856   */\n      dup3\n        /* \"#utility.yul\":18847:18877   */\n      and\n        /* \"#utility.yul\":18836:18877   */\n      swap1\n      pop\n        /* \"#utility.yul\":18782:18883   */\n      swap2\n      swap1\n      pop\n      jump\t// out\n        /* \"#utility.yul\":18889:19045   */\n    tag_394:\n        /* \"#utility.yul\":18946:18955   */\n      0x00\n        /* \"#utility.yul\":18979:19039   */\n      tag_609\n        /* \"#utility.yul\":18996:19038   */\n      tag_610\n        /* \"#utility.yul\":19005:19037   */\n      tag_611\n        /* \"#utility.yul\":19031:19036   */\n      dup5\n        /* \"#utility.yul\":19005:19037   */\n      tag_392\n      jump\t// in\n    tag_611:\n        /* \"#utility.yul\":18996:19038   */\n      tag_342\n      jump\t// in\n    tag_610:\n        /* \"#utility.yul\":18979:19039   */\n      tag_393\n      jump\t// in\n    tag_609:\n        /* \"#utility.yul\":18966:19039   */\n      swap1\n      pop\n        /* \"#utility.yul\":18889:19045   */\n      swap2\n      swap1\n      pop\n      jump\t// out\n        /* \"#utility.yul\":19051:19196   */\n    tag_395:\n        /* \"#utility.yul\":19145:19189   */\n      tag_613\n        /* \"#utility.yul\":19183:19188   */\n      dup2\n        /* \"#utility.yul\":19145:19189   */\n      tag_394\n      jump\t// in\n    tag_613:\n        /* \"#utility.yul\":19140:19143   */\n      dup3\n        /* \"#utility.yul\":19133:19190   */\n      mstore\n        /* \"#utility.yul\":19051:19196   */\n      pop\n      pop\n      jump\t// out\n        /* \"#utility.yul\":19202:19438   */\n    tag_202:\n        /* \"#utility.yul\":19302:19306   */\n      0x00\n        /* \"#utility.yul\":19340:19342   */\n      0x20\n        /* \"#utility.yul\":19329:19338   */\n      dup3\n        /* \"#utility.yul\":19325:19343   */\n      add\n        /* \"#utility.yul\":19317:19343   */\n      swap1\n      pop\n        /* \"#utility.yul\":19353:19431   */\n      tag_615\n        /* \"#utility.yul\":19428:19429   */\n      0x00\n        /* \"#utility.yul\":19417:19426   */\n      dup4\n        /* \"#utility.yul\":19413:19430   */\n      add\n        /* \"#utility.yul\":19404:19410   */\n      dup5\n        /* \"#utility.yul\":19353:19431   */\n      tag_395\n      jump\t// in\n    tag_615:\n        /* \"#utility.yul\":19202:19438   */\n      swap3\n      swap2\n      pop\n      pop\n      jump\t// out\n        /* \"#utility.yul\":19444:19608   */\n    tag_396:\n        /* \"#utility.yul\":19584:19600   */\n      0x4e6f7420617574686f72697a6564000000000000000000000000000000000000\n        /* \"#utility.yul\":19580:19581   */\n      0x00\n        /* \"#utility.yul\":19572:19578   */\n      dup3\n        /* \"#utility.yul\":19568:19582   */\n      add\n        /* \"#utility.yul\":19561:19601   */\n      mstore\n        /* \"#utility.yul\":19444:19608   */\n      pop\n      jump\t// out\n        /* \"#utility.yul\":19614:19980   */\n    tag_397:\n        /* \"#utility.yul\":19756:19759   */\n      0x00\n        /* \"#utility.yul\":19777:19844   */\n      tag_618\n        /* \"#utility.yul\":19841:19843   */\n      0x0e\n        /* \"#utility.yul\":19836:19839   */\n      dup4\n        /* \"#utility.yul\":19777:19844   */\n      tag_383\n      jump\t// in\n    tag_618:\n        /* \"#utility.yul\":19770:19844   */\n      swap2\n      pop\n        /* \"#utility.yul\":19853:19946   */\n      tag_619\n        /* \"#utility.yul\":19942:19945   */\n      dup3\n        /* \"#utility.yul\":19853:19946   */\n      tag_396\n      jump\t// in\n    tag_619:\n        /* \"#utility.yul\":19971:19973   */\n      0x20\n        /* \"#utility.yul\":19966:19969   */\n      dup3\n        /* \"#utility.yul\":19962:19974   */\n      add\n        /* \"#utility.yul\":19955:19974   */\n      swap1\n      pop\n        /* \"#utility.yul\":19614:19980   */\n      swap2\n      swap1\n      pop\n      jump\t// out\n        /* \"#utility.yul\":19986:20405   */\n    tag_227:\n        /* \"#utility.yul\":20152:20156   */\n      0x00\n        /* \"#utility.yul\":20190:20192   */\n      0x20\n        /* \"#utility.yul\":20179:20188   */\n      dup3\n        /* \"#utility.yul\":20175:20193   */\n      add\n        /* \"#utility.yul\":20167:20193   */\n      swap1\n      pop\n        /* \"#utility.yul\":20239:20248   */\n      dup2\n        /* \"#utility.yul\":20233:20237   */\n      dup2\n        /* \"#utility.yul\":20229:20249   */\n      sub\n        /* \"#utility.yul\":20225:20226   */\n      0x00\n        /* \"#utility.yul\":20214:20223   */\n      dup4\n        /* \"#utility.yul\":20210:20227   */\n      add\n        /* \"#utility.yul\":20203:20250   */\n      mstore\n        /* \"#utility.yul\":20267:20398   */\n      tag_621\n        /* \"#utility.yul\":20393:20397   */\n      dup2\n        /* \"#utility.yul\":20267:20398   */\n      tag_397\n      jump\t// in\n    tag_621:\n        /* \"#utility.yul\":20259:20398   */\n      swap1\n      pop\n        /* \"#utility.yul\":19986:20405   */\n      swap2\n      swap1\n      pop\n      jump\t// out\n        /* \"#utility.yul\":20411:20584   */\n    tag_398:\n        /* \"#utility.yul\":20551:20576   */\n      0x50726f706f73616c20646f6573206e6f74206578697374000000000000000000\n        /* \"#utility.yul\":20547:20548   */\n      0x00\n        /* \"#utility.yul\":20539:20545   */\n      dup3\n        /* \"#utility.yul\":20535:20549   */\n      add\n        /* \"#utility.yul\":20528:20577   */\n      mstore\n        /* \"#utility.yul\":20411:20584   */\n      pop\n      jump\t// out\n        /* \"#utility.yul\":20590:20956   */\n    tag_399:\n        /* \"#utility.yul\":20732:20735   */\n      0x00\n        /* \"#utility.yul\":20753:20820   */\n      tag_624\n        /* \"#utility.yul\":20817:20819   */\n      0x17\n        /* \"#utility.yul\":20812:20815   */\n      dup4\n        /* \"#utility.yul\":20753:20820   */\n      tag_383\n      jump\t// in\n    tag_624:\n        /* \"#utility.yul\":20746:20820   */\n      swap2\n      pop\n        /* \"#utility.yul\":20829:20922   */\n      tag_625\n        /* \"#utility.yul\":20918:20921   */\n      dup3\n        /* \"#utility.yul\":20829:20922   */\n      tag_398\n      jump\t// in\n    tag_625:\n        /* \"#utility.yul\":20947:20949   */\n      0x20\n        /* \"#utility.yul\":20942:20945   */\n      dup3\n        /* \"#utility.yul\":20938:20950   */\n      add\n        /* \"#utility.yul\":20931:20950   */\n      swap1\n      pop\n        /* \"#utility.yul\":20590:20956   */\n      swap2\n      swap1\n      pop\n      jump\t// out\n        /* \"#utility.yul\":20962:21381   */\n    tag_230:\n        /* \"#utility.yul\":21128:21132   */\n      0x00\n        /* \"#utility.yul\":21166:21168   */\n      0x20\n        /* \"#utility.yul\":21155:21164   */\n      dup3\n        /* \"#utility.yul\":21151:21169   */\n      add\n        /* \"#utility.yul\":21143:21169   */\n      swap1\n      pop\n        /* \"#utility.yul\":21215:21224   */\n      dup2\n        /* \"#utility.yul\":21209:21213   */\n      dup2\n        /* \"#utility.yul\":21205:21225   */\n      sub\n        /* \"#utility.yul\":21201:21202   */\n      0x00\n        /* \"#utility.yul\":21190:21199   */\n      dup4\n        /* \"#utility.yul\":21186:21203   */\n      add\n        /* \"#utility.yul\":21179:21226   */\n      mstore\n        /* \"#utility.yul\":21243:21374   */\n      tag_627\n        /* \"#utility.yul\":21369:21373   */\n      dup2\n        /* \"#utility.yul\":21243:21374   */\n      tag_399\n      jump\t// in\n    tag_627:\n        /* \"#utility.yul\":21235:21374   */\n      swap1\n      pop\n        /* \"#utility.yul\":20962:21381   */\n      swap2\n      swap1\n      pop\n      jump\t// out\n        /* \"#utility.yul\":21387:21562   */\n    tag_400:\n        /* \"#utility.yul\":21527:21554   */\n      0x50726f706f73616c20616c726561647920657865637574656400000000000000\n        /* \"#utility.yul\":21523:21524   */\n      0x00\n        /* \"#utility.yul\":21515:21521   */\n      dup3\n        /* \"#utility.yul\":21511:21525   */\n      add\n        /* \"#utility.yul\":21504:21555   */\n      mstore\n        /* \"#utility.yul\":21387:21562   */\n      pop\n      jump\t// out\n        /* \"#utility.yul\":21568:21934   */\n    tag_401:\n        /* \"#utility.yul\":21710:21713   */\n      0x00\n        /* \"#utility.yul\":21731:21798   */\n      tag_630\n        /* \"#utility.yul\":21795:21797   */\n      0x19\n        /* \"#utility.yul\":21790:21793   */\n      dup4\n        /* \"#utility.yul\":21731:21798   */\n      tag_383\n      jump\t// in\n    tag_630:\n        /* \"#utility.yul\":21724:21798   */\n      swap2\n      pop\n        /* \"#utility.yul\":21807:21900   */\n      tag_631\n        /* \"#utility.yul\":21896:21899   */\n      dup3\n        /* \"#utility.yul\":21807:21900   */\n      tag_400\n      jump\t// in\n    tag_631:\n        /* \"#utility.yul\":21925:21927   */\n      0x20\n        /* \"#utility.yul\":21920:21923   */\n      dup3\n        /* \"#utility.yul\":21916:21928   */\n      add\n        /* \"#utility.yul\":21909:21928   */\n      swap1\n      pop\n        /* \"#utility.yul\":21568:21934   */\n      swap2\n      swap1\n      pop\n      jump\t// out\n        /* \"#utility.yul\":21940:22359   */\n    tag_233:\n        /* \"#utility.yul\":22106:22110   */\n      0x00\n        /* \"#utility.yul\":22144:22146   */\n      0x20\n        /* \"#utility.yul\":22133:22142   */\n      dup3\n        /* \"#utility.yul\":22129:22147   */\n      add\n        /* \"#utility.yul\":22121:22147   */\n      swap1\n      pop\n        /* \"#utility.yul\":22193:22202   */\n      dup2\n        /* \"#utility.yul\":22187:22191   */\n      dup2\n        /* \"#utility.yul\":22183:22203   */\n      sub\n        /* \"#utility.yul\":22179:22180   */\n      0x00\n        /* \"#utility.yul\":22168:22177   */\n      dup4\n        /* \"#utility.yul\":22164:22181   */\n      add\n        /* \"#utility.yul\":22157:22204   */\n      mstore\n        /* \"#utility.yul\":22221:22352   */\n      tag_633\n        /* \"#utility.yul\":22347:22351   */\n      dup2\n        /* \"#utility.yul\":22221:22352   */\n      tag_401\n      jump\t// in\n    tag_633:\n        /* \"#utility.yul\":22213:22352   */\n      swap1\n      pop\n        /* \"#utility.yul\":21940:22359   */\n      swap2\n      swap1\n      pop\n      jump\t// out\n        /* \"#utility.yul\":22365:22529   */\n    tag_402:\n        /* \"#utility.yul\":22505:22521   */\n      0x416c7265616479207369676e6564000000000000000000000000000000000000\n        /* \"#utility.yul\":22501:22502   */\n      0x00\n        /* \"#utility.yul\":22493:22499   */\n      dup3\n        /* \"#utility.yul\":22489:22503   */\n      add\n        /* \"#utility.yul\":22482:22522   */\n      mstore\n        /* \"#utility.yul\":22365:22529   */\n      pop\n      jump\t// out\n        /* \"#utility.yul\":22535:22901   */\n    tag_403:\n        /* \"#utility.yul\":22677:22680   */\n      0x00\n        /* \"#utility.yul\":22698:22765   */\n      tag_636\n        /* \"#utility.yul\":22762:22764   */\n      0x0e\n        /* \"#utility.yul\":22757:22760   */\n      dup4\n        /* \"#utility.yul\":22698:22765   */\n      tag_383\n      jump\t// in\n    tag_636:\n        /* \"#utility.yul\":22691:22765   */\n      swap2\n      pop\n        /* \"#utility.yul\":22774:22867   */\n      tag_637\n        /* \"#utility.yul\":22863:22866   */\n      dup3\n        /* \"#utility.yul\":22774:22867   */\n      tag_402\n      jump\t// in\n    tag_637:\n        /* \"#utility.yul\":22892:22894   */\n      0x20\n        /* \"#utility.yul\":22887:22890   */\n      dup3\n        /* \"#utility.yul\":22883:22895   */\n      add\n        /* \"#utility.yul\":22876:22895   */\n      swap1\n      pop\n        /* \"#utility.yul\":22535:22901   */\n      swap2\n      swap1\n      pop\n      jump\t// out\n        /* \"#utility.yul\":22907:23326   */\n    tag_236:\n        /* \"#utility.yul\":23073:23077   */\n      0x00\n        /* \"#utility.yul\":23111:23113   */\n      0x20\n        /* \"#utility.yul\":23100:23109   */\n      dup3\n        /* \"#utility.yul\":23096:23114   */\n      add\n        /* \"#utility.yul\":23088:23114   */\n      swap1\n      pop\n        /* \"#utility.yul\":23160:23169   */\n      dup2\n        /* \"#utility.yul\":23154:23158   */\n      dup2\n        /* \"#utility.yul\":23150:23170   */\n      sub\n        /* \"#utility.yul\":23146:23147   */\n      0x00\n        /* \"#utility.yul\":23135:23144   */\n      dup4\n        /* \"#utility.yul\":23131:23148   */\n      add\n        /* \"#utility.yul\":23124:23171   */\n      mstore\n        /* \"#utility.yul\":23188:23319   */\n      tag_639\n        /* \"#utility.yul\":23314:23318   */\n      dup2\n        /* \"#utility.yul\":23188:23319   */\n      tag_403\n      jump\t// in\n    tag_639:\n        /* \"#utility.yul\":23180:23319   */\n      swap1\n      pop\n        /* \"#utility.yul\":22907:23326   */\n      swap2\n      swap1\n      pop\n      jump\t// out\n        /* \"#utility.yul\":23332:23565   */\n    tag_238:\n        /* \"#utility.yul\":23371:23374   */\n      0x00\n        /* \"#utility.yul\":23394:23418   */\n      tag_641\n        /* \"#utility.yul\":23412:23417   */\n      dup3\n        /* \"#utility.yul\":23394:23418   */\n      tag_350\n      jump\t// in\n    tag_641:\n        /* \"#utility.yul\":23385:23418   */\n      swap2\n      pop\n        /* \"#utility.yul\":23440:23506   */\n      0xffffffffffffffffffffffffffffffffffffffffffffffffffffffffffffffff\n        /* \"#utility.yul\":23433:23438   */\n      dup3\n        /* \"#utility.yul\":23430:23507   */\n      sub\n        /* \"#utility.yul\":23427:23530   */\n      tag_642\n      jumpi\n        /* \"#utility.yul\":23510:23528   */\n      tag_643\n      tag_389\n      jump\t// in\n    tag_643:\n        /* \"#utility.yul\":23427:23530   */\n    tag_642:\n        /* \"#utility.yul\":23557:23558   */\n      0x01\n        /* \"#utility.yul\":23550:23555   */\n      dup3\n        /* \"#utility.yul\":23546:23559   */\n      add\n        /* \"#utility.yul\":23539:23559   */\n      swap1\n      pop\n        /* \"#utility.yul\":23332:23565   */\n      swap2\n      swap1\n      pop\n      jump\t// out\n        /* \"#utility.yul\":23571:23742   */\n    tag_404:\n        /* \"#utility.yul\":23711:23734   */\n      0x4e6f7420656e6f756768207369676e6174757265730000000000000000000000\n        /* \"#utility.yul\":23707:23708   */\n      0x00\n        /* \"#utility.yul\":23699:23705   */\n      dup3\n        /* \"#utility.yul\":23695:23709   */\n      add\n        /* \"#utility.yul\":23688:23735   */\n      mstore\n        /* \"#utility.yul\":23571:23742   */\n      pop\n      jump\t// out\n        /* \"#utility.yul\":23748:24114   */\n    tag_405:\n        /* \"#utility.yul\":23890:23893   */\n      0x00\n        /* \"#utility.yul\":23911:23978   */\n      tag_646\n        /* \"#utility.yul\":23975:23977   */\n      0x15\n        /* \"#utility.yul\":23970:23973   */\n      dup4\n        /* \"#utility.yul\":23911:23978   */\n      tag_383\n      jump\t// in\n    tag_646:\n        /* \"#utility.yul\":23904:23978   */\n      swap2\n      pop\n        /* \"#utility.yul\":23987:24080   */\n      tag_647\n        /* \"#utility.yul\":24076:24079   */\n      dup3\n        /* \"#utility.yul\":23987:24080   */\n      tag_404\n      jump\t// in\n    tag_647:\n        /* \"#utility.yul\":24105:24107   */\n      0x20\n        /* \"#utility.yul\":24100:24103   */\n      dup3\n        /* \"#utility.yul\":24096:24108   */\n      add\n        /* \"#utility.yul\":24089:24108   */\n      swap1\n      pop\n        /* \"#utility.yul\":23748:24114   */\n      swap2\n      swap1\n      pop\n      jump\t// out\n        /* \"#utility.yul\":24120:24539   */\n    tag_275:\n        /* \"#utility.yul\":24286:24290   */\n      0x00\n        /* \"#utility.yul\":24324:24326   */\n      0x20\n        /* \"#utility.yul\":24313:24322   */\n      dup3\n        /* \"#utility.yul\":24309:24327   */\n      add\n        /* \"#utility.yul\":24301:24327   */\n      swap1\n      pop\n        /* \"#utility.yul\":24373:24382   */\n      dup2\n        /* \"#utility.yul\":24367:24371   */\n      dup2\n        /* \"#utility.yul\":24363:24383   */\n      sub\n        /* \"#utility.yul\":24359:24360   */\n      0x00\n        /* \"#utility.yul\":24348:24357   */\n      dup4\n        /* \"#utility.yul\":24344:24361   */\n      add\n        /* \"#utility.yul\":24337:24384   */\n      mstore\n        /* \"#utility.yul\":24401:24532   */\n      tag_649\n        /* \"#utility.yul\":24527:24531   */\n      dup2\n        /* \"#utility.yul\":24401:24532   */\n      tag_405\n      jump\t// in\n    tag_649:\n        /* \"#utility.yul\":24393:24532   */\n      swap1\n      pop\n        /* \"#utility.yul\":24120:24539   */\n      swap2\n      swap1\n      pop\n      jump\t// out\n        /* \"#utility.yul\":24545:24877   */\n    tag_312:\n        /* \"#utility.yul\":24666:24670   */\n      0x00\n        /* \"#utility.yul\":24704:24706   */\n      0x40\n        /* \"#utility.yul\":24693:24702   */\n      dup3\n        /* \"#utility.yul\":24689:24707   */\n      add\n        /* \"#utility.yul\":24681:24707   */\n      swap1\n      pop\n        /* \"#utility.yul\":24717:24788   */\n      tag_651\n        /* \"#utility.yul\":24785:24786   */\n      0x00\n        /* \"#utility.yul\":24774:24783   */\n      dup4\n        /* \"#utility.yul\":24770:24787   */\n      add\n        /* \"#utility.yul\":24761:24767   */\n      dup6\n        /* \"#utility.yul\":24717:24788   */\n      tag_353\n      jump\t// in\n    tag_651:\n        /* \"#utility.yul\":24798:24870   */\n      tag_652\n        /* \"#utility.yul\":24866:24868   */\n      0x20\n        /* \"#utility.yul\":24855:24864   */\n      dup4\n        /* \"#utility.yul\":24851:24869   */\n      add\n        /* \"#utility.yul\":24842:24848   */\n      dup5\n        /* \"#utility.yul\":24798:24870   */\n      tag_374\n      jump\t// in\n    tag_652:\n        /* \"#utility.yul\":24545:24877   */\n      swap4\n      swap3\n      pop\n      pop\n      pop\n      jump\t// out\n        /* \"#utility.yul\":24883:25000   */\n    tag_406:\n        /* \"#utility.yul\":24992:24993   */\n      0x00\n        /* \"#utility.yul\":24989:24990   */\n      dup1\n        /* \"#utility.yul\":24982:24994   */\n      revert\n        /* \"#utility.yul\":25006:25314   */\n    tag_407:\n        /* \"#utility.yul\":25068:25072   */\n      0x00\n        /* \"#utility.yul\":25158:25176   */\n      0xffffffffffffffff\n        /* \"#utility.yul\":25150:25156   */\n      dup3\n        /* \"#utility.yul\":25147:25177   */\n      gt\n        /* \"#utility.yul\":25144:25200   */\n      iszero\n      tag_655\n      jumpi\n        /* \"#utility.yul\":25180:25198   */\n      tag_656\n      tag_103\n      jump\t// in\n    tag_656:\n        /* \"#utility.yul\":25144:25200   */\n    tag_655:\n        /* \"#utility.yul\":25218:25247   */\n      tag_657\n        /* \"#utility.yul\":25240:25246   */\n      dup3\n        /* \"#utility.yul\":25218:25247   */\n      tag_367\n      jump\t// in\n    tag_657:\n        /* \"#utility.yul\":25210:25247   */\n      swap1\n      pop\n        /* \"#utility.yul\":25302:25306   */\n      0x20\n        /* \"#utility.yul\":25296:25300   */\n      dup2\n        /* \"#utility.yul\":25292:25307   */\n      add\n        /* \"#utility.yul\":25284:25307   */\n      swap1\n      pop\n        /* \"#utility.yul\":25006:25314   */\n      swap2\n      swap1\n      pop\n      jump\t// out\n        /* \"#utility.yul\":25320:25459   */\n    tag_408:\n        /* \"#utility.yul\":25409:25415   */\n      dup3\n        /* \"#utility.yul\":25404:25407   */\n      dup2\n        /* \"#utility.yul\":25399:25402   */\n      dup4\n        /* \"#utility.yul\":25393:25416   */\n      mcopy\n        /* \"#utility.yul\":25450:25451   */\n      0x00\n        /* \"#utility.yul\":25441:25447   */\n      dup4\n        /* \"#utility.yul\":25436:25439   */\n      dup4\n        /* \"#utility.yul\":25432:25448   */\n      add\n        /* \"#utility.yul\":25425:25452   */\n      mstore\n        /* \"#utility.yul\":25320:25459   */\n      pop\n      pop\n      pop\n      jump\t// out\n        /* \"#utility.yul\":25465:25899   */\n    tag_409:\n        /* \"#utility.yul\":25554:25559   */\n      0x00\n        /* \"#utility.yul\":25579:25645   */\n      tag_660\n        /* \"#utility.yul\":25595:25644   */\n      tag_661\n        /* \"#utility.yul\":25637:25643   */\n      dup5\n        /* \"#utility.yul\":25595:25644   */\n      tag_407\n      jump\t// in\n    tag_661:\n        /* \"#utility.yul\":25579:25645   */\n      tag_369\n      jump\t// in\n    tag_660:\n        /* \"#utility.yul\":25570:25645   */\n      swap1\n      pop\n        /* \"#utility.yul\":25668:25674   */\n      dup3\n        /* \"#utility.yul\":25661:25666   */\n      dup2\n        /* \"#utility.yul\":25654:25675   */\n      mstore\n        /* \"#utility.yul\":25706:25710   */\n      0x20\n        /* \"#utility.yul\":25699:25704   */\n      dup2\n        /* \"#utility.yul\":25695:25711   */\n      add\n        /* \"#utility.yul\":25744:25747   */\n      dup5\n        /* \"#utility.yul\":25735:25741   */\n      dup5\n        /* \"#utility.yul\":25730:25733   */\n      dup5\n        /* \"#utility.yul\":25726:25742   */\n      add\n        /* \"#utility.yul\":25723:25748   */\n      gt\n        /* \"#utility.yul\":25720:25832   */\n      iszero\n      tag_662\n      jumpi\n        /* \"#utility.yul\":25751:25830   */\n      tag_663\n      tag_406\n      jump\t// in\n    tag_663:\n        /* \"#utility.yul\":25720:25832   */\n    tag_662:\n        /* \"#utility.yul\":25841:25893   */\n      tag_664\n        /* \"#utility.yul\":25886:25892   */\n      dup5\n        /* \"#utility.yul\":25881:25884   */\n      dup3\n        /* \"#utility.yul\":25876:25879   */\n      dup6\n        /* \"#utility.yul\":25841:25893   */\n      tag_408\n      jump\t// in\n    tag_664:\n        /* \"#utility.yul\":25560:25899   */\n      pop\n        /* \"#utility.yul\":25465:25899   */\n      swap4\n      swap3\n      pop\n      pop\n      pop\n      jump\t// out\n        /* \"#utility.yul\":25919:26274   */\n    tag_410:\n        /* \"#utility.yul\":25986:25991   */\n      0x00\n        /* \"#utility.yul\":26035:26038   */\n      dup3\n        /* \"#utility.yul\":26028:26032   */\n      0x1f\n        /* \"#utility.yul\":26020:26026   */\n      dup4\n        /* \"#utility.yul\":26016:26033   */\n      add\n        /* \"#utility.yul\":26012:26039   */\n      slt\n        /* \"#utility.yul\":26002:26124   */\n      tag_666\n      jumpi\n        /* \"#utility.yul\":26043:26122   */\n      tag_667\n      tag_366\n      jump\t// in\n    tag_667:\n        /* \"#utility.yul\":26002:26124   */\n    tag_666:\n        /* \"#utility.yul\":26153:26159   */\n      dup2\n        /* \"#utility.yul\":26147:26160   */\n      mload\n        /* \"#utility.yul\":26178:26268   */\n      tag_668\n        /* \"#utility.yul\":26264:26267   */\n      dup5\n        /* \"#utility.yul\":26256:26262   */\n      dup3\n        /* \"#utility.yul\":26249:26253   */\n      0x20\n        /* \"#utility.yul\":26241:26247   */\n      dup7\n        /* \"#utility.yul\":26237:26254   */\n      add\n        /* \"#utility.yul\":26178:26268   */\n      tag_409\n      jump\t// in\n    tag_668:\n        /* \"#utility.yul\":26169:26268   */\n      swap2\n      pop\n        /* \"#utility.yul\":25992:26274   */\n      pop\n        /* \"#utility.yul\":25919:26274   */\n      swap3\n      swap2\n      pop\n      pop\n      jump\t// out\n        /* \"#utility.yul\":26280:26423   */\n    tag_411:\n        /* \"#utility.yul\":26337:26342   */\n      0x00\n        /* \"#utility.yul\":26368:26374   */\n      dup2\n        /* \"#utility.yul\":26362:26375   */\n      mload\n        /* \"#utility.yul\":26353:26375   */\n      swap1\n      pop\n        /* \"#utility.yul\":26384:26417   */\n      tag_670\n        /* \"#utility.yul\":26411:26416   */\n      dup2\n        /* \"#utility.yul\":26384:26417   */\n      tag_362\n      jump\t// in\n    tag_670:\n        /* \"#utility.yul\":26280:26423   */\n      swap3\n      swap2\n      pop\n      pop\n      jump\t// out\n        /* \"#utility.yul\":26429:26547   */\n    tag_412:\n        /* \"#utility.yul\":26521:26522   */\n      0x02\n        /* \"#utility.yul\":26514:26519   */\n      dup2\n        /* \"#utility.yul\":26511:26523   */\n      lt\n        /* \"#utility.yul\":26501:26541   */\n      tag_672\n      jumpi\n        /* \"#utility.yul\":26537:26538   */\n      0x00\n        /* \"#utility.yul\":26534:26535   */\n      dup1\n        /* \"#utility.yul\":26527:26539   */\n      revert\n        /* \"#utility.yul\":26501:26541   */\n    tag_672:\n        /* \"#utility.yul\":26429:26547   */\n      pop\n      jump\t// out\n        /* \"#utility.yul\":26553:26734   */\n    tag_413:\n        /* \"#utility.yul\":26629:26634   */\n      0x00\n        /* \"#utility.yul\":26660:26666   */\n      dup2\n        /* \"#utility.yul\":26654:26667   */\n      mload\n        /* \"#utility.yul\":26645:26667   */\n      swap1\n      pop\n        /* \"#utility.yul\":26676:26728   */\n      tag_674\n        /* \"#utility.yul\":26722:26727   */\n      dup2\n        /* \"#utility.yul\":26676:26728   */\n      tag_412\n      jump\t// in\n    tag_674:\n        /* \"#utility.yul\":26553:26734   */\n      swap3\n      swap2\n      pop\n      pop\n      jump\t// out\n        /* \"#utility.yul\":26740:28745   */\n    tag_323:\n        /* \"#utility.yul\":26922:26928   */\n      0x00\n        /* \"#utility.yul\":26930:26936   */\n      dup1\n        /* \"#utility.yul\":26938:26944   */\n      0x00\n        /* \"#utility.yul\":26946:26952   */\n      dup1\n        /* \"#utility.yul\":26954:26960   */\n      0x00\n        /* \"#utility.yul\":26962:26968   */\n      dup1\n        /* \"#utility.yul\":26970:26976   */\n      0x00\n        /* \"#utility.yul\":26978:26984   */\n      dup1\n        /* \"#utility.yul\":27027:27030   */\n      0x0100\n        /* \"#utility.yul\":27015:27024   */\n      dup10\n        /* \"#utility.yul\":27006:27013   */\n      dup12\n        /* \"#utility.yul\":27002:27025   */\n      sub\n        /* \"#utility.yul\":26998:27031   */\n      slt\n        /* \"#utility.yul\":26995:27115   */\n      iszero\n      tag_676\n      jumpi\n        /* \"#utility.yul\":27034:27113   */\n      tag_677\n      tag_348\n      jump\t// in\n    tag_677:\n        /* \"#utility.yul\":26995:27115   */\n    tag_676:\n        /* \"#utility.yul\":27175:27176   */\n      0x00\n        /* \"#utility.yul\":27164:27173   */\n      dup10\n        /* \"#utility.yul\":27160:27177   */\n      add\n        /* \"#utility.yul\":27154:27178   */\n      mload\n        /* \"#utility.yul\":27205:27223   */\n      0xffffffffffffffff\n        /* \"#utility.yul\":27197:27203   */\n      dup2\n        /* \"#utility.yul\":27194:27224   */\n      gt\n        /* \"#utility.yul\":27191:27308   */\n      iszero\n      tag_678\n      jumpi\n        /* \"#utility.yul\":27227:27306   */\n      tag_679\n      tag_349\n      jump\t// in\n    tag_679:\n        /* \"#utility.yul\":27191:27308   */\n    tag_678:\n        /* \"#utility.yul\":27332:27406   */\n      tag_680\n        /* \"#utility.yul\":27398:27405   */\n      dup12\n        /* \"#utility.yul\":27389:27395   */\n      dup3\n        /* \"#utility.yul\":27378:27387   */\n      dup13\n        /* \"#utility.yul\":27374:27396   */\n      add\n        /* \"#utility.yul\":27332:27406   */\n      tag_410\n      jump\t// in\n    tag_680:\n        /* \"#utility.yul\":27322:27406   */\n      swap9\n      pop\n        /* \"#utility.yul\":27125:27416   */\n      pop\n        /* \"#utility.yul\":27476:27478   */\n      0x20\n        /* \"#utility.yul\":27465:27474   */\n      dup10\n        /* \"#utility.yul\":27461:27479   */\n      add\n        /* \"#utility.yul\":27455:27480   */\n      mload\n        /* \"#utility.yul\":27507:27525   */\n      0xffffffffffffffff\n        /* \"#utility.yul\":27499:27505   */\n      dup2\n        /* \"#utility.yul\":27496:27526   */\n      gt\n        /* \"#utility.yul\":27493:27610   */\n      iszero\n      tag_681\n      jumpi\n        /* \"#utility.yul\":27529:27608   */\n      tag_682\n      tag_349\n      jump\t// in\n    tag_682:\n        /* \"#utility.yul\":27493:27610   */\n    tag_681:\n        /* \"#utility.yul\":27634:27708   */\n      tag_683\n        /* \"#utility.yul\":27700:27707   */\n      dup12\n        /* \"#utility.yul\":27691:27697   */\n      dup3\n        /* \"#utility.yul\":27680:27689   */\n      dup13\n        /* \"#utility.yul\":27676:27698   */\n      add\n        /* \"#utility.yul\":27634:27708   */\n      tag_410\n      jump\t// in\n    tag_683:\n        /* \"#utility.yul\":27624:27708   */\n      swap8\n      pop\n        /* \"#utility.yul\":27426:27718   */\n      pop\n        /* \"#utility.yul\":27778:27780   */\n      0x40\n        /* \"#utility.yul\":27767:27776   */\n      dup10\n        /* \"#utility.yul\":27763:27781   */\n      add\n        /* \"#utility.yul\":27757:27782   */\n      mload\n        /* \"#utility.yul\":27809:27827   */\n      0xffffffffffffffff\n        /* \"#utility.yul\":27801:27807   */\n      dup2\n        /* \"#utility.yul\":27798:27828   */\n      gt\n        /* \"#utility.yul\":27795:27912   */\n      iszero\n      tag_684\n      jumpi\n        /* \"#utility.yul\":27831:27910   */\n      tag_685\n      tag_349\n      jump\t// in\n    tag_685:\n        /* \"#utility.yul\":27795:27912   */\n    tag_684:\n        /* \"#utility.yul\":27936:28010   */\n      tag_686\n        /* \"#utility.yul\":28002:28009   */\n      dup12\n        /* \"#utility.yul\":27993:27999   */\n      dup3\n        /* \"#utility.yul\":27982:27991   */\n      dup13\n        /* \"#utility.yul\":27978:28000   */\n      add\n        /* \"#utility.yul\":27936:28010   */\n      tag_410\n      jump\t// in\n    tag_686:\n        /* \"#utility.yul\":27926:28010   */\n      swap7\n      pop\n        /* \"#utility.yul\":27728:28020   */\n      pop\n        /* \"#utility.yul\":28059:28061   */\n      0x60\n        /* \"#utility.yul\":28085:28149   */\n      tag_687\n        /* \"#utility.yul\":28141:28148   */\n      dup12\n        /* \"#utility.yul\":28132:28138   */\n      dup3\n        /* \"#utility.yul\":28121:28130   */\n      dup13\n        /* \"#utility.yul\":28117:28139   */\n      add\n        /* \"#utility.yul\":28085:28149   */\n      tag_411\n      jump\t// in\n    tag_687:\n        /* \"#utility.yul\":28075:28149   */\n      swap6\n      pop\n        /* \"#utility.yul\":28030:28159   */\n      pop\n        /* \"#utility.yul\":28198:28201   */\n      0x80\n        /* \"#utility.yul\":28225:28289   */\n      tag_688\n        /* \"#utility.yul\":28281:28288   */\n      dup12\n        /* \"#utility.yul\":28272:28278   */\n      dup3\n        /* \"#utility.yul\":28261:28270   */\n      dup13\n        /* \"#utility.yul\":28257:28279   */\n      add\n        /* \"#utility.yul\":28225:28289   */\n      tag_388\n      jump\t// in\n    tag_688:\n        /* \"#utility.yul\":28215:28289   */\n      swap5\n      pop\n        /* \"#utility.yul\":28169:28299   */\n      pop\n        /* \"#utility.yul\":28338:28341   */\n      0xa0\n        /* \"#utility.yul\":28365:28448   */\n      tag_689\n        /* \"#utility.yul\":28440:28447   */\n      dup12\n        /* \"#utility.yul\":28431:28437   */\n      dup3\n        /* \"#utility.yul\":28420:28429   */\n      dup13\n        /* \"#utility.yul\":28416:28438   */\n      add\n        /* \"#utility.yul\":28365:28448   */\n      tag_413\n      jump\t// in\n    tag_689:\n        /* \"#utility.yul\":28355:28448   */\n      swap4\n      pop\n        /* \"#utility.yul\":28309:28458   */\n      pop\n        /* \"#utility.yul\":28497:28500   */\n      0xc0\n        /* \"#utility.yul\":28524:28588   */\n      tag_690\n        /* \"#utility.yul\":28580:28587   */\n      dup12\n        /* \"#utility.yul\":28571:28577   */\n      dup3\n        /* \"#utility.yul\":28560:28569   */\n      dup13\n        /* \"#utility.yul\":28556:28578   */\n      add\n        /* \"#utility.yul\":28524:28588   */\n      tag_388\n      jump\t// in\n    tag_690:\n        /* \"#utility.yul\":28514:28588   */\n      swap3\n      pop\n        /* \"#utility.yul\":28468:28598   */\n      pop\n        /* \"#utility.yul\":28637:28640   */\n      0xe0\n        /* \"#utility.yul\":28664:28728   */\n      tag_691\n        /* \"#utility.yul\":28720:28727   */\n      dup12\n        /* \"#utility.yul\":28711:28717   */\n      dup3\n        /* \"#utility.yul\":28700:28709   */\n      dup13\n        /* \"#utility.yul\":28696:28718   */\n      add\n        /* \"#utility.yul\":28664:28728   */\n      tag_411\n      jump\t// in\n    tag_691:\n        /* \"#utility.yul\":28654:28728   */\n      swap2\n      pop\n        /* \"#utility.yul\":28608:28738   */\n      pop\n        /* \"#utility.yul\":26740:28745   */\n      swap3\n      swap6\n      swap9\n      pop\n      swap3\n      swap6\n      swap9\n      swap1\n      swap4\n      swap7\n      pop\n      jump\t// out\n        /* \"#utility.yul\":28751:28926   */\n    tag_414:\n        /* \"#utility.yul\":28891:28918   */\n      0x436f6d6d756e69747920746f6b656e206e6f7420666f756e6400000000000000\n        /* \"#utility.yul\":28887:28888   */\n      0x00\n        /* \"#utility.yul\":28879:28885   */\n      dup3\n        /* \"#utility.yul\":28875:28889   */\n      add\n        /* \"#utility.yul\":28868:28919   */\n      mstore\n        /* \"#utility.yul\":28751:28926   */\n      pop\n      jump\t// out\n        /* \"#utility.yul\":28932:29298   */\n    tag_415:\n        /* \"#utility.yul\":29074:29077   */\n      0x00\n        /* \"#utility.yul\":29095:29162   */\n      tag_694\n        /* \"#utility.yul\":29159:29161   */\n      0x19\n        /* \"#utility.yul\":29154:29157   */\n      dup4\n        /* \"#utility.yul\":29095:29162   */\n      tag_383\n      jump\t// in\n    tag_694:\n        /* \"#utility.yul\":29088:29162   */\n      swap2\n      pop\n        /* \"#utility.yul\":29171:29264   */\n      tag_695\n        /* \"#utility.yul\":29260:29263   */\n      dup3\n        /* \"#utility.yul\":29171:29264   */\n      tag_414\n      jump\t// in\n    tag_695:\n        /* \"#utility.yul\":29289:29291   */\n      0x20\n        /* \"#utility.yul\":29284:29287   */\n      dup3\n        /* \"#utility.yul\":29280:29292   */\n      add\n        /* \"#utility.yul\":29273:29292   */\n      swap1\n      pop\n        /* \"#utility.yul\":28932:29298   */\n      swap2\n      swap1\n      pop\n      jump\t// out\n        /* \"#utility.yul\":29304:29723   */\n    tag_326:\n        /* \"#utility.yul\":29470:29474   */\n      0x00\n        /* \"#utility.yul\":29508:29510   */\n      0x20\n        /* \"#utility.yul\":29497:29506   */\n      dup3\n        /* \"#utility.yul\":29493:29511   */\n      add\n        /* \"#utility.yul\":29485:29511   */\n      swap1\n      pop\n        /* \"#utility.yul\":29557:29566   */\n      dup2\n        /* \"#utility.yul\":29551:29555   */\n      dup2\n        /* \"#utility.yul\":29547:29567   */\n      sub\n        /* \"#utility.yul\":29543:29544   */\n      0x00\n        /* \"#utility.yul\":29532:29541   */\n      dup4\n        /* \"#utility.yul\":29528:29545   */\n      add\n        /* \"#utility.yul\":29521:29568   */\n      mstore\n        /* \"#utility.yul\":29585:29716   */\n      tag_697\n        /* \"#utility.yul\":29711:29715   */\n      dup2\n        /* \"#utility.yul\":29585:29716   */\n      tag_415\n      jump\t// in\n    tag_697:\n        /* \"#utility.yul\":29577:29716   */\n      swap1\n      pop\n        /* \"#utility.yul\":29304:29723   */\n      swap2\n      swap1\n      pop\n      jump\t// out\n\n    auxdata: 0xa26469706673582212205aa97fdefa4b1034ea8738b9c564ffd11801bfe6fe4092ad93cb21645701242164736f6c634300081a0033\n}\n",
				"bytecode": {
					"linkReferences": {},
					"object": "6080604052348015600e575f80fd5b506129da8061001c5f395ff3fe608060405234801561000f575f80fd5b50600436106100fe575f3560e01c8063c4d66de811610095578063de04bbd211610064578063de04bbd214610299578063e7d3f1f9146102b7578063f2fde38b146102e7578063fadc193014610303576100fe565b8063c4d66de814610215578063c56b4aed14610231578063d599ba921461024d578063d5d8617a14610269576100fe565b8063715018a6116100d1578063715018a61461019d5780638da5cb5b146101a7578063aba21009146101c5578063c0458ddc146101f9576100fe565b806306428f0214610102578063392ee8c114610120578063674e9c601461015157806369c4391514610181575b5f80fd5b61010a61031f565b6040516101179190611bfc565b60405180910390f35b61013a60048036038101906101359190611c59565b610342565b604051610148929190611d49565b60405180910390f35b61016b60048036038101906101669190611d9a565b6103e6565b6040516101789190611e04565b60405180910390f35b61019b60048036038101906101969190611f6d565b61045d565b005b6101a56109aa565b005b6101af6109bd565b6040516101bc9190611fd6565b60405180910390f35b6101df60048036038101906101da9190611fef565b6109f2565b6040516101f09594939291906120a0565b60405180910390f35b610213600480360381019061020e9190612114565b610a80565b005b61022f600480360381019061022a919061218b565b610c23565b005b61024b6004803603810190610246919061218b565b610da4565b005b6102676004803603810190610262919061218b565b610dee565b005b610283600480360381019061027e9190611c59565b610e39565b60405161029091906121b6565b60405180910390f35b6102a1610e56565b6040516102ae91906121ef565b60405180910390f35b6102d160048036038101906102cc9190611c59565b610e7b565b6040516102de9190612208565b60405180910390f35b61030160048036038101906102fc919061218b565b610f0f565b005b61031d60048036038101906103189190611fef565b610f93565b005b5f8054906101000a900473ffffffffffffffffffffffffffffffffffffffff1681565b5f61034b611ac9565b5f60025f8581526020019081526020015f209050806006015481600101806005806020026040519081016040528092919082600580156103d5576020028201915b815f9054906101000a900473ffffffffffffffffffffffffffffffffffffffff1673ffffffffffffffffffffffffffffffffffffffff168152602001906001019080831161038c575b505050505090509250925050915091565b5f60025f8581526020019081526020015f205f015f8481526020019081526020015f206004015f8373ffffffffffffffffffffffffffffffffffffffff1673ffffffffffffffffffffffffffffffffffffffff1681526020019081526020015f205f9054906101000a900460ff1690509392505050565b5f8151116104a0576040517f08c379a00000000000000000000000000000000000000000000000000000000081526004016104979061227b565b60405180910390fd5b5f73ffffffffffffffffffffffffffffffffffffffff1660015f9054906101000a900473ffffffffffffffffffffffffffffffffffffffff1673ffffffffffffffffffffffffffffffffffffffff160361052f576040517f08c379a0000000000000000000000000000000000000000000000000000000008152600401610526906122e3565b60405180910390fd5b5f815167ffffffffffffffff81111561054b5761054a611e31565b5b6040519080825280602002602001820160405280156105795781602001602082028036833780820191505090505b5090505f5b825181101561068f5760015f9054906101000a900473ffffffffffffffffffffffffffffffffffffffff1673ffffffffffffffffffffffffffffffffffffffff1663d91d97338483815181106105d7576105d6612301565b5b6020026020010151866040518363ffffffff1660e01b81526004016105fd92919061232e565b602060405180830381865afa92505050801561063757506040513d601f19601f820116820180604052508101906106349190612369565b60015b610660575f82828151811061064f5761064e612301565b5b602002602001018181525050610682565b8083838151811061067457610673612301565b5b602002602001018181525050505b808060010191505061057e565b505f60058351106106a15760056106a4565b82515b90506106ae611ac9565b5f5b828110156108df575f8190505f6001836106ca91906123c1565b90505b8651811015610723578582815181106106e9576106e8612301565b5b602002602001015186828151811061070457610703612301565b5b60200260200101511115610716578091505b80806001019150506106cd565b5081811461086c5785818151811061073e5761073d612301565b5b602002602001015186838151811061075957610758612301565b5b602002602001015187848151811061077457610773612301565b5b6020026020010188848151811061078e5761078d612301565b5b602002602001018273ffffffffffffffffffffffffffffffffffffffff1673ffffffffffffffffffffffffffffffffffffffff168152508273ffffffffffffffffffffffffffffffffffffffff1673ffffffffffffffffffffffffffffffffffffffff16815250505084818151811061080a57610809612301565b5b602002602001015185838151811061082557610824612301565b5b60200260200101518684815181106108405761083f612301565b5b6020026020010187848151811061085a57610859612301565b5b60200260200101828152508281525050505b85828151811061087f5761087e612301565b5b602002602001015183836005811061089a57610899612301565b5b602002019073ffffffffffffffffffffffffffffffffffffffff16908173ffffffffffffffffffffffffffffffffffffffff16815250505080806001019150506106b0565b505f8290505b6005811015610946575f82826005811061090257610901612301565b5b602002019073ffffffffffffffffffffffffffffffffffffffff16908173ffffffffffffffffffffffffffffffffffffffff168152505080806001019150506108e5565b508060025f8781526020019081526020015f2060010190600561096a929190611aeb565b50847f0d725b01f2a8656cdf0767f5c4125384f89eb28243de781481360d45343029cb8260405161099b9190612208565b60405180910390a25050505050565b6109b261126d565b6109bb5f6112f4565b565b5f806109c76113c5565b9050805f015f9054906101000a900473ffffffffffffffffffffffffffffffffffffffff1691505090565b5f805f805f8060025f8981526020019081526020015f205f015f8881526020019081526020015f209050805f015f9054906101000a900460ff168160010154826002015f9054906101000a900473ffffffffffffffffffffffffffffffffffffffff168360030154846005015f9054906101000a900460ff1695509550955095509550509295509295909350565b5f60025f8781526020019081526020015f205f015f8681526020019081526020015f206003015414610ae7576040517f08c379a0000000000000000000000000000000000000000000000000000000008152600401610ade9061243e565b60405180910390fd5b5f60025f8781526020019081526020015f205f015f8681526020019081526020015f20905083815f015f6101000a81548160ff02191690836002811115610b3157610b3061202d565b5b021790555082816001018190555081816002015f6101000a81548173ffffffffffffffffffffffffffffffffffffffff021916908373ffffffffffffffffffffffffffffffffffffffff160217905550600181600301819055506001816004015f3373ffffffffffffffffffffffffffffffffffffffff1673ffffffffffffffffffffffffffffffffffffffff1681526020019081526020015f205f6101000a81548160ff02191690831515021790555084867fb6e96f518c19cffcfba1957109656f5d029c7562f7b417e9556d302c857c090f86604051610c13919061245c565b60405180910390a3505050505050565b5f610c2c6113ec565b90505f815f0160089054906101000a900460ff161590505f825f015f9054906101000a900467ffffffffffffffff1690505f808267ffffffffffffffff16148015610c745750825b90505f60018367ffffffffffffffff16148015610ca757505f3073ffffffffffffffffffffffffffffffffffffffff163b145b905081158015610cb5575080155b15610cec576040517ff92ee8a900000000000000000000000000000000000000000000000000000000815260040160405180910390fd5b6001855f015f6101000a81548167ffffffffffffffff021916908367ffffffffffffffff1602179055508315610d39576001855f0160086101000a81548160ff0219169083151502179055505b610d4286611413565b8315610d9c575f855f0160086101000a81548160ff0219169083151502179055507fc7f505b2f371ae2175ee4913f4499e1f2633a7b5936321eed1cdaeb6115181d26001604051610d9391906124c1565b60405180910390a15b505050505050565b610dac61126d565b805f806101000a81548173ffffffffffffffffffffffffffffffffffffffff021916908373ffffffffffffffffffffffffffffffffffffffff16021790555050565b610df661126d565b8060015f6101000a81548173ffffffffffffffffffffffffffffffffffffffff021916908373ffffffffffffffffffffffffffffffffffffffff16021790555050565b5f60025f8381526020019081526020015f20600601549050919050565b60015f9054906101000a900473ffffffffffffffffffffffffffffffffffffffff1681565b610e83611ac9565b60025f8381526020019081526020015f20600101600580602002604051908101604052809291908260058015610f03576020028201915b815f9054906101000a900473ffffffffffffffffffffffffffffffffffffffff1673ffffffffffffffffffffffffffffffffffffffff1681526020019060010190808311610eba575b50505050509050919050565b610f1761126d565b5f73ffffffffffffffffffffffffffffffffffffffff168173ffffffffffffffffffffffffffffffffffffffff1603610f87575f6040517f1e4fbdf7000000000000000000000000000000000000000000000000000000008152600401610f7e9190611fd6565b60405180910390fd5b610f90816112f4565b50565b6110213360025f8581526020019081526020015f20600101600580602002604051908101604052809291908260058015611017576020028201915b815f9054906101000a900473ffffffffffffffffffffffffffffffffffffffff1673ffffffffffffffffffffffffffffffffffffffff1681526020019060010190808311610fce575b5050505050611427565b611060576040517f08c379a000000000000000000000000000000000000000000000000000000000815260040161105790612524565b60405180910390fd5b5f60025f8481526020019081526020015f205f015f8381526020019081526020015f2090505f8160030154116110cb576040517f08c379a00000000000000000000000000000000000000000000000000000000081526004016110c29061258c565b60405180910390fd5b806005015f9054906101000a900460ff161561111c576040517f08c379a0000000000000000000000000000000000000000000000000000000008152600401611113906125f4565b60405180910390fd5b806004015f3373ffffffffffffffffffffffffffffffffffffffff1673ffffffffffffffffffffffffffffffffffffffff1681526020019081526020015f205f9054906101000a900460ff16156111a8576040517f08c379a000000000000000000000000000000000000000000000000000000000815260040161119f9061265c565b60405180910390fd5b6001816004015f3373ffffffffffffffffffffffffffffffffffffffff1673ffffffffffffffffffffffffffffffffffffffff1681526020019081526020015f205f6101000a81548160ff021916908315150217905550806003015f8154809291906112139061267a565b919050555081837f256519eb26d028f45eb678b9c4cf084619387132430e282b40fd12a40b4e2732336040516112499190611fd6565b60405180910390a360038160030154106112685761126783836114ed565b5b505050565b6112756116ff565b73ffffffffffffffffffffffffffffffffffffffff166112936109bd565b73ffffffffffffffffffffffffffffffffffffffff16146112f2576112b66116ff565b6040517f118cdaa70000000000000000000000000000000000000000000000000000000081526004016112e99190611fd6565b60405180910390fd5b565b5f6112fd6113c5565b90505f815f015f9054906101000a900473ffffffffffffffffffffffffffffffffffffffff16905082825f015f6101000a81548173ffffffffffffffffffffffffffffffffffffffff021916908373ffffffffffffffffffffffffffffffffffffffff1602179055508273ffffffffffffffffffffffffffffffffffffffff168173ffffffffffffffffffffffffffffffffffffffff167f8be0079c531659141344cd1fd0a4f28419497f9722a3daafe3b4186f6b6457e060405160405180910390a3505050565b5f7f9016d09d72d40fdae2fd8ceac6b6234c7706214fd39c1cd1e609a0528c199300905090565b5f7ff0c57e16840df040f15088dc2f81fe391c3923bec73e23a9662efc9c229c6a00905090565b61141b611706565b61142481611746565b50565b5f805f90505b60058110156114e2578373ffffffffffffffffffffffffffffffffffffffff168382600581106114605761145f612301565b5b602002015173ffffffffffffffffffffffffffffffffffffffff160361148a5760019150506114e7565b5f73ffffffffffffffffffffffffffffffffffffffff168382600581106114b4576114b3612301565b5b602002015173ffffffffffffffffffffffffffffffffffffffff1603156114e257808060010191505061142d565b505f90505b92915050565b5f60025f8481526020019081526020015f205f015f8381526020019081526020015f209050806005015f9054906101000a900460ff1615611563576040517f08c379a000000000000000000000000000000000000000000000000000000000815260040161155a906125f4565b60405180910390fd5b6003816003015410156115ab576040517f08c379a00000000000000000000000000000000000000000000000000000000081526004016115a29061270b565b60405180910390fd5b6001816005015f6101000a81548160ff0219169083151502179055505f60028111156115da576115d961202d565b5b815f015f9054906101000a900460ff1660028111156115fc576115fb61202d565b5b036116335761162e83826002015f9054906101000a900473ffffffffffffffffffffffffffffffffffffffff166117ca565b6116cc565b600160028111156116475761164661202d565b5b815f015f9054906101000a900460ff1660028111156116695761166861202d565b5b036116815761167c838260010154611899565b6116cb565b6002808111156116945761169361202d565b5b815f015f9054906101000a900460ff1660028111156116b6576116b561202d565b5b036116ca576116c98382600101546118ee565b5b5b5b81837ff758fc91e01b00ea6b4a6138756f7f28e021f9bf21db6dbf8c36c88eb737257a60405160405180910390a3505050565b5f33905090565b61170e611aab565b611744576040517fd7e6bcf800000000000000000000000000000000000000000000000000000000815260040160405180910390fd5b565b61174e611706565b5f73ffffffffffffffffffffffffffffffffffffffff168173ffffffffffffffffffffffffffffffffffffffff16036117be575f6040517f1e4fbdf70000000000000000000000000000000000000000000000000000000081526004016117b59190611fd6565b60405180910390fd5b6117c7816112f4565b50565b5f8054906101000a900473ffffffffffffffffffffffffffffffffffffffff1673ffffffffffffffffffffffffffffffffffffffff16633997c65683836040518363ffffffff1660e01b8152600401611824929190612729565b5f604051808303815f87803b15801561183b575f80fd5b505af115801561184d573d5f803e3d5ffd5b505050508073ffffffffffffffffffffffffffffffffffffffff16827f1c4c9d2e56d0635d11bc47c997c6909a0d7061f55cbb8f4b27386db37553191c60405160405180910390a35050565b8060025f8481526020019081526020015f2060060181905550817f103d67daee120044227f39544f0c57945acf17897f464eefc95e6cbd4a17d3b4826040516118e291906121b6565b60405180910390a25050565b5f805f9054906101000a900473ffffffffffffffffffffffffffffffffffffffff1673ffffffffffffffffffffffffffffffffffffffff166399664245846040518263ffffffff1660e01b815260040161194891906121b6565b5f60405180830381865afa158015611962573d5f803e3d5ffd5b505050506040513d5f823e3d601f19601f8201168201806040525081019061198a9190612837565b9750505050505050505f73ffffffffffffffffffffffffffffffffffffffff168173ffffffffffffffffffffffffffffffffffffffff1603611a01576040517f08c379a00000000000000000000000000000000000000000000000000000000081526004016119f890612986565b60405180910390fd5b5f8190508073ffffffffffffffffffffffffffffffffffffffff166340c10f1930856040518363ffffffff1660e01b8152600401611a4092919061232e565b5f604051808303815f87803b158015611a57575f80fd5b505af1158015611a69573d5f803e3d5ffd5b50505050837fc61c8e2899bd86923bda7268d6d1b42d8e644ff3dedc13d41d5b798e4aa3523784604051611a9d91906121b6565b60405180910390a250505050565b5f611ab46113ec565b5f0160089054906101000a900460ff16905090565b6040518060a00160405280600590602082028036833780820191505090505090565b8260058101928215611b56579160200282015b82811115611b55578251825f6101000a81548173ffffffffffffffffffffffffffffffffffffffff021916908373ffffffffffffffffffffffffffffffffffffffff16021790555091602001919060010190611afe565b5b509050611b639190611b67565b5090565b5b80821115611b7e575f815f905550600101611b68565b5090565b5f73ffffffffffffffffffffffffffffffffffffffff82169050919050565b5f819050919050565b5f611bc4611bbf611bba84611b82565b611ba1565b611b82565b9050919050565b5f611bd582611baa565b9050919050565b5f611be682611bcb565b9050919050565b611bf681611bdc565b82525050565b5f602082019050611c0f5f830184611bed565b92915050565b5f604051905090565b5f80fd5b5f80fd5b5f819050919050565b611c3881611c26565b8114611c42575f80fd5b50565b5f81359050611c5381611c2f565b92915050565b5f60208284031215611c6e57611c6d611c1e565b5b5f611c7b84828501611c45565b91505092915050565b611c8d81611c26565b82525050565b5f60059050919050565b5f81905092915050565b5f819050919050565b5f611cba82611b82565b9050919050565b611cca81611cb0565b82525050565b5f611cdb8383611cc1565b60208301905092915050565b5f602082019050919050565b611cfc81611c93565b611d068184611c9d565b9250611d1182611ca7565b805f5b83811015611d41578151611d288782611cd0565b9650611d3383611ce7565b925050600181019050611d14565b505050505050565b5f60c082019050611d5c5f830185611c84565b611d696020830184611cf3565b9392505050565b611d7981611cb0565b8114611d83575f80fd5b50565b5f81359050611d9481611d70565b92915050565b5f805f60608486031215611db157611db0611c1e565b5b5f611dbe86828701611c45565b9350506020611dcf86828701611c45565b9250506040611de086828701611d86565b9150509250925092565b5f8115159050919050565b611dfe81611dea565b82525050565b5f602082019050611e175f830184611df5565b92915050565b5f80fd5b5f601f19601f8301169050919050565b7f4e487b71000000000000000000000000000000000000000000000000000000005f52604160045260245ffd5b611e6782611e21565b810181811067ffffffffffffffff82111715611e8657611e85611e31565b5b80604052505050565b5f611e98611c15565b9050611ea48282611e5e565b919050565b5f67ffffffffffffffff821115611ec357611ec2611e31565b5b602082029050602081019050919050565b5f80fd5b5f611eea611ee584611ea9565b611e8f565b90508083825260208201905060208402830185811115611f0d57611f0c611ed4565b5b835b81811015611f365780611f228882611d86565b845260208401935050602081019050611f0f565b5050509392505050565b5f82601f830112611f5457611f53611e1d565b5b8135611f64848260208601611ed8565b91505092915050565b5f8060408385031215611f8357611f82611c1e565b5b5f611f9085828601611c45565b925050602083013567ffffffffffffffff811115611fb157611fb0611c22565b5b611fbd85828601611f40565b9150509250929050565b611fd081611cb0565b82525050565b5f602082019050611fe95f830184611fc7565b92915050565b5f806040838503121561200557612004611c1e565b5b5f61201285828601611c45565b925050602061202385828601611c45565b9150509250929050565b7f4e487b71000000000000000000000000000000000000000000000000000000005f52602160045260245ffd5b6003811061206b5761206a61202d565b5b50565b5f81905061207b8261205a565b919050565b5f61208a8261206e565b9050919050565b61209a81612080565b82525050565b5f60a0820190506120b35f830188612091565b6120c06020830187611c84565b6120cd6040830186611fc7565b6120da6060830185611c84565b6120e76080830184611df5565b9695505050505050565b600381106120fd575f80fd5b50565b5f8135905061210e816120f1565b92915050565b5f805f805f60a0868803121561212d5761212c611c1e565b5b5f61213a88828901611c45565b955050602061214b88828901611c45565b945050604061215c88828901612100565b935050606061216d88828901611c45565b925050608061217e88828901611d86565b9150509295509295909350565b5f602082840312156121a05761219f611c1e565b5b5f6121ad84828501611d86565b91505092915050565b5f6020820190506121c95f830184611c84565b92915050565b5f6121d982611bcb565b9050919050565b6121e9816121cf565b82525050565b5f6020820190506122025f8301846121e0565b92915050565b5f60a08201905061221b5f830184611cf3565b92915050565b5f82825260208201905092915050565b7f436f6d6d756e697479206d7573742068617665206d656d6265727300000000005f82015250565b5f612265601b83612221565b915061227082612231565b602082019050919050565b5f6020820190508181035f83015261229281612259565b9050919050565b7f436f6e747269627574696f6e7320636f6e7472616374206e6f742073657400005f82015250565b5f6122cd601e83612221565b91506122d882612299565b602082019050919050565b5f6020820190508181035f8301526122fa816122c1565b9050919050565b7f4e487b71000000000000000000000000000000000000000000000000000000005f52603260045260245ffd5b5f6040820190506123415f830185611fc7565b61234e6020830184611c84565b9392505050565b5f8151905061236381611c2f565b92915050565b5f6020828403121561237e5761237d611c1e565b5b5f61238b84828501612355565b91505092915050565b7f4e487b71000000000000000000000000000000000000000000000000000000005f52601160045260245ffd5b5f6123cb82611c26565b91506123d683611c26565b92508282019050808211156123ee576123ed612394565b5b92915050565b7f50726f706f73616c20494420616c7265616479206578697374730000000000005f82015250565b5f612428601a83612221565b9150612433826123f4565b602082019050919050565b5f6020820190508181035f8301526124558161241c565b9050919050565b5f60208201905061246f5f830184612091565b92915050565b5f819050919050565b5f67ffffffffffffffff82169050919050565b5f6124ab6124a66124a184612475565b611ba1565b61247e565b9050919050565b6124bb81612491565b82525050565b5f6020820190506124d45f8301846124b2565b92915050565b7f4e6f7420617574686f72697a65640000000000000000000000000000000000005f82015250565b5f61250e600e83612221565b9150612519826124da565b602082019050919050565b5f6020820190508181035f83015261253b81612502565b9050919050565b7f50726f706f73616c20646f6573206e6f742065786973740000000000000000005f82015250565b5f612576601783612221565b915061258182612542565b602082019050919050565b5f6020820190508181035f8301526125a38161256a565b9050919050565b7f50726f706f73616c20616c7265616479206578656375746564000000000000005f82015250565b5f6125de601983612221565b91506125e9826125aa565b602082019050919050565b5f6020820190508181035f83015261260b816125d2565b9050919050565b7f416c7265616479207369676e65640000000000000000000000000000000000005f82015250565b5f612646600e83612221565b915061265182612612565b602082019050919050565b5f6020820190508181035f8301526126738161263a565b9050919050565b5f61268482611c26565b91507fffffffffffffffffffffffffffffffffffffffffffffffffffffffffffffffff82036126b6576126b5612394565b5b600182019050919050565b7f4e6f7420656e6f756768207369676e61747572657300000000000000000000005f82015250565b5f6126f5601583612221565b9150612700826126c1565b602082019050919050565b5f6020820190508181035f830152612722816126e9565b9050919050565b5f60408201905061273c5f830185611c84565b6127496020830184611fc7565b9392505050565b5f80fd5b5f67ffffffffffffffff82111561276e5761276d611e31565b5b61277782611e21565b9050602081019050919050565b8281835e5f83830152505050565b5f6127a461279f84612754565b611e8f565b9050828152602081018484840111156127c0576127bf612750565b5b6127cb848285612784565b509392505050565b5f82601f8301126127e7576127e6611e1d565b5b81516127f7848260208601612792565b91505092915050565b5f8151905061280e81611d70565b92915050565b60028110612820575f80fd5b50565b5f8151905061283181612814565b92915050565b5f805f805f805f80610100898b03121561285457612853611c1e565b5b5f89015167ffffffffffffffff81111561287157612870611c22565b5b61287d8b828c016127d3565b985050602089015167ffffffffffffffff81111561289e5761289d611c22565b5b6128aa8b828c016127d3565b975050604089015167ffffffffffffffff8111156128cb576128ca611c22565b5b6128d78b828c016127d3565b96505060606128e88b828c01612800565b95505060806128f98b828c01612355565b94505060a061290a8b828c01612823565b93505060c061291b8b828c01612355565b92505060e061292c8b828c01612800565b9150509295985092959890939650565b7f436f6d6d756e69747920746f6b656e206e6f7420666f756e64000000000000005f82015250565b5f612970601983612221565b915061297b8261293c565b602082019050919050565b5f6020820190508181035f83015261299d81612964565b905091905056fea26469706673582212205aa97fdefa4b1034ea8738b9c564ffd11801bfe6fe4092ad93cb21645701242164736f6c634300081a0033",
					"opcodes": "PUSH1 0x80 PUSH1 0x40 MSTORE CALLVALUE DUP1 ISZERO PUSH1 0xE JUMPI PUSH0 DUP1 REVERT JUMPDEST POP PUSH2 0x29DA DUP1 PUSH2 0x1C PUSH0 CODECOPY PUSH0 RETURN INVALID PUSH1 0x80 PUSH1 0x40 MSTORE CALLVALUE DUP1 ISZERO PUSH2 0xF JUMPI PUSH0 DUP1 REVERT JUMPDEST POP PUSH1 0x4 CALLDATASIZE LT PUSH2 0xFE JUMPI PUSH0 CALLDATALOAD PUSH1 0xE0 SHR DUP1 PUSH4 0xC4D66DE8 GT PUSH2 0x95 JUMPI DUP1 PUSH4 0xDE04BBD2 GT PUSH2 0x64 JUMPI DUP1 PUSH4 0xDE04BBD2 EQ PUSH2 0x299 JUMPI DUP1 PUSH4 0xE7D3F1F9 EQ PUSH2 0x2B7 JUMPI DUP1 PUSH4 0xF2FDE38B EQ PUSH2 0x2E7 JUMPI DUP1 PUSH4 0xFADC1930 EQ PUSH2 0x303 JUMPI PUSH2 0xFE JUMP JUMPDEST DUP1 PUSH4 0xC4D66DE8 EQ PUSH2 0x215 JUMPI DUP1 PUSH4 0xC56B4AED EQ PUSH2 0x231 JUMPI DUP1 PUSH4 0xD599BA92 EQ PUSH2 0x24D JUMPI DUP1 PUSH4 0xD5D8617A EQ PUSH2 0x269 JUMPI PUSH2 0xFE JUMP JUMPDEST DUP1 PUSH4 0x715018A6 GT PUSH2 0xD1 JUMPI DUP1 PUSH4 0x715018A6 EQ PUSH2 0x19D JUMPI DUP1 PUSH4 0x8DA5CB5B EQ PUSH2 0x1A7 JUMPI DUP1 PUSH4 0xABA21009 EQ PUSH2 0x1C5 JUMPI DUP1 PUSH4 0xC0458DDC EQ PUSH2 0x1F9 JUMPI PUSH2 0xFE JUMP JUMPDEST DUP1 PUSH4 0x6428F02 EQ PUSH2 0x102 JUMPI DUP1 PUSH4 0x392EE8C1 EQ PUSH2 0x120 JUMPI DUP1 PUSH4 0x674E9C60 EQ PUSH2 0x151 JUMPI DUP1 PUSH4 0x69C43915 EQ PUSH2 0x181 JUMPI JUMPDEST PUSH0 DUP1 REVERT JUMPDEST PUSH2 0x10A PUSH2 0x31F JUMP JUMPDEST PUSH1 0x40 MLOAD PUSH2 0x117 SWAP2 SWAP1 PUSH2 0x1BFC JUMP JUMPDEST PUSH1 0x40 MLOAD DUP1 SWAP2 SUB SWAP1 RETURN JUMPDEST PUSH2 0x13A PUSH1 0x4 DUP1 CALLDATASIZE SUB DUP2 ADD SWAP1 PUSH2 0x135 SWAP2 SWAP1 PUSH2 0x1C59 JUMP JUMPDEST PUSH2 0x342 JUMP JUMPDEST PUSH1 0x40 MLOAD PUSH2 0x148 SWAP3 SWAP2 SWAP1 PUSH2 0x1D49 JUMP JUMPDEST PUSH1 0x40 MLOAD DUP1 SWAP2 SUB SWAP1 RETURN JUMPDEST PUSH2 0x16B PUSH1 0x4 DUP1 CALLDATASIZE SUB DUP2 ADD SWAP1 PUSH2 0x166 SWAP2 SWAP1 PUSH2 0x1D9A JUMP JUMPDEST PUSH2 0x3E6 JUMP JUMPDEST PUSH1 0x40 MLOAD PUSH2 0x178 SWAP2 SWAP1 PUSH2 0x1E04 JUMP JUMPDEST PUSH1 0x40 MLOAD DUP1 SWAP2 SUB SWAP1 RETURN JUMPDEST PUSH2 0x19B PUSH1 0x4 DUP1 CALLDATASIZE SUB DUP2 ADD SWAP1 PUSH2 0x196 SWAP2 SWAP1 PUSH2 0x1F6D JUMP JUMPDEST PUSH2 0x45D JUMP JUMPDEST STOP JUMPDEST PUSH2 0x1A5 PUSH2 0x9AA JUMP JUMPDEST STOP JUMPDEST PUSH2 0x1AF PUSH2 0x9BD JUMP JUMPDEST PUSH1 0x40 MLOAD PUSH2 0x1BC SWAP2 SWAP1 PUSH2 0x1FD6 JUMP JUMPDEST PUSH1 0x40 MLOAD DUP1 SWAP2 SUB SWAP1 RETURN JUMPDEST PUSH2 0x1DF PUSH1 0x4 DUP1 CALLDATASIZE SUB DUP2 ADD SWAP1 PUSH2 0x1DA SWAP2 SWAP1 PUSH2 0x1FEF JUMP JUMPDEST PUSH2 0x9F2 JUMP JUMPDEST PUSH1 0x40 MLOAD PUSH2 0x1F0 SWAP6 SWAP5 SWAP4 SWAP3 SWAP2 SWAP1 PUSH2 0x20A0 JUMP JUMPDEST PUSH1 0x40 MLOAD DUP1 SWAP2 SUB SWAP1 RETURN JUMPDEST PUSH2 0x213 PUSH1 0x4 DUP1 CALLDATASIZE SUB DUP2 ADD SWAP1 PUSH2 0x20E SWAP2 SWAP1 PUSH2 0x2114 JUMP JUMPDEST PUSH2 0xA80 JUMP JUMPDEST STOP JUMPDEST PUSH2 0x22F PUSH1 0x4 DUP1 CALLDATASIZE SUB DUP2 ADD SWAP1 PUSH2 0x22A SWAP2 SWAP1 PUSH2 0x218B JUMP JUMPDEST PUSH2 0xC23 JUMP JUMPDEST STOP JUMPDEST PUSH2 0x24B PUSH1 0x4 DUP1 CALLDATASIZE SUB DUP2 ADD SWAP1 PUSH2 0x246 SWAP2 SWAP1 PUSH2 0x218B JUMP JUMPDEST PUSH2 0xDA4 JUMP JUMPDEST STOP JUMPDEST PUSH2 0x267 PUSH1 0x4 DUP1 CALLDATASIZE SUB DUP2 ADD SWAP1 PUSH2 0x262 SWAP2 SWAP1 PUSH2 0x218B JUMP JUMPDEST PUSH2 0xDEE JUMP JUMPDEST STOP JUMPDEST PUSH2 0x283 PUSH1 0x4 DUP1 CALLDATASIZE SUB DUP2 ADD SWAP1 PUSH2 0x27E SWAP2 SWAP1 PUSH2 0x1C59 JUMP JUMPDEST PUSH2 0xE39 JUMP JUMPDEST PUSH1 0x40 MLOAD PUSH2 0x290 SWAP2 SWAP1 PUSH2 0x21B6 JUMP JUMPDEST PUSH1 0x40 MLOAD DUP1 SWAP2 SUB SWAP1 RETURN JUMPDEST PUSH2 0x2A1 PUSH2 0xE56 JUMP JUMPDEST PUSH1 0x40 MLOAD PUSH2 0x2AE SWAP2 SWAP1 PUSH2 0x21EF JUMP JUMPDEST PUSH1 0x40 MLOAD DUP1 SWAP2 SUB SWAP1 RETURN JUMPDEST PUSH2 0x2D1 PUSH1 0x4 DUP1 CALLDATASIZE SUB DUP2 ADD SWAP1 PUSH2 0x2CC SWAP2 SWAP1 PUSH2 0x1C59 JUMP JUMPDEST PUSH2 0xE7B JUMP JUMPDEST PUSH1 0x40 MLOAD PUSH2 0x2DE SWAP2 SWAP1 PUSH2 0x2208 JUMP JUMPDEST PUSH1 0x40 MLOAD DUP1 SWAP2 SUB SWAP1 RETURN JUMPDEST PUSH2 0x301 PUSH1 0x4 DUP1 CALLDATASIZE SUB DUP2 ADD SWAP1 PUSH2 0x2FC SWAP2 SWAP1 PUSH2 0x218B JUMP JUMPDEST PUSH2 0xF0F JUMP JUMPDEST STOP JUMPDEST PUSH2 0x31D PUSH1 0x4 DUP1 CALLDATASIZE SUB DUP2 ADD SWAP1 PUSH2 0x318 SWAP2 SWAP1 PUSH2 0x1FEF JUMP JUMPDEST PUSH2 0xF93 JUMP JUMPDEST STOP JUMPDEST PUSH0 DUP1 SLOAD SWAP1 PUSH2 0x100 EXP SWAP1 DIV PUSH20 0xFFFFFFFFFFFFFFFFFFFFFFFFFFFFFFFFFFFFFFFF AND DUP2 JUMP JUMPDEST PUSH0 PUSH2 0x34B PUSH2 0x1AC9 JUMP JUMPDEST PUSH0 PUSH1 0x2 PUSH0 DUP6 DUP2 MSTORE PUSH1 0x20 ADD SWAP1 DUP2 MSTORE PUSH1 0x20 ADD PUSH0 KECCAK256 SWAP1 POP DUP1 PUSH1 0x6 ADD SLOAD DUP2 PUSH1 0x1 ADD DUP1 PUSH1 0x5 DUP1 PUSH1 0x20 MUL PUSH1 0x40 MLOAD SWAP1 DUP2 ADD PUSH1 0x40 MSTORE DUP1 SWAP3 SWAP2 SWAP1 DUP3 PUSH1 0x5 DUP1 ISZERO PUSH2 0x3D5 JUMPI PUSH1 0x20 MUL DUP3 ADD SWAP2 JUMPDEST DUP2 PUSH0 SWAP1 SLOAD SWAP1 PUSH2 0x100 EXP SWAP1 DIV PUSH20 0xFFFFFFFFFFFFFFFFFFFFFFFFFFFFFFFFFFFFFFFF AND PUSH20 0xFFFFFFFFFFFFFFFFFFFFFFFFFFFFFFFFFFFFFFFF AND DUP2 MSTORE PUSH1 0x20 ADD SWAP1 PUSH1 0x1 ADD SWAP1 DUP1 DUP4 GT PUSH2 0x38C JUMPI JUMPDEST POP POP POP POP POP SWAP1 POP SWAP3 POP SWAP3 POP POP SWAP2 POP SWAP2 JUMP JUMPDEST PUSH0 PUSH1 0x2 PUSH0 DUP6 DUP2 MSTORE PUSH1 0x20 ADD SWAP1 DUP2 MSTORE PUSH1 0x20 ADD PUSH0 KECCAK256 PUSH0 ADD PUSH0 DUP5 DUP2 MSTORE PUSH1 0x20 ADD SWAP1 DUP2 MSTORE PUSH1 0x20 ADD PUSH0 KECCAK256 PUSH1 0x4 ADD PUSH0 DUP4 PUSH20 0xFFFFFFFFFFFFFFFFFFFFFFFFFFFFFFFFFFFFFFFF AND PUSH20 0xFFFFFFFFFFFFFFFFFFFFFFFFFFFFFFFFFFFFFFFF AND DUP2 MSTORE PUSH1 0x20 ADD SWAP1 DUP2 MSTORE PUSH1 0x20 ADD PUSH0 KECCAK256 PUSH0 SWAP1 SLOAD SWAP1 PUSH2 0x100 EXP SWAP1 DIV PUSH1 0xFF AND SWAP1 POP SWAP4 SWAP3 POP POP POP JUMP JUMPDEST PUSH0 DUP2 MLOAD GT PUSH2 0x4A0 JUMPI PUSH1 0x40 MLOAD PUSH32 0x8C379A000000000000000000000000000000000000000000000000000000000 DUP2 MSTORE PUSH1 0x4 ADD PUSH2 0x497 SWAP1 PUSH2 0x227B JUMP JUMPDEST PUSH1 0x40 MLOAD DUP1 SWAP2 SUB SWAP1 REVERT JUMPDEST PUSH0 PUSH20 0xFFFFFFFFFFFFFFFFFFFFFFFFFFFFFFFFFFFFFFFF AND PUSH1 0x1 PUSH0 SWAP1 SLOAD SWAP1 PUSH2 0x100 EXP SWAP1 DIV PUSH20 0xFFFFFFFFFFFFFFFFFFFFFFFFFFFFFFFFFFFFFFFF AND PUSH20 0xFFFFFFFFFFFFFFFFFFFFFFFFFFFFFFFFFFFFFFFF AND SUB PUSH2 0x52F JUMPI PUSH1 0x40 MLOAD PUSH32 0x8C379A000000000000000000000000000000000000000000000000000000000 DUP2 MSTORE PUSH1 0x4 ADD PUSH2 0x526 SWAP1 PUSH2 0x22E3 JUMP JUMPDEST PUSH1 0x40 MLOAD DUP1 SWAP2 SUB SWAP1 REVERT JUMPDEST PUSH0 DUP2 MLOAD PUSH8 0xFFFFFFFFFFFFFFFF DUP2 GT ISZERO PUSH2 0x54B JUMPI PUSH2 0x54A PUSH2 0x1E31 JUMP JUMPDEST JUMPDEST PUSH1 0x40 MLOAD SWAP1 DUP1 DUP3 MSTORE DUP1 PUSH1 0x20 MUL PUSH1 0x20 ADD DUP3 ADD PUSH1 0x40 MSTORE DUP1 ISZERO PUSH2 0x579 JUMPI DUP2 PUSH1 0x20 ADD PUSH1 0x20 DUP3 MUL DUP1 CALLDATASIZE DUP4 CALLDATACOPY DUP1 DUP3 ADD SWAP2 POP POP SWAP1 POP JUMPDEST POP SWAP1 POP PUSH0 JUMPDEST DUP3 MLOAD DUP2 LT ISZERO PUSH2 0x68F JUMPI PUSH1 0x1 PUSH0 SWAP1 SLOAD SWAP1 PUSH2 0x100 EXP SWAP1 DIV PUSH20 0xFFFFFFFFFFFFFFFFFFFFFFFFFFFFFFFFFFFFFFFF AND PUSH20 0xFFFFFFFFFFFFFFFFFFFFFFFFFFFFFFFFFFFFFFFF AND PUSH4 0xD91D9733 DUP5 DUP4 DUP2 MLOAD DUP2 LT PUSH2 0x5D7 JUMPI PUSH2 0x5D6 PUSH2 0x2301 JUMP JUMPDEST JUMPDEST PUSH1 0x20 MUL PUSH1 0x20 ADD ADD MLOAD DUP7 PUSH1 0x40 MLOAD DUP4 PUSH4 0xFFFFFFFF AND PUSH1 0xE0 SHL DUP2 MSTORE PUSH1 0x4 ADD PUSH2 0x5FD SWAP3 SWAP2 SWAP1 PUSH2 0x232E JUMP JUMPDEST PUSH1 0x20 PUSH1 0x40 MLOAD DUP1 DUP4 SUB DUP2 DUP7 GAS STATICCALL SWAP3 POP POP POP DUP1 ISZERO PUSH2 0x637 JUMPI POP PUSH1 0x40 MLOAD RETURNDATASIZE PUSH1 0x1F NOT PUSH1 0x1F DUP3 ADD AND DUP3 ADD DUP1 PUSH1 0x40 MSTORE POP DUP2 ADD SWAP1 PUSH2 0x634 SWAP2 SWAP1 PUSH2 0x2369 JUMP JUMPDEST PUSH1 0x1 JUMPDEST PUSH2 0x660 JUMPI PUSH0 DUP3 DUP3 DUP2 MLOAD DUP2 LT PUSH2 0x64F JUMPI PUSH2 0x64E PUSH2 0x2301 JUMP JUMPDEST JUMPDEST PUSH1 0x20 MUL PUSH1 0x20 ADD ADD DUP2 DUP2 MSTORE POP POP PUSH2 0x682 JUMP JUMPDEST DUP1 DUP4 DUP4 DUP2 MLOAD DUP2 LT PUSH2 0x674 JUMPI PUSH2 0x673 PUSH2 0x2301 JUMP JUMPDEST JUMPDEST PUSH1 0x20 MUL PUSH1 0x20 ADD ADD DUP2 DUP2 MSTORE POP POP POP JUMPDEST DUP1 DUP1 PUSH1 0x1 ADD SWAP2 POP POP PUSH2 0x57E JUMP JUMPDEST POP PUSH0 PUSH1 0x5 DUP4 MLOAD LT PUSH2 0x6A1 JUMPI PUSH1 0x5 PUSH2 0x6A4 JUMP JUMPDEST DUP3 MLOAD JUMPDEST SWAP1 POP PUSH2 0x6AE PUSH2 0x1AC9 JUMP JUMPDEST PUSH0 JUMPDEST DUP3 DUP2 LT ISZERO PUSH2 0x8DF JUMPI PUSH0 DUP2 SWAP1 POP PUSH0 PUSH1 0x1 DUP4 PUSH2 0x6CA SWAP2 SWAP1 PUSH2 0x23C1 JUMP JUMPDEST SWAP1 POP JUMPDEST DUP7 MLOAD DUP2 LT ISZERO PUSH2 0x723 JUMPI DUP6 DUP3 DUP2 MLOAD DUP2 LT PUSH2 0x6E9 JUMPI PUSH2 0x6E8 PUSH2 0x2301 JUMP JUMPDEST JUMPDEST PUSH1 0x20 MUL PUSH1 0x20 ADD ADD MLOAD DUP7 DUP3 DUP2 MLOAD DUP2 LT PUSH2 0x704 JUMPI PUSH2 0x703 PUSH2 0x2301 JUMP JUMPDEST JUMPDEST PUSH1 0x20 MUL PUSH1 0x20 ADD ADD MLOAD GT ISZERO PUSH2 0x716 JUMPI DUP1 SWAP2 POP JUMPDEST DUP1 DUP1 PUSH1 0x1 ADD SWAP2 POP POP PUSH2 0x6CD JUMP JUMPDEST POP DUP2 DUP2 EQ PUSH2 0x86C JUMPI DUP6 DUP2 DUP2 MLOAD DUP2 LT PUSH2 0x73E JUMPI PUSH2 0x73D PUSH2 0x2301 JUMP JUMPDEST JUMPDEST PUSH1 0x20 MUL PUSH1 0x20 ADD ADD MLOAD DUP7 DUP4 DUP2 MLOAD DUP2 LT PUSH2 0x759 JUMPI PUSH2 0x758 PUSH2 0x2301 JUMP JUMPDEST JUMPDEST PUSH1 0x20 MUL PUSH1 0x20 ADD ADD MLOAD DUP8 DUP5 DUP2 MLOAD DUP2 LT PUSH2 0x774 JUMPI PUSH2 0x773 PUSH2 0x2301 JUMP JUMPDEST JUMPDEST PUSH1 0x20 MUL PUSH1 0x20 ADD ADD DUP9 DUP5 DUP2 MLOAD DUP2 LT PUSH2 0x78E JUMPI PUSH2 0x78D PUSH2 0x2301 JUMP JUMPDEST JUMPDEST PUSH1 0x20 MUL PUSH1 0x20 ADD ADD DUP3 PUSH20 0xFFFFFFFFFFFFFFFFFFFFFFFFFFFFFFFFFFFFFFFF AND PUSH20 0xFFFFFFFFFFFFFFFFFFFFFFFFFFFFFFFFFFFFFFFF AND DUP2 MSTORE POP DUP3 PUSH20 0xFFFFFFFFFFFFFFFFFFFFFFFFFFFFFFFFFFFFFFFF AND PUSH20 0xFFFFFFFFFFFFFFFFFFFFFFFFFFFFFFFFFFFFFFFF AND DUP2 MSTORE POP POP POP DUP5 DUP2 DUP2 MLOAD DUP2 LT PUSH2 0x80A JUMPI PUSH2 0x809 PUSH2 0x2301 JUMP JUMPDEST JUMPDEST PUSH1 0x20 MUL PUSH1 0x20 ADD ADD MLOAD DUP6 DUP4 DUP2 MLOAD DUP2 LT PUSH2 0x825 JUMPI PUSH2 0x824 PUSH2 0x2301 JUMP JUMPDEST JUMPDEST PUSH1 0x20 MUL PUSH1 0x20 ADD ADD MLOAD DUP7 DUP5 DUP2 MLOAD DUP2 LT PUSH2 0x840 JUMPI PUSH2 0x83F PUSH2 0x2301 JUMP JUMPDEST JUMPDEST PUSH1 0x20 MUL PUSH1 0x20 ADD ADD DUP8 DUP5 DUP2 MLOAD DUP2 LT PUSH2 0x85A JUMPI PUSH2 0x859 PUSH2 0x2301 JUMP JUMPDEST JUMPDEST PUSH1 0x20 MUL PUSH1 0x20 ADD ADD DUP3 DUP2 MSTORE POP DUP3 DUP2 MSTORE POP POP POP JUMPDEST DUP6 DUP3 DUP2 MLOAD DUP2 LT PUSH2 0x87F JUMPI PUSH2 0x87E PUSH2 0x2301 JUMP JUMPDEST JUMPDEST PUSH1 0x20 MUL PUSH1 0x20 ADD ADD MLOAD DUP4 DUP4 PUSH1 0x5 DUP2 LT PUSH2 0x89A JUMPI PUSH2 0x899 PUSH2 0x2301 JUMP JUMPDEST JUMPDEST PUSH1 0x20 MUL ADD SWAP1 PUSH20 0xFFFFFFFFFFFFFFFFFFFFFFFFFFFFFFFFFFFFFFFF AND SWAP1 DUP2 PUSH20 0xFFFFFFFFFFFFFFFFFFFFFFFFFFFFFFFFFFFFFFFF AND DUP2 MSTORE POP POP POP DUP1 DUP1 PUSH1 0x1 ADD SWAP2 POP POP PUSH2 0x6B0 JUMP JUMPDEST POP PUSH0 DUP3 SWAP1 POP JUMPDEST PUSH1 0x5 DUP2 LT ISZERO PUSH2 0x946 JUMPI PUSH0 DUP3 DUP3 PUSH1 0x5 DUP2 LT PUSH2 0x902 JUMPI PUSH2 0x901 PUSH2 0x2301 JUMP JUMPDEST JUMPDEST PUSH1 0x20 MUL ADD SWAP1 PUSH20 0xFFFFFFFFFFFFFFFFFFFFFFFFFFFFFFFFFFFFFFFF AND SWAP1 DUP2 PUSH20 0xFFFFFFFFFFFFFFFFFFFFFFFFFFFFFFFFFFFFFFFF AND DUP2 MSTORE POP POP DUP1 DUP1 PUSH1 0x1 ADD SWAP2 POP POP PUSH2 0x8E5 JUMP JUMPDEST POP DUP1 PUSH1 0x2 PUSH0 DUP8 DUP2 MSTORE PUSH1 0x20 ADD SWAP1 DUP2 MSTORE PUSH1 0x20 ADD PUSH0 KECCAK256 PUSH1 0x1 ADD SWAP1 PUSH1 0x5 PUSH2 0x96A SWAP3 SWAP2 SWAP1 PUSH2 0x1AEB JUMP JUMPDEST POP DUP5 PUSH32 0xD725B01F2A8656CDF0767F5C4125384F89EB28243DE781481360D45343029CB DUP3 PUSH1 0x40 MLOAD PUSH2 0x99B SWAP2 SWAP1 PUSH2 0x2208 JUMP JUMPDEST PUSH1 0x40 MLOAD DUP1 SWAP2 SUB SWAP1 LOG2 POP POP POP POP POP JUMP JUMPDEST PUSH2 0x9B2 PUSH2 0x126D JUMP JUMPDEST PUSH2 0x9BB PUSH0 PUSH2 0x12F4 JUMP JUMPDEST JUMP JUMPDEST PUSH0 DUP1 PUSH2 0x9C7 PUSH2 0x13C5 JUMP JUMPDEST SWAP1 POP DUP1 PUSH0 ADD PUSH0 SWAP1 SLOAD SWAP1 PUSH2 0x100 EXP SWAP1 DIV PUSH20 0xFFFFFFFFFFFFFFFFFFFFFFFFFFFFFFFFFFFFFFFF AND SWAP2 POP POP SWAP1 JUMP JUMPDEST PUSH0 DUP1 PUSH0 DUP1 PUSH0 DUP1 PUSH1 0x2 PUSH0 DUP10 DUP2 MSTORE PUSH1 0x20 ADD SWAP1 DUP2 MSTORE PUSH1 0x20 ADD PUSH0 KECCAK256 PUSH0 ADD PUSH0 DUP9 DUP2 MSTORE PUSH1 0x20 ADD SWAP1 DUP2 MSTORE PUSH1 0x20 ADD PUSH0 KECCAK256 SWAP1 POP DUP1 PUSH0 ADD PUSH0 SWAP1 SLOAD SWAP1 PUSH2 0x100 EXP SWAP1 DIV PUSH1 0xFF AND DUP2 PUSH1 0x1 ADD SLOAD DUP3 PUSH1 0x2 ADD PUSH0 SWAP1 SLOAD SWAP1 PUSH2 0x100 EXP SWAP1 DIV PUSH20 0xFFFFFFFFFFFFFFFFFFFFFFFFFFFFFFFFFFFFFFFF AND DUP4 PUSH1 0x3 ADD SLOAD DUP5 PUSH1 0x5 ADD PUSH0 SWAP1 SLOAD SWAP1 PUSH2 0x100 EXP SWAP1 DIV PUSH1 0xFF AND SWAP6 POP SWAP6 POP SWAP6 POP SWAP6 POP SWAP6 POP POP SWAP3 SWAP6 POP SWAP3 SWAP6 SWAP1 SWAP4 POP JUMP JUMPDEST PUSH0 PUSH1 0x2 PUSH0 DUP8 DUP2 MSTORE PUSH1 0x20 ADD SWAP1 DUP2 MSTORE PUSH1 0x20 ADD PUSH0 KECCAK256 PUSH0 ADD PUSH0 DUP7 DUP2 MSTORE PUSH1 0x20 ADD SWAP1 DUP2 MSTORE PUSH1 0x20 ADD PUSH0 KECCAK256 PUSH1 0x3 ADD SLOAD EQ PUSH2 0xAE7 JUMPI PUSH1 0x40 MLOAD PUSH32 0x8C379A000000000000000000000000000000000000000000000000000000000 DUP2 MSTORE PUSH1 0x4 ADD PUSH2 0xADE SWAP1 PUSH2 0x243E JUMP JUMPDEST PUSH1 0x40 MLOAD DUP1 SWAP2 SUB SWAP1 REVERT JUMPDEST PUSH0 PUSH1 0x2 PUSH0 DUP8 DUP2 MSTORE PUSH1 0x20 ADD SWAP1 DUP2 MSTORE PUSH1 0x20 ADD PUSH0 KECCAK256 PUSH0 ADD PUSH0 DUP7 DUP2 MSTORE PUSH1 0x20 ADD SWAP1 DUP2 MSTORE PUSH1 0x20 ADD PUSH0 KECCAK256 SWAP1 POP DUP4 DUP2 PUSH0 ADD PUSH0 PUSH2 0x100 EXP DUP2 SLOAD DUP2 PUSH1 0xFF MUL NOT AND SWAP1 DUP4 PUSH1 0x2 DUP2 GT ISZERO PUSH2 0xB31 JUMPI PUSH2 0xB30 PUSH2 0x202D JUMP JUMPDEST JUMPDEST MUL OR SWAP1 SSTORE POP DUP3 DUP2 PUSH1 0x1 ADD DUP2 SWAP1 SSTORE POP DUP2 DUP2 PUSH1 0x2 ADD PUSH0 PUSH2 0x100 EXP DUP2 SLOAD DUP2 PUSH20 0xFFFFFFFFFFFFFFFFFFFFFFFFFFFFFFFFFFFFFFFF MUL NOT AND SWAP1 DUP4 PUSH20 0xFFFFFFFFFFFFFFFFFFFFFFFFFFFFFFFFFFFFFFFF AND MUL OR SWAP1 SSTORE POP PUSH1 0x1 DUP2 PUSH1 0x3 ADD DUP2 SWAP1 SSTORE POP PUSH1 0x1 DUP2 PUSH1 0x4 ADD PUSH0 CALLER PUSH20 0xFFFFFFFFFFFFFFFFFFFFFFFFFFFFFFFFFFFFFFFF AND PUSH20 0xFFFFFFFFFFFFFFFFFFFFFFFFFFFFFFFFFFFFFFFF AND DUP2 MSTORE PUSH1 0x20 ADD SWAP1 DUP2 MSTORE PUSH1 0x20 ADD PUSH0 KECCAK256 PUSH0 PUSH2 0x100 EXP DUP2 SLOAD DUP2 PUSH1 0xFF MUL NOT AND SWAP1 DUP4 ISZERO ISZERO MUL OR SWAP1 SSTORE POP DUP5 DUP7 PUSH32 0xB6E96F518C19CFFCFBA1957109656F5D029C7562F7B417E9556D302C857C090F DUP7 PUSH1 0x40 MLOAD PUSH2 0xC13 SWAP2 SWAP1 PUSH2 0x245C JUMP JUMPDEST PUSH1 0x40 MLOAD DUP1 SWAP2 SUB SWAP1 LOG3 POP POP POP POP POP POP JUMP JUMPDEST PUSH0 PUSH2 0xC2C PUSH2 0x13EC JUMP JUMPDEST SWAP1 POP PUSH0 DUP2 PUSH0 ADD PUSH1 0x8 SWAP1 SLOAD SWAP1 PUSH2 0x100 EXP SWAP1 DIV PUSH1 0xFF AND ISZERO SWAP1 POP PUSH0 DUP3 PUSH0 ADD PUSH0 SWAP1 SLOAD SWAP1 PUSH2 0x100 EXP SWAP1 DIV PUSH8 0xFFFFFFFFFFFFFFFF AND SWAP1 POP PUSH0 DUP1 DUP3 PUSH8 0xFFFFFFFFFFFFFFFF AND EQ DUP1 ISZERO PUSH2 0xC74 JUMPI POP DUP3 JUMPDEST SWAP1 POP PUSH0 PUSH1 0x1 DUP4 PUSH8 0xFFFFFFFFFFFFFFFF AND EQ DUP1 ISZERO PUSH2 0xCA7 JUMPI POP PUSH0 ADDRESS PUSH20 0xFFFFFFFFFFFFFFFFFFFFFFFFFFFFFFFFFFFFFFFF AND EXTCODESIZE EQ JUMPDEST SWAP1 POP DUP2 ISZERO DUP1 ISZERO PUSH2 0xCB5 JUMPI POP DUP1 ISZERO JUMPDEST ISZERO PUSH2 0xCEC JUMPI PUSH1 0x40 MLOAD PUSH32 0xF92EE8A900000000000000000000000000000000000000000000000000000000 DUP2 MSTORE PUSH1 0x4 ADD PUSH1 0x40 MLOAD DUP1 SWAP2 SUB SWAP1 REVERT JUMPDEST PUSH1 0x1 DUP6 PUSH0 ADD PUSH0 PUSH2 0x100 EXP DUP2 SLOAD DUP2 PUSH8 0xFFFFFFFFFFFFFFFF MUL NOT AND SWAP1 DUP4 PUSH8 0xFFFFFFFFFFFFFFFF AND MUL OR SWAP1 SSTORE POP DUP4 ISZERO PUSH2 0xD39 JUMPI PUSH1 0x1 DUP6 PUSH0 ADD PUSH1 0x8 PUSH2 0x100 EXP DUP2 SLOAD DUP2 PUSH1 0xFF MUL NOT AND SWAP1 DUP4 ISZERO ISZERO MUL OR SWAP1 SSTORE POP JUMPDEST PUSH2 0xD42 DUP7 PUSH2 0x1413 JUMP JUMPDEST DUP4 ISZERO PUSH2 0xD9C JUMPI PUSH0 DUP6 PUSH0 ADD PUSH1 0x8 PUSH2 0x100 EXP DUP2 SLOAD DUP2 PUSH1 0xFF MUL NOT AND SWAP1 DUP4 ISZERO ISZERO MUL OR SWAP1 SSTORE POP PUSH32 0xC7F505B2F371AE2175EE4913F4499E1F2633A7B5936321EED1CDAEB6115181D2 PUSH1 0x1 PUSH1 0x40 MLOAD PUSH2 0xD93 SWAP2 SWAP1 PUSH2 0x24C1 JUMP JUMPDEST PUSH1 0x40 MLOAD DUP1 SWAP2 SUB SWAP1 LOG1 JUMPDEST POP POP POP POP POP POP JUMP JUMPDEST PUSH2 0xDAC PUSH2 0x126D JUMP JUMPDEST DUP1 PUSH0 DUP1 PUSH2 0x100 EXP DUP2 SLOAD DUP2 PUSH20 0xFFFFFFFFFFFFFFFFFFFFFFFFFFFFFFFFFFFFFFFF MUL NOT AND SWAP1 DUP4 PUSH20 0xFFFFFFFFFFFFFFFFFFFFFFFFFFFFFFFFFFFFFFFF AND MUL OR SWAP1 SSTORE POP POP JUMP JUMPDEST PUSH2 0xDF6 PUSH2 0x126D JUMP JUMPDEST DUP1 PUSH1 0x1 PUSH0 PUSH2 0x100 EXP DUP2 SLOAD DUP2 PUSH20 0xFFFFFFFFFFFFFFFFFFFFFFFFFFFFFFFFFFFFFFFF MUL NOT AND SWAP1 DUP4 PUSH20 0xFFFFFFFFFFFFFFFFFFFFFFFFFFFFFFFFFFFFFFFF AND MUL OR SWAP1 SSTORE POP POP JUMP JUMPDEST PUSH0 PUSH1 0x2 PUSH0 DUP4 DUP2 MSTORE PUSH1 0x20 ADD SWAP1 DUP2 MSTORE PUSH1 0x20 ADD PUSH0 KECCAK256 PUSH1 0x6 ADD SLOAD SWAP1 POP SWAP2 SWAP1 POP JUMP JUMPDEST PUSH1 0x1 PUSH0 SWAP1 SLOAD SWAP1 PUSH2 0x100 EXP SWAP1 DIV PUSH20 0xFFFFFFFFFFFFFFFFFFFFFFFFFFFFFFFFFFFFFFFF AND DUP2 JUMP JUMPDEST PUSH2 0xE83 PUSH2 0x1AC9 JUMP JUMPDEST PUSH1 0x2 PUSH0 DUP4 DUP2 MSTORE PUSH1 0x20 ADD SWAP1 DUP2 MSTORE PUSH1 0x20 ADD PUSH0 KECCAK256 PUSH1 0x1 ADD PUSH1 0x5 DUP1 PUSH1 0x20 MUL PUSH1 0x40 MLOAD SWAP1 DUP2 ADD PUSH1 0x40 MSTORE DUP1 SWAP3 SWAP2 SWAP1 DUP3 PUSH1 0x5 DUP1 ISZERO PUSH2 0xF03 JUMPI PUSH1 0x20 MUL DUP3 ADD SWAP2 JUMPDEST DUP2 PUSH0 SWAP1 SLOAD SWAP1 PUSH2 0x100 EXP SWAP1 DIV PUSH20 0xFFFFFFFFFFFFFFFFFFFFFFFFFFFFFFFFFFFFFFFF AND PUSH20 0xFFFFFFFFFFFFFFFFFFFFFFFFFFFFFFFFFFFFFFFF AND DUP2 MSTORE PUSH1 0x20 ADD SWAP1 PUSH1 0x1 ADD SWAP1 DUP1 DUP4 GT PUSH2 0xEBA JUMPI JUMPDEST POP POP POP POP POP SWAP1 POP SWAP2 SWAP1 POP JUMP JUMPDEST PUSH2 0xF17 PUSH2 0x126D JUMP JUMPDEST PUSH0 PUSH20 0xFFFFFFFFFFFFFFFFFFFFFFFFFFFFFFFFFFFFFFFF AND DUP2 PUSH20 0xFFFFFFFFFFFFFFFFFFFFFFFFFFFFFFFFFFFFFFFF AND SUB PUSH2 0xF87 JUMPI PUSH0 PUSH1 0x40 MLOAD PUSH32 0x1E4FBDF700000000000000000000000000000000000000000000000000000000 DUP2 MSTORE PUSH1 0x4 ADD PUSH2 0xF7E SWAP2 SWAP1 PUSH2 0x1FD6 JUMP JUMPDEST PUSH1 0x40 MLOAD DUP1 SWAP2 SUB SWAP1 REVERT JUMPDEST PUSH2 0xF90 DUP2 PUSH2 0x12F4 JUMP JUMPDEST POP JUMP JUMPDEST PUSH2 0x1021 CALLER PUSH1 0x2 PUSH0 DUP6 DUP2 MSTORE PUSH1 0x20 ADD SWAP1 DUP2 MSTORE PUSH1 0x20 ADD PUSH0 KECCAK256 PUSH1 0x1 ADD PUSH1 0x5 DUP1 PUSH1 0x20 MUL PUSH1 0x40 MLOAD SWAP1 DUP2 ADD PUSH1 0x40 MSTORE DUP1 SWAP3 SWAP2 SWAP1 DUP3 PUSH1 0x5 DUP1 ISZERO PUSH2 0x1017 JUMPI PUSH1 0x20 MUL DUP3 ADD SWAP2 JUMPDEST DUP2 PUSH0 SWAP1 SLOAD SWAP1 PUSH2 0x100 EXP SWAP1 DIV PUSH20 0xFFFFFFFFFFFFFFFFFFFFFFFFFFFFFFFFFFFFFFFF AND PUSH20 0xFFFFFFFFFFFFFFFFFFFFFFFFFFFFFFFFFFFFFFFF AND DUP2 MSTORE PUSH1 0x20 ADD SWAP1 PUSH1 0x1 ADD SWAP1 DUP1 DUP4 GT PUSH2 0xFCE JUMPI JUMPDEST POP POP POP POP POP PUSH2 0x1427 JUMP JUMPDEST PUSH2 0x1060 JUMPI PUSH1 0x40 MLOAD PUSH32 0x8C379A000000000000000000000000000000000000000000000000000000000 DUP2 MSTORE PUSH1 0x4 ADD PUSH2 0x1057 SWAP1 PUSH2 0x2524 JUMP JUMPDEST PUSH1 0x40 MLOAD DUP1 SWAP2 SUB SWAP1 REVERT JUMPDEST PUSH0 PUSH1 0x2 PUSH0 DUP5 DUP2 MSTORE PUSH1 0x20 ADD SWAP1 DUP2 MSTORE PUSH1 0x20 ADD PUSH0 KECCAK256 PUSH0 ADD PUSH0 DUP4 DUP2 MSTORE PUSH1 0x20 ADD SWAP1 DUP2 MSTORE PUSH1 0x20 ADD PUSH0 KECCAK256 SWAP1 POP PUSH0 DUP2 PUSH1 0x3 ADD SLOAD GT PUSH2 0x10CB JUMPI PUSH1 0x40 MLOAD PUSH32 0x8C379A000000000000000000000000000000000000000000000000000000000 DUP2 MSTORE PUSH1 0x4 ADD PUSH2 0x10C2 SWAP1 PUSH2 0x258C JUMP JUMPDEST PUSH1 0x40 MLOAD DUP1 SWAP2 SUB SWAP1 REVERT JUMPDEST DUP1 PUSH1 0x5 ADD PUSH0 SWAP1 SLOAD SWAP1 PUSH2 0x100 EXP SWAP1 DIV PUSH1 0xFF AND ISZERO PUSH2 0x111C JUMPI PUSH1 0x40 MLOAD PUSH32 0x8C379A000000000000000000000000000000000000000000000000000000000 DUP2 MSTORE PUSH1 0x4 ADD PUSH2 0x1113 SWAP1 PUSH2 0x25F4 JUMP JUMPDEST PUSH1 0x40 MLOAD DUP1 SWAP2 SUB SWAP1 REVERT JUMPDEST DUP1 PUSH1 0x4 ADD PUSH0 CALLER PUSH20 0xFFFFFFFFFFFFFFFFFFFFFFFFFFFFFFFFFFFFFFFF AND PUSH20 0xFFFFFFFFFFFFFFFFFFFFFFFFFFFFFFFFFFFFFFFF AND DUP2 MSTORE PUSH1 0x20 ADD SWAP1 DUP2 MSTORE PUSH1 0x20 ADD PUSH0 KECCAK256 PUSH0 SWAP1 SLOAD SWAP1 PUSH2 0x100 EXP SWAP1 DIV PUSH1 0xFF AND ISZERO PUSH2 0x11A8 JUMPI PUSH1 0x40 MLOAD PUSH32 0x8C379A000000000000000000000000000000000000000000000000000000000 DUP2 MSTORE PUSH1 0x4 ADD PUSH2 0x119F SWAP1 PUSH2 0x265C JUMP JUMPDEST PUSH1 0x40 MLOAD DUP1 SWAP2 SUB SWAP1 REVERT JUMPDEST PUSH1 0x1 DUP2 PUSH1 0x4 ADD PUSH0 CALLER PUSH20 0xFFFFFFFFFFFFFFFFFFFFFFFFFFFFFFFFFFFFFFFF AND PUSH20 0xFFFFFFFFFFFFFFFFFFFFFFFFFFFFFFFFFFFFFFFF AND DUP2 MSTORE PUSH1 0x20 ADD SWAP1 DUP2 MSTORE PUSH1 0x20 ADD PUSH0 KECCAK256 PUSH0 PUSH2 0x100 EXP DUP2 SLOAD DUP2 PUSH1 0xFF MUL NOT AND SWAP1 DUP4 ISZERO ISZERO MUL OR SWAP1 SSTORE POP DUP1 PUSH1 0x3 ADD PUSH0 DUP2 SLOAD DUP1 SWAP3 SWAP2 SWAP1 PUSH2 0x1213 SWAP1 PUSH2 0x267A JUMP JUMPDEST SWAP2 SWAP1 POP SSTORE POP DUP2 DUP4 PUSH32 0x256519EB26D028F45EB678B9C4CF084619387132430E282B40FD12A40B4E2732 CALLER PUSH1 0x40 MLOAD PUSH2 0x1249 SWAP2 SWAP1 PUSH2 0x1FD6 JUMP JUMPDEST PUSH1 0x40 MLOAD DUP1 SWAP2 SUB SWAP1 LOG3 PUSH1 0x3 DUP2 PUSH1 0x3 ADD SLOAD LT PUSH2 0x1268 JUMPI PUSH2 0x1267 DUP4 DUP4 PUSH2 0x14ED JUMP JUMPDEST JUMPDEST POP POP POP JUMP JUMPDEST PUSH2 0x1275 PUSH2 0x16FF JUMP JUMPDEST PUSH20 0xFFFFFFFFFFFFFFFFFFFFFFFFFFFFFFFFFFFFFFFF AND PUSH2 0x1293 PUSH2 0x9BD JUMP JUMPDEST PUSH20 0xFFFFFFFFFFFFFFFFFFFFFFFFFFFFFFFFFFFFFFFF AND EQ PUSH2 0x12F2 JUMPI PUSH2 0x12B6 PUSH2 0x16FF JUMP JUMPDEST PUSH1 0x40 MLOAD PUSH32 0x118CDAA700000000000000000000000000000000000000000000000000000000 DUP2 MSTORE PUSH1 0x4 ADD PUSH2 0x12E9 SWAP2 SWAP1 PUSH2 0x1FD6 JUMP JUMPDEST PUSH1 0x40 MLOAD DUP1 SWAP2 SUB SWAP1 REVERT JUMPDEST JUMP JUMPDEST PUSH0 PUSH2 0x12FD PUSH2 0x13C5 JUMP JUMPDEST SWAP1 POP PUSH0 DUP2 PUSH0 ADD PUSH0 SWAP1 SLOAD SWAP1 PUSH2 0x100 EXP SWAP1 DIV PUSH20 0xFFFFFFFFFFFFFFFFFFFFFFFFFFFFFFFFFFFFFFFF AND SWAP1 POP DUP3 DUP3 PUSH0 ADD PUSH0 PUSH2 0x100 EXP DUP2 SLOAD DUP2 PUSH20 0xFFFFFFFFFFFFFFFFFFFFFFFFFFFFFFFFFFFFFFFF MUL NOT AND SWAP1 DUP4 PUSH20 0xFFFFFFFFFFFFFFFFFFFFFFFFFFFFFFFFFFFFFFFF AND MUL OR SWAP1 SSTORE POP DUP3 PUSH20 0xFFFFFFFFFFFFFFFFFFFFFFFFFFFFFFFFFFFFFFFF AND DUP2 PUSH20 0xFFFFFFFFFFFFFFFFFFFFFFFFFFFFFFFFFFFFFFFF AND PUSH32 0x8BE0079C531659141344CD1FD0A4F28419497F9722A3DAAFE3B4186F6B6457E0 PUSH1 0x40 MLOAD PUSH1 0x40 MLOAD DUP1 SWAP2 SUB SWAP1 LOG3 POP POP POP JUMP JUMPDEST PUSH0 PUSH32 0x9016D09D72D40FDAE2FD8CEAC6B6234C7706214FD39C1CD1E609A0528C199300 SWAP1 POP SWAP1 JUMP JUMPDEST PUSH0 PUSH32 0xF0C57E16840DF040F15088DC2F81FE391C3923BEC73E23A9662EFC9C229C6A00 SWAP1 POP SWAP1 JUMP JUMPDEST PUSH2 0x141B PUSH2 0x1706 JUMP JUMPDEST PUSH2 0x1424 DUP2 PUSH2 0x1746 JUMP JUMPDEST POP JUMP JUMPDEST PUSH0 DUP1 PUSH0 SWAP1 POP JUMPDEST PUSH1 0x5 DUP2 LT ISZERO PUSH2 0x14E2 JUMPI DUP4 PUSH20 0xFFFFFFFFFFFFFFFFFFFFFFFFFFFFFFFFFFFFFFFF AND DUP4 DUP3 PUSH1 0x5 DUP2 LT PUSH2 0x1460 JUMPI PUSH2 0x145F PUSH2 0x2301 JUMP JUMPDEST JUMPDEST PUSH1 0x20 MUL ADD MLOAD PUSH20 0xFFFFFFFFFFFFFFFFFFFFFFFFFFFFFFFFFFFFFFFF AND SUB PUSH2 0x148A JUMPI PUSH1 0x1 SWAP2 POP POP PUSH2 0x14E7 JUMP JUMPDEST PUSH0 PUSH20 0xFFFFFFFFFFFFFFFFFFFFFFFFFFFFFFFFFFFFFFFF AND DUP4 DUP3 PUSH1 0x5 DUP2 LT PUSH2 0x14B4 JUMPI PUSH2 0x14B3 PUSH2 0x2301 JUMP JUMPDEST JUMPDEST PUSH1 0x20 MUL ADD MLOAD PUSH20 0xFFFFFFFFFFFFFFFFFFFFFFFFFFFFFFFFFFFFFFFF AND SUB ISZERO PUSH2 0x14E2 JUMPI DUP1 DUP1 PUSH1 0x1 ADD SWAP2 POP POP PUSH2 0x142D JUMP JUMPDEST POP PUSH0 SWAP1 POP JUMPDEST SWAP3 SWAP2 POP POP JUMP JUMPDEST PUSH0 PUSH1 0x2 PUSH0 DUP5 DUP2 MSTORE PUSH1 0x20 ADD SWAP1 DUP2 MSTORE PUSH1 0x20 ADD PUSH0 KECCAK256 PUSH0 ADD PUSH0 DUP4 DUP2 MSTORE PUSH1 0x20 ADD SWAP1 DUP2 MSTORE PUSH1 0x20 ADD PUSH0 KECCAK256 SWAP1 POP DUP1 PUSH1 0x5 ADD PUSH0 SWAP1 SLOAD SWAP1 PUSH2 0x100 EXP SWAP1 DIV PUSH1 0xFF AND ISZERO PUSH2 0x1563 JUMPI PUSH1 0x40 MLOAD PUSH32 0x8C379A000000000000000000000000000000000000000000000000000000000 DUP2 MSTORE PUSH1 0x4 ADD PUSH2 0x155A SWAP1 PUSH2 0x25F4 JUMP JUMPDEST PUSH1 0x40 MLOAD DUP1 SWAP2 SUB SWAP1 REVERT JUMPDEST PUSH1 0x3 DUP2 PUSH1 0x3 ADD SLOAD LT ISZERO PUSH2 0x15AB JUMPI PUSH1 0x40 MLOAD PUSH32 0x8C379A000000000000000000000000000000000000000000000000000000000 DUP2 MSTORE PUSH1 0x4 ADD PUSH2 0x15A2 SWAP1 PUSH2 0x270B JUMP JUMPDEST PUSH1 0x40 MLOAD DUP1 SWAP2 SUB SWAP1 REVERT JUMPDEST PUSH1 0x1 DUP2 PUSH1 0x5 ADD PUSH0 PUSH2 0x100 EXP DUP2 SLOAD DUP2 PUSH1 0xFF MUL NOT AND SWAP1 DUP4 ISZERO ISZERO MUL OR SWAP1 SSTORE POP PUSH0 PUSH1 0x2 DUP2 GT ISZERO PUSH2 0x15DA JUMPI PUSH2 0x15D9 PUSH2 0x202D JUMP JUMPDEST JUMPDEST DUP2 PUSH0 ADD PUSH0 SWAP1 SLOAD SWAP1 PUSH2 0x100 EXP SWAP1 DIV PUSH1 0xFF AND PUSH1 0x2 DUP2 GT ISZERO PUSH2 0x15FC JUMPI PUSH2 0x15FB PUSH2 0x202D JUMP JUMPDEST JUMPDEST SUB PUSH2 0x1633 JUMPI PUSH2 0x162E DUP4 DUP3 PUSH1 0x2 ADD PUSH0 SWAP1 SLOAD SWAP1 PUSH2 0x100 EXP SWAP1 DIV PUSH20 0xFFFFFFFFFFFFFFFFFFFFFFFFFFFFFFFFFFFFFFFF AND PUSH2 0x17CA JUMP JUMPDEST PUSH2 0x16CC JUMP JUMPDEST PUSH1 0x1 PUSH1 0x2 DUP2 GT ISZERO PUSH2 0x1647 JUMPI PUSH2 0x1646 PUSH2 0x202D JUMP JUMPDEST JUMPDEST DUP2 PUSH0 ADD PUSH0 SWAP1 SLOAD SWAP1 PUSH2 0x100 EXP SWAP1 DIV PUSH1 0xFF AND PUSH1 0x2 DUP2 GT ISZERO PUSH2 0x1669 JUMPI PUSH2 0x1668 PUSH2 0x202D JUMP JUMPDEST JUMPDEST SUB PUSH2 0x1681 JUMPI PUSH2 0x167C DUP4 DUP3 PUSH1 0x1 ADD SLOAD PUSH2 0x1899 JUMP JUMPDEST PUSH2 0x16CB JUMP JUMPDEST PUSH1 0x2 DUP1 DUP2 GT ISZERO PUSH2 0x1694 JUMPI PUSH2 0x1693 PUSH2 0x202D JUMP JUMPDEST JUMPDEST DUP2 PUSH0 ADD PUSH0 SWAP1 SLOAD SWAP1 PUSH2 0x100 EXP SWAP1 DIV PUSH1 0xFF AND PUSH1 0x2 DUP2 GT ISZERO PUSH2 0x16B6 JUMPI PUSH2 0x16B5 PUSH2 0x202D JUMP JUMPDEST JUMPDEST SUB PUSH2 0x16CA JUMPI PUSH2 0x16C9 DUP4 DUP3 PUSH1 0x1 ADD SLOAD PUSH2 0x18EE JUMP JUMPDEST JUMPDEST JUMPDEST JUMPDEST DUP2 DUP4 PUSH32 0xF758FC91E01B00EA6B4A6138756F7F28E021F9BF21DB6DBF8C36C88EB737257A PUSH1 0x40 MLOAD PUSH1 0x40 MLOAD DUP1 SWAP2 SUB SWAP1 LOG3 POP POP POP JUMP JUMPDEST PUSH0 CALLER SWAP1 POP SWAP1 JUMP JUMPDEST PUSH2 0x170E PUSH2 0x1AAB JUMP JUMPDEST PUSH2 0x1744 JUMPI PUSH1 0x40 MLOAD PUSH32 0xD7E6BCF800000000000000000000000000000000000000000000000000000000 DUP2 MSTORE PUSH1 0x4 ADD PUSH1 0x40 MLOAD DUP1 SWAP2 SUB SWAP1 REVERT JUMPDEST JUMP JUMPDEST PUSH2 0x174E PUSH2 0x1706 JUMP JUMPDEST PUSH0 PUSH20 0xFFFFFFFFFFFFFFFFFFFFFFFFFFFFFFFFFFFFFFFF AND DUP2 PUSH20 0xFFFFFFFFFFFFFFFFFFFFFFFFFFFFFFFFFFFFFFFF AND SUB PUSH2 0x17BE JUMPI PUSH0 PUSH1 0x40 MLOAD PUSH32 0x1E4FBDF700000000000000000000000000000000000000000000000000000000 DUP2 MSTORE PUSH1 0x4 ADD PUSH2 0x17B5 SWAP2 SWAP1 PUSH2 0x1FD6 JUMP JUMPDEST PUSH1 0x40 MLOAD DUP1 SWAP2 SUB SWAP1 REVERT JUMPDEST PUSH2 0x17C7 DUP2 PUSH2 0x12F4 JUMP JUMPDEST POP JUMP JUMPDEST PUSH0 DUP1 SLOAD SWAP1 PUSH2 0x100 EXP SWAP1 DIV PUSH20 0xFFFFFFFFFFFFFFFFFFFFFFFFFFFFFFFFFFFFFFFF AND PUSH20 0xFFFFFFFFFFFFFFFFFFFFFFFFFFFFFFFFFFFFFFFF AND PUSH4 0x3997C656 DUP4 DUP4 PUSH1 0x40 MLOAD DUP4 PUSH4 0xFFFFFFFF AND PUSH1 0xE0 SHL DUP2 MSTORE PUSH1 0x4 ADD PUSH2 0x1824 SWAP3 SWAP2 SWAP1 PUSH2 0x2729 JUMP JUMPDEST PUSH0 PUSH1 0x40 MLOAD DUP1 DUP4 SUB DUP2 PUSH0 DUP8 DUP1 EXTCODESIZE ISZERO DUP1 ISZERO PUSH2 0x183B JUMPI PUSH0 DUP1 REVERT JUMPDEST POP GAS CALL ISZERO DUP1 ISZERO PUSH2 0x184D JUMPI RETURNDATASIZE PUSH0 DUP1 RETURNDATACOPY RETURNDATASIZE PUSH0 REVERT JUMPDEST POP POP POP POP DUP1 PUSH20 0xFFFFFFFFFFFFFFFFFFFFFFFFFFFFFFFFFFFFFFFF AND DUP3 PUSH32 0x1C4C9D2E56D0635D11BC47C997C6909A0D7061F55CBB8F4B27386DB37553191C PUSH1 0x40 MLOAD PUSH1 0x40 MLOAD DUP1 SWAP2 SUB SWAP1 LOG3 POP POP JUMP JUMPDEST DUP1 PUSH1 0x2 PUSH0 DUP5 DUP2 MSTORE PUSH1 0x20 ADD SWAP1 DUP2 MSTORE PUSH1 0x20 ADD PUSH0 KECCAK256 PUSH1 0x6 ADD DUP2 SWAP1 SSTORE POP DUP2 PUSH32 0x103D67DAEE120044227F39544F0C57945ACF17897F464EEFC95E6CBD4A17D3B4 DUP3 PUSH1 0x40 MLOAD PUSH2 0x18E2 SWAP2 SWAP1 PUSH2 0x21B6 JUMP JUMPDEST PUSH1 0x40 MLOAD DUP1 SWAP2 SUB SWAP1 LOG2 POP POP JUMP JUMPDEST PUSH0 DUP1 PUSH0 SWAP1 SLOAD SWAP1 PUSH2 0x100 EXP SWAP1 DIV PUSH20 0xFFFFFFFFFFFFFFFFFFFFFFFFFFFFFFFFFFFFFFFF AND PUSH20 0xFFFFFFFFFFFFFFFFFFFFFFFFFFFFFFFFFFFFFFFF AND PUSH4 0x99664245 DUP5 PUSH1 0x40 MLOAD DUP3 PUSH4 0xFFFFFFFF AND PUSH1 0xE0 SHL DUP2 MSTORE PUSH1 0x4 ADD PUSH2 0x1948 SWAP2 SWAP1 PUSH2 0x21B6 JUMP JUMPDEST PUSH0 PUSH1 0x40 MLOAD DUP1 DUP4 SUB DUP2 DUP7 GAS STATICCALL ISZERO DUP1 ISZERO PUSH2 0x1962 JUMPI RETURNDATASIZE PUSH0 DUP1 RETURNDATACOPY RETURNDATASIZE PUSH0 REVERT JUMPDEST POP POP POP POP PUSH1 0x40 MLOAD RETURNDATASIZE PUSH0 DUP3 RETURNDATACOPY RETURNDATASIZE PUSH1 0x1F NOT PUSH1 0x1F DUP3 ADD AND DUP3 ADD DUP1 PUSH1 0x40 MSTORE POP DUP2 ADD SWAP1 PUSH2 0x198A SWAP2 SWAP1 PUSH2 0x2837 JUMP JUMPDEST SWAP8 POP POP POP POP POP POP POP POP PUSH0 PUSH20 0xFFFFFFFFFFFFFFFFFFFFFFFFFFFFFFFFFFFFFFFF AND DUP2 PUSH20 0xFFFFFFFFFFFFFFFFFFFFFFFFFFFFFFFFFFFFFFFF AND SUB PUSH2 0x1A01 JUMPI PUSH1 0x40 MLOAD PUSH32 0x8C379A000000000000000000000000000000000000000000000000000000000 DUP2 MSTORE PUSH1 0x4 ADD PUSH2 0x19F8 SWAP1 PUSH2 0x2986 JUMP JUMPDEST PUSH1 0x40 MLOAD DUP1 SWAP2 SUB SWAP1 REVERT JUMPDEST PUSH0 DUP2 SWAP1 POP DUP1 PUSH20 0xFFFFFFFFFFFFFFFFFFFFFFFFFFFFFFFFFFFFFFFF AND PUSH4 0x40C10F19 ADDRESS DUP6 PUSH1 0x40 MLOAD DUP4 PUSH4 0xFFFFFFFF AND PUSH1 0xE0 SHL DUP2 MSTORE PUSH1 0x4 ADD PUSH2 0x1A40 SWAP3 SWAP2 SWAP1 PUSH2 0x232E JUMP JUMPDEST PUSH0 PUSH1 0x40 MLOAD DUP1 DUP4 SUB DUP2 PUSH0 DUP8 DUP1 EXTCODESIZE ISZERO DUP1 ISZERO PUSH2 0x1A57 JUMPI PUSH0 DUP1 REVERT JUMPDEST POP GAS CALL ISZERO DUP1 ISZERO PUSH2 0x1A69 JUMPI RETURNDATASIZE PUSH0 DUP1 RETURNDATACOPY RETURNDATASIZE PUSH0 REVERT JUMPDEST POP POP POP POP DUP4 PUSH32 0xC61C8E2899BD86923BDA7268D6D1B42D8E644FF3DEDC13D41D5B798E4AA35237 DUP5 PUSH1 0x40 MLOAD PUSH2 0x1A9D SWAP2 SWAP1 PUSH2 0x21B6 JUMP JUMPDEST PUSH1 0x40 MLOAD DUP1 SWAP2 SUB SWAP1 LOG2 POP POP POP POP JUMP JUMPDEST PUSH0 PUSH2 0x1AB4 PUSH2 0x13EC JUMP JUMPDEST PUSH0 ADD PUSH1 0x8 SWAP1 SLOAD SWAP1 PUSH2 0x100 EXP SWAP1 DIV PUSH1 0xFF AND SWAP1 POP SWAP1 JUMP JUMPDEST PUSH1 0x40 MLOAD DUP1 PUSH1 0xA0 ADD PUSH1 0x40 MSTORE DUP1 PUSH1 0x5 SWAP1 PUSH1 0x20 DUP3 MUL DUP1 CALLDATASIZE DUP4 CALLDATACOPY DUP1 DUP3 ADD SWAP2 POP POP SWAP1 POP POP SWAP1 JUMP JUMPDEST DUP3 PUSH1 0x5 DUP2 ADD SWAP3 DUP3 ISZERO PUSH2 0x1B56 JUMPI SWAP2 PUSH1 0x20 MUL DUP3 ADD JUMPDEST DUP3 DUP2 GT ISZERO PUSH2 0x1B55 JUMPI DUP3 MLOAD DUP3 PUSH0 PUSH2 0x100 EXP DUP2 SLOAD DUP2 PUSH20 0xFFFFFFFFFFFFFFFFFFFFFFFFFFFFFFFFFFFFFFFF MUL NOT AND SWAP1 DUP4 PUSH20 0xFFFFFFFFFFFFFFFFFFFFFFFFFFFFFFFFFFFFFFFF AND MUL OR SWAP1 SSTORE POP SWAP2 PUSH1 0x20 ADD SWAP2 SWAP1 PUSH1 0x1 ADD SWAP1 PUSH2 0x1AFE JUMP JUMPDEST JUMPDEST POP SWAP1 POP PUSH2 0x1B63 SWAP2 SWAP1 PUSH2 0x1B67 JUMP JUMPDEST POP SWAP1 JUMP JUMPDEST JUMPDEST DUP1 DUP3 GT ISZERO PUSH2 0x1B7E JUMPI PUSH0 DUP2 PUSH0 SWAP1 SSTORE POP PUSH1 0x1 ADD PUSH2 0x1B68 JUMP JUMPDEST POP SWAP1 JUMP JUMPDEST PUSH0 PUSH20 0xFFFFFFFFFFFFFFFFFFFFFFFFFFFFFFFFFFFFFFFF DUP3 AND SWAP1 POP SWAP2 SWAP1 POP JUMP JUMPDEST PUSH0 DUP2 SWAP1 POP SWAP2 SWAP1 POP JUMP JUMPDEST PUSH0 PUSH2 0x1BC4 PUSH2 0x1BBF PUSH2 0x1BBA DUP5 PUSH2 0x1B82 JUMP JUMPDEST PUSH2 0x1BA1 JUMP JUMPDEST PUSH2 0x1B82 JUMP JUMPDEST SWAP1 POP SWAP2 SWAP1 POP JUMP JUMPDEST PUSH0 PUSH2 0x1BD5 DUP3 PUSH2 0x1BAA JUMP JUMPDEST SWAP1 POP SWAP2 SWAP1 POP JUMP JUMPDEST PUSH0 PUSH2 0x1BE6 DUP3 PUSH2 0x1BCB JUMP JUMPDEST SWAP1 POP SWAP2 SWAP1 POP JUMP JUMPDEST PUSH2 0x1BF6 DUP2 PUSH2 0x1BDC JUMP JUMPDEST DUP3 MSTORE POP POP JUMP JUMPDEST PUSH0 PUSH1 0x20 DUP3 ADD SWAP1 POP PUSH2 0x1C0F PUSH0 DUP4 ADD DUP5 PUSH2 0x1BED JUMP JUMPDEST SWAP3 SWAP2 POP POP JUMP JUMPDEST PUSH0 PUSH1 0x40 MLOAD SWAP1 POP SWAP1 JUMP JUMPDEST PUSH0 DUP1 REVERT JUMPDEST PUSH0 DUP1 REVERT JUMPDEST PUSH0 DUP2 SWAP1 POP SWAP2 SWAP1 POP JUMP JUMPDEST PUSH2 0x1C38 DUP2 PUSH2 0x1C26 JUMP JUMPDEST DUP2 EQ PUSH2 0x1C42 JUMPI PUSH0 DUP1 REVERT JUMPDEST POP JUMP JUMPDEST PUSH0 DUP2 CALLDATALOAD SWAP1 POP PUSH2 0x1C53 DUP2 PUSH2 0x1C2F JUMP JUMPDEST SWAP3 SWAP2 POP POP JUMP JUMPDEST PUSH0 PUSH1 0x20 DUP3 DUP5 SUB SLT ISZERO PUSH2 0x1C6E JUMPI PUSH2 0x1C6D PUSH2 0x1C1E JUMP JUMPDEST JUMPDEST PUSH0 PUSH2 0x1C7B DUP5 DUP3 DUP6 ADD PUSH2 0x1C45 JUMP JUMPDEST SWAP2 POP POP SWAP3 SWAP2 POP POP JUMP JUMPDEST PUSH2 0x1C8D DUP2 PUSH2 0x1C26 JUMP JUMPDEST DUP3 MSTORE POP POP JUMP JUMPDEST PUSH0 PUSH1 0x5 SWAP1 POP SWAP2 SWAP1 POP JUMP JUMPDEST PUSH0 DUP2 SWAP1 POP SWAP3 SWAP2 POP POP JUMP JUMPDEST PUSH0 DUP2 SWAP1 POP SWAP2 SWAP1 POP JUMP JUMPDEST PUSH0 PUSH2 0x1CBA DUP3 PUSH2 0x1B82 JUMP JUMPDEST SWAP1 POP SWAP2 SWAP1 POP JUMP JUMPDEST PUSH2 0x1CCA DUP2 PUSH2 0x1CB0 JUMP JUMPDEST DUP3 MSTORE POP POP JUMP JUMPDEST PUSH0 PUSH2 0x1CDB DUP4 DUP4 PUSH2 0x1CC1 JUMP JUMPDEST PUSH1 0x20 DUP4 ADD SWAP1 POP SWAP3 SWAP2 POP POP JUMP JUMPDEST PUSH0 PUSH1 0x20 DUP3 ADD SWAP1 POP SWAP2 SWAP1 POP JUMP JUMPDEST PUSH2 0x1CFC DUP2 PUSH2 0x1C93 JUMP JUMPDEST PUSH2 0x1D06 DUP2 DUP5 PUSH2 0x1C9D JUMP JUMPDEST SWAP3 POP PUSH2 0x1D11 DUP3 PUSH2 0x1CA7 JUMP JUMPDEST DUP1 PUSH0 JUMPDEST DUP4 DUP2 LT ISZERO PUSH2 0x1D41 JUMPI DUP2 MLOAD PUSH2 0x1D28 DUP8 DUP3 PUSH2 0x1CD0 JUMP JUMPDEST SWAP7 POP PUSH2 0x1D33 DUP4 PUSH2 0x1CE7 JUMP JUMPDEST SWAP3 POP POP PUSH1 0x1 DUP2 ADD SWAP1 POP PUSH2 0x1D14 JUMP JUMPDEST POP POP POP POP POP POP JUMP JUMPDEST PUSH0 PUSH1 0xC0 DUP3 ADD SWAP1 POP PUSH2 0x1D5C PUSH0 DUP4 ADD DUP6 PUSH2 0x1C84 JUMP JUMPDEST PUSH2 0x1D69 PUSH1 0x20 DUP4 ADD DUP5 PUSH2 0x1CF3 JUMP JUMPDEST SWAP4 SWAP3 POP POP POP JUMP JUMPDEST PUSH2 0x1D79 DUP2 PUSH2 0x1CB0 JUMP JUMPDEST DUP2 EQ PUSH2 0x1D83 JUMPI PUSH0 DUP1 REVERT JUMPDEST POP JUMP JUMPDEST PUSH0 DUP2 CALLDATALOAD SWAP1 POP PUSH2 0x1D94 DUP2 PUSH2 0x1D70 JUMP JUMPDEST SWAP3 SWAP2 POP POP JUMP JUMPDEST PUSH0 DUP1 PUSH0 PUSH1 0x60 DUP5 DUP7 SUB SLT ISZERO PUSH2 0x1DB1 JUMPI PUSH2 0x1DB0 PUSH2 0x1C1E JUMP JUMPDEST JUMPDEST PUSH0 PUSH2 0x1DBE DUP7 DUP3 DUP8 ADD PUSH2 0x1C45 JUMP JUMPDEST SWAP4 POP POP PUSH1 0x20 PUSH2 0x1DCF DUP7 DUP3 DUP8 ADD PUSH2 0x1C45 JUMP JUMPDEST SWAP3 POP POP PUSH1 0x40 PUSH2 0x1DE0 DUP7 DUP3 DUP8 ADD PUSH2 0x1D86 JUMP JUMPDEST SWAP2 POP POP SWAP3 POP SWAP3 POP SWAP3 JUMP JUMPDEST PUSH0 DUP2 ISZERO ISZERO SWAP1 POP SWAP2 SWAP1 POP JUMP JUMPDEST PUSH2 0x1DFE DUP2 PUSH2 0x1DEA JUMP JUMPDEST DUP3 MSTORE POP POP JUMP JUMPDEST PUSH0 PUSH1 0x20 DUP3 ADD SWAP1 POP PUSH2 0x1E17 PUSH0 DUP4 ADD DUP5 PUSH2 0x1DF5 JUMP JUMPDEST SWAP3 SWAP2 POP POP JUMP JUMPDEST PUSH0 DUP1 REVERT JUMPDEST PUSH0 PUSH1 0x1F NOT PUSH1 0x1F DUP4 ADD AND SWAP1 POP SWAP2 SWAP1 POP JUMP JUMPDEST PUSH32 0x4E487B7100000000000000000000000000000000000000000000000000000000 PUSH0 MSTORE PUSH1 0x41 PUSH1 0x4 MSTORE PUSH1 0x24 PUSH0 REVERT JUMPDEST PUSH2 0x1E67 DUP3 PUSH2 0x1E21 JUMP JUMPDEST DUP2 ADD DUP2 DUP2 LT PUSH8 0xFFFFFFFFFFFFFFFF DUP3 GT OR ISZERO PUSH2 0x1E86 JUMPI PUSH2 0x1E85 PUSH2 0x1E31 JUMP JUMPDEST JUMPDEST DUP1 PUSH1 0x40 MSTORE POP POP POP JUMP JUMPDEST PUSH0 PUSH2 0x1E98 PUSH2 0x1C15 JUMP JUMPDEST SWAP1 POP PUSH2 0x1EA4 DUP3 DUP3 PUSH2 0x1E5E JUMP JUMPDEST SWAP2 SWAP1 POP JUMP JUMPDEST PUSH0 PUSH8 0xFFFFFFFFFFFFFFFF DUP3 GT ISZERO PUSH2 0x1EC3 JUMPI PUSH2 0x1EC2 PUSH2 0x1E31 JUMP JUMPDEST JUMPDEST PUSH1 0x20 DUP3 MUL SWAP1 POP PUSH1 0x20 DUP2 ADD SWAP1 POP SWAP2 SWAP1 POP JUMP JUMPDEST PUSH0 DUP1 REVERT JUMPDEST PUSH0 PUSH2 0x1EEA PUSH2 0x1EE5 DUP5 PUSH2 0x1EA9 JUMP JUMPDEST PUSH2 0x1E8F JUMP JUMPDEST SWAP1 POP DUP1 DUP4 DUP3 MSTORE PUSH1 0x20 DUP3 ADD SWAP1 POP PUSH1 0x20 DUP5 MUL DUP4 ADD DUP6 DUP2 GT ISZERO PUSH2 0x1F0D JUMPI PUSH2 0x1F0C PUSH2 0x1ED4 JUMP JUMPDEST JUMPDEST DUP4 JUMPDEST DUP2 DUP2 LT ISZERO PUSH2 0x1F36 JUMPI DUP1 PUSH2 0x1F22 DUP9 DUP3 PUSH2 0x1D86 JUMP JUMPDEST DUP5 MSTORE PUSH1 0x20 DUP5 ADD SWAP4 POP POP PUSH1 0x20 DUP2 ADD SWAP1 POP PUSH2 0x1F0F JUMP JUMPDEST POP POP POP SWAP4 SWAP3 POP POP POP JUMP JUMPDEST PUSH0 DUP3 PUSH1 0x1F DUP4 ADD SLT PUSH2 0x1F54 JUMPI PUSH2 0x1F53 PUSH2 0x1E1D JUMP JUMPDEST JUMPDEST DUP2 CALLDATALOAD PUSH2 0x1F64 DUP5 DUP3 PUSH1 0x20 DUP7 ADD PUSH2 0x1ED8 JUMP JUMPDEST SWAP2 POP POP SWAP3 SWAP2 POP POP JUMP JUMPDEST PUSH0 DUP1 PUSH1 0x40 DUP4 DUP6 SUB SLT ISZERO PUSH2 0x1F83 JUMPI PUSH2 0x1F82 PUSH2 0x1C1E JUMP JUMPDEST JUMPDEST PUSH0 PUSH2 0x1F90 DUP6 DUP3 DUP7 ADD PUSH2 0x1C45 JUMP JUMPDEST SWAP3 POP POP PUSH1 0x20 DUP4 ADD CALLDATALOAD PUSH8 0xFFFFFFFFFFFFFFFF DUP2 GT ISZERO PUSH2 0x1FB1 JUMPI PUSH2 0x1FB0 PUSH2 0x1C22 JUMP JUMPDEST JUMPDEST PUSH2 0x1FBD DUP6 DUP3 DUP7 ADD PUSH2 0x1F40 JUMP JUMPDEST SWAP2 POP POP SWAP3 POP SWAP3 SWAP1 POP JUMP JUMPDEST PUSH2 0x1FD0 DUP2 PUSH2 0x1CB0 JUMP JUMPDEST DUP3 MSTORE POP POP JUMP JUMPDEST PUSH0 PUSH1 0x20 DUP3 ADD SWAP1 POP PUSH2 0x1FE9 PUSH0 DUP4 ADD DUP5 PUSH2 0x1FC7 JUMP JUMPDEST SWAP3 SWAP2 POP POP JUMP JUMPDEST PUSH0 DUP1 PUSH1 0x40 DUP4 DUP6 SUB SLT ISZERO PUSH2 0x2005 JUMPI PUSH2 0x2004 PUSH2 0x1C1E JUMP JUMPDEST JUMPDEST PUSH0 PUSH2 0x2012 DUP6 DUP3 DUP7 ADD PUSH2 0x1C45 JUMP JUMPDEST SWAP3 POP POP PUSH1 0x20 PUSH2 0x2023 DUP6 DUP3 DUP7 ADD PUSH2 0x1C45 JUMP JUMPDEST SWAP2 POP POP SWAP3 POP SWAP3 SWAP1 POP JUMP JUMPDEST PUSH32 0x4E487B7100000000000000000000000000000000000000000000000000000000 PUSH0 MSTORE PUSH1 0x21 PUSH1 0x4 MSTORE PUSH1 0x24 PUSH0 REVERT JUMPDEST PUSH1 0x3 DUP2 LT PUSH2 0x206B JUMPI PUSH2 0x206A PUSH2 0x202D JUMP JUMPDEST JUMPDEST POP JUMP JUMPDEST PUSH0 DUP2 SWAP1 POP PUSH2 0x207B DUP3 PUSH2 0x205A JUMP JUMPDEST SWAP2 SWAP1 POP JUMP JUMPDEST PUSH0 PUSH2 0x208A DUP3 PUSH2 0x206E JUMP JUMPDEST SWAP1 POP SWAP2 SWAP1 POP JUMP JUMPDEST PUSH2 0x209A DUP2 PUSH2 0x2080 JUMP JUMPDEST DUP3 MSTORE POP POP JUMP JUMPDEST PUSH0 PUSH1 0xA0 DUP3 ADD SWAP1 POP PUSH2 0x20B3 PUSH0 DUP4 ADD DUP9 PUSH2 0x2091 JUMP JUMPDEST PUSH2 0x20C0 PUSH1 0x20 DUP4 ADD DUP8 PUSH2 0x1C84 JUMP JUMPDEST PUSH2 0x20CD PUSH1 0x40 DUP4 ADD DUP7 PUSH2 0x1FC7 JUMP JUMPDEST PUSH2 0x20DA PUSH1 0x60 DUP4 ADD DUP6 PUSH2 0x1C84 JUMP JUMPDEST PUSH2 0x20E7 PUSH1 0x80 DUP4 ADD DUP5 PUSH2 0x1DF5 JUMP JUMPDEST SWAP7 SWAP6 POP POP POP POP POP POP JUMP JUMPDEST PUSH1 0x3 DUP2 LT PUSH2 0x20FD JUMPI PUSH0 DUP1 REVERT JUMPDEST POP JUMP JUMPDEST PUSH0 DUP2 CALLDATALOAD SWAP1 POP PUSH2 0x210E DUP2 PUSH2 0x20F1 JUMP JUMPDEST SWAP3 SWAP2 POP POP JUMP JUMPDEST PUSH0 DUP1 PUSH0 DUP1 PUSH0 PUSH1 0xA0 DUP7 DUP9 SUB SLT ISZERO PUSH2 0x212D JUMPI PUSH2 0x212C PUSH2 0x1C1E JUMP JUMPDEST JUMPDEST PUSH0 PUSH2 0x213A DUP9 DUP3 DUP10 ADD PUSH2 0x1C45 JUMP JUMPDEST SWAP6 POP POP PUSH1 0x20 PUSH2 0x214B DUP9 DUP3 DUP10 ADD PUSH2 0x1C45 JUMP JUMPDEST SWAP5 POP POP PUSH1 0x40 PUSH2 0x215C DUP9 DUP3 DUP10 ADD PUSH2 0x2100 JUMP JUMPDEST SWAP4 POP POP PUSH1 0x60 PUSH2 0x216D DUP9 DUP3 DUP10 ADD PUSH2 0x1C45 JUMP JUMPDEST SWAP3 POP POP PUSH1 0x80 PUSH2 0x217E DUP9 DUP3 DUP10 ADD PUSH2 0x1D86 JUMP JUMPDEST SWAP2 POP POP SWAP3 SWAP6 POP SWAP3 SWAP6 SWAP1 SWAP4 POP JUMP JUMPDEST PUSH0 PUSH1 0x20 DUP3 DUP5 SUB SLT ISZERO PUSH2 0x21A0 JUMPI PUSH2 0x219F PUSH2 0x1C1E JUMP JUMPDEST JUMPDEST PUSH0 PUSH2 0x21AD DUP5 DUP3 DUP6 ADD PUSH2 0x1D86 JUMP JUMPDEST SWAP2 POP POP SWAP3 SWAP2 POP POP JUMP JUMPDEST PUSH0 PUSH1 0x20 DUP3 ADD SWAP1 POP PUSH2 0x21C9 PUSH0 DUP4 ADD DUP5 PUSH2 0x1C84 JUMP JUMPDEST SWAP3 SWAP2 POP POP JUMP JUMPDEST PUSH0 PUSH2 0x21D9 DUP3 PUSH2 0x1BCB JUMP JUMPDEST SWAP1 POP SWAP2 SWAP1 POP JUMP JUMPDEST PUSH2 0x21E9 DUP2 PUSH2 0x21CF JUMP JUMPDEST DUP3 MSTORE POP POP JUMP JUMPDEST PUSH0 PUSH1 0x20 DUP3 ADD SWAP1 POP PUSH2 0x2202 PUSH0 DUP4 ADD DUP5 PUSH2 0x21E0 JUMP JUMPDEST SWAP3 SWAP2 POP POP JUMP JUMPDEST PUSH0 PUSH1 0xA0 DUP3 ADD SWAP1 POP PUSH2 0x221B PUSH0 DUP4 ADD DUP5 PUSH2 0x1CF3 JUMP JUMPDEST SWAP3 SWAP2 POP POP JUMP JUMPDEST PUSH0 DUP3 DUP3 MSTORE PUSH1 0x20 DUP3 ADD SWAP1 POP SWAP3 SWAP2 POP POP JUMP JUMPDEST PUSH32 0x436F6D6D756E697479206D7573742068617665206D656D626572730000000000 PUSH0 DUP3 ADD MSTORE POP JUMP JUMPDEST PUSH0 PUSH2 0x2265 PUSH1 0x1B DUP4 PUSH2 0x2221 JUMP JUMPDEST SWAP2 POP PUSH2 0x2270 DUP3 PUSH2 0x2231 JUMP JUMPDEST PUSH1 0x20 DUP3 ADD SWAP1 POP SWAP2 SWAP1 POP JUMP JUMPDEST PUSH0 PUSH1 0x20 DUP3 ADD SWAP1 POP DUP2 DUP2 SUB PUSH0 DUP4 ADD MSTORE PUSH2 0x2292 DUP2 PUSH2 0x2259 JUMP JUMPDEST SWAP1 POP SWAP2 SWAP1 POP JUMP JUMPDEST PUSH32 0x436F6E747269627574696F6E7320636F6E7472616374206E6F74207365740000 PUSH0 DUP3 ADD MSTORE POP JUMP JUMPDEST PUSH0 PUSH2 0x22CD PUSH1 0x1E DUP4 PUSH2 0x2221 JUMP JUMPDEST SWAP2 POP PUSH2 0x22D8 DUP3 PUSH2 0x2299 JUMP JUMPDEST PUSH1 0x20 DUP3 ADD SWAP1 POP SWAP2 SWAP1 POP JUMP JUMPDEST PUSH0 PUSH1 0x20 DUP3 ADD SWAP1 POP DUP2 DUP2 SUB PUSH0 DUP4 ADD MSTORE PUSH2 0x22FA DUP2 PUSH2 0x22C1 JUMP JUMPDEST SWAP1 POP SWAP2 SWAP1 POP JUMP JUMPDEST PUSH32 0x4E487B7100000000000000000000000000000000000000000000000000000000 PUSH0 MSTORE PUSH1 0x32 PUSH1 0x4 MSTORE PUSH1 0x24 PUSH0 REVERT JUMPDEST PUSH0 PUSH1 0x40 DUP3 ADD SWAP1 POP PUSH2 0x2341 PUSH0 DUP4 ADD DUP6 PUSH2 0x1FC7 JUMP JUMPDEST PUSH2 0x234E PUSH1 0x20 DUP4 ADD DUP5 PUSH2 0x1C84 JUMP JUMPDEST SWAP4 SWAP3 POP POP POP JUMP JUMPDEST PUSH0 DUP2 MLOAD SWAP1 POP PUSH2 0x2363 DUP2 PUSH2 0x1C2F JUMP JUMPDEST SWAP3 SWAP2 POP POP JUMP JUMPDEST PUSH0 PUSH1 0x20 DUP3 DUP5 SUB SLT ISZERO PUSH2 0x237E JUMPI PUSH2 0x237D PUSH2 0x1C1E JUMP JUMPDEST JUMPDEST PUSH0 PUSH2 0x238B DUP5 DUP3 DUP6 ADD PUSH2 0x2355 JUMP JUMPDEST SWAP2 POP POP SWAP3 SWAP2 POP POP JUMP JUMPDEST PUSH32 0x4E487B7100000000000000000000000000000000000000000000000000000000 PUSH0 MSTORE PUSH1 0x11 PUSH1 0x4 MSTORE PUSH1 0x24 PUSH0 REVERT JUMPDEST PUSH0 PUSH2 0x23CB DUP3 PUSH2 0x1C26 JUMP JUMPDEST SWAP2 POP PUSH2 0x23D6 DUP4 PUSH2 0x1C26 JUMP JUMPDEST SWAP3 POP DUP3 DUP3 ADD SWAP1 POP DUP1 DUP3 GT ISZERO PUSH2 0x23EE JUMPI PUSH2 0x23ED PUSH2 0x2394 JUMP JUMPDEST JUMPDEST SWAP3 SWAP2 POP POP JUMP JUMPDEST PUSH32 0x50726F706F73616C20494420616C726561647920657869737473000000000000 PUSH0 DUP3 ADD MSTORE POP JUMP JUMPDEST PUSH0 PUSH2 0x2428 PUSH1 0x1A DUP4 PUSH2 0x2221 JUMP JUMPDEST SWAP2 POP PUSH2 0x2433 DUP3 PUSH2 0x23F4 JUMP JUMPDEST PUSH1 0x20 DUP3 ADD SWAP1 POP SWAP2 SWAP1 POP JUMP JUMPDEST PUSH0 PUSH1 0x20 DUP3 ADD SWAP1 POP DUP2 DUP2 SUB PUSH0 DUP4 ADD MSTORE PUSH2 0x2455 DUP2 PUSH2 0x241C JUMP JUMPDEST SWAP1 POP SWAP2 SWAP1 POP JUMP JUMPDEST PUSH0 PUSH1 0x20 DUP3 ADD SWAP1 POP PUSH2 0x246F PUSH0 DUP4 ADD DUP5 PUSH2 0x2091 JUMP JUMPDEST SWAP3 SWAP2 POP POP JUMP JUMPDEST PUSH0 DUP2 SWAP1 POP SWAP2 SWAP1 POP JUMP JUMPDEST PUSH0 PUSH8 0xFFFFFFFFFFFFFFFF DUP3 AND SWAP1 POP SWAP2 SWAP1 POP JUMP JUMPDEST PUSH0 PUSH2 0x24AB PUSH2 0x24A6 PUSH2 0x24A1 DUP5 PUSH2 0x2475 JUMP JUMPDEST PUSH2 0x1BA1 JUMP JUMPDEST PUSH2 0x247E JUMP JUMPDEST SWAP1 POP SWAP2 SWAP1 POP JUMP JUMPDEST PUSH2 0x24BB DUP2 PUSH2 0x2491 JUMP JUMPDEST DUP3 MSTORE POP POP JUMP JUMPDEST PUSH0 PUSH1 0x20 DUP3 ADD SWAP1 POP PUSH2 0x24D4 PUSH0 DUP4 ADD DUP5 PUSH2 0x24B2 JUMP JUMPDEST SWAP3 SWAP2 POP POP JUMP JUMPDEST PUSH32 0x4E6F7420617574686F72697A6564000000000000000000000000000000000000 PUSH0 DUP3 ADD MSTORE POP JUMP JUMPDEST PUSH0 PUSH2 0x250E PUSH1 0xE DUP4 PUSH2 0x2221 JUMP JUMPDEST SWAP2 POP PUSH2 0x2519 DUP3 PUSH2 0x24DA JUMP JUMPDEST PUSH1 0x20 DUP3 ADD SWAP1 POP SWAP2 SWAP1 POP JUMP JUMPDEST PUSH0 PUSH1 0x20 DUP3 ADD SWAP1 POP DUP2 DUP2 SUB PUSH0 DUP4 ADD MSTORE PUSH2 0x253B DUP2 PUSH2 0x2502 JUMP JUMPDEST SWAP1 POP SWAP2 SWAP1 POP JUMP JUMPDEST PUSH32 0x50726F706F73616C20646F6573206E6F74206578697374000000000000000000 PUSH0 DUP3 ADD MSTORE POP JUMP JUMPDEST PUSH0 PUSH2 0x2576 PUSH1 0x17 DUP4 PUSH2 0x2221 JUMP JUMPDEST SWAP2 POP PUSH2 0x2581 DUP3 PUSH2 0x2542 JUMP JUMPDEST PUSH1 0x20 DUP3 ADD SWAP1 POP SWAP2 SWAP1 POP JUMP JUMPDEST PUSH0 PUSH1 0x20 DUP3 ADD SWAP1 POP DUP2 DUP2 SUB PUSH0 DUP4 ADD MSTORE PUSH2 0x25A3 DUP2 PUSH2 0x256A JUMP JUMPDEST SWAP1 POP SWAP2 SWAP1 POP JUMP JUMPDEST PUSH32 0x50726F706F73616C20616C726561647920657865637574656400000000000000 PUSH0 DUP3 ADD MSTORE POP JUMP JUMPDEST PUSH0 PUSH2 0x25DE PUSH1 0x19 DUP4 PUSH2 0x2221 JUMP JUMPDEST SWAP2 POP PUSH2 0x25E9 DUP3 PUSH2 0x25AA JUMP JUMPDEST PUSH1 0x20 DUP3 ADD SWAP1 POP SWAP2 SWAP1 POP JUMP JUMPDEST PUSH0 PUSH1 0x20 DUP3 ADD SWAP1 POP DUP2 DUP2 SUB PUSH0 DUP4 ADD MSTORE PUSH2 0x260B DUP2 PUSH2 0x25D2 JUMP JUMPDEST SWAP1 POP SWAP2 SWAP1 POP JUMP JUMPDEST PUSH32 0x416C7265616479207369676E6564000000000000000000000000000000000000 PUSH0 DUP3 ADD MSTORE POP JUMP JUMPDEST PUSH0 PUSH2 0x2646 PUSH1 0xE DUP4 PUSH2 0x2221 JUMP JUMPDEST SWAP2 POP PUSH2 0x2651 DUP3 PUSH2 0x2612 JUMP JUMPDEST PUSH1 0x20 DUP3 ADD SWAP1 POP SWAP2 SWAP1 POP JUMP JUMPDEST PUSH0 PUSH1 0x20 DUP3 ADD SWAP1 POP DUP2 DUP2 SUB PUSH0 DUP4 ADD MSTORE PUSH2 0x2673 DUP2 PUSH2 0x263A JUMP JUMPDEST SWAP1 POP SWAP2 SWAP1 POP JUMP JUMPDEST PUSH0 PUSH2 0x2684 DUP3 PUSH2 0x1C26 JUMP JUMPDEST SWAP2 POP PUSH32 0xFFFFFFFFFFFFFFFFFFFFFFFFFFFFFFFFFFFFFFFFFFFFFFFFFFFFFFFFFFFFFFFF DUP3 SUB PUSH2 0x26B6 JUMPI PUSH2 0x26B5 PUSH2 0x2394 JUMP JUMPDEST JUMPDEST PUSH1 0x1 DUP3 ADD SWAP1 POP SWAP2 SWAP1 POP JUMP JUMPDEST PUSH32 0x4E6F7420656E6F756768207369676E6174757265730000000000000000000000 PUSH0 DUP3 ADD MSTORE POP JUMP JUMPDEST PUSH0 PUSH2 0x26F5 PUSH1 0x15 DUP4 PUSH2 0x2221 JUMP JUMPDEST SWAP2 POP PUSH2 0x2700 DUP3 PUSH2 0x26C1 JUMP JUMPDEST PUSH1 0x20 DUP3 ADD SWAP1 POP SWAP2 SWAP1 POP JUMP JUMPDEST PUSH0 PUSH1 0x20 DUP3 ADD SWAP1 POP DUP2 DUP2 SUB PUSH0 DUP4 ADD MSTORE PUSH2 0x2722 DUP2 PUSH2 0x26E9 JUMP JUMPDEST SWAP1 POP SWAP2 SWAP1 POP JUMP JUMPDEST PUSH0 PUSH1 0x40 DUP3 ADD SWAP1 POP PUSH2 0x273C PUSH0 DUP4 ADD DUP6 PUSH2 0x1C84 JUMP JUMPDEST PUSH2 0x2749 PUSH1 0x20 DUP4 ADD DUP5 PUSH2 0x1FC7 JUMP JUMPDEST SWAP4 SWAP3 POP POP POP JUMP JUMPDEST PUSH0 DUP1 REVERT JUMPDEST PUSH0 PUSH8 0xFFFFFFFFFFFFFFFF DUP3 GT ISZERO PUSH2 0x276E JUMPI PUSH2 0x276D PUSH2 0x1E31 JUMP JUMPDEST JUMPDEST PUSH2 0x2777 DUP3 PUSH2 0x1E21 JUMP JUMPDEST SWAP1 POP PUSH1 0x20 DUP2 ADD SWAP1 POP SWAP2 SWAP1 POP JUMP JUMPDEST DUP3 DUP2 DUP4 MCOPY PUSH0 DUP4 DUP4 ADD MSTORE POP POP POP JUMP JUMPDEST PUSH0 PUSH2 0x27A4 PUSH2 0x279F DUP5 PUSH2 0x2754 JUMP JUMPDEST PUSH2 0x1E8F JUMP JUMPDEST SWAP1 POP DUP3 DUP2 MSTORE PUSH1 0x20 DUP2 ADD DUP5 DUP5 DUP5 ADD GT ISZERO PUSH2 0x27C0 JUMPI PUSH2 0x27BF PUSH2 0x2750 JUMP JUMPDEST JUMPDEST PUSH2 0x27CB DUP5 DUP3 DUP6 PUSH2 0x2784 JUMP JUMPDEST POP SWAP4 SWAP3 POP POP POP JUMP JUMPDEST PUSH0 DUP3 PUSH1 0x1F DUP4 ADD SLT PUSH2 0x27E7 JUMPI PUSH2 0x27E6 PUSH2 0x1E1D JUMP JUMPDEST JUMPDEST DUP2 MLOAD PUSH2 0x27F7 DUP5 DUP3 PUSH1 0x20 DUP7 ADD PUSH2 0x2792 JUMP JUMPDEST SWAP2 POP POP SWAP3 SWAP2 POP POP JUMP JUMPDEST PUSH0 DUP2 MLOAD SWAP1 POP PUSH2 0x280E DUP2 PUSH2 0x1D70 JUMP JUMPDEST SWAP3 SWAP2 POP POP JUMP JUMPDEST PUSH1 0x2 DUP2 LT PUSH2 0x2820 JUMPI PUSH0 DUP1 REVERT JUMPDEST POP JUMP JUMPDEST PUSH0 DUP2 MLOAD SWAP1 POP PUSH2 0x2831 DUP2 PUSH2 0x2814 JUMP JUMPDEST SWAP3 SWAP2 POP POP JUMP JUMPDEST PUSH0 DUP1 PUSH0 DUP1 PUSH0 DUP1 PUSH0 DUP1 PUSH2 0x100 DUP10 DUP12 SUB SLT ISZERO PUSH2 0x2854 JUMPI PUSH2 0x2853 PUSH2 0x1C1E JUMP JUMPDEST JUMPDEST PUSH0 DUP10 ADD MLOAD PUSH8 0xFFFFFFFFFFFFFFFF DUP2 GT ISZERO PUSH2 0x2871 JUMPI PUSH2 0x2870 PUSH2 0x1C22 JUMP JUMPDEST JUMPDEST PUSH2 0x287D DUP12 DUP3 DUP13 ADD PUSH2 0x27D3 JUMP JUMPDEST SWAP9 POP POP PUSH1 0x20 DUP10 ADD MLOAD PUSH8 0xFFFFFFFFFFFFFFFF DUP2 GT ISZERO PUSH2 0x289E JUMPI PUSH2 0x289D PUSH2 0x1C22 JUMP JUMPDEST JUMPDEST PUSH2 0x28AA DUP12 DUP3 DUP13 ADD PUSH2 0x27D3 JUMP JUMPDEST SWAP8 POP POP PUSH1 0x40 DUP10 ADD MLOAD PUSH8 0xFFFFFFFFFFFFFFFF DUP2 GT ISZERO PUSH2 0x28CB JUMPI PUSH2 0x28CA PUSH2 0x1C22 JUMP JUMPDEST JUMPDEST PUSH2 0x28D7 DUP12 DUP3 DUP13 ADD PUSH2 0x27D3 JUMP JUMPDEST SWAP7 POP POP PUSH1 0x60 PUSH2 0x28E8 DUP12 DUP3 DUP13 ADD PUSH2 0x2800 JUMP JUMPDEST SWAP6 POP POP PUSH1 0x80 PUSH2 0x28F9 DUP12 DUP3 DUP13 ADD PUSH2 0x2355 JUMP JUMPDEST SWAP5 POP POP PUSH1 0xA0 PUSH2 0x290A DUP12 DUP3 DUP13 ADD PUSH2 0x2823 JUMP JUMPDEST SWAP4 POP POP PUSH1 0xC0 PUSH2 0x291B DUP12 DUP3 DUP13 ADD PUSH2 0x2355 JUMP JUMPDEST SWAP3 POP POP PUSH1 0xE0 PUSH2 0x292C DUP12 DUP3 DUP13 ADD PUSH2 0x2800 JUMP JUMPDEST SWAP2 POP POP SWAP3 SWAP6 SWAP9 POP SWAP3 SWAP6 SWAP9 SWAP1 SWAP4 SWAP7 POP JUMP JUMPDEST PUSH32 0x436F6D6D756E69747920746F6B656E206E6F7420666F756E6400000000000000 PUSH0 DUP3 ADD MSTORE POP JUMP JUMPDEST PUSH0 PUSH2 0x2970 PUSH1 0x19 DUP4 PUSH2 0x2221 JUMP JUMPDEST SWAP2 POP PUSH2 0x297B DUP3 PUSH2 0x293C JUMP JUMPDEST PUSH1 0x20 DUP3 ADD SWAP1 POP SWAP2 SWAP1 POP JUMP JUMPDEST PUSH0 PUSH1 0x20 DUP3 ADD SWAP1 POP DUP2 DUP2 SUB PUSH0 DUP4 ADD MSTORE PUSH2 0x299D DUP2 PUSH2 0x2964 JUMP JUMPDEST SWAP1 POP SWAP2 SWAP1 POP JUMP INVALID LOG2 PUSH5 0x6970667358 0x22 SLT KECCAK256 GAS 0xA9 PUSH32 0xDEFA4B1034EA8738B9C564FFD11801BFE6FE4092AD93CB21645701242164736F PUSH13 0x634300081A0033000000000000 "
				},
				"gasEstimates": {
					"creation": {
						"codeDepositCost": "2142800",
						"executionCost": "2278",
						"totalCost": "2145078"
					},
					"external": {
						"contributionsContract()": "infinite",
						"createProposal(uint256,uint256,uint8,uint256,address)": "infinite",
						"getMultiSigInfo(uint256)": "infinite",
						"getProposal(uint256,uint256)": "infinite",
						"getRespectToDistribute(uint256)": "infinite",
						"getTopRespectedUsers(uint256)": "infinite",
						"hasSignedProposal(uint256,uint256,address)": "infinite",
						"initialize(address)": "infinite",
						"owner()": "2612",
						"profilesContract()": "infinite",
						"renounceOwnership()": "infinite",
						"setContributionsContract(address)": "infinite",
						"setProfilesContract(address)": "infinite",
						"signProposal(uint256,uint256)": "infinite",
						"transferOwnership(address)": "infinite",
						"updateTopRespectedUsers(uint256,address[])": "infinite"
					},
					"internal": {
						"executeProposal(uint256,uint256)": "infinite",
						"isTopRespectedUser(address,address[5] memory)": "infinite",
						"mintTokens(uint256,uint256)": "infinite",
						"removeMember(uint256,address)": "infinite",
						"setRespectToDistribute(uint256,uint256)": "infinite"
					}
				},
				"methodIdentifiers": {
					"contributionsContract()": "de04bbd2",
					"createProposal(uint256,uint256,uint8,uint256,address)": "c0458ddc",
					"getMultiSigInfo(uint256)": "392ee8c1",
					"getProposal(uint256,uint256)": "aba21009",
					"getRespectToDistribute(uint256)": "d5d8617a",
					"getTopRespectedUsers(uint256)": "e7d3f1f9",
					"hasSignedProposal(uint256,uint256,address)": "674e9c60",
					"initialize(address)": "c4d66de8",
					"owner()": "8da5cb5b",
					"profilesContract()": "06428f02",
					"renounceOwnership()": "715018a6",
					"setContributionsContract(address)": "d599ba92",
					"setProfilesContract(address)": "c56b4aed",
					"signProposal(uint256,uint256)": "fadc1930",
					"transferOwnership(address)": "f2fde38b",
					"updateTopRespectedUsers(uint256,address[])": "69c43915"
				}
			},
			"storageLayout": {
				"storage": [
					{
						"astId": 501,
						"contract": "contractsproxy/CommunityGovernanceMultisigImplementation.sol:CommunityGovernanceMultiSigImplementation",
						"label": "profilesContract",
						"offset": 0,
						"slot": "0",
						"type": "t_contract(ICommunityGovernanceProfiles)1629"
					},
					{
						"astId": 504,
						"contract": "contractsproxy/CommunityGovernanceMultisigImplementation.sol:CommunityGovernanceMultiSigImplementation",
						"label": "contributionsContract",
						"offset": 0,
						"slot": "1",
						"type": "t_contract(ICommunityGovernanceContributions)1430"
					},
					{
						"astId": 541,
						"contract": "contractsproxy/CommunityGovernanceMultisigImplementation.sol:CommunityGovernanceMultiSigImplementation",
						"label": "communityMultiSigs",
						"offset": 0,
						"slot": "2",
						"type": "t_mapping(t_uint256,t_struct(MultiSigInfo)516_storage)"
					}
				],
				"types": {
					"t_address": {
						"encoding": "inplace",
						"label": "address",
						"numberOfBytes": "20"
					},
					"t_array(t_address)5_storage": {
						"base": "t_address",
						"encoding": "inplace",
						"label": "address[5]",
						"numberOfBytes": "160"
					},
					"t_bool": {
						"encoding": "inplace",
						"label": "bool",
						"numberOfBytes": "1"
					},
					"t_contract(ICommunityGovernanceContributions)1430": {
						"encoding": "inplace",
						"label": "contract ICommunityGovernanceContributions",
						"numberOfBytes": "20"
					},
					"t_contract(ICommunityGovernanceProfiles)1629": {
						"encoding": "inplace",
						"label": "contract ICommunityGovernanceProfiles",
						"numberOfBytes": "20"
					},
					"t_enum(ProposalType)536": {
						"encoding": "inplace",
						"label": "enum CommunityGovernanceMultiSigStorage.ProposalType",
						"numberOfBytes": "1"
					},
					"t_mapping(t_address,t_bool)": {
						"encoding": "mapping",
						"key": "t_address",
						"label": "mapping(address => bool)",
						"numberOfBytes": "32",
						"value": "t_bool"
					},
					"t_mapping(t_uint256,t_struct(MultiSigInfo)516_storage)": {
						"encoding": "mapping",
						"key": "t_uint256",
						"label": "mapping(uint256 => struct CommunityGovernanceMultiSigStorage.MultiSigInfo)",
						"numberOfBytes": "32",
						"value": "t_struct(MultiSigInfo)516_storage"
					},
					"t_mapping(t_uint256,t_struct(MultiSigProposal)532_storage)": {
						"encoding": "mapping",
						"key": "t_uint256",
						"label": "mapping(uint256 => struct CommunityGovernanceMultiSigStorage.MultiSigProposal)",
						"numberOfBytes": "32",
						"value": "t_struct(MultiSigProposal)532_storage"
					},
					"t_struct(MultiSigInfo)516_storage": {
						"encoding": "inplace",
						"label": "struct CommunityGovernanceMultiSigStorage.MultiSigInfo",
						"members": [
							{
								"astId": 509,
								"contract": "contractsproxy/CommunityGovernanceMultisigImplementation.sol:CommunityGovernanceMultiSigImplementation",
								"label": "proposals",
								"offset": 0,
								"slot": "0",
								"type": "t_mapping(t_uint256,t_struct(MultiSigProposal)532_storage)"
							},
							{
								"astId": 513,
								"contract": "contractsproxy/CommunityGovernanceMultisigImplementation.sol:CommunityGovernanceMultiSigImplementation",
								"label": "topRespectedUsers",
								"offset": 0,
								"slot": "1",
								"type": "t_array(t_address)5_storage"
							},
							{
								"astId": 515,
								"contract": "contractsproxy/CommunityGovernanceMultisigImplementation.sol:CommunityGovernanceMultiSigImplementation",
								"label": "respectToDistribute",
								"offset": 0,
								"slot": "6",
								"type": "t_uint256"
							}
						],
						"numberOfBytes": "224"
					},
					"t_struct(MultiSigProposal)532_storage": {
						"encoding": "inplace",
						"label": "struct CommunityGovernanceMultiSigStorage.MultiSigProposal",
						"members": [
							{
								"astId": 519,
								"contract": "contractsproxy/CommunityGovernanceMultisigImplementation.sol:CommunityGovernanceMultiSigImplementation",
								"label": "proposalType",
								"offset": 0,
								"slot": "0",
								"type": "t_enum(ProposalType)536"
							},
							{
								"astId": 521,
								"contract": "contractsproxy/CommunityGovernanceMultisigImplementation.sol:CommunityGovernanceMultiSigImplementation",
								"label": "value",
								"offset": 0,
								"slot": "1",
								"type": "t_uint256"
							},
							{
								"astId": 523,
								"contract": "contractsproxy/CommunityGovernanceMultisigImplementation.sol:CommunityGovernanceMultiSigImplementation",
								"label": "targetMember",
								"offset": 0,
								"slot": "2",
								"type": "t_address"
							},
							{
								"astId": 525,
								"contract": "contractsproxy/CommunityGovernanceMultisigImplementation.sol:CommunityGovernanceMultiSigImplementation",
								"label": "signatureCount",
								"offset": 0,
								"slot": "3",
								"type": "t_uint256"
							},
							{
								"astId": 529,
								"contract": "contractsproxy/CommunityGovernanceMultisigImplementation.sol:CommunityGovernanceMultiSigImplementation",
								"label": "hasSignedProposal",
								"offset": 0,
								"slot": "4",
								"type": "t_mapping(t_address,t_bool)"
							},
							{
								"astId": 531,
								"contract": "contractsproxy/CommunityGovernanceMultisigImplementation.sol:CommunityGovernanceMultiSigImplementation",
								"label": "executed",
								"offset": 0,
								"slot": "5",
								"type": "t_bool"
							}
						],
						"numberOfBytes": "192"
					},
					"t_uint256": {
						"encoding": "inplace",
						"label": "uint256",
						"numberOfBytes": "32"
					}
				}
			},
			"userdoc": {
				"kind": "user",
				"methods": {},
				"version": 1
			}
		}
	}
}