{
	"contractsproxy/CommunityGovernanceContributionsStorage.sol": {
		"CommunityGovernanceContributionsStorage": {
			"abi": [
				{
					"inputs": [],
					"name": "InvalidInitialization",
					"type": "error"
				},
				{
					"inputs": [],
					"name": "NotInitializing",
					"type": "error"
				},
				{
					"anonymous": false,
					"inputs": [
						{
							"indexed": false,
							"internalType": "uint64",
							"name": "version",
							"type": "uint64"
						}
					],
					"name": "Initialized",
					"type": "event"
				},
				{
					"inputs": [],
					"name": "profilesContract",
					"outputs": [
						{
							"internalType": "contract ICommunityGovernanceProfiles",
							"name": "",
							"type": "address"
						}
					],
					"stateMutability": "view",
					"type": "function"
				}
			],
			"devdoc": {
				"errors": {
					"InvalidInitialization()": [
						{
							"details": "The contract is already initialized."
						}
					],
					"NotInitializing()": [
						{
							"details": "The contract is not initializing."
						}
					]
				},
				"events": {
					"Initialized(uint64)": {
						"details": "Triggered when the contract has been initialized or reinitialized."
					}
				},
				"kind": "dev",
				"methods": {},
				"version": 1
			},
			"evm": {
				"assembly": "    /* \"contractsproxy/CommunityGovernanceContributionsStorage.sol\":252:1772  contract CommunityGovernanceContributionsStorage is Initializable {... */\n  mstore(0x40, 0x80)\n  callvalue\n  dup1\n  iszero\n  tag_1\n  jumpi\n  0x00\n  dup1\n  revert\ntag_1:\n  pop\n  dataSize(sub_0)\n  dup1\n  dataOffset(sub_0)\n  0x00\n  codecopy\n  0x00\n  return\nstop\n\nsub_0: assembly {\n        /* \"contractsproxy/CommunityGovernanceContributionsStorage.sol\":252:1772  contract CommunityGovernanceContributionsStorage is Initializable {... */\n      mstore(0x40, 0x80)\n      callvalue\n      dup1\n      iszero\n      tag_1\n      jumpi\n      0x00\n      dup1\n      revert\n    tag_1:\n      pop\n      jumpi(tag_2, lt(calldatasize, 0x04))\n      shr(0xe0, calldataload(0x00))\n      dup1\n      0x06428f02\n      eq\n      tag_3\n      jumpi\n    tag_2:\n      0x00\n      dup1\n      revert\n        /* \"contractsproxy/CommunityGovernanceContributionsStorage.sol\":324:376  ICommunityGovernanceProfiles public profilesContract */\n    tag_3:\n      tag_4\n      tag_5\n      jump\t// in\n    tag_4:\n      mload(0x40)\n      tag_6\n      swap2\n      swap1\n      tag_7\n      jump\t// in\n    tag_6:\n      mload(0x40)\n      dup1\n      swap2\n      sub\n      swap1\n      return\n    tag_5:\n      0x00\n      dup1\n      sload\n      swap1\n      0x0100\n      exp\n      swap1\n      div\n      0xffffffffffffffffffffffffffffffffffffffff\n      and\n      dup2\n      jump\t// out\n        /* \"#utility.yul\":7:133   */\n    tag_8:\n        /* \"#utility.yul\":44:51   */\n      0x00\n        /* \"#utility.yul\":84:126   */\n      0xffffffffffffffffffffffffffffffffffffffff\n        /* \"#utility.yul\":77:82   */\n      dup3\n        /* \"#utility.yul\":73:127   */\n      and\n        /* \"#utility.yul\":62:127   */\n      swap1\n      pop\n        /* \"#utility.yul\":7:133   */\n      swap2\n      swap1\n      pop\n      jump\t// out\n        /* \"#utility.yul\":139:199   */\n    tag_9:\n        /* \"#utility.yul\":167:170   */\n      0x00\n        /* \"#utility.yul\":188:193   */\n      dup2\n        /* \"#utility.yul\":181:193   */\n      swap1\n      pop\n        /* \"#utility.yul\":139:199   */\n      swap2\n      swap1\n      pop\n      jump\t// out\n        /* \"#utility.yul\":205:347   */\n    tag_10:\n        /* \"#utility.yul\":255:264   */\n      0x00\n        /* \"#utility.yul\":288:341   */\n      tag_18\n        /* \"#utility.yul\":306:340   */\n      tag_19\n        /* \"#utility.yul\":315:339   */\n      tag_20\n        /* \"#utility.yul\":333:338   */\n      dup5\n        /* \"#utility.yul\":315:339   */\n      tag_8\n      jump\t// in\n    tag_20:\n        /* \"#utility.yul\":306:340   */\n      tag_9\n      jump\t// in\n    tag_19:\n        /* \"#utility.yul\":288:341   */\n      tag_8\n      jump\t// in\n    tag_18:\n        /* \"#utility.yul\":275:341   */\n      swap1\n      pop\n        /* \"#utility.yul\":205:347   */\n      swap2\n      swap1\n      pop\n      jump\t// out\n        /* \"#utility.yul\":353:479   */\n    tag_11:\n        /* \"#utility.yul\":403:412   */\n      0x00\n        /* \"#utility.yul\":436:473   */\n      tag_22\n        /* \"#utility.yul\":467:472   */\n      dup3\n        /* \"#utility.yul\":436:473   */\n      tag_10\n      jump\t// in\n    tag_22:\n        /* \"#utility.yul\":423:473   */\n      swap1\n      pop\n        /* \"#utility.yul\":353:479   */\n      swap2\n      swap1\n      pop\n      jump\t// out\n        /* \"#utility.yul\":485:647   */\n    tag_12:\n        /* \"#utility.yul\":571:580   */\n      0x00\n        /* \"#utility.yul\":604:641   */\n      tag_24\n        /* \"#utility.yul\":635:640   */\n      dup3\n        /* \"#utility.yul\":604:641   */\n      tag_11\n      jump\t// in\n    tag_24:\n        /* \"#utility.yul\":591:641   */\n      swap1\n      pop\n        /* \"#utility.yul\":485:647   */\n      swap2\n      swap1\n      pop\n      jump\t// out\n        /* \"#utility.yul\":653:856   */\n    tag_13:\n        /* \"#utility.yul\":776:849   */\n      tag_26\n        /* \"#utility.yul\":843:848   */\n      dup2\n        /* \"#utility.yul\":776:849   */\n      tag_12\n      jump\t// in\n    tag_26:\n        /* \"#utility.yul\":771:774   */\n      dup3\n        /* \"#utility.yul\":764:850   */\n      mstore\n        /* \"#utility.yul\":653:856   */\n      pop\n      pop\n      jump\t// out\n        /* \"#utility.yul\":862:1156   */\n    tag_7:\n        /* \"#utility.yul\":991:995   */\n      0x00\n        /* \"#utility.yul\":1029:1031   */\n      0x20\n        /* \"#utility.yul\":1018:1027   */\n      dup3\n        /* \"#utility.yul\":1014:1032   */\n      add\n        /* \"#utility.yul\":1006:1032   */\n      swap1\n      pop\n        /* \"#utility.yul\":1042:1149   */\n      tag_28\n        /* \"#utility.yul\":1146:1147   */\n      0x00\n        /* \"#utility.yul\":1135:1144   */\n      dup4\n        /* \"#utility.yul\":1131:1148   */\n      add\n        /* \"#utility.yul\":1122:1128   */\n      dup5\n        /* \"#utility.yul\":1042:1149   */\n      tag_13\n      jump\t// in\n    tag_28:\n        /* \"#utility.yul\":862:1156   */\n      swap3\n      swap2\n      pop\n      pop\n      jump\t// out\n\n    auxdata: 0xa264697066735822122057e8f0a0ba35137fff8b13df20465bc838bdffcc617db46ce8297a7a0d506c3c64736f6c634300081a0033\n}\n",
				"bytecode": {
					"linkReferences": {},
					"object": "6080604052348015600e575f80fd5b506101228061001c5f395ff3fe6080604052348015600e575f80fd5b50600436106026575f3560e01c806306428f0214602a575b5f80fd5b60306044565b604051603b919060d5565b60405180910390f35b5f8054906101000a900473ffffffffffffffffffffffffffffffffffffffff1681565b5f73ffffffffffffffffffffffffffffffffffffffff82169050919050565b5f819050919050565b5f60a3609f609b846067565b6086565b6067565b9050919050565b5f60b282608f565b9050919050565b5f60c18260aa565b9050919050565b60cf8160b9565b82525050565b5f60208201905060e65f83018460c8565b9291505056fea264697066735822122057e8f0a0ba35137fff8b13df20465bc838bdffcc617db46ce8297a7a0d506c3c64736f6c634300081a0033",
					"opcodes": "PUSH1 0x80 PUSH1 0x40 MSTORE CALLVALUE DUP1 ISZERO PUSH1 0xE JUMPI PUSH0 DUP1 REVERT JUMPDEST POP PUSH2 0x122 DUP1 PUSH2 0x1C PUSH0 CODECOPY PUSH0 RETURN INVALID PUSH1 0x80 PUSH1 0x40 MSTORE CALLVALUE DUP1 ISZERO PUSH1 0xE JUMPI PUSH0 DUP1 REVERT JUMPDEST POP PUSH1 0x4 CALLDATASIZE LT PUSH1 0x26 JUMPI PUSH0 CALLDATALOAD PUSH1 0xE0 SHR DUP1 PUSH4 0x6428F02 EQ PUSH1 0x2A JUMPI JUMPDEST PUSH0 DUP1 REVERT JUMPDEST PUSH1 0x30 PUSH1 0x44 JUMP JUMPDEST PUSH1 0x40 MLOAD PUSH1 0x3B SWAP2 SWAP1 PUSH1 0xD5 JUMP JUMPDEST PUSH1 0x40 MLOAD DUP1 SWAP2 SUB SWAP1 RETURN JUMPDEST PUSH0 DUP1 SLOAD SWAP1 PUSH2 0x100 EXP SWAP1 DIV PUSH20 0xFFFFFFFFFFFFFFFFFFFFFFFFFFFFFFFFFFFFFFFF AND DUP2 JUMP JUMPDEST PUSH0 PUSH20 0xFFFFFFFFFFFFFFFFFFFFFFFFFFFFFFFFFFFFFFFF DUP3 AND SWAP1 POP SWAP2 SWAP1 POP JUMP JUMPDEST PUSH0 DUP2 SWAP1 POP SWAP2 SWAP1 POP JUMP JUMPDEST PUSH0 PUSH1 0xA3 PUSH1 0x9F PUSH1 0x9B DUP5 PUSH1 0x67 JUMP JUMPDEST PUSH1 0x86 JUMP JUMPDEST PUSH1 0x67 JUMP JUMPDEST SWAP1 POP SWAP2 SWAP1 POP JUMP JUMPDEST PUSH0 PUSH1 0xB2 DUP3 PUSH1 0x8F JUMP JUMPDEST SWAP1 POP SWAP2 SWAP1 POP JUMP JUMPDEST PUSH0 PUSH1 0xC1 DUP3 PUSH1 0xAA JUMP JUMPDEST SWAP1 POP SWAP2 SWAP1 POP JUMP JUMPDEST PUSH1 0xCF DUP2 PUSH1 0xB9 JUMP JUMPDEST DUP3 MSTORE POP POP JUMP JUMPDEST PUSH0 PUSH1 0x20 DUP3 ADD SWAP1 POP PUSH1 0xE6 PUSH0 DUP4 ADD DUP5 PUSH1 0xC8 JUMP JUMPDEST SWAP3 SWAP2 POP POP JUMP INVALID LOG2 PUSH5 0x6970667358 0x22 SLT KECCAK256 JUMPI 0xE8 CREATE LOG0 0xBA CALLDATALOAD SGT PUSH32 0xFF8B13DF20465BC838BDFFCC617DB46CE8297A7A0D506C3C64736F6C63430008 BYTE STOP CALLER "
				},
				"gasEstimates": {
					"creation": {
						"codeDepositCost": "58000",
						"executionCost": "109",
						"totalCost": "58109"
					},
					"external": {
						"profilesContract()": "infinite"
					}
				},
				"methodIdentifiers": {
					"profilesContract()": "06428f02"
				}
			},
			"storageLayout": {
				"storage": [
					{
						"astId": 263,
						"contract": "contractsproxy/CommunityGovernanceContributionsStorage.sol:CommunityGovernanceContributionsStorage",
						"label": "profilesContract",
						"offset": 0,
						"slot": "0",
						"type": "t_contract(ICommunityGovernanceProfiles)559"
					},
					{
						"astId": 297,
						"contract": "contractsproxy/CommunityGovernanceContributionsStorage.sol:CommunityGovernanceContributionsStorage",
						"label": "userContributions",
						"offset": 0,
						"slot": "1",
						"type": "t_mapping(t_address,t_mapping(t_uint256,t_struct(UserContributions)290_storage))"
					},
					{
						"astId": 304,
						"contract": "contractsproxy/CommunityGovernanceContributionsStorage.sol:CommunityGovernanceContributionsStorage",
						"label": "weeklyContributors",
						"offset": 0,
						"slot": "2",
						"type": "t_mapping(t_uint256,t_mapping(t_uint256,t_array(t_address)dyn_storage))"
					},
					{
						"astId": 312,
						"contract": "contractsproxy/CommunityGovernanceContributionsStorage.sol:CommunityGovernanceContributionsStorage",
						"label": "weeklyGroups",
						"offset": 0,
						"slot": "3",
						"type": "t_mapping(t_uint256,t_mapping(t_uint256,t_array(t_struct(Group)333_storage)dyn_storage))"
					},
					{
						"astId": 315,
						"contract": "contractsproxy/CommunityGovernanceContributionsStorage.sol:CommunityGovernanceContributionsStorage",
						"label": "lastRoomSizes",
						"offset": 0,
						"slot": "4",
						"type": "t_array(t_uint8)dyn_storage"
					}
				],
				"types": {
					"t_address": {
						"encoding": "inplace",
						"label": "address",
						"numberOfBytes": "20"
					},
					"t_array(t_address)dyn_storage": {
						"base": "t_address",
						"encoding": "dynamic_array",
						"label": "address[]",
						"numberOfBytes": "32"
					},
					"t_array(t_string_storage)dyn_storage": {
						"base": "t_string_storage",
						"encoding": "dynamic_array",
						"label": "string[]",
						"numberOfBytes": "32"
					},
					"t_array(t_struct(Contribution)329_storage)dyn_storage": {
						"base": "t_struct(Contribution)329_storage",
						"encoding": "dynamic_array",
						"label": "struct ICommunityGovernanceContributions.Contribution[]",
						"numberOfBytes": "32"
					},
					"t_array(t_struct(Group)333_storage)dyn_storage": {
						"base": "t_struct(Group)333_storage",
						"encoding": "dynamic_array",
						"label": "struct ICommunityGovernanceContributions.Group[]",
						"numberOfBytes": "32"
					},
					"t_array(t_uint256)dyn_storage": {
						"base": "t_uint256",
						"encoding": "dynamic_array",
						"label": "uint256[]",
						"numberOfBytes": "32"
					},
					"t_array(t_uint8)dyn_storage": {
						"base": "t_uint8",
						"encoding": "dynamic_array",
						"label": "uint8[]",
						"numberOfBytes": "32"
					},
					"t_contract(ICommunityGovernanceProfiles)559": {
						"encoding": "inplace",
						"label": "contract ICommunityGovernanceProfiles",
						"numberOfBytes": "20"
					},
					"t_mapping(t_address,t_mapping(t_uint256,t_struct(UserContributions)290_storage))": {
						"encoding": "mapping",
						"key": "t_address",
						"label": "mapping(address => mapping(uint256 => struct CommunityGovernanceContributionsStorage.UserContributions))",
						"numberOfBytes": "32",
						"value": "t_mapping(t_uint256,t_struct(UserContributions)290_storage)"
					},
					"t_mapping(t_uint256,t_array(t_address)dyn_storage)": {
						"encoding": "mapping",
						"key": "t_uint256",
						"label": "mapping(uint256 => address[])",
						"numberOfBytes": "32",
						"value": "t_array(t_address)dyn_storage"
					},
					"t_mapping(t_uint256,t_array(t_struct(Group)333_storage)dyn_storage)": {
						"encoding": "mapping",
						"key": "t_uint256",
						"label": "mapping(uint256 => struct ICommunityGovernanceContributions.Group[])",
						"numberOfBytes": "32",
						"value": "t_array(t_struct(Group)333_storage)dyn_storage"
					},
					"t_mapping(t_uint256,t_mapping(t_uint256,t_array(t_address)dyn_storage))": {
						"encoding": "mapping",
						"key": "t_uint256",
						"label": "mapping(uint256 => mapping(uint256 => address[]))",
						"numberOfBytes": "32",
						"value": "t_mapping(t_uint256,t_array(t_address)dyn_storage)"
					},
					"t_mapping(t_uint256,t_mapping(t_uint256,t_array(t_struct(Group)333_storage)dyn_storage))": {
						"encoding": "mapping",
						"key": "t_uint256",
						"label": "mapping(uint256 => mapping(uint256 => struct ICommunityGovernanceContributions.Group[]))",
						"numberOfBytes": "32",
						"value": "t_mapping(t_uint256,t_array(t_struct(Group)333_storage)dyn_storage)"
					},
					"t_mapping(t_uint256,t_struct(UserContributions)290_storage)": {
						"encoding": "mapping",
						"key": "t_uint256",
						"label": "mapping(uint256 => struct CommunityGovernanceContributionsStorage.UserContributions)",
						"numberOfBytes": "32",
						"value": "t_struct(UserContributions)290_storage"
					},
					"t_mapping(t_uint256,t_struct(WeeklyContributions)272_storage)": {
						"encoding": "mapping",
						"key": "t_uint256",
						"label": "mapping(uint256 => struct CommunityGovernanceContributionsStorage.WeeklyContributions)",
						"numberOfBytes": "32",
						"value": "t_struct(WeeklyContributions)272_storage"
					},
					"t_string_storage": {
						"encoding": "bytes",
						"label": "string",
						"numberOfBytes": "32"
					},
					"t_struct(Contribution)329_storage": {
						"encoding": "inplace",
						"label": "struct ICommunityGovernanceContributions.Contribution",
						"members": [
							{
								"astId": 323,
								"contract": "contractsproxy/CommunityGovernanceContributionsStorage.sol:CommunityGovernanceContributionsStorage",
								"label": "name",
								"offset": 0,
								"slot": "0",
								"type": "t_string_storage"
							},
							{
								"astId": 325,
								"contract": "contractsproxy/CommunityGovernanceContributionsStorage.sol:CommunityGovernanceContributionsStorage",
								"label": "description",
								"offset": 0,
								"slot": "1",
								"type": "t_string_storage"
							},
							{
								"astId": 328,
								"contract": "contractsproxy/CommunityGovernanceContributionsStorage.sol:CommunityGovernanceContributionsStorage",
								"label": "links",
								"offset": 0,
								"slot": "2",
								"type": "t_array(t_string_storage)dyn_storage"
							}
						],
						"numberOfBytes": "96"
					},
					"t_struct(Group)333_storage": {
						"encoding": "inplace",
						"label": "struct ICommunityGovernanceContributions.Group",
						"members": [
							{
								"astId": 332,
								"contract": "contractsproxy/CommunityGovernanceContributionsStorage.sol:CommunityGovernanceContributionsStorage",
								"label": "members",
								"offset": 0,
								"slot": "0",
								"type": "t_array(t_address)dyn_storage"
							}
						],
						"numberOfBytes": "32"
					},
					"t_struct(UserContributions)290_storage": {
						"encoding": "inplace",
						"label": "struct CommunityGovernanceContributionsStorage.UserContributions",
						"members": [
							{
								"astId": 274,
								"contract": "contractsproxy/CommunityGovernanceContributionsStorage.sol:CommunityGovernanceContributionsStorage",
								"label": "communityId",
								"offset": 0,
								"slot": "0",
								"type": "t_uint256"
							},
							{
								"astId": 279,
								"contract": "contractsproxy/CommunityGovernanceContributionsStorage.sol:CommunityGovernanceContributionsStorage",
								"label": "weeklyContributions",
								"offset": 0,
								"slot": "1",
								"type": "t_mapping(t_uint256,t_struct(WeeklyContributions)272_storage)"
							},
							{
								"astId": 282,
								"contract": "contractsproxy/CommunityGovernanceContributionsStorage.sol:CommunityGovernanceContributionsStorage",
								"label": "contributedWeeks",
								"offset": 0,
								"slot": "2",
								"type": "t_array(t_uint256)dyn_storage"
							},
							{
								"astId": 284,
								"contract": "contractsproxy/CommunityGovernanceContributionsStorage.sol:CommunityGovernanceContributionsStorage",
								"label": "totalRespect",
								"offset": 0,
								"slot": "3",
								"type": "t_uint256"
							},
							{
								"astId": 286,
								"contract": "contractsproxy/CommunityGovernanceContributionsStorage.sol:CommunityGovernanceContributionsStorage",
								"label": "averageRespect",
								"offset": 0,
								"slot": "4",
								"type": "t_uint256"
							},
							{
								"astId": 289,
								"contract": "contractsproxy/CommunityGovernanceContributionsStorage.sol:CommunityGovernanceContributionsStorage",
								"label": "last12WeeksRespect",
								"offset": 0,
								"slot": "5",
								"type": "t_array(t_uint256)dyn_storage"
							}
						],
						"numberOfBytes": "192"
					},
					"t_struct(WeeklyContributions)272_storage": {
						"encoding": "inplace",
						"label": "struct CommunityGovernanceContributionsStorage.WeeklyContributions",
						"members": [
							{
								"astId": 265,
								"contract": "contractsproxy/CommunityGovernanceContributionsStorage.sol:CommunityGovernanceContributionsStorage",
								"label": "weekNumber",
								"offset": 0,
								"slot": "0",
								"type": "t_uint256"
							},
							{
								"astId": 269,
								"contract": "contractsproxy/CommunityGovernanceContributionsStorage.sol:CommunityGovernanceContributionsStorage",
								"label": "contributions",
								"offset": 0,
								"slot": "1",
								"type": "t_array(t_struct(Contribution)329_storage)dyn_storage"
							},
							{
								"astId": 271,
								"contract": "contractsproxy/CommunityGovernanceContributionsStorage.sol:CommunityGovernanceContributionsStorage",
								"label": "respectReceived",
								"offset": 0,
								"slot": "2",
								"type": "t_uint256"
							}
						],
						"numberOfBytes": "96"
					},
					"t_uint256": {
						"encoding": "inplace",
						"label": "uint256",
						"numberOfBytes": "32"
					},
					"t_uint8": {
						"encoding": "inplace",
						"label": "uint8",
						"numberOfBytes": "1"
					}
				}
			},
			"userdoc": {
				"kind": "user",
				"methods": {},
				"version": 1
			}
		}
	}
}