{
	"contractsproxy/CommunityGovernanceRankingsStorage.sol": {
		"CommunityGovernanceRankingsStorage": {
			"abi": [
				{
					"inputs": [
						{
							"internalType": "uint256",
							"name": "",
							"type": "uint256"
						}
					],
					"name": "communityExists",
					"outputs": [
						{
							"internalType": "bool",
							"name": "",
							"type": "bool"
						}
					],
					"stateMutability": "view",
					"type": "function"
				},
				{
					"inputs": [],
					"name": "contributionsContract",
					"outputs": [
						{
							"internalType": "contract ICommunityGovernanceContributions",
							"name": "",
							"type": "address"
						}
					],
					"stateMutability": "view",
					"type": "function"
				},
				{
					"inputs": [],
					"name": "multisigContract",
					"outputs": [
						{
							"internalType": "contract ICommunityGovernanceMultiSig",
							"name": "",
							"type": "address"
						}
					],
					"stateMutability": "view",
					"type": "function"
				},
				{
					"inputs": [],
					"name": "profilesContract",
					"outputs": [
						{
							"internalType": "contract ICommunityGovernanceProfiles",
							"name": "",
							"type": "address"
						}
					],
					"stateMutability": "view",
					"type": "function"
				},
				{
					"inputs": [
						{
							"internalType": "uint256",
							"name": "",
							"type": "uint256"
						},
						{
							"internalType": "address",
							"name": "",
							"type": "address"
						}
					],
					"name": "userClaimableTokens",
					"outputs": [
						{
							"internalType": "uint256",
							"name": "amount",
							"type": "uint256"
						},
						{
							"internalType": "bool",
							"name": "claimed",
							"type": "bool"
						}
					],
					"stateMutability": "view",
					"type": "function"
				}
			],
			"devdoc": {
				"kind": "dev",
				"methods": {},
				"version": 1
			},
			"evm": {
				"assembly": "    /* \"contractsproxy/CommunityGovernanceRankingsStorage.sol\":232:1174  contract CommunityGovernanceRankingsStorage {... */\n  mstore(0x40, 0x80)\n  callvalue\n  dup1\n  iszero\n  tag_1\n  jumpi\n  0x00\n  dup1\n  revert\ntag_1:\n  pop\n  dataSize(sub_0)\n  dup1\n  dataOffset(sub_0)\n  0x00\n  codecopy\n  0x00\n  return\nstop\n\nsub_0: assembly {\n        /* \"contractsproxy/CommunityGovernanceRankingsStorage.sol\":232:1174  contract CommunityGovernanceRankingsStorage {... */\n      mstore(0x40, 0x80)\n      callvalue\n      dup1\n      iszero\n      tag_1\n      jumpi\n      0x00\n      dup1\n      revert\n    tag_1:\n      pop\n      jumpi(tag_2, lt(calldatasize, 0x04))\n      shr(0xe0, calldataload(0x00))\n      dup1\n      0x04d5232b\n      eq\n      tag_3\n      jumpi\n      dup1\n      0x06428f02\n      eq\n      tag_4\n      jumpi\n      dup1\n      0x643f273d\n      eq\n      tag_5\n      jumpi\n      dup1\n      0xd60429d0\n      eq\n      tag_6\n      jumpi\n      dup1\n      0xde04bbd2\n      eq\n      tag_7\n      jumpi\n    tag_2:\n      0x00\n      dup1\n      revert\n        /* \"contractsproxy/CommunityGovernanceRankingsStorage.sol\":1118:1170  ICommunityGovernanceMultiSig public multisigContract */\n    tag_3:\n      tag_8\n      tag_9\n      jump\t// in\n    tag_8:\n      mload(0x40)\n      tag_10\n      swap2\n      swap1\n      tag_11\n      jump\t// in\n    tag_10:\n      mload(0x40)\n      dup1\n      swap2\n      sub\n      swap1\n      return\n        /* \"contractsproxy/CommunityGovernanceRankingsStorage.sol\":1060:1112  ICommunityGovernanceProfiles public profilesContract */\n    tag_4:\n      tag_12\n      tag_13\n      jump\t// in\n    tag_12:\n      mload(0x40)\n      tag_14\n      swap2\n      swap1\n      tag_15\n      jump\t// in\n    tag_14:\n      mload(0x40)\n      dup1\n      swap2\n      sub\n      swap1\n      return\n        /* \"contractsproxy/CommunityGovernanceRankingsStorage.sol\":864:946  mapping(uint256 => mapping(address => ClaimableTokens)) public userClaimableTokens */\n    tag_5:\n      tag_16\n      0x04\n      dup1\n      calldatasize\n      sub\n      dup2\n      add\n      swap1\n      tag_17\n      swap2\n      swap1\n      tag_18\n      jump\t// in\n    tag_17:\n      tag_19\n      jump\t// in\n    tag_16:\n      mload(0x40)\n      tag_20\n      swap3\n      swap2\n      swap1\n      tag_21\n      jump\t// in\n    tag_20:\n      mload(0x40)\n      dup1\n      swap2\n      sub\n      swap1\n      return\n        /* \"contractsproxy/CommunityGovernanceRankingsStorage.sol\":811:858  mapping(uint256 => bool) public communityExists */\n    tag_6:\n      tag_22\n      0x04\n      dup1\n      calldatasize\n      sub\n      dup2\n      add\n      swap1\n      tag_23\n      swap2\n      swap1\n      tag_24\n      jump\t// in\n    tag_23:\n      tag_25\n      jump\t// in\n    tag_22:\n      mload(0x40)\n      tag_26\n      swap2\n      swap1\n      tag_27\n      jump\t// in\n    tag_26:\n      mload(0x40)\n      dup1\n      swap2\n      sub\n      swap1\n      return\n        /* \"contractsproxy/CommunityGovernanceRankingsStorage.sol\":992:1054  ICommunityGovernanceContributions public contributionsContract */\n    tag_7:\n      tag_28\n      tag_29\n      jump\t// in\n    tag_28:\n      mload(0x40)\n      tag_30\n      swap2\n      swap1\n      tag_31\n      jump\t// in\n    tag_30:\n      mload(0x40)\n      dup1\n      swap2\n      sub\n      swap1\n      return\n        /* \"contractsproxy/CommunityGovernanceRankingsStorage.sol\":1118:1170  ICommunityGovernanceMultiSig public multisigContract */\n    tag_9:\n      0x07\n      0x00\n      swap1\n      sload\n      swap1\n      0x0100\n      exp\n      swap1\n      div\n      0xffffffffffffffffffffffffffffffffffffffff\n      and\n      dup2\n      jump\t// out\n        /* \"contractsproxy/CommunityGovernanceRankingsStorage.sol\":1060:1112  ICommunityGovernanceProfiles public profilesContract */\n    tag_13:\n      0x06\n      0x00\n      swap1\n      sload\n      swap1\n      0x0100\n      exp\n      swap1\n      div\n      0xffffffffffffffffffffffffffffffffffffffff\n      and\n      dup2\n      jump\t// out\n        /* \"contractsproxy/CommunityGovernanceRankingsStorage.sol\":864:946  mapping(uint256 => mapping(address => ClaimableTokens)) public userClaimableTokens */\n    tag_19:\n      mstore(0x20, 0x03)\n      dup2\n      0x00\n      mstore\n      mstore(0x20, keccak256(0x00, 0x40))\n      dup1\n      0x00\n      mstore\n      keccak256(0x00, 0x40)\n      0x00\n      swap2\n      pop\n      swap2\n      pop\n      pop\n      dup1\n      0x00\n      add\n      sload\n      swap1\n      dup1\n      0x01\n      add\n      0x00\n      swap1\n      sload\n      swap1\n      0x0100\n      exp\n      swap1\n      div\n      0xff\n      and\n      swap1\n      pop\n      dup3\n      jump\t// out\n        /* \"contractsproxy/CommunityGovernanceRankingsStorage.sol\":811:858  mapping(uint256 => bool) public communityExists */\n    tag_25:\n      mstore(0x20, 0x02)\n      dup1\n      0x00\n      mstore\n      keccak256(0x00, 0x40)\n      0x00\n      swap2\n      pop\n      sload\n      swap1\n      0x0100\n      exp\n      swap1\n      div\n      0xff\n      and\n      dup2\n      jump\t// out\n        /* \"contractsproxy/CommunityGovernanceRankingsStorage.sol\":992:1054  ICommunityGovernanceContributions public contributionsContract */\n    tag_29:\n      0x05\n      0x00\n      swap1\n      sload\n      swap1\n      0x0100\n      exp\n      swap1\n      div\n      0xffffffffffffffffffffffffffffffffffffffff\n      and\n      dup2\n      jump\t// out\n        /* \"#utility.yul\":7:133   */\n    tag_32:\n        /* \"#utility.yul\":44:51   */\n      0x00\n        /* \"#utility.yul\":84:126   */\n      0xffffffffffffffffffffffffffffffffffffffff\n        /* \"#utility.yul\":77:82   */\n      dup3\n        /* \"#utility.yul\":73:127   */\n      and\n        /* \"#utility.yul\":62:127   */\n      swap1\n      pop\n        /* \"#utility.yul\":7:133   */\n      swap2\n      swap1\n      pop\n      jump\t// out\n        /* \"#utility.yul\":139:199   */\n    tag_33:\n        /* \"#utility.yul\":167:170   */\n      0x00\n        /* \"#utility.yul\":188:193   */\n      dup2\n        /* \"#utility.yul\":181:193   */\n      swap1\n      pop\n        /* \"#utility.yul\":139:199   */\n      swap2\n      swap1\n      pop\n      jump\t// out\n        /* \"#utility.yul\":205:347   */\n    tag_34:\n        /* \"#utility.yul\":255:264   */\n      0x00\n        /* \"#utility.yul\":288:341   */\n      tag_58\n        /* \"#utility.yul\":306:340   */\n      tag_59\n        /* \"#utility.yul\":315:339   */\n      tag_60\n        /* \"#utility.yul\":333:338   */\n      dup5\n        /* \"#utility.yul\":315:339   */\n      tag_32\n      jump\t// in\n    tag_60:\n        /* \"#utility.yul\":306:340   */\n      tag_33\n      jump\t// in\n    tag_59:\n        /* \"#utility.yul\":288:341   */\n      tag_32\n      jump\t// in\n    tag_58:\n        /* \"#utility.yul\":275:341   */\n      swap1\n      pop\n        /* \"#utility.yul\":205:347   */\n      swap2\n      swap1\n      pop\n      jump\t// out\n        /* \"#utility.yul\":353:479   */\n    tag_35:\n        /* \"#utility.yul\":403:412   */\n      0x00\n        /* \"#utility.yul\":436:473   */\n      tag_62\n        /* \"#utility.yul\":467:472   */\n      dup3\n        /* \"#utility.yul\":436:473   */\n      tag_34\n      jump\t// in\n    tag_62:\n        /* \"#utility.yul\":423:473   */\n      swap1\n      pop\n        /* \"#utility.yul\":353:479   */\n      swap2\n      swap1\n      pop\n      jump\t// out\n        /* \"#utility.yul\":485:647   */\n    tag_36:\n        /* \"#utility.yul\":571:580   */\n      0x00\n        /* \"#utility.yul\":604:641   */\n      tag_64\n        /* \"#utility.yul\":635:640   */\n      dup3\n        /* \"#utility.yul\":604:641   */\n      tag_35\n      jump\t// in\n    tag_64:\n        /* \"#utility.yul\":591:641   */\n      swap1\n      pop\n        /* \"#utility.yul\":485:647   */\n      swap2\n      swap1\n      pop\n      jump\t// out\n        /* \"#utility.yul\":653:856   */\n    tag_37:\n        /* \"#utility.yul\":776:849   */\n      tag_66\n        /* \"#utility.yul\":843:848   */\n      dup2\n        /* \"#utility.yul\":776:849   */\n      tag_36\n      jump\t// in\n    tag_66:\n        /* \"#utility.yul\":771:774   */\n      dup3\n        /* \"#utility.yul\":764:850   */\n      mstore\n        /* \"#utility.yul\":653:856   */\n      pop\n      pop\n      jump\t// out\n        /* \"#utility.yul\":862:1156   */\n    tag_11:\n        /* \"#utility.yul\":991:995   */\n      0x00\n        /* \"#utility.yul\":1029:1031   */\n      0x20\n        /* \"#utility.yul\":1018:1027   */\n      dup3\n        /* \"#utility.yul\":1014:1032   */\n      add\n        /* \"#utility.yul\":1006:1032   */\n      swap1\n      pop\n        /* \"#utility.yul\":1042:1149   */\n      tag_68\n        /* \"#utility.yul\":1146:1147   */\n      0x00\n        /* \"#utility.yul\":1135:1144   */\n      dup4\n        /* \"#utility.yul\":1131:1148   */\n      add\n        /* \"#utility.yul\":1122:1128   */\n      dup5\n        /* \"#utility.yul\":1042:1149   */\n      tag_37\n      jump\t// in\n    tag_68:\n        /* \"#utility.yul\":862:1156   */\n      swap3\n      swap2\n      pop\n      pop\n      jump\t// out\n        /* \"#utility.yul\":1162:1324   */\n    tag_38:\n        /* \"#utility.yul\":1248:1257   */\n      0x00\n        /* \"#utility.yul\":1281:1318   */\n      tag_70\n        /* \"#utility.yul\":1312:1317   */\n      dup3\n        /* \"#utility.yul\":1281:1318   */\n      tag_35\n      jump\t// in\n    tag_70:\n        /* \"#utility.yul\":1268:1318   */\n      swap1\n      pop\n        /* \"#utility.yul\":1162:1324   */\n      swap2\n      swap1\n      pop\n      jump\t// out\n        /* \"#utility.yul\":1330:1533   */\n    tag_39:\n        /* \"#utility.yul\":1453:1526   */\n      tag_72\n        /* \"#utility.yul\":1520:1525   */\n      dup2\n        /* \"#utility.yul\":1453:1526   */\n      tag_38\n      jump\t// in\n    tag_72:\n        /* \"#utility.yul\":1448:1451   */\n      dup3\n        /* \"#utility.yul\":1441:1527   */\n      mstore\n        /* \"#utility.yul\":1330:1533   */\n      pop\n      pop\n      jump\t// out\n        /* \"#utility.yul\":1539:1833   */\n    tag_15:\n        /* \"#utility.yul\":1668:1672   */\n      0x00\n        /* \"#utility.yul\":1706:1708   */\n      0x20\n        /* \"#utility.yul\":1695:1704   */\n      dup3\n        /* \"#utility.yul\":1691:1709   */\n      add\n        /* \"#utility.yul\":1683:1709   */\n      swap1\n      pop\n        /* \"#utility.yul\":1719:1826   */\n      tag_74\n        /* \"#utility.yul\":1823:1824   */\n      0x00\n        /* \"#utility.yul\":1812:1821   */\n      dup4\n        /* \"#utility.yul\":1808:1825   */\n      add\n        /* \"#utility.yul\":1799:1805   */\n      dup5\n        /* \"#utility.yul\":1719:1826   */\n      tag_39\n      jump\t// in\n    tag_74:\n        /* \"#utility.yul\":1539:1833   */\n      swap3\n      swap2\n      pop\n      pop\n      jump\t// out\n        /* \"#utility.yul\":1920:2037   */\n    tag_41:\n        /* \"#utility.yul\":2029:2030   */\n      0x00\n        /* \"#utility.yul\":2026:2027   */\n      dup1\n        /* \"#utility.yul\":2019:2031   */\n      revert\n        /* \"#utility.yul\":2166:2243   */\n    tag_43:\n        /* \"#utility.yul\":2203:2210   */\n      0x00\n        /* \"#utility.yul\":2232:2237   */\n      dup2\n        /* \"#utility.yul\":2221:2237   */\n      swap1\n      pop\n        /* \"#utility.yul\":2166:2243   */\n      swap2\n      swap1\n      pop\n      jump\t// out\n        /* \"#utility.yul\":2249:2371   */\n    tag_44:\n        /* \"#utility.yul\":2322:2346   */\n      tag_80\n        /* \"#utility.yul\":2340:2345   */\n      dup2\n        /* \"#utility.yul\":2322:2346   */\n      tag_43\n      jump\t// in\n    tag_80:\n        /* \"#utility.yul\":2315:2320   */\n      dup2\n        /* \"#utility.yul\":2312:2347   */\n      eq\n        /* \"#utility.yul\":2302:2365   */\n      tag_81\n      jumpi\n        /* \"#utility.yul\":2361:2362   */\n      0x00\n        /* \"#utility.yul\":2358:2359   */\n      dup1\n        /* \"#utility.yul\":2351:2363   */\n      revert\n        /* \"#utility.yul\":2302:2365   */\n    tag_81:\n        /* \"#utility.yul\":2249:2371   */\n      pop\n      jump\t// out\n        /* \"#utility.yul\":2377:2516   */\n    tag_45:\n        /* \"#utility.yul\":2423:2428   */\n      0x00\n        /* \"#utility.yul\":2461:2467   */\n      dup2\n        /* \"#utility.yul\":2448:2468   */\n      calldataload\n        /* \"#utility.yul\":2439:2468   */\n      swap1\n      pop\n        /* \"#utility.yul\":2477:2510   */\n      tag_83\n        /* \"#utility.yul\":2504:2509   */\n      dup2\n        /* \"#utility.yul\":2477:2510   */\n      tag_44\n      jump\t// in\n    tag_83:\n        /* \"#utility.yul\":2377:2516   */\n      swap3\n      swap2\n      pop\n      pop\n      jump\t// out\n        /* \"#utility.yul\":2522:2618   */\n    tag_46:\n        /* \"#utility.yul\":2559:2566   */\n      0x00\n        /* \"#utility.yul\":2588:2612   */\n      tag_85\n        /* \"#utility.yul\":2606:2611   */\n      dup3\n        /* \"#utility.yul\":2588:2612   */\n      tag_32\n      jump\t// in\n    tag_85:\n        /* \"#utility.yul\":2577:2612   */\n      swap1\n      pop\n        /* \"#utility.yul\":2522:2618   */\n      swap2\n      swap1\n      pop\n      jump\t// out\n        /* \"#utility.yul\":2624:2746   */\n    tag_47:\n        /* \"#utility.yul\":2697:2721   */\n      tag_87\n        /* \"#utility.yul\":2715:2720   */\n      dup2\n        /* \"#utility.yul\":2697:2721   */\n      tag_46\n      jump\t// in\n    tag_87:\n        /* \"#utility.yul\":2690:2695   */\n      dup2\n        /* \"#utility.yul\":2687:2722   */\n      eq\n        /* \"#utility.yul\":2677:2740   */\n      tag_88\n      jumpi\n        /* \"#utility.yul\":2736:2737   */\n      0x00\n        /* \"#utility.yul\":2733:2734   */\n      dup1\n        /* \"#utility.yul\":2726:2738   */\n      revert\n        /* \"#utility.yul\":2677:2740   */\n    tag_88:\n        /* \"#utility.yul\":2624:2746   */\n      pop\n      jump\t// out\n        /* \"#utility.yul\":2752:2891   */\n    tag_48:\n        /* \"#utility.yul\":2798:2803   */\n      0x00\n        /* \"#utility.yul\":2836:2842   */\n      dup2\n        /* \"#utility.yul\":2823:2843   */\n      calldataload\n        /* \"#utility.yul\":2814:2843   */\n      swap1\n      pop\n        /* \"#utility.yul\":2852:2885   */\n      tag_90\n        /* \"#utility.yul\":2879:2884   */\n      dup2\n        /* \"#utility.yul\":2852:2885   */\n      tag_47\n      jump\t// in\n    tag_90:\n        /* \"#utility.yul\":2752:2891   */\n      swap3\n      swap2\n      pop\n      pop\n      jump\t// out\n        /* \"#utility.yul\":2897:3371   */\n    tag_18:\n        /* \"#utility.yul\":2965:2971   */\n      0x00\n        /* \"#utility.yul\":2973:2979   */\n      dup1\n        /* \"#utility.yul\":3022:3024   */\n      0x40\n        /* \"#utility.yul\":3010:3019   */\n      dup4\n        /* \"#utility.yul\":3001:3008   */\n      dup6\n        /* \"#utility.yul\":2997:3020   */\n      sub\n        /* \"#utility.yul\":2993:3025   */\n      slt\n        /* \"#utility.yul\":2990:3109   */\n      iszero\n      tag_92\n      jumpi\n        /* \"#utility.yul\":3028:3107   */\n      tag_93\n      tag_41\n      jump\t// in\n    tag_93:\n        /* \"#utility.yul\":2990:3109   */\n    tag_92:\n        /* \"#utility.yul\":3148:3149   */\n      0x00\n        /* \"#utility.yul\":3173:3226   */\n      tag_94\n        /* \"#utility.yul\":3218:3225   */\n      dup6\n        /* \"#utility.yul\":3209:3215   */\n      dup3\n        /* \"#utility.yul\":3198:3207   */\n      dup7\n        /* \"#utility.yul\":3194:3216   */\n      add\n        /* \"#utility.yul\":3173:3226   */\n      tag_45\n      jump\t// in\n    tag_94:\n        /* \"#utility.yul\":3163:3226   */\n      swap3\n      pop\n        /* \"#utility.yul\":3119:3236   */\n      pop\n        /* \"#utility.yul\":3275:3277   */\n      0x20\n        /* \"#utility.yul\":3301:3354   */\n      tag_95\n        /* \"#utility.yul\":3346:3353   */\n      dup6\n        /* \"#utility.yul\":3337:3343   */\n      dup3\n        /* \"#utility.yul\":3326:3335   */\n      dup7\n        /* \"#utility.yul\":3322:3344   */\n      add\n        /* \"#utility.yul\":3301:3354   */\n      tag_48\n      jump\t// in\n    tag_95:\n        /* \"#utility.yul\":3291:3354   */\n      swap2\n      pop\n        /* \"#utility.yul\":3246:3364   */\n      pop\n        /* \"#utility.yul\":2897:3371   */\n      swap3\n      pop\n      swap3\n      swap1\n      pop\n      jump\t// out\n        /* \"#utility.yul\":3377:3495   */\n    tag_49:\n        /* \"#utility.yul\":3464:3488   */\n      tag_97\n        /* \"#utility.yul\":3482:3487   */\n      dup2\n        /* \"#utility.yul\":3464:3488   */\n      tag_43\n      jump\t// in\n    tag_97:\n        /* \"#utility.yul\":3459:3462   */\n      dup3\n        /* \"#utility.yul\":3452:3489   */\n      mstore\n        /* \"#utility.yul\":3377:3495   */\n      pop\n      pop\n      jump\t// out\n        /* \"#utility.yul\":3501:3591   */\n    tag_50:\n        /* \"#utility.yul\":3535:3542   */\n      0x00\n        /* \"#utility.yul\":3578:3583   */\n      dup2\n        /* \"#utility.yul\":3571:3584   */\n      iszero\n        /* \"#utility.yul\":3564:3585   */\n      iszero\n        /* \"#utility.yul\":3553:3585   */\n      swap1\n      pop\n        /* \"#utility.yul\":3501:3591   */\n      swap2\n      swap1\n      pop\n      jump\t// out\n        /* \"#utility.yul\":3597:3706   */\n    tag_51:\n        /* \"#utility.yul\":3678:3699   */\n      tag_100\n        /* \"#utility.yul\":3693:3698   */\n      dup2\n        /* \"#utility.yul\":3678:3699   */\n      tag_50\n      jump\t// in\n    tag_100:\n        /* \"#utility.yul\":3673:3676   */\n      dup3\n        /* \"#utility.yul\":3666:3700   */\n      mstore\n        /* \"#utility.yul\":3597:3706   */\n      pop\n      pop\n      jump\t// out\n        /* \"#utility.yul\":3712:4032   */\n    tag_21:\n        /* \"#utility.yul\":3827:3831   */\n      0x00\n        /* \"#utility.yul\":3865:3867   */\n      0x40\n        /* \"#utility.yul\":3854:3863   */\n      dup3\n        /* \"#utility.yul\":3850:3868   */\n      add\n        /* \"#utility.yul\":3842:3868   */\n      swap1\n      pop\n        /* \"#utility.yul\":3878:3949   */\n      tag_102\n        /* \"#utility.yul\":3946:3947   */\n      0x00\n        /* \"#utility.yul\":3935:3944   */\n      dup4\n        /* \"#utility.yul\":3931:3948   */\n      add\n        /* \"#utility.yul\":3922:3928   */\n      dup6\n        /* \"#utility.yul\":3878:3949   */\n      tag_49\n      jump\t// in\n    tag_102:\n        /* \"#utility.yul\":3959:4025   */\n      tag_103\n        /* \"#utility.yul\":4021:4023   */\n      0x20\n        /* \"#utility.yul\":4010:4019   */\n      dup4\n        /* \"#utility.yul\":4006:4024   */\n      add\n        /* \"#utility.yul\":3997:4003   */\n      dup5\n        /* \"#utility.yul\":3959:4025   */\n      tag_51\n      jump\t// in\n    tag_103:\n        /* \"#utility.yul\":3712:4032   */\n      swap4\n      swap3\n      pop\n      pop\n      pop\n      jump\t// out\n        /* \"#utility.yul\":4038:4367   */\n    tag_24:\n        /* \"#utility.yul\":4097:4103   */\n      0x00\n        /* \"#utility.yul\":4146:4148   */\n      0x20\n        /* \"#utility.yul\":4134:4143   */\n      dup3\n        /* \"#utility.yul\":4125:4132   */\n      dup5\n        /* \"#utility.yul\":4121:4144   */\n      sub\n        /* \"#utility.yul\":4117:4149   */\n      slt\n        /* \"#utility.yul\":4114:4233   */\n      iszero\n      tag_105\n      jumpi\n        /* \"#utility.yul\":4152:4231   */\n      tag_106\n      tag_41\n      jump\t// in\n    tag_106:\n        /* \"#utility.yul\":4114:4233   */\n    tag_105:\n        /* \"#utility.yul\":4272:4273   */\n      0x00\n        /* \"#utility.yul\":4297:4350   */\n      tag_107\n        /* \"#utility.yul\":4342:4349   */\n      dup5\n        /* \"#utility.yul\":4333:4339   */\n      dup3\n        /* \"#utility.yul\":4322:4331   */\n      dup6\n        /* \"#utility.yul\":4318:4340   */\n      add\n        /* \"#utility.yul\":4297:4350   */\n      tag_45\n      jump\t// in\n    tag_107:\n        /* \"#utility.yul\":4287:4350   */\n      swap2\n      pop\n        /* \"#utility.yul\":4243:4360   */\n      pop\n        /* \"#utility.yul\":4038:4367   */\n      swap3\n      swap2\n      pop\n      pop\n      jump\t// out\n        /* \"#utility.yul\":4373:4583   */\n    tag_27:\n        /* \"#utility.yul\":4460:4464   */\n      0x00\n        /* \"#utility.yul\":4498:4500   */\n      0x20\n        /* \"#utility.yul\":4487:4496   */\n      dup3\n        /* \"#utility.yul\":4483:4501   */\n      add\n        /* \"#utility.yul\":4475:4501   */\n      swap1\n      pop\n        /* \"#utility.yul\":4511:4576   */\n      tag_109\n        /* \"#utility.yul\":4573:4574   */\n      0x00\n        /* \"#utility.yul\":4562:4571   */\n      dup4\n        /* \"#utility.yul\":4558:4575   */\n      add\n        /* \"#utility.yul\":4549:4555   */\n      dup5\n        /* \"#utility.yul\":4511:4576   */\n      tag_51\n      jump\t// in\n    tag_109:\n        /* \"#utility.yul\":4373:4583   */\n      swap3\n      swap2\n      pop\n      pop\n      jump\t// out\n        /* \"#utility.yul\":4589:4756   */\n    tag_52:\n        /* \"#utility.yul\":4680:4689   */\n      0x00\n        /* \"#utility.yul\":4713:4750   */\n      tag_111\n        /* \"#utility.yul\":4744:4749   */\n      dup3\n        /* \"#utility.yul\":4713:4750   */\n      tag_35\n      jump\t// in\n    tag_111:\n        /* \"#utility.yul\":4700:4750   */\n      swap1\n      pop\n        /* \"#utility.yul\":4589:4756   */\n      swap2\n      swap1\n      pop\n      jump\t// out\n        /* \"#utility.yul\":4762:4975   */\n    tag_53:\n        /* \"#utility.yul\":4890:4968   */\n      tag_113\n        /* \"#utility.yul\":4962:4967   */\n      dup2\n        /* \"#utility.yul\":4890:4968   */\n      tag_52\n      jump\t// in\n    tag_113:\n        /* \"#utility.yul\":4885:4888   */\n      dup3\n        /* \"#utility.yul\":4878:4969   */\n      mstore\n        /* \"#utility.yul\":4762:4975   */\n      pop\n      pop\n      jump\t// out\n        /* \"#utility.yul\":4981:5285   */\n    tag_31:\n        /* \"#utility.yul\":5115:5119   */\n      0x00\n        /* \"#utility.yul\":5153:5155   */\n      0x20\n        /* \"#utility.yul\":5142:5151   */\n      dup3\n        /* \"#utility.yul\":5138:5156   */\n      add\n        /* \"#utility.yul\":5130:5156   */\n      swap1\n      pop\n        /* \"#utility.yul\":5166:5278   */\n      tag_115\n        /* \"#utility.yul\":5275:5276   */\n      0x00\n        /* \"#utility.yul\":5264:5273   */\n      dup4\n        /* \"#utility.yul\":5260:5277   */\n      add\n        /* \"#utility.yul\":5251:5257   */\n      dup5\n        /* \"#utility.yul\":5166:5278   */\n      tag_53\n      jump\t// in\n    tag_115:\n        /* \"#utility.yul\":4981:5285   */\n      swap3\n      swap2\n      pop\n      pop\n      jump\t// out\n\n    auxdata: 0xa2646970667358221220df5ba953478008ea5b03f2493591d8564781a21cfd8b74f3e3c3f85df2574a8f64736f6c634300081a0033\n}\n",
				"bytecode": {
					"linkReferences": {},
					"object": "6080604052348015600e575f80fd5b506104568061001c5f395ff3fe608060405234801561000f575f80fd5b5060043610610055575f3560e01c806304d5232b1461005957806306428f0214610077578063643f273d14610095578063d60429d0146100c6578063de04bbd2146100f6575b5f80fd5b610061610114565b60405161006e9190610251565b60405180910390f35b61007f610139565b60405161008c919061028a565b60405180910390f35b6100af60048036038101906100aa9190610315565b61015e565b6040516100bd92919061037c565b60405180910390f35b6100e060048036038101906100db91906103a3565b610195565b6040516100ed91906103ce565b60405180910390f35b6100fe6101b2565b60405161010b9190610407565b60405180910390f35b60075f9054906101000a900473ffffffffffffffffffffffffffffffffffffffff1681565b60065f9054906101000a900473ffffffffffffffffffffffffffffffffffffffff1681565b6003602052815f5260405f20602052805f5260405f205f9150915050805f015490806001015f9054906101000a900460ff16905082565b6002602052805f5260405f205f915054906101000a900460ff1681565b60055f9054906101000a900473ffffffffffffffffffffffffffffffffffffffff1681565b5f73ffffffffffffffffffffffffffffffffffffffff82169050919050565b5f819050919050565b5f61021961021461020f846101d7565b6101f6565b6101d7565b9050919050565b5f61022a826101ff565b9050919050565b5f61023b82610220565b9050919050565b61024b81610231565b82525050565b5f6020820190506102645f830184610242565b92915050565b5f61027482610220565b9050919050565b6102848161026a565b82525050565b5f60208201905061029d5f83018461027b565b92915050565b5f80fd5b5f819050919050565b6102b9816102a7565b81146102c3575f80fd5b50565b5f813590506102d4816102b0565b92915050565b5f6102e4826101d7565b9050919050565b6102f4816102da565b81146102fe575f80fd5b50565b5f8135905061030f816102eb565b92915050565b5f806040838503121561032b5761032a6102a3565b5b5f610338858286016102c6565b925050602061034985828601610301565b9150509250929050565b61035c816102a7565b82525050565b5f8115159050919050565b61037681610362565b82525050565b5f60408201905061038f5f830185610353565b61039c602083018461036d565b9392505050565b5f602082840312156103b8576103b76102a3565b5b5f6103c5848285016102c6565b91505092915050565b5f6020820190506103e15f83018461036d565b92915050565b5f6103f182610220565b9050919050565b610401816103e7565b82525050565b5f60208201905061041a5f8301846103f8565b9291505056fea2646970667358221220df5ba953478008ea5b03f2493591d8564781a21cfd8b74f3e3c3f85df2574a8f64736f6c634300081a0033",
					"opcodes": "PUSH1 0x80 PUSH1 0x40 MSTORE CALLVALUE DUP1 ISZERO PUSH1 0xE JUMPI PUSH0 DUP1 REVERT JUMPDEST POP PUSH2 0x456 DUP1 PUSH2 0x1C PUSH0 CODECOPY PUSH0 RETURN INVALID PUSH1 0x80 PUSH1 0x40 MSTORE CALLVALUE DUP1 ISZERO PUSH2 0xF JUMPI PUSH0 DUP1 REVERT JUMPDEST POP PUSH1 0x4 CALLDATASIZE LT PUSH2 0x55 JUMPI PUSH0 CALLDATALOAD PUSH1 0xE0 SHR DUP1 PUSH4 0x4D5232B EQ PUSH2 0x59 JUMPI DUP1 PUSH4 0x6428F02 EQ PUSH2 0x77 JUMPI DUP1 PUSH4 0x643F273D EQ PUSH2 0x95 JUMPI DUP1 PUSH4 0xD60429D0 EQ PUSH2 0xC6 JUMPI DUP1 PUSH4 0xDE04BBD2 EQ PUSH2 0xF6 JUMPI JUMPDEST PUSH0 DUP1 REVERT JUMPDEST PUSH2 0x61 PUSH2 0x114 JUMP JUMPDEST PUSH1 0x40 MLOAD PUSH2 0x6E SWAP2 SWAP1 PUSH2 0x251 JUMP JUMPDEST PUSH1 0x40 MLOAD DUP1 SWAP2 SUB SWAP1 RETURN JUMPDEST PUSH2 0x7F PUSH2 0x139 JUMP JUMPDEST PUSH1 0x40 MLOAD PUSH2 0x8C SWAP2 SWAP1 PUSH2 0x28A JUMP JUMPDEST PUSH1 0x40 MLOAD DUP1 SWAP2 SUB SWAP1 RETURN JUMPDEST PUSH2 0xAF PUSH1 0x4 DUP1 CALLDATASIZE SUB DUP2 ADD SWAP1 PUSH2 0xAA SWAP2 SWAP1 PUSH2 0x315 JUMP JUMPDEST PUSH2 0x15E JUMP JUMPDEST PUSH1 0x40 MLOAD PUSH2 0xBD SWAP3 SWAP2 SWAP1 PUSH2 0x37C JUMP JUMPDEST PUSH1 0x40 MLOAD DUP1 SWAP2 SUB SWAP1 RETURN JUMPDEST PUSH2 0xE0 PUSH1 0x4 DUP1 CALLDATASIZE SUB DUP2 ADD SWAP1 PUSH2 0xDB SWAP2 SWAP1 PUSH2 0x3A3 JUMP JUMPDEST PUSH2 0x195 JUMP JUMPDEST PUSH1 0x40 MLOAD PUSH2 0xED SWAP2 SWAP1 PUSH2 0x3CE JUMP JUMPDEST PUSH1 0x40 MLOAD DUP1 SWAP2 SUB SWAP1 RETURN JUMPDEST PUSH2 0xFE PUSH2 0x1B2 JUMP JUMPDEST PUSH1 0x40 MLOAD PUSH2 0x10B SWAP2 SWAP1 PUSH2 0x407 JUMP JUMPDEST PUSH1 0x40 MLOAD DUP1 SWAP2 SUB SWAP1 RETURN JUMPDEST PUSH1 0x7 PUSH0 SWAP1 SLOAD SWAP1 PUSH2 0x100 EXP SWAP1 DIV PUSH20 0xFFFFFFFFFFFFFFFFFFFFFFFFFFFFFFFFFFFFFFFF AND DUP2 JUMP JUMPDEST PUSH1 0x6 PUSH0 SWAP1 SLOAD SWAP1 PUSH2 0x100 EXP SWAP1 DIV PUSH20 0xFFFFFFFFFFFFFFFFFFFFFFFFFFFFFFFFFFFFFFFF AND DUP2 JUMP JUMPDEST PUSH1 0x3 PUSH1 0x20 MSTORE DUP2 PUSH0 MSTORE PUSH1 0x40 PUSH0 KECCAK256 PUSH1 0x20 MSTORE DUP1 PUSH0 MSTORE PUSH1 0x40 PUSH0 KECCAK256 PUSH0 SWAP2 POP SWAP2 POP POP DUP1 PUSH0 ADD SLOAD SWAP1 DUP1 PUSH1 0x1 ADD PUSH0 SWAP1 SLOAD SWAP1 PUSH2 0x100 EXP SWAP1 DIV PUSH1 0xFF AND SWAP1 POP DUP3 JUMP JUMPDEST PUSH1 0x2 PUSH1 0x20 MSTORE DUP1 PUSH0 MSTORE PUSH1 0x40 PUSH0 KECCAK256 PUSH0 SWAP2 POP SLOAD SWAP1 PUSH2 0x100 EXP SWAP1 DIV PUSH1 0xFF AND DUP2 JUMP JUMPDEST PUSH1 0x5 PUSH0 SWAP1 SLOAD SWAP1 PUSH2 0x100 EXP SWAP1 DIV PUSH20 0xFFFFFFFFFFFFFFFFFFFFFFFFFFFFFFFFFFFFFFFF AND DUP2 JUMP JUMPDEST PUSH0 PUSH20 0xFFFFFFFFFFFFFFFFFFFFFFFFFFFFFFFFFFFFFFFF DUP3 AND SWAP1 POP SWAP2 SWAP1 POP JUMP JUMPDEST PUSH0 DUP2 SWAP1 POP SWAP2 SWAP1 POP JUMP JUMPDEST PUSH0 PUSH2 0x219 PUSH2 0x214 PUSH2 0x20F DUP5 PUSH2 0x1D7 JUMP JUMPDEST PUSH2 0x1F6 JUMP JUMPDEST PUSH2 0x1D7 JUMP JUMPDEST SWAP1 POP SWAP2 SWAP1 POP JUMP JUMPDEST PUSH0 PUSH2 0x22A DUP3 PUSH2 0x1FF JUMP JUMPDEST SWAP1 POP SWAP2 SWAP1 POP JUMP JUMPDEST PUSH0 PUSH2 0x23B DUP3 PUSH2 0x220 JUMP JUMPDEST SWAP1 POP SWAP2 SWAP1 POP JUMP JUMPDEST PUSH2 0x24B DUP2 PUSH2 0x231 JUMP JUMPDEST DUP3 MSTORE POP POP JUMP JUMPDEST PUSH0 PUSH1 0x20 DUP3 ADD SWAP1 POP PUSH2 0x264 PUSH0 DUP4 ADD DUP5 PUSH2 0x242 JUMP JUMPDEST SWAP3 SWAP2 POP POP JUMP JUMPDEST PUSH0 PUSH2 0x274 DUP3 PUSH2 0x220 JUMP JUMPDEST SWAP1 POP SWAP2 SWAP1 POP JUMP JUMPDEST PUSH2 0x284 DUP2 PUSH2 0x26A JUMP JUMPDEST DUP3 MSTORE POP POP JUMP JUMPDEST PUSH0 PUSH1 0x20 DUP3 ADD SWAP1 POP PUSH2 0x29D PUSH0 DUP4 ADD DUP5 PUSH2 0x27B JUMP JUMPDEST SWAP3 SWAP2 POP POP JUMP JUMPDEST PUSH0 DUP1 REVERT JUMPDEST PUSH0 DUP2 SWAP1 POP SWAP2 SWAP1 POP JUMP JUMPDEST PUSH2 0x2B9 DUP2 PUSH2 0x2A7 JUMP JUMPDEST DUP2 EQ PUSH2 0x2C3 JUMPI PUSH0 DUP1 REVERT JUMPDEST POP JUMP JUMPDEST PUSH0 DUP2 CALLDATALOAD SWAP1 POP PUSH2 0x2D4 DUP2 PUSH2 0x2B0 JUMP JUMPDEST SWAP3 SWAP2 POP POP JUMP JUMPDEST PUSH0 PUSH2 0x2E4 DUP3 PUSH2 0x1D7 JUMP JUMPDEST SWAP1 POP SWAP2 SWAP1 POP JUMP JUMPDEST PUSH2 0x2F4 DUP2 PUSH2 0x2DA JUMP JUMPDEST DUP2 EQ PUSH2 0x2FE JUMPI PUSH0 DUP1 REVERT JUMPDEST POP JUMP JUMPDEST PUSH0 DUP2 CALLDATALOAD SWAP1 POP PUSH2 0x30F DUP2 PUSH2 0x2EB JUMP JUMPDEST SWAP3 SWAP2 POP POP JUMP JUMPDEST PUSH0 DUP1 PUSH1 0x40 DUP4 DUP6 SUB SLT ISZERO PUSH2 0x32B JUMPI PUSH2 0x32A PUSH2 0x2A3 JUMP JUMPDEST JUMPDEST PUSH0 PUSH2 0x338 DUP6 DUP3 DUP7 ADD PUSH2 0x2C6 JUMP JUMPDEST SWAP3 POP POP PUSH1 0x20 PUSH2 0x349 DUP6 DUP3 DUP7 ADD PUSH2 0x301 JUMP JUMPDEST SWAP2 POP POP SWAP3 POP SWAP3 SWAP1 POP JUMP JUMPDEST PUSH2 0x35C DUP2 PUSH2 0x2A7 JUMP JUMPDEST DUP3 MSTORE POP POP JUMP JUMPDEST PUSH0 DUP2 ISZERO ISZERO SWAP1 POP SWAP2 SWAP1 POP JUMP JUMPDEST PUSH2 0x376 DUP2 PUSH2 0x362 JUMP JUMPDEST DUP3 MSTORE POP POP JUMP JUMPDEST PUSH0 PUSH1 0x40 DUP3 ADD SWAP1 POP PUSH2 0x38F PUSH0 DUP4 ADD DUP6 PUSH2 0x353 JUMP JUMPDEST PUSH2 0x39C PUSH1 0x20 DUP4 ADD DUP5 PUSH2 0x36D JUMP JUMPDEST SWAP4 SWAP3 POP POP POP JUMP JUMPDEST PUSH0 PUSH1 0x20 DUP3 DUP5 SUB SLT ISZERO PUSH2 0x3B8 JUMPI PUSH2 0x3B7 PUSH2 0x2A3 JUMP JUMPDEST JUMPDEST PUSH0 PUSH2 0x3C5 DUP5 DUP3 DUP6 ADD PUSH2 0x2C6 JUMP JUMPDEST SWAP2 POP POP SWAP3 SWAP2 POP POP JUMP JUMPDEST PUSH0 PUSH1 0x20 DUP3 ADD SWAP1 POP PUSH2 0x3E1 PUSH0 DUP4 ADD DUP5 PUSH2 0x36D JUMP JUMPDEST SWAP3 SWAP2 POP POP JUMP JUMPDEST PUSH0 PUSH2 0x3F1 DUP3 PUSH2 0x220 JUMP JUMPDEST SWAP1 POP SWAP2 SWAP1 POP JUMP JUMPDEST PUSH2 0x401 DUP2 PUSH2 0x3E7 JUMP JUMPDEST DUP3 MSTORE POP POP JUMP JUMPDEST PUSH0 PUSH1 0x20 DUP3 ADD SWAP1 POP PUSH2 0x41A PUSH0 DUP4 ADD DUP5 PUSH2 0x3F8 JUMP JUMPDEST SWAP3 SWAP2 POP POP JUMP INVALID LOG2 PUSH5 0x6970667358 0x22 SLT KECCAK256 0xDF JUMPDEST 0xA9 MSTORE8 SELFBALANCE DUP1 ADDMOD 0xEA JUMPDEST SUB CALLCODE BLOBHASH CALLDATALOAD SWAP2 0xD8 JUMP SELFBALANCE DUP2 LOG2 SHR REVERT DUP12 PUSH21 0xF3E3C3F85DF2574A8F64736F6C634300081A003300 "
				},
				"gasEstimates": {
					"creation": {
						"codeDepositCost": "222000",
						"executionCost": "261",
						"totalCost": "222261"
					},
					"external": {
						"communityExists(uint256)": "2829",
						"contributionsContract()": "infinite",
						"multisigContract()": "infinite",
						"profilesContract()": "infinite",
						"userClaimableTokens(uint256,address)": "infinite"
					}
				},
				"methodIdentifiers": {
					"communityExists(uint256)": "d60429d0",
					"contributionsContract()": "de04bbd2",
					"multisigContract()": "04d5232b",
					"profilesContract()": "06428f02",
					"userClaimableTokens(uint256,address)": "643f273d"
				}
			},
			"storageLayout": {
				"storage": [
					{
						"astId": 36,
						"contract": "contractsproxy/CommunityGovernanceRankingsStorage.sol:CommunityGovernanceRankingsStorage",
						"label": "rankings",
						"offset": 0,
						"slot": "0",
						"type": "t_mapping(t_uint256,t_mapping(t_uint256,t_mapping(t_uint256,t_mapping(t_address,t_struct(Ranking)11_storage))))"
					},
					{
						"astId": 45,
						"contract": "contractsproxy/CommunityGovernanceRankingsStorage.sol:CommunityGovernanceRankingsStorage",
						"label": "consensusRankings",
						"offset": 0,
						"slot": "1",
						"type": "t_mapping(t_uint256,t_mapping(t_uint256,t_mapping(t_uint256,t_struct(ConsensusRanking)20_storage)))"
					},
					{
						"astId": 49,
						"contract": "contractsproxy/CommunityGovernanceRankingsStorage.sol:CommunityGovernanceRankingsStorage",
						"label": "communityExists",
						"offset": 0,
						"slot": "2",
						"type": "t_mapping(t_uint256,t_bool)"
					},
					{
						"astId": 56,
						"contract": "contractsproxy/CommunityGovernanceRankingsStorage.sol:CommunityGovernanceRankingsStorage",
						"label": "userClaimableTokens",
						"offset": 0,
						"slot": "3",
						"type": "t_mapping(t_uint256,t_mapping(t_address,t_struct(ClaimableTokens)25_storage))"
					},
					{
						"astId": 59,
						"contract": "contractsproxy/CommunityGovernanceRankingsStorage.sol:CommunityGovernanceRankingsStorage",
						"label": "respectValues",
						"offset": 0,
						"slot": "4",
						"type": "t_array(t_uint256)dyn_storage"
					},
					{
						"astId": 62,
						"contract": "contractsproxy/CommunityGovernanceRankingsStorage.sol:CommunityGovernanceRankingsStorage",
						"label": "contributionsContract",
						"offset": 0,
						"slot": "5",
						"type": "t_contract(ICommunityGovernanceContributions)172"
					},
					{
						"astId": 65,
						"contract": "contractsproxy/CommunityGovernanceRankingsStorage.sol:CommunityGovernanceRankingsStorage",
						"label": "profilesContract",
						"offset": 0,
						"slot": "6",
						"type": "t_contract(ICommunityGovernanceProfiles)371"
					},
					{
						"astId": 68,
						"contract": "contractsproxy/CommunityGovernanceRankingsStorage.sol:CommunityGovernanceRankingsStorage",
						"label": "multisigContract",
						"offset": 0,
						"slot": "7",
						"type": "t_contract(ICommunityGovernanceMultiSig)234"
					}
				],
				"types": {
					"t_address": {
						"encoding": "inplace",
						"label": "address",
						"numberOfBytes": "20"
					},
					"t_array(t_uint256)dyn_storage": {
						"base": "t_uint256",
						"encoding": "dynamic_array",
						"label": "uint256[]",
						"numberOfBytes": "32"
					},
					"t_bool": {
						"encoding": "inplace",
						"label": "bool",
						"numberOfBytes": "1"
					},
					"t_contract(ICommunityGovernanceContributions)172": {
						"encoding": "inplace",
						"label": "contract ICommunityGovernanceContributions",
						"numberOfBytes": "20"
					},
					"t_contract(ICommunityGovernanceMultiSig)234": {
						"encoding": "inplace",
						"label": "contract ICommunityGovernanceMultiSig",
						"numberOfBytes": "20"
					},
					"t_contract(ICommunityGovernanceProfiles)371": {
						"encoding": "inplace",
						"label": "contract ICommunityGovernanceProfiles",
						"numberOfBytes": "20"
					},
					"t_mapping(t_address,t_struct(ClaimableTokens)25_storage)": {
						"encoding": "mapping",
						"key": "t_address",
						"label": "mapping(address => struct CommunityGovernanceRankingsStorage.ClaimableTokens)",
						"numberOfBytes": "32",
						"value": "t_struct(ClaimableTokens)25_storage"
					},
					"t_mapping(t_address,t_struct(Ranking)11_storage)": {
						"encoding": "mapping",
						"key": "t_address",
						"label": "mapping(address => struct CommunityGovernanceRankingsStorage.Ranking)",
						"numberOfBytes": "32",
						"value": "t_struct(Ranking)11_storage"
					},
					"t_mapping(t_uint256,t_bool)": {
						"encoding": "mapping",
						"key": "t_uint256",
						"label": "mapping(uint256 => bool)",
						"numberOfBytes": "32",
						"value": "t_bool"
					},
					"t_mapping(t_uint256,t_mapping(t_address,t_struct(ClaimableTokens)25_storage))": {
						"encoding": "mapping",
						"key": "t_uint256",
						"label": "mapping(uint256 => mapping(address => struct CommunityGovernanceRankingsStorage.ClaimableTokens))",
						"numberOfBytes": "32",
						"value": "t_mapping(t_address,t_struct(ClaimableTokens)25_storage)"
					},
					"t_mapping(t_uint256,t_mapping(t_address,t_struct(Ranking)11_storage))": {
						"encoding": "mapping",
						"key": "t_uint256",
						"label": "mapping(uint256 => mapping(address => struct CommunityGovernanceRankingsStorage.Ranking))",
						"numberOfBytes": "32",
						"value": "t_mapping(t_address,t_struct(Ranking)11_storage)"
					},
					"t_mapping(t_uint256,t_mapping(t_uint256,t_mapping(t_address,t_struct(Ranking)11_storage)))": {
						"encoding": "mapping",
						"key": "t_uint256",
						"label": "mapping(uint256 => mapping(uint256 => mapping(address => struct CommunityGovernanceRankingsStorage.Ranking)))",
						"numberOfBytes": "32",
						"value": "t_mapping(t_uint256,t_mapping(t_address,t_struct(Ranking)11_storage))"
					},
					"t_mapping(t_uint256,t_mapping(t_uint256,t_mapping(t_uint256,t_mapping(t_address,t_struct(Ranking)11_storage))))": {
						"encoding": "mapping",
						"key": "t_uint256",
						"label": "mapping(uint256 => mapping(uint256 => mapping(uint256 => mapping(address => struct CommunityGovernanceRankingsStorage.Ranking))))",
						"numberOfBytes": "32",
						"value": "t_mapping(t_uint256,t_mapping(t_uint256,t_mapping(t_address,t_struct(Ranking)11_storage)))"
					},
					"t_mapping(t_uint256,t_mapping(t_uint256,t_mapping(t_uint256,t_struct(ConsensusRanking)20_storage)))": {
						"encoding": "mapping",
						"key": "t_uint256",
						"label": "mapping(uint256 => mapping(uint256 => mapping(uint256 => struct CommunityGovernanceRankingsStorage.ConsensusRanking)))",
						"numberOfBytes": "32",
						"value": "t_mapping(t_uint256,t_mapping(t_uint256,t_struct(ConsensusRanking)20_storage))"
					},
					"t_mapping(t_uint256,t_mapping(t_uint256,t_struct(ConsensusRanking)20_storage))": {
						"encoding": "mapping",
						"key": "t_uint256",
						"label": "mapping(uint256 => mapping(uint256 => struct CommunityGovernanceRankingsStorage.ConsensusRanking))",
						"numberOfBytes": "32",
						"value": "t_mapping(t_uint256,t_struct(ConsensusRanking)20_storage)"
					},
					"t_mapping(t_uint256,t_struct(ConsensusRanking)20_storage)": {
						"encoding": "mapping",
						"key": "t_uint256",
						"label": "mapping(uint256 => struct CommunityGovernanceRankingsStorage.ConsensusRanking)",
						"numberOfBytes": "32",
						"value": "t_struct(ConsensusRanking)20_storage"
					},
					"t_struct(ClaimableTokens)25_storage": {
						"encoding": "inplace",
						"label": "struct CommunityGovernanceRankingsStorage.ClaimableTokens",
						"members": [
							{
								"astId": 22,
								"contract": "contractsproxy/CommunityGovernanceRankingsStorage.sol:CommunityGovernanceRankingsStorage",
								"label": "amount",
								"offset": 0,
								"slot": "0",
								"type": "t_uint256"
							},
							{
								"astId": 24,
								"contract": "contractsproxy/CommunityGovernanceRankingsStorage.sol:CommunityGovernanceRankingsStorage",
								"label": "claimed",
								"offset": 0,
								"slot": "1",
								"type": "t_bool"
							}
						],
						"numberOfBytes": "64"
					},
					"t_struct(ConsensusRanking)20_storage": {
						"encoding": "inplace",
						"label": "struct CommunityGovernanceRankingsStorage.ConsensusRanking",
						"members": [
							{
								"astId": 14,
								"contract": "contractsproxy/CommunityGovernanceRankingsStorage.sol:CommunityGovernanceRankingsStorage",
								"label": "rankedScores",
								"offset": 0,
								"slot": "0",
								"type": "t_array(t_uint256)dyn_storage"
							},
							{
								"astId": 17,
								"contract": "contractsproxy/CommunityGovernanceRankingsStorage.sol:CommunityGovernanceRankingsStorage",
								"label": "transientScores",
								"offset": 0,
								"slot": "1",
								"type": "t_array(t_uint256)dyn_storage"
							},
							{
								"astId": 19,
								"contract": "contractsproxy/CommunityGovernanceRankingsStorage.sol:CommunityGovernanceRankingsStorage",
								"label": "timestamp",
								"offset": 0,
								"slot": "2",
								"type": "t_uint256"
							}
						],
						"numberOfBytes": "96"
					},
					"t_struct(Ranking)11_storage": {
						"encoding": "inplace",
						"label": "struct CommunityGovernanceRankingsStorage.Ranking",
						"members": [
							{
								"astId": 10,
								"contract": "contractsproxy/CommunityGovernanceRankingsStorage.sol:CommunityGovernanceRankingsStorage",
								"label": "rankedScores",
								"offset": 0,
								"slot": "0",
								"type": "t_array(t_uint256)dyn_storage"
							}
						],
						"numberOfBytes": "32"
					},
					"t_uint256": {
						"encoding": "inplace",
						"label": "uint256",
						"numberOfBytes": "32"
					}
				}
			},
			"userdoc": {
				"kind": "user",
				"methods": {},
				"version": 1
			}
		}
	}
}