{
	"contracts/respectdistrtest.sol": {
		"LiquidRespectDistribution": {
			"abi": [
				{
					"inputs": [
						{
							"internalType": "uint256",
							"name": "totalRespect",
							"type": "uint256"
						},
						{
							"internalType": "uint256[][]",
							"name": "groupRankings",
							"type": "uint256[][]"
						}
					],
					"name": "distributeRespect",
					"outputs": [
						{
							"internalType": "uint256[]",
							"name": "",
							"type": "uint256[]"
						}
					],
					"stateMutability": "pure",
					"type": "function"
				},
				{
					"inputs": [
						{
							"internalType": "uint256[]",
							"name": "distribution",
							"type": "uint256[]"
						}
					],
					"name": "getSumOfDistribution",
					"outputs": [
						{
							"internalType": "uint256",
							"name": "",
							"type": "uint256"
						}
					],
					"stateMutability": "pure",
					"type": "function"
				}
			],
			"devdoc": {
				"custom:dev-run-script": "/script/resptest.js",
				"details": "Manages community creation, membership, and contributions",
				"kind": "dev",
				"methods": {},
				"title": "CommunityGovernance",
				"version": 1
			},
			"evm": {
				"assembly": "    /* \"contracts/respectdistrtest.sol\":205:2018  contract LiquidRespectDistribution {... */\n  mstore(0x40, 0x80)\n  callvalue\n  dup1\n  iszero\n  tag_1\n  jumpi\n  0x00\n  dup1\n  revert\ntag_1:\n  pop\n  dataSize(sub_0)\n  dup1\n  dataOffset(sub_0)\n  0x00\n  codecopy\n  0x00\n  return\nstop\n\nsub_0: assembly {\n        /* \"contracts/respectdistrtest.sol\":205:2018  contract LiquidRespectDistribution {... */\n      mstore(0x40, 0x80)\n      callvalue\n      dup1\n      iszero\n      tag_1\n      jumpi\n      0x00\n      dup1\n      revert\n    tag_1:\n      pop\n      jumpi(tag_2, lt(calldatasize, 0x04))\n      shr(0xe0, calldataload(0x00))\n      dup1\n      0x3cda0f15\n      eq\n      tag_3\n      jumpi\n      dup1\n      0xe8ff2a40\n      eq\n      tag_4\n      jumpi\n    tag_2:\n      0x00\n      dup1\n      revert\n        /* \"contracts/respectdistrtest.sol\":1767:2016  function getSumOfDistribution(uint256[] memory distribution) public pure returns (uint256) {... */\n    tag_3:\n      tag_5\n      0x04\n      dup1\n      calldatasize\n      sub\n      dup2\n      add\n      swap1\n      tag_6\n      swap2\n      swap1\n      tag_7\n      jump\t// in\n    tag_6:\n      tag_8\n      jump\t// in\n    tag_5:\n      mload(0x40)\n      tag_9\n      swap2\n      swap1\n      tag_10\n      jump\t// in\n    tag_9:\n      mload(0x40)\n      dup1\n      swap2\n      sub\n      swap1\n      return\n        /* \"contracts/respectdistrtest.sol\":598:1700  function distributeRespect(uint256 totalRespect, uint256[][] memory groupRankings) public pure returns (uint256[] memory) {... */\n    tag_4:\n      tag_11\n      0x04\n      dup1\n      calldatasize\n      sub\n      dup2\n      add\n      swap1\n      tag_12\n      swap2\n      swap1\n      tag_13\n      jump\t// in\n    tag_12:\n      tag_14\n      jump\t// in\n    tag_11:\n      mload(0x40)\n      tag_15\n      swap2\n      swap1\n      tag_16\n      jump\t// in\n    tag_15:\n      mload(0x40)\n      dup1\n      swap2\n      sub\n      swap1\n      return\n        /* \"contracts/respectdistrtest.sol\":1767:2016  function getSumOfDistribution(uint256[] memory distribution) public pure returns (uint256) {... */\n    tag_8:\n        /* \"contracts/respectdistrtest.sol\":1849:1856  uint256 */\n      0x00\n        /* \"contracts/respectdistrtest.sol\":1868:1879  uint256 sum */\n      dup1\n        /* \"contracts/respectdistrtest.sol\":1882:1883  0 */\n      0x00\n        /* \"contracts/respectdistrtest.sol\":1868:1883  uint256 sum = 0 */\n      swap1\n      pop\n        /* \"contracts/respectdistrtest.sol\":1898:1907  uint256 i */\n      0x00\n        /* \"contracts/respectdistrtest.sol\":1893:1990  for (uint256 i = 0; i < distribution.length; i++) {... */\n    tag_18:\n        /* \"contracts/respectdistrtest.sol\":1917:1929  distribution */\n      dup4\n        /* \"contracts/respectdistrtest.sol\":1917:1936  distribution.length */\n      mload\n        /* \"contracts/respectdistrtest.sol\":1913:1914  i */\n      dup2\n        /* \"contracts/respectdistrtest.sol\":1913:1936  i < distribution.length */\n      lt\n        /* \"contracts/respectdistrtest.sol\":1893:1990  for (uint256 i = 0; i < distribution.length; i++) {... */\n      iszero\n      tag_19\n      jumpi\n        /* \"contracts/respectdistrtest.sol\":1964:1976  distribution */\n      dup4\n        /* \"contracts/respectdistrtest.sol\":1977:1978  i */\n      dup2\n        /* \"contracts/respectdistrtest.sol\":1964:1979  distribution[i] */\n      dup2\n      mload\n      dup2\n      lt\n      tag_21\n      jumpi\n      tag_22\n      tag_23\n      jump\t// in\n    tag_22:\n    tag_21:\n      0x20\n      mul\n      0x20\n      add\n      add\n      mload\n        /* \"contracts/respectdistrtest.sol\":1957:1979  sum += distribution[i] */\n      dup3\n      tag_24\n      swap2\n      swap1\n      tag_25\n      jump\t// in\n    tag_24:\n      swap2\n      pop\n        /* \"contracts/respectdistrtest.sol\":1938:1941  i++ */\n      dup1\n      dup1\n      0x01\n      add\n      swap2\n      pop\n      pop\n        /* \"contracts/respectdistrtest.sol\":1893:1990  for (uint256 i = 0; i < distribution.length; i++) {... */\n      jump(tag_18)\n    tag_19:\n      pop\n        /* \"contracts/respectdistrtest.sol\":2006:2009  sum */\n      dup1\n        /* \"contracts/respectdistrtest.sol\":1999:2009  return sum */\n      swap2\n      pop\n      pop\n        /* \"contracts/respectdistrtest.sol\":1767:2016  function getSumOfDistribution(uint256[] memory distribution) public pure returns (uint256) {... */\n      swap2\n      swap1\n      pop\n      jump\t// out\n        /* \"contracts/respectdistrtest.sol\":598:1700  function distributeRespect(uint256 totalRespect, uint256[][] memory groupRankings) public pure returns (uint256[] memory) {... */\n    tag_14:\n        /* \"contracts/respectdistrtest.sol\":702:718  uint256[] memory */\n      0x60\n        /* \"contracts/respectdistrtest.sol\":730:755  uint256 totalParticipants */\n      0x00\n        /* \"contracts/respectdistrtest.sol\":774:783  uint256 i */\n      dup1\n        /* \"contracts/respectdistrtest.sol\":769:889  for (uint256 i = 0; i < groupRankings.length; i++) {... */\n    tag_27:\n        /* \"contracts/respectdistrtest.sol\":793:806  groupRankings */\n      dup4\n        /* \"contracts/respectdistrtest.sol\":793:813  groupRankings.length */\n      mload\n        /* \"contracts/respectdistrtest.sol\":789:790  i */\n      dup2\n        /* \"contracts/respectdistrtest.sol\":789:813  i < groupRankings.length */\n      lt\n        /* \"contracts/respectdistrtest.sol\":769:889  for (uint256 i = 0; i < groupRankings.length; i++) {... */\n      iszero\n      tag_28\n      jumpi\n        /* \"contracts/respectdistrtest.sol\":855:868  groupRankings */\n      dup4\n        /* \"contracts/respectdistrtest.sol\":869:870  i */\n      dup2\n        /* \"contracts/respectdistrtest.sol\":855:871  groupRankings[i] */\n      dup2\n      mload\n      dup2\n      lt\n      tag_30\n      jumpi\n      tag_31\n      tag_23\n      jump\t// in\n    tag_31:\n    tag_30:\n      0x20\n      mul\n      0x20\n      add\n      add\n      mload\n        /* \"contracts/respectdistrtest.sol\":855:878  groupRankings[i].length */\n      mload\n        /* \"contracts/respectdistrtest.sol\":834:878  totalParticipants += groupRankings[i].length */\n      dup3\n      tag_32\n      swap2\n      swap1\n      tag_25\n      jump\t// in\n    tag_32:\n      swap2\n      pop\n        /* \"contracts/respectdistrtest.sol\":815:818  i++ */\n      dup1\n      dup1\n      0x01\n      add\n      swap2\n      pop\n      pop\n        /* \"contracts/respectdistrtest.sol\":769:889  for (uint256 i = 0; i < groupRankings.length; i++) {... */\n      jump(tag_27)\n    tag_28:\n      pop\n        /* \"contracts/respectdistrtest.sol\":907:936  uint256[] memory distribution */\n      0x00\n        /* \"contracts/respectdistrtest.sol\":953:970  totalParticipants */\n      dup2\n        /* \"contracts/respectdistrtest.sol\":939:971  new uint256[](totalParticipants) */\n      0xffffffffffffffff\n      dup2\n      gt\n      iszero\n      tag_33\n      jumpi\n      tag_34\n      tag_35\n      jump\t// in\n    tag_34:\n    tag_33:\n      mload(0x40)\n      swap1\n      dup1\n      dup3\n      mstore\n      dup1\n      0x20\n      mul\n      0x20\n      add\n      dup3\n      add\n      0x40\n      mstore\n      dup1\n      iszero\n      tag_36\n      jumpi\n      dup2\n      0x20\n      add\n      0x20\n      dup3\n      mul\n      dup1\n      calldatasize\n      dup4\n      calldatacopy\n      dup1\n      dup3\n      add\n      swap2\n      pop\n      pop\n      swap1\n      pop\n    tag_36:\n      pop\n        /* \"contracts/respectdistrtest.sol\":907:971  uint256[] memory distribution = new uint256[](totalParticipants) */\n      swap1\n      pop\n        /* \"contracts/respectdistrtest.sol\":981:1000  uint256 totalWeight */\n      0x00\n        /* \"contracts/respectdistrtest.sol\":1014:1034  uint256 currentIndex */\n      dup1\n        /* \"contracts/respectdistrtest.sol\":1113:1122  uint256 i */\n      0x00\n        /* \"contracts/respectdistrtest.sol\":1108:1481  for (uint256 i = 0; i < groupRankings.length; i++) {... */\n    tag_37:\n        /* \"contracts/respectdistrtest.sol\":1132:1145  groupRankings */\n      dup7\n        /* \"contracts/respectdistrtest.sol\":1132:1152  groupRankings.length */\n      mload\n        /* \"contracts/respectdistrtest.sol\":1128:1129  i */\n      dup2\n        /* \"contracts/respectdistrtest.sol\":1128:1152  i < groupRankings.length */\n      lt\n        /* \"contracts/respectdistrtest.sol\":1108:1481  for (uint256 i = 0; i < groupRankings.length; i++) {... */\n      iszero\n      tag_38\n      jumpi\n        /* \"contracts/respectdistrtest.sol\":1178:1187  uint256 j */\n      0x00\n        /* \"contracts/respectdistrtest.sol\":1173:1471  for (uint256 j = 0; j < groupRankings[i].length; j++) {... */\n    tag_40:\n        /* \"contracts/respectdistrtest.sol\":1197:1210  groupRankings */\n      dup8\n        /* \"contracts/respectdistrtest.sol\":1211:1212  i */\n      dup3\n        /* \"contracts/respectdistrtest.sol\":1197:1213  groupRankings[i] */\n      dup2\n      mload\n      dup2\n      lt\n      tag_43\n      jumpi\n      tag_44\n      tag_23\n      jump\t// in\n    tag_44:\n    tag_43:\n      0x20\n      mul\n      0x20\n      add\n      add\n      mload\n        /* \"contracts/respectdistrtest.sol\":1197:1220  groupRankings[i].length */\n      mload\n        /* \"contracts/respectdistrtest.sol\":1193:1194  j */\n      dup2\n        /* \"contracts/respectdistrtest.sol\":1193:1220  j < groupRankings[i].length */\n      lt\n        /* \"contracts/respectdistrtest.sol\":1173:1471  for (uint256 j = 0; j < groupRankings[i].length; j++) {... */\n      iszero\n      tag_41\n      jumpi\n        /* \"contracts/respectdistrtest.sol\":1245:1259  uint256 weight */\n      0x00\n        /* \"contracts/respectdistrtest.sol\":1262:1279  fib(uint8(6 - j)) */\n      tag_45\n        /* \"contracts/respectdistrtest.sol\":1276:1277  j */\n      dup3\n        /* \"contracts/respectdistrtest.sol\":1272:1273  6 */\n      0x06\n        /* \"contracts/respectdistrtest.sol\":1272:1277  6 - j */\n      tag_46\n      swap2\n      swap1\n      tag_47\n      jump\t// in\n    tag_46:\n        /* \"contracts/respectdistrtest.sol\":1262:1265  fib */\n      tag_48\n        /* \"contracts/respectdistrtest.sol\":1262:1279  fib(uint8(6 - j)) */\n      jump\t// in\n    tag_45:\n        /* \"contracts/respectdistrtest.sol\":1245:1279  uint256 weight = fib(uint8(6 - j)) */\n      swap1\n      pop\n        /* \"contracts/respectdistrtest.sol\":1365:1371  weight */\n      dup1\n        /* \"contracts/respectdistrtest.sol\":1350:1371  totalWeight += weight */\n      dup6\n      tag_49\n      swap2\n      swap1\n      tag_25\n      jump\t// in\n    tag_49:\n      swap5\n      pop\n        /* \"contracts/respectdistrtest.sol\":1418:1424  weight */\n      dup1\n        /* \"contracts/respectdistrtest.sol\":1389:1401  distribution */\n      dup7\n        /* \"contracts/respectdistrtest.sol\":1402:1414  currentIndex */\n      dup6\n        /* \"contracts/respectdistrtest.sol\":1389:1415  distribution[currentIndex] */\n      dup2\n      mload\n      dup2\n      lt\n      tag_50\n      jumpi\n      tag_51\n      tag_23\n      jump\t// in\n    tag_51:\n    tag_50:\n      0x20\n      mul\n      0x20\n      add\n      add\n        /* \"contracts/respectdistrtest.sol\":1389:1424  distribution[currentIndex] = weight */\n      dup2\n      dup2\n      mstore\n      pop\n      pop\n        /* \"contracts/respectdistrtest.sol\":1442:1456  currentIndex++ */\n      dup4\n      dup1\n      tag_52\n      swap1\n      tag_53\n      jump\t// in\n    tag_52:\n      swap5\n      pop\n      pop\n        /* \"contracts/respectdistrtest.sol\":1227:1471  {... */\n      pop\n        /* \"contracts/respectdistrtest.sol\":1222:1225  j++ */\n      dup1\n      dup1\n      0x01\n      add\n      swap2\n      pop\n      pop\n        /* \"contracts/respectdistrtest.sol\":1173:1471  for (uint256 j = 0; j < groupRankings[i].length; j++) {... */\n      jump(tag_40)\n    tag_41:\n      pop\n        /* \"contracts/respectdistrtest.sol\":1154:1157  i++ */\n      dup1\n      dup1\n      0x01\n      add\n      swap2\n      pop\n      pop\n        /* \"contracts/respectdistrtest.sol\":1108:1481  for (uint256 i = 0; i < groupRankings.length; i++) {... */\n      jump(tag_37)\n    tag_38:\n      pop\n        /* \"contracts/respectdistrtest.sol\":1530:1539  uint256 i */\n      0x00\n        /* \"contracts/respectdistrtest.sol\":1525:1664  for (uint256 i = 0; i < distribution.length; i++) {... */\n    tag_54:\n        /* \"contracts/respectdistrtest.sol\":1549:1561  distribution */\n      dup4\n        /* \"contracts/respectdistrtest.sol\":1549:1568  distribution.length */\n      mload\n        /* \"contracts/respectdistrtest.sol\":1545:1546  i */\n      dup2\n        /* \"contracts/respectdistrtest.sol\":1545:1568  i < distribution.length */\n      lt\n        /* \"contracts/respectdistrtest.sol\":1525:1664  for (uint256 i = 0; i < distribution.length; i++) {... */\n      iszero\n      tag_55\n      jumpi\n        /* \"contracts/respectdistrtest.sol\":1642:1653  totalWeight */\n      dup3\n        /* \"contracts/respectdistrtest.sol\":1626:1638  totalRespect */\n      dup9\n        /* \"contracts/respectdistrtest.sol\":1608:1620  distribution */\n      dup6\n        /* \"contracts/respectdistrtest.sol\":1621:1622  i */\n      dup4\n        /* \"contracts/respectdistrtest.sol\":1608:1623  distribution[i] */\n      dup2\n      mload\n      dup2\n      lt\n      tag_57\n      jumpi\n      tag_58\n      tag_23\n      jump\t// in\n    tag_58:\n    tag_57:\n      0x20\n      mul\n      0x20\n      add\n      add\n      mload\n        /* \"contracts/respectdistrtest.sol\":1608:1638  distribution[i] * totalRespect */\n      tag_59\n      swap2\n      swap1\n      tag_60\n      jump\t// in\n    tag_59:\n        /* \"contracts/respectdistrtest.sol\":1607:1653  (distribution[i] * totalRespect) / totalWeight */\n      tag_61\n      swap2\n      swap1\n      tag_62\n      jump\t// in\n    tag_61:\n        /* \"contracts/respectdistrtest.sol\":1589:1601  distribution */\n      dup5\n        /* \"contracts/respectdistrtest.sol\":1602:1603  i */\n      dup3\n        /* \"contracts/respectdistrtest.sol\":1589:1604  distribution[i] */\n      dup2\n      mload\n      dup2\n      lt\n      tag_63\n      jumpi\n      tag_64\n      tag_23\n      jump\t// in\n    tag_64:\n    tag_63:\n      0x20\n      mul\n      0x20\n      add\n      add\n        /* \"contracts/respectdistrtest.sol\":1589:1653  distribution[i] = (distribution[i] * totalRespect) / totalWeight */\n      dup2\n      dup2\n      mstore\n      pop\n      pop\n        /* \"contracts/respectdistrtest.sol\":1570:1573  i++ */\n      dup1\n      dup1\n      0x01\n      add\n      swap2\n      pop\n      pop\n        /* \"contracts/respectdistrtest.sol\":1525:1664  for (uint256 i = 0; i < distribution.length; i++) {... */\n      jump(tag_54)\n    tag_55:\n      pop\n        /* \"contracts/respectdistrtest.sol\":1681:1693  distribution */\n      dup3\n        /* \"contracts/respectdistrtest.sol\":1674:1693  return distribution */\n      swap5\n      pop\n      pop\n      pop\n      pop\n      pop\n        /* \"contracts/respectdistrtest.sol\":598:1700  function distributeRespect(uint256 totalRespect, uint256[][] memory groupRankings) public pure returns (uint256[] memory) {... */\n      swap3\n      swap2\n      pop\n      pop\n      jump\t// out\n        /* \"contracts/respectdistrtest.sol\":272:547  function fib(uint8 n) internal pure returns (uint256) {... */\n    tag_48:\n        /* \"contracts/respectdistrtest.sol\":317:324  uint256 */\n      0x00\n        /* \"contracts/respectdistrtest.sol\":345:346  1 */\n      0x01\n        /* \"contracts/respectdistrtest.sol\":340:341  n */\n      dup3\n        /* \"contracts/respectdistrtest.sol\":340:346  n <= 1 */\n      0xff\n      and\n      gt\n        /* \"contracts/respectdistrtest.sol\":336:356  if (n <= 1) return n */\n      tag_66\n      jumpi\n        /* \"contracts/respectdistrtest.sol\":355:356  n */\n      dup2\n        /* \"contracts/respectdistrtest.sol\":348:356  return n */\n      0xff\n      and\n      swap1\n      pop\n      jump(tag_65)\n        /* \"contracts/respectdistrtest.sol\":336:356  if (n <= 1) return n */\n    tag_66:\n        /* \"contracts/respectdistrtest.sol\":366:375  uint256 a */\n      0x00\n        /* \"contracts/respectdistrtest.sol\":389:398  uint256 b */\n      dup1\n        /* \"contracts/respectdistrtest.sol\":401:402  1 */\n      0x01\n        /* \"contracts/respectdistrtest.sol\":389:402  uint256 b = 1 */\n      swap1\n      pop\n        /* \"contracts/respectdistrtest.sol\":417:424  uint8 i */\n      0x00\n        /* \"contracts/respectdistrtest.sol\":427:428  2 */\n      0x02\n        /* \"contracts/respectdistrtest.sol\":417:428  uint8 i = 2 */\n      swap1\n      pop\n        /* \"contracts/respectdistrtest.sol\":412:523  for (uint8 i = 2; i <= n; i++) {... */\n    tag_67:\n        /* \"contracts/respectdistrtest.sol\":435:436  n */\n      dup5\n        /* \"contracts/respectdistrtest.sol\":430:436  i <= n */\n      0xff\n      and\n        /* \"contracts/respectdistrtest.sol\":430:431  i */\n      dup2\n        /* \"contracts/respectdistrtest.sol\":430:436  i <= n */\n      0xff\n      and\n      gt\n        /* \"contracts/respectdistrtest.sol\":412:523  for (uint8 i = 2; i <= n; i++) {... */\n      tag_68\n      jumpi\n        /* \"contracts/respectdistrtest.sol\":457:466  uint256 c */\n      0x00\n        /* \"contracts/respectdistrtest.sol\":473:474  b */\n      dup3\n        /* \"contracts/respectdistrtest.sol\":469:470  a */\n      dup5\n        /* \"contracts/respectdistrtest.sol\":469:474  a + b */\n      tag_70\n      swap2\n      swap1\n      tag_25\n      jump\t// in\n    tag_70:\n        /* \"contracts/respectdistrtest.sol\":457:474  uint256 c = a + b */\n      swap1\n      pop\n        /* \"contracts/respectdistrtest.sol\":492:493  b */\n      dup3\n        /* \"contracts/respectdistrtest.sol\":488:493  a = b */\n      swap4\n      pop\n        /* \"contracts/respectdistrtest.sol\":511:512  c */\n      dup1\n        /* \"contracts/respectdistrtest.sol\":507:512  b = c */\n      swap3\n      pop\n        /* \"contracts/respectdistrtest.sol\":443:523  {... */\n      pop\n        /* \"contracts/respectdistrtest.sol\":438:441  i++ */\n      dup1\n      dup1\n      tag_71\n      swap1\n      tag_72\n      jump\t// in\n    tag_71:\n      swap2\n      pop\n      pop\n        /* \"contracts/respectdistrtest.sol\":412:523  for (uint8 i = 2; i <= n; i++) {... */\n      jump(tag_67)\n    tag_68:\n      pop\n        /* \"contracts/respectdistrtest.sol\":539:540  b */\n      dup1\n        /* \"contracts/respectdistrtest.sol\":532:540  return b */\n      swap3\n      pop\n      pop\n      pop\n        /* \"contracts/respectdistrtest.sol\":272:547  function fib(uint8 n) internal pure returns (uint256) {... */\n    tag_65:\n      swap2\n      swap1\n      pop\n      jump\t// out\n        /* \"#utility.yul\":7:82   */\n    tag_73:\n        /* \"#utility.yul\":40:46   */\n      0x00\n        /* \"#utility.yul\":73:75   */\n      0x40\n        /* \"#utility.yul\":67:76   */\n      mload\n        /* \"#utility.yul\":57:76   */\n      swap1\n      pop\n        /* \"#utility.yul\":7:82   */\n      swap1\n      jump\t// out\n        /* \"#utility.yul\":88:205   */\n    tag_74:\n        /* \"#utility.yul\":197:198   */\n      0x00\n        /* \"#utility.yul\":194:195   */\n      dup1\n        /* \"#utility.yul\":187:199   */\n      revert\n        /* \"#utility.yul\":211:328   */\n    tag_75:\n        /* \"#utility.yul\":320:321   */\n      0x00\n        /* \"#utility.yul\":317:318   */\n      dup1\n        /* \"#utility.yul\":310:322   */\n      revert\n        /* \"#utility.yul\":334:451   */\n    tag_76:\n        /* \"#utility.yul\":443:444   */\n      0x00\n        /* \"#utility.yul\":440:441   */\n      dup1\n        /* \"#utility.yul\":433:445   */\n      revert\n        /* \"#utility.yul\":457:559   */\n    tag_77:\n        /* \"#utility.yul\":498:504   */\n      0x00\n        /* \"#utility.yul\":549:551   */\n      0x1f\n        /* \"#utility.yul\":545:552   */\n      not\n        /* \"#utility.yul\":540:542   */\n      0x1f\n        /* \"#utility.yul\":533:538   */\n      dup4\n        /* \"#utility.yul\":529:543   */\n      add\n        /* \"#utility.yul\":525:553   */\n      and\n        /* \"#utility.yul\":515:553   */\n      swap1\n      pop\n        /* \"#utility.yul\":457:559   */\n      swap2\n      swap1\n      pop\n      jump\t// out\n        /* \"#utility.yul\":565:745   */\n    tag_35:\n        /* \"#utility.yul\":613:690   */\n      0x4e487b7100000000000000000000000000000000000000000000000000000000\n        /* \"#utility.yul\":610:611   */\n      0x00\n        /* \"#utility.yul\":603:691   */\n      mstore\n        /* \"#utility.yul\":710:714   */\n      0x41\n        /* \"#utility.yul\":707:708   */\n      0x04\n        /* \"#utility.yul\":700:715   */\n      mstore\n        /* \"#utility.yul\":734:738   */\n      0x24\n        /* \"#utility.yul\":731:732   */\n      0x00\n        /* \"#utility.yul\":724:739   */\n      revert\n        /* \"#utility.yul\":751:1032   */\n    tag_78:\n        /* \"#utility.yul\":834:861   */\n      tag_109\n        /* \"#utility.yul\":856:860   */\n      dup3\n        /* \"#utility.yul\":834:861   */\n      tag_77\n      jump\t// in\n    tag_109:\n        /* \"#utility.yul\":826:832   */\n      dup2\n        /* \"#utility.yul\":822:862   */\n      add\n        /* \"#utility.yul\":964:970   */\n      dup2\n        /* \"#utility.yul\":952:962   */\n      dup2\n        /* \"#utility.yul\":949:971   */\n      lt\n        /* \"#utility.yul\":928:946   */\n      0xffffffffffffffff\n        /* \"#utility.yul\":916:926   */\n      dup3\n        /* \"#utility.yul\":913:947   */\n      gt\n        /* \"#utility.yul\":910:972   */\n      or\n        /* \"#utility.yul\":907:995   */\n      iszero\n      tag_110\n      jumpi\n        /* \"#utility.yul\":975:993   */\n      tag_111\n      tag_35\n      jump\t// in\n    tag_111:\n        /* \"#utility.yul\":907:995   */\n    tag_110:\n        /* \"#utility.yul\":1015:1025   */\n      dup1\n        /* \"#utility.yul\":1011:1013   */\n      0x40\n        /* \"#utility.yul\":1004:1026   */\n      mstore\n        /* \"#utility.yul\":794:1032   */\n      pop\n        /* \"#utility.yul\":751:1032   */\n      pop\n      pop\n      jump\t// out\n        /* \"#utility.yul\":1038:1167   */\n    tag_79:\n        /* \"#utility.yul\":1072:1078   */\n      0x00\n        /* \"#utility.yul\":1099:1119   */\n      tag_113\n      tag_73\n      jump\t// in\n    tag_113:\n        /* \"#utility.yul\":1089:1119   */\n      swap1\n      pop\n        /* \"#utility.yul\":1128:1161   */\n      tag_114\n        /* \"#utility.yul\":1156:1160   */\n      dup3\n        /* \"#utility.yul\":1148:1154   */\n      dup3\n        /* \"#utility.yul\":1128:1161   */\n      tag_78\n      jump\t// in\n    tag_114:\n        /* \"#utility.yul\":1038:1167   */\n      swap2\n      swap1\n      pop\n      jump\t// out\n        /* \"#utility.yul\":1173:1484   */\n    tag_80:\n        /* \"#utility.yul\":1250:1254   */\n      0x00\n        /* \"#utility.yul\":1340:1358   */\n      0xffffffffffffffff\n        /* \"#utility.yul\":1332:1338   */\n      dup3\n        /* \"#utility.yul\":1329:1359   */\n      gt\n        /* \"#utility.yul\":1326:1382   */\n      iszero\n      tag_116\n      jumpi\n        /* \"#utility.yul\":1362:1380   */\n      tag_117\n      tag_35\n      jump\t// in\n    tag_117:\n        /* \"#utility.yul\":1326:1382   */\n    tag_116:\n        /* \"#utility.yul\":1412:1416   */\n      0x20\n        /* \"#utility.yul\":1404:1410   */\n      dup3\n        /* \"#utility.yul\":1400:1417   */\n      mul\n        /* \"#utility.yul\":1392:1417   */\n      swap1\n      pop\n        /* \"#utility.yul\":1472:1476   */\n      0x20\n        /* \"#utility.yul\":1466:1470   */\n      dup2\n        /* \"#utility.yul\":1462:1477   */\n      add\n        /* \"#utility.yul\":1454:1477   */\n      swap1\n      pop\n        /* \"#utility.yul\":1173:1484   */\n      swap2\n      swap1\n      pop\n      jump\t// out\n        /* \"#utility.yul\":1490:1607   */\n    tag_81:\n        /* \"#utility.yul\":1599:1600   */\n      0x00\n        /* \"#utility.yul\":1596:1597   */\n      dup1\n        /* \"#utility.yul\":1589:1601   */\n      revert\n        /* \"#utility.yul\":1613:1690   */\n    tag_82:\n        /* \"#utility.yul\":1650:1657   */\n      0x00\n        /* \"#utility.yul\":1679:1684   */\n      dup2\n        /* \"#utility.yul\":1668:1684   */\n      swap1\n      pop\n        /* \"#utility.yul\":1613:1690   */\n      swap2\n      swap1\n      pop\n      jump\t// out\n        /* \"#utility.yul\":1696:1818   */\n    tag_83:\n        /* \"#utility.yul\":1769:1793   */\n      tag_121\n        /* \"#utility.yul\":1787:1792   */\n      dup2\n        /* \"#utility.yul\":1769:1793   */\n      tag_82\n      jump\t// in\n    tag_121:\n        /* \"#utility.yul\":1762:1767   */\n      dup2\n        /* \"#utility.yul\":1759:1794   */\n      eq\n        /* \"#utility.yul\":1749:1812   */\n      tag_122\n      jumpi\n        /* \"#utility.yul\":1808:1809   */\n      0x00\n        /* \"#utility.yul\":1805:1806   */\n      dup1\n        /* \"#utility.yul\":1798:1810   */\n      revert\n        /* \"#utility.yul\":1749:1812   */\n    tag_122:\n        /* \"#utility.yul\":1696:1818   */\n      pop\n      jump\t// out\n        /* \"#utility.yul\":1824:1963   */\n    tag_84:\n        /* \"#utility.yul\":1870:1875   */\n      0x00\n        /* \"#utility.yul\":1908:1914   */\n      dup2\n        /* \"#utility.yul\":1895:1915   */\n      calldataload\n        /* \"#utility.yul\":1886:1915   */\n      swap1\n      pop\n        /* \"#utility.yul\":1924:1957   */\n      tag_124\n        /* \"#utility.yul\":1951:1956   */\n      dup2\n        /* \"#utility.yul\":1924:1957   */\n      tag_83\n      jump\t// in\n    tag_124:\n        /* \"#utility.yul\":1824:1963   */\n      swap3\n      swap2\n      pop\n      pop\n      jump\t// out\n        /* \"#utility.yul\":1986:2696   */\n    tag_85:\n        /* \"#utility.yul\":2082:2087   */\n      0x00\n        /* \"#utility.yul\":2107:2188   */\n      tag_126\n        /* \"#utility.yul\":2123:2187   */\n      tag_127\n        /* \"#utility.yul\":2180:2186   */\n      dup5\n        /* \"#utility.yul\":2123:2187   */\n      tag_80\n      jump\t// in\n    tag_127:\n        /* \"#utility.yul\":2107:2188   */\n      tag_79\n      jump\t// in\n    tag_126:\n        /* \"#utility.yul\":2098:2188   */\n      swap1\n      pop\n        /* \"#utility.yul\":2208:2213   */\n      dup1\n        /* \"#utility.yul\":2237:2243   */\n      dup4\n        /* \"#utility.yul\":2230:2235   */\n      dup3\n        /* \"#utility.yul\":2223:2244   */\n      mstore\n        /* \"#utility.yul\":2271:2275   */\n      0x20\n        /* \"#utility.yul\":2264:2269   */\n      dup3\n        /* \"#utility.yul\":2260:2276   */\n      add\n        /* \"#utility.yul\":2253:2276   */\n      swap1\n      pop\n        /* \"#utility.yul\":2324:2328   */\n      0x20\n        /* \"#utility.yul\":2316:2322   */\n      dup5\n        /* \"#utility.yul\":2312:2329   */\n      mul\n        /* \"#utility.yul\":2304:2310   */\n      dup4\n        /* \"#utility.yul\":2300:2330   */\n      add\n        /* \"#utility.yul\":2353:2356   */\n      dup6\n        /* \"#utility.yul\":2345:2351   */\n      dup2\n        /* \"#utility.yul\":2342:2357   */\n      gt\n        /* \"#utility.yul\":2339:2461   */\n      iszero\n      tag_128\n      jumpi\n        /* \"#utility.yul\":2372:2451   */\n      tag_129\n      tag_81\n      jump\t// in\n    tag_129:\n        /* \"#utility.yul\":2339:2461   */\n    tag_128:\n        /* \"#utility.yul\":2487:2493   */\n      dup4\n        /* \"#utility.yul\":2470:2690   */\n    tag_130:\n        /* \"#utility.yul\":2504:2510   */\n      dup2\n        /* \"#utility.yul\":2499:2502   */\n      dup2\n        /* \"#utility.yul\":2496:2511   */\n      lt\n        /* \"#utility.yul\":2470:2690   */\n      iszero\n      tag_132\n      jumpi\n        /* \"#utility.yul\":2579:2582   */\n      dup1\n        /* \"#utility.yul\":2608:2645   */\n      tag_133\n        /* \"#utility.yul\":2641:2644   */\n      dup9\n        /* \"#utility.yul\":2629:2639   */\n      dup3\n        /* \"#utility.yul\":2608:2645   */\n      tag_84\n      jump\t// in\n    tag_133:\n        /* \"#utility.yul\":2603:2606   */\n      dup5\n        /* \"#utility.yul\":2596:2646   */\n      mstore\n        /* \"#utility.yul\":2675:2679   */\n      0x20\n        /* \"#utility.yul\":2670:2673   */\n      dup5\n        /* \"#utility.yul\":2666:2680   */\n      add\n        /* \"#utility.yul\":2659:2680   */\n      swap4\n      pop\n        /* \"#utility.yul\":2546:2690   */\n      pop\n        /* \"#utility.yul\":2530:2534   */\n      0x20\n        /* \"#utility.yul\":2525:2528   */\n      dup2\n        /* \"#utility.yul\":2521:2535   */\n      add\n        /* \"#utility.yul\":2514:2535   */\n      swap1\n      pop\n        /* \"#utility.yul\":2470:2690   */\n      jump(tag_130)\n    tag_132:\n        /* \"#utility.yul\":2474:2495   */\n      pop\n        /* \"#utility.yul\":2088:2696   */\n      pop\n      pop\n        /* \"#utility.yul\":1986:2696   */\n      swap4\n      swap3\n      pop\n      pop\n      pop\n      jump\t// out\n        /* \"#utility.yul\":2719:3089   */\n    tag_86:\n        /* \"#utility.yul\":2790:2795   */\n      0x00\n        /* \"#utility.yul\":2839:2842   */\n      dup3\n        /* \"#utility.yul\":2832:2836   */\n      0x1f\n        /* \"#utility.yul\":2824:2830   */\n      dup4\n        /* \"#utility.yul\":2820:2837   */\n      add\n        /* \"#utility.yul\":2816:2843   */\n      slt\n        /* \"#utility.yul\":2806:2928   */\n      tag_135\n      jumpi\n        /* \"#utility.yul\":2847:2926   */\n      tag_136\n      tag_76\n      jump\t// in\n    tag_136:\n        /* \"#utility.yul\":2806:2928   */\n    tag_135:\n        /* \"#utility.yul\":2964:2970   */\n      dup2\n        /* \"#utility.yul\":2951:2971   */\n      calldataload\n        /* \"#utility.yul\":2989:3083   */\n      tag_137\n        /* \"#utility.yul\":3079:3082   */\n      dup5\n        /* \"#utility.yul\":3071:3077   */\n      dup3\n        /* \"#utility.yul\":3064:3068   */\n      0x20\n        /* \"#utility.yul\":3056:3062   */\n      dup7\n        /* \"#utility.yul\":3052:3069   */\n      add\n        /* \"#utility.yul\":2989:3083   */\n      tag_85\n      jump\t// in\n    tag_137:\n        /* \"#utility.yul\":2980:3083   */\n      swap2\n      pop\n        /* \"#utility.yul\":2796:3089   */\n      pop\n        /* \"#utility.yul\":2719:3089   */\n      swap3\n      swap2\n      pop\n      pop\n      jump\t// out\n        /* \"#utility.yul\":3095:3634   */\n    tag_7:\n        /* \"#utility.yul\":3179:3185   */\n      0x00\n        /* \"#utility.yul\":3228:3230   */\n      0x20\n        /* \"#utility.yul\":3216:3225   */\n      dup3\n        /* \"#utility.yul\":3207:3214   */\n      dup5\n        /* \"#utility.yul\":3203:3226   */\n      sub\n        /* \"#utility.yul\":3199:3231   */\n      slt\n        /* \"#utility.yul\":3196:3315   */\n      iszero\n      tag_139\n      jumpi\n        /* \"#utility.yul\":3234:3313   */\n      tag_140\n      tag_74\n      jump\t// in\n    tag_140:\n        /* \"#utility.yul\":3196:3315   */\n    tag_139:\n        /* \"#utility.yul\":3382:3383   */\n      0x00\n        /* \"#utility.yul\":3371:3380   */\n      dup3\n        /* \"#utility.yul\":3367:3384   */\n      add\n        /* \"#utility.yul\":3354:3385   */\n      calldataload\n        /* \"#utility.yul\":3412:3430   */\n      0xffffffffffffffff\n        /* \"#utility.yul\":3404:3410   */\n      dup2\n        /* \"#utility.yul\":3401:3431   */\n      gt\n        /* \"#utility.yul\":3398:3515   */\n      iszero\n      tag_141\n      jumpi\n        /* \"#utility.yul\":3434:3513   */\n      tag_142\n      tag_75\n      jump\t// in\n    tag_142:\n        /* \"#utility.yul\":3398:3515   */\n    tag_141:\n        /* \"#utility.yul\":3539:3617   */\n      tag_143\n        /* \"#utility.yul\":3609:3616   */\n      dup5\n        /* \"#utility.yul\":3600:3606   */\n      dup3\n        /* \"#utility.yul\":3589:3598   */\n      dup6\n        /* \"#utility.yul\":3585:3607   */\n      add\n        /* \"#utility.yul\":3539:3617   */\n      tag_86\n      jump\t// in\n    tag_143:\n        /* \"#utility.yul\":3529:3617   */\n      swap2\n      pop\n        /* \"#utility.yul\":3325:3627   */\n      pop\n        /* \"#utility.yul\":3095:3634   */\n      swap3\n      swap2\n      pop\n      pop\n      jump\t// out\n        /* \"#utility.yul\":3640:3758   */\n    tag_87:\n        /* \"#utility.yul\":3727:3751   */\n      tag_145\n        /* \"#utility.yul\":3745:3750   */\n      dup2\n        /* \"#utility.yul\":3727:3751   */\n      tag_82\n      jump\t// in\n    tag_145:\n        /* \"#utility.yul\":3722:3725   */\n      dup3\n        /* \"#utility.yul\":3715:3752   */\n      mstore\n        /* \"#utility.yul\":3640:3758   */\n      pop\n      pop\n      jump\t// out\n        /* \"#utility.yul\":3764:3986   */\n    tag_10:\n        /* \"#utility.yul\":3857:3861   */\n      0x00\n        /* \"#utility.yul\":3895:3897   */\n      0x20\n        /* \"#utility.yul\":3884:3893   */\n      dup3\n        /* \"#utility.yul\":3880:3898   */\n      add\n        /* \"#utility.yul\":3872:3898   */\n      swap1\n      pop\n        /* \"#utility.yul\":3908:3979   */\n      tag_147\n        /* \"#utility.yul\":3976:3977   */\n      0x00\n        /* \"#utility.yul\":3965:3974   */\n      dup4\n        /* \"#utility.yul\":3961:3978   */\n      add\n        /* \"#utility.yul\":3952:3958   */\n      dup5\n        /* \"#utility.yul\":3908:3979   */\n      tag_87\n      jump\t// in\n    tag_147:\n        /* \"#utility.yul\":3764:3986   */\n      swap3\n      swap2\n      pop\n      pop\n      jump\t// out\n        /* \"#utility.yul\":3992:4328   */\n    tag_88:\n        /* \"#utility.yul\":4094:4098   */\n      0x00\n        /* \"#utility.yul\":4184:4202   */\n      0xffffffffffffffff\n        /* \"#utility.yul\":4176:4182   */\n      dup3\n        /* \"#utility.yul\":4173:4203   */\n      gt\n        /* \"#utility.yul\":4170:4226   */\n      iszero\n      tag_149\n      jumpi\n        /* \"#utility.yul\":4206:4224   */\n      tag_150\n      tag_35\n      jump\t// in\n    tag_150:\n        /* \"#utility.yul\":4170:4226   */\n    tag_149:\n        /* \"#utility.yul\":4256:4260   */\n      0x20\n        /* \"#utility.yul\":4248:4254   */\n      dup3\n        /* \"#utility.yul\":4244:4261   */\n      mul\n        /* \"#utility.yul\":4236:4261   */\n      swap1\n      pop\n        /* \"#utility.yul\":4316:4320   */\n      0x20\n        /* \"#utility.yul\":4310:4314   */\n      dup2\n        /* \"#utility.yul\":4306:4321   */\n      add\n        /* \"#utility.yul\":4298:4321   */\n      swap1\n      pop\n        /* \"#utility.yul\":3992:4328   */\n      swap2\n      swap1\n      pop\n      jump\t// out\n        /* \"#utility.yul\":4353:5343   */\n    tag_89:\n        /* \"#utility.yul\":4474:4479   */\n      0x00\n        /* \"#utility.yul\":4499:4605   */\n      tag_152\n        /* \"#utility.yul\":4515:4604   */\n      tag_153\n        /* \"#utility.yul\":4597:4603   */\n      dup5\n        /* \"#utility.yul\":4515:4604   */\n      tag_88\n      jump\t// in\n    tag_153:\n        /* \"#utility.yul\":4499:4605   */\n      tag_79\n      jump\t// in\n    tag_152:\n        /* \"#utility.yul\":4490:4605   */\n      swap1\n      pop\n        /* \"#utility.yul\":4625:4630   */\n      dup1\n        /* \"#utility.yul\":4654:4660   */\n      dup4\n        /* \"#utility.yul\":4647:4652   */\n      dup3\n        /* \"#utility.yul\":4640:4661   */\n      mstore\n        /* \"#utility.yul\":4688:4692   */\n      0x20\n        /* \"#utility.yul\":4681:4686   */\n      dup3\n        /* \"#utility.yul\":4677:4693   */\n      add\n        /* \"#utility.yul\":4670:4693   */\n      swap1\n      pop\n        /* \"#utility.yul\":4741:4745   */\n      0x20\n        /* \"#utility.yul\":4733:4739   */\n      dup5\n        /* \"#utility.yul\":4729:4746   */\n      mul\n        /* \"#utility.yul\":4721:4727   */\n      dup4\n        /* \"#utility.yul\":4717:4747   */\n      add\n        /* \"#utility.yul\":4770:4773   */\n      dup6\n        /* \"#utility.yul\":4762:4768   */\n      dup2\n        /* \"#utility.yul\":4759:4774   */\n      gt\n        /* \"#utility.yul\":4756:4878   */\n      iszero\n      tag_154\n      jumpi\n        /* \"#utility.yul\":4789:4868   */\n      tag_155\n      tag_81\n      jump\t// in\n    tag_155:\n        /* \"#utility.yul\":4756:4878   */\n    tag_154:\n        /* \"#utility.yul\":4904:4910   */\n      dup4\n        /* \"#utility.yul\":4887:5337   */\n    tag_156:\n        /* \"#utility.yul\":4921:4927   */\n      dup2\n        /* \"#utility.yul\":4916:4919   */\n      dup2\n        /* \"#utility.yul\":4913:4928   */\n      lt\n        /* \"#utility.yul\":4887:5337   */\n      iszero\n      tag_158\n      jumpi\n        /* \"#utility.yul\":5010:5013   */\n      dup1\n        /* \"#utility.yul\":4997:5014   */\n      calldataload\n        /* \"#utility.yul\":5046:5064   */\n      0xffffffffffffffff\n        /* \"#utility.yul\":5033:5044   */\n      dup2\n        /* \"#utility.yul\":5030:5065   */\n      gt\n        /* \"#utility.yul\":5027:5149   */\n      iszero\n      tag_159\n      jumpi\n        /* \"#utility.yul\":5068:5147   */\n      tag_160\n      tag_76\n      jump\t// in\n    tag_160:\n        /* \"#utility.yul\":5027:5149   */\n    tag_159:\n        /* \"#utility.yul\":5192:5203   */\n      dup1\n        /* \"#utility.yul\":5184:5190   */\n      dup7\n        /* \"#utility.yul\":5180:5204   */\n      add\n        /* \"#utility.yul\":5230:5292   */\n      tag_161\n        /* \"#utility.yul\":5288:5291   */\n      dup10\n        /* \"#utility.yul\":5276:5286   */\n      dup3\n        /* \"#utility.yul\":5230:5292   */\n      tag_86\n      jump\t// in\n    tag_161:\n        /* \"#utility.yul\":5225:5228   */\n      dup6\n        /* \"#utility.yul\":5218:5293   */\n      mstore\n        /* \"#utility.yul\":5322:5326   */\n      0x20\n        /* \"#utility.yul\":5317:5320   */\n      dup6\n        /* \"#utility.yul\":5313:5327   */\n      add\n        /* \"#utility.yul\":5306:5327   */\n      swap5\n      pop\n        /* \"#utility.yul\":4963:5337   */\n      pop\n      pop\n        /* \"#utility.yul\":4947:4951   */\n      0x20\n        /* \"#utility.yul\":4942:4945   */\n      dup2\n        /* \"#utility.yul\":4938:4952   */\n      add\n        /* \"#utility.yul\":4931:4952   */\n      swap1\n      pop\n        /* \"#utility.yul\":4887:5337   */\n      jump(tag_156)\n    tag_158:\n        /* \"#utility.yul\":4891:4912   */\n      pop\n        /* \"#utility.yul\":4480:5343   */\n      pop\n      pop\n        /* \"#utility.yul\":4353:5343   */\n      swap4\n      swap3\n      pop\n      pop\n      pop\n      jump\t// out\n        /* \"#utility.yul\":5368:5788   */\n    tag_90:\n        /* \"#utility.yul\":5464:5469   */\n      0x00\n        /* \"#utility.yul\":5513:5516   */\n      dup3\n        /* \"#utility.yul\":5506:5510   */\n      0x1f\n        /* \"#utility.yul\":5498:5504   */\n      dup4\n        /* \"#utility.yul\":5494:5511   */\n      add\n        /* \"#utility.yul\":5490:5517   */\n      slt\n        /* \"#utility.yul\":5480:5602   */\n      tag_163\n      jumpi\n        /* \"#utility.yul\":5521:5600   */\n      tag_164\n      tag_76\n      jump\t// in\n    tag_164:\n        /* \"#utility.yul\":5480:5602   */\n    tag_163:\n        /* \"#utility.yul\":5638:5644   */\n      dup2\n        /* \"#utility.yul\":5625:5645   */\n      calldataload\n        /* \"#utility.yul\":5663:5782   */\n      tag_165\n        /* \"#utility.yul\":5778:5781   */\n      dup5\n        /* \"#utility.yul\":5770:5776   */\n      dup3\n        /* \"#utility.yul\":5763:5767   */\n      0x20\n        /* \"#utility.yul\":5755:5761   */\n      dup7\n        /* \"#utility.yul\":5751:5768   */\n      add\n        /* \"#utility.yul\":5663:5782   */\n      tag_89\n      jump\t// in\n    tag_165:\n        /* \"#utility.yul\":5654:5782   */\n      swap2\n      pop\n        /* \"#utility.yul\":5470:5788   */\n      pop\n        /* \"#utility.yul\":5368:5788   */\n      swap3\n      swap2\n      pop\n      pop\n      jump\t// out\n        /* \"#utility.yul\":5794:6528   */\n    tag_13:\n        /* \"#utility.yul\":5912:5918   */\n      0x00\n        /* \"#utility.yul\":5920:5926   */\n      dup1\n        /* \"#utility.yul\":5969:5971   */\n      0x40\n        /* \"#utility.yul\":5957:5966   */\n      dup4\n        /* \"#utility.yul\":5948:5955   */\n      dup6\n        /* \"#utility.yul\":5944:5967   */\n      sub\n        /* \"#utility.yul\":5940:5972   */\n      slt\n        /* \"#utility.yul\":5937:6056   */\n      iszero\n      tag_167\n      jumpi\n        /* \"#utility.yul\":5975:6054   */\n      tag_168\n      tag_74\n      jump\t// in\n    tag_168:\n        /* \"#utility.yul\":5937:6056   */\n    tag_167:\n        /* \"#utility.yul\":6095:6096   */\n      0x00\n        /* \"#utility.yul\":6120:6173   */\n      tag_169\n        /* \"#utility.yul\":6165:6172   */\n      dup6\n        /* \"#utility.yul\":6156:6162   */\n      dup3\n        /* \"#utility.yul\":6145:6154   */\n      dup7\n        /* \"#utility.yul\":6141:6163   */\n      add\n        /* \"#utility.yul\":6120:6173   */\n      tag_84\n      jump\t// in\n    tag_169:\n        /* \"#utility.yul\":6110:6173   */\n      swap3\n      pop\n        /* \"#utility.yul\":6066:6183   */\n      pop\n        /* \"#utility.yul\":6250:6252   */\n      0x20\n        /* \"#utility.yul\":6239:6248   */\n      dup4\n        /* \"#utility.yul\":6235:6253   */\n      add\n        /* \"#utility.yul\":6222:6254   */\n      calldataload\n        /* \"#utility.yul\":6281:6299   */\n      0xffffffffffffffff\n        /* \"#utility.yul\":6273:6279   */\n      dup2\n        /* \"#utility.yul\":6270:6300   */\n      gt\n        /* \"#utility.yul\":6267:6384   */\n      iszero\n      tag_170\n      jumpi\n        /* \"#utility.yul\":6303:6382   */\n      tag_171\n      tag_75\n      jump\t// in\n    tag_171:\n        /* \"#utility.yul\":6267:6384   */\n    tag_170:\n        /* \"#utility.yul\":6408:6511   */\n      tag_172\n        /* \"#utility.yul\":6503:6510   */\n      dup6\n        /* \"#utility.yul\":6494:6500   */\n      dup3\n        /* \"#utility.yul\":6483:6492   */\n      dup7\n        /* \"#utility.yul\":6479:6501   */\n      add\n        /* \"#utility.yul\":6408:6511   */\n      tag_90\n      jump\t// in\n    tag_172:\n        /* \"#utility.yul\":6398:6511   */\n      swap2\n      pop\n        /* \"#utility.yul\":6193:6521   */\n      pop\n        /* \"#utility.yul\":5794:6528   */\n      swap3\n      pop\n      swap3\n      swap1\n      pop\n      jump\t// out\n        /* \"#utility.yul\":6534:6648   */\n    tag_91:\n        /* \"#utility.yul\":6601:6607   */\n      0x00\n        /* \"#utility.yul\":6635:6640   */\n      dup2\n        /* \"#utility.yul\":6629:6641   */\n      mload\n        /* \"#utility.yul\":6619:6641   */\n      swap1\n      pop\n        /* \"#utility.yul\":6534:6648   */\n      swap2\n      swap1\n      pop\n      jump\t// out\n        /* \"#utility.yul\":6654:6838   */\n    tag_92:\n        /* \"#utility.yul\":6753:6764   */\n      0x00\n        /* \"#utility.yul\":6787:6793   */\n      dup3\n        /* \"#utility.yul\":6782:6785   */\n      dup3\n        /* \"#utility.yul\":6775:6794   */\n      mstore\n        /* \"#utility.yul\":6827:6831   */\n      0x20\n        /* \"#utility.yul\":6822:6825   */\n      dup3\n        /* \"#utility.yul\":6818:6832   */\n      add\n        /* \"#utility.yul\":6803:6832   */\n      swap1\n      pop\n        /* \"#utility.yul\":6654:6838   */\n      swap3\n      swap2\n      pop\n      pop\n      jump\t// out\n        /* \"#utility.yul\":6844:6976   */\n    tag_93:\n        /* \"#utility.yul\":6911:6915   */\n      0x00\n        /* \"#utility.yul\":6934:6937   */\n      dup2\n        /* \"#utility.yul\":6926:6937   */\n      swap1\n      pop\n        /* \"#utility.yul\":6964:6968   */\n      0x20\n        /* \"#utility.yul\":6959:6962   */\n      dup3\n        /* \"#utility.yul\":6955:6969   */\n      add\n        /* \"#utility.yul\":6947:6969   */\n      swap1\n      pop\n        /* \"#utility.yul\":6844:6976   */\n      swap2\n      swap1\n      pop\n      jump\t// out\n        /* \"#utility.yul\":6982:7090   */\n    tag_94:\n        /* \"#utility.yul\":7059:7083   */\n      tag_177\n        /* \"#utility.yul\":7077:7082   */\n      dup2\n        /* \"#utility.yul\":7059:7083   */\n      tag_82\n      jump\t// in\n    tag_177:\n        /* \"#utility.yul\":7054:7057   */\n      dup3\n        /* \"#utility.yul\":7047:7084   */\n      mstore\n        /* \"#utility.yul\":6982:7090   */\n      pop\n      pop\n      jump\t// out\n        /* \"#utility.yul\":7096:7275   */\n    tag_95:\n        /* \"#utility.yul\":7165:7175   */\n      0x00\n        /* \"#utility.yul\":7186:7232   */\n      tag_179\n        /* \"#utility.yul\":7228:7231   */\n      dup4\n        /* \"#utility.yul\":7220:7226   */\n      dup4\n        /* \"#utility.yul\":7186:7232   */\n      tag_94\n      jump\t// in\n    tag_179:\n        /* \"#utility.yul\":7264:7268   */\n      0x20\n        /* \"#utility.yul\":7259:7262   */\n      dup4\n        /* \"#utility.yul\":7255:7269   */\n      add\n        /* \"#utility.yul\":7241:7269   */\n      swap1\n      pop\n        /* \"#utility.yul\":7096:7275   */\n      swap3\n      swap2\n      pop\n      pop\n      jump\t// out\n        /* \"#utility.yul\":7281:7394   */\n    tag_96:\n        /* \"#utility.yul\":7351:7355   */\n      0x00\n        /* \"#utility.yul\":7383:7387   */\n      0x20\n        /* \"#utility.yul\":7378:7381   */\n      dup3\n        /* \"#utility.yul\":7374:7388   */\n      add\n        /* \"#utility.yul\":7366:7388   */\n      swap1\n      pop\n        /* \"#utility.yul\":7281:7394   */\n      swap2\n      swap1\n      pop\n      jump\t// out\n        /* \"#utility.yul\":7430:8162   */\n    tag_97:\n        /* \"#utility.yul\":7549:7552   */\n      0x00\n        /* \"#utility.yul\":7578:7632   */\n      tag_182\n        /* \"#utility.yul\":7626:7631   */\n      dup3\n        /* \"#utility.yul\":7578:7632   */\n      tag_91\n      jump\t// in\n    tag_182:\n        /* \"#utility.yul\":7648:7734   */\n      tag_183\n        /* \"#utility.yul\":7727:7733   */\n      dup2\n        /* \"#utility.yul\":7722:7725   */\n      dup6\n        /* \"#utility.yul\":7648:7734   */\n      tag_92\n      jump\t// in\n    tag_183:\n        /* \"#utility.yul\":7641:7734   */\n      swap4\n      pop\n        /* \"#utility.yul\":7758:7814   */\n      tag_184\n        /* \"#utility.yul\":7808:7813   */\n      dup4\n        /* \"#utility.yul\":7758:7814   */\n      tag_93\n      jump\t// in\n    tag_184:\n        /* \"#utility.yul\":7837:7844   */\n      dup1\n        /* \"#utility.yul\":7868:7869   */\n      0x00\n        /* \"#utility.yul\":7853:8137   */\n    tag_185:\n        /* \"#utility.yul\":7878:7884   */\n      dup4\n        /* \"#utility.yul\":7875:7876   */\n      dup2\n        /* \"#utility.yul\":7872:7885   */\n      lt\n        /* \"#utility.yul\":7853:8137   */\n      iszero\n      tag_187\n      jumpi\n        /* \"#utility.yul\":7954:7960   */\n      dup2\n        /* \"#utility.yul\":7948:7961   */\n      mload\n        /* \"#utility.yul\":7981:8044   */\n      tag_188\n        /* \"#utility.yul\":8040:8043   */\n      dup9\n        /* \"#utility.yul\":8025:8038   */\n      dup3\n        /* \"#utility.yul\":7981:8044   */\n      tag_95\n      jump\t// in\n    tag_188:\n        /* \"#utility.yul\":7974:8044   */\n      swap8\n      pop\n        /* \"#utility.yul\":8067:8127   */\n      tag_189\n        /* \"#utility.yul\":8120:8126   */\n      dup4\n        /* \"#utility.yul\":8067:8127   */\n      tag_96\n      jump\t// in\n    tag_189:\n        /* \"#utility.yul\":8057:8127   */\n      swap3\n      pop\n        /* \"#utility.yul\":7913:8137   */\n      pop\n        /* \"#utility.yul\":7900:7901   */\n      0x01\n        /* \"#utility.yul\":7897:7898   */\n      dup2\n        /* \"#utility.yul\":7893:7902   */\n      add\n        /* \"#utility.yul\":7888:7902   */\n      swap1\n      pop\n        /* \"#utility.yul\":7853:8137   */\n      jump(tag_185)\n    tag_187:\n        /* \"#utility.yul\":7857:7871   */\n      pop\n        /* \"#utility.yul\":8153:8156   */\n      dup6\n        /* \"#utility.yul\":8146:8156   */\n      swap4\n      pop\n        /* \"#utility.yul\":7554:8162   */\n      pop\n      pop\n      pop\n        /* \"#utility.yul\":7430:8162   */\n      swap3\n      swap2\n      pop\n      pop\n      jump\t// out\n        /* \"#utility.yul\":8168:8541   */\n    tag_16:\n        /* \"#utility.yul\":8311:8315   */\n      0x00\n        /* \"#utility.yul\":8349:8351   */\n      0x20\n        /* \"#utility.yul\":8338:8347   */\n      dup3\n        /* \"#utility.yul\":8334:8352   */\n      add\n        /* \"#utility.yul\":8326:8352   */\n      swap1\n      pop\n        /* \"#utility.yul\":8398:8407   */\n      dup2\n        /* \"#utility.yul\":8392:8396   */\n      dup2\n        /* \"#utility.yul\":8388:8408   */\n      sub\n        /* \"#utility.yul\":8384:8385   */\n      0x00\n        /* \"#utility.yul\":8373:8382   */\n      dup4\n        /* \"#utility.yul\":8369:8386   */\n      add\n        /* \"#utility.yul\":8362:8409   */\n      mstore\n        /* \"#utility.yul\":8426:8534   */\n      tag_191\n        /* \"#utility.yul\":8529:8533   */\n      dup2\n        /* \"#utility.yul\":8520:8526   */\n      dup5\n        /* \"#utility.yul\":8426:8534   */\n      tag_97\n      jump\t// in\n    tag_191:\n        /* \"#utility.yul\":8418:8534   */\n      swap1\n      pop\n        /* \"#utility.yul\":8168:8541   */\n      swap3\n      swap2\n      pop\n      pop\n      jump\t// out\n        /* \"#utility.yul\":8547:8727   */\n    tag_23:\n        /* \"#utility.yul\":8595:8672   */\n      0x4e487b7100000000000000000000000000000000000000000000000000000000\n        /* \"#utility.yul\":8592:8593   */\n      0x00\n        /* \"#utility.yul\":8585:8673   */\n      mstore\n        /* \"#utility.yul\":8692:8696   */\n      0x32\n        /* \"#utility.yul\":8689:8690   */\n      0x04\n        /* \"#utility.yul\":8682:8697   */\n      mstore\n        /* \"#utility.yul\":8716:8720   */\n      0x24\n        /* \"#utility.yul\":8713:8714   */\n      0x00\n        /* \"#utility.yul\":8706:8721   */\n      revert\n        /* \"#utility.yul\":8733:8913   */\n    tag_98:\n        /* \"#utility.yul\":8781:8858   */\n      0x4e487b7100000000000000000000000000000000000000000000000000000000\n        /* \"#utility.yul\":8778:8779   */\n      0x00\n        /* \"#utility.yul\":8771:8859   */\n      mstore\n        /* \"#utility.yul\":8878:8882   */\n      0x11\n        /* \"#utility.yul\":8875:8876   */\n      0x04\n        /* \"#utility.yul\":8868:8883   */\n      mstore\n        /* \"#utility.yul\":8902:8906   */\n      0x24\n        /* \"#utility.yul\":8899:8900   */\n      0x00\n        /* \"#utility.yul\":8892:8907   */\n      revert\n        /* \"#utility.yul\":8919:9110   */\n    tag_25:\n        /* \"#utility.yul\":8959:8962   */\n      0x00\n        /* \"#utility.yul\":8978:8998   */\n      tag_195\n        /* \"#utility.yul\":8996:8997   */\n      dup3\n        /* \"#utility.yul\":8978:8998   */\n      tag_82\n      jump\t// in\n    tag_195:\n        /* \"#utility.yul\":8973:8998   */\n      swap2\n      pop\n        /* \"#utility.yul\":9012:9032   */\n      tag_196\n        /* \"#utility.yul\":9030:9031   */\n      dup4\n        /* \"#utility.yul\":9012:9032   */\n      tag_82\n      jump\t// in\n    tag_196:\n        /* \"#utility.yul\":9007:9032   */\n      swap3\n      pop\n        /* \"#utility.yul\":9055:9056   */\n      dup3\n        /* \"#utility.yul\":9052:9053   */\n      dup3\n        /* \"#utility.yul\":9048:9057   */\n      add\n        /* \"#utility.yul\":9041:9057   */\n      swap1\n      pop\n        /* \"#utility.yul\":9076:9079   */\n      dup1\n        /* \"#utility.yul\":9073:9074   */\n      dup3\n        /* \"#utility.yul\":9070:9080   */\n      gt\n        /* \"#utility.yul\":9067:9103   */\n      iszero\n      tag_197\n      jumpi\n        /* \"#utility.yul\":9083:9101   */\n      tag_198\n      tag_98\n      jump\t// in\n    tag_198:\n        /* \"#utility.yul\":9067:9103   */\n    tag_197:\n        /* \"#utility.yul\":8919:9110   */\n      swap3\n      swap2\n      pop\n      pop\n      jump\t// out\n        /* \"#utility.yul\":9116:9310   */\n    tag_47:\n        /* \"#utility.yul\":9156:9160   */\n      0x00\n        /* \"#utility.yul\":9176:9196   */\n      tag_200\n        /* \"#utility.yul\":9194:9195   */\n      dup3\n        /* \"#utility.yul\":9176:9196   */\n      tag_82\n      jump\t// in\n    tag_200:\n        /* \"#utility.yul\":9171:9196   */\n      swap2\n      pop\n        /* \"#utility.yul\":9210:9230   */\n      tag_201\n        /* \"#utility.yul\":9228:9229   */\n      dup4\n        /* \"#utility.yul\":9210:9230   */\n      tag_82\n      jump\t// in\n    tag_201:\n        /* \"#utility.yul\":9205:9230   */\n      swap3\n      pop\n        /* \"#utility.yul\":9254:9255   */\n      dup3\n        /* \"#utility.yul\":9251:9252   */\n      dup3\n        /* \"#utility.yul\":9247:9256   */\n      sub\n        /* \"#utility.yul\":9239:9256   */\n      swap1\n      pop\n        /* \"#utility.yul\":9278:9279   */\n      dup2\n        /* \"#utility.yul\":9272:9276   */\n      dup2\n        /* \"#utility.yul\":9269:9280   */\n      gt\n        /* \"#utility.yul\":9266:9303   */\n      iszero\n      tag_202\n      jumpi\n        /* \"#utility.yul\":9283:9301   */\n      tag_203\n      tag_98\n      jump\t// in\n    tag_203:\n        /* \"#utility.yul\":9266:9303   */\n    tag_202:\n        /* \"#utility.yul\":9116:9310   */\n      swap3\n      swap2\n      pop\n      pop\n      jump\t// out\n        /* \"#utility.yul\":9316:9549   */\n    tag_53:\n        /* \"#utility.yul\":9355:9358   */\n      0x00\n        /* \"#utility.yul\":9378:9402   */\n      tag_205\n        /* \"#utility.yul\":9396:9401   */\n      dup3\n        /* \"#utility.yul\":9378:9402   */\n      tag_82\n      jump\t// in\n    tag_205:\n        /* \"#utility.yul\":9369:9402   */\n      swap2\n      pop\n        /* \"#utility.yul\":9424:9490   */\n      0xffffffffffffffffffffffffffffffffffffffffffffffffffffffffffffffff\n        /* \"#utility.yul\":9417:9422   */\n      dup3\n        /* \"#utility.yul\":9414:9491   */\n      sub\n        /* \"#utility.yul\":9411:9514   */\n      tag_206\n      jumpi\n        /* \"#utility.yul\":9494:9512   */\n      tag_207\n      tag_98\n      jump\t// in\n    tag_207:\n        /* \"#utility.yul\":9411:9514   */\n    tag_206:\n        /* \"#utility.yul\":9541:9542   */\n      0x01\n        /* \"#utility.yul\":9534:9539   */\n      dup3\n        /* \"#utility.yul\":9530:9543   */\n      add\n        /* \"#utility.yul\":9523:9543   */\n      swap1\n      pop\n        /* \"#utility.yul\":9316:9549   */\n      swap2\n      swap1\n      pop\n      jump\t// out\n        /* \"#utility.yul\":9555:9965   */\n    tag_60:\n        /* \"#utility.yul\":9595:9602   */\n      0x00\n        /* \"#utility.yul\":9618:9638   */\n      tag_209\n        /* \"#utility.yul\":9636:9637   */\n      dup3\n        /* \"#utility.yul\":9618:9638   */\n      tag_82\n      jump\t// in\n    tag_209:\n        /* \"#utility.yul\":9613:9638   */\n      swap2\n      pop\n        /* \"#utility.yul\":9652:9672   */\n      tag_210\n        /* \"#utility.yul\":9670:9671   */\n      dup4\n        /* \"#utility.yul\":9652:9672   */\n      tag_82\n      jump\t// in\n    tag_210:\n        /* \"#utility.yul\":9647:9672   */\n      swap3\n      pop\n        /* \"#utility.yul\":9707:9708   */\n      dup3\n        /* \"#utility.yul\":9704:9705   */\n      dup3\n        /* \"#utility.yul\":9700:9709   */\n      mul\n        /* \"#utility.yul\":9729:9759   */\n      tag_211\n        /* \"#utility.yul\":9747:9758   */\n      dup2\n        /* \"#utility.yul\":9729:9759   */\n      tag_82\n      jump\t// in\n    tag_211:\n        /* \"#utility.yul\":9718:9759   */\n      swap2\n      pop\n        /* \"#utility.yul\":9908:9909   */\n      dup3\n        /* \"#utility.yul\":9899:9906   */\n      dup3\n        /* \"#utility.yul\":9895:9910   */\n      div\n        /* \"#utility.yul\":9892:9893   */\n      dup5\n        /* \"#utility.yul\":9889:9911   */\n      eq\n        /* \"#utility.yul\":9869:9870   */\n      dup4\n        /* \"#utility.yul\":9862:9871   */\n      iszero\n        /* \"#utility.yul\":9842:9925   */\n      or\n        /* \"#utility.yul\":9819:9958   */\n      tag_212\n      jumpi\n        /* \"#utility.yul\":9938:9956   */\n      tag_213\n      tag_98\n      jump\t// in\n    tag_213:\n        /* \"#utility.yul\":9819:9958   */\n    tag_212:\n        /* \"#utility.yul\":9603:9965   */\n      pop\n        /* \"#utility.yul\":9555:9965   */\n      swap3\n      swap2\n      pop\n      pop\n      jump\t// out\n        /* \"#utility.yul\":9971:10151   */\n    tag_99:\n        /* \"#utility.yul\":10019:10096   */\n      0x4e487b7100000000000000000000000000000000000000000000000000000000\n        /* \"#utility.yul\":10016:10017   */\n      0x00\n        /* \"#utility.yul\":10009:10097   */\n      mstore\n        /* \"#utility.yul\":10116:10120   */\n      0x12\n        /* \"#utility.yul\":10113:10114   */\n      0x04\n        /* \"#utility.yul\":10106:10121   */\n      mstore\n        /* \"#utility.yul\":10140:10144   */\n      0x24\n        /* \"#utility.yul\":10137:10138   */\n      0x00\n        /* \"#utility.yul\":10130:10145   */\n      revert\n        /* \"#utility.yul\":10157:10342   */\n    tag_62:\n        /* \"#utility.yul\":10197:10198   */\n      0x00\n        /* \"#utility.yul\":10214:10234   */\n      tag_216\n        /* \"#utility.yul\":10232:10233   */\n      dup3\n        /* \"#utility.yul\":10214:10234   */\n      tag_82\n      jump\t// in\n    tag_216:\n        /* \"#utility.yul\":10209:10234   */\n      swap2\n      pop\n        /* \"#utility.yul\":10248:10268   */\n      tag_217\n        /* \"#utility.yul\":10266:10267   */\n      dup4\n        /* \"#utility.yul\":10248:10268   */\n      tag_82\n      jump\t// in\n    tag_217:\n        /* \"#utility.yul\":10243:10268   */\n      swap3\n      pop\n        /* \"#utility.yul\":10287:10288   */\n      dup3\n        /* \"#utility.yul\":10277:10312   */\n      tag_218\n      jumpi\n        /* \"#utility.yul\":10292:10310   */\n      tag_219\n      tag_99\n      jump\t// in\n    tag_219:\n        /* \"#utility.yul\":10277:10312   */\n    tag_218:\n        /* \"#utility.yul\":10334:10335   */\n      dup3\n        /* \"#utility.yul\":10331:10332   */\n      dup3\n        /* \"#utility.yul\":10327:10336   */\n      div\n        /* \"#utility.yul\":10322:10336   */\n      swap1\n      pop\n        /* \"#utility.yul\":10157:10342   */\n      swap3\n      swap2\n      pop\n      pop\n      jump\t// out\n        /* \"#utility.yul\":10348:10434   */\n    tag_100:\n        /* \"#utility.yul\":10383:10390   */\n      0x00\n        /* \"#utility.yul\":10423:10427   */\n      0xff\n        /* \"#utility.yul\":10416:10421   */\n      dup3\n        /* \"#utility.yul\":10412:10428   */\n      and\n        /* \"#utility.yul\":10401:10428   */\n      swap1\n      pop\n        /* \"#utility.yul\":10348:10434   */\n      swap2\n      swap1\n      pop\n      jump\t// out\n        /* \"#utility.yul\":10440:10607   */\n    tag_72:\n        /* \"#utility.yul\":10477:10480   */\n      0x00\n        /* \"#utility.yul\":10500:10522   */\n      tag_222\n        /* \"#utility.yul\":10516:10521   */\n      dup3\n        /* \"#utility.yul\":10500:10522   */\n      tag_100\n      jump\t// in\n    tag_222:\n        /* \"#utility.yul\":10491:10522   */\n      swap2\n      pop\n        /* \"#utility.yul\":10544:10548   */\n      0xff\n        /* \"#utility.yul\":10537:10542   */\n      dup3\n        /* \"#utility.yul\":10534:10549   */\n      sub\n        /* \"#utility.yul\":10531:10572   */\n      tag_223\n      jumpi\n        /* \"#utility.yul\":10552:10570   */\n      tag_224\n      tag_98\n      jump\t// in\n    tag_224:\n        /* \"#utility.yul\":10531:10572   */\n    tag_223:\n        /* \"#utility.yul\":10599:10600   */\n      0x01\n        /* \"#utility.yul\":10592:10597   */\n      dup3\n        /* \"#utility.yul\":10588:10601   */\n      add\n        /* \"#utility.yul\":10581:10601   */\n      swap1\n      pop\n        /* \"#utility.yul\":10440:10607   */\n      swap2\n      swap1\n      pop\n      jump\t// out\n\n    auxdata: 0xa26469706673582212203ebe968f31309807f330f01c7bcdddc5c327f3a522afd9d8169f9c91fd1743ba64736f6c634300081a0033\n}\n",
				"bytecode": {
					"linkReferences": {},
					"object": "6080604052348015600e575f80fd5b506109178061001c5f395ff3fe608060405234801561000f575f80fd5b5060043610610034575f3560e01c80633cda0f1514610038578063e8ff2a4014610068575b5f80fd5b610052600480360381019061004d919061048a565b610098565b60405161005f91906104e0565b60405180910390f35b610082600480360381019061007d91906105d7565b6100e7565b60405161008f91906106e8565b60405180910390f35b5f805f90505f5b83518110156100dd578381815181106100bb576100ba610708565b5b6020026020010151826100ce9190610762565b9150808060010191505061009f565b5080915050919050565b60605f805b835181101561012b5783818151811061010857610107610708565b5b6020026020010151518261011c9190610762565b915080806001019150506100ec565b505f8167ffffffffffffffff8111156101475761014661031b565b5b6040519080825280602002602001820160405280156101755781602001602082028036833780820191505090505b5090505f805f5b865181101561021a575f5b87828151811061019a57610199610708565b5b60200260200101515181101561020c575f6101c08260066101bb9190610795565b610291565b905080856101ce9190610762565b9450808685815181106101e4576101e3610708565b5b60200260200101818152505083806101fb906107c8565b945050508080600101915050610187565b50808060010191505061017c565b505f5b835181101561028357828885838151811061023b5761023a610708565b5b602002602001015161024d919061080f565b610257919061087d565b84828151811061026a57610269610708565b5b602002602001018181525050808060010191505061021d565b508294505050505092915050565b5f60018260ff16116102a8578160ff1690506102f1565b5f80600190505f600290505b8460ff168160ff16116102ea575f82846102ce9190610762565b90508293508092505080806102e2906108b9565b9150506102b4565b5080925050505b919050565b5f604051905090565b5f80fd5b5f80fd5b5f80fd5b5f601f19601f8301169050919050565b7f4e487b71000000000000000000000000000000000000000000000000000000005f52604160045260245ffd5b6103518261030b565b810181811067ffffffffffffffff821117156103705761036f61031b565b5b80604052505050565b5f6103826102f6565b905061038e8282610348565b919050565b5f67ffffffffffffffff8211156103ad576103ac61031b565b5b602082029050602081019050919050565b5f80fd5b5f819050919050565b6103d4816103c2565b81146103de575f80fd5b50565b5f813590506103ef816103cb565b92915050565b5f61040761040284610393565b610379565b9050808382526020820190506020840283018581111561042a576104296103be565b5b835b81811015610453578061043f88826103e1565b84526020840193505060208101905061042c565b5050509392505050565b5f82601f83011261047157610470610307565b5b81356104818482602086016103f5565b91505092915050565b5f6020828403121561049f5761049e6102ff565b5b5f82013567ffffffffffffffff8111156104bc576104bb610303565b5b6104c88482850161045d565b91505092915050565b6104da816103c2565b82525050565b5f6020820190506104f35f8301846104d1565b92915050565b5f67ffffffffffffffff8211156105135761051261031b565b5b602082029050602081019050919050565b5f610536610531846104f9565b610379565b90508083825260208201905060208402830185811115610559576105586103be565b5b835b818110156105a057803567ffffffffffffffff81111561057e5761057d610307565b5b80860161058b898261045d565b8552602085019450505060208101905061055b565b5050509392505050565b5f82601f8301126105be576105bd610307565b5b81356105ce848260208601610524565b91505092915050565b5f80604083850312156105ed576105ec6102ff565b5b5f6105fa858286016103e1565b925050602083013567ffffffffffffffff81111561061b5761061a610303565b5b610627858286016105aa565b9150509250929050565b5f81519050919050565b5f82825260208201905092915050565b5f819050602082019050919050565b610663816103c2565b82525050565b5f610674838361065a565b60208301905092915050565b5f602082019050919050565b5f61069682610631565b6106a0818561063b565b93506106ab8361064b565b805f5b838110156106db5781516106c28882610669565b97506106cd83610680565b9250506001810190506106ae565b5085935050505092915050565b5f6020820190508181035f830152610700818461068c565b905092915050565b7f4e487b71000000000000000000000000000000000000000000000000000000005f52603260045260245ffd5b7f4e487b71000000000000000000000000000000000000000000000000000000005f52601160045260245ffd5b5f61076c826103c2565b9150610777836103c2565b925082820190508082111561078f5761078e610735565b5b92915050565b5f61079f826103c2565b91506107aa836103c2565b92508282039050818111156107c2576107c1610735565b5b92915050565b5f6107d2826103c2565b91507fffffffffffffffffffffffffffffffffffffffffffffffffffffffffffffffff820361080457610803610735565b5b600182019050919050565b5f610819826103c2565b9150610824836103c2565b9250828202610832816103c2565b9150828204841483151761084957610848610735565b5b5092915050565b7f4e487b71000000000000000000000000000000000000000000000000000000005f52601260045260245ffd5b5f610887826103c2565b9150610892836103c2565b9250826108a2576108a1610850565b5b828204905092915050565b5f60ff82169050919050565b5f6108c3826108ad565b915060ff82036108d6576108d5610735565b5b60018201905091905056fea26469706673582212203ebe968f31309807f330f01c7bcdddc5c327f3a522afd9d8169f9c91fd1743ba64736f6c634300081a0033",
					"opcodes": "PUSH1 0x80 PUSH1 0x40 MSTORE CALLVALUE DUP1 ISZERO PUSH1 0xE JUMPI PUSH0 DUP1 REVERT JUMPDEST POP PUSH2 0x917 DUP1 PUSH2 0x1C PUSH0 CODECOPY PUSH0 RETURN INVALID PUSH1 0x80 PUSH1 0x40 MSTORE CALLVALUE DUP1 ISZERO PUSH2 0xF JUMPI PUSH0 DUP1 REVERT JUMPDEST POP PUSH1 0x4 CALLDATASIZE LT PUSH2 0x34 JUMPI PUSH0 CALLDATALOAD PUSH1 0xE0 SHR DUP1 PUSH4 0x3CDA0F15 EQ PUSH2 0x38 JUMPI DUP1 PUSH4 0xE8FF2A40 EQ PUSH2 0x68 JUMPI JUMPDEST PUSH0 DUP1 REVERT JUMPDEST PUSH2 0x52 PUSH1 0x4 DUP1 CALLDATASIZE SUB DUP2 ADD SWAP1 PUSH2 0x4D SWAP2 SWAP1 PUSH2 0x48A JUMP JUMPDEST PUSH2 0x98 JUMP JUMPDEST PUSH1 0x40 MLOAD PUSH2 0x5F SWAP2 SWAP1 PUSH2 0x4E0 JUMP JUMPDEST PUSH1 0x40 MLOAD DUP1 SWAP2 SUB SWAP1 RETURN JUMPDEST PUSH2 0x82 PUSH1 0x4 DUP1 CALLDATASIZE SUB DUP2 ADD SWAP1 PUSH2 0x7D SWAP2 SWAP1 PUSH2 0x5D7 JUMP JUMPDEST PUSH2 0xE7 JUMP JUMPDEST PUSH1 0x40 MLOAD PUSH2 0x8F SWAP2 SWAP1 PUSH2 0x6E8 JUMP JUMPDEST PUSH1 0x40 MLOAD DUP1 SWAP2 SUB SWAP1 RETURN JUMPDEST PUSH0 DUP1 PUSH0 SWAP1 POP PUSH0 JUMPDEST DUP4 MLOAD DUP2 LT ISZERO PUSH2 0xDD JUMPI DUP4 DUP2 DUP2 MLOAD DUP2 LT PUSH2 0xBB JUMPI PUSH2 0xBA PUSH2 0x708 JUMP JUMPDEST JUMPDEST PUSH1 0x20 MUL PUSH1 0x20 ADD ADD MLOAD DUP3 PUSH2 0xCE SWAP2 SWAP1 PUSH2 0x762 JUMP JUMPDEST SWAP2 POP DUP1 DUP1 PUSH1 0x1 ADD SWAP2 POP POP PUSH2 0x9F JUMP JUMPDEST POP DUP1 SWAP2 POP POP SWAP2 SWAP1 POP JUMP JUMPDEST PUSH1 0x60 PUSH0 DUP1 JUMPDEST DUP4 MLOAD DUP2 LT ISZERO PUSH2 0x12B JUMPI DUP4 DUP2 DUP2 MLOAD DUP2 LT PUSH2 0x108 JUMPI PUSH2 0x107 PUSH2 0x708 JUMP JUMPDEST JUMPDEST PUSH1 0x20 MUL PUSH1 0x20 ADD ADD MLOAD MLOAD DUP3 PUSH2 0x11C SWAP2 SWAP1 PUSH2 0x762 JUMP JUMPDEST SWAP2 POP DUP1 DUP1 PUSH1 0x1 ADD SWAP2 POP POP PUSH2 0xEC JUMP JUMPDEST POP PUSH0 DUP2 PUSH8 0xFFFFFFFFFFFFFFFF DUP2 GT ISZERO PUSH2 0x147 JUMPI PUSH2 0x146 PUSH2 0x31B JUMP JUMPDEST JUMPDEST PUSH1 0x40 MLOAD SWAP1 DUP1 DUP3 MSTORE DUP1 PUSH1 0x20 MUL PUSH1 0x20 ADD DUP3 ADD PUSH1 0x40 MSTORE DUP1 ISZERO PUSH2 0x175 JUMPI DUP2 PUSH1 0x20 ADD PUSH1 0x20 DUP3 MUL DUP1 CALLDATASIZE DUP4 CALLDATACOPY DUP1 DUP3 ADD SWAP2 POP POP SWAP1 POP JUMPDEST POP SWAP1 POP PUSH0 DUP1 PUSH0 JUMPDEST DUP7 MLOAD DUP2 LT ISZERO PUSH2 0x21A JUMPI PUSH0 JUMPDEST DUP8 DUP3 DUP2 MLOAD DUP2 LT PUSH2 0x19A JUMPI PUSH2 0x199 PUSH2 0x708 JUMP JUMPDEST JUMPDEST PUSH1 0x20 MUL PUSH1 0x20 ADD ADD MLOAD MLOAD DUP2 LT ISZERO PUSH2 0x20C JUMPI PUSH0 PUSH2 0x1C0 DUP3 PUSH1 0x6 PUSH2 0x1BB SWAP2 SWAP1 PUSH2 0x795 JUMP JUMPDEST PUSH2 0x291 JUMP JUMPDEST SWAP1 POP DUP1 DUP6 PUSH2 0x1CE SWAP2 SWAP1 PUSH2 0x762 JUMP JUMPDEST SWAP5 POP DUP1 DUP7 DUP6 DUP2 MLOAD DUP2 LT PUSH2 0x1E4 JUMPI PUSH2 0x1E3 PUSH2 0x708 JUMP JUMPDEST JUMPDEST PUSH1 0x20 MUL PUSH1 0x20 ADD ADD DUP2 DUP2 MSTORE POP POP DUP4 DUP1 PUSH2 0x1FB SWAP1 PUSH2 0x7C8 JUMP JUMPDEST SWAP5 POP POP POP DUP1 DUP1 PUSH1 0x1 ADD SWAP2 POP POP PUSH2 0x187 JUMP JUMPDEST POP DUP1 DUP1 PUSH1 0x1 ADD SWAP2 POP POP PUSH2 0x17C JUMP JUMPDEST POP PUSH0 JUMPDEST DUP4 MLOAD DUP2 LT ISZERO PUSH2 0x283 JUMPI DUP3 DUP9 DUP6 DUP4 DUP2 MLOAD DUP2 LT PUSH2 0x23B JUMPI PUSH2 0x23A PUSH2 0x708 JUMP JUMPDEST JUMPDEST PUSH1 0x20 MUL PUSH1 0x20 ADD ADD MLOAD PUSH2 0x24D SWAP2 SWAP1 PUSH2 0x80F JUMP JUMPDEST PUSH2 0x257 SWAP2 SWAP1 PUSH2 0x87D JUMP JUMPDEST DUP5 DUP3 DUP2 MLOAD DUP2 LT PUSH2 0x26A JUMPI PUSH2 0x269 PUSH2 0x708 JUMP JUMPDEST JUMPDEST PUSH1 0x20 MUL PUSH1 0x20 ADD ADD DUP2 DUP2 MSTORE POP POP DUP1 DUP1 PUSH1 0x1 ADD SWAP2 POP POP PUSH2 0x21D JUMP JUMPDEST POP DUP3 SWAP5 POP POP POP POP POP SWAP3 SWAP2 POP POP JUMP JUMPDEST PUSH0 PUSH1 0x1 DUP3 PUSH1 0xFF AND GT PUSH2 0x2A8 JUMPI DUP2 PUSH1 0xFF AND SWAP1 POP PUSH2 0x2F1 JUMP JUMPDEST PUSH0 DUP1 PUSH1 0x1 SWAP1 POP PUSH0 PUSH1 0x2 SWAP1 POP JUMPDEST DUP5 PUSH1 0xFF AND DUP2 PUSH1 0xFF AND GT PUSH2 0x2EA JUMPI PUSH0 DUP3 DUP5 PUSH2 0x2CE SWAP2 SWAP1 PUSH2 0x762 JUMP JUMPDEST SWAP1 POP DUP3 SWAP4 POP DUP1 SWAP3 POP POP DUP1 DUP1 PUSH2 0x2E2 SWAP1 PUSH2 0x8B9 JUMP JUMPDEST SWAP2 POP POP PUSH2 0x2B4 JUMP JUMPDEST POP DUP1 SWAP3 POP POP POP JUMPDEST SWAP2 SWAP1 POP JUMP JUMPDEST PUSH0 PUSH1 0x40 MLOAD SWAP1 POP SWAP1 JUMP JUMPDEST PUSH0 DUP1 REVERT JUMPDEST PUSH0 DUP1 REVERT JUMPDEST PUSH0 DUP1 REVERT JUMPDEST PUSH0 PUSH1 0x1F NOT PUSH1 0x1F DUP4 ADD AND SWAP1 POP SWAP2 SWAP1 POP JUMP JUMPDEST PUSH32 0x4E487B7100000000000000000000000000000000000000000000000000000000 PUSH0 MSTORE PUSH1 0x41 PUSH1 0x4 MSTORE PUSH1 0x24 PUSH0 REVERT JUMPDEST PUSH2 0x351 DUP3 PUSH2 0x30B JUMP JUMPDEST DUP2 ADD DUP2 DUP2 LT PUSH8 0xFFFFFFFFFFFFFFFF DUP3 GT OR ISZERO PUSH2 0x370 JUMPI PUSH2 0x36F PUSH2 0x31B JUMP JUMPDEST JUMPDEST DUP1 PUSH1 0x40 MSTORE POP POP POP JUMP JUMPDEST PUSH0 PUSH2 0x382 PUSH2 0x2F6 JUMP JUMPDEST SWAP1 POP PUSH2 0x38E DUP3 DUP3 PUSH2 0x348 JUMP JUMPDEST SWAP2 SWAP1 POP JUMP JUMPDEST PUSH0 PUSH8 0xFFFFFFFFFFFFFFFF DUP3 GT ISZERO PUSH2 0x3AD JUMPI PUSH2 0x3AC PUSH2 0x31B JUMP JUMPDEST JUMPDEST PUSH1 0x20 DUP3 MUL SWAP1 POP PUSH1 0x20 DUP2 ADD SWAP1 POP SWAP2 SWAP1 POP JUMP JUMPDEST PUSH0 DUP1 REVERT JUMPDEST PUSH0 DUP2 SWAP1 POP SWAP2 SWAP1 POP JUMP JUMPDEST PUSH2 0x3D4 DUP2 PUSH2 0x3C2 JUMP JUMPDEST DUP2 EQ PUSH2 0x3DE JUMPI PUSH0 DUP1 REVERT JUMPDEST POP JUMP JUMPDEST PUSH0 DUP2 CALLDATALOAD SWAP1 POP PUSH2 0x3EF DUP2 PUSH2 0x3CB JUMP JUMPDEST SWAP3 SWAP2 POP POP JUMP JUMPDEST PUSH0 PUSH2 0x407 PUSH2 0x402 DUP5 PUSH2 0x393 JUMP JUMPDEST PUSH2 0x379 JUMP JUMPDEST SWAP1 POP DUP1 DUP4 DUP3 MSTORE PUSH1 0x20 DUP3 ADD SWAP1 POP PUSH1 0x20 DUP5 MUL DUP4 ADD DUP6 DUP2 GT ISZERO PUSH2 0x42A JUMPI PUSH2 0x429 PUSH2 0x3BE JUMP JUMPDEST JUMPDEST DUP4 JUMPDEST DUP2 DUP2 LT ISZERO PUSH2 0x453 JUMPI DUP1 PUSH2 0x43F DUP9 DUP3 PUSH2 0x3E1 JUMP JUMPDEST DUP5 MSTORE PUSH1 0x20 DUP5 ADD SWAP4 POP POP PUSH1 0x20 DUP2 ADD SWAP1 POP PUSH2 0x42C JUMP JUMPDEST POP POP POP SWAP4 SWAP3 POP POP POP JUMP JUMPDEST PUSH0 DUP3 PUSH1 0x1F DUP4 ADD SLT PUSH2 0x471 JUMPI PUSH2 0x470 PUSH2 0x307 JUMP JUMPDEST JUMPDEST DUP2 CALLDATALOAD PUSH2 0x481 DUP5 DUP3 PUSH1 0x20 DUP7 ADD PUSH2 0x3F5 JUMP JUMPDEST SWAP2 POP POP SWAP3 SWAP2 POP POP JUMP JUMPDEST PUSH0 PUSH1 0x20 DUP3 DUP5 SUB SLT ISZERO PUSH2 0x49F JUMPI PUSH2 0x49E PUSH2 0x2FF JUMP JUMPDEST JUMPDEST PUSH0 DUP3 ADD CALLDATALOAD PUSH8 0xFFFFFFFFFFFFFFFF DUP2 GT ISZERO PUSH2 0x4BC JUMPI PUSH2 0x4BB PUSH2 0x303 JUMP JUMPDEST JUMPDEST PUSH2 0x4C8 DUP5 DUP3 DUP6 ADD PUSH2 0x45D JUMP JUMPDEST SWAP2 POP POP SWAP3 SWAP2 POP POP JUMP JUMPDEST PUSH2 0x4DA DUP2 PUSH2 0x3C2 JUMP JUMPDEST DUP3 MSTORE POP POP JUMP JUMPDEST PUSH0 PUSH1 0x20 DUP3 ADD SWAP1 POP PUSH2 0x4F3 PUSH0 DUP4 ADD DUP5 PUSH2 0x4D1 JUMP JUMPDEST SWAP3 SWAP2 POP POP JUMP JUMPDEST PUSH0 PUSH8 0xFFFFFFFFFFFFFFFF DUP3 GT ISZERO PUSH2 0x513 JUMPI PUSH2 0x512 PUSH2 0x31B JUMP JUMPDEST JUMPDEST PUSH1 0x20 DUP3 MUL SWAP1 POP PUSH1 0x20 DUP2 ADD SWAP1 POP SWAP2 SWAP1 POP JUMP JUMPDEST PUSH0 PUSH2 0x536 PUSH2 0x531 DUP5 PUSH2 0x4F9 JUMP JUMPDEST PUSH2 0x379 JUMP JUMPDEST SWAP1 POP DUP1 DUP4 DUP3 MSTORE PUSH1 0x20 DUP3 ADD SWAP1 POP PUSH1 0x20 DUP5 MUL DUP4 ADD DUP6 DUP2 GT ISZERO PUSH2 0x559 JUMPI PUSH2 0x558 PUSH2 0x3BE JUMP JUMPDEST JUMPDEST DUP4 JUMPDEST DUP2 DUP2 LT ISZERO PUSH2 0x5A0 JUMPI DUP1 CALLDATALOAD PUSH8 0xFFFFFFFFFFFFFFFF DUP2 GT ISZERO PUSH2 0x57E JUMPI PUSH2 0x57D PUSH2 0x307 JUMP JUMPDEST JUMPDEST DUP1 DUP7 ADD PUSH2 0x58B DUP10 DUP3 PUSH2 0x45D JUMP JUMPDEST DUP6 MSTORE PUSH1 0x20 DUP6 ADD SWAP5 POP POP POP PUSH1 0x20 DUP2 ADD SWAP1 POP PUSH2 0x55B JUMP JUMPDEST POP POP POP SWAP4 SWAP3 POP POP POP JUMP JUMPDEST PUSH0 DUP3 PUSH1 0x1F DUP4 ADD SLT PUSH2 0x5BE JUMPI PUSH2 0x5BD PUSH2 0x307 JUMP JUMPDEST JUMPDEST DUP2 CALLDATALOAD PUSH2 0x5CE DUP5 DUP3 PUSH1 0x20 DUP7 ADD PUSH2 0x524 JUMP JUMPDEST SWAP2 POP POP SWAP3 SWAP2 POP POP JUMP JUMPDEST PUSH0 DUP1 PUSH1 0x40 DUP4 DUP6 SUB SLT ISZERO PUSH2 0x5ED JUMPI PUSH2 0x5EC PUSH2 0x2FF JUMP JUMPDEST JUMPDEST PUSH0 PUSH2 0x5FA DUP6 DUP3 DUP7 ADD PUSH2 0x3E1 JUMP JUMPDEST SWAP3 POP POP PUSH1 0x20 DUP4 ADD CALLDATALOAD PUSH8 0xFFFFFFFFFFFFFFFF DUP2 GT ISZERO PUSH2 0x61B JUMPI PUSH2 0x61A PUSH2 0x303 JUMP JUMPDEST JUMPDEST PUSH2 0x627 DUP6 DUP3 DUP7 ADD PUSH2 0x5AA JUMP JUMPDEST SWAP2 POP POP SWAP3 POP SWAP3 SWAP1 POP JUMP JUMPDEST PUSH0 DUP2 MLOAD SWAP1 POP SWAP2 SWAP1 POP JUMP JUMPDEST PUSH0 DUP3 DUP3 MSTORE PUSH1 0x20 DUP3 ADD SWAP1 POP SWAP3 SWAP2 POP POP JUMP JUMPDEST PUSH0 DUP2 SWAP1 POP PUSH1 0x20 DUP3 ADD SWAP1 POP SWAP2 SWAP1 POP JUMP JUMPDEST PUSH2 0x663 DUP2 PUSH2 0x3C2 JUMP JUMPDEST DUP3 MSTORE POP POP JUMP JUMPDEST PUSH0 PUSH2 0x674 DUP4 DUP4 PUSH2 0x65A JUMP JUMPDEST PUSH1 0x20 DUP4 ADD SWAP1 POP SWAP3 SWAP2 POP POP JUMP JUMPDEST PUSH0 PUSH1 0x20 DUP3 ADD SWAP1 POP SWAP2 SWAP1 POP JUMP JUMPDEST PUSH0 PUSH2 0x696 DUP3 PUSH2 0x631 JUMP JUMPDEST PUSH2 0x6A0 DUP2 DUP6 PUSH2 0x63B JUMP JUMPDEST SWAP4 POP PUSH2 0x6AB DUP4 PUSH2 0x64B JUMP JUMPDEST DUP1 PUSH0 JUMPDEST DUP4 DUP2 LT ISZERO PUSH2 0x6DB JUMPI DUP2 MLOAD PUSH2 0x6C2 DUP9 DUP3 PUSH2 0x669 JUMP JUMPDEST SWAP8 POP PUSH2 0x6CD DUP4 PUSH2 0x680 JUMP JUMPDEST SWAP3 POP POP PUSH1 0x1 DUP2 ADD SWAP1 POP PUSH2 0x6AE JUMP JUMPDEST POP DUP6 SWAP4 POP POP POP POP SWAP3 SWAP2 POP POP JUMP JUMPDEST PUSH0 PUSH1 0x20 DUP3 ADD SWAP1 POP DUP2 DUP2 SUB PUSH0 DUP4 ADD MSTORE PUSH2 0x700 DUP2 DUP5 PUSH2 0x68C JUMP JUMPDEST SWAP1 POP SWAP3 SWAP2 POP POP JUMP JUMPDEST PUSH32 0x4E487B7100000000000000000000000000000000000000000000000000000000 PUSH0 MSTORE PUSH1 0x32 PUSH1 0x4 MSTORE PUSH1 0x24 PUSH0 REVERT JUMPDEST PUSH32 0x4E487B7100000000000000000000000000000000000000000000000000000000 PUSH0 MSTORE PUSH1 0x11 PUSH1 0x4 MSTORE PUSH1 0x24 PUSH0 REVERT JUMPDEST PUSH0 PUSH2 0x76C DUP3 PUSH2 0x3C2 JUMP JUMPDEST SWAP2 POP PUSH2 0x777 DUP4 PUSH2 0x3C2 JUMP JUMPDEST SWAP3 POP DUP3 DUP3 ADD SWAP1 POP DUP1 DUP3 GT ISZERO PUSH2 0x78F JUMPI PUSH2 0x78E PUSH2 0x735 JUMP JUMPDEST JUMPDEST SWAP3 SWAP2 POP POP JUMP JUMPDEST PUSH0 PUSH2 0x79F DUP3 PUSH2 0x3C2 JUMP JUMPDEST SWAP2 POP PUSH2 0x7AA DUP4 PUSH2 0x3C2 JUMP JUMPDEST SWAP3 POP DUP3 DUP3 SUB SWAP1 POP DUP2 DUP2 GT ISZERO PUSH2 0x7C2 JUMPI PUSH2 0x7C1 PUSH2 0x735 JUMP JUMPDEST JUMPDEST SWAP3 SWAP2 POP POP JUMP JUMPDEST PUSH0 PUSH2 0x7D2 DUP3 PUSH2 0x3C2 JUMP JUMPDEST SWAP2 POP PUSH32 0xFFFFFFFFFFFFFFFFFFFFFFFFFFFFFFFFFFFFFFFFFFFFFFFFFFFFFFFFFFFFFFFF DUP3 SUB PUSH2 0x804 JUMPI PUSH2 0x803 PUSH2 0x735 JUMP JUMPDEST JUMPDEST PUSH1 0x1 DUP3 ADD SWAP1 POP SWAP2 SWAP1 POP JUMP JUMPDEST PUSH0 PUSH2 0x819 DUP3 PUSH2 0x3C2 JUMP JUMPDEST SWAP2 POP PUSH2 0x824 DUP4 PUSH2 0x3C2 JUMP JUMPDEST SWAP3 POP DUP3 DUP3 MUL PUSH2 0x832 DUP2 PUSH2 0x3C2 JUMP JUMPDEST SWAP2 POP DUP3 DUP3 DIV DUP5 EQ DUP4 ISZERO OR PUSH2 0x849 JUMPI PUSH2 0x848 PUSH2 0x735 JUMP JUMPDEST JUMPDEST POP SWAP3 SWAP2 POP POP JUMP JUMPDEST PUSH32 0x4E487B7100000000000000000000000000000000000000000000000000000000 PUSH0 MSTORE PUSH1 0x12 PUSH1 0x4 MSTORE PUSH1 0x24 PUSH0 REVERT JUMPDEST PUSH0 PUSH2 0x887 DUP3 PUSH2 0x3C2 JUMP JUMPDEST SWAP2 POP PUSH2 0x892 DUP4 PUSH2 0x3C2 JUMP JUMPDEST SWAP3 POP DUP3 PUSH2 0x8A2 JUMPI PUSH2 0x8A1 PUSH2 0x850 JUMP JUMPDEST JUMPDEST DUP3 DUP3 DIV SWAP1 POP SWAP3 SWAP2 POP POP JUMP JUMPDEST PUSH0 PUSH1 0xFF DUP3 AND SWAP1 POP SWAP2 SWAP1 POP JUMP JUMPDEST PUSH0 PUSH2 0x8C3 DUP3 PUSH2 0x8AD JUMP JUMPDEST SWAP2 POP PUSH1 0xFF DUP3 SUB PUSH2 0x8D6 JUMPI PUSH2 0x8D5 PUSH2 0x735 JUMP JUMPDEST JUMPDEST PUSH1 0x1 DUP3 ADD SWAP1 POP SWAP2 SWAP1 POP JUMP INVALID LOG2 PUSH5 0x6970667358 0x22 SLT KECCAK256 RETURNDATACOPY 0xBE SWAP7 DUP16 BALANCE ADDRESS SWAP9 SMOD RETURN ADDRESS CREATE SHR PUSH28 0xCDDDC5C327F3A522AFD9D8169F9C91FD1743BA64736F6C634300081A STOP CALLER "
				},
				"gasEstimates": {
					"creation": {
						"codeDepositCost": "465400",
						"executionCost": "497",
						"totalCost": "465897"
					},
					"external": {
						"distributeRespect(uint256,uint256[][])": "infinite",
						"getSumOfDistribution(uint256[])": "infinite"
					},
					"internal": {
						"fib(uint8)": "infinite"
					}
				},
				"methodIdentifiers": {
					"distributeRespect(uint256,uint256[][])": "e8ff2a40",
					"getSumOfDistribution(uint256[])": "3cda0f15"
				}
			},
			"storageLayout": {
				"storage": [],
				"types": null
			},
			"userdoc": {
				"kind": "user",
				"methods": {},
				"version": 1
			}
		}
	}
}