{
	"data": {
		"bytecode": {
			"linkReferences": {},
			"object": "60806040526040518060c00160405280601560ff168152602001600d60ff168152602001600860ff168152602001600560ff168152602001600360ff168152602001600260ff1681525060099060066100599291906103bc565b50348015610065575f80fd5b50604051615e98380380615e988339818101604052810190610087919061048f565b3360405180602001604052805f8152506100a6816101f260201b60201c565b505f73ffffffffffffffffffffffffffffffffffffffff168173ffffffffffffffffffffffffffffffffffffffff1603610117575f6040517f1e4fbdf700000000000000000000000000000000000000000000000000000000815260040161010e91906104dc565b60405180910390fd5b6101268161020560201b60201c565b508160045f6101000a81548173ffffffffffffffffffffffffffffffffffffffff021916908373ffffffffffffffffffffffffffffffffffffffff1602179055508060055f6101000a81548173ffffffffffffffffffffffffffffffffffffffff021916908373ffffffffffffffffffffffffffffffffffffffff1602179055506101eb6040518060400160405280601b81526020017f436f6e7472616374206973206265696e67206465706c6f7965642100000000008152506102c860201b60201c565b50506108b1565b8060029081610201919061072f565b5050565b5f60035f9054906101000a900473ffffffffffffffffffffffffffffffffffffffff1690508160035f6101000a81548173ffffffffffffffffffffffffffffffffffffffff021916908373ffffffffffffffffffffffffffffffffffffffff1602179055508173ffffffffffffffffffffffffffffffffffffffff168173ffffffffffffffffffffffffffffffffffffffff167f8be0079c531659141344cd1fd0a4f28419497f9722a3daafe3b4186f6b6457e060405160405180910390a35050565b610364816040516024016102dc9190610864565b6040516020818303038152906040527f41304fac000000000000000000000000000000000000000000000000000000007bffffffffffffffffffffffffffffffffffffffffffffffffffffffff19166020820180517bffffffffffffffffffffffffffffffffffffffffffffffffffffffff838183161783525050505061036760201b60201c565b50565b6103888161038361038b60201b611a53176103aa60201b60201c565b60201c565b50565b5f6a636f6e736f6c652e6c6f6790505f80835160208501845afa505050565b61040c60201b61365d17819050919050565b828054828255905f5260205f209081019282156103fb579160200282015b828111156103fa578251829060ff169055916020019190600101906103da565b5b5090506104089190610416565b5090565b610414610884565b565b5b8082111561042d575f815f905550600101610417565b5090565b5f80fd5b5f73ffffffffffffffffffffffffffffffffffffffff82169050919050565b5f61045e82610435565b9050919050565b61046e81610454565b8114610478575f80fd5b50565b5f8151905061048981610465565b92915050565b5f80604083850312156104a5576104a4610431565b5b5f6104b28582860161047b565b92505060206104c38582860161047b565b9150509250929050565b6104d681610454565b82525050565b5f6020820190506104ef5f8301846104cd565b92915050565b5f81519050919050565b7f4e487b71000000000000000000000000000000000000000000000000000000005f52604160045260245ffd5b7f4e487b71000000000000000000000000000000000000000000000000000000005f52602260045260245ffd5b5f600282049050600182168061057057607f821691505b6020821081036105835761058261052c565b5b50919050565b5f819050815f5260205f209050919050565b5f6020601f8301049050919050565b5f82821b905092915050565b5f600883026105e57fffffffffffffffffffffffffffffffffffffffffffffffffffffffffffffffff826105aa565b6105ef86836105aa565b95508019841693508086168417925050509392505050565b5f819050919050565b5f819050919050565b5f61063361062e61062984610607565b610610565b610607565b9050919050565b5f819050919050565b61064c83610619565b6106606106588261063a565b8484546105b6565b825550505050565b5f90565b610674610668565b61067f818484610643565b505050565b5b818110156106a2576106975f8261066c565b600181019050610685565b5050565b601f8211156106e7576106b881610589565b6106c18461059b565b810160208510156106d0578190505b6106e46106dc8561059b565b830182610684565b50505b505050565b5f82821c905092915050565b5f6107075f19846008026106ec565b1980831691505092915050565b5f61071f83836106f8565b9150826002028217905092915050565b610738826104f5565b67ffffffffffffffff811115610751576107506104ff565b5b61075b8254610559565b6107668282856106a6565b5f60209050601f831160018114610797575f8415610785578287015190505b61078f8582610714565b8655506107f6565b601f1984166107a586610589565b5f5b828110156107cc578489015182556001820191506020850194506020810190506107a7565b868310156107e957848901516107e5601f8916826106f8565b8355505b6001600288020188555050505b505050505050565b5f82825260208201905092915050565b8281835e5f83830152505050565b5f601f19601f8301169050919050565b5f610836826104f5565b61084081856107fe565b935061085081856020860161080e565b6108598161081c565b840191505092915050565b5f6020820190508181035f83015261087c818461082c565b905092915050565b7f4e487b71000000000000000000000000000000000000000000000000000000005f52605160045260245ffd5b6155da806108be5f395ff3fe608060405234801561000f575f80fd5b5060043610610134575f3560e01c80634e1273f4116100b6578063b74ca7131161007a578063b74ca7131461035d578063d60429d014610379578063de04bbd2146103a9578063e985e9c5146103c7578063f242432a146103f7578063f2fde38b1461041357610134565b80634e1273f4146102cd57806365c33697146102fd578063715018a6146103195780638da5cb5b14610323578063a22cb4651461034157610134565b80632b3dffeb116100fd5780632b3dffeb146102025780632eb2c2d61461023257806332a7adb01461024e57806333718ce81461027f578063415b5d7d1461029b57610134565b8062fdd58e1461013857806301ffc9a71461016857806306428f02146101985780630e89341c146101b657806317dd9e73146101e6575b5f80fd5b610152600480360381019061014d919061376b565b61042f565b60405161015f91906137b8565b60405180910390f35b610182600480360381019061017d9190613826565b610484565b60405161018f919061386b565b60405180910390f35b6101a0610565565b6040516101ad91906138df565b60405180910390f35b6101d060048036038101906101cb91906138f8565b61058a565b6040516101dd9190613993565b60405180910390f35b61020060048036038101906101fb91906139b3565b61061c565b005b61021c60048036038101906102179190613a03565b610b0f565b6040516102299190613b1e565b60405180910390f35b61024c60048036038101906102479190613d2e565b610bd4565b005b610268600480360381019061026391906139b3565b610c7b565b604051610276929190613eb0565b60405180910390f35b61029960048036038101906102949190613ee5565b610ee2565b005b6102b560048036038101906102b091906139b3565b61115d565b6040516102c493929190613f23565b60405180910390f35b6102e760048036038101906102e29190614026565b61124f565b6040516102f49190613b1e565b60405180910390f35b610317600480360381019061031291906138f8565b611356565b005b6103216113e8565b005b61032b6113fb565b60405161033891906140ab565b60405180910390f35b61035b600480360381019061035691906140ee565b611423565b005b6103776004803603810190610372919061412c565b611439565b005b610393600480360381019061038e91906138f8565b611858565b6040516103a0919061386b565b60405180910390f35b6103b1611875565b6040516103be91906141cc565b60405180910390f35b6103e160048036038101906103dc91906141e5565b61189a565b6040516103ee919061386b565b60405180910390f35b610411600480360381019061040c9190614223565b611928565b005b61042d600480360381019061042891906142b6565b6119cf565b005b5f805f8381526020019081526020015f205f8473ffffffffffffffffffffffffffffffffffffffff1673ffffffffffffffffffffffffffffffffffffffff1681526020019081526020015f2054905092915050565b5f7fd9b67a26000000000000000000000000000000000000000000000000000000007bffffffffffffffffffffffffffffffffffffffffffffffffffffffff1916827bffffffffffffffffffffffffffffffffffffffffffffffffffffffff1916148061054e57507f0e89341c000000000000000000000000000000000000000000000000000000007bffffffffffffffffffffffffffffffffffffffffffffffffffffffff1916827bffffffffffffffffffffffffffffffffffffffffffffffffffffffff1916145b8061055e575061055d82611a72565b5b9050919050565b60055f9054906101000a900473ffffffffffffffffffffffffffffffffffffffff1681565b6060600280546105999061430e565b80601f01602080910402602001604051908101604052809291908181526020018280546105c59061430e565b80156106105780601f106105e757610100808354040283529160200191610610565b820191905f5260205f20905b8154815290600101906020018083116105f357829003601f168201915b50505050509050919050565b61064060405180606001604052806039815260200161556c60399139848484611adb565b5f8060055f9054906101000a900473ffffffffffffffffffffffffffffffffffffffff1673ffffffffffffffffffffffffffffffffffffffff166399664245866040518263ffffffff1660e01b815260040161069c91906137b8565b5f60405180830381865afa1580156106b6573d5f803e3d5ffd5b505050506040513d5f823e3d601f19601f820116820180604052508101906106de9190614427565b5096509650505050505061071d60405180606001604052806030815260200161553c60309139828460018111156107185761071761452c565b5b611b7d565b5f60045f9054906101000a900473ffffffffffffffffffffffffffffffffffffffff1673ffffffffffffffffffffffffffffffffffffffff16636c331bd387876040518363ffffffff1660e01b815260040161077a929190614559565b5f60405180830381865afa158015610794573d5f803e3d5ffd5b505050506040513d5f823e3d601f19601f820116820180604052508101906107bc9190614750565b905080518410610801576040517f08c379a00000000000000000000000000000000000000000000000000000000081526004016107f8906147e1565b60405180910390fd5b5f818581518110610815576108146147ff565b5b602002602001015190505f815f01515111610865576040517f08c379a000000000000000000000000000000000000000000000000000000000815260040161085c90614876565b60405180910390fd5b6108866040518060600160405280602a81526020016154c7602a9139611c1c565b5f61089388888885611cb5565b90506108d46040518060400160405280601981526020017f416c6c206d656d62657273207375626d69747465643a2025730000000000000081525082611d7e565b80610914576040517f08c379a000000000000000000000000000000000000000000000000000000000815260040161090b90614904565b60405180910390fd5b5f825f01515190505f8167ffffffffffffffff81111561093757610936613b42565b5b6040519080825280602002602001820160405280156109655781602001602082028036833780820191505090505b5090505f5b828110156109fc5761097f8b8b8b8489611e1a565b828281518110610992576109916147ff565b5b6020026020010181815250507ff6ff2ad7fc16bda2a7d32462729431bce3ebe9b75cc7c9b35a0adfbf7e7bb9e68282815181106109d2576109d16147ff565b5b60200260200101516040516109e7919061496c565b60405180910390a1808060010191505061096a565b505f610a0782611fee565b905060405180606001604052808281526020018381526020014281525060075f8d81526020019081526020015f205f8c81526020019081526020015f205f8b81526020019081526020015f205f820151815f019080519060200190610a6d929190613667565b506020820151816001019080519060200190610a8a929190613667565b50604082015181600201559050508a7f0b7561a7dcbdf981c91bcbdaef28458903367918c2b25fe6c1a2485997a918208b8b84604051610acc93929190614998565b60405180910390a2610af66040518060600160405280602381526020016154a4602391398a61225e565b610b028b8b8b886122fa565b5050505050505050505050565b606060065f8681526020019081526020015f205f8581526020019081526020015f205f8481526020019081526020015f205f8373ffffffffffffffffffffffffffffffffffffffff1673ffffffffffffffffffffffffffffffffffffffff1681526020019081526020015f205f01805480602002602001604051908101604052809291908181526020018280548015610bc557602002820191905f5260205f20905b815481526020019060010190808311610bb1575b50505050509050949350505050565b5f610bdd61264f565b90508073ffffffffffffffffffffffffffffffffffffffff168673ffffffffffffffffffffffffffffffffffffffff1614158015610c225750610c20868261189a565b155b15610c665780866040517fe237d922000000000000000000000000000000000000000000000000000000008152600401610c5d9291906149d4565b60405180910390fd5b610c738686868686612656565b505050505050565b6060805f60045f9054906101000a900473ffffffffffffffffffffffffffffffffffffffff1673ffffffffffffffffffffffffffffffffffffffff16636c331bd387876040518363ffffffff1660e01b8152600401610cdb929190614559565b5f60405180830381865afa158015610cf5573d5f803e3d5ffd5b505050506040513d5f823e3d601f19601f82011682018060405250810190610d1d9190614750565b905080518410610d62576040517f08c379a0000000000000000000000000000000000000000000000000000000008152600401610d59906147e1565b60405180910390fd5b5f818581518110610d7657610d756147ff565b5b602002602001015190505f815f01515190505f8167ffffffffffffffff811115610da357610da2613b42565b5b604051908082528060200260200182016040528015610dd15781602001602082028036833780820191505090505b5090505f8267ffffffffffffffff811115610def57610dee613b42565b5b604051908082528060200260200182016040528015610e1d5781602001602082028036833780820191505090505b5090505f5b83811015610ece57845f01518181518110610e4057610e3f6147ff565b5b6020026020010151838281518110610e5b57610e5a6147ff565b5b602002602001019073ffffffffffffffffffffffffffffffffffffffff16908173ffffffffffffffffffffffffffffffffffffffff1681525050610ea28b8b8b8489611e1a565b828281518110610eb557610eb46147ff565b5b6020026020010181815250508080600101915050610e22565b508181965096505050505050935093915050565b610f056040518060600160405280603f8152602001615465603f91398383611b7d565b5f60045f9054906101000a900473ffffffffffffffffffffffffffffffffffffffff1673ffffffffffffffffffffffffffffffffffffffff16636c331bd384846040518363ffffffff1660e01b8152600401610f62929190614559565b5f60405180830381865afa158015610f7c573d5f803e3d5ffd5b505050506040513d5f823e3d601f19601f82011682018060405250810190610fa49190614750565b9050610fe66040518060400160405280601481526020017f4e756d626572206f662067726f7570733a202573000000000000000000000000815250825161225e565b5f5b81518110156111575761101360405180606001604052806022815260200161540a602291398261225e565b3073ffffffffffffffffffffffffffffffffffffffff166317dd9e738585846040518463ffffffff1660e01b8152600401611050939291906149fb565b5f604051808303815f87803b158015611067575f80fd5b505af1925050508015611078575060015b61112757611084614a3c565b806308c379a0036110cc5750611098614a5b565b806110a357506110ce565b6110c66040518060600160405280602a81526020016154f1602a9139838361274a565b50611122565b505b3d805f81146110f8576040519150601f19603f3d011682016040523d82523d5f602084013e6110fd565b606091505b5061112060405180606001604052806039815260200161542c603991398361225e565b505b61114a565b61114960405180606001604052806021815260200161551b602191398261225e565b5b8080600101915050610fe8565b50505050565b6060805f8060075f8881526020019081526020015f205f8781526020019081526020015f205f8681526020019081526020015f209050805f01816001018260020154828054806020026020016040519081016040528092919081815260200182805480156111e857602002820191905f5260205f20905b8154815260200190600101908083116111d4575b505050505092508180548060200260200160405190810160405280929190818152602001828054801561123857602002820191905f5260205f20905b815481526020019060010190808311611224575b505050505091509350935093505093509350939050565b6060815183511461129b57815183516040517f5b059991000000000000000000000000000000000000000000000000000000008152600401611292929190614559565b60405180910390fd5b5f835167ffffffffffffffff8111156112b7576112b6613b42565b5b6040519080825280602002602001820160405280156112e55781602001602082028036833780820191505090505b5090505f5b845181101561134b5761132161130982876127e990919063ffffffff16565b61131c83876127fc90919063ffffffff16565b61042f565b828281518110611334576113336147ff565b5b6020026020010181815250508060010190506112ea565b508091505092915050565b61135e61280f565b60085f8281526020019081526020015f205f9054906101000a900460ff16156113bc576040517f08c379a00000000000000000000000000000000000000000000000000000000081526004016113b390614b34565b60405180910390fd5b600160085f8381526020019081526020015f205f6101000a81548160ff02191690831515021790555050565b6113f061280f565b6113f95f612896565b565b5f60035f9054906101000a900473ffffffffffffffffffffffffffffffffffffffff16905090565b61143561142e61264f565b8383612959565b5050565b5f8060055f9054906101000a900473ffffffffffffffffffffffffffffffffffffffff1673ffffffffffffffffffffffffffffffffffffffff166399664245876040518263ffffffff1660e01b815260040161149591906137b8565b5f60405180830381865afa1580156114af573d5f803e3d5ffd5b505050506040513d5f823e3d601f19601f820116820180604052508101906114d79190614427565b50965096505050505050808514611523576040517f08c379a000000000000000000000000000000000000000000000000000000000815260040161151a90614bc2565b60405180910390fd5b5f60045f9054906101000a900473ffffffffffffffffffffffffffffffffffffffff1673ffffffffffffffffffffffffffffffffffffffff16636c331bd388886040518363ffffffff1660e01b8152600401611580929190614559565b5f60405180830381865afa15801561159a573d5f803e3d5ffd5b505050506040513d5f823e3d601f19601f820116820180604052508101906115c29190614750565b905080518510611607576040517f08c379a00000000000000000000000000000000000000000000000000000000081526004016115fe906147e1565b60405180910390fd5b5f81868151811061161b5761161a6147ff565b5b60200260200101519050805f01515185511461166c576040517f08c379a000000000000000000000000000000000000000000000000000000000815260040161166390614c50565b60405180910390fd5b6116768133612ac2565b6116b5576040517f08c379a00000000000000000000000000000000000000000000000000000000081526004016116ac90614cb8565b60405180910390fd5b5f60065f8a81526020019081526020015f205f8981526020019081526020015f205f8881526020019081526020015f205f3373ffffffffffffffffffffffffffffffffffffffff1673ffffffffffffffffffffffffffffffffffffffff1681526020019081526020015f205f018054905014611766576040517f08c379a000000000000000000000000000000000000000000000000000000000815260040161175d90614d20565b60405180910390fd5b60405180602001604052808681525060065f8a81526020019081526020015f205f8981526020019081526020015f205f8881526020019081526020015f205f3373ffffffffffffffffffffffffffffffffffffffff1673ffffffffffffffffffffffffffffffffffffffff1681526020019081526020015f205f820151815f0190805190602001906117f9929190613667565b509050503373ffffffffffffffffffffffffffffffffffffffff16887fe2d0f4a25c2b0cc7ccda020bcd4293dceffb51708b88b9c58ef71a0ab96b5e168989604051611846929190614559565b60405180910390a35050505050505050565b6008602052805f5260405f205f915054906101000a900460ff1681565b60045f9054906101000a900473ffffffffffffffffffffffffffffffffffffffff1681565b5f60015f8473ffffffffffffffffffffffffffffffffffffffff1673ffffffffffffffffffffffffffffffffffffffff1681526020019081526020015f205f8373ffffffffffffffffffffffffffffffffffffffff1673ffffffffffffffffffffffffffffffffffffffff1681526020019081526020015f205f9054906101000a900460ff16905092915050565b5f61193161264f565b90508073ffffffffffffffffffffffffffffffffffffffff168673ffffffffffffffffffffffffffffffffffffffff16141580156119765750611974868261189a565b155b156119ba5780866040517fe237d9220000000000000000000000000000000000000000000000000000000081526004016119b19291906149d4565b60405180910390fd5b6119c78686868686612b46565b505050505050565b6119d761280f565b5f73ffffffffffffffffffffffffffffffffffffffff168173ffffffffffffffffffffffffffffffffffffffff1603611a47575f6040517f1e4fbdf7000000000000000000000000000000000000000000000000000000008152600401611a3e91906140ab565b60405180910390fd5b611a5081612896565b50565b5f6a636f6e736f6c652e6c6f6790505f80835160208501845afa505050565b5f7f01ffc9a7000000000000000000000000000000000000000000000000000000007bffffffffffffffffffffffffffffffffffffffffffffffffffffffff1916827bffffffffffffffffffffffffffffffffffffffffffffffffffffffff1916149050919050565b611b7784848484604051602401611af59493929190614d3e565b6040516020818303038152906040527fa7a87853000000000000000000000000000000000000000000000000000000007bffffffffffffffffffffffffffffffffffffffffffffffffffffffff19166020820180517bffffffffffffffffffffffffffffffffffffffffffffffffffffffff8381831617835250505050612c4c565b50505050565b611c17838383604051602401611b9593929190614d88565b6040516020818303038152906040527fca47c4eb000000000000000000000000000000000000000000000000000000007bffffffffffffffffffffffffffffffffffffffffffffffffffffffff19166020820180517bffffffffffffffffffffffffffffffffffffffffffffffffffffffff8381831617835250505050612c4c565b505050565b611cb281604051602401611c309190613993565b6040516020818303038152906040527f41304fac000000000000000000000000000000000000000000000000000000007bffffffffffffffffffffffffffffffffffffffffffffffffffffffff19166020820180517bffffffffffffffffffffffffffffffffffffffffffffffffffffffff8381831617835250505050612c4c565b50565b5f805f90505b825f015151811015611d70575f60065f8881526020019081526020015f205f8781526020019081526020015f205f8681526020019081526020015f205f855f01518481518110611d0e57611d0d6147ff565b5b602002602001015173ffffffffffffffffffffffffffffffffffffffff1673ffffffffffffffffffffffffffffffffffffffff1681526020019081526020015f205f018054905003611d63575f915050611d76565b8080600101915050611cbb565b50600190505b949350505050565b611e168282604051602401611d94929190614dc4565b6040516020818303038152906040527fc3b55635000000000000000000000000000000000000000000000000000000007bffffffffffffffffffffffffffffffffffffffffffffffffffffffff19166020820180517bffffffffffffffffffffffffffffffffffffffffffffffffffffffff8381831617835250505050612c4c565b5050565b5f80825f01515167ffffffffffffffff811115611e3a57611e39613b42565b5b604051908082528060200260200182016040528015611e685781602001602082028036833780820191505090505b5090505f5b835f015151811015611f495760065f8981526020019081526020015f205f8881526020019081526020015f205f8781526020019081526020015f205f855f01518381518110611ebf57611ebe6147ff565b5b602002602001015173ffffffffffffffffffffffffffffffffffffffff1673ffffffffffffffffffffffffffffffffffffffff1681526020019081526020015f205f018581548110611f1457611f136147ff565b5b905f5260205f200154828281518110611f3057611f2f6147ff565b5b6020026020010181815250508080600101915050611e6d565b505f611f5482612c66565b90505f611f6083612cd4565b90505f611f70865f015151612d7a565b90505f808203611f8a57670de0b6b3a76400009050611fbf565b81670de0b6b3a764000084611f9f9190614e1f565b611fa99190614e8d565b670de0b6b3a7640000611fbc9190614ebd565b90505b670de0b6b3a76400008185611fd49190614e1f565b611fde9190614e8d565b9550505050505095945050505050565b60605f825167ffffffffffffffff81111561200c5761200b613b42565b5b60405190808252806020026020018201604052801561203a5781602001602082028036833780820191505090505b5090505f5b8151811015612075578082828151811061205c5761205b6147ff565b5b602002602001018181525050808060010191505061203f565b505f5b600184516120869190614ebd565b8110156121a7575f60018261209b9190614ef0565b90505b845181101561219957848382815181106120bb576120ba6147ff565b5b6020026020010151815181106120d4576120d36147ff565b5b6020026020010151858484815181106120f0576120ef6147ff565b5b602002602001015181518110612109576121086147ff565b5b6020026020010151101561218c5782818151811061212a576121296147ff565b5b6020026020010151838381518110612145576121446147ff565b5b60200260200101518484815181106121605761215f6147ff565b5b6020026020010185848151811061217a576121796147ff565b5b60200260200101828152508281525050505b808060010191505061209e565b508080600101915050612078565b505f835167ffffffffffffffff8111156121c4576121c3613b42565b5b6040519080825280602002602001820160405280156121f25781602001602082028036833780820191505090505b5090505f5b81518110156122535780855161220d9190614ebd565b82848381518110612221576122206147ff565b5b60200260200101518151811061223a576122396147ff565b5b60200260200101818152505080806001019150506121f7565b508092505050919050565b6122f68282604051602401612274929190614f23565b6040516020818303038152906040527fb60e72cc000000000000000000000000000000000000000000000000000000007bffffffffffffffffffffffffffffffffffffffffffffffffffffffff19166020820180517bffffffffffffffffffffffffffffffffffffffffffffffffffffffff8381831617835250505050612c4c565b5050565b5f60075f8681526020019081526020015f205f8581526020019081526020015f205f8481526020019081526020015f205f0180548060200260200160405190810160405280929190818152602001828054801561237457602002820191905f5260205f20905b815481526020019060010190808311612360575b505050505090505f825f0151519050808251146123c6576040517f08c379a00000000000000000000000000000000000000000000000000000000081526004016123bd90614f9b565b60405180910390fd5b5f5b81811080156123db575060098054905081105b15612646575f8382815181106123f4576123f36147ff565b5b6020026020010151118015612423575081838281518110612418576124176147ff565b5b602002602001015111155b612462576040517f08c379a000000000000000000000000000000000000000000000000000000000815260040161245990615003565b60405180910390fd5b5f845f0151600185848151811061247c5761247b6147ff565b5b602002602001015161248e9190614ebd565b8151811061249f5761249e6147ff565b5b602002602001015190505f600983815481106124be576124bd6147ff565b5b905f5260205f20015490505f73ffffffffffffffffffffffffffffffffffffffff168273ffffffffffffffffffffffffffffffffffffffff1603612537576040517f08c379a000000000000000000000000000000000000000000000000000000000815260040161252e9061506b565b60405180910390fd5b612551828a8360405180602001604052805f815250612df3565b60045f9054906101000a900473ffffffffffffffffffffffffffffffffffffffff1673ffffffffffffffffffffffffffffffffffffffff16639807f9e88a848b856040518563ffffffff1660e01b81526004016125b19493929190615089565b5f604051808303815f87803b1580156125c8575f80fd5b505af11580156125da573d5f803e3d5ffd5b505050508173ffffffffffffffffffffffffffffffffffffffff16897f76a56bec00f93abad57f18250ecc099ee61d7e60e3cf6ae13d80badbd8e2512a8a8a85604051612629939291906149fb565b60405180910390a35050808061263e906150cc565b9150506123c8565b50505050505050565b5f33905090565b5f73ffffffffffffffffffffffffffffffffffffffff168473ffffffffffffffffffffffffffffffffffffffff16036126c6575f6040517f57f447ce0000000000000000000000000000000000000000000000000000000081526004016126bd91906140ab565b60405180910390fd5b5f73ffffffffffffffffffffffffffffffffffffffff168573ffffffffffffffffffffffffffffffffffffffff1603612736575f6040517f01a8351400000000000000000000000000000000000000000000000000000000815260040161272d91906140ab565b60405180910390fd5b6127438585858585612e88565b5050505050565b6127e483838360405160240161276293929190615113565b6040516020818303038152906040527f5970e089000000000000000000000000000000000000000000000000000000007bffffffffffffffffffffffffffffffffffffffffffffffffffffffff19166020820180517bffffffffffffffffffffffffffffffffffffffffffffffffffffffff8381831617835250505050612c4c565b505050565b5f60208202602084010151905092915050565b5f60208202602084010151905092915050565b61281761264f565b73ffffffffffffffffffffffffffffffffffffffff166128356113fb565b73ffffffffffffffffffffffffffffffffffffffff16146128945761285861264f565b6040517f118cdaa700000000000000000000000000000000000000000000000000000000815260040161288b91906140ab565b60405180910390fd5b565b5f60035f9054906101000a900473ffffffffffffffffffffffffffffffffffffffff1690508160035f6101000a81548173ffffffffffffffffffffffffffffffffffffffff021916908373ffffffffffffffffffffffffffffffffffffffff1602179055508173ffffffffffffffffffffffffffffffffffffffff168173ffffffffffffffffffffffffffffffffffffffff167f8be0079c531659141344cd1fd0a4f28419497f9722a3daafe3b4186f6b6457e060405160405180910390a35050565b5f73ffffffffffffffffffffffffffffffffffffffff168273ffffffffffffffffffffffffffffffffffffffff16036129c9575f6040517fced3e1000000000000000000000000000000000000000000000000000000000081526004016129c091906140ab565b60405180910390fd5b8060015f8573ffffffffffffffffffffffffffffffffffffffff1673ffffffffffffffffffffffffffffffffffffffff1681526020019081526020015f205f8473ffffffffffffffffffffffffffffffffffffffff1673ffffffffffffffffffffffffffffffffffffffff1681526020019081526020015f205f6101000a81548160ff0219169083151502179055508173ffffffffffffffffffffffffffffffffffffffff168373ffffffffffffffffffffffffffffffffffffffff167f17307eab39ab6107e8899845ad3d59bd9653f200f220920489ca2b5937696c3183604051612ab5919061386b565b60405180910390a3505050565b5f805f90505b835f015151811015612b3b578273ffffffffffffffffffffffffffffffffffffffff16845f01518281518110612b0157612b006147ff565b5b602002602001015173ffffffffffffffffffffffffffffffffffffffff1603612b2e576001915050612b40565b8080600101915050612ac8565b505f90505b92915050565b5f73ffffffffffffffffffffffffffffffffffffffff168473ffffffffffffffffffffffffffffffffffffffff1603612bb6575f6040517f57f447ce000000000000000000000000000000000000000000000000000000008152600401612bad91906140ab565b60405180910390fd5b5f73ffffffffffffffffffffffffffffffffffffffff168573ffffffffffffffffffffffffffffffffffffffff1603612c26575f6040517f01a83514000000000000000000000000000000000000000000000000000000008152600401612c1d91906140ab565b60405180910390fd5b5f80612c328585612f34565b91509150612c438787848487612e88565b50505050505050565b612c6381612c5b611a53612f64565b63ffffffff16565b50565b5f805f90505f5b8351811015612cab57838181518110612c8957612c886147ff565b5b602002602001015182612c9c9190614ef0565b91508080600101915050612c6d565b508251670de0b6b3a764000082612cc29190614e1f565b612ccc9190614e8d565b915050919050565b5f80612cdf83612c66565b90505f805b8451811015612d63575f83670de0b6b3a7640000878481518110612d0b57612d0a6147ff565b5b6020026020010151612d1d9190614e1f565b612d27919061515f565b9050670de0b6b3a76400008182612d3e919061519f565b612d489190614e8d565b83612d539190614ef0565b9250508080600101915050612ce4565b50835181612d719190614e8d565b92505050919050565b5f805f90505f600190505b83811015612dc7576002670de0b6b3a764000082612da39190614e1f565b612dad9190614e8d565b82612db89190614ef0565b91508080600101915050612d85565b50600183612dd59190614ebd565b8184612de19190614e1f565b612deb9190614e8d565b915050919050565b5f73ffffffffffffffffffffffffffffffffffffffff168473ffffffffffffffffffffffffffffffffffffffff1603612e63575f6040517f57f447ce000000000000000000000000000000000000000000000000000000008152600401612e5a91906140ab565b60405180910390fd5b5f80612e6f8585612f34565b91509150612e805f87848487612e88565b505050505050565b612e9485858585612f6f565b5f73ffffffffffffffffffffffffffffffffffffffff168473ffffffffffffffffffffffffffffffffffffffff1614612f2d575f612ed061264f565b90506001845103612f1c575f612eef5f866127fc90919063ffffffff16565b90505f612f055f866127fc90919063ffffffff16565b9050612f158389898585896132ff565b5050612f2b565b612f2a8187878787876134ae565b5b505b5050505050565b60608060405191506001825283602083015260408201905060018152826020820152604081016040529250929050565b61365d819050919050565b8051825114612fb957815181516040517f5b059991000000000000000000000000000000000000000000000000000000008152600401612fb0929190614559565b60405180910390fd5b5f612fc261264f565b90505f5b83518110156131be575f612fe382866127fc90919063ffffffff16565b90505f612ff983866127fc90919063ffffffff16565b90505f73ffffffffffffffffffffffffffffffffffffffff168873ffffffffffffffffffffffffffffffffffffffff161461311c575f805f8481526020019081526020015f205f8a73ffffffffffffffffffffffffffffffffffffffff1673ffffffffffffffffffffffffffffffffffffffff1681526020019081526020015f20549050818110156130c857888183856040517f03dee4c50000000000000000000000000000000000000000000000000000000081526004016130bf9493929190615215565b60405180910390fd5b8181035f808581526020019081526020015f205f8b73ffffffffffffffffffffffffffffffffffffffff1673ffffffffffffffffffffffffffffffffffffffff1681526020019081526020015f2081905550505b5f73ffffffffffffffffffffffffffffffffffffffff168773ffffffffffffffffffffffffffffffffffffffff16146131b157805f808481526020019081526020015f205f8973ffffffffffffffffffffffffffffffffffffffff1673ffffffffffffffffffffffffffffffffffffffff1681526020019081526020015f205f8282546131a99190614ef0565b925050819055505b5050806001019050612fc6565b506001835103613279575f6131dc5f856127fc90919063ffffffff16565b90505f6131f25f856127fc90919063ffffffff16565b90508573ffffffffffffffffffffffffffffffffffffffff168773ffffffffffffffffffffffffffffffffffffffff168473ffffffffffffffffffffffffffffffffffffffff167fc3d58168c5ae7397731d063d5bbf3d657854427343f4c083240f7aacaa2d0f62858560405161326a929190614559565b60405180910390a450506132f8565b8373ffffffffffffffffffffffffffffffffffffffff168573ffffffffffffffffffffffffffffffffffffffff168273ffffffffffffffffffffffffffffffffffffffff167f4a39dc06d4c0dbc64b70af90fd698a233a518aa5d07e595d983b8c0526c8f7fb86866040516132ef929190615258565b60405180910390a45b5050505050565b5f8473ffffffffffffffffffffffffffffffffffffffff163b11156134a6578373ffffffffffffffffffffffffffffffffffffffff1663f23a6e6187878686866040518663ffffffff1660e01b815260040161335f9594939291906152df565b6020604051808303815f875af192505050801561339a57506040513d601f19601f82011682018060405250810190613397919061534b565b60015b61341b573d805f81146133c8576040519150601f19603f3d011682016040523d82523d5f602084013e6133cd565b606091505b505f81510361341357846040517f57f447ce00000000000000000000000000000000000000000000000000000000815260040161340a91906140ab565b60405180910390fd5b805181602001fd5b63f23a6e6160e01b7bffffffffffffffffffffffffffffffffffffffffffffffffffffffff1916817bffffffffffffffffffffffffffffffffffffffffffffffffffffffff1916146134a457846040517f57f447ce00000000000000000000000000000000000000000000000000000000815260040161349b91906140ab565b60405180910390fd5b505b505050505050565b5f8473ffffffffffffffffffffffffffffffffffffffff163b1115613655578373ffffffffffffffffffffffffffffffffffffffff1663bc197c8187878686866040518663ffffffff1660e01b815260040161350e959493929190615376565b6020604051808303815f875af192505050801561354957506040513d601f19601f82011682018060405250810190613546919061534b565b60015b6135ca573d805f8114613577576040519150601f19603f3d011682016040523d82523d5f602084013e61357c565b606091505b505f8151036135c257846040517f57f447ce0000000000000000000000000000000000000000000000000000000081526004016135b991906140ab565b60405180910390fd5b805181602001fd5b63bc197c8160e01b7bffffffffffffffffffffffffffffffffffffffffffffffffffffffff1916817bffffffffffffffffffffffffffffffffffffffffffffffffffffffff19161461365357846040517f57f447ce00000000000000000000000000000000000000000000000000000000815260040161364a91906140ab565b60405180910390fd5b505b505050505050565b6136656153dc565b565b828054828255905f5260205f209081019282156136a1579160200282015b828111156136a0578251825591602001919060010190613685565b5b5090506136ae91906136b2565b5090565b5b808211156136c9575f815f9055506001016136b3565b5090565b5f604051905090565b5f80fd5b5f80fd5b5f73ffffffffffffffffffffffffffffffffffffffff82169050919050565b5f613707826136de565b9050919050565b613717816136fd565b8114613721575f80fd5b50565b5f813590506137328161370e565b92915050565b5f819050919050565b61374a81613738565b8114613754575f80fd5b50565b5f8135905061376581613741565b92915050565b5f8060408385031215613781576137806136d6565b5b5f61378e85828601613724565b925050602061379f85828601613757565b9150509250929050565b6137b281613738565b82525050565b5f6020820190506137cb5f8301846137a9565b92915050565b5f7fffffffff0000000000000000000000000000000000000000000000000000000082169050919050565b613805816137d1565b811461380f575f80fd5b50565b5f81359050613820816137fc565b92915050565b5f6020828403121561383b5761383a6136d6565b5b5f61384884828501613812565b91505092915050565b5f8115159050919050565b61386581613851565b82525050565b5f60208201905061387e5f83018461385c565b92915050565b5f819050919050565b5f6138a76138a261389d846136de565b613884565b6136de565b9050919050565b5f6138b88261388d565b9050919050565b5f6138c9826138ae565b9050919050565b6138d9816138bf565b82525050565b5f6020820190506138f25f8301846138d0565b92915050565b5f6020828403121561390d5761390c6136d6565b5b5f61391a84828501613757565b91505092915050565b5f81519050919050565b5f82825260208201905092915050565b8281835e5f83830152505050565b5f601f19601f8301169050919050565b5f61396582613923565b61396f818561392d565b935061397f81856020860161393d565b6139888161394b565b840191505092915050565b5f6020820190508181035f8301526139ab818461395b565b905092915050565b5f805f606084860312156139ca576139c96136d6565b5b5f6139d786828701613757565b93505060206139e886828701613757565b92505060406139f986828701613757565b9150509250925092565b5f805f8060808587031215613a1b57613a1a6136d6565b5b5f613a2887828801613757565b9450506020613a3987828801613757565b9350506040613a4a87828801613757565b9250506060613a5b87828801613724565b91505092959194509250565b5f81519050919050565b5f82825260208201905092915050565b5f819050602082019050919050565b613a9981613738565b82525050565b5f613aaa8383613a90565b60208301905092915050565b5f602082019050919050565b5f613acc82613a67565b613ad68185613a71565b9350613ae183613a81565b805f5b83811015613b11578151613af88882613a9f565b9750613b0383613ab6565b925050600181019050613ae4565b5085935050505092915050565b5f6020820190508181035f830152613b368184613ac2565b905092915050565b5f80fd5b7f4e487b71000000000000000000000000000000000000000000000000000000005f52604160045260245ffd5b613b788261394b565b810181811067ffffffffffffffff82111715613b9757613b96613b42565b5b80604052505050565b5f613ba96136cd565b9050613bb58282613b6f565b919050565b5f67ffffffffffffffff821115613bd457613bd3613b42565b5b602082029050602081019050919050565b5f80fd5b5f613bfb613bf684613bba565b613ba0565b90508083825260208201905060208402830185811115613c1e57613c1d613be5565b5b835b81811015613c475780613c338882613757565b845260208401935050602081019050613c20565b5050509392505050565b5f82601f830112613c6557613c64613b3e565b5b8135613c75848260208601613be9565b91505092915050565b5f80fd5b5f67ffffffffffffffff821115613c9c57613c9b613b42565b5b613ca58261394b565b9050602081019050919050565b828183375f83830152505050565b5f613cd2613ccd84613c82565b613ba0565b905082815260208101848484011115613cee57613ced613c7e565b5b613cf9848285613cb2565b509392505050565b5f82601f830112613d1557613d14613b3e565b5b8135613d25848260208601613cc0565b91505092915050565b5f805f805f60a08688031215613d4757613d466136d6565b5b5f613d5488828901613724565b9550506020613d6588828901613724565b945050604086013567ffffffffffffffff811115613d8657613d856136da565b5b613d9288828901613c51565b935050606086013567ffffffffffffffff811115613db357613db26136da565b5b613dbf88828901613c51565b925050608086013567ffffffffffffffff811115613de057613ddf6136da565b5b613dec88828901613d01565b9150509295509295909350565b5f81519050919050565b5f82825260208201905092915050565b5f819050602082019050919050565b613e2b816136fd565b82525050565b5f613e3c8383613e22565b60208301905092915050565b5f602082019050919050565b5f613e5e82613df9565b613e688185613e03565b9350613e7383613e13565b805f5b83811015613ea3578151613e8a8882613e31565b9750613e9583613e48565b925050600181019050613e76565b5085935050505092915050565b5f6040820190508181035f830152613ec88185613e54565b90508181036020830152613edc8184613ac2565b90509392505050565b5f8060408385031215613efb57613efa6136d6565b5b5f613f0885828601613757565b9250506020613f1985828601613757565b9150509250929050565b5f6060820190508181035f830152613f3b8186613ac2565b90508181036020830152613f4f8185613ac2565b9050613f5e60408301846137a9565b949350505050565b5f67ffffffffffffffff821115613f8057613f7f613b42565b5b602082029050602081019050919050565b5f613fa3613f9e84613f66565b613ba0565b90508083825260208201905060208402830185811115613fc657613fc5613be5565b5b835b81811015613fef5780613fdb8882613724565b845260208401935050602081019050613fc8565b5050509392505050565b5f82601f83011261400d5761400c613b3e565b5b813561401d848260208601613f91565b91505092915050565b5f806040838503121561403c5761403b6136d6565b5b5f83013567ffffffffffffffff811115614059576140586136da565b5b61406585828601613ff9565b925050602083013567ffffffffffffffff811115614086576140856136da565b5b61409285828601613c51565b9150509250929050565b6140a5816136fd565b82525050565b5f6020820190506140be5f83018461409c565b92915050565b6140cd81613851565b81146140d7575f80fd5b50565b5f813590506140e8816140c4565b92915050565b5f8060408385031215614104576141036136d6565b5b5f61411185828601613724565b9250506020614122858286016140da565b9150509250929050565b5f805f8060808587031215614144576141436136d6565b5b5f61415187828801613757565b945050602061416287828801613757565b935050604061417387828801613757565b925050606085013567ffffffffffffffff811115614194576141936136da565b5b6141a087828801613c51565b91505092959194509250565b5f6141b6826138ae565b9050919050565b6141c6816141ac565b82525050565b5f6020820190506141df5f8301846141bd565b92915050565b5f80604083850312156141fb576141fa6136d6565b5b5f61420885828601613724565b925050602061421985828601613724565b9150509250929050565b5f805f805f60a0868803121561423c5761423b6136d6565b5b5f61424988828901613724565b955050602061425a88828901613724565b945050604061426b88828901613757565b935050606061427c88828901613757565b925050608086013567ffffffffffffffff81111561429d5761429c6136da565b5b6142a988828901613d01565b9150509295509295909350565b5f602082840312156142cb576142ca6136d6565b5b5f6142d884828501613724565b91505092915050565b7f4e487b71000000000000000000000000000000000000000000000000000000005f52602260045260245ffd5b5f600282049050600182168061432557607f821691505b602082108103614338576143376142e1565b5b50919050565b5f67ffffffffffffffff82111561435857614357613b42565b5b6143618261394b565b9050602081019050919050565b5f61438061437b8461433e565b613ba0565b90508281526020810184848401111561439c5761439b613c7e565b5b6143a784828561393d565b509392505050565b5f82601f8301126143c3576143c2613b3e565b5b81516143d384826020860161436e565b91505092915050565b5f815190506143ea8161370e565b92915050565b5f815190506143fe81613741565b92915050565b60028110614410575f80fd5b50565b5f8151905061442181614404565b92915050565b5f805f805f805f80610100898b031215614444576144436136d6565b5b5f89015167ffffffffffffffff811115614461576144606136da565b5b61446d8b828c016143af565b985050602089015167ffffffffffffffff81111561448e5761448d6136da565b5b61449a8b828c016143af565b975050604089015167ffffffffffffffff8111156144bb576144ba6136da565b5b6144c78b828c016143af565b96505060606144d88b828c016143dc565b95505060806144e98b828c016143f0565b94505060a06144fa8b828c01614413565b93505060c061450b8b828c016143f0565b92505060e061451c8b828c016143dc565b9150509295985092959890939650565b7f4e487b71000000000000000000000000000000000000000000000000000000005f52602160045260245ffd5b5f60408201905061456c5f8301856137a9565b61457960208301846137a9565b9392505050565b5f67ffffffffffffffff82111561459a57614599613b42565b5b602082029050602081019050919050565b5f80fd5b5f80fd5b5f6145c56145c084613f66565b613ba0565b905080838252602082019050602084028301858111156145e8576145e7613be5565b5b835b8181101561461157806145fd88826143dc565b8452602084019350506020810190506145ea565b5050509392505050565b5f82601f83011261462f5761462e613b3e565b5b815161463f8482602086016145b3565b91505092915050565b5f6020828403121561465d5761465c6145ab565b5b6146676020613ba0565b90505f82015167ffffffffffffffff811115614686576146856145af565b5b6146928482850161461b565b5f8301525092915050565b5f6146af6146aa84614580565b613ba0565b905080838252602082019050602084028301858111156146d2576146d1613be5565b5b835b8181101561471957805167ffffffffffffffff8111156146f7576146f6613b3e565b5b8086016147048982614648565b855260208501945050506020810190506146d4565b5050509392505050565b5f82601f83011261473757614736613b3e565b5b815161474784826020860161469d565b91505092915050565b5f60208284031215614765576147646136d6565b5b5f82015167ffffffffffffffff811115614782576147816136da565b5b61478e84828501614723565b91505092915050565b7f496e76616c69642067726f7570204944000000000000000000000000000000005f82015250565b5f6147cb60108361392d565b91506147d682614797565b602082019050919050565b5f6020820190508181035f8301526147f8816147bf565b9050919050565b7f4e487b71000000000000000000000000000000000000000000000000000000005f52603260045260245ffd5b7f47726f757020646f6573206e6f742065786973740000000000000000000000005f82015250565b5f61486060148361392d565b915061486b8261482c565b602082019050919050565b5f6020820190508181035f83015261488d81614854565b9050919050565b7f4e6f7420616c6c206d656d626572732068617665207375626d697474656420725f8201527f616e6b696e677300000000000000000000000000000000000000000000000000602082015250565b5f6148ee60278361392d565b91506148f982614894565b604082019050919050565b5f6020820190508181035f83015261491b816148e2565b9050919050565b7f5472616e7369656e742073636f726520666f72206d656d6265720000000000005f82015250565b5f614956601a8361392d565b915061496182614922565b602082019050919050565b5f6040820190508181035f8301526149838161494a565b905061499260208301846137a9565b92915050565b5f6060820190506149ab5f8301866137a9565b6149b860208301856137a9565b81810360408301526149ca8184613ac2565b9050949350505050565b5f6040820190506149e75f83018561409c565b6149f4602083018461409c565b9392505050565b5f606082019050614a0e5f8301866137a9565b614a1b60208301856137a9565b614a2860408301846137a9565b949350505050565b5f8160e01c9050919050565b5f60033d1115614a585760045f803e614a555f51614a30565b90505b90565b5f60443d10614ae757614a6c6136cd565b60043d036004823e80513d602482011167ffffffffffffffff82111715614a94575050614ae7565b808201805167ffffffffffffffff811115614ab25750505050614ae7565b80602083010160043d038501811115614acf575050505050614ae7565b614ade82602001850186613b6f565b82955050505050505b90565b7f436f6d6d756e69747920746f6b656e20616c72656164792065786973747300005f82015250565b5f614b1e601e8361392d565b9150614b2982614aea565b602082019050919050565b5f6020820190508181035f830152614b4b81614b12565b9050919050565b7f43616e206f6e6c79207375626d69742072616e6b696e677320666f72207468655f8201527f2063757272656e74207765656b00000000000000000000000000000000000000602082015250565b5f614bac602d8361392d565b9150614bb782614b52565b604082019050919050565b5f6020820190508181035f830152614bd981614ba0565b9050919050565b7f52616e6b696e67206d75737420696e636c75646520616c6c2067726f7570206d5f8201527f656d626572730000000000000000000000000000000000000000000000000000602082015250565b5f614c3a60268361392d565b9150614c4582614be0565b604082019050919050565b5f6020820190508181035f830152614c6781614c2e565b9050919050565b7f53656e646572206e6f742070617274206f66207468652067726f7570000000005f82015250565b5f614ca2601c8361392d565b9150614cad82614c6e565b602082019050919050565b5f6020820190508181035f830152614ccf81614c96565b9050919050565b7f52616e6b696e6720616c7265616479207375626d6974746564000000000000005f82015250565b5f614d0a60198361392d565b9150614d1582614cd6565b602082019050919050565b5f6020820190508181035f830152614d3781614cfe565b9050919050565b5f6080820190508181035f830152614d56818761395b565b9050614d6560208301866137a9565b614d7260408301856137a9565b614d7f60608301846137a9565b95945050505050565b5f6060820190508181035f830152614da0818661395b565b9050614daf60208301856137a9565b614dbc60408301846137a9565b949350505050565b5f6040820190508181035f830152614ddc818561395b565b9050614deb602083018461385c565b9392505050565b7f4e487b71000000000000000000000000000000000000000000000000000000005f52601160045260245ffd5b5f614e2982613738565b9150614e3483613738565b9250828202614e4281613738565b91508282048414831517614e5957614e58614df2565b5b5092915050565b7f4e487b71000000000000000000000000000000000000000000000000000000005f52601260045260245ffd5b5f614e9782613738565b9150614ea283613738565b925082614eb257614eb1614e60565b5b828204905092915050565b5f614ec782613738565b9150614ed283613738565b9250828203905081811115614eea57614ee9614df2565b5b92915050565b5f614efa82613738565b9150614f0583613738565b9250828201905080821115614f1d57614f1c614df2565b5b92915050565b5f6040820190508181035f830152614f3b818561395b565b9050614f4a60208301846137a9565b9392505050565b7f52616e6b696e67206c656e677468206d69736d617463680000000000000000005f82015250565b5f614f8560178361392d565b9150614f9082614f51565b602082019050919050565b5f6020820190508181035f830152614fb281614f79565b9050919050565b7f496e76616c69642072616e6b696e6700000000000000000000000000000000005f82015250565b5f614fed600f8361392d565b9150614ff882614fb9565b602082019050919050565b5f6020820190508181035f83015261501a81614fe1565b9050919050565b7f496e76616c696420726563697069656e742061646472657373000000000000005f82015250565b5f61505560198361392d565b915061506082615021565b602082019050919050565b5f6020820190508181035f83015261508281615049565b9050919050565b5f60808201905061509c5f8301876137a9565b6150a9602083018661409c565b6150b660408301856137a9565b6150c360608301846137a9565b95945050505050565b5f6150d682613738565b91507fffffffffffffffffffffffffffffffffffffffffffffffffffffffffffffffff820361510857615107614df2565b5b600182019050919050565b5f6060820190508181035f83015261512b818661395b565b905061513a60208301856137a9565b818103604083015261514c818461395b565b9050949350505050565b5f819050919050565b5f61516982615156565b915061517483615156565b925082820390508181125f8412168282135f85121516171561519957615198614df2565b5b92915050565b5f6151a982615156565b91506151b483615156565b92508282026151c281615156565b91507f800000000000000000000000000000000000000000000000000000000000000084145f841216156151f9576151f8614df2565b5b828205841483151761520e5761520d614df2565b5b5092915050565b5f6080820190506152285f83018761409c565b61523560208301866137a9565b61524260408301856137a9565b61524f60608301846137a9565b95945050505050565b5f6040820190508181035f8301526152708185613ac2565b905081810360208301526152848184613ac2565b90509392505050565b5f81519050919050565b5f82825260208201905092915050565b5f6152b18261528d565b6152bb8185615297565b93506152cb81856020860161393d565b6152d48161394b565b840191505092915050565b5f60a0820190506152f25f83018861409c565b6152ff602083018761409c565b61530c60408301866137a9565b61531960608301856137a9565b818103608083015261532b81846152a7565b90509695505050505050565b5f81519050615345816137fc565b92915050565b5f602082840312156153605761535f6136d6565b5b5f61536d84828501615337565b91505092915050565b5f60a0820190506153895f83018861409c565b615396602083018761409c565b81810360408301526153a88186613ac2565b905081810360608301526153bc8185613ac2565b905081810360808301526153d081846152a7565b90509695505050505050565b7f4e487b71000000000000000000000000000000000000000000000000000000005f52605160045260245ffdfe44657465726d696e696e6720636f6e73656e73757320666f722067726f757020257364657465726d696e65436f6e73656e737573206661696c656420666f722067726f7570202573207769746820756e6b6e6f776e206572726f7264657465726d696e65436f6e73656e737573466f72416c6c47726f7570732063616c6c656420666f7220636f6d6d756e6974792025732c207765656b20257349737375696e67205245535045435420746f6b656e7320666f722067726f7570202573436865636b696e6720696620616c6c206d656d62657273207375626d69747465642072616e6b696e677364657465726d696e65436f6e73656e737573206661696c656420666f722067726f75702025733a202573436f6e73656e7375732064657465726d696e656420666f722067726f757020257343757272656e74207765656b2066726f6d2070726f66696c653a2025732c2043757272656e742073746174653a20257344657465726d696e696e6720636f6e73656e73757320666f7220636f6d6d756e6974792025732c207765656b2025732c2067726f7570202573a2646970667358221220c9356ad2279ac60af8420415b4d3a3987549de67dec85c55d305d8132b7bcad864736f6c634300081a0033",
			"opcodes": "PUSH1 0x80 PUSH1 0x40 MSTORE PUSH1 0x40 MLOAD DUP1 PUSH1 0xC0 ADD PUSH1 0x40 MSTORE DUP1 PUSH1 0x15 PUSH1 0xFF AND DUP2 MSTORE PUSH1 0x20 ADD PUSH1 0xD PUSH1 0xFF AND DUP2 MSTORE PUSH1 0x20 ADD PUSH1 0x8 PUSH1 0xFF AND DUP2 MSTORE PUSH1 0x20 ADD PUSH1 0x5 PUSH1 0xFF AND DUP2 MSTORE PUSH1 0x20 ADD PUSH1 0x3 PUSH1 0xFF AND DUP2 MSTORE PUSH1 0x20 ADD PUSH1 0x2 PUSH1 0xFF AND DUP2 MSTORE POP PUSH1 0x9 SWAP1 PUSH1 0x6 PUSH2 0x59 SWAP3 SWAP2 SWAP1 PUSH2 0x3BC JUMP JUMPDEST POP CALLVALUE DUP1 ISZERO PUSH2 0x65 JUMPI PUSH0 DUP1 REVERT JUMPDEST POP PUSH1 0x40 MLOAD PUSH2 0x5E98 CODESIZE SUB DUP1 PUSH2 0x5E98 DUP4 CODECOPY DUP2 DUP2 ADD PUSH1 0x40 MSTORE DUP2 ADD SWAP1 PUSH2 0x87 SWAP2 SWAP1 PUSH2 0x48F JUMP JUMPDEST CALLER PUSH1 0x40 MLOAD DUP1 PUSH1 0x20 ADD PUSH1 0x40 MSTORE DUP1 PUSH0 DUP2 MSTORE POP PUSH2 0xA6 DUP2 PUSH2 0x1F2 PUSH1 0x20 SHL PUSH1 0x20 SHR JUMP JUMPDEST POP PUSH0 PUSH20 0xFFFFFFFFFFFFFFFFFFFFFFFFFFFFFFFFFFFFFFFF AND DUP2 PUSH20 0xFFFFFFFFFFFFFFFFFFFFFFFFFFFFFFFFFFFFFFFF AND SUB PUSH2 0x117 JUMPI PUSH0 PUSH1 0x40 MLOAD PUSH32 0x1E4FBDF700000000000000000000000000000000000000000000000000000000 DUP2 MSTORE PUSH1 0x4 ADD PUSH2 0x10E SWAP2 SWAP1 PUSH2 0x4DC JUMP JUMPDEST PUSH1 0x40 MLOAD DUP1 SWAP2 SUB SWAP1 REVERT JUMPDEST PUSH2 0x126 DUP2 PUSH2 0x205 PUSH1 0x20 SHL PUSH1 0x20 SHR JUMP JUMPDEST POP DUP2 PUSH1 0x4 PUSH0 PUSH2 0x100 EXP DUP2 SLOAD DUP2 PUSH20 0xFFFFFFFFFFFFFFFFFFFFFFFFFFFFFFFFFFFFFFFF MUL NOT AND SWAP1 DUP4 PUSH20 0xFFFFFFFFFFFFFFFFFFFFFFFFFFFFFFFFFFFFFFFF AND MUL OR SWAP1 SSTORE POP DUP1 PUSH1 0x5 PUSH0 PUSH2 0x100 EXP DUP2 SLOAD DUP2 PUSH20 0xFFFFFFFFFFFFFFFFFFFFFFFFFFFFFFFFFFFFFFFF MUL NOT AND SWAP1 DUP4 PUSH20 0xFFFFFFFFFFFFFFFFFFFFFFFFFFFFFFFFFFFFFFFF AND MUL OR SWAP1 SSTORE POP PUSH2 0x1EB PUSH1 0x40 MLOAD DUP1 PUSH1 0x40 ADD PUSH1 0x40 MSTORE DUP1 PUSH1 0x1B DUP2 MSTORE PUSH1 0x20 ADD PUSH32 0x436F6E7472616374206973206265696E67206465706C6F796564210000000000 DUP2 MSTORE POP PUSH2 0x2C8 PUSH1 0x20 SHL PUSH1 0x20 SHR JUMP JUMPDEST POP POP PUSH2 0x8B1 JUMP JUMPDEST DUP1 PUSH1 0x2 SWAP1 DUP2 PUSH2 0x201 SWAP2 SWAP1 PUSH2 0x72F JUMP JUMPDEST POP POP JUMP JUMPDEST PUSH0 PUSH1 0x3 PUSH0 SWAP1 SLOAD SWAP1 PUSH2 0x100 EXP SWAP1 DIV PUSH20 0xFFFFFFFFFFFFFFFFFFFFFFFFFFFFFFFFFFFFFFFF AND SWAP1 POP DUP2 PUSH1 0x3 PUSH0 PUSH2 0x100 EXP DUP2 SLOAD DUP2 PUSH20 0xFFFFFFFFFFFFFFFFFFFFFFFFFFFFFFFFFFFFFFFF MUL NOT AND SWAP1 DUP4 PUSH20 0xFFFFFFFFFFFFFFFFFFFFFFFFFFFFFFFFFFFFFFFF AND MUL OR SWAP1 SSTORE POP DUP2 PUSH20 0xFFFFFFFFFFFFFFFFFFFFFFFFFFFFFFFFFFFFFFFF AND DUP2 PUSH20 0xFFFFFFFFFFFFFFFFFFFFFFFFFFFFFFFFFFFFFFFF AND PUSH32 0x8BE0079C531659141344CD1FD0A4F28419497F9722A3DAAFE3B4186F6B6457E0 PUSH1 0x40 MLOAD PUSH1 0x40 MLOAD DUP1 SWAP2 SUB SWAP1 LOG3 POP POP JUMP JUMPDEST PUSH2 0x364 DUP2 PUSH1 0x40 MLOAD PUSH1 0x24 ADD PUSH2 0x2DC SWAP2 SWAP1 PUSH2 0x864 JUMP JUMPDEST PUSH1 0x40 MLOAD PUSH1 0x20 DUP2 DUP4 SUB SUB DUP2 MSTORE SWAP1 PUSH1 0x40 MSTORE PUSH32 0x41304FAC00000000000000000000000000000000000000000000000000000000 PUSH28 0xFFFFFFFFFFFFFFFFFFFFFFFFFFFFFFFFFFFFFFFFFFFFFFFFFFFFFFFF NOT AND PUSH1 0x20 DUP3 ADD DUP1 MLOAD PUSH28 0xFFFFFFFFFFFFFFFFFFFFFFFFFFFFFFFFFFFFFFFFFFFFFFFFFFFFFFFF DUP4 DUP2 DUP4 AND OR DUP4 MSTORE POP POP POP POP PUSH2 0x367 PUSH1 0x20 SHL PUSH1 0x20 SHR JUMP JUMPDEST POP JUMP JUMPDEST PUSH2 0x388 DUP2 PUSH2 0x383 PUSH2 0x38B PUSH1 0x20 SHL PUSH2 0x1A53 OR PUSH2 0x3AA PUSH1 0x20 SHL PUSH1 0x20 SHR JUMP JUMPDEST PUSH1 0x20 SHR JUMP JUMPDEST POP JUMP JUMPDEST PUSH0 PUSH11 0x636F6E736F6C652E6C6F67 SWAP1 POP PUSH0 DUP1 DUP4 MLOAD PUSH1 0x20 DUP6 ADD DUP5 GAS STATICCALL POP POP POP JUMP JUMPDEST PUSH2 0x40C PUSH1 0x20 SHL PUSH2 0x365D OR DUP2 SWAP1 POP SWAP2 SWAP1 POP JUMP JUMPDEST DUP3 DUP1 SLOAD DUP3 DUP3 SSTORE SWAP1 PUSH0 MSTORE PUSH1 0x20 PUSH0 KECCAK256 SWAP1 DUP2 ADD SWAP3 DUP3 ISZERO PUSH2 0x3FB JUMPI SWAP2 PUSH1 0x20 MUL DUP3 ADD JUMPDEST DUP3 DUP2 GT ISZERO PUSH2 0x3FA JUMPI DUP3 MLOAD DUP3 SWAP1 PUSH1 0xFF AND SWAP1 SSTORE SWAP2 PUSH1 0x20 ADD SWAP2 SWAP1 PUSH1 0x1 ADD SWAP1 PUSH2 0x3DA JUMP JUMPDEST JUMPDEST POP SWAP1 POP PUSH2 0x408 SWAP2 SWAP1 PUSH2 0x416 JUMP JUMPDEST POP SWAP1 JUMP JUMPDEST PUSH2 0x414 PUSH2 0x884 JUMP JUMPDEST JUMP JUMPDEST JUMPDEST DUP1 DUP3 GT ISZERO PUSH2 0x42D JUMPI PUSH0 DUP2 PUSH0 SWAP1 SSTORE POP PUSH1 0x1 ADD PUSH2 0x417 JUMP JUMPDEST POP SWAP1 JUMP JUMPDEST PUSH0 DUP1 REVERT JUMPDEST PUSH0 PUSH20 0xFFFFFFFFFFFFFFFFFFFFFFFFFFFFFFFFFFFFFFFF DUP3 AND SWAP1 POP SWAP2 SWAP1 POP JUMP JUMPDEST PUSH0 PUSH2 0x45E DUP3 PUSH2 0x435 JUMP JUMPDEST SWAP1 POP SWAP2 SWAP1 POP JUMP JUMPDEST PUSH2 0x46E DUP2 PUSH2 0x454 JUMP JUMPDEST DUP2 EQ PUSH2 0x478 JUMPI PUSH0 DUP1 REVERT JUMPDEST POP JUMP JUMPDEST PUSH0 DUP2 MLOAD SWAP1 POP PUSH2 0x489 DUP2 PUSH2 0x465 JUMP JUMPDEST SWAP3 SWAP2 POP POP JUMP JUMPDEST PUSH0 DUP1 PUSH1 0x40 DUP4 DUP6 SUB SLT ISZERO PUSH2 0x4A5 JUMPI PUSH2 0x4A4 PUSH2 0x431 JUMP JUMPDEST JUMPDEST PUSH0 PUSH2 0x4B2 DUP6 DUP3 DUP7 ADD PUSH2 0x47B JUMP JUMPDEST SWAP3 POP POP PUSH1 0x20 PUSH2 0x4C3 DUP6 DUP3 DUP7 ADD PUSH2 0x47B JUMP JUMPDEST SWAP2 POP POP SWAP3 POP SWAP3 SWAP1 POP JUMP JUMPDEST PUSH2 0x4D6 DUP2 PUSH2 0x454 JUMP JUMPDEST DUP3 MSTORE POP POP JUMP JUMPDEST PUSH0 PUSH1 0x20 DUP3 ADD SWAP1 POP PUSH2 0x4EF PUSH0 DUP4 ADD DUP5 PUSH2 0x4CD JUMP JUMPDEST SWAP3 SWAP2 POP POP JUMP JUMPDEST PUSH0 DUP2 MLOAD SWAP1 POP SWAP2 SWAP1 POP JUMP JUMPDEST PUSH32 0x4E487B7100000000000000000000000000000000000000000000000000000000 PUSH0 MSTORE PUSH1 0x41 PUSH1 0x4 MSTORE PUSH1 0x24 PUSH0 REVERT JUMPDEST PUSH32 0x4E487B7100000000000000000000000000000000000000000000000000000000 PUSH0 MSTORE PUSH1 0x22 PUSH1 0x4 MSTORE PUSH1 0x24 PUSH0 REVERT JUMPDEST PUSH0 PUSH1 0x2 DUP3 DIV SWAP1 POP PUSH1 0x1 DUP3 AND DUP1 PUSH2 0x570 JUMPI PUSH1 0x7F DUP3 AND SWAP2 POP JUMPDEST PUSH1 0x20 DUP3 LT DUP2 SUB PUSH2 0x583 JUMPI PUSH2 0x582 PUSH2 0x52C JUMP JUMPDEST JUMPDEST POP SWAP2 SWAP1 POP JUMP JUMPDEST PUSH0 DUP2 SWAP1 POP DUP2 PUSH0 MSTORE PUSH1 0x20 PUSH0 KECCAK256 SWAP1 POP SWAP2 SWAP1 POP JUMP JUMPDEST PUSH0 PUSH1 0x20 PUSH1 0x1F DUP4 ADD DIV SWAP1 POP SWAP2 SWAP1 POP JUMP JUMPDEST PUSH0 DUP3 DUP3 SHL SWAP1 POP SWAP3 SWAP2 POP POP JUMP JUMPDEST PUSH0 PUSH1 0x8 DUP4 MUL PUSH2 0x5E5 PUSH32 0xFFFFFFFFFFFFFFFFFFFFFFFFFFFFFFFFFFFFFFFFFFFFFFFFFFFFFFFFFFFFFFFF DUP3 PUSH2 0x5AA JUMP JUMPDEST PUSH2 0x5EF DUP7 DUP4 PUSH2 0x5AA JUMP JUMPDEST SWAP6 POP DUP1 NOT DUP5 AND SWAP4 POP DUP1 DUP7 AND DUP5 OR SWAP3 POP POP POP SWAP4 SWAP3 POP POP POP JUMP JUMPDEST PUSH0 DUP2 SWAP1 POP SWAP2 SWAP1 POP JUMP JUMPDEST PUSH0 DUP2 SWAP1 POP SWAP2 SWAP1 POP JUMP JUMPDEST PUSH0 PUSH2 0x633 PUSH2 0x62E PUSH2 0x629 DUP5 PUSH2 0x607 JUMP JUMPDEST PUSH2 0x610 JUMP JUMPDEST PUSH2 0x607 JUMP JUMPDEST SWAP1 POP SWAP2 SWAP1 POP JUMP JUMPDEST PUSH0 DUP2 SWAP1 POP SWAP2 SWAP1 POP JUMP JUMPDEST PUSH2 0x64C DUP4 PUSH2 0x619 JUMP JUMPDEST PUSH2 0x660 PUSH2 0x658 DUP3 PUSH2 0x63A JUMP JUMPDEST DUP5 DUP5 SLOAD PUSH2 0x5B6 JUMP JUMPDEST DUP3 SSTORE POP POP POP POP JUMP JUMPDEST PUSH0 SWAP1 JUMP JUMPDEST PUSH2 0x674 PUSH2 0x668 JUMP JUMPDEST PUSH2 0x67F DUP2 DUP5 DUP5 PUSH2 0x643 JUMP JUMPDEST POP POP POP JUMP JUMPDEST JUMPDEST DUP2 DUP2 LT ISZERO PUSH2 0x6A2 JUMPI PUSH2 0x697 PUSH0 DUP3 PUSH2 0x66C JUMP JUMPDEST PUSH1 0x1 DUP2 ADD SWAP1 POP PUSH2 0x685 JUMP JUMPDEST POP POP JUMP JUMPDEST PUSH1 0x1F DUP3 GT ISZERO PUSH2 0x6E7 JUMPI PUSH2 0x6B8 DUP2 PUSH2 0x589 JUMP JUMPDEST PUSH2 0x6C1 DUP5 PUSH2 0x59B JUMP JUMPDEST DUP2 ADD PUSH1 0x20 DUP6 LT ISZERO PUSH2 0x6D0 JUMPI DUP2 SWAP1 POP JUMPDEST PUSH2 0x6E4 PUSH2 0x6DC DUP6 PUSH2 0x59B JUMP JUMPDEST DUP4 ADD DUP3 PUSH2 0x684 JUMP JUMPDEST POP POP JUMPDEST POP POP POP JUMP JUMPDEST PUSH0 DUP3 DUP3 SHR SWAP1 POP SWAP3 SWAP2 POP POP JUMP JUMPDEST PUSH0 PUSH2 0x707 PUSH0 NOT DUP5 PUSH1 0x8 MUL PUSH2 0x6EC JUMP JUMPDEST NOT DUP1 DUP4 AND SWAP2 POP POP SWAP3 SWAP2 POP POP JUMP JUMPDEST PUSH0 PUSH2 0x71F DUP4 DUP4 PUSH2 0x6F8 JUMP JUMPDEST SWAP2 POP DUP3 PUSH1 0x2 MUL DUP3 OR SWAP1 POP SWAP3 SWAP2 POP POP JUMP JUMPDEST PUSH2 0x738 DUP3 PUSH2 0x4F5 JUMP JUMPDEST PUSH8 0xFFFFFFFFFFFFFFFF DUP2 GT ISZERO PUSH2 0x751 JUMPI PUSH2 0x750 PUSH2 0x4FF JUMP JUMPDEST JUMPDEST PUSH2 0x75B DUP3 SLOAD PUSH2 0x559 JUMP JUMPDEST PUSH2 0x766 DUP3 DUP3 DUP6 PUSH2 0x6A6 JUMP JUMPDEST PUSH0 PUSH1 0x20 SWAP1 POP PUSH1 0x1F DUP4 GT PUSH1 0x1 DUP2 EQ PUSH2 0x797 JUMPI PUSH0 DUP5 ISZERO PUSH2 0x785 JUMPI DUP3 DUP8 ADD MLOAD SWAP1 POP JUMPDEST PUSH2 0x78F DUP6 DUP3 PUSH2 0x714 JUMP JUMPDEST DUP7 SSTORE POP PUSH2 0x7F6 JUMP JUMPDEST PUSH1 0x1F NOT DUP5 AND PUSH2 0x7A5 DUP7 PUSH2 0x589 JUMP JUMPDEST PUSH0 JUMPDEST DUP3 DUP2 LT ISZERO PUSH2 0x7CC JUMPI DUP5 DUP10 ADD MLOAD DUP3 SSTORE PUSH1 0x1 DUP3 ADD SWAP2 POP PUSH1 0x20 DUP6 ADD SWAP5 POP PUSH1 0x20 DUP2 ADD SWAP1 POP PUSH2 0x7A7 JUMP JUMPDEST DUP7 DUP4 LT ISZERO PUSH2 0x7E9 JUMPI DUP5 DUP10 ADD MLOAD PUSH2 0x7E5 PUSH1 0x1F DUP10 AND DUP3 PUSH2 0x6F8 JUMP JUMPDEST DUP4 SSTORE POP JUMPDEST PUSH1 0x1 PUSH1 0x2 DUP9 MUL ADD DUP9 SSTORE POP POP POP JUMPDEST POP POP POP POP POP POP JUMP JUMPDEST PUSH0 DUP3 DUP3 MSTORE PUSH1 0x20 DUP3 ADD SWAP1 POP SWAP3 SWAP2 POP POP JUMP JUMPDEST DUP3 DUP2 DUP4 MCOPY PUSH0 DUP4 DUP4 ADD MSTORE POP POP POP JUMP JUMPDEST PUSH0 PUSH1 0x1F NOT PUSH1 0x1F DUP4 ADD AND SWAP1 POP SWAP2 SWAP1 POP JUMP JUMPDEST PUSH0 PUSH2 0x836 DUP3 PUSH2 0x4F5 JUMP JUMPDEST PUSH2 0x840 DUP2 DUP6 PUSH2 0x7FE JUMP JUMPDEST SWAP4 POP PUSH2 0x850 DUP2 DUP6 PUSH1 0x20 DUP7 ADD PUSH2 0x80E JUMP JUMPDEST PUSH2 0x859 DUP2 PUSH2 0x81C JUMP JUMPDEST DUP5 ADD SWAP2 POP POP SWAP3 SWAP2 POP POP JUMP JUMPDEST PUSH0 PUSH1 0x20 DUP3 ADD SWAP1 POP DUP2 DUP2 SUB PUSH0 DUP4 ADD MSTORE PUSH2 0x87C DUP2 DUP5 PUSH2 0x82C JUMP JUMPDEST SWAP1 POP SWAP3 SWAP2 POP POP JUMP JUMPDEST PUSH32 0x4E487B7100000000000000000000000000000000000000000000000000000000 PUSH0 MSTORE PUSH1 0x51 PUSH1 0x4 MSTORE PUSH1 0x24 PUSH0 REVERT JUMPDEST PUSH2 0x55DA DUP1 PUSH2 0x8BE PUSH0 CODECOPY PUSH0 RETURN INVALID PUSH1 0x80 PUSH1 0x40 MSTORE CALLVALUE DUP1 ISZERO PUSH2 0xF JUMPI PUSH0 DUP1 REVERT JUMPDEST POP PUSH1 0x4 CALLDATASIZE LT PUSH2 0x134 JUMPI PUSH0 CALLDATALOAD PUSH1 0xE0 SHR DUP1 PUSH4 0x4E1273F4 GT PUSH2 0xB6 JUMPI DUP1 PUSH4 0xB74CA713 GT PUSH2 0x7A JUMPI DUP1 PUSH4 0xB74CA713 EQ PUSH2 0x35D JUMPI DUP1 PUSH4 0xD60429D0 EQ PUSH2 0x379 JUMPI DUP1 PUSH4 0xDE04BBD2 EQ PUSH2 0x3A9 JUMPI DUP1 PUSH4 0xE985E9C5 EQ PUSH2 0x3C7 JUMPI DUP1 PUSH4 0xF242432A EQ PUSH2 0x3F7 JUMPI DUP1 PUSH4 0xF2FDE38B EQ PUSH2 0x413 JUMPI PUSH2 0x134 JUMP JUMPDEST DUP1 PUSH4 0x4E1273F4 EQ PUSH2 0x2CD JUMPI DUP1 PUSH4 0x65C33697 EQ PUSH2 0x2FD JUMPI DUP1 PUSH4 0x715018A6 EQ PUSH2 0x319 JUMPI DUP1 PUSH4 0x8DA5CB5B EQ PUSH2 0x323 JUMPI DUP1 PUSH4 0xA22CB465 EQ PUSH2 0x341 JUMPI PUSH2 0x134 JUMP JUMPDEST DUP1 PUSH4 0x2B3DFFEB GT PUSH2 0xFD JUMPI DUP1 PUSH4 0x2B3DFFEB EQ PUSH2 0x202 JUMPI DUP1 PUSH4 0x2EB2C2D6 EQ PUSH2 0x232 JUMPI DUP1 PUSH4 0x32A7ADB0 EQ PUSH2 0x24E JUMPI DUP1 PUSH4 0x33718CE8 EQ PUSH2 0x27F JUMPI DUP1 PUSH4 0x415B5D7D EQ PUSH2 0x29B JUMPI PUSH2 0x134 JUMP JUMPDEST DUP1 PUSH3 0xFDD58E EQ PUSH2 0x138 JUMPI DUP1 PUSH4 0x1FFC9A7 EQ PUSH2 0x168 JUMPI DUP1 PUSH4 0x6428F02 EQ PUSH2 0x198 JUMPI DUP1 PUSH4 0xE89341C EQ PUSH2 0x1B6 JUMPI DUP1 PUSH4 0x17DD9E73 EQ PUSH2 0x1E6 JUMPI JUMPDEST PUSH0 DUP1 REVERT JUMPDEST PUSH2 0x152 PUSH1 0x4 DUP1 CALLDATASIZE SUB DUP2 ADD SWAP1 PUSH2 0x14D SWAP2 SWAP1 PUSH2 0x376B JUMP JUMPDEST PUSH2 0x42F JUMP JUMPDEST PUSH1 0x40 MLOAD PUSH2 0x15F SWAP2 SWAP1 PUSH2 0x37B8 JUMP JUMPDEST PUSH1 0x40 MLOAD DUP1 SWAP2 SUB SWAP1 RETURN JUMPDEST PUSH2 0x182 PUSH1 0x4 DUP1 CALLDATASIZE SUB DUP2 ADD SWAP1 PUSH2 0x17D SWAP2 SWAP1 PUSH2 0x3826 JUMP JUMPDEST PUSH2 0x484 JUMP JUMPDEST PUSH1 0x40 MLOAD PUSH2 0x18F SWAP2 SWAP1 PUSH2 0x386B JUMP JUMPDEST PUSH1 0x40 MLOAD DUP1 SWAP2 SUB SWAP1 RETURN JUMPDEST PUSH2 0x1A0 PUSH2 0x565 JUMP JUMPDEST PUSH1 0x40 MLOAD PUSH2 0x1AD SWAP2 SWAP1 PUSH2 0x38DF JUMP JUMPDEST PUSH1 0x40 MLOAD DUP1 SWAP2 SUB SWAP1 RETURN JUMPDEST PUSH2 0x1D0 PUSH1 0x4 DUP1 CALLDATASIZE SUB DUP2 ADD SWAP1 PUSH2 0x1CB SWAP2 SWAP1 PUSH2 0x38F8 JUMP JUMPDEST PUSH2 0x58A JUMP JUMPDEST PUSH1 0x40 MLOAD PUSH2 0x1DD SWAP2 SWAP1 PUSH2 0x3993 JUMP JUMPDEST PUSH1 0x40 MLOAD DUP1 SWAP2 SUB SWAP1 RETURN JUMPDEST PUSH2 0x200 PUSH1 0x4 DUP1 CALLDATASIZE SUB DUP2 ADD SWAP1 PUSH2 0x1FB SWAP2 SWAP1 PUSH2 0x39B3 JUMP JUMPDEST PUSH2 0x61C JUMP JUMPDEST STOP JUMPDEST PUSH2 0x21C PUSH1 0x4 DUP1 CALLDATASIZE SUB DUP2 ADD SWAP1 PUSH2 0x217 SWAP2 SWAP1 PUSH2 0x3A03 JUMP JUMPDEST PUSH2 0xB0F JUMP JUMPDEST PUSH1 0x40 MLOAD PUSH2 0x229 SWAP2 SWAP1 PUSH2 0x3B1E JUMP JUMPDEST PUSH1 0x40 MLOAD DUP1 SWAP2 SUB SWAP1 RETURN JUMPDEST PUSH2 0x24C PUSH1 0x4 DUP1 CALLDATASIZE SUB DUP2 ADD SWAP1 PUSH2 0x247 SWAP2 SWAP1 PUSH2 0x3D2E JUMP JUMPDEST PUSH2 0xBD4 JUMP JUMPDEST STOP JUMPDEST PUSH2 0x268 PUSH1 0x4 DUP1 CALLDATASIZE SUB DUP2 ADD SWAP1 PUSH2 0x263 SWAP2 SWAP1 PUSH2 0x39B3 JUMP JUMPDEST PUSH2 0xC7B JUMP JUMPDEST PUSH1 0x40 MLOAD PUSH2 0x276 SWAP3 SWAP2 SWAP1 PUSH2 0x3EB0 JUMP JUMPDEST PUSH1 0x40 MLOAD DUP1 SWAP2 SUB SWAP1 RETURN JUMPDEST PUSH2 0x299 PUSH1 0x4 DUP1 CALLDATASIZE SUB DUP2 ADD SWAP1 PUSH2 0x294 SWAP2 SWAP1 PUSH2 0x3EE5 JUMP JUMPDEST PUSH2 0xEE2 JUMP JUMPDEST STOP JUMPDEST PUSH2 0x2B5 PUSH1 0x4 DUP1 CALLDATASIZE SUB DUP2 ADD SWAP1 PUSH2 0x2B0 SWAP2 SWAP1 PUSH2 0x39B3 JUMP JUMPDEST PUSH2 0x115D JUMP JUMPDEST PUSH1 0x40 MLOAD PUSH2 0x2C4 SWAP4 SWAP3 SWAP2 SWAP1 PUSH2 0x3F23 JUMP JUMPDEST PUSH1 0x40 MLOAD DUP1 SWAP2 SUB SWAP1 RETURN JUMPDEST PUSH2 0x2E7 PUSH1 0x4 DUP1 CALLDATASIZE SUB DUP2 ADD SWAP1 PUSH2 0x2E2 SWAP2 SWAP1 PUSH2 0x4026 JUMP JUMPDEST PUSH2 0x124F JUMP JUMPDEST PUSH1 0x40 MLOAD PUSH2 0x2F4 SWAP2 SWAP1 PUSH2 0x3B1E JUMP JUMPDEST PUSH1 0x40 MLOAD DUP1 SWAP2 SUB SWAP1 RETURN JUMPDEST PUSH2 0x317 PUSH1 0x4 DUP1 CALLDATASIZE SUB DUP2 ADD SWAP1 PUSH2 0x312 SWAP2 SWAP1 PUSH2 0x38F8 JUMP JUMPDEST PUSH2 0x1356 JUMP JUMPDEST STOP JUMPDEST PUSH2 0x321 PUSH2 0x13E8 JUMP JUMPDEST STOP JUMPDEST PUSH2 0x32B PUSH2 0x13FB JUMP JUMPDEST PUSH1 0x40 MLOAD PUSH2 0x338 SWAP2 SWAP1 PUSH2 0x40AB JUMP JUMPDEST PUSH1 0x40 MLOAD DUP1 SWAP2 SUB SWAP1 RETURN JUMPDEST PUSH2 0x35B PUSH1 0x4 DUP1 CALLDATASIZE SUB DUP2 ADD SWAP1 PUSH2 0x356 SWAP2 SWAP1 PUSH2 0x40EE JUMP JUMPDEST PUSH2 0x1423 JUMP JUMPDEST STOP JUMPDEST PUSH2 0x377 PUSH1 0x4 DUP1 CALLDATASIZE SUB DUP2 ADD SWAP1 PUSH2 0x372 SWAP2 SWAP1 PUSH2 0x412C JUMP JUMPDEST PUSH2 0x1439 JUMP JUMPDEST STOP JUMPDEST PUSH2 0x393 PUSH1 0x4 DUP1 CALLDATASIZE SUB DUP2 ADD SWAP1 PUSH2 0x38E SWAP2 SWAP1 PUSH2 0x38F8 JUMP JUMPDEST PUSH2 0x1858 JUMP JUMPDEST PUSH1 0x40 MLOAD PUSH2 0x3A0 SWAP2 SWAP1 PUSH2 0x386B JUMP JUMPDEST PUSH1 0x40 MLOAD DUP1 SWAP2 SUB SWAP1 RETURN JUMPDEST PUSH2 0x3B1 PUSH2 0x1875 JUMP JUMPDEST PUSH1 0x40 MLOAD PUSH2 0x3BE SWAP2 SWAP1 PUSH2 0x41CC JUMP JUMPDEST PUSH1 0x40 MLOAD DUP1 SWAP2 SUB SWAP1 RETURN JUMPDEST PUSH2 0x3E1 PUSH1 0x4 DUP1 CALLDATASIZE SUB DUP2 ADD SWAP1 PUSH2 0x3DC SWAP2 SWAP1 PUSH2 0x41E5 JUMP JUMPDEST PUSH2 0x189A JUMP JUMPDEST PUSH1 0x40 MLOAD PUSH2 0x3EE SWAP2 SWAP1 PUSH2 0x386B JUMP JUMPDEST PUSH1 0x40 MLOAD DUP1 SWAP2 SUB SWAP1 RETURN JUMPDEST PUSH2 0x411 PUSH1 0x4 DUP1 CALLDATASIZE SUB DUP2 ADD SWAP1 PUSH2 0x40C SWAP2 SWAP1 PUSH2 0x4223 JUMP JUMPDEST PUSH2 0x1928 JUMP JUMPDEST STOP JUMPDEST PUSH2 0x42D PUSH1 0x4 DUP1 CALLDATASIZE SUB DUP2 ADD SWAP1 PUSH2 0x428 SWAP2 SWAP1 PUSH2 0x42B6 JUMP JUMPDEST PUSH2 0x19CF JUMP JUMPDEST STOP JUMPDEST PUSH0 DUP1 PUSH0 DUP4 DUP2 MSTORE PUSH1 0x20 ADD SWAP1 DUP2 MSTORE PUSH1 0x20 ADD PUSH0 KECCAK256 PUSH0 DUP5 PUSH20 0xFFFFFFFFFFFFFFFFFFFFFFFFFFFFFFFFFFFFFFFF AND PUSH20 0xFFFFFFFFFFFFFFFFFFFFFFFFFFFFFFFFFFFFFFFF AND DUP2 MSTORE PUSH1 0x20 ADD SWAP1 DUP2 MSTORE PUSH1 0x20 ADD PUSH0 KECCAK256 SLOAD SWAP1 POP SWAP3 SWAP2 POP POP JUMP JUMPDEST PUSH0 PUSH32 0xD9B67A2600000000000000000000000000000000000000000000000000000000 PUSH28 0xFFFFFFFFFFFFFFFFFFFFFFFFFFFFFFFFFFFFFFFFFFFFFFFFFFFFFFFF NOT AND DUP3 PUSH28 0xFFFFFFFFFFFFFFFFFFFFFFFFFFFFFFFFFFFFFFFFFFFFFFFFFFFFFFFF NOT AND EQ DUP1 PUSH2 0x54E JUMPI POP PUSH32 0xE89341C00000000000000000000000000000000000000000000000000000000 PUSH28 0xFFFFFFFFFFFFFFFFFFFFFFFFFFFFFFFFFFFFFFFFFFFFFFFFFFFFFFFF NOT AND DUP3 PUSH28 0xFFFFFFFFFFFFFFFFFFFFFFFFFFFFFFFFFFFFFFFFFFFFFFFFFFFFFFFF NOT AND EQ JUMPDEST DUP1 PUSH2 0x55E JUMPI POP PUSH2 0x55D DUP3 PUSH2 0x1A72 JUMP JUMPDEST JUMPDEST SWAP1 POP SWAP2 SWAP1 POP JUMP JUMPDEST PUSH1 0x5 PUSH0 SWAP1 SLOAD SWAP1 PUSH2 0x100 EXP SWAP1 DIV PUSH20 0xFFFFFFFFFFFFFFFFFFFFFFFFFFFFFFFFFFFFFFFF AND DUP2 JUMP JUMPDEST PUSH1 0x60 PUSH1 0x2 DUP1 SLOAD PUSH2 0x599 SWAP1 PUSH2 0x430E JUMP JUMPDEST DUP1 PUSH1 0x1F ADD PUSH1 0x20 DUP1 SWAP2 DIV MUL PUSH1 0x20 ADD PUSH1 0x40 MLOAD SWAP1 DUP2 ADD PUSH1 0x40 MSTORE DUP1 SWAP3 SWAP2 SWAP1 DUP2 DUP2 MSTORE PUSH1 0x20 ADD DUP3 DUP1 SLOAD PUSH2 0x5C5 SWAP1 PUSH2 0x430E JUMP JUMPDEST DUP1 ISZERO PUSH2 0x610 JUMPI DUP1 PUSH1 0x1F LT PUSH2 0x5E7 JUMPI PUSH2 0x100 DUP1 DUP4 SLOAD DIV MUL DUP4 MSTORE SWAP2 PUSH1 0x20 ADD SWAP2 PUSH2 0x610 JUMP JUMPDEST DUP3 ADD SWAP2 SWAP1 PUSH0 MSTORE PUSH1 0x20 PUSH0 KECCAK256 SWAP1 JUMPDEST DUP2 SLOAD DUP2 MSTORE SWAP1 PUSH1 0x1 ADD SWAP1 PUSH1 0x20 ADD DUP1 DUP4 GT PUSH2 0x5F3 JUMPI DUP3 SWAP1 SUB PUSH1 0x1F AND DUP3 ADD SWAP2 JUMPDEST POP POP POP POP POP SWAP1 POP SWAP2 SWAP1 POP JUMP JUMPDEST PUSH2 0x640 PUSH1 0x40 MLOAD DUP1 PUSH1 0x60 ADD PUSH1 0x40 MSTORE DUP1 PUSH1 0x39 DUP2 MSTORE PUSH1 0x20 ADD PUSH2 0x556C PUSH1 0x39 SWAP2 CODECOPY DUP5 DUP5 DUP5 PUSH2 0x1ADB JUMP JUMPDEST PUSH0 DUP1 PUSH1 0x5 PUSH0 SWAP1 SLOAD SWAP1 PUSH2 0x100 EXP SWAP1 DIV PUSH20 0xFFFFFFFFFFFFFFFFFFFFFFFFFFFFFFFFFFFFFFFF AND PUSH20 0xFFFFFFFFFFFFFFFFFFFFFFFFFFFFFFFFFFFFFFFF AND PUSH4 0x99664245 DUP7 PUSH1 0x40 MLOAD DUP3 PUSH4 0xFFFFFFFF AND PUSH1 0xE0 SHL DUP2 MSTORE PUSH1 0x4 ADD PUSH2 0x69C SWAP2 SWAP1 PUSH2 0x37B8 JUMP JUMPDEST PUSH0 PUSH1 0x40 MLOAD DUP1 DUP4 SUB DUP2 DUP7 GAS STATICCALL ISZERO DUP1 ISZERO PUSH2 0x6B6 JUMPI RETURNDATASIZE PUSH0 DUP1 RETURNDATACOPY RETURNDATASIZE PUSH0 REVERT JUMPDEST POP POP POP POP PUSH1 0x40 MLOAD RETURNDATASIZE PUSH0 DUP3 RETURNDATACOPY RETURNDATASIZE PUSH1 0x1F NOT PUSH1 0x1F DUP3 ADD AND DUP3 ADD DUP1 PUSH1 0x40 MSTORE POP DUP2 ADD SWAP1 PUSH2 0x6DE SWAP2 SWAP1 PUSH2 0x4427 JUMP JUMPDEST POP SWAP7 POP SWAP7 POP POP POP POP POP POP PUSH2 0x71D PUSH1 0x40 MLOAD DUP1 PUSH1 0x60 ADD PUSH1 0x40 MSTORE DUP1 PUSH1 0x30 DUP2 MSTORE PUSH1 0x20 ADD PUSH2 0x553C PUSH1 0x30 SWAP2 CODECOPY DUP3 DUP5 PUSH1 0x1 DUP2 GT ISZERO PUSH2 0x718 JUMPI PUSH2 0x717 PUSH2 0x452C JUMP JUMPDEST JUMPDEST PUSH2 0x1B7D JUMP JUMPDEST PUSH0 PUSH1 0x4 PUSH0 SWAP1 SLOAD SWAP1 PUSH2 0x100 EXP SWAP1 DIV PUSH20 0xFFFFFFFFFFFFFFFFFFFFFFFFFFFFFFFFFFFFFFFF AND PUSH20 0xFFFFFFFFFFFFFFFFFFFFFFFFFFFFFFFFFFFFFFFF AND PUSH4 0x6C331BD3 DUP8 DUP8 PUSH1 0x40 MLOAD DUP4 PUSH4 0xFFFFFFFF AND PUSH1 0xE0 SHL DUP2 MSTORE PUSH1 0x4 ADD PUSH2 0x77A SWAP3 SWAP2 SWAP1 PUSH2 0x4559 JUMP JUMPDEST PUSH0 PUSH1 0x40 MLOAD DUP1 DUP4 SUB DUP2 DUP7 GAS STATICCALL ISZERO DUP1 ISZERO PUSH2 0x794 JUMPI RETURNDATASIZE PUSH0 DUP1 RETURNDATACOPY RETURNDATASIZE PUSH0 REVERT JUMPDEST POP POP POP POP PUSH1 0x40 MLOAD RETURNDATASIZE PUSH0 DUP3 RETURNDATACOPY RETURNDATASIZE PUSH1 0x1F NOT PUSH1 0x1F DUP3 ADD AND DUP3 ADD DUP1 PUSH1 0x40 MSTORE POP DUP2 ADD SWAP1 PUSH2 0x7BC SWAP2 SWAP1 PUSH2 0x4750 JUMP JUMPDEST SWAP1 POP DUP1 MLOAD DUP5 LT PUSH2 0x801 JUMPI PUSH1 0x40 MLOAD PUSH32 0x8C379A000000000000000000000000000000000000000000000000000000000 DUP2 MSTORE PUSH1 0x4 ADD PUSH2 0x7F8 SWAP1 PUSH2 0x47E1 JUMP JUMPDEST PUSH1 0x40 MLOAD DUP1 SWAP2 SUB SWAP1 REVERT JUMPDEST PUSH0 DUP2 DUP6 DUP2 MLOAD DUP2 LT PUSH2 0x815 JUMPI PUSH2 0x814 PUSH2 0x47FF JUMP JUMPDEST JUMPDEST PUSH1 0x20 MUL PUSH1 0x20 ADD ADD MLOAD SWAP1 POP PUSH0 DUP2 PUSH0 ADD MLOAD MLOAD GT PUSH2 0x865 JUMPI PUSH1 0x40 MLOAD PUSH32 0x8C379A000000000000000000000000000000000000000000000000000000000 DUP2 MSTORE PUSH1 0x4 ADD PUSH2 0x85C SWAP1 PUSH2 0x4876 JUMP JUMPDEST PUSH1 0x40 MLOAD DUP1 SWAP2 SUB SWAP1 REVERT JUMPDEST PUSH2 0x886 PUSH1 0x40 MLOAD DUP1 PUSH1 0x60 ADD PUSH1 0x40 MSTORE DUP1 PUSH1 0x2A DUP2 MSTORE PUSH1 0x20 ADD PUSH2 0x54C7 PUSH1 0x2A SWAP2 CODECOPY PUSH2 0x1C1C JUMP JUMPDEST PUSH0 PUSH2 0x893 DUP9 DUP9 DUP9 DUP6 PUSH2 0x1CB5 JUMP JUMPDEST SWAP1 POP PUSH2 0x8D4 PUSH1 0x40 MLOAD DUP1 PUSH1 0x40 ADD PUSH1 0x40 MSTORE DUP1 PUSH1 0x19 DUP2 MSTORE PUSH1 0x20 ADD PUSH32 0x416C6C206D656D62657273207375626D69747465643A20257300000000000000 DUP2 MSTORE POP DUP3 PUSH2 0x1D7E JUMP JUMPDEST DUP1 PUSH2 0x914 JUMPI PUSH1 0x40 MLOAD PUSH32 0x8C379A000000000000000000000000000000000000000000000000000000000 DUP2 MSTORE PUSH1 0x4 ADD PUSH2 0x90B SWAP1 PUSH2 0x4904 JUMP JUMPDEST PUSH1 0x40 MLOAD DUP1 SWAP2 SUB SWAP1 REVERT JUMPDEST PUSH0 DUP3 PUSH0 ADD MLOAD MLOAD SWAP1 POP PUSH0 DUP2 PUSH8 0xFFFFFFFFFFFFFFFF DUP2 GT ISZERO PUSH2 0x937 JUMPI PUSH2 0x936 PUSH2 0x3B42 JUMP JUMPDEST JUMPDEST PUSH1 0x40 MLOAD SWAP1 DUP1 DUP3 MSTORE DUP1 PUSH1 0x20 MUL PUSH1 0x20 ADD DUP3 ADD PUSH1 0x40 MSTORE DUP1 ISZERO PUSH2 0x965 JUMPI DUP2 PUSH1 0x20 ADD PUSH1 0x20 DUP3 MUL DUP1 CALLDATASIZE DUP4 CALLDATACOPY DUP1 DUP3 ADD SWAP2 POP POP SWAP1 POP JUMPDEST POP SWAP1 POP PUSH0 JUMPDEST DUP3 DUP2 LT ISZERO PUSH2 0x9FC JUMPI PUSH2 0x97F DUP12 DUP12 DUP12 DUP5 DUP10 PUSH2 0x1E1A JUMP JUMPDEST DUP3 DUP3 DUP2 MLOAD DUP2 LT PUSH2 0x992 JUMPI PUSH2 0x991 PUSH2 0x47FF JUMP JUMPDEST JUMPDEST PUSH1 0x20 MUL PUSH1 0x20 ADD ADD DUP2 DUP2 MSTORE POP POP PUSH32 0xF6FF2AD7FC16BDA2A7D32462729431BCE3EBE9B75CC7C9B35A0ADFBF7E7BB9E6 DUP3 DUP3 DUP2 MLOAD DUP2 LT PUSH2 0x9D2 JUMPI PUSH2 0x9D1 PUSH2 0x47FF JUMP JUMPDEST JUMPDEST PUSH1 0x20 MUL PUSH1 0x20 ADD ADD MLOAD PUSH1 0x40 MLOAD PUSH2 0x9E7 SWAP2 SWAP1 PUSH2 0x496C JUMP JUMPDEST PUSH1 0x40 MLOAD DUP1 SWAP2 SUB SWAP1 LOG1 DUP1 DUP1 PUSH1 0x1 ADD SWAP2 POP POP PUSH2 0x96A JUMP JUMPDEST POP PUSH0 PUSH2 0xA07 DUP3 PUSH2 0x1FEE JUMP JUMPDEST SWAP1 POP PUSH1 0x40 MLOAD DUP1 PUSH1 0x60 ADD PUSH1 0x40 MSTORE DUP1 DUP3 DUP2 MSTORE PUSH1 0x20 ADD DUP4 DUP2 MSTORE PUSH1 0x20 ADD TIMESTAMP DUP2 MSTORE POP PUSH1 0x7 PUSH0 DUP14 DUP2 MSTORE PUSH1 0x20 ADD SWAP1 DUP2 MSTORE PUSH1 0x20 ADD PUSH0 KECCAK256 PUSH0 DUP13 DUP2 MSTORE PUSH1 0x20 ADD SWAP1 DUP2 MSTORE PUSH1 0x20 ADD PUSH0 KECCAK256 PUSH0 DUP12 DUP2 MSTORE PUSH1 0x20 ADD SWAP1 DUP2 MSTORE PUSH1 0x20 ADD PUSH0 KECCAK256 PUSH0 DUP3 ADD MLOAD DUP2 PUSH0 ADD SWAP1 DUP1 MLOAD SWAP1 PUSH1 0x20 ADD SWAP1 PUSH2 0xA6D SWAP3 SWAP2 SWAP1 PUSH2 0x3667 JUMP JUMPDEST POP PUSH1 0x20 DUP3 ADD MLOAD DUP2 PUSH1 0x1 ADD SWAP1 DUP1 MLOAD SWAP1 PUSH1 0x20 ADD SWAP1 PUSH2 0xA8A SWAP3 SWAP2 SWAP1 PUSH2 0x3667 JUMP JUMPDEST POP PUSH1 0x40 DUP3 ADD MLOAD DUP2 PUSH1 0x2 ADD SSTORE SWAP1 POP POP DUP11 PUSH32 0xB7561A7DCBDF981C91BCBDAEF28458903367918C2B25FE6C1A2485997A91820 DUP12 DUP12 DUP5 PUSH1 0x40 MLOAD PUSH2 0xACC SWAP4 SWAP3 SWAP2 SWAP1 PUSH2 0x4998 JUMP JUMPDEST PUSH1 0x40 MLOAD DUP1 SWAP2 SUB SWAP1 LOG2 PUSH2 0xAF6 PUSH1 0x40 MLOAD DUP1 PUSH1 0x60 ADD PUSH1 0x40 MSTORE DUP1 PUSH1 0x23 DUP2 MSTORE PUSH1 0x20 ADD PUSH2 0x54A4 PUSH1 0x23 SWAP2 CODECOPY DUP11 PUSH2 0x225E JUMP JUMPDEST PUSH2 0xB02 DUP12 DUP12 DUP12 DUP9 PUSH2 0x22FA JUMP JUMPDEST POP POP POP POP POP POP POP POP POP POP POP JUMP JUMPDEST PUSH1 0x60 PUSH1 0x6 PUSH0 DUP7 DUP2 MSTORE PUSH1 0x20 ADD SWAP1 DUP2 MSTORE PUSH1 0x20 ADD PUSH0 KECCAK256 PUSH0 DUP6 DUP2 MSTORE PUSH1 0x20 ADD SWAP1 DUP2 MSTORE PUSH1 0x20 ADD PUSH0 KECCAK256 PUSH0 DUP5 DUP2 MSTORE PUSH1 0x20 ADD SWAP1 DUP2 MSTORE PUSH1 0x20 ADD PUSH0 KECCAK256 PUSH0 DUP4 PUSH20 0xFFFFFFFFFFFFFFFFFFFFFFFFFFFFFFFFFFFFFFFF AND PUSH20 0xFFFFFFFFFFFFFFFFFFFFFFFFFFFFFFFFFFFFFFFF AND DUP2 MSTORE PUSH1 0x20 ADD SWAP1 DUP2 MSTORE PUSH1 0x20 ADD PUSH0 KECCAK256 PUSH0 ADD DUP1 SLOAD DUP1 PUSH1 0x20 MUL PUSH1 0x20 ADD PUSH1 0x40 MLOAD SWAP1 DUP2 ADD PUSH1 0x40 MSTORE DUP1 SWAP3 SWAP2 SWAP1 DUP2 DUP2 MSTORE PUSH1 0x20 ADD DUP3 DUP1 SLOAD DUP1 ISZERO PUSH2 0xBC5 JUMPI PUSH1 0x20 MUL DUP3 ADD SWAP2 SWAP1 PUSH0 MSTORE PUSH1 0x20 PUSH0 KECCAK256 SWAP1 JUMPDEST DUP2 SLOAD DUP2 MSTORE PUSH1 0x20 ADD SWAP1 PUSH1 0x1 ADD SWAP1 DUP1 DUP4 GT PUSH2 0xBB1 JUMPI JUMPDEST POP POP POP POP POP SWAP1 POP SWAP5 SWAP4 POP POP POP POP JUMP JUMPDEST PUSH0 PUSH2 0xBDD PUSH2 0x264F JUMP JUMPDEST SWAP1 POP DUP1 PUSH20 0xFFFFFFFFFFFFFFFFFFFFFFFFFFFFFFFFFFFFFFFF AND DUP7 PUSH20 0xFFFFFFFFFFFFFFFFFFFFFFFFFFFFFFFFFFFFFFFF AND EQ ISZERO DUP1 ISZERO PUSH2 0xC22 JUMPI POP PUSH2 0xC20 DUP7 DUP3 PUSH2 0x189A JUMP JUMPDEST ISZERO JUMPDEST ISZERO PUSH2 0xC66 JUMPI DUP1 DUP7 PUSH1 0x40 MLOAD PUSH32 0xE237D92200000000000000000000000000000000000000000000000000000000 DUP2 MSTORE PUSH1 0x4 ADD PUSH2 0xC5D SWAP3 SWAP2 SWAP1 PUSH2 0x49D4 JUMP JUMPDEST PUSH1 0x40 MLOAD DUP1 SWAP2 SUB SWAP1 REVERT JUMPDEST PUSH2 0xC73 DUP7 DUP7 DUP7 DUP7 DUP7 PUSH2 0x2656 JUMP JUMPDEST POP POP POP POP POP POP JUMP JUMPDEST PUSH1 0x60 DUP1 PUSH0 PUSH1 0x4 PUSH0 SWAP1 SLOAD SWAP1 PUSH2 0x100 EXP SWAP1 DIV PUSH20 0xFFFFFFFFFFFFFFFFFFFFFFFFFFFFFFFFFFFFFFFF AND PUSH20 0xFFFFFFFFFFFFFFFFFFFFFFFFFFFFFFFFFFFFFFFF AND PUSH4 0x6C331BD3 DUP8 DUP8 PUSH1 0x40 MLOAD DUP4 PUSH4 0xFFFFFFFF AND PUSH1 0xE0 SHL DUP2 MSTORE PUSH1 0x4 ADD PUSH2 0xCDB SWAP3 SWAP2 SWAP1 PUSH2 0x4559 JUMP JUMPDEST PUSH0 PUSH1 0x40 MLOAD DUP1 DUP4 SUB DUP2 DUP7 GAS STATICCALL ISZERO DUP1 ISZERO PUSH2 0xCF5 JUMPI RETURNDATASIZE PUSH0 DUP1 RETURNDATACOPY RETURNDATASIZE PUSH0 REVERT JUMPDEST POP POP POP POP PUSH1 0x40 MLOAD RETURNDATASIZE PUSH0 DUP3 RETURNDATACOPY RETURNDATASIZE PUSH1 0x1F NOT PUSH1 0x1F DUP3 ADD AND DUP3 ADD DUP1 PUSH1 0x40 MSTORE POP DUP2 ADD SWAP1 PUSH2 0xD1D SWAP2 SWAP1 PUSH2 0x4750 JUMP JUMPDEST SWAP1 POP DUP1 MLOAD DUP5 LT PUSH2 0xD62 JUMPI PUSH1 0x40 MLOAD PUSH32 0x8C379A000000000000000000000000000000000000000000000000000000000 DUP2 MSTORE PUSH1 0x4 ADD PUSH2 0xD59 SWAP1 PUSH2 0x47E1 JUMP JUMPDEST PUSH1 0x40 MLOAD DUP1 SWAP2 SUB SWAP1 REVERT JUMPDEST PUSH0 DUP2 DUP6 DUP2 MLOAD DUP2 LT PUSH2 0xD76 JUMPI PUSH2 0xD75 PUSH2 0x47FF JUMP JUMPDEST JUMPDEST PUSH1 0x20 MUL PUSH1 0x20 ADD ADD MLOAD SWAP1 POP PUSH0 DUP2 PUSH0 ADD MLOAD MLOAD SWAP1 POP PUSH0 DUP2 PUSH8 0xFFFFFFFFFFFFFFFF DUP2 GT ISZERO PUSH2 0xDA3 JUMPI PUSH2 0xDA2 PUSH2 0x3B42 JUMP JUMPDEST JUMPDEST PUSH1 0x40 MLOAD SWAP1 DUP1 DUP3 MSTORE DUP1 PUSH1 0x20 MUL PUSH1 0x20 ADD DUP3 ADD PUSH1 0x40 MSTORE DUP1 ISZERO PUSH2 0xDD1 JUMPI DUP2 PUSH1 0x20 ADD PUSH1 0x20 DUP3 MUL DUP1 CALLDATASIZE DUP4 CALLDATACOPY DUP1 DUP3 ADD SWAP2 POP POP SWAP1 POP JUMPDEST POP SWAP1 POP PUSH0 DUP3 PUSH8 0xFFFFFFFFFFFFFFFF DUP2 GT ISZERO PUSH2 0xDEF JUMPI PUSH2 0xDEE PUSH2 0x3B42 JUMP JUMPDEST JUMPDEST PUSH1 0x40 MLOAD SWAP1 DUP1 DUP3 MSTORE DUP1 PUSH1 0x20 MUL PUSH1 0x20 ADD DUP3 ADD PUSH1 0x40 MSTORE DUP1 ISZERO PUSH2 0xE1D JUMPI DUP2 PUSH1 0x20 ADD PUSH1 0x20 DUP3 MUL DUP1 CALLDATASIZE DUP4 CALLDATACOPY DUP1 DUP3 ADD SWAP2 POP POP SWAP1 POP JUMPDEST POP SWAP1 POP PUSH0 JUMPDEST DUP4 DUP2 LT ISZERO PUSH2 0xECE JUMPI DUP5 PUSH0 ADD MLOAD DUP2 DUP2 MLOAD DUP2 LT PUSH2 0xE40 JUMPI PUSH2 0xE3F PUSH2 0x47FF JUMP JUMPDEST JUMPDEST PUSH1 0x20 MUL PUSH1 0x20 ADD ADD MLOAD DUP4 DUP3 DUP2 MLOAD DUP2 LT PUSH2 0xE5B JUMPI PUSH2 0xE5A PUSH2 0x47FF JUMP JUMPDEST JUMPDEST PUSH1 0x20 MUL PUSH1 0x20 ADD ADD SWAP1 PUSH20 0xFFFFFFFFFFFFFFFFFFFFFFFFFFFFFFFFFFFFFFFF AND SWAP1 DUP2 PUSH20 0xFFFFFFFFFFFFFFFFFFFFFFFFFFFFFFFFFFFFFFFF AND DUP2 MSTORE POP POP PUSH2 0xEA2 DUP12 DUP12 DUP12 DUP5 DUP10 PUSH2 0x1E1A JUMP JUMPDEST DUP3 DUP3 DUP2 MLOAD DUP2 LT PUSH2 0xEB5 JUMPI PUSH2 0xEB4 PUSH2 0x47FF JUMP JUMPDEST JUMPDEST PUSH1 0x20 MUL PUSH1 0x20 ADD ADD DUP2 DUP2 MSTORE POP POP DUP1 DUP1 PUSH1 0x1 ADD SWAP2 POP POP PUSH2 0xE22 JUMP JUMPDEST POP DUP2 DUP2 SWAP7 POP SWAP7 POP POP POP POP POP POP SWAP4 POP SWAP4 SWAP2 POP POP JUMP JUMPDEST PUSH2 0xF05 PUSH1 0x40 MLOAD DUP1 PUSH1 0x60 ADD PUSH1 0x40 MSTORE DUP1 PUSH1 0x3F DUP2 MSTORE PUSH1 0x20 ADD PUSH2 0x5465 PUSH1 0x3F SWAP2 CODECOPY DUP4 DUP4 PUSH2 0x1B7D JUMP JUMPDEST PUSH0 PUSH1 0x4 PUSH0 SWAP1 SLOAD SWAP1 PUSH2 0x100 EXP SWAP1 DIV PUSH20 0xFFFFFFFFFFFFFFFFFFFFFFFFFFFFFFFFFFFFFFFF AND PUSH20 0xFFFFFFFFFFFFFFFFFFFFFFFFFFFFFFFFFFFFFFFF AND PUSH4 0x6C331BD3 DUP5 DUP5 PUSH1 0x40 MLOAD DUP4 PUSH4 0xFFFFFFFF AND PUSH1 0xE0 SHL DUP2 MSTORE PUSH1 0x4 ADD PUSH2 0xF62 SWAP3 SWAP2 SWAP1 PUSH2 0x4559 JUMP JUMPDEST PUSH0 PUSH1 0x40 MLOAD DUP1 DUP4 SUB DUP2 DUP7 GAS STATICCALL ISZERO DUP1 ISZERO PUSH2 0xF7C JUMPI RETURNDATASIZE PUSH0 DUP1 RETURNDATACOPY RETURNDATASIZE PUSH0 REVERT JUMPDEST POP POP POP POP PUSH1 0x40 MLOAD RETURNDATASIZE PUSH0 DUP3 RETURNDATACOPY RETURNDATASIZE PUSH1 0x1F NOT PUSH1 0x1F DUP3 ADD AND DUP3 ADD DUP1 PUSH1 0x40 MSTORE POP DUP2 ADD SWAP1 PUSH2 0xFA4 SWAP2 SWAP1 PUSH2 0x4750 JUMP JUMPDEST SWAP1 POP PUSH2 0xFE6 PUSH1 0x40 MLOAD DUP1 PUSH1 0x40 ADD PUSH1 0x40 MSTORE DUP1 PUSH1 0x14 DUP2 MSTORE PUSH1 0x20 ADD PUSH32 0x4E756D626572206F662067726F7570733A202573000000000000000000000000 DUP2 MSTORE POP DUP3 MLOAD PUSH2 0x225E JUMP JUMPDEST PUSH0 JUMPDEST DUP2 MLOAD DUP2 LT ISZERO PUSH2 0x1157 JUMPI PUSH2 0x1013 PUSH1 0x40 MLOAD DUP1 PUSH1 0x60 ADD PUSH1 0x40 MSTORE DUP1 PUSH1 0x22 DUP2 MSTORE PUSH1 0x20 ADD PUSH2 0x540A PUSH1 0x22 SWAP2 CODECOPY DUP3 PUSH2 0x225E JUMP JUMPDEST ADDRESS PUSH20 0xFFFFFFFFFFFFFFFFFFFFFFFFFFFFFFFFFFFFFFFF AND PUSH4 0x17DD9E73 DUP6 DUP6 DUP5 PUSH1 0x40 MLOAD DUP5 PUSH4 0xFFFFFFFF AND PUSH1 0xE0 SHL DUP2 MSTORE PUSH1 0x4 ADD PUSH2 0x1050 SWAP4 SWAP3 SWAP2 SWAP1 PUSH2 0x49FB JUMP JUMPDEST PUSH0 PUSH1 0x40 MLOAD DUP1 DUP4 SUB DUP2 PUSH0 DUP8 DUP1 EXTCODESIZE ISZERO DUP1 ISZERO PUSH2 0x1067 JUMPI PUSH0 DUP1 REVERT JUMPDEST POP GAS CALL SWAP3 POP POP POP DUP1 ISZERO PUSH2 0x1078 JUMPI POP PUSH1 0x1 JUMPDEST PUSH2 0x1127 JUMPI PUSH2 0x1084 PUSH2 0x4A3C JUMP JUMPDEST DUP1 PUSH4 0x8C379A0 SUB PUSH2 0x10CC JUMPI POP PUSH2 0x1098 PUSH2 0x4A5B JUMP JUMPDEST DUP1 PUSH2 0x10A3 JUMPI POP PUSH2 0x10CE JUMP JUMPDEST PUSH2 0x10C6 PUSH1 0x40 MLOAD DUP1 PUSH1 0x60 ADD PUSH1 0x40 MSTORE DUP1 PUSH1 0x2A DUP2 MSTORE PUSH1 0x20 ADD PUSH2 0x54F1 PUSH1 0x2A SWAP2 CODECOPY DUP4 DUP4 PUSH2 0x274A JUMP JUMPDEST POP PUSH2 0x1122 JUMP JUMPDEST POP JUMPDEST RETURNDATASIZE DUP1 PUSH0 DUP2 EQ PUSH2 0x10F8 JUMPI PUSH1 0x40 MLOAD SWAP2 POP PUSH1 0x1F NOT PUSH1 0x3F RETURNDATASIZE ADD AND DUP3 ADD PUSH1 0x40 MSTORE RETURNDATASIZE DUP3 MSTORE RETURNDATASIZE PUSH0 PUSH1 0x20 DUP5 ADD RETURNDATACOPY PUSH2 0x10FD JUMP JUMPDEST PUSH1 0x60 SWAP2 POP JUMPDEST POP PUSH2 0x1120 PUSH1 0x40 MLOAD DUP1 PUSH1 0x60 ADD PUSH1 0x40 MSTORE DUP1 PUSH1 0x39 DUP2 MSTORE PUSH1 0x20 ADD PUSH2 0x542C PUSH1 0x39 SWAP2 CODECOPY DUP4 PUSH2 0x225E JUMP JUMPDEST POP JUMPDEST PUSH2 0x114A JUMP JUMPDEST PUSH2 0x1149 PUSH1 0x40 MLOAD DUP1 PUSH1 0x60 ADD PUSH1 0x40 MSTORE DUP1 PUSH1 0x21 DUP2 MSTORE PUSH1 0x20 ADD PUSH2 0x551B PUSH1 0x21 SWAP2 CODECOPY DUP3 PUSH2 0x225E JUMP JUMPDEST JUMPDEST DUP1 DUP1 PUSH1 0x1 ADD SWAP2 POP POP PUSH2 0xFE8 JUMP JUMPDEST POP POP POP POP JUMP JUMPDEST PUSH1 0x60 DUP1 PUSH0 DUP1 PUSH1 0x7 PUSH0 DUP9 DUP2 MSTORE PUSH1 0x20 ADD SWAP1 DUP2 MSTORE PUSH1 0x20 ADD PUSH0 KECCAK256 PUSH0 DUP8 DUP2 MSTORE PUSH1 0x20 ADD SWAP1 DUP2 MSTORE PUSH1 0x20 ADD PUSH0 KECCAK256 PUSH0 DUP7 DUP2 MSTORE PUSH1 0x20 ADD SWAP1 DUP2 MSTORE PUSH1 0x20 ADD PUSH0 KECCAK256 SWAP1 POP DUP1 PUSH0 ADD DUP2 PUSH1 0x1 ADD DUP3 PUSH1 0x2 ADD SLOAD DUP3 DUP1 SLOAD DUP1 PUSH1 0x20 MUL PUSH1 0x20 ADD PUSH1 0x40 MLOAD SWAP1 DUP2 ADD PUSH1 0x40 MSTORE DUP1 SWAP3 SWAP2 SWAP1 DUP2 DUP2 MSTORE PUSH1 0x20 ADD DUP3 DUP1 SLOAD DUP1 ISZERO PUSH2 0x11E8 JUMPI PUSH1 0x20 MUL DUP3 ADD SWAP2 SWAP1 PUSH0 MSTORE PUSH1 0x20 PUSH0 KECCAK256 SWAP1 JUMPDEST DUP2 SLOAD DUP2 MSTORE PUSH1 0x20 ADD SWAP1 PUSH1 0x1 ADD SWAP1 DUP1 DUP4 GT PUSH2 0x11D4 JUMPI JUMPDEST POP POP POP POP POP SWAP3 POP DUP2 DUP1 SLOAD DUP1 PUSH1 0x20 MUL PUSH1 0x20 ADD PUSH1 0x40 MLOAD SWAP1 DUP2 ADD PUSH1 0x40 MSTORE DUP1 SWAP3 SWAP2 SWAP1 DUP2 DUP2 MSTORE PUSH1 0x20 ADD DUP3 DUP1 SLOAD DUP1 ISZERO PUSH2 0x1238 JUMPI PUSH1 0x20 MUL DUP3 ADD SWAP2 SWAP1 PUSH0 MSTORE PUSH1 0x20 PUSH0 KECCAK256 SWAP1 JUMPDEST DUP2 SLOAD DUP2 MSTORE PUSH1 0x20 ADD SWAP1 PUSH1 0x1 ADD SWAP1 DUP1 DUP4 GT PUSH2 0x1224 JUMPI JUMPDEST POP POP POP POP POP SWAP2 POP SWAP4 POP SWAP4 POP SWAP4 POP POP SWAP4 POP SWAP4 POP SWAP4 SWAP1 POP JUMP JUMPDEST PUSH1 0x60 DUP2 MLOAD DUP4 MLOAD EQ PUSH2 0x129B JUMPI DUP2 MLOAD DUP4 MLOAD PUSH1 0x40 MLOAD PUSH32 0x5B05999100000000000000000000000000000000000000000000000000000000 DUP2 MSTORE PUSH1 0x4 ADD PUSH2 0x1292 SWAP3 SWAP2 SWAP1 PUSH2 0x4559 JUMP JUMPDEST PUSH1 0x40 MLOAD DUP1 SWAP2 SUB SWAP1 REVERT JUMPDEST PUSH0 DUP4 MLOAD PUSH8 0xFFFFFFFFFFFFFFFF DUP2 GT ISZERO PUSH2 0x12B7 JUMPI PUSH2 0x12B6 PUSH2 0x3B42 JUMP JUMPDEST JUMPDEST PUSH1 0x40 MLOAD SWAP1 DUP1 DUP3 MSTORE DUP1 PUSH1 0x20 MUL PUSH1 0x20 ADD DUP3 ADD PUSH1 0x40 MSTORE DUP1 ISZERO PUSH2 0x12E5 JUMPI DUP2 PUSH1 0x20 ADD PUSH1 0x20 DUP3 MUL DUP1 CALLDATASIZE DUP4 CALLDATACOPY DUP1 DUP3 ADD SWAP2 POP POP SWAP1 POP JUMPDEST POP SWAP1 POP PUSH0 JUMPDEST DUP5 MLOAD DUP2 LT ISZERO PUSH2 0x134B JUMPI PUSH2 0x1321 PUSH2 0x1309 DUP3 DUP8 PUSH2 0x27E9 SWAP1 SWAP2 SWAP1 PUSH4 0xFFFFFFFF AND JUMP JUMPDEST PUSH2 0x131C DUP4 DUP8 PUSH2 0x27FC SWAP1 SWAP2 SWAP1 PUSH4 0xFFFFFFFF AND JUMP JUMPDEST PUSH2 0x42F JUMP JUMPDEST DUP3 DUP3 DUP2 MLOAD DUP2 LT PUSH2 0x1334 JUMPI PUSH2 0x1333 PUSH2 0x47FF JUMP JUMPDEST JUMPDEST PUSH1 0x20 MUL PUSH1 0x20 ADD ADD DUP2 DUP2 MSTORE POP POP DUP1 PUSH1 0x1 ADD SWAP1 POP PUSH2 0x12EA JUMP JUMPDEST POP DUP1 SWAP2 POP POP SWAP3 SWAP2 POP POP JUMP JUMPDEST PUSH2 0x135E PUSH2 0x280F JUMP JUMPDEST PUSH1 0x8 PUSH0 DUP3 DUP2 MSTORE PUSH1 0x20 ADD SWAP1 DUP2 MSTORE PUSH1 0x20 ADD PUSH0 KECCAK256 PUSH0 SWAP1 SLOAD SWAP1 PUSH2 0x100 EXP SWAP1 DIV PUSH1 0xFF AND ISZERO PUSH2 0x13BC JUMPI PUSH1 0x40 MLOAD PUSH32 0x8C379A000000000000000000000000000000000000000000000000000000000 DUP2 MSTORE PUSH1 0x4 ADD PUSH2 0x13B3 SWAP1 PUSH2 0x4B34 JUMP JUMPDEST PUSH1 0x40 MLOAD DUP1 SWAP2 SUB SWAP1 REVERT JUMPDEST PUSH1 0x1 PUSH1 0x8 PUSH0 DUP4 DUP2 MSTORE PUSH1 0x20 ADD SWAP1 DUP2 MSTORE PUSH1 0x20 ADD PUSH0 KECCAK256 PUSH0 PUSH2 0x100 EXP DUP2 SLOAD DUP2 PUSH1 0xFF MUL NOT AND SWAP1 DUP4 ISZERO ISZERO MUL OR SWAP1 SSTORE POP POP JUMP JUMPDEST PUSH2 0x13F0 PUSH2 0x280F JUMP JUMPDEST PUSH2 0x13F9 PUSH0 PUSH2 0x2896 JUMP JUMPDEST JUMP JUMPDEST PUSH0 PUSH1 0x3 PUSH0 SWAP1 SLOAD SWAP1 PUSH2 0x100 EXP SWAP1 DIV PUSH20 0xFFFFFFFFFFFFFFFFFFFFFFFFFFFFFFFFFFFFFFFF AND SWAP1 POP SWAP1 JUMP JUMPDEST PUSH2 0x1435 PUSH2 0x142E PUSH2 0x264F JUMP JUMPDEST DUP4 DUP4 PUSH2 0x2959 JUMP JUMPDEST POP POP JUMP JUMPDEST PUSH0 DUP1 PUSH1 0x5 PUSH0 SWAP1 SLOAD SWAP1 PUSH2 0x100 EXP SWAP1 DIV PUSH20 0xFFFFFFFFFFFFFFFFFFFFFFFFFFFFFFFFFFFFFFFF AND PUSH20 0xFFFFFFFFFFFFFFFFFFFFFFFFFFFFFFFFFFFFFFFF AND PUSH4 0x99664245 DUP8 PUSH1 0x40 MLOAD DUP3 PUSH4 0xFFFFFFFF AND PUSH1 0xE0 SHL DUP2 MSTORE PUSH1 0x4 ADD PUSH2 0x1495 SWAP2 SWAP1 PUSH2 0x37B8 JUMP JUMPDEST PUSH0 PUSH1 0x40 MLOAD DUP1 DUP4 SUB DUP2 DUP7 GAS STATICCALL ISZERO DUP1 ISZERO PUSH2 0x14AF JUMPI RETURNDATASIZE PUSH0 DUP1 RETURNDATACOPY RETURNDATASIZE PUSH0 REVERT JUMPDEST POP POP POP POP PUSH1 0x40 MLOAD RETURNDATASIZE PUSH0 DUP3 RETURNDATACOPY RETURNDATASIZE PUSH1 0x1F NOT PUSH1 0x1F DUP3 ADD AND DUP3 ADD DUP1 PUSH1 0x40 MSTORE POP DUP2 ADD SWAP1 PUSH2 0x14D7 SWAP2 SWAP1 PUSH2 0x4427 JUMP JUMPDEST POP SWAP7 POP SWAP7 POP POP POP POP POP POP DUP1 DUP6 EQ PUSH2 0x1523 JUMPI PUSH1 0x40 MLOAD PUSH32 0x8C379A000000000000000000000000000000000000000000000000000000000 DUP2 MSTORE PUSH1 0x4 ADD PUSH2 0x151A SWAP1 PUSH2 0x4BC2 JUMP JUMPDEST PUSH1 0x40 MLOAD DUP1 SWAP2 SUB SWAP1 REVERT JUMPDEST PUSH0 PUSH1 0x4 PUSH0 SWAP1 SLOAD SWAP1 PUSH2 0x100 EXP SWAP1 DIV PUSH20 0xFFFFFFFFFFFFFFFFFFFFFFFFFFFFFFFFFFFFFFFF AND PUSH20 0xFFFFFFFFFFFFFFFFFFFFFFFFFFFFFFFFFFFFFFFF AND PUSH4 0x6C331BD3 DUP9 DUP9 PUSH1 0x40 MLOAD DUP4 PUSH4 0xFFFFFFFF AND PUSH1 0xE0 SHL DUP2 MSTORE PUSH1 0x4 ADD PUSH2 0x1580 SWAP3 SWAP2 SWAP1 PUSH2 0x4559 JUMP JUMPDEST PUSH0 PUSH1 0x40 MLOAD DUP1 DUP4 SUB DUP2 DUP7 GAS STATICCALL ISZERO DUP1 ISZERO PUSH2 0x159A JUMPI RETURNDATASIZE PUSH0 DUP1 RETURNDATACOPY RETURNDATASIZE PUSH0 REVERT JUMPDEST POP POP POP POP PUSH1 0x40 MLOAD RETURNDATASIZE PUSH0 DUP3 RETURNDATACOPY RETURNDATASIZE PUSH1 0x1F NOT PUSH1 0x1F DUP3 ADD AND DUP3 ADD DUP1 PUSH1 0x40 MSTORE POP DUP2 ADD SWAP1 PUSH2 0x15C2 SWAP2 SWAP1 PUSH2 0x4750 JUMP JUMPDEST SWAP1 POP DUP1 MLOAD DUP6 LT PUSH2 0x1607 JUMPI PUSH1 0x40 MLOAD PUSH32 0x8C379A000000000000000000000000000000000000000000000000000000000 DUP2 MSTORE PUSH1 0x4 ADD PUSH2 0x15FE SWAP1 PUSH2 0x47E1 JUMP JUMPDEST PUSH1 0x40 MLOAD DUP1 SWAP2 SUB SWAP1 REVERT JUMPDEST PUSH0 DUP2 DUP7 DUP2 MLOAD DUP2 LT PUSH2 0x161B JUMPI PUSH2 0x161A PUSH2 0x47FF JUMP JUMPDEST JUMPDEST PUSH1 0x20 MUL PUSH1 0x20 ADD ADD MLOAD SWAP1 POP DUP1 PUSH0 ADD MLOAD MLOAD DUP6 MLOAD EQ PUSH2 0x166C JUMPI PUSH1 0x40 MLOAD PUSH32 0x8C379A000000000000000000000000000000000000000000000000000000000 DUP2 MSTORE PUSH1 0x4 ADD PUSH2 0x1663 SWAP1 PUSH2 0x4C50 JUMP JUMPDEST PUSH1 0x40 MLOAD DUP1 SWAP2 SUB SWAP1 REVERT JUMPDEST PUSH2 0x1676 DUP2 CALLER PUSH2 0x2AC2 JUMP JUMPDEST PUSH2 0x16B5 JUMPI PUSH1 0x40 MLOAD PUSH32 0x8C379A000000000000000000000000000000000000000000000000000000000 DUP2 MSTORE PUSH1 0x4 ADD PUSH2 0x16AC SWAP1 PUSH2 0x4CB8 JUMP JUMPDEST PUSH1 0x40 MLOAD DUP1 SWAP2 SUB SWAP1 REVERT JUMPDEST PUSH0 PUSH1 0x6 PUSH0 DUP11 DUP2 MSTORE PUSH1 0x20 ADD SWAP1 DUP2 MSTORE PUSH1 0x20 ADD PUSH0 KECCAK256 PUSH0 DUP10 DUP2 MSTORE PUSH1 0x20 ADD SWAP1 DUP2 MSTORE PUSH1 0x20 ADD PUSH0 KECCAK256 PUSH0 DUP9 DUP2 MSTORE PUSH1 0x20 ADD SWAP1 DUP2 MSTORE PUSH1 0x20 ADD PUSH0 KECCAK256 PUSH0 CALLER PUSH20 0xFFFFFFFFFFFFFFFFFFFFFFFFFFFFFFFFFFFFFFFF AND PUSH20 0xFFFFFFFFFFFFFFFFFFFFFFFFFFFFFFFFFFFFFFFF AND DUP2 MSTORE PUSH1 0x20 ADD SWAP1 DUP2 MSTORE PUSH1 0x20 ADD PUSH0 KECCAK256 PUSH0 ADD DUP1 SLOAD SWAP1 POP EQ PUSH2 0x1766 JUMPI PUSH1 0x40 MLOAD PUSH32 0x8C379A000000000000000000000000000000000000000000000000000000000 DUP2 MSTORE PUSH1 0x4 ADD PUSH2 0x175D SWAP1 PUSH2 0x4D20 JUMP JUMPDEST PUSH1 0x40 MLOAD DUP1 SWAP2 SUB SWAP1 REVERT JUMPDEST PUSH1 0x40 MLOAD DUP1 PUSH1 0x20 ADD PUSH1 0x40 MSTORE DUP1 DUP7 DUP2 MSTORE POP PUSH1 0x6 PUSH0 DUP11 DUP2 MSTORE PUSH1 0x20 ADD SWAP1 DUP2 MSTORE PUSH1 0x20 ADD PUSH0 KECCAK256 PUSH0 DUP10 DUP2 MSTORE PUSH1 0x20 ADD SWAP1 DUP2 MSTORE PUSH1 0x20 ADD PUSH0 KECCAK256 PUSH0 DUP9 DUP2 MSTORE PUSH1 0x20 ADD SWAP1 DUP2 MSTORE PUSH1 0x20 ADD PUSH0 KECCAK256 PUSH0 CALLER PUSH20 0xFFFFFFFFFFFFFFFFFFFFFFFFFFFFFFFFFFFFFFFF AND PUSH20 0xFFFFFFFFFFFFFFFFFFFFFFFFFFFFFFFFFFFFFFFF AND DUP2 MSTORE PUSH1 0x20 ADD SWAP1 DUP2 MSTORE PUSH1 0x20 ADD PUSH0 KECCAK256 PUSH0 DUP3 ADD MLOAD DUP2 PUSH0 ADD SWAP1 DUP1 MLOAD SWAP1 PUSH1 0x20 ADD SWAP1 PUSH2 0x17F9 SWAP3 SWAP2 SWAP1 PUSH2 0x3667 JUMP JUMPDEST POP SWAP1 POP POP CALLER PUSH20 0xFFFFFFFFFFFFFFFFFFFFFFFFFFFFFFFFFFFFFFFF AND DUP9 PUSH32 0xE2D0F4A25C2B0CC7CCDA020BCD4293DCEFFB51708B88B9C58EF71A0AB96B5E16 DUP10 DUP10 PUSH1 0x40 MLOAD PUSH2 0x1846 SWAP3 SWAP2 SWAP1 PUSH2 0x4559 JUMP JUMPDEST PUSH1 0x40 MLOAD DUP1 SWAP2 SUB SWAP1 LOG3 POP POP POP POP POP POP POP POP JUMP JUMPDEST PUSH1 0x8 PUSH1 0x20 MSTORE DUP1 PUSH0 MSTORE PUSH1 0x40 PUSH0 KECCAK256 PUSH0 SWAP2 POP SLOAD SWAP1 PUSH2 0x100 EXP SWAP1 DIV PUSH1 0xFF AND DUP2 JUMP JUMPDEST PUSH1 0x4 PUSH0 SWAP1 SLOAD SWAP1 PUSH2 0x100 EXP SWAP1 DIV PUSH20 0xFFFFFFFFFFFFFFFFFFFFFFFFFFFFFFFFFFFFFFFF AND DUP2 JUMP JUMPDEST PUSH0 PUSH1 0x1 PUSH0 DUP5 PUSH20 0xFFFFFFFFFFFFFFFFFFFFFFFFFFFFFFFFFFFFFFFF AND PUSH20 0xFFFFFFFFFFFFFFFFFFFFFFFFFFFFFFFFFFFFFFFF AND DUP2 MSTORE PUSH1 0x20 ADD SWAP1 DUP2 MSTORE PUSH1 0x20 ADD PUSH0 KECCAK256 PUSH0 DUP4 PUSH20 0xFFFFFFFFFFFFFFFFFFFFFFFFFFFFFFFFFFFFFFFF AND PUSH20 0xFFFFFFFFFFFFFFFFFFFFFFFFFFFFFFFFFFFFFFFF AND DUP2 MSTORE PUSH1 0x20 ADD SWAP1 DUP2 MSTORE PUSH1 0x20 ADD PUSH0 KECCAK256 PUSH0 SWAP1 SLOAD SWAP1 PUSH2 0x100 EXP SWAP1 DIV PUSH1 0xFF AND SWAP1 POP SWAP3 SWAP2 POP POP JUMP JUMPDEST PUSH0 PUSH2 0x1931 PUSH2 0x264F JUMP JUMPDEST SWAP1 POP DUP1 PUSH20 0xFFFFFFFFFFFFFFFFFFFFFFFFFFFFFFFFFFFFFFFF AND DUP7 PUSH20 0xFFFFFFFFFFFFFFFFFFFFFFFFFFFFFFFFFFFFFFFF AND EQ ISZERO DUP1 ISZERO PUSH2 0x1976 JUMPI POP PUSH2 0x1974 DUP7 DUP3 PUSH2 0x189A JUMP JUMPDEST ISZERO JUMPDEST ISZERO PUSH2 0x19BA JUMPI DUP1 DUP7 PUSH1 0x40 MLOAD PUSH32 0xE237D92200000000000000000000000000000000000000000000000000000000 DUP2 MSTORE PUSH1 0x4 ADD PUSH2 0x19B1 SWAP3 SWAP2 SWAP1 PUSH2 0x49D4 JUMP JUMPDEST PUSH1 0x40 MLOAD DUP1 SWAP2 SUB SWAP1 REVERT JUMPDEST PUSH2 0x19C7 DUP7 DUP7 DUP7 DUP7 DUP7 PUSH2 0x2B46 JUMP JUMPDEST POP POP POP POP POP POP JUMP JUMPDEST PUSH2 0x19D7 PUSH2 0x280F JUMP JUMPDEST PUSH0 PUSH20 0xFFFFFFFFFFFFFFFFFFFFFFFFFFFFFFFFFFFFFFFF AND DUP2 PUSH20 0xFFFFFFFFFFFFFFFFFFFFFFFFFFFFFFFFFFFFFFFF AND SUB PUSH2 0x1A47 JUMPI PUSH0 PUSH1 0x40 MLOAD PUSH32 0x1E4FBDF700000000000000000000000000000000000000000000000000000000 DUP2 MSTORE PUSH1 0x4 ADD PUSH2 0x1A3E SWAP2 SWAP1 PUSH2 0x40AB JUMP JUMPDEST PUSH1 0x40 MLOAD DUP1 SWAP2 SUB SWAP1 REVERT JUMPDEST PUSH2 0x1A50 DUP2 PUSH2 0x2896 JUMP JUMPDEST POP JUMP JUMPDEST PUSH0 PUSH11 0x636F6E736F6C652E6C6F67 SWAP1 POP PUSH0 DUP1 DUP4 MLOAD PUSH1 0x20 DUP6 ADD DUP5 GAS STATICCALL POP POP POP JUMP JUMPDEST PUSH0 PUSH32 0x1FFC9A700000000000000000000000000000000000000000000000000000000 PUSH28 0xFFFFFFFFFFFFFFFFFFFFFFFFFFFFFFFFFFFFFFFFFFFFFFFFFFFFFFFF NOT AND DUP3 PUSH28 0xFFFFFFFFFFFFFFFFFFFFFFFFFFFFFFFFFFFFFFFFFFFFFFFFFFFFFFFF NOT AND EQ SWAP1 POP SWAP2 SWAP1 POP JUMP JUMPDEST PUSH2 0x1B77 DUP5 DUP5 DUP5 DUP5 PUSH1 0x40 MLOAD PUSH1 0x24 ADD PUSH2 0x1AF5 SWAP5 SWAP4 SWAP3 SWAP2 SWAP1 PUSH2 0x4D3E JUMP JUMPDEST PUSH1 0x40 MLOAD PUSH1 0x20 DUP2 DUP4 SUB SUB DUP2 MSTORE SWAP1 PUSH1 0x40 MSTORE PUSH32 0xA7A8785300000000000000000000000000000000000000000000000000000000 PUSH28 0xFFFFFFFFFFFFFFFFFFFFFFFFFFFFFFFFFFFFFFFFFFFFFFFFFFFFFFFF NOT AND PUSH1 0x20 DUP3 ADD DUP1 MLOAD PUSH28 0xFFFFFFFFFFFFFFFFFFFFFFFFFFFFFFFFFFFFFFFFFFFFFFFFFFFFFFFF DUP4 DUP2 DUP4 AND OR DUP4 MSTORE POP POP POP POP PUSH2 0x2C4C JUMP JUMPDEST POP POP POP POP JUMP JUMPDEST PUSH2 0x1C17 DUP4 DUP4 DUP4 PUSH1 0x40 MLOAD PUSH1 0x24 ADD PUSH2 0x1B95 SWAP4 SWAP3 SWAP2 SWAP1 PUSH2 0x4D88 JUMP JUMPDEST PUSH1 0x40 MLOAD PUSH1 0x20 DUP2 DUP4 SUB SUB DUP2 MSTORE SWAP1 PUSH1 0x40 MSTORE PUSH32 0xCA47C4EB00000000000000000000000000000000000000000000000000000000 PUSH28 0xFFFFFFFFFFFFFFFFFFFFFFFFFFFFFFFFFFFFFFFFFFFFFFFFFFFFFFFF NOT AND PUSH1 0x20 DUP3 ADD DUP1 MLOAD PUSH28 0xFFFFFFFFFFFFFFFFFFFFFFFFFFFFFFFFFFFFFFFFFFFFFFFFFFFFFFFF DUP4 DUP2 DUP4 AND OR DUP4 MSTORE POP POP POP POP PUSH2 0x2C4C JUMP JUMPDEST POP POP POP JUMP JUMPDEST PUSH2 0x1CB2 DUP2 PUSH1 0x40 MLOAD PUSH1 0x24 ADD PUSH2 0x1C30 SWAP2 SWAP1 PUSH2 0x3993 JUMP JUMPDEST PUSH1 0x40 MLOAD PUSH1 0x20 DUP2 DUP4 SUB SUB DUP2 MSTORE SWAP1 PUSH1 0x40 MSTORE PUSH32 0x41304FAC00000000000000000000000000000000000000000000000000000000 PUSH28 0xFFFFFFFFFFFFFFFFFFFFFFFFFFFFFFFFFFFFFFFFFFFFFFFFFFFFFFFF NOT AND PUSH1 0x20 DUP3 ADD DUP1 MLOAD PUSH28 0xFFFFFFFFFFFFFFFFFFFFFFFFFFFFFFFFFFFFFFFFFFFFFFFFFFFFFFFF DUP4 DUP2 DUP4 AND OR DUP4 MSTORE POP POP POP POP PUSH2 0x2C4C JUMP JUMPDEST POP JUMP JUMPDEST PUSH0 DUP1 PUSH0 SWAP1 POP JUMPDEST DUP3 PUSH0 ADD MLOAD MLOAD DUP2 LT ISZERO PUSH2 0x1D70 JUMPI PUSH0 PUSH1 0x6 PUSH0 DUP9 DUP2 MSTORE PUSH1 0x20 ADD SWAP1 DUP2 MSTORE PUSH1 0x20 ADD PUSH0 KECCAK256 PUSH0 DUP8 DUP2 MSTORE PUSH1 0x20 ADD SWAP1 DUP2 MSTORE PUSH1 0x20 ADD PUSH0 KECCAK256 PUSH0 DUP7 DUP2 MSTORE PUSH1 0x20 ADD SWAP1 DUP2 MSTORE PUSH1 0x20 ADD PUSH0 KECCAK256 PUSH0 DUP6 PUSH0 ADD MLOAD DUP5 DUP2 MLOAD DUP2 LT PUSH2 0x1D0E JUMPI PUSH2 0x1D0D PUSH2 0x47FF JUMP JUMPDEST JUMPDEST PUSH1 0x20 MUL PUSH1 0x20 ADD ADD MLOAD PUSH20 0xFFFFFFFFFFFFFFFFFFFFFFFFFFFFFFFFFFFFFFFF AND PUSH20 0xFFFFFFFFFFFFFFFFFFFFFFFFFFFFFFFFFFFFFFFF AND DUP2 MSTORE PUSH1 0x20 ADD SWAP1 DUP2 MSTORE PUSH1 0x20 ADD PUSH0 KECCAK256 PUSH0 ADD DUP1 SLOAD SWAP1 POP SUB PUSH2 0x1D63 JUMPI PUSH0 SWAP2 POP POP PUSH2 0x1D76 JUMP JUMPDEST DUP1 DUP1 PUSH1 0x1 ADD SWAP2 POP POP PUSH2 0x1CBB JUMP JUMPDEST POP PUSH1 0x1 SWAP1 POP JUMPDEST SWAP5 SWAP4 POP POP POP POP JUMP JUMPDEST PUSH2 0x1E16 DUP3 DUP3 PUSH1 0x40 MLOAD PUSH1 0x24 ADD PUSH2 0x1D94 SWAP3 SWAP2 SWAP1 PUSH2 0x4DC4 JUMP JUMPDEST PUSH1 0x40 MLOAD PUSH1 0x20 DUP2 DUP4 SUB SUB DUP2 MSTORE SWAP1 PUSH1 0x40 MSTORE PUSH32 0xC3B5563500000000000000000000000000000000000000000000000000000000 PUSH28 0xFFFFFFFFFFFFFFFFFFFFFFFFFFFFFFFFFFFFFFFFFFFFFFFFFFFFFFFF NOT AND PUSH1 0x20 DUP3 ADD DUP1 MLOAD PUSH28 0xFFFFFFFFFFFFFFFFFFFFFFFFFFFFFFFFFFFFFFFFFFFFFFFFFFFFFFFF DUP4 DUP2 DUP4 AND OR DUP4 MSTORE POP POP POP POP PUSH2 0x2C4C JUMP JUMPDEST POP POP JUMP JUMPDEST PUSH0 DUP1 DUP3 PUSH0 ADD MLOAD MLOAD PUSH8 0xFFFFFFFFFFFFFFFF DUP2 GT ISZERO PUSH2 0x1E3A JUMPI PUSH2 0x1E39 PUSH2 0x3B42 JUMP JUMPDEST JUMPDEST PUSH1 0x40 MLOAD SWAP1 DUP1 DUP3 MSTORE DUP1 PUSH1 0x20 MUL PUSH1 0x20 ADD DUP3 ADD PUSH1 0x40 MSTORE DUP1 ISZERO PUSH2 0x1E68 JUMPI DUP2 PUSH1 0x20 ADD PUSH1 0x20 DUP3 MUL DUP1 CALLDATASIZE DUP4 CALLDATACOPY DUP1 DUP3 ADD SWAP2 POP POP SWAP1 POP JUMPDEST POP SWAP1 POP PUSH0 JUMPDEST DUP4 PUSH0 ADD MLOAD MLOAD DUP2 LT ISZERO PUSH2 0x1F49 JUMPI PUSH1 0x6 PUSH0 DUP10 DUP2 MSTORE PUSH1 0x20 ADD SWAP1 DUP2 MSTORE PUSH1 0x20 ADD PUSH0 KECCAK256 PUSH0 DUP9 DUP2 MSTORE PUSH1 0x20 ADD SWAP1 DUP2 MSTORE PUSH1 0x20 ADD PUSH0 KECCAK256 PUSH0 DUP8 DUP2 MSTORE PUSH1 0x20 ADD SWAP1 DUP2 MSTORE PUSH1 0x20 ADD PUSH0 KECCAK256 PUSH0 DUP6 PUSH0 ADD MLOAD DUP4 DUP2 MLOAD DUP2 LT PUSH2 0x1EBF JUMPI PUSH2 0x1EBE PUSH2 0x47FF JUMP JUMPDEST JUMPDEST PUSH1 0x20 MUL PUSH1 0x20 ADD ADD MLOAD PUSH20 0xFFFFFFFFFFFFFFFFFFFFFFFFFFFFFFFFFFFFFFFF AND PUSH20 0xFFFFFFFFFFFFFFFFFFFFFFFFFFFFFFFFFFFFFFFF AND DUP2 MSTORE PUSH1 0x20 ADD SWAP1 DUP2 MSTORE PUSH1 0x20 ADD PUSH0 KECCAK256 PUSH0 ADD DUP6 DUP2 SLOAD DUP2 LT PUSH2 0x1F14 JUMPI PUSH2 0x1F13 PUSH2 0x47FF JUMP JUMPDEST JUMPDEST SWAP1 PUSH0 MSTORE PUSH1 0x20 PUSH0 KECCAK256 ADD SLOAD DUP3 DUP3 DUP2 MLOAD DUP2 LT PUSH2 0x1F30 JUMPI PUSH2 0x1F2F PUSH2 0x47FF JUMP JUMPDEST JUMPDEST PUSH1 0x20 MUL PUSH1 0x20 ADD ADD DUP2 DUP2 MSTORE POP POP DUP1 DUP1 PUSH1 0x1 ADD SWAP2 POP POP PUSH2 0x1E6D JUMP JUMPDEST POP PUSH0 PUSH2 0x1F54 DUP3 PUSH2 0x2C66 JUMP JUMPDEST SWAP1 POP PUSH0 PUSH2 0x1F60 DUP4 PUSH2 0x2CD4 JUMP JUMPDEST SWAP1 POP PUSH0 PUSH2 0x1F70 DUP7 PUSH0 ADD MLOAD MLOAD PUSH2 0x2D7A JUMP JUMPDEST SWAP1 POP PUSH0 DUP1 DUP3 SUB PUSH2 0x1F8A JUMPI PUSH8 0xDE0B6B3A7640000 SWAP1 POP PUSH2 0x1FBF JUMP JUMPDEST DUP2 PUSH8 0xDE0B6B3A7640000 DUP5 PUSH2 0x1F9F SWAP2 SWAP1 PUSH2 0x4E1F JUMP JUMPDEST PUSH2 0x1FA9 SWAP2 SWAP1 PUSH2 0x4E8D JUMP JUMPDEST PUSH8 0xDE0B6B3A7640000 PUSH2 0x1FBC SWAP2 SWAP1 PUSH2 0x4EBD JUMP JUMPDEST SWAP1 POP JUMPDEST PUSH8 0xDE0B6B3A7640000 DUP2 DUP6 PUSH2 0x1FD4 SWAP2 SWAP1 PUSH2 0x4E1F JUMP JUMPDEST PUSH2 0x1FDE SWAP2 SWAP1 PUSH2 0x4E8D JUMP JUMPDEST SWAP6 POP POP POP POP POP POP SWAP6 SWAP5 POP POP POP POP POP JUMP JUMPDEST PUSH1 0x60 PUSH0 DUP3 MLOAD PUSH8 0xFFFFFFFFFFFFFFFF DUP2 GT ISZERO PUSH2 0x200C JUMPI PUSH2 0x200B PUSH2 0x3B42 JUMP JUMPDEST JUMPDEST PUSH1 0x40 MLOAD SWAP1 DUP1 DUP3 MSTORE DUP1 PUSH1 0x20 MUL PUSH1 0x20 ADD DUP3 ADD PUSH1 0x40 MSTORE DUP1 ISZERO PUSH2 0x203A JUMPI DUP2 PUSH1 0x20 ADD PUSH1 0x20 DUP3 MUL DUP1 CALLDATASIZE DUP4 CALLDATACOPY DUP1 DUP3 ADD SWAP2 POP POP SWAP1 POP JUMPDEST POP SWAP1 POP PUSH0 JUMPDEST DUP2 MLOAD DUP2 LT ISZERO PUSH2 0x2075 JUMPI DUP1 DUP3 DUP3 DUP2 MLOAD DUP2 LT PUSH2 0x205C JUMPI PUSH2 0x205B PUSH2 0x47FF JUMP JUMPDEST JUMPDEST PUSH1 0x20 MUL PUSH1 0x20 ADD ADD DUP2 DUP2 MSTORE POP POP DUP1 DUP1 PUSH1 0x1 ADD SWAP2 POP POP PUSH2 0x203F JUMP JUMPDEST POP PUSH0 JUMPDEST PUSH1 0x1 DUP5 MLOAD PUSH2 0x2086 SWAP2 SWAP1 PUSH2 0x4EBD JUMP JUMPDEST DUP2 LT ISZERO PUSH2 0x21A7 JUMPI PUSH0 PUSH1 0x1 DUP3 PUSH2 0x209B SWAP2 SWAP1 PUSH2 0x4EF0 JUMP JUMPDEST SWAP1 POP JUMPDEST DUP5 MLOAD DUP2 LT ISZERO PUSH2 0x2199 JUMPI DUP5 DUP4 DUP3 DUP2 MLOAD DUP2 LT PUSH2 0x20BB JUMPI PUSH2 0x20BA PUSH2 0x47FF JUMP JUMPDEST JUMPDEST PUSH1 0x20 MUL PUSH1 0x20 ADD ADD MLOAD DUP2 MLOAD DUP2 LT PUSH2 0x20D4 JUMPI PUSH2 0x20D3 PUSH2 0x47FF JUMP JUMPDEST JUMPDEST PUSH1 0x20 MUL PUSH1 0x20 ADD ADD MLOAD DUP6 DUP5 DUP5 DUP2 MLOAD DUP2 LT PUSH2 0x20F0 JUMPI PUSH2 0x20EF PUSH2 0x47FF JUMP JUMPDEST JUMPDEST PUSH1 0x20 MUL PUSH1 0x20 ADD ADD MLOAD DUP2 MLOAD DUP2 LT PUSH2 0x2109 JUMPI PUSH2 0x2108 PUSH2 0x47FF JUMP JUMPDEST JUMPDEST PUSH1 0x20 MUL PUSH1 0x20 ADD ADD MLOAD LT ISZERO PUSH2 0x218C JUMPI DUP3 DUP2 DUP2 MLOAD DUP2 LT PUSH2 0x212A JUMPI PUSH2 0x2129 PUSH2 0x47FF JUMP JUMPDEST JUMPDEST PUSH1 0x20 MUL PUSH1 0x20 ADD ADD MLOAD DUP4 DUP4 DUP2 MLOAD DUP2 LT PUSH2 0x2145 JUMPI PUSH2 0x2144 PUSH2 0x47FF JUMP JUMPDEST JUMPDEST PUSH1 0x20 MUL PUSH1 0x20 ADD ADD MLOAD DUP5 DUP5 DUP2 MLOAD DUP2 LT PUSH2 0x2160 JUMPI PUSH2 0x215F PUSH2 0x47FF JUMP JUMPDEST JUMPDEST PUSH1 0x20 MUL PUSH1 0x20 ADD ADD DUP6 DUP5 DUP2 MLOAD DUP2 LT PUSH2 0x217A JUMPI PUSH2 0x2179 PUSH2 0x47FF JUMP JUMPDEST JUMPDEST PUSH1 0x20 MUL PUSH1 0x20 ADD ADD DUP3 DUP2 MSTORE POP DUP3 DUP2 MSTORE POP POP POP JUMPDEST DUP1 DUP1 PUSH1 0x1 ADD SWAP2 POP POP PUSH2 0x209E JUMP JUMPDEST POP DUP1 DUP1 PUSH1 0x1 ADD SWAP2 POP POP PUSH2 0x2078 JUMP JUMPDEST POP PUSH0 DUP4 MLOAD PUSH8 0xFFFFFFFFFFFFFFFF DUP2 GT ISZERO PUSH2 0x21C4 JUMPI PUSH2 0x21C3 PUSH2 0x3B42 JUMP JUMPDEST JUMPDEST PUSH1 0x40 MLOAD SWAP1 DUP1 DUP3 MSTORE DUP1 PUSH1 0x20 MUL PUSH1 0x20 ADD DUP3 ADD PUSH1 0x40 MSTORE DUP1 ISZERO PUSH2 0x21F2 JUMPI DUP2 PUSH1 0x20 ADD PUSH1 0x20 DUP3 MUL DUP1 CALLDATASIZE DUP4 CALLDATACOPY DUP1 DUP3 ADD SWAP2 POP POP SWAP1 POP JUMPDEST POP SWAP1 POP PUSH0 JUMPDEST DUP2 MLOAD DUP2 LT ISZERO PUSH2 0x2253 JUMPI DUP1 DUP6 MLOAD PUSH2 0x220D SWAP2 SWAP1 PUSH2 0x4EBD JUMP JUMPDEST DUP3 DUP5 DUP4 DUP2 MLOAD DUP2 LT PUSH2 0x2221 JUMPI PUSH2 0x2220 PUSH2 0x47FF JUMP JUMPDEST JUMPDEST PUSH1 0x20 MUL PUSH1 0x20 ADD ADD MLOAD DUP2 MLOAD DUP2 LT PUSH2 0x223A JUMPI PUSH2 0x2239 PUSH2 0x47FF JUMP JUMPDEST JUMPDEST PUSH1 0x20 MUL PUSH1 0x20 ADD ADD DUP2 DUP2 MSTORE POP POP DUP1 DUP1 PUSH1 0x1 ADD SWAP2 POP POP PUSH2 0x21F7 JUMP JUMPDEST POP DUP1 SWAP3 POP POP POP SWAP2 SWAP1 POP JUMP JUMPDEST PUSH2 0x22F6 DUP3 DUP3 PUSH1 0x40 MLOAD PUSH1 0x24 ADD PUSH2 0x2274 SWAP3 SWAP2 SWAP1 PUSH2 0x4F23 JUMP JUMPDEST PUSH1 0x40 MLOAD PUSH1 0x20 DUP2 DUP4 SUB SUB DUP2 MSTORE SWAP1 PUSH1 0x40 MSTORE PUSH32 0xB60E72CC00000000000000000000000000000000000000000000000000000000 PUSH28 0xFFFFFFFFFFFFFFFFFFFFFFFFFFFFFFFFFFFFFFFFFFFFFFFFFFFFFFFF NOT AND PUSH1 0x20 DUP3 ADD DUP1 MLOAD PUSH28 0xFFFFFFFFFFFFFFFFFFFFFFFFFFFFFFFFFFFFFFFFFFFFFFFFFFFFFFFF DUP4 DUP2 DUP4 AND OR DUP4 MSTORE POP POP POP POP PUSH2 0x2C4C JUMP JUMPDEST POP POP JUMP JUMPDEST PUSH0 PUSH1 0x7 PUSH0 DUP7 DUP2 MSTORE PUSH1 0x20 ADD SWAP1 DUP2 MSTORE PUSH1 0x20 ADD PUSH0 KECCAK256 PUSH0 DUP6 DUP2 MSTORE PUSH1 0x20 ADD SWAP1 DUP2 MSTORE PUSH1 0x20 ADD PUSH0 KECCAK256 PUSH0 DUP5 DUP2 MSTORE PUSH1 0x20 ADD SWAP1 DUP2 MSTORE PUSH1 0x20 ADD PUSH0 KECCAK256 PUSH0 ADD DUP1 SLOAD DUP1 PUSH1 0x20 MUL PUSH1 0x20 ADD PUSH1 0x40 MLOAD SWAP1 DUP2 ADD PUSH1 0x40 MSTORE DUP1 SWAP3 SWAP2 SWAP1 DUP2 DUP2 MSTORE PUSH1 0x20 ADD DUP3 DUP1 SLOAD DUP1 ISZERO PUSH2 0x2374 JUMPI PUSH1 0x20 MUL DUP3 ADD SWAP2 SWAP1 PUSH0 MSTORE PUSH1 0x20 PUSH0 KECCAK256 SWAP1 JUMPDEST DUP2 SLOAD DUP2 MSTORE PUSH1 0x20 ADD SWAP1 PUSH1 0x1 ADD SWAP1 DUP1 DUP4 GT PUSH2 0x2360 JUMPI JUMPDEST POP POP POP POP POP SWAP1 POP PUSH0 DUP3 PUSH0 ADD MLOAD MLOAD SWAP1 POP DUP1 DUP3 MLOAD EQ PUSH2 0x23C6 JUMPI PUSH1 0x40 MLOAD PUSH32 0x8C379A000000000000000000000000000000000000000000000000000000000 DUP2 MSTORE PUSH1 0x4 ADD PUSH2 0x23BD SWAP1 PUSH2 0x4F9B JUMP JUMPDEST PUSH1 0x40 MLOAD DUP1 SWAP2 SUB SWAP1 REVERT JUMPDEST PUSH0 JUMPDEST DUP2 DUP2 LT DUP1 ISZERO PUSH2 0x23DB JUMPI POP PUSH1 0x9 DUP1 SLOAD SWAP1 POP DUP2 LT JUMPDEST ISZERO PUSH2 0x2646 JUMPI PUSH0 DUP4 DUP3 DUP2 MLOAD DUP2 LT PUSH2 0x23F4 JUMPI PUSH2 0x23F3 PUSH2 0x47FF JUMP JUMPDEST JUMPDEST PUSH1 0x20 MUL PUSH1 0x20 ADD ADD MLOAD GT DUP1 ISZERO PUSH2 0x2423 JUMPI POP DUP2 DUP4 DUP3 DUP2 MLOAD DUP2 LT PUSH2 0x2418 JUMPI PUSH2 0x2417 PUSH2 0x47FF JUMP JUMPDEST JUMPDEST PUSH1 0x20 MUL PUSH1 0x20 ADD ADD MLOAD GT ISZERO JUMPDEST PUSH2 0x2462 JUMPI PUSH1 0x40 MLOAD PUSH32 0x8C379A000000000000000000000000000000000000000000000000000000000 DUP2 MSTORE PUSH1 0x4 ADD PUSH2 0x2459 SWAP1 PUSH2 0x5003 JUMP JUMPDEST PUSH1 0x40 MLOAD DUP1 SWAP2 SUB SWAP1 REVERT JUMPDEST PUSH0 DUP5 PUSH0 ADD MLOAD PUSH1 0x1 DUP6 DUP5 DUP2 MLOAD DUP2 LT PUSH2 0x247C JUMPI PUSH2 0x247B PUSH2 0x47FF JUMP JUMPDEST JUMPDEST PUSH1 0x20 MUL PUSH1 0x20 ADD ADD MLOAD PUSH2 0x248E SWAP2 SWAP1 PUSH2 0x4EBD JUMP JUMPDEST DUP2 MLOAD DUP2 LT PUSH2 0x249F JUMPI PUSH2 0x249E PUSH2 0x47FF JUMP JUMPDEST JUMPDEST PUSH1 0x20 MUL PUSH1 0x20 ADD ADD MLOAD SWAP1 POP PUSH0 PUSH1 0x9 DUP4 DUP2 SLOAD DUP2 LT PUSH2 0x24BE JUMPI PUSH2 0x24BD PUSH2 0x47FF JUMP JUMPDEST JUMPDEST SWAP1 PUSH0 MSTORE PUSH1 0x20 PUSH0 KECCAK256 ADD SLOAD SWAP1 POP PUSH0 PUSH20 0xFFFFFFFFFFFFFFFFFFFFFFFFFFFFFFFFFFFFFFFF AND DUP3 PUSH20 0xFFFFFFFFFFFFFFFFFFFFFFFFFFFFFFFFFFFFFFFF AND SUB PUSH2 0x2537 JUMPI PUSH1 0x40 MLOAD PUSH32 0x8C379A000000000000000000000000000000000000000000000000000000000 DUP2 MSTORE PUSH1 0x4 ADD PUSH2 0x252E SWAP1 PUSH2 0x506B JUMP JUMPDEST PUSH1 0x40 MLOAD DUP1 SWAP2 SUB SWAP1 REVERT JUMPDEST PUSH2 0x2551 DUP3 DUP11 DUP4 PUSH1 0x40 MLOAD DUP1 PUSH1 0x20 ADD PUSH1 0x40 MSTORE DUP1 PUSH0 DUP2 MSTORE POP PUSH2 0x2DF3 JUMP JUMPDEST PUSH1 0x4 PUSH0 SWAP1 SLOAD SWAP1 PUSH2 0x100 EXP SWAP1 DIV PUSH20 0xFFFFFFFFFFFFFFFFFFFFFFFFFFFFFFFFFFFFFFFF AND PUSH20 0xFFFFFFFFFFFFFFFFFFFFFFFFFFFFFFFFFFFFFFFF AND PUSH4 0x9807F9E8 DUP11 DUP5 DUP12 DUP6 PUSH1 0x40 MLOAD DUP6 PUSH4 0xFFFFFFFF AND PUSH1 0xE0 SHL DUP2 MSTORE PUSH1 0x4 ADD PUSH2 0x25B1 SWAP5 SWAP4 SWAP3 SWAP2 SWAP1 PUSH2 0x5089 JUMP JUMPDEST PUSH0 PUSH1 0x40 MLOAD DUP1 DUP4 SUB DUP2 PUSH0 DUP8 DUP1 EXTCODESIZE ISZERO DUP1 ISZERO PUSH2 0x25C8 JUMPI PUSH0 DUP1 REVERT JUMPDEST POP GAS CALL ISZERO DUP1 ISZERO PUSH2 0x25DA JUMPI RETURNDATASIZE PUSH0 DUP1 RETURNDATACOPY RETURNDATASIZE PUSH0 REVERT JUMPDEST POP POP POP POP DUP2 PUSH20 0xFFFFFFFFFFFFFFFFFFFFFFFFFFFFFFFFFFFFFFFF AND DUP10 PUSH32 0x76A56BEC00F93ABAD57F18250ECC099EE61D7E60E3CF6AE13D80BADBD8E2512A DUP11 DUP11 DUP6 PUSH1 0x40 MLOAD PUSH2 0x2629 SWAP4 SWAP3 SWAP2 SWAP1 PUSH2 0x49FB JUMP JUMPDEST PUSH1 0x40 MLOAD DUP1 SWAP2 SUB SWAP1 LOG3 POP POP DUP1 DUP1 PUSH2 0x263E SWAP1 PUSH2 0x50CC JUMP JUMPDEST SWAP2 POP POP PUSH2 0x23C8 JUMP JUMPDEST POP POP POP POP POP POP POP JUMP JUMPDEST PUSH0 CALLER SWAP1 POP SWAP1 JUMP JUMPDEST PUSH0 PUSH20 0xFFFFFFFFFFFFFFFFFFFFFFFFFFFFFFFFFFFFFFFF AND DUP5 PUSH20 0xFFFFFFFFFFFFFFFFFFFFFFFFFFFFFFFFFFFFFFFF AND SUB PUSH2 0x26C6 JUMPI PUSH0 PUSH1 0x40 MLOAD PUSH32 0x57F447CE00000000000000000000000000000000000000000000000000000000 DUP2 MSTORE PUSH1 0x4 ADD PUSH2 0x26BD SWAP2 SWAP1 PUSH2 0x40AB JUMP JUMPDEST PUSH1 0x40 MLOAD DUP1 SWAP2 SUB SWAP1 REVERT JUMPDEST PUSH0 PUSH20 0xFFFFFFFFFFFFFFFFFFFFFFFFFFFFFFFFFFFFFFFF AND DUP6 PUSH20 0xFFFFFFFFFFFFFFFFFFFFFFFFFFFFFFFFFFFFFFFF AND SUB PUSH2 0x2736 JUMPI PUSH0 PUSH1 0x40 MLOAD PUSH32 0x1A8351400000000000000000000000000000000000000000000000000000000 DUP2 MSTORE PUSH1 0x4 ADD PUSH2 0x272D SWAP2 SWAP1 PUSH2 0x40AB JUMP JUMPDEST PUSH1 0x40 MLOAD DUP1 SWAP2 SUB SWAP1 REVERT JUMPDEST PUSH2 0x2743 DUP6 DUP6 DUP6 DUP6 DUP6 PUSH2 0x2E88 JUMP JUMPDEST POP POP POP POP POP JUMP JUMPDEST PUSH2 0x27E4 DUP4 DUP4 DUP4 PUSH1 0x40 MLOAD PUSH1 0x24 ADD PUSH2 0x2762 SWAP4 SWAP3 SWAP2 SWAP1 PUSH2 0x5113 JUMP JUMPDEST PUSH1 0x40 MLOAD PUSH1 0x20 DUP2 DUP4 SUB SUB DUP2 MSTORE SWAP1 PUSH1 0x40 MSTORE PUSH32 0x5970E08900000000000000000000000000000000000000000000000000000000 PUSH28 0xFFFFFFFFFFFFFFFFFFFFFFFFFFFFFFFFFFFFFFFFFFFFFFFFFFFFFFFF NOT AND PUSH1 0x20 DUP3 ADD DUP1 MLOAD PUSH28 0xFFFFFFFFFFFFFFFFFFFFFFFFFFFFFFFFFFFFFFFFFFFFFFFFFFFFFFFF DUP4 DUP2 DUP4 AND OR DUP4 MSTORE POP POP POP POP PUSH2 0x2C4C JUMP JUMPDEST POP POP POP JUMP JUMPDEST PUSH0 PUSH1 0x20 DUP3 MUL PUSH1 0x20 DUP5 ADD ADD MLOAD SWAP1 POP SWAP3 SWAP2 POP POP JUMP JUMPDEST PUSH0 PUSH1 0x20 DUP3 MUL PUSH1 0x20 DUP5 ADD ADD MLOAD SWAP1 POP SWAP3 SWAP2 POP POP JUMP JUMPDEST PUSH2 0x2817 PUSH2 0x264F JUMP JUMPDEST PUSH20 0xFFFFFFFFFFFFFFFFFFFFFFFFFFFFFFFFFFFFFFFF AND PUSH2 0x2835 PUSH2 0x13FB JUMP JUMPDEST PUSH20 0xFFFFFFFFFFFFFFFFFFFFFFFFFFFFFFFFFFFFFFFF AND EQ PUSH2 0x2894 JUMPI PUSH2 0x2858 PUSH2 0x264F JUMP JUMPDEST PUSH1 0x40 MLOAD PUSH32 0x118CDAA700000000000000000000000000000000000000000000000000000000 DUP2 MSTORE PUSH1 0x4 ADD PUSH2 0x288B SWAP2 SWAP1 PUSH2 0x40AB JUMP JUMPDEST PUSH1 0x40 MLOAD DUP1 SWAP2 SUB SWAP1 REVERT JUMPDEST JUMP JUMPDEST PUSH0 PUSH1 0x3 PUSH0 SWAP1 SLOAD SWAP1 PUSH2 0x100 EXP SWAP1 DIV PUSH20 0xFFFFFFFFFFFFFFFFFFFFFFFFFFFFFFFFFFFFFFFF AND SWAP1 POP DUP2 PUSH1 0x3 PUSH0 PUSH2 0x100 EXP DUP2 SLOAD DUP2 PUSH20 0xFFFFFFFFFFFFFFFFFFFFFFFFFFFFFFFFFFFFFFFF MUL NOT AND SWAP1 DUP4 PUSH20 0xFFFFFFFFFFFFFFFFFFFFFFFFFFFFFFFFFFFFFFFF AND MUL OR SWAP1 SSTORE POP DUP2 PUSH20 0xFFFFFFFFFFFFFFFFFFFFFFFFFFFFFFFFFFFFFFFF AND DUP2 PUSH20 0xFFFFFFFFFFFFFFFFFFFFFFFFFFFFFFFFFFFFFFFF AND PUSH32 0x8BE0079C531659141344CD1FD0A4F28419497F9722A3DAAFE3B4186F6B6457E0 PUSH1 0x40 MLOAD PUSH1 0x40 MLOAD DUP1 SWAP2 SUB SWAP1 LOG3 POP POP JUMP JUMPDEST PUSH0 PUSH20 0xFFFFFFFFFFFFFFFFFFFFFFFFFFFFFFFFFFFFFFFF AND DUP3 PUSH20 0xFFFFFFFFFFFFFFFFFFFFFFFFFFFFFFFFFFFFFFFF AND SUB PUSH2 0x29C9 JUMPI PUSH0 PUSH1 0x40 MLOAD PUSH32 0xCED3E10000000000000000000000000000000000000000000000000000000000 DUP2 MSTORE PUSH1 0x4 ADD PUSH2 0x29C0 SWAP2 SWAP1 PUSH2 0x40AB JUMP JUMPDEST PUSH1 0x40 MLOAD DUP1 SWAP2 SUB SWAP1 REVERT JUMPDEST DUP1 PUSH1 0x1 PUSH0 DUP6 PUSH20 0xFFFFFFFFFFFFFFFFFFFFFFFFFFFFFFFFFFFFFFFF AND PUSH20 0xFFFFFFFFFFFFFFFFFFFFFFFFFFFFFFFFFFFFFFFF AND DUP2 MSTORE PUSH1 0x20 ADD SWAP1 DUP2 MSTORE PUSH1 0x20 ADD PUSH0 KECCAK256 PUSH0 DUP5 PUSH20 0xFFFFFFFFFFFFFFFFFFFFFFFFFFFFFFFFFFFFFFFF AND PUSH20 0xFFFFFFFFFFFFFFFFFFFFFFFFFFFFFFFFFFFFFFFF AND DUP2 MSTORE PUSH1 0x20 ADD SWAP1 DUP2 MSTORE PUSH1 0x20 ADD PUSH0 KECCAK256 PUSH0 PUSH2 0x100 EXP DUP2 SLOAD DUP2 PUSH1 0xFF MUL NOT AND SWAP1 DUP4 ISZERO ISZERO MUL OR SWAP1 SSTORE POP DUP2 PUSH20 0xFFFFFFFFFFFFFFFFFFFFFFFFFFFFFFFFFFFFFFFF AND DUP4 PUSH20 0xFFFFFFFFFFFFFFFFFFFFFFFFFFFFFFFFFFFFFFFF AND PUSH32 0x17307EAB39AB6107E8899845AD3D59BD9653F200F220920489CA2B5937696C31 DUP4 PUSH1 0x40 MLOAD PUSH2 0x2AB5 SWAP2 SWAP1 PUSH2 0x386B JUMP JUMPDEST PUSH1 0x40 MLOAD DUP1 SWAP2 SUB SWAP1 LOG3 POP POP POP JUMP JUMPDEST PUSH0 DUP1 PUSH0 SWAP1 POP JUMPDEST DUP4 PUSH0 ADD MLOAD MLOAD DUP2 LT ISZERO PUSH2 0x2B3B JUMPI DUP3 PUSH20 0xFFFFFFFFFFFFFFFFFFFFFFFFFFFFFFFFFFFFFFFF AND DUP5 PUSH0 ADD MLOAD DUP3 DUP2 MLOAD DUP2 LT PUSH2 0x2B01 JUMPI PUSH2 0x2B00 PUSH2 0x47FF JUMP JUMPDEST JUMPDEST PUSH1 0x20 MUL PUSH1 0x20 ADD ADD MLOAD PUSH20 0xFFFFFFFFFFFFFFFFFFFFFFFFFFFFFFFFFFFFFFFF AND SUB PUSH2 0x2B2E JUMPI PUSH1 0x1 SWAP2 POP POP PUSH2 0x2B40 JUMP JUMPDEST DUP1 DUP1 PUSH1 0x1 ADD SWAP2 POP POP PUSH2 0x2AC8 JUMP JUMPDEST POP PUSH0 SWAP1 POP JUMPDEST SWAP3 SWAP2 POP POP JUMP JUMPDEST PUSH0 PUSH20 0xFFFFFFFFFFFFFFFFFFFFFFFFFFFFFFFFFFFFFFFF AND DUP5 PUSH20 0xFFFFFFFFFFFFFFFFFFFFFFFFFFFFFFFFFFFFFFFF AND SUB PUSH2 0x2BB6 JUMPI PUSH0 PUSH1 0x40 MLOAD PUSH32 0x57F447CE00000000000000000000000000000000000000000000000000000000 DUP2 MSTORE PUSH1 0x4 ADD PUSH2 0x2BAD SWAP2 SWAP1 PUSH2 0x40AB JUMP JUMPDEST PUSH1 0x40 MLOAD DUP1 SWAP2 SUB SWAP1 REVERT JUMPDEST PUSH0 PUSH20 0xFFFFFFFFFFFFFFFFFFFFFFFFFFFFFFFFFFFFFFFF AND DUP6 PUSH20 0xFFFFFFFFFFFFFFFFFFFFFFFFFFFFFFFFFFFFFFFF AND SUB PUSH2 0x2C26 JUMPI PUSH0 PUSH1 0x40 MLOAD PUSH32 0x1A8351400000000000000000000000000000000000000000000000000000000 DUP2 MSTORE PUSH1 0x4 ADD PUSH2 0x2C1D SWAP2 SWAP1 PUSH2 0x40AB JUMP JUMPDEST PUSH1 0x40 MLOAD DUP1 SWAP2 SUB SWAP1 REVERT JUMPDEST PUSH0 DUP1 PUSH2 0x2C32 DUP6 DUP6 PUSH2 0x2F34 JUMP JUMPDEST SWAP2 POP SWAP2 POP PUSH2 0x2C43 DUP8 DUP8 DUP5 DUP5 DUP8 PUSH2 0x2E88 JUMP JUMPDEST POP POP POP POP POP POP POP JUMP JUMPDEST PUSH2 0x2C63 DUP2 PUSH2 0x2C5B PUSH2 0x1A53 PUSH2 0x2F64 JUMP JUMPDEST PUSH4 0xFFFFFFFF AND JUMP JUMPDEST POP JUMP JUMPDEST PUSH0 DUP1 PUSH0 SWAP1 POP PUSH0 JUMPDEST DUP4 MLOAD DUP2 LT ISZERO PUSH2 0x2CAB JUMPI DUP4 DUP2 DUP2 MLOAD DUP2 LT PUSH2 0x2C89 JUMPI PUSH2 0x2C88 PUSH2 0x47FF JUMP JUMPDEST JUMPDEST PUSH1 0x20 MUL PUSH1 0x20 ADD ADD MLOAD DUP3 PUSH2 0x2C9C SWAP2 SWAP1 PUSH2 0x4EF0 JUMP JUMPDEST SWAP2 POP DUP1 DUP1 PUSH1 0x1 ADD SWAP2 POP POP PUSH2 0x2C6D JUMP JUMPDEST POP DUP3 MLOAD PUSH8 0xDE0B6B3A7640000 DUP3 PUSH2 0x2CC2 SWAP2 SWAP1 PUSH2 0x4E1F JUMP JUMPDEST PUSH2 0x2CCC SWAP2 SWAP1 PUSH2 0x4E8D JUMP JUMPDEST SWAP2 POP POP SWAP2 SWAP1 POP JUMP JUMPDEST PUSH0 DUP1 PUSH2 0x2CDF DUP4 PUSH2 0x2C66 JUMP JUMPDEST SWAP1 POP PUSH0 DUP1 JUMPDEST DUP5 MLOAD DUP2 LT ISZERO PUSH2 0x2D63 JUMPI PUSH0 DUP4 PUSH8 0xDE0B6B3A7640000 DUP8 DUP5 DUP2 MLOAD DUP2 LT PUSH2 0x2D0B JUMPI PUSH2 0x2D0A PUSH2 0x47FF JUMP JUMPDEST JUMPDEST PUSH1 0x20 MUL PUSH1 0x20 ADD ADD MLOAD PUSH2 0x2D1D SWAP2 SWAP1 PUSH2 0x4E1F JUMP JUMPDEST PUSH2 0x2D27 SWAP2 SWAP1 PUSH2 0x515F JUMP JUMPDEST SWAP1 POP PUSH8 0xDE0B6B3A7640000 DUP2 DUP3 PUSH2 0x2D3E SWAP2 SWAP1 PUSH2 0x519F JUMP JUMPDEST PUSH2 0x2D48 SWAP2 SWAP1 PUSH2 0x4E8D JUMP JUMPDEST DUP4 PUSH2 0x2D53 SWAP2 SWAP1 PUSH2 0x4EF0 JUMP JUMPDEST SWAP3 POP POP DUP1 DUP1 PUSH1 0x1 ADD SWAP2 POP POP PUSH2 0x2CE4 JUMP JUMPDEST POP DUP4 MLOAD DUP2 PUSH2 0x2D71 SWAP2 SWAP1 PUSH2 0x4E8D JUMP JUMPDEST SWAP3 POP POP POP SWAP2 SWAP1 POP JUMP JUMPDEST PUSH0 DUP1 PUSH0 SWAP1 POP PUSH0 PUSH1 0x1 SWAP1 POP JUMPDEST DUP4 DUP2 LT ISZERO PUSH2 0x2DC7 JUMPI PUSH1 0x2 PUSH8 0xDE0B6B3A7640000 DUP3 PUSH2 0x2DA3 SWAP2 SWAP1 PUSH2 0x4E1F JUMP JUMPDEST PUSH2 0x2DAD SWAP2 SWAP1 PUSH2 0x4E8D JUMP JUMPDEST DUP3 PUSH2 0x2DB8 SWAP2 SWAP1 PUSH2 0x4EF0 JUMP JUMPDEST SWAP2 POP DUP1 DUP1 PUSH1 0x1 ADD SWAP2 POP POP PUSH2 0x2D85 JUMP JUMPDEST POP PUSH1 0x1 DUP4 PUSH2 0x2DD5 SWAP2 SWAP1 PUSH2 0x4EBD JUMP JUMPDEST DUP2 DUP5 PUSH2 0x2DE1 SWAP2 SWAP1 PUSH2 0x4E1F JUMP JUMPDEST PUSH2 0x2DEB SWAP2 SWAP1 PUSH2 0x4E8D JUMP JUMPDEST SWAP2 POP POP SWAP2 SWAP1 POP JUMP JUMPDEST PUSH0 PUSH20 0xFFFFFFFFFFFFFFFFFFFFFFFFFFFFFFFFFFFFFFFF AND DUP5 PUSH20 0xFFFFFFFFFFFFFFFFFFFFFFFFFFFFFFFFFFFFFFFF AND SUB PUSH2 0x2E63 JUMPI PUSH0 PUSH1 0x40 MLOAD PUSH32 0x57F447CE00000000000000000000000000000000000000000000000000000000 DUP2 MSTORE PUSH1 0x4 ADD PUSH2 0x2E5A SWAP2 SWAP1 PUSH2 0x40AB JUMP JUMPDEST PUSH1 0x40 MLOAD DUP1 SWAP2 SUB SWAP1 REVERT JUMPDEST PUSH0 DUP1 PUSH2 0x2E6F DUP6 DUP6 PUSH2 0x2F34 JUMP JUMPDEST SWAP2 POP SWAP2 POP PUSH2 0x2E80 PUSH0 DUP8 DUP5 DUP5 DUP8 PUSH2 0x2E88 JUMP JUMPDEST POP POP POP POP POP POP JUMP JUMPDEST PUSH2 0x2E94 DUP6 DUP6 DUP6 DUP6 PUSH2 0x2F6F JUMP JUMPDEST PUSH0 PUSH20 0xFFFFFFFFFFFFFFFFFFFFFFFFFFFFFFFFFFFFFFFF AND DUP5 PUSH20 0xFFFFFFFFFFFFFFFFFFFFFFFFFFFFFFFFFFFFFFFF AND EQ PUSH2 0x2F2D JUMPI PUSH0 PUSH2 0x2ED0 PUSH2 0x264F JUMP JUMPDEST SWAP1 POP PUSH1 0x1 DUP5 MLOAD SUB PUSH2 0x2F1C JUMPI PUSH0 PUSH2 0x2EEF PUSH0 DUP7 PUSH2 0x27FC SWAP1 SWAP2 SWAP1 PUSH4 0xFFFFFFFF AND JUMP JUMPDEST SWAP1 POP PUSH0 PUSH2 0x2F05 PUSH0 DUP7 PUSH2 0x27FC SWAP1 SWAP2 SWAP1 PUSH4 0xFFFFFFFF AND JUMP JUMPDEST SWAP1 POP PUSH2 0x2F15 DUP4 DUP10 DUP10 DUP6 DUP6 DUP10 PUSH2 0x32FF JUMP JUMPDEST POP POP PUSH2 0x2F2B JUMP JUMPDEST PUSH2 0x2F2A DUP2 DUP8 DUP8 DUP8 DUP8 DUP8 PUSH2 0x34AE JUMP JUMPDEST JUMPDEST POP JUMPDEST POP POP POP POP POP JUMP JUMPDEST PUSH1 0x60 DUP1 PUSH1 0x40 MLOAD SWAP2 POP PUSH1 0x1 DUP3 MSTORE DUP4 PUSH1 0x20 DUP4 ADD MSTORE PUSH1 0x40 DUP3 ADD SWAP1 POP PUSH1 0x1 DUP2 MSTORE DUP3 PUSH1 0x20 DUP3 ADD MSTORE PUSH1 0x40 DUP2 ADD PUSH1 0x40 MSTORE SWAP3 POP SWAP3 SWAP1 POP JUMP JUMPDEST PUSH2 0x365D DUP2 SWAP1 POP SWAP2 SWAP1 POP JUMP JUMPDEST DUP1 MLOAD DUP3 MLOAD EQ PUSH2 0x2FB9 JUMPI DUP2 MLOAD DUP2 MLOAD PUSH1 0x40 MLOAD PUSH32 0x5B05999100000000000000000000000000000000000000000000000000000000 DUP2 MSTORE PUSH1 0x4 ADD PUSH2 0x2FB0 SWAP3 SWAP2 SWAP1 PUSH2 0x4559 JUMP JUMPDEST PUSH1 0x40 MLOAD DUP1 SWAP2 SUB SWAP1 REVERT JUMPDEST PUSH0 PUSH2 0x2FC2 PUSH2 0x264F JUMP JUMPDEST SWAP1 POP PUSH0 JUMPDEST DUP4 MLOAD DUP2 LT ISZERO PUSH2 0x31BE JUMPI PUSH0 PUSH2 0x2FE3 DUP3 DUP7 PUSH2 0x27FC SWAP1 SWAP2 SWAP1 PUSH4 0xFFFFFFFF AND JUMP JUMPDEST SWAP1 POP PUSH0 PUSH2 0x2FF9 DUP4 DUP7 PUSH2 0x27FC SWAP1 SWAP2 SWAP1 PUSH4 0xFFFFFFFF AND JUMP JUMPDEST SWAP1 POP PUSH0 PUSH20 0xFFFFFFFFFFFFFFFFFFFFFFFFFFFFFFFFFFFFFFFF AND DUP9 PUSH20 0xFFFFFFFFFFFFFFFFFFFFFFFFFFFFFFFFFFFFFFFF AND EQ PUSH2 0x311C JUMPI PUSH0 DUP1 PUSH0 DUP5 DUP2 MSTORE PUSH1 0x20 ADD SWAP1 DUP2 MSTORE PUSH1 0x20 ADD PUSH0 KECCAK256 PUSH0 DUP11 PUSH20 0xFFFFFFFFFFFFFFFFFFFFFFFFFFFFFFFFFFFFFFFF AND PUSH20 0xFFFFFFFFFFFFFFFFFFFFFFFFFFFFFFFFFFFFFFFF AND DUP2 MSTORE PUSH1 0x20 ADD SWAP1 DUP2 MSTORE PUSH1 0x20 ADD PUSH0 KECCAK256 SLOAD SWAP1 POP DUP2 DUP2 LT ISZERO PUSH2 0x30C8 JUMPI DUP9 DUP2 DUP4 DUP6 PUSH1 0x40 MLOAD PUSH32 0x3DEE4C500000000000000000000000000000000000000000000000000000000 DUP2 MSTORE PUSH1 0x4 ADD PUSH2 0x30BF SWAP5 SWAP4 SWAP3 SWAP2 SWAP1 PUSH2 0x5215 JUMP JUMPDEST PUSH1 0x40 MLOAD DUP1 SWAP2 SUB SWAP1 REVERT JUMPDEST DUP2 DUP2 SUB PUSH0 DUP1 DUP6 DUP2 MSTORE PUSH1 0x20 ADD SWAP1 DUP2 MSTORE PUSH1 0x20 ADD PUSH0 KECCAK256 PUSH0 DUP12 PUSH20 0xFFFFFFFFFFFFFFFFFFFFFFFFFFFFFFFFFFFFFFFF AND PUSH20 0xFFFFFFFFFFFFFFFFFFFFFFFFFFFFFFFFFFFFFFFF AND DUP2 MSTORE PUSH1 0x20 ADD SWAP1 DUP2 MSTORE PUSH1 0x20 ADD PUSH0 KECCAK256 DUP2 SWAP1 SSTORE POP POP JUMPDEST PUSH0 PUSH20 0xFFFFFFFFFFFFFFFFFFFFFFFFFFFFFFFFFFFFFFFF AND DUP8 PUSH20 0xFFFFFFFFFFFFFFFFFFFFFFFFFFFFFFFFFFFFFFFF AND EQ PUSH2 0x31B1 JUMPI DUP1 PUSH0 DUP1 DUP5 DUP2 MSTORE PUSH1 0x20 ADD SWAP1 DUP2 MSTORE PUSH1 0x20 ADD PUSH0 KECCAK256 PUSH0 DUP10 PUSH20 0xFFFFFFFFFFFFFFFFFFFFFFFFFFFFFFFFFFFFFFFF AND PUSH20 0xFFFFFFFFFFFFFFFFFFFFFFFFFFFFFFFFFFFFFFFF AND DUP2 MSTORE PUSH1 0x20 ADD SWAP1 DUP2 MSTORE PUSH1 0x20 ADD PUSH0 KECCAK256 PUSH0 DUP3 DUP3 SLOAD PUSH2 0x31A9 SWAP2 SWAP1 PUSH2 0x4EF0 JUMP JUMPDEST SWAP3 POP POP DUP2 SWAP1 SSTORE POP JUMPDEST POP POP DUP1 PUSH1 0x1 ADD SWAP1 POP PUSH2 0x2FC6 JUMP JUMPDEST POP PUSH1 0x1 DUP4 MLOAD SUB PUSH2 0x3279 JUMPI PUSH0 PUSH2 0x31DC PUSH0 DUP6 PUSH2 0x27FC SWAP1 SWAP2 SWAP1 PUSH4 0xFFFFFFFF AND JUMP JUMPDEST SWAP1 POP PUSH0 PUSH2 0x31F2 PUSH0 DUP6 PUSH2 0x27FC SWAP1 SWAP2 SWAP1 PUSH4 0xFFFFFFFF AND JUMP JUMPDEST SWAP1 POP DUP6 PUSH20 0xFFFFFFFFFFFFFFFFFFFFFFFFFFFFFFFFFFFFFFFF AND DUP8 PUSH20 0xFFFFFFFFFFFFFFFFFFFFFFFFFFFFFFFFFFFFFFFF AND DUP5 PUSH20 0xFFFFFFFFFFFFFFFFFFFFFFFFFFFFFFFFFFFFFFFF AND PUSH32 0xC3D58168C5AE7397731D063D5BBF3D657854427343F4C083240F7AACAA2D0F62 DUP6 DUP6 PUSH1 0x40 MLOAD PUSH2 0x326A SWAP3 SWAP2 SWAP1 PUSH2 0x4559 JUMP JUMPDEST PUSH1 0x40 MLOAD DUP1 SWAP2 SUB SWAP1 LOG4 POP POP PUSH2 0x32F8 JUMP JUMPDEST DUP4 PUSH20 0xFFFFFFFFFFFFFFFFFFFFFFFFFFFFFFFFFFFFFFFF AND DUP6 PUSH20 0xFFFFFFFFFFFFFFFFFFFFFFFFFFFFFFFFFFFFFFFF AND DUP3 PUSH20 0xFFFFFFFFFFFFFFFFFFFFFFFFFFFFFFFFFFFFFFFF AND PUSH32 0x4A39DC06D4C0DBC64B70AF90FD698A233A518AA5D07E595D983B8C0526C8F7FB DUP7 DUP7 PUSH1 0x40 MLOAD PUSH2 0x32EF SWAP3 SWAP2 SWAP1 PUSH2 0x5258 JUMP JUMPDEST PUSH1 0x40 MLOAD DUP1 SWAP2 SUB SWAP1 LOG4 JUMPDEST POP POP POP POP POP JUMP JUMPDEST PUSH0 DUP5 PUSH20 0xFFFFFFFFFFFFFFFFFFFFFFFFFFFFFFFFFFFFFFFF AND EXTCODESIZE GT ISZERO PUSH2 0x34A6 JUMPI DUP4 PUSH20 0xFFFFFFFFFFFFFFFFFFFFFFFFFFFFFFFFFFFFFFFF AND PUSH4 0xF23A6E61 DUP8 DUP8 DUP7 DUP7 DUP7 PUSH1 0x40 MLOAD DUP7 PUSH4 0xFFFFFFFF AND PUSH1 0xE0 SHL DUP2 MSTORE PUSH1 0x4 ADD PUSH2 0x335F SWAP6 SWAP5 SWAP4 SWAP3 SWAP2 SWAP1 PUSH2 0x52DF JUMP JUMPDEST PUSH1 0x20 PUSH1 0x40 MLOAD DUP1 DUP4 SUB DUP2 PUSH0 DUP8 GAS CALL SWAP3 POP POP POP DUP1 ISZERO PUSH2 0x339A JUMPI POP PUSH1 0x40 MLOAD RETURNDATASIZE PUSH1 0x1F NOT PUSH1 0x1F DUP3 ADD AND DUP3 ADD DUP1 PUSH1 0x40 MSTORE POP DUP2 ADD SWAP1 PUSH2 0x3397 SWAP2 SWAP1 PUSH2 0x534B JUMP JUMPDEST PUSH1 0x1 JUMPDEST PUSH2 0x341B JUMPI RETURNDATASIZE DUP1 PUSH0 DUP2 EQ PUSH2 0x33C8 JUMPI PUSH1 0x40 MLOAD SWAP2 POP PUSH1 0x1F NOT PUSH1 0x3F RETURNDATASIZE ADD AND DUP3 ADD PUSH1 0x40 MSTORE RETURNDATASIZE DUP3 MSTORE RETURNDATASIZE PUSH0 PUSH1 0x20 DUP5 ADD RETURNDATACOPY PUSH2 0x33CD JUMP JUMPDEST PUSH1 0x60 SWAP2 POP JUMPDEST POP PUSH0 DUP2 MLOAD SUB PUSH2 0x3413 JUMPI DUP5 PUSH1 0x40 MLOAD PUSH32 0x57F447CE00000000000000000000000000000000000000000000000000000000 DUP2 MSTORE PUSH1 0x4 ADD PUSH2 0x340A SWAP2 SWAP1 PUSH2 0x40AB JUMP JUMPDEST PUSH1 0x40 MLOAD DUP1 SWAP2 SUB SWAP1 REVERT JUMPDEST DUP1 MLOAD DUP2 PUSH1 0x20 ADD REVERT JUMPDEST PUSH4 0xF23A6E61 PUSH1 0xE0 SHL PUSH28 0xFFFFFFFFFFFFFFFFFFFFFFFFFFFFFFFFFFFFFFFFFFFFFFFFFFFFFFFF NOT AND DUP2 PUSH28 0xFFFFFFFFFFFFFFFFFFFFFFFFFFFFFFFFFFFFFFFFFFFFFFFFFFFFFFFF NOT AND EQ PUSH2 0x34A4 JUMPI DUP5 PUSH1 0x40 MLOAD PUSH32 0x57F447CE00000000000000000000000000000000000000000000000000000000 DUP2 MSTORE PUSH1 0x4 ADD PUSH2 0x349B SWAP2 SWAP1 PUSH2 0x40AB JUMP JUMPDEST PUSH1 0x40 MLOAD DUP1 SWAP2 SUB SWAP1 REVERT JUMPDEST POP JUMPDEST POP POP POP POP POP POP JUMP JUMPDEST PUSH0 DUP5 PUSH20 0xFFFFFFFFFFFFFFFFFFFFFFFFFFFFFFFFFFFFFFFF AND EXTCODESIZE GT ISZERO PUSH2 0x3655 JUMPI DUP4 PUSH20 0xFFFFFFFFFFFFFFFFFFFFFFFFFFFFFFFFFFFFFFFF AND PUSH4 0xBC197C81 DUP8 DUP8 DUP7 DUP7 DUP7 PUSH1 0x40 MLOAD DUP7 PUSH4 0xFFFFFFFF AND PUSH1 0xE0 SHL DUP2 MSTORE PUSH1 0x4 ADD PUSH2 0x350E SWAP6 SWAP5 SWAP4 SWAP3 SWAP2 SWAP1 PUSH2 0x5376 JUMP JUMPDEST PUSH1 0x20 PUSH1 0x40 MLOAD DUP1 DUP4 SUB DUP2 PUSH0 DUP8 GAS CALL SWAP3 POP POP POP DUP1 ISZERO PUSH2 0x3549 JUMPI POP PUSH1 0x40 MLOAD RETURNDATASIZE PUSH1 0x1F NOT PUSH1 0x1F DUP3 ADD AND DUP3 ADD DUP1 PUSH1 0x40 MSTORE POP DUP2 ADD SWAP1 PUSH2 0x3546 SWAP2 SWAP1 PUSH2 0x534B JUMP JUMPDEST PUSH1 0x1 JUMPDEST PUSH2 0x35CA JUMPI RETURNDATASIZE DUP1 PUSH0 DUP2 EQ PUSH2 0x3577 JUMPI PUSH1 0x40 MLOAD SWAP2 POP PUSH1 0x1F NOT PUSH1 0x3F RETURNDATASIZE ADD AND DUP3 ADD PUSH1 0x40 MSTORE RETURNDATASIZE DUP3 MSTORE RETURNDATASIZE PUSH0 PUSH1 0x20 DUP5 ADD RETURNDATACOPY PUSH2 0x357C JUMP JUMPDEST PUSH1 0x60 SWAP2 POP JUMPDEST POP PUSH0 DUP2 MLOAD SUB PUSH2 0x35C2 JUMPI DUP5 PUSH1 0x40 MLOAD PUSH32 0x57F447CE00000000000000000000000000000000000000000000000000000000 DUP2 MSTORE PUSH1 0x4 ADD PUSH2 0x35B9 SWAP2 SWAP1 PUSH2 0x40AB JUMP JUMPDEST PUSH1 0x40 MLOAD DUP1 SWAP2 SUB SWAP1 REVERT JUMPDEST DUP1 MLOAD DUP2 PUSH1 0x20 ADD REVERT JUMPDEST PUSH4 0xBC197C81 PUSH1 0xE0 SHL PUSH28 0xFFFFFFFFFFFFFFFFFFFFFFFFFFFFFFFFFFFFFFFFFFFFFFFFFFFFFFFF NOT AND DUP2 PUSH28 0xFFFFFFFFFFFFFFFFFFFFFFFFFFFFFFFFFFFFFFFFFFFFFFFFFFFFFFFF NOT AND EQ PUSH2 0x3653 JUMPI DUP5 PUSH1 0x40 MLOAD PUSH32 0x57F447CE00000000000000000000000000000000000000000000000000000000 DUP2 MSTORE PUSH1 0x4 ADD PUSH2 0x364A SWAP2 SWAP1 PUSH2 0x40AB JUMP JUMPDEST PUSH1 0x40 MLOAD DUP1 SWAP2 SUB SWAP1 REVERT JUMPDEST POP JUMPDEST POP POP POP POP POP POP JUMP JUMPDEST PUSH2 0x3665 PUSH2 0x53DC JUMP JUMPDEST JUMP JUMPDEST DUP3 DUP1 SLOAD DUP3 DUP3 SSTORE SWAP1 PUSH0 MSTORE PUSH1 0x20 PUSH0 KECCAK256 SWAP1 DUP2 ADD SWAP3 DUP3 ISZERO PUSH2 0x36A1 JUMPI SWAP2 PUSH1 0x20 MUL DUP3 ADD JUMPDEST DUP3 DUP2 GT ISZERO PUSH2 0x36A0 JUMPI DUP3 MLOAD DUP3 SSTORE SWAP2 PUSH1 0x20 ADD SWAP2 SWAP1 PUSH1 0x1 ADD SWAP1 PUSH2 0x3685 JUMP JUMPDEST JUMPDEST POP SWAP1 POP PUSH2 0x36AE SWAP2 SWAP1 PUSH2 0x36B2 JUMP JUMPDEST POP SWAP1 JUMP JUMPDEST JUMPDEST DUP1 DUP3 GT ISZERO PUSH2 0x36C9 JUMPI PUSH0 DUP2 PUSH0 SWAP1 SSTORE POP PUSH1 0x1 ADD PUSH2 0x36B3 JUMP JUMPDEST POP SWAP1 JUMP JUMPDEST PUSH0 PUSH1 0x40 MLOAD SWAP1 POP SWAP1 JUMP JUMPDEST PUSH0 DUP1 REVERT JUMPDEST PUSH0 DUP1 REVERT JUMPDEST PUSH0 PUSH20 0xFFFFFFFFFFFFFFFFFFFFFFFFFFFFFFFFFFFFFFFF DUP3 AND SWAP1 POP SWAP2 SWAP1 POP JUMP JUMPDEST PUSH0 PUSH2 0x3707 DUP3 PUSH2 0x36DE JUMP JUMPDEST SWAP1 POP SWAP2 SWAP1 POP JUMP JUMPDEST PUSH2 0x3717 DUP2 PUSH2 0x36FD JUMP JUMPDEST DUP2 EQ PUSH2 0x3721 JUMPI PUSH0 DUP1 REVERT JUMPDEST POP JUMP JUMPDEST PUSH0 DUP2 CALLDATALOAD SWAP1 POP PUSH2 0x3732 DUP2 PUSH2 0x370E JUMP JUMPDEST SWAP3 SWAP2 POP POP JUMP JUMPDEST PUSH0 DUP2 SWAP1 POP SWAP2 SWAP1 POP JUMP JUMPDEST PUSH2 0x374A DUP2 PUSH2 0x3738 JUMP JUMPDEST DUP2 EQ PUSH2 0x3754 JUMPI PUSH0 DUP1 REVERT JUMPDEST POP JUMP JUMPDEST PUSH0 DUP2 CALLDATALOAD SWAP1 POP PUSH2 0x3765 DUP2 PUSH2 0x3741 JUMP JUMPDEST SWAP3 SWAP2 POP POP JUMP JUMPDEST PUSH0 DUP1 PUSH1 0x40 DUP4 DUP6 SUB SLT ISZERO PUSH2 0x3781 JUMPI PUSH2 0x3780 PUSH2 0x36D6 JUMP JUMPDEST JUMPDEST PUSH0 PUSH2 0x378E DUP6 DUP3 DUP7 ADD PUSH2 0x3724 JUMP JUMPDEST SWAP3 POP POP PUSH1 0x20 PUSH2 0x379F DUP6 DUP3 DUP7 ADD PUSH2 0x3757 JUMP JUMPDEST SWAP2 POP POP SWAP3 POP SWAP3 SWAP1 POP JUMP JUMPDEST PUSH2 0x37B2 DUP2 PUSH2 0x3738 JUMP JUMPDEST DUP3 MSTORE POP POP JUMP JUMPDEST PUSH0 PUSH1 0x20 DUP3 ADD SWAP1 POP PUSH2 0x37CB PUSH0 DUP4 ADD DUP5 PUSH2 0x37A9 JUMP JUMPDEST SWAP3 SWAP2 POP POP JUMP JUMPDEST PUSH0 PUSH32 0xFFFFFFFF00000000000000000000000000000000000000000000000000000000 DUP3 AND SWAP1 POP SWAP2 SWAP1 POP JUMP JUMPDEST PUSH2 0x3805 DUP2 PUSH2 0x37D1 JUMP JUMPDEST DUP2 EQ PUSH2 0x380F JUMPI PUSH0 DUP1 REVERT JUMPDEST POP JUMP JUMPDEST PUSH0 DUP2 CALLDATALOAD SWAP1 POP PUSH2 0x3820 DUP2 PUSH2 0x37FC JUMP JUMPDEST SWAP3 SWAP2 POP POP JUMP JUMPDEST PUSH0 PUSH1 0x20 DUP3 DUP5 SUB SLT ISZERO PUSH2 0x383B JUMPI PUSH2 0x383A PUSH2 0x36D6 JUMP JUMPDEST JUMPDEST PUSH0 PUSH2 0x3848 DUP5 DUP3 DUP6 ADD PUSH2 0x3812 JUMP JUMPDEST SWAP2 POP POP SWAP3 SWAP2 POP POP JUMP JUMPDEST PUSH0 DUP2 ISZERO ISZERO SWAP1 POP SWAP2 SWAP1 POP JUMP JUMPDEST PUSH2 0x3865 DUP2 PUSH2 0x3851 JUMP JUMPDEST DUP3 MSTORE POP POP JUMP JUMPDEST PUSH0 PUSH1 0x20 DUP3 ADD SWAP1 POP PUSH2 0x387E PUSH0 DUP4 ADD DUP5 PUSH2 0x385C JUMP JUMPDEST SWAP3 SWAP2 POP POP JUMP JUMPDEST PUSH0 DUP2 SWAP1 POP SWAP2 SWAP1 POP JUMP JUMPDEST PUSH0 PUSH2 0x38A7 PUSH2 0x38A2 PUSH2 0x389D DUP5 PUSH2 0x36DE JUMP JUMPDEST PUSH2 0x3884 JUMP JUMPDEST PUSH2 0x36DE JUMP JUMPDEST SWAP1 POP SWAP2 SWAP1 POP JUMP JUMPDEST PUSH0 PUSH2 0x38B8 DUP3 PUSH2 0x388D JUMP JUMPDEST SWAP1 POP SWAP2 SWAP1 POP JUMP JUMPDEST PUSH0 PUSH2 0x38C9 DUP3 PUSH2 0x38AE JUMP JUMPDEST SWAP1 POP SWAP2 SWAP1 POP JUMP JUMPDEST PUSH2 0x38D9 DUP2 PUSH2 0x38BF JUMP JUMPDEST DUP3 MSTORE POP POP JUMP JUMPDEST PUSH0 PUSH1 0x20 DUP3 ADD SWAP1 POP PUSH2 0x38F2 PUSH0 DUP4 ADD DUP5 PUSH2 0x38D0 JUMP JUMPDEST SWAP3 SWAP2 POP POP JUMP JUMPDEST PUSH0 PUSH1 0x20 DUP3 DUP5 SUB SLT ISZERO PUSH2 0x390D JUMPI PUSH2 0x390C PUSH2 0x36D6 JUMP JUMPDEST JUMPDEST PUSH0 PUSH2 0x391A DUP5 DUP3 DUP6 ADD PUSH2 0x3757 JUMP JUMPDEST SWAP2 POP POP SWAP3 SWAP2 POP POP JUMP JUMPDEST PUSH0 DUP2 MLOAD SWAP1 POP SWAP2 SWAP1 POP JUMP JUMPDEST PUSH0 DUP3 DUP3 MSTORE PUSH1 0x20 DUP3 ADD SWAP1 POP SWAP3 SWAP2 POP POP JUMP JUMPDEST DUP3 DUP2 DUP4 MCOPY PUSH0 DUP4 DUP4 ADD MSTORE POP POP POP JUMP JUMPDEST PUSH0 PUSH1 0x1F NOT PUSH1 0x1F DUP4 ADD AND SWAP1 POP SWAP2 SWAP1 POP JUMP JUMPDEST PUSH0 PUSH2 0x3965 DUP3 PUSH2 0x3923 JUMP JUMPDEST PUSH2 0x396F DUP2 DUP6 PUSH2 0x392D JUMP JUMPDEST SWAP4 POP PUSH2 0x397F DUP2 DUP6 PUSH1 0x20 DUP7 ADD PUSH2 0x393D JUMP JUMPDEST PUSH2 0x3988 DUP2 PUSH2 0x394B JUMP JUMPDEST DUP5 ADD SWAP2 POP POP SWAP3 SWAP2 POP POP JUMP JUMPDEST PUSH0 PUSH1 0x20 DUP3 ADD SWAP1 POP DUP2 DUP2 SUB PUSH0 DUP4 ADD MSTORE PUSH2 0x39AB DUP2 DUP5 PUSH2 0x395B JUMP JUMPDEST SWAP1 POP SWAP3 SWAP2 POP POP JUMP JUMPDEST PUSH0 DUP1 PUSH0 PUSH1 0x60 DUP5 DUP7 SUB SLT ISZERO PUSH2 0x39CA JUMPI PUSH2 0x39C9 PUSH2 0x36D6 JUMP JUMPDEST JUMPDEST PUSH0 PUSH2 0x39D7 DUP7 DUP3 DUP8 ADD PUSH2 0x3757 JUMP JUMPDEST SWAP4 POP POP PUSH1 0x20 PUSH2 0x39E8 DUP7 DUP3 DUP8 ADD PUSH2 0x3757 JUMP JUMPDEST SWAP3 POP POP PUSH1 0x40 PUSH2 0x39F9 DUP7 DUP3 DUP8 ADD PUSH2 0x3757 JUMP JUMPDEST SWAP2 POP POP SWAP3 POP SWAP3 POP SWAP3 JUMP JUMPDEST PUSH0 DUP1 PUSH0 DUP1 PUSH1 0x80 DUP6 DUP8 SUB SLT ISZERO PUSH2 0x3A1B JUMPI PUSH2 0x3A1A PUSH2 0x36D6 JUMP JUMPDEST JUMPDEST PUSH0 PUSH2 0x3A28 DUP8 DUP3 DUP9 ADD PUSH2 0x3757 JUMP JUMPDEST SWAP5 POP POP PUSH1 0x20 PUSH2 0x3A39 DUP8 DUP3 DUP9 ADD PUSH2 0x3757 JUMP JUMPDEST SWAP4 POP POP PUSH1 0x40 PUSH2 0x3A4A DUP8 DUP3 DUP9 ADD PUSH2 0x3757 JUMP JUMPDEST SWAP3 POP POP PUSH1 0x60 PUSH2 0x3A5B DUP8 DUP3 DUP9 ADD PUSH2 0x3724 JUMP JUMPDEST SWAP2 POP POP SWAP3 SWAP6 SWAP2 SWAP5 POP SWAP3 POP JUMP JUMPDEST PUSH0 DUP2 MLOAD SWAP1 POP SWAP2 SWAP1 POP JUMP JUMPDEST PUSH0 DUP3 DUP3 MSTORE PUSH1 0x20 DUP3 ADD SWAP1 POP SWAP3 SWAP2 POP POP JUMP JUMPDEST PUSH0 DUP2 SWAP1 POP PUSH1 0x20 DUP3 ADD SWAP1 POP SWAP2 SWAP1 POP JUMP JUMPDEST PUSH2 0x3A99 DUP2 PUSH2 0x3738 JUMP JUMPDEST DUP3 MSTORE POP POP JUMP JUMPDEST PUSH0 PUSH2 0x3AAA DUP4 DUP4 PUSH2 0x3A90 JUMP JUMPDEST PUSH1 0x20 DUP4 ADD SWAP1 POP SWAP3 SWAP2 POP POP JUMP JUMPDEST PUSH0 PUSH1 0x20 DUP3 ADD SWAP1 POP SWAP2 SWAP1 POP JUMP JUMPDEST PUSH0 PUSH2 0x3ACC DUP3 PUSH2 0x3A67 JUMP JUMPDEST PUSH2 0x3AD6 DUP2 DUP6 PUSH2 0x3A71 JUMP JUMPDEST SWAP4 POP PUSH2 0x3AE1 DUP4 PUSH2 0x3A81 JUMP JUMPDEST DUP1 PUSH0 JUMPDEST DUP4 DUP2 LT ISZERO PUSH2 0x3B11 JUMPI DUP2 MLOAD PUSH2 0x3AF8 DUP9 DUP3 PUSH2 0x3A9F JUMP JUMPDEST SWAP8 POP PUSH2 0x3B03 DUP4 PUSH2 0x3AB6 JUMP JUMPDEST SWAP3 POP POP PUSH1 0x1 DUP2 ADD SWAP1 POP PUSH2 0x3AE4 JUMP JUMPDEST POP DUP6 SWAP4 POP POP POP POP SWAP3 SWAP2 POP POP JUMP JUMPDEST PUSH0 PUSH1 0x20 DUP3 ADD SWAP1 POP DUP2 DUP2 SUB PUSH0 DUP4 ADD MSTORE PUSH2 0x3B36 DUP2 DUP5 PUSH2 0x3AC2 JUMP JUMPDEST SWAP1 POP SWAP3 SWAP2 POP POP JUMP JUMPDEST PUSH0 DUP1 REVERT JUMPDEST PUSH32 0x4E487B7100000000000000000000000000000000000000000000000000000000 PUSH0 MSTORE PUSH1 0x41 PUSH1 0x4 MSTORE PUSH1 0x24 PUSH0 REVERT JUMPDEST PUSH2 0x3B78 DUP3 PUSH2 0x394B JUMP JUMPDEST DUP2 ADD DUP2 DUP2 LT PUSH8 0xFFFFFFFFFFFFFFFF DUP3 GT OR ISZERO PUSH2 0x3B97 JUMPI PUSH2 0x3B96 PUSH2 0x3B42 JUMP JUMPDEST JUMPDEST DUP1 PUSH1 0x40 MSTORE POP POP POP JUMP JUMPDEST PUSH0 PUSH2 0x3BA9 PUSH2 0x36CD JUMP JUMPDEST SWAP1 POP PUSH2 0x3BB5 DUP3 DUP3 PUSH2 0x3B6F JUMP JUMPDEST SWAP2 SWAP1 POP JUMP JUMPDEST PUSH0 PUSH8 0xFFFFFFFFFFFFFFFF DUP3 GT ISZERO PUSH2 0x3BD4 JUMPI PUSH2 0x3BD3 PUSH2 0x3B42 JUMP JUMPDEST JUMPDEST PUSH1 0x20 DUP3 MUL SWAP1 POP PUSH1 0x20 DUP2 ADD SWAP1 POP SWAP2 SWAP1 POP JUMP JUMPDEST PUSH0 DUP1 REVERT JUMPDEST PUSH0 PUSH2 0x3BFB PUSH2 0x3BF6 DUP5 PUSH2 0x3BBA JUMP JUMPDEST PUSH2 0x3BA0 JUMP JUMPDEST SWAP1 POP DUP1 DUP4 DUP3 MSTORE PUSH1 0x20 DUP3 ADD SWAP1 POP PUSH1 0x20 DUP5 MUL DUP4 ADD DUP6 DUP2 GT ISZERO PUSH2 0x3C1E JUMPI PUSH2 0x3C1D PUSH2 0x3BE5 JUMP JUMPDEST JUMPDEST DUP4 JUMPDEST DUP2 DUP2 LT ISZERO PUSH2 0x3C47 JUMPI DUP1 PUSH2 0x3C33 DUP9 DUP3 PUSH2 0x3757 JUMP JUMPDEST DUP5 MSTORE PUSH1 0x20 DUP5 ADD SWAP4 POP POP PUSH1 0x20 DUP2 ADD SWAP1 POP PUSH2 0x3C20 JUMP JUMPDEST POP POP POP SWAP4 SWAP3 POP POP POP JUMP JUMPDEST PUSH0 DUP3 PUSH1 0x1F DUP4 ADD SLT PUSH2 0x3C65 JUMPI PUSH2 0x3C64 PUSH2 0x3B3E JUMP JUMPDEST JUMPDEST DUP2 CALLDATALOAD PUSH2 0x3C75 DUP5 DUP3 PUSH1 0x20 DUP7 ADD PUSH2 0x3BE9 JUMP JUMPDEST SWAP2 POP POP SWAP3 SWAP2 POP POP JUMP JUMPDEST PUSH0 DUP1 REVERT JUMPDEST PUSH0 PUSH8 0xFFFFFFFFFFFFFFFF DUP3 GT ISZERO PUSH2 0x3C9C JUMPI PUSH2 0x3C9B PUSH2 0x3B42 JUMP JUMPDEST JUMPDEST PUSH2 0x3CA5 DUP3 PUSH2 0x394B JUMP JUMPDEST SWAP1 POP PUSH1 0x20 DUP2 ADD SWAP1 POP SWAP2 SWAP1 POP JUMP JUMPDEST DUP3 DUP2 DUP4 CALLDATACOPY PUSH0 DUP4 DUP4 ADD MSTORE POP POP POP JUMP JUMPDEST PUSH0 PUSH2 0x3CD2 PUSH2 0x3CCD DUP5 PUSH2 0x3C82 JUMP JUMPDEST PUSH2 0x3BA0 JUMP JUMPDEST SWAP1 POP DUP3 DUP2 MSTORE PUSH1 0x20 DUP2 ADD DUP5 DUP5 DUP5 ADD GT ISZERO PUSH2 0x3CEE JUMPI PUSH2 0x3CED PUSH2 0x3C7E JUMP JUMPDEST JUMPDEST PUSH2 0x3CF9 DUP5 DUP3 DUP6 PUSH2 0x3CB2 JUMP JUMPDEST POP SWAP4 SWAP3 POP POP POP JUMP JUMPDEST PUSH0 DUP3 PUSH1 0x1F DUP4 ADD SLT PUSH2 0x3D15 JUMPI PUSH2 0x3D14 PUSH2 0x3B3E JUMP JUMPDEST JUMPDEST DUP2 CALLDATALOAD PUSH2 0x3D25 DUP5 DUP3 PUSH1 0x20 DUP7 ADD PUSH2 0x3CC0 JUMP JUMPDEST SWAP2 POP POP SWAP3 SWAP2 POP POP JUMP JUMPDEST PUSH0 DUP1 PUSH0 DUP1 PUSH0 PUSH1 0xA0 DUP7 DUP9 SUB SLT ISZERO PUSH2 0x3D47 JUMPI PUSH2 0x3D46 PUSH2 0x36D6 JUMP JUMPDEST JUMPDEST PUSH0 PUSH2 0x3D54 DUP9 DUP3 DUP10 ADD PUSH2 0x3724 JUMP JUMPDEST SWAP6 POP POP PUSH1 0x20 PUSH2 0x3D65 DUP9 DUP3 DUP10 ADD PUSH2 0x3724 JUMP JUMPDEST SWAP5 POP POP PUSH1 0x40 DUP7 ADD CALLDATALOAD PUSH8 0xFFFFFFFFFFFFFFFF DUP2 GT ISZERO PUSH2 0x3D86 JUMPI PUSH2 0x3D85 PUSH2 0x36DA JUMP JUMPDEST JUMPDEST PUSH2 0x3D92 DUP9 DUP3 DUP10 ADD PUSH2 0x3C51 JUMP JUMPDEST SWAP4 POP POP PUSH1 0x60 DUP7 ADD CALLDATALOAD PUSH8 0xFFFFFFFFFFFFFFFF DUP2 GT ISZERO PUSH2 0x3DB3 JUMPI PUSH2 0x3DB2 PUSH2 0x36DA JUMP JUMPDEST JUMPDEST PUSH2 0x3DBF DUP9 DUP3 DUP10 ADD PUSH2 0x3C51 JUMP JUMPDEST SWAP3 POP POP PUSH1 0x80 DUP7 ADD CALLDATALOAD PUSH8 0xFFFFFFFFFFFFFFFF DUP2 GT ISZERO PUSH2 0x3DE0 JUMPI PUSH2 0x3DDF PUSH2 0x36DA JUMP JUMPDEST JUMPDEST PUSH2 0x3DEC DUP9 DUP3 DUP10 ADD PUSH2 0x3D01 JUMP JUMPDEST SWAP2 POP POP SWAP3 SWAP6 POP SWAP3 SWAP6 SWAP1 SWAP4 POP JUMP JUMPDEST PUSH0 DUP2 MLOAD SWAP1 POP SWAP2 SWAP1 POP JUMP JUMPDEST PUSH0 DUP3 DUP3 MSTORE PUSH1 0x20 DUP3 ADD SWAP1 POP SWAP3 SWAP2 POP POP JUMP JUMPDEST PUSH0 DUP2 SWAP1 POP PUSH1 0x20 DUP3 ADD SWAP1 POP SWAP2 SWAP1 POP JUMP JUMPDEST PUSH2 0x3E2B DUP2 PUSH2 0x36FD JUMP JUMPDEST DUP3 MSTORE POP POP JUMP JUMPDEST PUSH0 PUSH2 0x3E3C DUP4 DUP4 PUSH2 0x3E22 JUMP JUMPDEST PUSH1 0x20 DUP4 ADD SWAP1 POP SWAP3 SWAP2 POP POP JUMP JUMPDEST PUSH0 PUSH1 0x20 DUP3 ADD SWAP1 POP SWAP2 SWAP1 POP JUMP JUMPDEST PUSH0 PUSH2 0x3E5E DUP3 PUSH2 0x3DF9 JUMP JUMPDEST PUSH2 0x3E68 DUP2 DUP6 PUSH2 0x3E03 JUMP JUMPDEST SWAP4 POP PUSH2 0x3E73 DUP4 PUSH2 0x3E13 JUMP JUMPDEST DUP1 PUSH0 JUMPDEST DUP4 DUP2 LT ISZERO PUSH2 0x3EA3 JUMPI DUP2 MLOAD PUSH2 0x3E8A DUP9 DUP3 PUSH2 0x3E31 JUMP JUMPDEST SWAP8 POP PUSH2 0x3E95 DUP4 PUSH2 0x3E48 JUMP JUMPDEST SWAP3 POP POP PUSH1 0x1 DUP2 ADD SWAP1 POP PUSH2 0x3E76 JUMP JUMPDEST POP DUP6 SWAP4 POP POP POP POP SWAP3 SWAP2 POP POP JUMP JUMPDEST PUSH0 PUSH1 0x40 DUP3 ADD SWAP1 POP DUP2 DUP2 SUB PUSH0 DUP4 ADD MSTORE PUSH2 0x3EC8 DUP2 DUP6 PUSH2 0x3E54 JUMP JUMPDEST SWAP1 POP DUP2 DUP2 SUB PUSH1 0x20 DUP4 ADD MSTORE PUSH2 0x3EDC DUP2 DUP5 PUSH2 0x3AC2 JUMP JUMPDEST SWAP1 POP SWAP4 SWAP3 POP POP POP JUMP JUMPDEST PUSH0 DUP1 PUSH1 0x40 DUP4 DUP6 SUB SLT ISZERO PUSH2 0x3EFB JUMPI PUSH2 0x3EFA PUSH2 0x36D6 JUMP JUMPDEST JUMPDEST PUSH0 PUSH2 0x3F08 DUP6 DUP3 DUP7 ADD PUSH2 0x3757 JUMP JUMPDEST SWAP3 POP POP PUSH1 0x20 PUSH2 0x3F19 DUP6 DUP3 DUP7 ADD PUSH2 0x3757 JUMP JUMPDEST SWAP2 POP POP SWAP3 POP SWAP3 SWAP1 POP JUMP JUMPDEST PUSH0 PUSH1 0x60 DUP3 ADD SWAP1 POP DUP2 DUP2 SUB PUSH0 DUP4 ADD MSTORE PUSH2 0x3F3B DUP2 DUP7 PUSH2 0x3AC2 JUMP JUMPDEST SWAP1 POP DUP2 DUP2 SUB PUSH1 0x20 DUP4 ADD MSTORE PUSH2 0x3F4F DUP2 DUP6 PUSH2 0x3AC2 JUMP JUMPDEST SWAP1 POP PUSH2 0x3F5E PUSH1 0x40 DUP4 ADD DUP5 PUSH2 0x37A9 JUMP JUMPDEST SWAP5 SWAP4 POP POP POP POP JUMP JUMPDEST PUSH0 PUSH8 0xFFFFFFFFFFFFFFFF DUP3 GT ISZERO PUSH2 0x3F80 JUMPI PUSH2 0x3F7F PUSH2 0x3B42 JUMP JUMPDEST JUMPDEST PUSH1 0x20 DUP3 MUL SWAP1 POP PUSH1 0x20 DUP2 ADD SWAP1 POP SWAP2 SWAP1 POP JUMP JUMPDEST PUSH0 PUSH2 0x3FA3 PUSH2 0x3F9E DUP5 PUSH2 0x3F66 JUMP JUMPDEST PUSH2 0x3BA0 JUMP JUMPDEST SWAP1 POP DUP1 DUP4 DUP3 MSTORE PUSH1 0x20 DUP3 ADD SWAP1 POP PUSH1 0x20 DUP5 MUL DUP4 ADD DUP6 DUP2 GT ISZERO PUSH2 0x3FC6 JUMPI PUSH2 0x3FC5 PUSH2 0x3BE5 JUMP JUMPDEST JUMPDEST DUP4 JUMPDEST DUP2 DUP2 LT ISZERO PUSH2 0x3FEF JUMPI DUP1 PUSH2 0x3FDB DUP9 DUP3 PUSH2 0x3724 JUMP JUMPDEST DUP5 MSTORE PUSH1 0x20 DUP5 ADD SWAP4 POP POP PUSH1 0x20 DUP2 ADD SWAP1 POP PUSH2 0x3FC8 JUMP JUMPDEST POP POP POP SWAP4 SWAP3 POP POP POP JUMP JUMPDEST PUSH0 DUP3 PUSH1 0x1F DUP4 ADD SLT PUSH2 0x400D JUMPI PUSH2 0x400C PUSH2 0x3B3E JUMP JUMPDEST JUMPDEST DUP2 CALLDATALOAD PUSH2 0x401D DUP5 DUP3 PUSH1 0x20 DUP7 ADD PUSH2 0x3F91 JUMP JUMPDEST SWAP2 POP POP SWAP3 SWAP2 POP POP JUMP JUMPDEST PUSH0 DUP1 PUSH1 0x40 DUP4 DUP6 SUB SLT ISZERO PUSH2 0x403C JUMPI PUSH2 0x403B PUSH2 0x36D6 JUMP JUMPDEST JUMPDEST PUSH0 DUP4 ADD CALLDATALOAD PUSH8 0xFFFFFFFFFFFFFFFF DUP2 GT ISZERO PUSH2 0x4059 JUMPI PUSH2 0x4058 PUSH2 0x36DA JUMP JUMPDEST JUMPDEST PUSH2 0x4065 DUP6 DUP3 DUP7 ADD PUSH2 0x3FF9 JUMP JUMPDEST SWAP3 POP POP PUSH1 0x20 DUP4 ADD CALLDATALOAD PUSH8 0xFFFFFFFFFFFFFFFF DUP2 GT ISZERO PUSH2 0x4086 JUMPI PUSH2 0x4085 PUSH2 0x36DA JUMP JUMPDEST JUMPDEST PUSH2 0x4092 DUP6 DUP3 DUP7 ADD PUSH2 0x3C51 JUMP JUMPDEST SWAP2 POP POP SWAP3 POP SWAP3 SWAP1 POP JUMP JUMPDEST PUSH2 0x40A5 DUP2 PUSH2 0x36FD JUMP JUMPDEST DUP3 MSTORE POP POP JUMP JUMPDEST PUSH0 PUSH1 0x20 DUP3 ADD SWAP1 POP PUSH2 0x40BE PUSH0 DUP4 ADD DUP5 PUSH2 0x409C JUMP JUMPDEST SWAP3 SWAP2 POP POP JUMP JUMPDEST PUSH2 0x40CD DUP2 PUSH2 0x3851 JUMP JUMPDEST DUP2 EQ PUSH2 0x40D7 JUMPI PUSH0 DUP1 REVERT JUMPDEST POP JUMP JUMPDEST PUSH0 DUP2 CALLDATALOAD SWAP1 POP PUSH2 0x40E8 DUP2 PUSH2 0x40C4 JUMP JUMPDEST SWAP3 SWAP2 POP POP JUMP JUMPDEST PUSH0 DUP1 PUSH1 0x40 DUP4 DUP6 SUB SLT ISZERO PUSH2 0x4104 JUMPI PUSH2 0x4103 PUSH2 0x36D6 JUMP JUMPDEST JUMPDEST PUSH0 PUSH2 0x4111 DUP6 DUP3 DUP7 ADD PUSH2 0x3724 JUMP JUMPDEST SWAP3 POP POP PUSH1 0x20 PUSH2 0x4122 DUP6 DUP3 DUP7 ADD PUSH2 0x40DA JUMP JUMPDEST SWAP2 POP POP SWAP3 POP SWAP3 SWAP1 POP JUMP JUMPDEST PUSH0 DUP1 PUSH0 DUP1 PUSH1 0x80 DUP6 DUP8 SUB SLT ISZERO PUSH2 0x4144 JUMPI PUSH2 0x4143 PUSH2 0x36D6 JUMP JUMPDEST JUMPDEST PUSH0 PUSH2 0x4151 DUP8 DUP3 DUP9 ADD PUSH2 0x3757 JUMP JUMPDEST SWAP5 POP POP PUSH1 0x20 PUSH2 0x4162 DUP8 DUP3 DUP9 ADD PUSH2 0x3757 JUMP JUMPDEST SWAP4 POP POP PUSH1 0x40 PUSH2 0x4173 DUP8 DUP3 DUP9 ADD PUSH2 0x3757 JUMP JUMPDEST SWAP3 POP POP PUSH1 0x60 DUP6 ADD CALLDATALOAD PUSH8 0xFFFFFFFFFFFFFFFF DUP2 GT ISZERO PUSH2 0x4194 JUMPI PUSH2 0x4193 PUSH2 0x36DA JUMP JUMPDEST JUMPDEST PUSH2 0x41A0 DUP8 DUP3 DUP9 ADD PUSH2 0x3C51 JUMP JUMPDEST SWAP2 POP POP SWAP3 SWAP6 SWAP2 SWAP5 POP SWAP3 POP JUMP JUMPDEST PUSH0 PUSH2 0x41B6 DUP3 PUSH2 0x38AE JUMP JUMPDEST SWAP1 POP SWAP2 SWAP1 POP JUMP JUMPDEST PUSH2 0x41C6 DUP2 PUSH2 0x41AC JUMP JUMPDEST DUP3 MSTORE POP POP JUMP JUMPDEST PUSH0 PUSH1 0x20 DUP3 ADD SWAP1 POP PUSH2 0x41DF PUSH0 DUP4 ADD DUP5 PUSH2 0x41BD JUMP JUMPDEST SWAP3 SWAP2 POP POP JUMP JUMPDEST PUSH0 DUP1 PUSH1 0x40 DUP4 DUP6 SUB SLT ISZERO PUSH2 0x41FB JUMPI PUSH2 0x41FA PUSH2 0x36D6 JUMP JUMPDEST JUMPDEST PUSH0 PUSH2 0x4208 DUP6 DUP3 DUP7 ADD PUSH2 0x3724 JUMP JUMPDEST SWAP3 POP POP PUSH1 0x20 PUSH2 0x4219 DUP6 DUP3 DUP7 ADD PUSH2 0x3724 JUMP JUMPDEST SWAP2 POP POP SWAP3 POP SWAP3 SWAP1 POP JUMP JUMPDEST PUSH0 DUP1 PUSH0 DUP1 PUSH0 PUSH1 0xA0 DUP7 DUP9 SUB SLT ISZERO PUSH2 0x423C JUMPI PUSH2 0x423B PUSH2 0x36D6 JUMP JUMPDEST JUMPDEST PUSH0 PUSH2 0x4249 DUP9 DUP3 DUP10 ADD PUSH2 0x3724 JUMP JUMPDEST SWAP6 POP POP PUSH1 0x20 PUSH2 0x425A DUP9 DUP3 DUP10 ADD PUSH2 0x3724 JUMP JUMPDEST SWAP5 POP POP PUSH1 0x40 PUSH2 0x426B DUP9 DUP3 DUP10 ADD PUSH2 0x3757 JUMP JUMPDEST SWAP4 POP POP PUSH1 0x60 PUSH2 0x427C DUP9 DUP3 DUP10 ADD PUSH2 0x3757 JUMP JUMPDEST SWAP3 POP POP PUSH1 0x80 DUP7 ADD CALLDATALOAD PUSH8 0xFFFFFFFFFFFFFFFF DUP2 GT ISZERO PUSH2 0x429D JUMPI PUSH2 0x429C PUSH2 0x36DA JUMP JUMPDEST JUMPDEST PUSH2 0x42A9 DUP9 DUP3 DUP10 ADD PUSH2 0x3D01 JUMP JUMPDEST SWAP2 POP POP SWAP3 SWAP6 POP SWAP3 SWAP6 SWAP1 SWAP4 POP JUMP JUMPDEST PUSH0 PUSH1 0x20 DUP3 DUP5 SUB SLT ISZERO PUSH2 0x42CB JUMPI PUSH2 0x42CA PUSH2 0x36D6 JUMP JUMPDEST JUMPDEST PUSH0 PUSH2 0x42D8 DUP5 DUP3 DUP6 ADD PUSH2 0x3724 JUMP JUMPDEST SWAP2 POP POP SWAP3 SWAP2 POP POP JUMP JUMPDEST PUSH32 0x4E487B7100000000000000000000000000000000000000000000000000000000 PUSH0 MSTORE PUSH1 0x22 PUSH1 0x4 MSTORE PUSH1 0x24 PUSH0 REVERT JUMPDEST PUSH0 PUSH1 0x2 DUP3 DIV SWAP1 POP PUSH1 0x1 DUP3 AND DUP1 PUSH2 0x4325 JUMPI PUSH1 0x7F DUP3 AND SWAP2 POP JUMPDEST PUSH1 0x20 DUP3 LT DUP2 SUB PUSH2 0x4338 JUMPI PUSH2 0x4337 PUSH2 0x42E1 JUMP JUMPDEST JUMPDEST POP SWAP2 SWAP1 POP JUMP JUMPDEST PUSH0 PUSH8 0xFFFFFFFFFFFFFFFF DUP3 GT ISZERO PUSH2 0x4358 JUMPI PUSH2 0x4357 PUSH2 0x3B42 JUMP JUMPDEST JUMPDEST PUSH2 0x4361 DUP3 PUSH2 0x394B JUMP JUMPDEST SWAP1 POP PUSH1 0x20 DUP2 ADD SWAP1 POP SWAP2 SWAP1 POP JUMP JUMPDEST PUSH0 PUSH2 0x4380 PUSH2 0x437B DUP5 PUSH2 0x433E JUMP JUMPDEST PUSH2 0x3BA0 JUMP JUMPDEST SWAP1 POP DUP3 DUP2 MSTORE PUSH1 0x20 DUP2 ADD DUP5 DUP5 DUP5 ADD GT ISZERO PUSH2 0x439C JUMPI PUSH2 0x439B PUSH2 0x3C7E JUMP JUMPDEST JUMPDEST PUSH2 0x43A7 DUP5 DUP3 DUP6 PUSH2 0x393D JUMP JUMPDEST POP SWAP4 SWAP3 POP POP POP JUMP JUMPDEST PUSH0 DUP3 PUSH1 0x1F DUP4 ADD SLT PUSH2 0x43C3 JUMPI PUSH2 0x43C2 PUSH2 0x3B3E JUMP JUMPDEST JUMPDEST DUP2 MLOAD PUSH2 0x43D3 DUP5 DUP3 PUSH1 0x20 DUP7 ADD PUSH2 0x436E JUMP JUMPDEST SWAP2 POP POP SWAP3 SWAP2 POP POP JUMP JUMPDEST PUSH0 DUP2 MLOAD SWAP1 POP PUSH2 0x43EA DUP2 PUSH2 0x370E JUMP JUMPDEST SWAP3 SWAP2 POP POP JUMP JUMPDEST PUSH0 DUP2 MLOAD SWAP1 POP PUSH2 0x43FE DUP2 PUSH2 0x3741 JUMP JUMPDEST SWAP3 SWAP2 POP POP JUMP JUMPDEST PUSH1 0x2 DUP2 LT PUSH2 0x4410 JUMPI PUSH0 DUP1 REVERT JUMPDEST POP JUMP JUMPDEST PUSH0 DUP2 MLOAD SWAP1 POP PUSH2 0x4421 DUP2 PUSH2 0x4404 JUMP JUMPDEST SWAP3 SWAP2 POP POP JUMP JUMPDEST PUSH0 DUP1 PUSH0 DUP1 PUSH0 DUP1 PUSH0 DUP1 PUSH2 0x100 DUP10 DUP12 SUB SLT ISZERO PUSH2 0x4444 JUMPI PUSH2 0x4443 PUSH2 0x36D6 JUMP JUMPDEST JUMPDEST PUSH0 DUP10 ADD MLOAD PUSH8 0xFFFFFFFFFFFFFFFF DUP2 GT ISZERO PUSH2 0x4461 JUMPI PUSH2 0x4460 PUSH2 0x36DA JUMP JUMPDEST JUMPDEST PUSH2 0x446D DUP12 DUP3 DUP13 ADD PUSH2 0x43AF JUMP JUMPDEST SWAP9 POP POP PUSH1 0x20 DUP10 ADD MLOAD PUSH8 0xFFFFFFFFFFFFFFFF DUP2 GT ISZERO PUSH2 0x448E JUMPI PUSH2 0x448D PUSH2 0x36DA JUMP JUMPDEST JUMPDEST PUSH2 0x449A DUP12 DUP3 DUP13 ADD PUSH2 0x43AF JUMP JUMPDEST SWAP8 POP POP PUSH1 0x40 DUP10 ADD MLOAD PUSH8 0xFFFFFFFFFFFFFFFF DUP2 GT ISZERO PUSH2 0x44BB JUMPI PUSH2 0x44BA PUSH2 0x36DA JUMP JUMPDEST JUMPDEST PUSH2 0x44C7 DUP12 DUP3 DUP13 ADD PUSH2 0x43AF JUMP JUMPDEST SWAP7 POP POP PUSH1 0x60 PUSH2 0x44D8 DUP12 DUP3 DUP13 ADD PUSH2 0x43DC JUMP JUMPDEST SWAP6 POP POP PUSH1 0x80 PUSH2 0x44E9 DUP12 DUP3 DUP13 ADD PUSH2 0x43F0 JUMP JUMPDEST SWAP5 POP POP PUSH1 0xA0 PUSH2 0x44FA DUP12 DUP3 DUP13 ADD PUSH2 0x4413 JUMP JUMPDEST SWAP4 POP POP PUSH1 0xC0 PUSH2 0x450B DUP12 DUP3 DUP13 ADD PUSH2 0x43F0 JUMP JUMPDEST SWAP3 POP POP PUSH1 0xE0 PUSH2 0x451C DUP12 DUP3 DUP13 ADD PUSH2 0x43DC JUMP JUMPDEST SWAP2 POP POP SWAP3 SWAP6 SWAP9 POP SWAP3 SWAP6 SWAP9 SWAP1 SWAP4 SWAP7 POP JUMP JUMPDEST PUSH32 0x4E487B7100000000000000000000000000000000000000000000000000000000 PUSH0 MSTORE PUSH1 0x21 PUSH1 0x4 MSTORE PUSH1 0x24 PUSH0 REVERT JUMPDEST PUSH0 PUSH1 0x40 DUP3 ADD SWAP1 POP PUSH2 0x456C PUSH0 DUP4 ADD DUP6 PUSH2 0x37A9 JUMP JUMPDEST PUSH2 0x4579 PUSH1 0x20 DUP4 ADD DUP5 PUSH2 0x37A9 JUMP JUMPDEST SWAP4 SWAP3 POP POP POP JUMP JUMPDEST PUSH0 PUSH8 0xFFFFFFFFFFFFFFFF DUP3 GT ISZERO PUSH2 0x459A JUMPI PUSH2 0x4599 PUSH2 0x3B42 JUMP JUMPDEST JUMPDEST PUSH1 0x20 DUP3 MUL SWAP1 POP PUSH1 0x20 DUP2 ADD SWAP1 POP SWAP2 SWAP1 POP JUMP JUMPDEST PUSH0 DUP1 REVERT JUMPDEST PUSH0 DUP1 REVERT JUMPDEST PUSH0 PUSH2 0x45C5 PUSH2 0x45C0 DUP5 PUSH2 0x3F66 JUMP JUMPDEST PUSH2 0x3BA0 JUMP JUMPDEST SWAP1 POP DUP1 DUP4 DUP3 MSTORE PUSH1 0x20 DUP3 ADD SWAP1 POP PUSH1 0x20 DUP5 MUL DUP4 ADD DUP6 DUP2 GT ISZERO PUSH2 0x45E8 JUMPI PUSH2 0x45E7 PUSH2 0x3BE5 JUMP JUMPDEST JUMPDEST DUP4 JUMPDEST DUP2 DUP2 LT ISZERO PUSH2 0x4611 JUMPI DUP1 PUSH2 0x45FD DUP9 DUP3 PUSH2 0x43DC JUMP JUMPDEST DUP5 MSTORE PUSH1 0x20 DUP5 ADD SWAP4 POP POP PUSH1 0x20 DUP2 ADD SWAP1 POP PUSH2 0x45EA JUMP JUMPDEST POP POP POP SWAP4 SWAP3 POP POP POP JUMP JUMPDEST PUSH0 DUP3 PUSH1 0x1F DUP4 ADD SLT PUSH2 0x462F JUMPI PUSH2 0x462E PUSH2 0x3B3E JUMP JUMPDEST JUMPDEST DUP2 MLOAD PUSH2 0x463F DUP5 DUP3 PUSH1 0x20 DUP7 ADD PUSH2 0x45B3 JUMP JUMPDEST SWAP2 POP POP SWAP3 SWAP2 POP POP JUMP JUMPDEST PUSH0 PUSH1 0x20 DUP3 DUP5 SUB SLT ISZERO PUSH2 0x465D JUMPI PUSH2 0x465C PUSH2 0x45AB JUMP JUMPDEST JUMPDEST PUSH2 0x4667 PUSH1 0x20 PUSH2 0x3BA0 JUMP JUMPDEST SWAP1 POP PUSH0 DUP3 ADD MLOAD PUSH8 0xFFFFFFFFFFFFFFFF DUP2 GT ISZERO PUSH2 0x4686 JUMPI PUSH2 0x4685 PUSH2 0x45AF JUMP JUMPDEST JUMPDEST PUSH2 0x4692 DUP5 DUP3 DUP6 ADD PUSH2 0x461B JUMP JUMPDEST PUSH0 DUP4 ADD MSTORE POP SWAP3 SWAP2 POP POP JUMP JUMPDEST PUSH0 PUSH2 0x46AF PUSH2 0x46AA DUP5 PUSH2 0x4580 JUMP JUMPDEST PUSH2 0x3BA0 JUMP JUMPDEST SWAP1 POP DUP1 DUP4 DUP3 MSTORE PUSH1 0x20 DUP3 ADD SWAP1 POP PUSH1 0x20 DUP5 MUL DUP4 ADD DUP6 DUP2 GT ISZERO PUSH2 0x46D2 JUMPI PUSH2 0x46D1 PUSH2 0x3BE5 JUMP JUMPDEST JUMPDEST DUP4 JUMPDEST DUP2 DUP2 LT ISZERO PUSH2 0x4719 JUMPI DUP1 MLOAD PUSH8 0xFFFFFFFFFFFFFFFF DUP2 GT ISZERO PUSH2 0x46F7 JUMPI PUSH2 0x46F6 PUSH2 0x3B3E JUMP JUMPDEST JUMPDEST DUP1 DUP7 ADD PUSH2 0x4704 DUP10 DUP3 PUSH2 0x4648 JUMP JUMPDEST DUP6 MSTORE PUSH1 0x20 DUP6 ADD SWAP5 POP POP POP PUSH1 0x20 DUP2 ADD SWAP1 POP PUSH2 0x46D4 JUMP JUMPDEST POP POP POP SWAP4 SWAP3 POP POP POP JUMP JUMPDEST PUSH0 DUP3 PUSH1 0x1F DUP4 ADD SLT PUSH2 0x4737 JUMPI PUSH2 0x4736 PUSH2 0x3B3E JUMP JUMPDEST JUMPDEST DUP2 MLOAD PUSH2 0x4747 DUP5 DUP3 PUSH1 0x20 DUP7 ADD PUSH2 0x469D JUMP JUMPDEST SWAP2 POP POP SWAP3 SWAP2 POP POP JUMP JUMPDEST PUSH0 PUSH1 0x20 DUP3 DUP5 SUB SLT ISZERO PUSH2 0x4765 JUMPI PUSH2 0x4764 PUSH2 0x36D6 JUMP JUMPDEST JUMPDEST PUSH0 DUP3 ADD MLOAD PUSH8 0xFFFFFFFFFFFFFFFF DUP2 GT ISZERO PUSH2 0x4782 JUMPI PUSH2 0x4781 PUSH2 0x36DA JUMP JUMPDEST JUMPDEST PUSH2 0x478E DUP5 DUP3 DUP6 ADD PUSH2 0x4723 JUMP JUMPDEST SWAP2 POP POP SWAP3 SWAP2 POP POP JUMP JUMPDEST PUSH32 0x496E76616C69642067726F757020494400000000000000000000000000000000 PUSH0 DUP3 ADD MSTORE POP JUMP JUMPDEST PUSH0 PUSH2 0x47CB PUSH1 0x10 DUP4 PUSH2 0x392D JUMP JUMPDEST SWAP2 POP PUSH2 0x47D6 DUP3 PUSH2 0x4797 JUMP JUMPDEST PUSH1 0x20 DUP3 ADD SWAP1 POP SWAP2 SWAP1 POP JUMP JUMPDEST PUSH0 PUSH1 0x20 DUP3 ADD SWAP1 POP DUP2 DUP2 SUB PUSH0 DUP4 ADD MSTORE PUSH2 0x47F8 DUP2 PUSH2 0x47BF JUMP JUMPDEST SWAP1 POP SWAP2 SWAP1 POP JUMP JUMPDEST PUSH32 0x4E487B7100000000000000000000000000000000000000000000000000000000 PUSH0 MSTORE PUSH1 0x32 PUSH1 0x4 MSTORE PUSH1 0x24 PUSH0 REVERT JUMPDEST PUSH32 0x47726F757020646F6573206E6F74206578697374000000000000000000000000 PUSH0 DUP3 ADD MSTORE POP JUMP JUMPDEST PUSH0 PUSH2 0x4860 PUSH1 0x14 DUP4 PUSH2 0x392D JUMP JUMPDEST SWAP2 POP PUSH2 0x486B DUP3 PUSH2 0x482C JUMP JUMPDEST PUSH1 0x20 DUP3 ADD SWAP1 POP SWAP2 SWAP1 POP JUMP JUMPDEST PUSH0 PUSH1 0x20 DUP3 ADD SWAP1 POP DUP2 DUP2 SUB PUSH0 DUP4 ADD MSTORE PUSH2 0x488D DUP2 PUSH2 0x4854 JUMP JUMPDEST SWAP1 POP SWAP2 SWAP1 POP JUMP JUMPDEST PUSH32 0x4E6F7420616C6C206D656D626572732068617665207375626D69747465642072 PUSH0 DUP3 ADD MSTORE PUSH32 0x616E6B696E677300000000000000000000000000000000000000000000000000 PUSH1 0x20 DUP3 ADD MSTORE POP JUMP JUMPDEST PUSH0 PUSH2 0x48EE PUSH1 0x27 DUP4 PUSH2 0x392D JUMP JUMPDEST SWAP2 POP PUSH2 0x48F9 DUP3 PUSH2 0x4894 JUMP JUMPDEST PUSH1 0x40 DUP3 ADD SWAP1 POP SWAP2 SWAP1 POP JUMP JUMPDEST PUSH0 PUSH1 0x20 DUP3 ADD SWAP1 POP DUP2 DUP2 SUB PUSH0 DUP4 ADD MSTORE PUSH2 0x491B DUP2 PUSH2 0x48E2 JUMP JUMPDEST SWAP1 POP SWAP2 SWAP1 POP JUMP JUMPDEST PUSH32 0x5472616E7369656E742073636F726520666F72206D656D626572000000000000 PUSH0 DUP3 ADD MSTORE POP JUMP JUMPDEST PUSH0 PUSH2 0x4956 PUSH1 0x1A DUP4 PUSH2 0x392D JUMP JUMPDEST SWAP2 POP PUSH2 0x4961 DUP3 PUSH2 0x4922 JUMP JUMPDEST PUSH1 0x20 DUP3 ADD SWAP1 POP SWAP2 SWAP1 POP JUMP JUMPDEST PUSH0 PUSH1 0x40 DUP3 ADD SWAP1 POP DUP2 DUP2 SUB PUSH0 DUP4 ADD MSTORE PUSH2 0x4983 DUP2 PUSH2 0x494A JUMP JUMPDEST SWAP1 POP PUSH2 0x4992 PUSH1 0x20 DUP4 ADD DUP5 PUSH2 0x37A9 JUMP JUMPDEST SWAP3 SWAP2 POP POP JUMP JUMPDEST PUSH0 PUSH1 0x60 DUP3 ADD SWAP1 POP PUSH2 0x49AB PUSH0 DUP4 ADD DUP7 PUSH2 0x37A9 JUMP JUMPDEST PUSH2 0x49B8 PUSH1 0x20 DUP4 ADD DUP6 PUSH2 0x37A9 JUMP JUMPDEST DUP2 DUP2 SUB PUSH1 0x40 DUP4 ADD MSTORE PUSH2 0x49CA DUP2 DUP5 PUSH2 0x3AC2 JUMP JUMPDEST SWAP1 POP SWAP5 SWAP4 POP POP POP POP JUMP JUMPDEST PUSH0 PUSH1 0x40 DUP3 ADD SWAP1 POP PUSH2 0x49E7 PUSH0 DUP4 ADD DUP6 PUSH2 0x409C JUMP JUMPDEST PUSH2 0x49F4 PUSH1 0x20 DUP4 ADD DUP5 PUSH2 0x409C JUMP JUMPDEST SWAP4 SWAP3 POP POP POP JUMP JUMPDEST PUSH0 PUSH1 0x60 DUP3 ADD SWAP1 POP PUSH2 0x4A0E PUSH0 DUP4 ADD DUP7 PUSH2 0x37A9 JUMP JUMPDEST PUSH2 0x4A1B PUSH1 0x20 DUP4 ADD DUP6 PUSH2 0x37A9 JUMP JUMPDEST PUSH2 0x4A28 PUSH1 0x40 DUP4 ADD DUP5 PUSH2 0x37A9 JUMP JUMPDEST SWAP5 SWAP4 POP POP POP POP JUMP JUMPDEST PUSH0 DUP2 PUSH1 0xE0 SHR SWAP1 POP SWAP2 SWAP1 POP JUMP JUMPDEST PUSH0 PUSH1 0x3 RETURNDATASIZE GT ISZERO PUSH2 0x4A58 JUMPI PUSH1 0x4 PUSH0 DUP1 RETURNDATACOPY PUSH2 0x4A55 PUSH0 MLOAD PUSH2 0x4A30 JUMP JUMPDEST SWAP1 POP JUMPDEST SWAP1 JUMP JUMPDEST PUSH0 PUSH1 0x44 RETURNDATASIZE LT PUSH2 0x4AE7 JUMPI PUSH2 0x4A6C PUSH2 0x36CD JUMP JUMPDEST PUSH1 0x4 RETURNDATASIZE SUB PUSH1 0x4 DUP3 RETURNDATACOPY DUP1 MLOAD RETURNDATASIZE PUSH1 0x24 DUP3 ADD GT PUSH8 0xFFFFFFFFFFFFFFFF DUP3 GT OR ISZERO PUSH2 0x4A94 JUMPI POP POP PUSH2 0x4AE7 JUMP JUMPDEST DUP1 DUP3 ADD DUP1 MLOAD PUSH8 0xFFFFFFFFFFFFFFFF DUP2 GT ISZERO PUSH2 0x4AB2 JUMPI POP POP POP POP PUSH2 0x4AE7 JUMP JUMPDEST DUP1 PUSH1 0x20 DUP4 ADD ADD PUSH1 0x4 RETURNDATASIZE SUB DUP6 ADD DUP2 GT ISZERO PUSH2 0x4ACF JUMPI POP POP POP POP POP PUSH2 0x4AE7 JUMP JUMPDEST PUSH2 0x4ADE DUP3 PUSH1 0x20 ADD DUP6 ADD DUP7 PUSH2 0x3B6F JUMP JUMPDEST DUP3 SWAP6 POP POP POP POP POP POP JUMPDEST SWAP1 JUMP JUMPDEST PUSH32 0x436F6D6D756E69747920746F6B656E20616C7265616479206578697374730000 PUSH0 DUP3 ADD MSTORE POP JUMP JUMPDEST PUSH0 PUSH2 0x4B1E PUSH1 0x1E DUP4 PUSH2 0x392D JUMP JUMPDEST SWAP2 POP PUSH2 0x4B29 DUP3 PUSH2 0x4AEA JUMP JUMPDEST PUSH1 0x20 DUP3 ADD SWAP1 POP SWAP2 SWAP1 POP JUMP JUMPDEST PUSH0 PUSH1 0x20 DUP3 ADD SWAP1 POP DUP2 DUP2 SUB PUSH0 DUP4 ADD MSTORE PUSH2 0x4B4B DUP2 PUSH2 0x4B12 JUMP JUMPDEST SWAP1 POP SWAP2 SWAP1 POP JUMP JUMPDEST PUSH32 0x43616E206F6E6C79207375626D69742072616E6B696E677320666F7220746865 PUSH0 DUP3 ADD MSTORE PUSH32 0x2063757272656E74207765656B00000000000000000000000000000000000000 PUSH1 0x20 DUP3 ADD MSTORE POP JUMP JUMPDEST PUSH0 PUSH2 0x4BAC PUSH1 0x2D DUP4 PUSH2 0x392D JUMP JUMPDEST SWAP2 POP PUSH2 0x4BB7 DUP3 PUSH2 0x4B52 JUMP JUMPDEST PUSH1 0x40 DUP3 ADD SWAP1 POP SWAP2 SWAP1 POP JUMP JUMPDEST PUSH0 PUSH1 0x20 DUP3 ADD SWAP1 POP DUP2 DUP2 SUB PUSH0 DUP4 ADD MSTORE PUSH2 0x4BD9 DUP2 PUSH2 0x4BA0 JUMP JUMPDEST SWAP1 POP SWAP2 SWAP1 POP JUMP JUMPDEST PUSH32 0x52616E6B696E67206D75737420696E636C75646520616C6C2067726F7570206D PUSH0 DUP3 ADD MSTORE PUSH32 0x656D626572730000000000000000000000000000000000000000000000000000 PUSH1 0x20 DUP3 ADD MSTORE POP JUMP JUMPDEST PUSH0 PUSH2 0x4C3A PUSH1 0x26 DUP4 PUSH2 0x392D JUMP JUMPDEST SWAP2 POP PUSH2 0x4C45 DUP3 PUSH2 0x4BE0 JUMP JUMPDEST PUSH1 0x40 DUP3 ADD SWAP1 POP SWAP2 SWAP1 POP JUMP JUMPDEST PUSH0 PUSH1 0x20 DUP3 ADD SWAP1 POP DUP2 DUP2 SUB PUSH0 DUP4 ADD MSTORE PUSH2 0x4C67 DUP2 PUSH2 0x4C2E JUMP JUMPDEST SWAP1 POP SWAP2 SWAP1 POP JUMP JUMPDEST PUSH32 0x53656E646572206E6F742070617274206F66207468652067726F757000000000 PUSH0 DUP3 ADD MSTORE POP JUMP JUMPDEST PUSH0 PUSH2 0x4CA2 PUSH1 0x1C DUP4 PUSH2 0x392D JUMP JUMPDEST SWAP2 POP PUSH2 0x4CAD DUP3 PUSH2 0x4C6E JUMP JUMPDEST PUSH1 0x20 DUP3 ADD SWAP1 POP SWAP2 SWAP1 POP JUMP JUMPDEST PUSH0 PUSH1 0x20 DUP3 ADD SWAP1 POP DUP2 DUP2 SUB PUSH0 DUP4 ADD MSTORE PUSH2 0x4CCF DUP2 PUSH2 0x4C96 JUMP JUMPDEST SWAP1 POP SWAP2 SWAP1 POP JUMP JUMPDEST PUSH32 0x52616E6B696E6720616C7265616479207375626D697474656400000000000000 PUSH0 DUP3 ADD MSTORE POP JUMP JUMPDEST PUSH0 PUSH2 0x4D0A PUSH1 0x19 DUP4 PUSH2 0x392D JUMP JUMPDEST SWAP2 POP PUSH2 0x4D15 DUP3 PUSH2 0x4CD6 JUMP JUMPDEST PUSH1 0x20 DUP3 ADD SWAP1 POP SWAP2 SWAP1 POP JUMP JUMPDEST PUSH0 PUSH1 0x20 DUP3 ADD SWAP1 POP DUP2 DUP2 SUB PUSH0 DUP4 ADD MSTORE PUSH2 0x4D37 DUP2 PUSH2 0x4CFE JUMP JUMPDEST SWAP1 POP SWAP2 SWAP1 POP JUMP JUMPDEST PUSH0 PUSH1 0x80 DUP3 ADD SWAP1 POP DUP2 DUP2 SUB PUSH0 DUP4 ADD MSTORE PUSH2 0x4D56 DUP2 DUP8 PUSH2 0x395B JUMP JUMPDEST SWAP1 POP PUSH2 0x4D65 PUSH1 0x20 DUP4 ADD DUP7 PUSH2 0x37A9 JUMP JUMPDEST PUSH2 0x4D72 PUSH1 0x40 DUP4 ADD DUP6 PUSH2 0x37A9 JUMP JUMPDEST PUSH2 0x4D7F PUSH1 0x60 DUP4 ADD DUP5 PUSH2 0x37A9 JUMP JUMPDEST SWAP6 SWAP5 POP POP POP POP POP JUMP JUMPDEST PUSH0 PUSH1 0x60 DUP3 ADD SWAP1 POP DUP2 DUP2 SUB PUSH0 DUP4 ADD MSTORE PUSH2 0x4DA0 DUP2 DUP7 PUSH2 0x395B JUMP JUMPDEST SWAP1 POP PUSH2 0x4DAF PUSH1 0x20 DUP4 ADD DUP6 PUSH2 0x37A9 JUMP JUMPDEST PUSH2 0x4DBC PUSH1 0x40 DUP4 ADD DUP5 PUSH2 0x37A9 JUMP JUMPDEST SWAP5 SWAP4 POP POP POP POP JUMP JUMPDEST PUSH0 PUSH1 0x40 DUP3 ADD SWAP1 POP DUP2 DUP2 SUB PUSH0 DUP4 ADD MSTORE PUSH2 0x4DDC DUP2 DUP6 PUSH2 0x395B JUMP JUMPDEST SWAP1 POP PUSH2 0x4DEB PUSH1 0x20 DUP4 ADD DUP5 PUSH2 0x385C JUMP JUMPDEST SWAP4 SWAP3 POP POP POP JUMP JUMPDEST PUSH32 0x4E487B7100000000000000000000000000000000000000000000000000000000 PUSH0 MSTORE PUSH1 0x11 PUSH1 0x4 MSTORE PUSH1 0x24 PUSH0 REVERT JUMPDEST PUSH0 PUSH2 0x4E29 DUP3 PUSH2 0x3738 JUMP JUMPDEST SWAP2 POP PUSH2 0x4E34 DUP4 PUSH2 0x3738 JUMP JUMPDEST SWAP3 POP DUP3 DUP3 MUL PUSH2 0x4E42 DUP2 PUSH2 0x3738 JUMP JUMPDEST SWAP2 POP DUP3 DUP3 DIV DUP5 EQ DUP4 ISZERO OR PUSH2 0x4E59 JUMPI PUSH2 0x4E58 PUSH2 0x4DF2 JUMP JUMPDEST JUMPDEST POP SWAP3 SWAP2 POP POP JUMP JUMPDEST PUSH32 0x4E487B7100000000000000000000000000000000000000000000000000000000 PUSH0 MSTORE PUSH1 0x12 PUSH1 0x4 MSTORE PUSH1 0x24 PUSH0 REVERT JUMPDEST PUSH0 PUSH2 0x4E97 DUP3 PUSH2 0x3738 JUMP JUMPDEST SWAP2 POP PUSH2 0x4EA2 DUP4 PUSH2 0x3738 JUMP JUMPDEST SWAP3 POP DUP3 PUSH2 0x4EB2 JUMPI PUSH2 0x4EB1 PUSH2 0x4E60 JUMP JUMPDEST JUMPDEST DUP3 DUP3 DIV SWAP1 POP SWAP3 SWAP2 POP POP JUMP JUMPDEST PUSH0 PUSH2 0x4EC7 DUP3 PUSH2 0x3738 JUMP JUMPDEST SWAP2 POP PUSH2 0x4ED2 DUP4 PUSH2 0x3738 JUMP JUMPDEST SWAP3 POP DUP3 DUP3 SUB SWAP1 POP DUP2 DUP2 GT ISZERO PUSH2 0x4EEA JUMPI PUSH2 0x4EE9 PUSH2 0x4DF2 JUMP JUMPDEST JUMPDEST SWAP3 SWAP2 POP POP JUMP JUMPDEST PUSH0 PUSH2 0x4EFA DUP3 PUSH2 0x3738 JUMP JUMPDEST SWAP2 POP PUSH2 0x4F05 DUP4 PUSH2 0x3738 JUMP JUMPDEST SWAP3 POP DUP3 DUP3 ADD SWAP1 POP DUP1 DUP3 GT ISZERO PUSH2 0x4F1D JUMPI PUSH2 0x4F1C PUSH2 0x4DF2 JUMP JUMPDEST JUMPDEST SWAP3 SWAP2 POP POP JUMP JUMPDEST PUSH0 PUSH1 0x40 DUP3 ADD SWAP1 POP DUP2 DUP2 SUB PUSH0 DUP4 ADD MSTORE PUSH2 0x4F3B DUP2 DUP6 PUSH2 0x395B JUMP JUMPDEST SWAP1 POP PUSH2 0x4F4A PUSH1 0x20 DUP4 ADD DUP5 PUSH2 0x37A9 JUMP JUMPDEST SWAP4 SWAP3 POP POP POP JUMP JUMPDEST PUSH32 0x52616E6B696E67206C656E677468206D69736D61746368000000000000000000 PUSH0 DUP3 ADD MSTORE POP JUMP JUMPDEST PUSH0 PUSH2 0x4F85 PUSH1 0x17 DUP4 PUSH2 0x392D JUMP JUMPDEST SWAP2 POP PUSH2 0x4F90 DUP3 PUSH2 0x4F51 JUMP JUMPDEST PUSH1 0x20 DUP3 ADD SWAP1 POP SWAP2 SWAP1 POP JUMP JUMPDEST PUSH0 PUSH1 0x20 DUP3 ADD SWAP1 POP DUP2 DUP2 SUB PUSH0 DUP4 ADD MSTORE PUSH2 0x4FB2 DUP2 PUSH2 0x4F79 JUMP JUMPDEST SWAP1 POP SWAP2 SWAP1 POP JUMP JUMPDEST PUSH32 0x496E76616C69642072616E6B696E670000000000000000000000000000000000 PUSH0 DUP3 ADD MSTORE POP JUMP JUMPDEST PUSH0 PUSH2 0x4FED PUSH1 0xF DUP4 PUSH2 0x392D JUMP JUMPDEST SWAP2 POP PUSH2 0x4FF8 DUP3 PUSH2 0x4FB9 JUMP JUMPDEST PUSH1 0x20 DUP3 ADD SWAP1 POP SWAP2 SWAP1 POP JUMP JUMPDEST PUSH0 PUSH1 0x20 DUP3 ADD SWAP1 POP DUP2 DUP2 SUB PUSH0 DUP4 ADD MSTORE PUSH2 0x501A DUP2 PUSH2 0x4FE1 JUMP JUMPDEST SWAP1 POP SWAP2 SWAP1 POP JUMP JUMPDEST PUSH32 0x496E76616C696420726563697069656E74206164647265737300000000000000 PUSH0 DUP3 ADD MSTORE POP JUMP JUMPDEST PUSH0 PUSH2 0x5055 PUSH1 0x19 DUP4 PUSH2 0x392D JUMP JUMPDEST SWAP2 POP PUSH2 0x5060 DUP3 PUSH2 0x5021 JUMP JUMPDEST PUSH1 0x20 DUP3 ADD SWAP1 POP SWAP2 SWAP1 POP JUMP JUMPDEST PUSH0 PUSH1 0x20 DUP3 ADD SWAP1 POP DUP2 DUP2 SUB PUSH0 DUP4 ADD MSTORE PUSH2 0x5082 DUP2 PUSH2 0x5049 JUMP JUMPDEST SWAP1 POP SWAP2 SWAP1 POP JUMP JUMPDEST PUSH0 PUSH1 0x80 DUP3 ADD SWAP1 POP PUSH2 0x509C PUSH0 DUP4 ADD DUP8 PUSH2 0x37A9 JUMP JUMPDEST PUSH2 0x50A9 PUSH1 0x20 DUP4 ADD DUP7 PUSH2 0x409C JUMP JUMPDEST PUSH2 0x50B6 PUSH1 0x40 DUP4 ADD DUP6 PUSH2 0x37A9 JUMP JUMPDEST PUSH2 0x50C3 PUSH1 0x60 DUP4 ADD DUP5 PUSH2 0x37A9 JUMP JUMPDEST SWAP6 SWAP5 POP POP POP POP POP JUMP JUMPDEST PUSH0 PUSH2 0x50D6 DUP3 PUSH2 0x3738 JUMP JUMPDEST SWAP2 POP PUSH32 0xFFFFFFFFFFFFFFFFFFFFFFFFFFFFFFFFFFFFFFFFFFFFFFFFFFFFFFFFFFFFFFFF DUP3 SUB PUSH2 0x5108 JUMPI PUSH2 0x5107 PUSH2 0x4DF2 JUMP JUMPDEST JUMPDEST PUSH1 0x1 DUP3 ADD SWAP1 POP SWAP2 SWAP1 POP JUMP JUMPDEST PUSH0 PUSH1 0x60 DUP3 ADD SWAP1 POP DUP2 DUP2 SUB PUSH0 DUP4 ADD MSTORE PUSH2 0x512B DUP2 DUP7 PUSH2 0x395B JUMP JUMPDEST SWAP1 POP PUSH2 0x513A PUSH1 0x20 DUP4 ADD DUP6 PUSH2 0x37A9 JUMP JUMPDEST DUP2 DUP2 SUB PUSH1 0x40 DUP4 ADD MSTORE PUSH2 0x514C DUP2 DUP5 PUSH2 0x395B JUMP JUMPDEST SWAP1 POP SWAP5 SWAP4 POP POP POP POP JUMP JUMPDEST PUSH0 DUP2 SWAP1 POP SWAP2 SWAP1 POP JUMP JUMPDEST PUSH0 PUSH2 0x5169 DUP3 PUSH2 0x5156 JUMP JUMPDEST SWAP2 POP PUSH2 0x5174 DUP4 PUSH2 0x5156 JUMP JUMPDEST SWAP3 POP DUP3 DUP3 SUB SWAP1 POP DUP2 DUP2 SLT PUSH0 DUP5 SLT AND DUP3 DUP3 SGT PUSH0 DUP6 SLT ISZERO AND OR ISZERO PUSH2 0x5199 JUMPI PUSH2 0x5198 PUSH2 0x4DF2 JUMP JUMPDEST JUMPDEST SWAP3 SWAP2 POP POP JUMP JUMPDEST PUSH0 PUSH2 0x51A9 DUP3 PUSH2 0x5156 JUMP JUMPDEST SWAP2 POP PUSH2 0x51B4 DUP4 PUSH2 0x5156 JUMP JUMPDEST SWAP3 POP DUP3 DUP3 MUL PUSH2 0x51C2 DUP2 PUSH2 0x5156 JUMP JUMPDEST SWAP2 POP PUSH32 0x8000000000000000000000000000000000000000000000000000000000000000 DUP5 EQ PUSH0 DUP5 SLT AND ISZERO PUSH2 0x51F9 JUMPI PUSH2 0x51F8 PUSH2 0x4DF2 JUMP JUMPDEST JUMPDEST DUP3 DUP3 SDIV DUP5 EQ DUP4 ISZERO OR PUSH2 0x520E JUMPI PUSH2 0x520D PUSH2 0x4DF2 JUMP JUMPDEST JUMPDEST POP SWAP3 SWAP2 POP POP JUMP JUMPDEST PUSH0 PUSH1 0x80 DUP3 ADD SWAP1 POP PUSH2 0x5228 PUSH0 DUP4 ADD DUP8 PUSH2 0x409C JUMP JUMPDEST PUSH2 0x5235 PUSH1 0x20 DUP4 ADD DUP7 PUSH2 0x37A9 JUMP JUMPDEST PUSH2 0x5242 PUSH1 0x40 DUP4 ADD DUP6 PUSH2 0x37A9 JUMP JUMPDEST PUSH2 0x524F PUSH1 0x60 DUP4 ADD DUP5 PUSH2 0x37A9 JUMP JUMPDEST SWAP6 SWAP5 POP POP POP POP POP JUMP JUMPDEST PUSH0 PUSH1 0x40 DUP3 ADD SWAP1 POP DUP2 DUP2 SUB PUSH0 DUP4 ADD MSTORE PUSH2 0x5270 DUP2 DUP6 PUSH2 0x3AC2 JUMP JUMPDEST SWAP1 POP DUP2 DUP2 SUB PUSH1 0x20 DUP4 ADD MSTORE PUSH2 0x5284 DUP2 DUP5 PUSH2 0x3AC2 JUMP JUMPDEST SWAP1 POP SWAP4 SWAP3 POP POP POP JUMP JUMPDEST PUSH0 DUP2 MLOAD SWAP1 POP SWAP2 SWAP1 POP JUMP JUMPDEST PUSH0 DUP3 DUP3 MSTORE PUSH1 0x20 DUP3 ADD SWAP1 POP SWAP3 SWAP2 POP POP JUMP JUMPDEST PUSH0 PUSH2 0x52B1 DUP3 PUSH2 0x528D JUMP JUMPDEST PUSH2 0x52BB DUP2 DUP6 PUSH2 0x5297 JUMP JUMPDEST SWAP4 POP PUSH2 0x52CB DUP2 DUP6 PUSH1 0x20 DUP7 ADD PUSH2 0x393D JUMP JUMPDEST PUSH2 0x52D4 DUP2 PUSH2 0x394B JUMP JUMPDEST DUP5 ADD SWAP2 POP POP SWAP3 SWAP2 POP POP JUMP JUMPDEST PUSH0 PUSH1 0xA0 DUP3 ADD SWAP1 POP PUSH2 0x52F2 PUSH0 DUP4 ADD DUP9 PUSH2 0x409C JUMP JUMPDEST PUSH2 0x52FF PUSH1 0x20 DUP4 ADD DUP8 PUSH2 0x409C JUMP JUMPDEST PUSH2 0x530C PUSH1 0x40 DUP4 ADD DUP7 PUSH2 0x37A9 JUMP JUMPDEST PUSH2 0x5319 PUSH1 0x60 DUP4 ADD DUP6 PUSH2 0x37A9 JUMP JUMPDEST DUP2 DUP2 SUB PUSH1 0x80 DUP4 ADD MSTORE PUSH2 0x532B DUP2 DUP5 PUSH2 0x52A7 JUMP JUMPDEST SWAP1 POP SWAP7 SWAP6 POP POP POP POP POP POP JUMP JUMPDEST PUSH0 DUP2 MLOAD SWAP1 POP PUSH2 0x5345 DUP2 PUSH2 0x37FC JUMP JUMPDEST SWAP3 SWAP2 POP POP JUMP JUMPDEST PUSH0 PUSH1 0x20 DUP3 DUP5 SUB SLT ISZERO PUSH2 0x5360 JUMPI PUSH2 0x535F PUSH2 0x36D6 JUMP JUMPDEST JUMPDEST PUSH0 PUSH2 0x536D DUP5 DUP3 DUP6 ADD PUSH2 0x5337 JUMP JUMPDEST SWAP2 POP POP SWAP3 SWAP2 POP POP JUMP JUMPDEST PUSH0 PUSH1 0xA0 DUP3 ADD SWAP1 POP PUSH2 0x5389 PUSH0 DUP4 ADD DUP9 PUSH2 0x409C JUMP JUMPDEST PUSH2 0x5396 PUSH1 0x20 DUP4 ADD DUP8 PUSH2 0x409C JUMP JUMPDEST DUP2 DUP2 SUB PUSH1 0x40 DUP4 ADD MSTORE PUSH2 0x53A8 DUP2 DUP7 PUSH2 0x3AC2 JUMP JUMPDEST SWAP1 POP DUP2 DUP2 SUB PUSH1 0x60 DUP4 ADD MSTORE PUSH2 0x53BC DUP2 DUP6 PUSH2 0x3AC2 JUMP JUMPDEST SWAP1 POP DUP2 DUP2 SUB PUSH1 0x80 DUP4 ADD MSTORE PUSH2 0x53D0 DUP2 DUP5 PUSH2 0x52A7 JUMP JUMPDEST SWAP1 POP SWAP7 SWAP6 POP POP POP POP POP POP JUMP JUMPDEST PUSH32 0x4E487B7100000000000000000000000000000000000000000000000000000000 PUSH0 MSTORE PUSH1 0x51 PUSH1 0x4 MSTORE PUSH1 0x24 PUSH0 REVERT INVALID PREVRANDAO PUSH6 0x7465726D696E PUSH10 0x6E6720636F6E73656E73 PUSH22 0x7320666F722067726F757020257364657465726D696E PUSH6 0x436F6E73656E PUSH20 0x7573206661696C656420666F722067726F757020 0x25 PUSH20 0x207769746820756E6B6E6F776E206572726F7264 PUSH6 0x7465726D696E PUSH6 0x436F6E73656E PUSH20 0x7573466F72416C6C47726F7570732063616C6C65 PUSH5 0x20666F7220 PUSH4 0x6F6D6D75 PUSH15 0x6974792025732C207765656B202573 BLOBHASH PUSH20 0x7375696E67205245535045435420746F6B656E73 KECCAK256 PUSH7 0x6F722067726F75 PUSH17 0x202573436865636B696E6720696620616C PUSH13 0x206D656D62657273207375626D PUSH10 0x747465642072616E6B69 PUSH15 0x677364657465726D696E65436F6E73 PUSH6 0x6E7375732066 PUSH2 0x696C PUSH6 0x6420666F7220 PUSH8 0x726F75702025733A KECCAK256 0x25 PUSH20 0x436F6E73656E7375732064657465726D696E6564 KECCAK256 PUSH7 0x6F722067726F75 PUSH17 0x20257343757272656E74207765656B2066 PUSH19 0x6F6D2070726F66696C653A2025732C20437572 PUSH19 0x656E742073746174653A20257344657465726D PUSH10 0x6E696E6720636F6E7365 PUSH15 0x73757320666F7220636F6D6D756E69 PUSH21 0x792025732C207765656B2025732C2067726F757020 0x25 PUSH20 0xA2646970667358221220C9356AD2279AC60AF842 DIV ISZERO 0xB4 0xD3 LOG3 SWAP9 PUSH22 0x49DE67DEC85C55D305D8132B7BCAD864736F6C634300 ADDMOD BYTE STOP CALLER "
		},
		"gasEstimates": {
			"creation": {
				"codeDepositCost": "4395600",
				"executionCost": "infinite",
				"totalCost": "infinite"
			},
			"external": {
				"balanceOf(address,uint256)": "infinite",
				"balanceOfBatch(address[],uint256[])": "infinite",
				"communityExists(uint256)": "2829",
				"contributionsContract()": "infinite",
				"createCommunityToken(uint256)": "infinite",
				"determineConsensus(uint256,uint256,uint256)": "infinite",
				"determineConsensusForAllGroups(uint256,uint256)": "infinite",
				"getConsensusRanking(uint256,uint256,uint256)": "infinite",
				"getRanking(uint256,uint256,uint256,address)": "infinite",
				"getTransientScores(uint256,uint256,uint256)": "infinite",
				"isApprovedForAll(address,address)": "infinite",
				"owner()": "2604",
				"profilesContract()": "infinite",
				"renounceOwnership()": "infinite",
				"safeBatchTransferFrom(address,address,uint256[],uint256[],bytes)": "infinite",
				"safeTransferFrom(address,address,uint256,uint256,bytes)": "infinite",
				"setApprovalForAll(address,bool)": "infinite",
				"submitRanking(uint256,uint256,uint256,uint256[])": "infinite",
				"supportsInterface(bytes4)": "809",
				"transferOwnership(address)": "infinite",
				"uri(uint256)": "infinite"
			},
			"internal": {
				"allMembersSubmitted(uint256,uint256,uint256,struct ICommunityGovernanceContributions.Group memory)": "infinite",
				"calculateMaxVariance(uint256)": "infinite",
				"calculateMean(uint256[] memory)": "infinite",
				"calculateTransientScore(uint256,uint256,uint256,uint256,struct ICommunityGovernanceContributions.Group memory)": "infinite",
				"calculateVariance(uint256[] memory)": "infinite",
				"isPartOfGroup(struct ICommunityGovernanceContributions.Group memory,address)": "infinite",
				"issueRespectTokens(uint256,uint256,uint256,struct ICommunityGovernanceContributions.Group memory)": "infinite",
				"sortByScore(uint256[] memory)": "infinite"
			}
		},
		"methodIdentifiers": {
			"balanceOf(address,uint256)": "00fdd58e",
			"balanceOfBatch(address[],uint256[])": "4e1273f4",
			"communityExists(uint256)": "d60429d0",
			"contributionsContract()": "de04bbd2",
			"createCommunityToken(uint256)": "65c33697",
			"determineConsensus(uint256,uint256,uint256)": "17dd9e73",
			"determineConsensusForAllGroups(uint256,uint256)": "33718ce8",
			"getConsensusRanking(uint256,uint256,uint256)": "415b5d7d",
			"getRanking(uint256,uint256,uint256,address)": "2b3dffeb",
			"getTransientScores(uint256,uint256,uint256)": "32a7adb0",
			"isApprovedForAll(address,address)": "e985e9c5",
			"owner()": "8da5cb5b",
			"profilesContract()": "06428f02",
			"renounceOwnership()": "715018a6",
			"safeBatchTransferFrom(address,address,uint256[],uint256[],bytes)": "2eb2c2d6",
			"safeTransferFrom(address,address,uint256,uint256,bytes)": "f242432a",
			"setApprovalForAll(address,bool)": "a22cb465",
			"submitRanking(uint256,uint256,uint256,uint256[])": "b74ca713",
			"supportsInterface(bytes4)": "01ffc9a7",
			"transferOwnership(address)": "f2fde38b",
			"uri(uint256)": "0e89341c"
		}
	},
	"abi": [
		{
			"inputs": [
				{
					"internalType": "address",
					"name": "_contributionsContractAddress",
					"type": "address"
				},
				{
					"internalType": "address",
					"name": "_profilesContractAddress",
					"type": "address"
				}
			],
			"stateMutability": "nonpayable",
			"type": "constructor"
		},
		{
			"inputs": [
				{
					"internalType": "address",
					"name": "sender",
					"type": "address"
				},
				{
					"internalType": "uint256",
					"name": "balance",
					"type": "uint256"
				},
				{
					"internalType": "uint256",
					"name": "needed",
					"type": "uint256"
				},
				{
					"internalType": "uint256",
					"name": "tokenId",
					"type": "uint256"
				}
			],
			"name": "ERC1155InsufficientBalance",
			"type": "error"
		},
		{
			"inputs": [
				{
					"internalType": "address",
					"name": "approver",
					"type": "address"
				}
			],
			"name": "ERC1155InvalidApprover",
			"type": "error"
		},
		{
			"inputs": [
				{
					"internalType": "uint256",
					"name": "idsLength",
					"type": "uint256"
				},
				{
					"internalType": "uint256",
					"name": "valuesLength",
					"type": "uint256"
				}
			],
			"name": "ERC1155InvalidArrayLength",
			"type": "error"
		},
		{
			"inputs": [
				{
					"internalType": "address",
					"name": "operator",
					"type": "address"
				}
			],
			"name": "ERC1155InvalidOperator",
			"type": "error"
		},
		{
			"inputs": [
				{
					"internalType": "address",
					"name": "receiver",
					"type": "address"
				}
			],
			"name": "ERC1155InvalidReceiver",
			"type": "error"
		},
		{
			"inputs": [
				{
					"internalType": "address",
					"name": "sender",
					"type": "address"
				}
			],
			"name": "ERC1155InvalidSender",
			"type": "error"
		},
		{
			"inputs": [
				{
					"internalType": "address",
					"name": "operator",
					"type": "address"
				},
				{
					"internalType": "address",
					"name": "owner",
					"type": "address"
				}
			],
			"name": "ERC1155MissingApprovalForAll",
			"type": "error"
		},
		{
			"inputs": [
				{
					"internalType": "address",
					"name": "owner",
					"type": "address"
				}
			],
			"name": "OwnableInvalidOwner",
			"type": "error"
		},
		{
			"inputs": [
				{
					"internalType": "address",
					"name": "account",
					"type": "address"
				}
			],
			"name": "OwnableUnauthorizedAccount",
			"type": "error"
		},
		{
			"anonymous": false,
			"inputs": [
				{
					"indexed": true,
					"internalType": "address",
					"name": "account",
					"type": "address"
				},
				{
					"indexed": true,
					"internalType": "address",
					"name": "operator",
					"type": "address"
				},
				{
					"indexed": false,
					"internalType": "bool",
					"name": "approved",
					"type": "bool"
				}
			],
			"name": "ApprovalForAll",
			"type": "event"
		},
		{
			"anonymous": false,
			"inputs": [
				{
					"indexed": true,
					"internalType": "uint256",
					"name": "communityId",
					"type": "uint256"
				},
				{
					"indexed": false,
					"internalType": "uint256",
					"name": "weekNumber",
					"type": "uint256"
				},
				{
					"indexed": false,
					"internalType": "uint256",
					"name": "groupId",
					"type": "uint256"
				},
				{
					"indexed": false,
					"internalType": "uint256[]",
					"name": "consensusRanking",
					"type": "uint256[]"
				}
			],
			"name": "ConsensusReached",
			"type": "event"
		},
		{
			"anonymous": false,
			"inputs": [
				{
					"indexed": false,
					"internalType": "string",
					"name": "message",
					"type": "string"
				},
				{
					"indexed": false,
					"internalType": "uint256",
					"name": "value",
					"type": "uint256"
				}
			],
			"name": "DebugLog",
			"type": "event"
		},
		{
			"anonymous": false,
			"inputs": [
				{
					"indexed": true,
					"internalType": "address",
					"name": "previousOwner",
					"type": "address"
				},
				{
					"indexed": true,
					"internalType": "address",
					"name": "newOwner",
					"type": "address"
				}
			],
			"name": "OwnershipTransferred",
			"type": "event"
		},
		{
			"anonymous": false,
			"inputs": [
				{
					"indexed": true,
					"internalType": "uint256",
					"name": "communityId",
					"type": "uint256"
				},
				{
					"indexed": false,
					"internalType": "uint256",
					"name": "weekNumber",
					"type": "uint256"
				},
				{
					"indexed": false,
					"internalType": "uint256",
					"name": "groupId",
					"type": "uint256"
				},
				{
					"indexed": true,
					"internalType": "address",
					"name": "submitter",
					"type": "address"
				}
			],
			"name": "RankingSubmitted",
			"type": "event"
		},
		{
			"anonymous": false,
			"inputs": [
				{
					"indexed": true,
					"internalType": "uint256",
					"name": "communityId",
					"type": "uint256"
				},
				{
					"indexed": false,
					"internalType": "uint256",
					"name": "weekNumber",
					"type": "uint256"
				},
				{
					"indexed": false,
					"internalType": "uint256",
					"name": "groupId",
					"type": "uint256"
				},
				{
					"indexed": true,
					"internalType": "address",
					"name": "recipient",
					"type": "address"
				},
				{
					"indexed": false,
					"internalType": "uint256",
					"name": "amount",
					"type": "uint256"
				},
				{
					"indexed": false,
					"internalType": "string",
					"name": "reason",
					"type": "string"
				}
			],
			"name": "RespectIssueFailed",
			"type": "event"
		},
		{
			"anonymous": false,
			"inputs": [
				{
					"indexed": true,
					"internalType": "uint256",
					"name": "communityId",
					"type": "uint256"
				},
				{
					"indexed": false,
					"internalType": "uint256",
					"name": "weekNumber",
					"type": "uint256"
				},
				{
					"indexed": false,
					"internalType": "uint256",
					"name": "groupId",
					"type": "uint256"
				},
				{
					"indexed": true,
					"internalType": "address",
					"name": "recipient",
					"type": "address"
				},
				{
					"indexed": false,
					"internalType": "uint256",
					"name": "amount",
					"type": "uint256"
				}
			],
			"name": "RespectIssued",
			"type": "event"
		},
		{
			"anonymous": false,
			"inputs": [
				{
					"indexed": true,
					"internalType": "address",
					"name": "operator",
					"type": "address"
				},
				{
					"indexed": true,
					"internalType": "address",
					"name": "from",
					"type": "address"
				},
				{
					"indexed": true,
					"internalType": "address",
					"name": "to",
					"type": "address"
				},
				{
					"indexed": false,
					"internalType": "uint256[]",
					"name": "ids",
					"type": "uint256[]"
				},
				{
					"indexed": false,
					"internalType": "uint256[]",
					"name": "values",
					"type": "uint256[]"
				}
			],
			"name": "TransferBatch",
			"type": "event"
		},
		{
			"anonymous": false,
			"inputs": [
				{
					"indexed": true,
					"internalType": "address",
					"name": "operator",
					"type": "address"
				},
				{
					"indexed": true,
					"internalType": "address",
					"name": "from",
					"type": "address"
				},
				{
					"indexed": true,
					"internalType": "address",
					"name": "to",
					"type": "address"
				},
				{
					"indexed": false,
					"internalType": "uint256",
					"name": "id",
					"type": "uint256"
				},
				{
					"indexed": false,
					"internalType": "uint256",
					"name": "value",
					"type": "uint256"
				}
			],
			"name": "TransferSingle",
			"type": "event"
		},
		{
			"anonymous": false,
			"inputs": [
				{
					"indexed": false,
					"internalType": "string",
					"name": "value",
					"type": "string"
				},
				{
					"indexed": true,
					"internalType": "uint256",
					"name": "id",
					"type": "uint256"
				}
			],
			"name": "URI",
			"type": "event"
		},
		{
			"inputs": [
				{
					"internalType": "address",
					"name": "account",
					"type": "address"
				},
				{
					"internalType": "uint256",
					"name": "id",
					"type": "uint256"
				}
			],
			"name": "balanceOf",
			"outputs": [
				{
					"internalType": "uint256",
					"name": "",
					"type": "uint256"
				}
			],
			"stateMutability": "view",
			"type": "function"
		},
		{
			"inputs": [
				{
					"internalType": "address[]",
					"name": "accounts",
					"type": "address[]"
				},
				{
					"internalType": "uint256[]",
					"name": "ids",
					"type": "uint256[]"
				}
			],
			"name": "balanceOfBatch",
			"outputs": [
				{
					"internalType": "uint256[]",
					"name": "",
					"type": "uint256[]"
				}
			],
			"stateMutability": "view",
			"type": "function"
		},
		{
			"inputs": [
				{
					"internalType": "uint256",
					"name": "",
					"type": "uint256"
				}
			],
			"name": "communityExists",
			"outputs": [
				{
					"internalType": "bool",
					"name": "",
					"type": "bool"
				}
			],
			"stateMutability": "view",
			"type": "function"
		},
		{
			"inputs": [],
			"name": "contributionsContract",
			"outputs": [
				{
					"internalType": "contract ICommunityGovernanceContributions",
					"name": "",
					"type": "address"
				}
			],
			"stateMutability": "view",
			"type": "function"
		},
		{
			"inputs": [
				{
					"internalType": "uint256",
					"name": "communityId",
					"type": "uint256"
				}
			],
			"name": "createCommunityToken",
			"outputs": [],
			"stateMutability": "nonpayable",
			"type": "function"
		},
		{
			"inputs": [
				{
					"internalType": "uint256",
					"name": "_communityId",
					"type": "uint256"
				},
				{
					"internalType": "uint256",
					"name": "_weekNumber",
					"type": "uint256"
				},
				{
					"internalType": "uint256",
					"name": "_groupId",
					"type": "uint256"
				}
			],
			"name": "determineConsensus",
			"outputs": [],
			"stateMutability": "nonpayable",
			"type": "function"
		},
		{
			"inputs": [
				{
					"internalType": "uint256",
					"name": "_communityId",
					"type": "uint256"
				},
				{
					"internalType": "uint256",
					"name": "_weekNumber",
					"type": "uint256"
				}
			],
			"name": "determineConsensusForAllGroups",
			"outputs": [],
			"stateMutability": "nonpayable",
			"type": "function"
		},
		{
			"inputs": [
				{
					"internalType": "uint256",
					"name": "_communityId",
					"type": "uint256"
				},
				{
					"internalType": "uint256",
					"name": "_weekNumber",
					"type": "uint256"
				},
				{
					"internalType": "uint256",
					"name": "_groupId",
					"type": "uint256"
				}
			],
			"name": "getConsensusRanking",
			"outputs": [
				{
					"internalType": "uint256[]",
					"name": "rankedScores",
					"type": "uint256[]"
				},
				{
					"internalType": "uint256[]",
					"name": "transientScores",
					"type": "uint256[]"
				},
				{
					"internalType": "uint256",
					"name": "timestamp",
					"type": "uint256"
				}
			],
			"stateMutability": "view",
			"type": "function"
		},
		{
			"inputs": [
				{
					"internalType": "uint256",
					"name": "_communityId",
					"type": "uint256"
				},
				{
					"internalType": "uint256",
					"name": "_weekNumber",
					"type": "uint256"
				},
				{
					"internalType": "uint256",
					"name": "_groupId",
					"type": "uint256"
				},
				{
					"internalType": "address",
					"name": "_user",
					"type": "address"
				}
			],
			"name": "getRanking",
			"outputs": [
				{
					"internalType": "uint256[]",
					"name": "",
					"type": "uint256[]"
				}
			],
			"stateMutability": "view",
			"type": "function"
		},
		{
			"inputs": [
				{
					"internalType": "uint256",
					"name": "_communityId",
					"type": "uint256"
				},
				{
					"internalType": "uint256",
					"name": "_weekNumber",
					"type": "uint256"
				},
				{
					"internalType": "uint256",
					"name": "_groupId",
					"type": "uint256"
				}
			],
			"name": "getTransientScores",
			"outputs": [
				{
					"internalType": "address[]",
					"name": "",
					"type": "address[]"
				},
				{
					"internalType": "uint256[]",
					"name": "",
					"type": "uint256[]"
				}
			],
			"stateMutability": "view",
			"type": "function"
		},
		{
			"inputs": [
				{
					"internalType": "address",
					"name": "account",
					"type": "address"
				},
				{
					"internalType": "address",
					"name": "operator",
					"type": "address"
				}
			],
			"name": "isApprovedForAll",
			"outputs": [
				{
					"internalType": "bool",
					"name": "",
					"type": "bool"
				}
			],
			"stateMutability": "view",
			"type": "function"
		},
		{
			"inputs": [],
			"name": "owner",
			"outputs": [
				{
					"internalType": "address",
					"name": "",
					"type": "address"
				}
			],
			"stateMutability": "view",
			"type": "function"
		},
		{
			"inputs": [],
			"name": "profilesContract",
			"outputs": [
				{
					"internalType": "contract ICommunityGovernanceProfiles",
					"name": "",
					"type": "address"
				}
			],
			"stateMutability": "view",
			"type": "function"
		},
		{
			"inputs": [],
			"name": "renounceOwnership",
			"outputs": [],
			"stateMutability": "nonpayable",
			"type": "function"
		},
		{
			"inputs": [
				{
					"internalType": "address",
					"name": "from",
					"type": "address"
				},
				{
					"internalType": "address",
					"name": "to",
					"type": "address"
				},
				{
					"internalType": "uint256[]",
					"name": "ids",
					"type": "uint256[]"
				},
				{
					"internalType": "uint256[]",
					"name": "values",
					"type": "uint256[]"
				},
				{
					"internalType": "bytes",
					"name": "data",
					"type": "bytes"
				}
			],
			"name": "safeBatchTransferFrom",
			"outputs": [],
			"stateMutability": "nonpayable",
			"type": "function"
		},
		{
			"inputs": [
				{
					"internalType": "address",
					"name": "from",
					"type": "address"
				},
				{
					"internalType": "address",
					"name": "to",
					"type": "address"
				},
				{
					"internalType": "uint256",
					"name": "id",
					"type": "uint256"
				},
				{
					"internalType": "uint256",
					"name": "value",
					"type": "uint256"
				},
				{
					"internalType": "bytes",
					"name": "data",
					"type": "bytes"
				}
			],
			"name": "safeTransferFrom",
			"outputs": [],
			"stateMutability": "nonpayable",
			"type": "function"
		},
		{
			"inputs": [
				{
					"internalType": "address",
					"name": "operator",
					"type": "address"
				},
				{
					"internalType": "bool",
					"name": "approved",
					"type": "bool"
				}
			],
			"name": "setApprovalForAll",
			"outputs": [],
			"stateMutability": "nonpayable",
			"type": "function"
		},
		{
			"inputs": [
				{
					"internalType": "uint256",
					"name": "_communityId",
					"type": "uint256"
				},
				{
					"internalType": "uint256",
					"name": "_weekNumber",
					"type": "uint256"
				},
				{
					"internalType": "uint256",
					"name": "_groupId",
					"type": "uint256"
				},
				{
					"internalType": "uint256[]",
					"name": "_ranking",
					"type": "uint256[]"
				}
			],
			"name": "submitRanking",
			"outputs": [],
			"stateMutability": "nonpayable",
			"type": "function"
		},
		{
			"inputs": [
				{
					"internalType": "bytes4",
					"name": "interfaceId",
					"type": "bytes4"
				}
			],
			"name": "supportsInterface",
			"outputs": [
				{
					"internalType": "bool",
					"name": "",
					"type": "bool"
				}
			],
			"stateMutability": "view",
			"type": "function"
		},
		{
			"inputs": [
				{
					"internalType": "address",
					"name": "newOwner",
					"type": "address"
				}
			],
			"name": "transferOwnership",
			"outputs": [],
			"stateMutability": "nonpayable",
			"type": "function"
		},
		{
			"inputs": [
				{
					"internalType": "uint256",
					"name": "",
					"type": "uint256"
				}
			],
			"name": "uri",
			"outputs": [
				{
					"internalType": "string",
					"name": "",
					"type": "string"
				}
			],
			"stateMutability": "view",
			"type": "function"
		}
	]
}