{
	"data": {
		"bytecode": {
			"linkReferences": {},
			"object": "60806040526040518060c00160405280601560ff168152602001600d60ff168152602001600860ff168152602001600560ff168152602001600360ff168152602001600260ff16815250600a9060066100599291906103bc565b50348015610065575f80fd5b506040516165133803806165138339818101604052810190610087919061048f565b3360405180602001604052805f8152506100a6816101f260201b60201c565b505f73ffffffffffffffffffffffffffffffffffffffff168173ffffffffffffffffffffffffffffffffffffffff1603610117575f6040517f1e4fbdf700000000000000000000000000000000000000000000000000000000815260040161010e91906104dc565b60405180910390fd5b6101268161020560201b60201c565b508160045f6101000a81548173ffffffffffffffffffffffffffffffffffffffff021916908373ffffffffffffffffffffffffffffffffffffffff1602179055508060055f6101000a81548173ffffffffffffffffffffffffffffffffffffffff021916908373ffffffffffffffffffffffffffffffffffffffff1602179055506101eb6040518060400160405280601b81526020017f436f6e7472616374206973206265696e67206465706c6f7965642100000000008152506102c860201b60201c565b50506108b1565b8060029081610201919061072f565b5050565b5f60035f9054906101000a900473ffffffffffffffffffffffffffffffffffffffff1690508160035f6101000a81548173ffffffffffffffffffffffffffffffffffffffff021916908373ffffffffffffffffffffffffffffffffffffffff1602179055508173ffffffffffffffffffffffffffffffffffffffff168173ffffffffffffffffffffffffffffffffffffffff167f8be0079c531659141344cd1fd0a4f28419497f9722a3daafe3b4186f6b6457e060405160405180910390a35050565b610364816040516024016102dc9190610864565b6040516020818303038152906040527f41304fac000000000000000000000000000000000000000000000000000000007bffffffffffffffffffffffffffffffffffffffffffffffffffffffff19166020820180517bffffffffffffffffffffffffffffffffffffffffffffffffffffffff838183161783525050505061036760201b60201c565b50565b6103888161038361038b60201b611f44176103aa60201b60201c565b60201c565b50565b5f6a636f6e736f6c652e6c6f6790505f80835160208501845afa505050565b61040c60201b613cbe17819050919050565b828054828255905f5260205f209081019282156103fb579160200282015b828111156103fa578251829060ff169055916020019190600101906103da565b5b5090506104089190610416565b5090565b610414610884565b565b5b8082111561042d575f815f905550600101610417565b5090565b5f80fd5b5f73ffffffffffffffffffffffffffffffffffffffff82169050919050565b5f61045e82610435565b9050919050565b61046e81610454565b8114610478575f80fd5b50565b5f8151905061048981610465565b92915050565b5f80604083850312156104a5576104a4610431565b5b5f6104b28582860161047b565b92505060206104c38582860161047b565b9150509250929050565b6104d681610454565b82525050565b5f6020820190506104ef5f8301846104cd565b92915050565b5f81519050919050565b7f4e487b71000000000000000000000000000000000000000000000000000000005f52604160045260245ffd5b7f4e487b71000000000000000000000000000000000000000000000000000000005f52602260045260245ffd5b5f600282049050600182168061057057607f821691505b6020821081036105835761058261052c565b5b50919050565b5f819050815f5260205f209050919050565b5f6020601f8301049050919050565b5f82821b905092915050565b5f600883026105e57fffffffffffffffffffffffffffffffffffffffffffffffffffffffffffffffff826105aa565b6105ef86836105aa565b95508019841693508086168417925050509392505050565b5f819050919050565b5f819050919050565b5f61063361062e61062984610607565b610610565b610607565b9050919050565b5f819050919050565b61064c83610619565b6106606106588261063a565b8484546105b6565b825550505050565b5f90565b610674610668565b61067f818484610643565b505050565b5b818110156106a2576106975f8261066c565b600181019050610685565b5050565b601f8211156106e7576106b881610589565b6106c18461059b565b810160208510156106d0578190505b6106e46106dc8561059b565b830182610684565b50505b505050565b5f82821c905092915050565b5f6107075f19846008026106ec565b1980831691505092915050565b5f61071f83836106f8565b9150826002028217905092915050565b610738826104f5565b67ffffffffffffffff811115610751576107506104ff565b5b61075b8254610559565b6107668282856106a6565b5f60209050601f831160018114610797575f8415610785578287015190505b61078f8582610714565b8655506107f6565b601f1984166107a586610589565b5f5b828110156107cc578489015182556001820191506020850194506020810190506107a7565b868310156107e957848901516107e5601f8916826106f8565b8355505b6001600288020188555050505b505050505050565b5f82825260208201905092915050565b8281835e5f83830152505050565b5f601f19601f8301169050919050565b5f610836826104f5565b61084081856107fe565b935061085081856020860161080e565b6108598161081c565b840191505092915050565b5f6020820190508181035f83015261087c818461082c565b905092915050565b7f4e487b71000000000000000000000000000000000000000000000000000000005f52605160045260245ffd5b615c55806108be5f395ff3fe608060405234801561000f575f80fd5b5060043610610155575f3560e01c8063643f273d116100c1578063d60429d01161007a578063d60429d0146103e7578063de04bbd214610417578063e985e9c514610435578063f02a9df814610465578063f242432a14610496578063f2fde38b146104b257610155565b8063643f273d1461033a57806365c336971461036b578063715018a6146103875780638da5cb5b14610391578063a22cb465146103af578063b74ca713146103cb57610155565b80632eb2c2d6116101135780632eb2c2d61461025357806332a7adb01461026f57806333718ce8146102a0578063415b5d7d146102bc57806346e04a2f146102ee5780634e1273f41461030a57610155565b8062fdd58e1461015957806301ffc9a71461018957806306428f02146101b95780630e89341c146101d757806317dd9e73146102075780632b3dffeb14610223575b5f80fd5b610173600480360381019061016e9190613dcc565b6104ce565b6040516101809190613e19565b60405180910390f35b6101a3600480360381019061019e9190613e87565b610523565b6040516101b09190613ecc565b60405180910390f35b6101c1610604565b6040516101ce9190613f40565b60405180910390f35b6101f160048036038101906101ec9190613f59565b610629565b6040516101fe9190613ff4565b60405180910390f35b610221600480360381019061021c9190614014565b6106bb565b005b61023d60048036038101906102389190614064565b610bae565b60405161024a919061417f565b60405180910390f35b61026d6004803603810190610268919061438f565b610c73565b005b61028960048036038101906102849190614014565b610d1a565b604051610297929190614511565b60405180910390f35b6102ba60048036038101906102b59190614546565b610f81565b005b6102d660048036038101906102d19190614014565b6113e8565b6040516102e593929190614584565b60405180910390f35b61030860048036038101906103039190613f59565b6114da565b005b610324600480360381019061031f9190614687565b611631565b604051610331919061417f565b60405180910390f35b610354600480360381019061034f91906146fd565b611738565b60405161036292919061473b565b60405180910390f35b61038560048036038101906103809190613f59565b61176f565b005b61038f611801565b005b610399611814565b6040516103a69190614771565b60405180910390f35b6103c960048036038101906103c491906147b4565b61183c565b005b6103e560048036038101906103e091906147f2565b611852565b005b61040160048036038101906103fc9190613f59565b611cd7565b60405161040e9190613ecc565b60405180910390f35b61041f611cf4565b60405161042c9190614892565b60405180910390f35b61044f600480360381019061044a91906148ab565b611d19565b60405161045c9190613ecc565b60405180910390f35b61047f600480360381019061047a91906146fd565b611da7565b60405161048d92919061473b565b60405180910390f35b6104b060048036038101906104ab91906148e9565b611e19565b005b6104cc60048036038101906104c7919061497c565b611ec0565b005b5f805f8381526020019081526020015f205f8473ffffffffffffffffffffffffffffffffffffffff1673ffffffffffffffffffffffffffffffffffffffff1681526020019081526020015f2054905092915050565b5f7fd9b67a26000000000000000000000000000000000000000000000000000000007bffffffffffffffffffffffffffffffffffffffffffffffffffffffff1916827bffffffffffffffffffffffffffffffffffffffffffffffffffffffff191614806105ed57507f0e89341c000000000000000000000000000000000000000000000000000000007bffffffffffffffffffffffffffffffffffffffffffffffffffffffff1916827bffffffffffffffffffffffffffffffffffffffffffffffffffffffff1916145b806105fd57506105fc82611f63565b5b9050919050565b60055f9054906101000a900473ffffffffffffffffffffffffffffffffffffffff1681565b606060028054610638906149d4565b80601f0160208091040260200160405190810160405280929190818152602001828054610664906149d4565b80156106af5780601f10610686576101008083540402835291602001916106af565b820191905f5260205f20905b81548152906001019060200180831161069257829003601f168201915b50505050509050919050565b6106df604051806060016040528060398152602001615be760399139848484611fcc565b5f8060055f9054906101000a900473ffffffffffffffffffffffffffffffffffffffff1673ffffffffffffffffffffffffffffffffffffffff166399664245866040518263ffffffff1660e01b815260040161073b9190613e19565b5f60405180830381865afa158015610755573d5f803e3d5ffd5b505050506040513d5f823e3d601f19601f8201168201806040525081019061077d9190614aed565b509650965050505050506107bc604051806060016040528060308152602001615bb760309139828460018111156107b7576107b6614bf2565b5b61206e565b5f60045f9054906101000a900473ffffffffffffffffffffffffffffffffffffffff1673ffffffffffffffffffffffffffffffffffffffff16636c331bd387876040518363ffffffff1660e01b8152600401610819929190614c1f565b5f60405180830381865afa158015610833573d5f803e3d5ffd5b505050506040513d5f823e3d601f19601f8201168201806040525081019061085b9190614e16565b9050805184106108a0576040517f08c379a000000000000000000000000000000000000000000000000000000000815260040161089790614ea7565b60405180910390fd5b5f8185815181106108b4576108b3614ec5565b5b602002602001015190505f815f01515111610904576040517f08c379a00000000000000000000000000000000000000000000000000000000081526004016108fb90614f3c565b60405180910390fd5b6109256040518060600160405280602a8152602001615b8d602a913961210d565b5f610932888888856121a6565b90506109736040518060400160405280601981526020017f416c6c206d656d62657273207375626d69747465643a202573000000000000008152508261226f565b806109b3576040517f08c379a00000000000000000000000000000000000000000000000000000000081526004016109aa90614fca565b60405180910390fd5b5f825f01515190505f8167ffffffffffffffff8111156109d6576109d56141a3565b5b604051908082528060200260200182016040528015610a045781602001602082028036833780820191505090505b5090505f5b82811015610a9b57610a1e8b8b8b848961230b565b828281518110610a3157610a30614ec5565b5b6020026020010181815250507ff6ff2ad7fc16bda2a7d32462729431bce3ebe9b75cc7c9b35a0adfbf7e7bb9e6828281518110610a7157610a70614ec5565b5b6020026020010151604051610a869190615032565b60405180910390a18080600101915050610a09565b505f610aa6826124df565b905060405180606001604052808281526020018381526020014281525060075f8d81526020019081526020015f205f8c81526020019081526020015f205f8b81526020019081526020015f205f820151815f019080519060200190610b0c929190613cc8565b506020820151816001019080519060200190610b29929190613cc8565b50604082015181600201559050508a7f0b7561a7dcbdf981c91bcbdaef28458903367918c2b25fe6c1a2485997a918208b8b84604051610b6b9392919061505e565b60405180910390a2610b95604051806060016040528060238152602001615b6a602391398a61274f565b610ba18b8b8b886127eb565b5050505050505050505050565b606060065f8681526020019081526020015f205f8581526020019081526020015f205f8481526020019081526020015f205f8373ffffffffffffffffffffffffffffffffffffffff1673ffffffffffffffffffffffffffffffffffffffff1681526020019081526020015f205f01805480602002602001604051908101604052809291908181526020018280548015610c6457602002820191905f5260205f20905b815481526020019060010190808311610c50575b50505050509050949350505050565b5f610c7c612b40565b90508073ffffffffffffffffffffffffffffffffffffffff168673ffffffffffffffffffffffffffffffffffffffff1614158015610cc15750610cbf8682611d19565b155b15610d055780866040517fe237d922000000000000000000000000000000000000000000000000000000008152600401610cfc92919061509a565b60405180910390fd5b610d128686868686612b47565b505050505050565b6060805f60045f9054906101000a900473ffffffffffffffffffffffffffffffffffffffff1673ffffffffffffffffffffffffffffffffffffffff16636c331bd387876040518363ffffffff1660e01b8152600401610d7a929190614c1f565b5f60405180830381865afa158015610d94573d5f803e3d5ffd5b505050506040513d5f823e3d601f19601f82011682018060405250810190610dbc9190614e16565b905080518410610e01576040517f08c379a0000000000000000000000000000000000000000000000000000000008152600401610df890614ea7565b60405180910390fd5b5f818581518110610e1557610e14614ec5565b5b602002602001015190505f815f01515190505f8167ffffffffffffffff811115610e4257610e416141a3565b5b604051908082528060200260200182016040528015610e705781602001602082028036833780820191505090505b5090505f8267ffffffffffffffff811115610e8e57610e8d6141a3565b5b604051908082528060200260200182016040528015610ebc5781602001602082028036833780820191505090505b5090505f5b83811015610f6d57845f01518181518110610edf57610ede614ec5565b5b6020026020010151838281518110610efa57610ef9614ec5565b5b602002602001019073ffffffffffffffffffffffffffffffffffffffff16908173ffffffffffffffffffffffffffffffffffffffff1681525050610f418b8b8b848961230b565b828281518110610f5457610f53614ec5565b5b6020026020010181815250508080600101915050610ec1565b508181965096505050505050935093915050565b5f60055f9054906101000a900473ffffffffffffffffffffffffffffffffffffffff1673ffffffffffffffffffffffffffffffffffffffff1663d5d8617a846040518263ffffffff1660e01b8152600401610fdc9190613e19565b602060405180830381865afa158015610ff7573d5f803e3d5ffd5b505050506040513d601f19601f8201168201806040525081019061101b91906150c1565b90505f60045f9054906101000a900473ffffffffffffffffffffffffffffffffffffffff1673ffffffffffffffffffffffffffffffffffffffff16636c331bd385856040518363ffffffff1660e01b815260040161107a929190614c1f565b5f60405180830381865afa158015611094573d5f803e3d5ffd5b505050506040513d5f823e3d601f19601f820116820180604052508101906110bc9190614e16565b90505f815167ffffffffffffffff8111156110da576110d96141a3565b5b60405190808252806020026020018201604052801561110d57816020015b60608152602001906001900390816110f85790505b5090505f5b82518110156111d4576111268686836106bb565b5f60075f8881526020019081526020015f205f8781526020019081526020015f205f8381526020019081526020015f209050805f018054806020026020016040519081016040528092919081815260200182805480156111a357602002820191905f5260205f20905b81548152602001906001019080831161118f575b50505050508383815181106111bb576111ba614ec5565b5b6020026020010181905250508080600101915050611112565b505f6111e08483612c3b565b90505f805b84518110156113de575f5b85828151811061120357611202614ec5565b5b60200260200101515f0151518110156113d0575f86838151811061122a57611229614ec5565b5b60200260200101515f0151828151811061124757611246614ec5565b5b602002602001015190505f85858151811061126557611264614ec5565b5b602002602001015190508060095f8d81526020019081526020015f205f8473ffffffffffffffffffffffffffffffffffffffff1673ffffffffffffffffffffffffffffffffffffffff1681526020019081526020015f205f015f8282546112cc9190615119565b9250508190555060045f9054906101000a900473ffffffffffffffffffffffffffffffffffffffff1673ffffffffffffffffffffffffffffffffffffffff16639807f9e88c848d856040518563ffffffff1660e01b8152600401611333949392919061514c565b5f604051808303815f87803b15801561134a575f80fd5b505af115801561135c573d5f803e3d5ffd5b505050508173ffffffffffffffffffffffffffffffffffffffff168b7f76a56bec00f93abad57f18250ecc099ee61d7e60e3cf6ae13d80badbd8e2512a8c87856040516113ab9392919061518f565b60405180910390a384806113be906151c4565b955050505080806001019150506111f0565b5080806001019150506111e5565b5050505050505050565b6060805f8060075f8881526020019081526020015f205f8781526020019081526020015f205f8681526020019081526020015f209050805f018160010182600201548280548060200260200160405190810160405280929190818152602001828054801561147357602002820191905f5260205f20905b81548152602001906001019080831161145f575b50505050509250818054806020026020016040519081016040528092919081815260200182805480156114c357602002820191905f5260205f20905b8154815260200190600101908083116114af575b505050505091509350935093505093509350939050565b5f60095f8381526020019081526020015f205f3373ffffffffffffffffffffffffffffffffffffffff1673ffffffffffffffffffffffffffffffffffffffff1681526020019081526020015f2090505f815f01541161156e576040517f08c379a000000000000000000000000000000000000000000000000000000000815260040161156590615255565b60405180910390fd5b806001015f9054906101000a900460ff16156115bf576040517f08c379a00000000000000000000000000000000000000000000000000000000081526004016115b6906152bd565b60405180910390fd5b6001816001015f6101000a81548160ff0219169083151502179055503373ffffffffffffffffffffffffffffffffffffffff16827f880f2ef2613b092f1a0a819f294155c98667eb294b7e6bf7a3810278142c1a1c835f01546040516116259190613e19565b60405180910390a35050565b6060815183511461167d57815183516040517f5b059991000000000000000000000000000000000000000000000000000000008152600401611674929190614c1f565b60405180910390fd5b5f835167ffffffffffffffff811115611699576116986141a3565b5b6040519080825280602002602001820160405280156116c75781602001602082028036833780820191505090505b5090505f5b845181101561172d576117036116eb8287612de590919063ffffffff16565b6116fe8387612df890919063ffffffff16565b6104ce565b82828151811061171657611715614ec5565b5b6020026020010181815250508060010190506116cc565b508091505092915050565b6009602052815f5260405f20602052805f5260405f205f9150915050805f015490806001015f9054906101000a900460ff16905082565b611777612e0b565b60085f8281526020019081526020015f205f9054906101000a900460ff16156117d5576040517f08c379a00000000000000000000000000000000000000000000000000000000081526004016117cc90615325565b60405180910390fd5b600160085f8381526020019081526020015f205f6101000a81548160ff02191690831515021790555050565b611809612e0b565b6118125f612e92565b565b5f60035f9054906101000a900473ffffffffffffffffffffffffffffffffffffffff16905090565b61184e611847612b40565b8383612f55565b5050565b5f8060055f9054906101000a900473ffffffffffffffffffffffffffffffffffffffff1673ffffffffffffffffffffffffffffffffffffffff166399664245876040518263ffffffff1660e01b81526004016118ae9190613e19565b5f60405180830381865afa1580156118c8573d5f803e3d5ffd5b505050506040513d5f823e3d601f19601f820116820180604052508101906118f09190614aed565b5096509650505050505060018081111561190d5761190c614bf2565b5b8260018111156119205761191f614bf2565b5b14611960576040517f08c379a00000000000000000000000000000000000000000000000000000000081526004016119579061538d565b60405180910390fd5b8085146119a2576040517f08c379a00000000000000000000000000000000000000000000000000000000081526004016119999061541b565b60405180910390fd5b5f60045f9054906101000a900473ffffffffffffffffffffffffffffffffffffffff1673ffffffffffffffffffffffffffffffffffffffff16636c331bd388886040518363ffffffff1660e01b81526004016119ff929190614c1f565b5f60405180830381865afa158015611a19573d5f803e3d5ffd5b505050506040513d5f823e3d601f19601f82011682018060405250810190611a419190614e16565b905080518510611a86576040517f08c379a0000000000000000000000000000000000000000000000000000000008152600401611a7d90614ea7565b60405180910390fd5b5f818681518110611a9a57611a99614ec5565b5b60200260200101519050805f015151855114611aeb576040517f08c379a0000000000000000000000000000000000000000000000000000000008152600401611ae2906154a9565b60405180910390fd5b611af581336130be565b611b34576040517f08c379a0000000000000000000000000000000000000000000000000000000008152600401611b2b90615511565b60405180910390fd5b5f60065f8a81526020019081526020015f205f8981526020019081526020015f205f8881526020019081526020015f205f3373ffffffffffffffffffffffffffffffffffffffff1673ffffffffffffffffffffffffffffffffffffffff1681526020019081526020015f205f018054905014611be5576040517f08c379a0000000000000000000000000000000000000000000000000000000008152600401611bdc90615579565b60405180910390fd5b60405180602001604052808681525060065f8a81526020019081526020015f205f8981526020019081526020015f205f8881526020019081526020015f205f3373ffffffffffffffffffffffffffffffffffffffff1673ffffffffffffffffffffffffffffffffffffffff1681526020019081526020015f205f820151815f019080519060200190611c78929190613cc8565b509050503373ffffffffffffffffffffffffffffffffffffffff16887fe2d0f4a25c2b0cc7ccda020bcd4293dceffb51708b88b9c58ef71a0ab96b5e168989604051611cc5929190614c1f565b60405180910390a35050505050505050565b6008602052805f5260405f205f915054906101000a900460ff1681565b60045f9054906101000a900473ffffffffffffffffffffffffffffffffffffffff1681565b5f60015f8473ffffffffffffffffffffffffffffffffffffffff1673ffffffffffffffffffffffffffffffffffffffff1681526020019081526020015f205f8373ffffffffffffffffffffffffffffffffffffffff1673ffffffffffffffffffffffffffffffffffffffff1681526020019081526020015f205f9054906101000a900460ff16905092915050565b5f805f60095f8681526020019081526020015f205f8573ffffffffffffffffffffffffffffffffffffffff1673ffffffffffffffffffffffffffffffffffffffff1681526020019081526020015f209050805f0154816001015f9054906101000a900460ff1692509250509250929050565b5f611e22612b40565b90508073ffffffffffffffffffffffffffffffffffffffff168673ffffffffffffffffffffffffffffffffffffffff1614158015611e675750611e658682611d19565b155b15611eab5780866040517fe237d922000000000000000000000000000000000000000000000000000000008152600401611ea292919061509a565b60405180910390fd5b611eb88686868686613142565b505050505050565b611ec8612e0b565b5f73ffffffffffffffffffffffffffffffffffffffff168173ffffffffffffffffffffffffffffffffffffffff1603611f38575f6040517f1e4fbdf7000000000000000000000000000000000000000000000000000000008152600401611f2f9190614771565b60405180910390fd5b611f4181612e92565b50565b5f6a636f6e736f6c652e6c6f6790505f80835160208501845afa505050565b5f7f01ffc9a7000000000000000000000000000000000000000000000000000000007bffffffffffffffffffffffffffffffffffffffffffffffffffffffff1916827bffffffffffffffffffffffffffffffffffffffffffffffffffffffff1916149050919050565b61206884848484604051602401611fe69493929190615597565b6040516020818303038152906040527fa7a87853000000000000000000000000000000000000000000000000000000007bffffffffffffffffffffffffffffffffffffffffffffffffffffffff19166020820180517bffffffffffffffffffffffffffffffffffffffffffffffffffffffff8381831617835250505050613248565b50505050565b612108838383604051602401612086939291906155e1565b6040516020818303038152906040527fca47c4eb000000000000000000000000000000000000000000000000000000007bffffffffffffffffffffffffffffffffffffffffffffffffffffffff19166020820180517bffffffffffffffffffffffffffffffffffffffffffffffffffffffff8381831617835250505050613248565b505050565b6121a3816040516024016121219190613ff4565b6040516020818303038152906040527f41304fac000000000000000000000000000000000000000000000000000000007bffffffffffffffffffffffffffffffffffffffffffffffffffffffff19166020820180517bffffffffffffffffffffffffffffffffffffffffffffffffffffffff8381831617835250505050613248565b50565b5f805f90505b825f015151811015612261575f60065f8881526020019081526020015f205f8781526020019081526020015f205f8681526020019081526020015f205f855f015184815181106121ff576121fe614ec5565b5b602002602001015173ffffffffffffffffffffffffffffffffffffffff1673ffffffffffffffffffffffffffffffffffffffff1681526020019081526020015f205f018054905003612254575f915050612267565b80806001019150506121ac565b50600190505b949350505050565b612307828260405160240161228592919061561d565b6040516020818303038152906040527fc3b55635000000000000000000000000000000000000000000000000000000007bffffffffffffffffffffffffffffffffffffffffffffffffffffffff19166020820180517bffffffffffffffffffffffffffffffffffffffffffffffffffffffff8381831617835250505050613248565b5050565b5f80825f01515167ffffffffffffffff81111561232b5761232a6141a3565b5b6040519080825280602002602001820160405280156123595781602001602082028036833780820191505090505b5090505f5b835f01515181101561243a5760065f8981526020019081526020015f205f8881526020019081526020015f205f8781526020019081526020015f205f855f015183815181106123b0576123af614ec5565b5b602002602001015173ffffffffffffffffffffffffffffffffffffffff1673ffffffffffffffffffffffffffffffffffffffff1681526020019081526020015f205f01858154811061240557612404614ec5565b5b905f5260205f20015482828151811061242157612420614ec5565b5b602002602001018181525050808060010191505061235e565b505f61244582613262565b90505f612451836132d0565b90505f612461865f015151613376565b90505f80820361247b57670de0b6b3a764000090506124b0565b81670de0b6b3a764000084612490919061564b565b61249a91906156b9565b670de0b6b3a76400006124ad91906156e9565b90505b670de0b6b3a764000081856124c5919061564b565b6124cf91906156b9565b9550505050505095945050505050565b60605f825167ffffffffffffffff8111156124fd576124fc6141a3565b5b60405190808252806020026020018201604052801561252b5781602001602082028036833780820191505090505b5090505f5b8151811015612566578082828151811061254d5761254c614ec5565b5b6020026020010181815250508080600101915050612530565b505f5b6001845161257791906156e9565b811015612698575f60018261258c9190615119565b90505b845181101561268a57848382815181106125ac576125ab614ec5565b5b6020026020010151815181106125c5576125c4614ec5565b5b6020026020010151858484815181106125e1576125e0614ec5565b5b6020026020010151815181106125fa576125f9614ec5565b5b6020026020010151101561267d5782818151811061261b5761261a614ec5565b5b602002602001015183838151811061263657612635614ec5565b5b602002602001015184848151811061265157612650614ec5565b5b6020026020010185848151811061266b5761266a614ec5565b5b60200260200101828152508281525050505b808060010191505061258f565b508080600101915050612569565b505f835167ffffffffffffffff8111156126b5576126b46141a3565b5b6040519080825280602002602001820160405280156126e35781602001602082028036833780820191505090505b5090505f5b8151811015612744578085516126fe91906156e9565b8284838151811061271257612711614ec5565b5b60200260200101518151811061272b5761272a614ec5565b5b60200260200101818152505080806001019150506126e8565b508092505050919050565b6127e7828260405160240161276592919061571c565b6040516020818303038152906040527fb60e72cc000000000000000000000000000000000000000000000000000000007bffffffffffffffffffffffffffffffffffffffffffffffffffffffff19166020820180517bffffffffffffffffffffffffffffffffffffffffffffffffffffffff8381831617835250505050613248565b5050565b5f60075f8681526020019081526020015f205f8581526020019081526020015f205f8481526020019081526020015f205f0180548060200260200160405190810160405280929190818152602001828054801561286557602002820191905f5260205f20905b815481526020019060010190808311612851575b505050505090505f825f0151519050808251146128b7576040517f08c379a00000000000000000000000000000000000000000000000000000000081526004016128ae90615794565b60405180910390fd5b5f5b81811080156128cc5750600a8054905081105b15612b37575f8382815181106128e5576128e4614ec5565b5b602002602001015111801561291457508183828151811061290957612908614ec5565b5b602002602001015111155b612953576040517f08c379a000000000000000000000000000000000000000000000000000000000815260040161294a906157fc565b60405180910390fd5b5f845f0151600185848151811061296d5761296c614ec5565b5b602002602001015161297f91906156e9565b815181106129905761298f614ec5565b5b602002602001015190505f600a83815481106129af576129ae614ec5565b5b905f5260205f20015490505f73ffffffffffffffffffffffffffffffffffffffff168273ffffffffffffffffffffffffffffffffffffffff1603612a28576040517f08c379a0000000000000000000000000000000000000000000000000000000008152600401612a1f90615864565b60405180910390fd5b612a42828a8360405180602001604052805f8152506133ef565b60045f9054906101000a900473ffffffffffffffffffffffffffffffffffffffff1673ffffffffffffffffffffffffffffffffffffffff16639807f9e88a848b856040518563ffffffff1660e01b8152600401612aa2949392919061514c565b5f604051808303815f87803b158015612ab9575f80fd5b505af1158015612acb573d5f803e3d5ffd5b505050508173ffffffffffffffffffffffffffffffffffffffff16897f76a56bec00f93abad57f18250ecc099ee61d7e60e3cf6ae13d80badbd8e2512a8a8a85604051612b1a9392919061518f565b60405180910390a350508080612b2f906151c4565b9150506128b9565b50505050505050565b5f33905090565b5f73ffffffffffffffffffffffffffffffffffffffff168473ffffffffffffffffffffffffffffffffffffffff1603612bb7575f6040517f57f447ce000000000000000000000000000000000000000000000000000000008152600401612bae9190614771565b60405180910390fd5b5f73ffffffffffffffffffffffffffffffffffffffff168573ffffffffffffffffffffffffffffffffffffffff1603612c27575f6040517f01a83514000000000000000000000000000000000000000000000000000000008152600401612c1e9190614771565b60405180910390fd5b612c348585858585613484565b5050505050565b60605f805b8351811015612c7f57838181518110612c5c57612c5b614ec5565b5b60200260200101515182612c709190615119565b91508080600101915050612c40565b505f8167ffffffffffffffff811115612c9b57612c9a6141a3565b5b604051908082528060200260200182016040528015612cc95781602001602082028036833780820191505090505b5090505f805f5b8651811015612d6e575f5b878281518110612cee57612ced614ec5565b5b602002602001015151811015612d60575f612d14826006612d0f91906156e9565b613530565b90508085612d229190615119565b945080868581518110612d3857612d37614ec5565b5b6020026020010181815250508380612d4f906151c4565b945050508080600101915050612cdb565b508080600101915050612cd0565b505f5b8351811015612dd7578288858381518110612d8f57612d8e614ec5565b5b6020026020010151612da1919061564b565b612dab91906156b9565b848281518110612dbe57612dbd614ec5565b5b6020026020010181815250508080600101915050612d71565b508294505050505092915050565b5f60208202602084010151905092915050565b5f60208202602084010151905092915050565b612e13612b40565b73ffffffffffffffffffffffffffffffffffffffff16612e31611814565b73ffffffffffffffffffffffffffffffffffffffff1614612e9057612e54612b40565b6040517f118cdaa7000000000000000000000000000000000000000000000000000000008152600401612e879190614771565b60405180910390fd5b565b5f60035f9054906101000a900473ffffffffffffffffffffffffffffffffffffffff1690508160035f6101000a81548173ffffffffffffffffffffffffffffffffffffffff021916908373ffffffffffffffffffffffffffffffffffffffff1602179055508173ffffffffffffffffffffffffffffffffffffffff168173ffffffffffffffffffffffffffffffffffffffff167f8be0079c531659141344cd1fd0a4f28419497f9722a3daafe3b4186f6b6457e060405160405180910390a35050565b5f73ffffffffffffffffffffffffffffffffffffffff168273ffffffffffffffffffffffffffffffffffffffff1603612fc5575f6040517fced3e100000000000000000000000000000000000000000000000000000000008152600401612fbc9190614771565b60405180910390fd5b8060015f8573ffffffffffffffffffffffffffffffffffffffff1673ffffffffffffffffffffffffffffffffffffffff1681526020019081526020015f205f8473ffffffffffffffffffffffffffffffffffffffff1673ffffffffffffffffffffffffffffffffffffffff1681526020019081526020015f205f6101000a81548160ff0219169083151502179055508173ffffffffffffffffffffffffffffffffffffffff168373ffffffffffffffffffffffffffffffffffffffff167f17307eab39ab6107e8899845ad3d59bd9653f200f220920489ca2b5937696c31836040516130b19190613ecc565b60405180910390a3505050565b5f805f90505b835f015151811015613137578273ffffffffffffffffffffffffffffffffffffffff16845f015182815181106130fd576130fc614ec5565b5b602002602001015173ffffffffffffffffffffffffffffffffffffffff160361312a57600191505061313c565b80806001019150506130c4565b505f90505b92915050565b5f73ffffffffffffffffffffffffffffffffffffffff168473ffffffffffffffffffffffffffffffffffffffff16036131b2575f6040517f57f447ce0000000000000000000000000000000000000000000000000000000081526004016131a99190614771565b60405180910390fd5b5f73ffffffffffffffffffffffffffffffffffffffff168573ffffffffffffffffffffffffffffffffffffffff1603613222575f6040517f01a835140000000000000000000000000000000000000000000000000000000081526004016132199190614771565b60405180910390fd5b5f8061322e8585613595565b9150915061323f8787848487613484565b50505050505050565b61325f81613257611f446135c5565b63ffffffff16565b50565b5f805f90505f5b83518110156132a75783818151811061328557613284614ec5565b5b6020026020010151826132989190615119565b91508080600101915050613269565b508251670de0b6b3a7640000826132be919061564b565b6132c891906156b9565b915050919050565b5f806132db83613262565b90505f805b845181101561335f575f83670de0b6b3a764000087848151811061330757613306614ec5565b5b6020026020010151613319919061564b565b613323919061588b565b9050670de0b6b3a7640000818261333a91906158cb565b61334491906156b9565b8361334f9190615119565b92505080806001019150506132e0565b5083518161336d91906156b9565b92505050919050565b5f805f90505f600190505b838110156133c3576002670de0b6b3a76400008261339f919061564b565b6133a991906156b9565b826133b49190615119565b91508080600101915050613381565b506001836133d191906156e9565b81846133dd919061564b565b6133e791906156b9565b915050919050565b5f73ffffffffffffffffffffffffffffffffffffffff168473ffffffffffffffffffffffffffffffffffffffff160361345f575f6040517f57f447ce0000000000000000000000000000000000000000000000000000000081526004016134569190614771565b60405180910390fd5b5f8061346b8585613595565b9150915061347c5f87848487613484565b505050505050565b613490858585856135d0565b5f73ffffffffffffffffffffffffffffffffffffffff168473ffffffffffffffffffffffffffffffffffffffff1614613529575f6134cc612b40565b90506001845103613518575f6134eb5f86612df890919063ffffffff16565b90505f6135015f86612df890919063ffffffff16565b9050613511838989858589613960565b5050613527565b613526818787878787613b0f565b5b505b5050505050565b5f60018260ff1611613547578160ff169050613590565b5f80600190505f600290505b8460ff168160ff1611613589575f828461356d9190615119565b90508293508092505080806135819061594d565b915050613553565b5080925050505b919050565b60608060405191506001825283602083015260408201905060018152826020820152604081016040529250929050565b613cbe819050919050565b805182511461361a57815181516040517f5b059991000000000000000000000000000000000000000000000000000000008152600401613611929190614c1f565b60405180910390fd5b5f613623612b40565b90505f5b835181101561381f575f6136448286612df890919063ffffffff16565b90505f61365a8386612df890919063ffffffff16565b90505f73ffffffffffffffffffffffffffffffffffffffff168873ffffffffffffffffffffffffffffffffffffffff161461377d575f805f8481526020019081526020015f205f8a73ffffffffffffffffffffffffffffffffffffffff1673ffffffffffffffffffffffffffffffffffffffff1681526020019081526020015f205490508181101561372957888183856040517f03dee4c50000000000000000000000000000000000000000000000000000000081526004016137209493929190615975565b60405180910390fd5b8181035f808581526020019081526020015f205f8b73ffffffffffffffffffffffffffffffffffffffff1673ffffffffffffffffffffffffffffffffffffffff1681526020019081526020015f2081905550505b5f73ffffffffffffffffffffffffffffffffffffffff168773ffffffffffffffffffffffffffffffffffffffff161461381257805f808481526020019081526020015f205f8973ffffffffffffffffffffffffffffffffffffffff1673ffffffffffffffffffffffffffffffffffffffff1681526020019081526020015f205f82825461380a9190615119565b925050819055505b5050806001019050613627565b5060018351036138da575f61383d5f85612df890919063ffffffff16565b90505f6138535f85612df890919063ffffffff16565b90508573ffffffffffffffffffffffffffffffffffffffff168773ffffffffffffffffffffffffffffffffffffffff168473ffffffffffffffffffffffffffffffffffffffff167fc3d58168c5ae7397731d063d5bbf3d657854427343f4c083240f7aacaa2d0f6285856040516138cb929190614c1f565b60405180910390a45050613959565b8373ffffffffffffffffffffffffffffffffffffffff168573ffffffffffffffffffffffffffffffffffffffff168273ffffffffffffffffffffffffffffffffffffffff167f4a39dc06d4c0dbc64b70af90fd698a233a518aa5d07e595d983b8c0526c8f7fb86866040516139509291906159b8565b60405180910390a45b5050505050565b5f8473ffffffffffffffffffffffffffffffffffffffff163b1115613b07578373ffffffffffffffffffffffffffffffffffffffff1663f23a6e6187878686866040518663ffffffff1660e01b81526004016139c0959493929190615a3f565b6020604051808303815f875af19250505080156139fb57506040513d601f19601f820116820180604052508101906139f89190615aab565b60015b613a7c573d805f8114613a29576040519150601f19603f3d011682016040523d82523d5f602084013e613a2e565b606091505b505f815103613a7457846040517f57f447ce000000000000000000000000000000000000000000000000000000008152600401613a6b9190614771565b60405180910390fd5b805181602001fd5b63f23a6e6160e01b7bffffffffffffffffffffffffffffffffffffffffffffffffffffffff1916817bffffffffffffffffffffffffffffffffffffffffffffffffffffffff191614613b0557846040517f57f447ce000000000000000000000000000000000000000000000000000000008152600401613afc9190614771565b60405180910390fd5b505b505050505050565b5f8473ffffffffffffffffffffffffffffffffffffffff163b1115613cb6578373ffffffffffffffffffffffffffffffffffffffff1663bc197c8187878686866040518663ffffffff1660e01b8152600401613b6f959493929190615ad6565b6020604051808303815f875af1925050508015613baa57506040513d601f19601f82011682018060405250810190613ba79190615aab565b60015b613c2b573d805f8114613bd8576040519150601f19603f3d011682016040523d82523d5f602084013e613bdd565b606091505b505f815103613c2357846040517f57f447ce000000000000000000000000000000000000000000000000000000008152600401613c1a9190614771565b60405180910390fd5b805181602001fd5b63bc197c8160e01b7bffffffffffffffffffffffffffffffffffffffffffffffffffffffff1916817bffffffffffffffffffffffffffffffffffffffffffffffffffffffff191614613cb457846040517f57f447ce000000000000000000000000000000000000000000000000000000008152600401613cab9190614771565b60405180910390fd5b505b505050505050565b613cc6615b3c565b565b828054828255905f5260205f20908101928215613d02579160200282015b82811115613d01578251825591602001919060010190613ce6565b5b509050613d0f9190613d13565b5090565b5b80821115613d2a575f815f905550600101613d14565b5090565b5f604051905090565b5f80fd5b5f80fd5b5f73ffffffffffffffffffffffffffffffffffffffff82169050919050565b5f613d6882613d3f565b9050919050565b613d7881613d5e565b8114613d82575f80fd5b50565b5f81359050613d9381613d6f565b92915050565b5f819050919050565b613dab81613d99565b8114613db5575f80fd5b50565b5f81359050613dc681613da2565b92915050565b5f8060408385031215613de257613de1613d37565b5b5f613def85828601613d85565b9250506020613e0085828601613db8565b9150509250929050565b613e1381613d99565b82525050565b5f602082019050613e2c5f830184613e0a565b92915050565b5f7fffffffff0000000000000000000000000000000000000000000000000000000082169050919050565b613e6681613e32565b8114613e70575f80fd5b50565b5f81359050613e8181613e5d565b92915050565b5f60208284031215613e9c57613e9b613d37565b5b5f613ea984828501613e73565b91505092915050565b5f8115159050919050565b613ec681613eb2565b82525050565b5f602082019050613edf5f830184613ebd565b92915050565b5f819050919050565b5f613f08613f03613efe84613d3f565b613ee5565b613d3f565b9050919050565b5f613f1982613eee565b9050919050565b5f613f2a82613f0f565b9050919050565b613f3a81613f20565b82525050565b5f602082019050613f535f830184613f31565b92915050565b5f60208284031215613f6e57613f6d613d37565b5b5f613f7b84828501613db8565b91505092915050565b5f81519050919050565b5f82825260208201905092915050565b8281835e5f83830152505050565b5f601f19601f8301169050919050565b5f613fc682613f84565b613fd08185613f8e565b9350613fe0818560208601613f9e565b613fe981613fac565b840191505092915050565b5f6020820190508181035f83015261400c8184613fbc565b905092915050565b5f805f6060848603121561402b5761402a613d37565b5b5f61403886828701613db8565b935050602061404986828701613db8565b925050604061405a86828701613db8565b9150509250925092565b5f805f806080858703121561407c5761407b613d37565b5b5f61408987828801613db8565b945050602061409a87828801613db8565b93505060406140ab87828801613db8565b92505060606140bc87828801613d85565b91505092959194509250565b5f81519050919050565b5f82825260208201905092915050565b5f819050602082019050919050565b6140fa81613d99565b82525050565b5f61410b83836140f1565b60208301905092915050565b5f602082019050919050565b5f61412d826140c8565b61413781856140d2565b9350614142836140e2565b805f5b838110156141725781516141598882614100565b975061416483614117565b925050600181019050614145565b5085935050505092915050565b5f6020820190508181035f8301526141978184614123565b905092915050565b5f80fd5b7f4e487b71000000000000000000000000000000000000000000000000000000005f52604160045260245ffd5b6141d982613fac565b810181811067ffffffffffffffff821117156141f8576141f76141a3565b5b80604052505050565b5f61420a613d2e565b905061421682826141d0565b919050565b5f67ffffffffffffffff821115614235576142346141a3565b5b602082029050602081019050919050565b5f80fd5b5f61425c6142578461421b565b614201565b9050808382526020820190506020840283018581111561427f5761427e614246565b5b835b818110156142a857806142948882613db8565b845260208401935050602081019050614281565b5050509392505050565b5f82601f8301126142c6576142c561419f565b5b81356142d684826020860161424a565b91505092915050565b5f80fd5b5f67ffffffffffffffff8211156142fd576142fc6141a3565b5b61430682613fac565b9050602081019050919050565b828183375f83830152505050565b5f61433361432e846142e3565b614201565b90508281526020810184848401111561434f5761434e6142df565b5b61435a848285614313565b509392505050565b5f82601f8301126143765761437561419f565b5b8135614386848260208601614321565b91505092915050565b5f805f805f60a086880312156143a8576143a7613d37565b5b5f6143b588828901613d85565b95505060206143c688828901613d85565b945050604086013567ffffffffffffffff8111156143e7576143e6613d3b565b5b6143f3888289016142b2565b935050606086013567ffffffffffffffff81111561441457614413613d3b565b5b614420888289016142b2565b925050608086013567ffffffffffffffff81111561444157614440613d3b565b5b61444d88828901614362565b9150509295509295909350565b5f81519050919050565b5f82825260208201905092915050565b5f819050602082019050919050565b61448c81613d5e565b82525050565b5f61449d8383614483565b60208301905092915050565b5f602082019050919050565b5f6144bf8261445a565b6144c98185614464565b93506144d483614474565b805f5b838110156145045781516144eb8882614492565b97506144f6836144a9565b9250506001810190506144d7565b5085935050505092915050565b5f6040820190508181035f83015261452981856144b5565b9050818103602083015261453d8184614123565b90509392505050565b5f806040838503121561455c5761455b613d37565b5b5f61456985828601613db8565b925050602061457a85828601613db8565b9150509250929050565b5f6060820190508181035f83015261459c8186614123565b905081810360208301526145b08185614123565b90506145bf6040830184613e0a565b949350505050565b5f67ffffffffffffffff8211156145e1576145e06141a3565b5b602082029050602081019050919050565b5f6146046145ff846145c7565b614201565b9050808382526020820190506020840283018581111561462757614626614246565b5b835b81811015614650578061463c8882613d85565b845260208401935050602081019050614629565b5050509392505050565b5f82601f83011261466e5761466d61419f565b5b813561467e8482602086016145f2565b91505092915050565b5f806040838503121561469d5761469c613d37565b5b5f83013567ffffffffffffffff8111156146ba576146b9613d3b565b5b6146c68582860161465a565b925050602083013567ffffffffffffffff8111156146e7576146e6613d3b565b5b6146f3858286016142b2565b9150509250929050565b5f806040838503121561471357614712613d37565b5b5f61472085828601613db8565b925050602061473185828601613d85565b9150509250929050565b5f60408201905061474e5f830185613e0a565b61475b6020830184613ebd565b9392505050565b61476b81613d5e565b82525050565b5f6020820190506147845f830184614762565b92915050565b61479381613eb2565b811461479d575f80fd5b50565b5f813590506147ae8161478a565b92915050565b5f80604083850312156147ca576147c9613d37565b5b5f6147d785828601613d85565b92505060206147e8858286016147a0565b9150509250929050565b5f805f806080858703121561480a57614809613d37565b5b5f61481787828801613db8565b945050602061482887828801613db8565b935050604061483987828801613db8565b925050606085013567ffffffffffffffff81111561485a57614859613d3b565b5b614866878288016142b2565b91505092959194509250565b5f61487c82613f0f565b9050919050565b61488c81614872565b82525050565b5f6020820190506148a55f830184614883565b92915050565b5f80604083850312156148c1576148c0613d37565b5b5f6148ce85828601613d85565b92505060206148df85828601613d85565b9150509250929050565b5f805f805f60a0868803121561490257614901613d37565b5b5f61490f88828901613d85565b955050602061492088828901613d85565b945050604061493188828901613db8565b935050606061494288828901613db8565b925050608086013567ffffffffffffffff81111561496357614962613d3b565b5b61496f88828901614362565b9150509295509295909350565b5f6020828403121561499157614990613d37565b5b5f61499e84828501613d85565b91505092915050565b7f4e487b71000000000000000000000000000000000000000000000000000000005f52602260045260245ffd5b5f60028204905060018216806149eb57607f821691505b6020821081036149fe576149fd6149a7565b5b50919050565b5f67ffffffffffffffff821115614a1e57614a1d6141a3565b5b614a2782613fac565b9050602081019050919050565b5f614a46614a4184614a04565b614201565b905082815260208101848484011115614a6257614a616142df565b5b614a6d848285613f9e565b509392505050565b5f82601f830112614a8957614a8861419f565b5b8151614a99848260208601614a34565b91505092915050565b5f81519050614ab081613d6f565b92915050565b5f81519050614ac481613da2565b92915050565b60028110614ad6575f80fd5b50565b5f81519050614ae781614aca565b92915050565b5f805f805f805f80610100898b031215614b0a57614b09613d37565b5b5f89015167ffffffffffffffff811115614b2757614b26613d3b565b5b614b338b828c01614a75565b985050602089015167ffffffffffffffff811115614b5457614b53613d3b565b5b614b608b828c01614a75565b975050604089015167ffffffffffffffff811115614b8157614b80613d3b565b5b614b8d8b828c01614a75565b9650506060614b9e8b828c01614aa2565b9550506080614baf8b828c01614ab6565b94505060a0614bc08b828c01614ad9565b93505060c0614bd18b828c01614ab6565b92505060e0614be28b828c01614aa2565b9150509295985092959890939650565b7f4e487b71000000000000000000000000000000000000000000000000000000005f52602160045260245ffd5b5f604082019050614c325f830185613e0a565b614c3f6020830184613e0a565b9392505050565b5f67ffffffffffffffff821115614c6057614c5f6141a3565b5b602082029050602081019050919050565b5f80fd5b5f80fd5b5f614c8b614c86846145c7565b614201565b90508083825260208201905060208402830185811115614cae57614cad614246565b5b835b81811015614cd75780614cc38882614aa2565b845260208401935050602081019050614cb0565b5050509392505050565b5f82601f830112614cf557614cf461419f565b5b8151614d05848260208601614c79565b91505092915050565b5f60208284031215614d2357614d22614c71565b5b614d2d6020614201565b90505f82015167ffffffffffffffff811115614d4c57614d4b614c75565b5b614d5884828501614ce1565b5f8301525092915050565b5f614d75614d7084614c46565b614201565b90508083825260208201905060208402830185811115614d9857614d97614246565b5b835b81811015614ddf57805167ffffffffffffffff811115614dbd57614dbc61419f565b5b808601614dca8982614d0e565b85526020850194505050602081019050614d9a565b5050509392505050565b5f82601f830112614dfd57614dfc61419f565b5b8151614e0d848260208601614d63565b91505092915050565b5f60208284031215614e2b57614e2a613d37565b5b5f82015167ffffffffffffffff811115614e4857614e47613d3b565b5b614e5484828501614de9565b91505092915050565b7f496e76616c69642067726f7570204944000000000000000000000000000000005f82015250565b5f614e91601083613f8e565b9150614e9c82614e5d565b602082019050919050565b5f6020820190508181035f830152614ebe81614e85565b9050919050565b7f4e487b71000000000000000000000000000000000000000000000000000000005f52603260045260245ffd5b7f47726f757020646f6573206e6f742065786973740000000000000000000000005f82015250565b5f614f26601483613f8e565b9150614f3182614ef2565b602082019050919050565b5f6020820190508181035f830152614f5381614f1a565b9050919050565b7f4e6f7420616c6c206d656d626572732068617665207375626d697474656420725f8201527f616e6b696e677300000000000000000000000000000000000000000000000000602082015250565b5f614fb4602783613f8e565b9150614fbf82614f5a565b604082019050919050565b5f6020820190508181035f830152614fe181614fa8565b9050919050565b7f5472616e7369656e742073636f726520666f72206d656d6265720000000000005f82015250565b5f61501c601a83613f8e565b915061502782614fe8565b602082019050919050565b5f6040820190508181035f83015261504981615010565b90506150586020830184613e0a565b92915050565b5f6060820190506150715f830186613e0a565b61507e6020830185613e0a565b81810360408301526150908184614123565b9050949350505050565b5f6040820190506150ad5f830185614762565b6150ba6020830184614762565b9392505050565b5f602082840312156150d6576150d5613d37565b5b5f6150e384828501614ab6565b91505092915050565b7f4e487b71000000000000000000000000000000000000000000000000000000005f52601160045260245ffd5b5f61512382613d99565b915061512e83613d99565b9250828201905080821115615146576151456150ec565b5b92915050565b5f60808201905061515f5f830187613e0a565b61516c6020830186614762565b6151796040830185613e0a565b6151866060830184613e0a565b95945050505050565b5f6060820190506151a25f830186613e0a565b6151af6020830185613e0a565b6151bc6040830184613e0a565b949350505050565b5f6151ce82613d99565b91507fffffffffffffffffffffffffffffffffffffffffffffffffffffffffffffffff8203615200576151ff6150ec565b5b600182019050919050565b7f4e6f20746f6b656e7320746f20636c61696d00000000000000000000000000005f82015250565b5f61523f601283613f8e565b915061524a8261520b565b602082019050919050565b5f6020820190508181035f83015261526c81615233565b9050919050565b7f546f6b656e7320616c726561647920636c61696d6564000000000000000000005f82015250565b5f6152a7601683613f8e565b91506152b282615273565b602082019050919050565b5f6020820190508181035f8301526152d48161529b565b9050919050565b7f436f6d6d756e69747920746f6b656e20616c72656164792065786973747300005f82015250565b5f61530f601e83613f8e565b915061531a826152db565b602082019050919050565b5f6020820190508181035f83015261533c81615303565b9050919050565b7f4e6f7420696e2072616e6b696e672070686173650000000000000000000000005f82015250565b5f615377601483613f8e565b915061538282615343565b602082019050919050565b5f6020820190508181035f8301526153a48161536b565b9050919050565b7f43616e206f6e6c79207375626d69742072616e6b696e677320666f72207468655f8201527f2063757272656e74207765656b00000000000000000000000000000000000000602082015250565b5f615405602d83613f8e565b9150615410826153ab565b604082019050919050565b5f6020820190508181035f830152615432816153f9565b9050919050565b7f52616e6b696e67206d75737420696e636c75646520616c6c2067726f7570206d5f8201527f656d626572730000000000000000000000000000000000000000000000000000602082015250565b5f615493602683613f8e565b915061549e82615439565b604082019050919050565b5f6020820190508181035f8301526154c081615487565b9050919050565b7f53656e646572206e6f742070617274206f66207468652067726f7570000000005f82015250565b5f6154fb601c83613f8e565b9150615506826154c7565b602082019050919050565b5f6020820190508181035f830152615528816154ef565b9050919050565b7f52616e6b696e6720616c7265616479207375626d6974746564000000000000005f82015250565b5f615563601983613f8e565b915061556e8261552f565b602082019050919050565b5f6020820190508181035f83015261559081615557565b9050919050565b5f6080820190508181035f8301526155af8187613fbc565b90506155be6020830186613e0a565b6155cb6040830185613e0a565b6155d86060830184613e0a565b95945050505050565b5f6060820190508181035f8301526155f98186613fbc565b90506156086020830185613e0a565b6156156040830184613e0a565b949350505050565b5f6040820190508181035f8301526156358185613fbc565b90506156446020830184613ebd565b9392505050565b5f61565582613d99565b915061566083613d99565b925082820261566e81613d99565b91508282048414831517615685576156846150ec565b5b5092915050565b7f4e487b71000000000000000000000000000000000000000000000000000000005f52601260045260245ffd5b5f6156c382613d99565b91506156ce83613d99565b9250826156de576156dd61568c565b5b828204905092915050565b5f6156f382613d99565b91506156fe83613d99565b9250828203905081811115615716576157156150ec565b5b92915050565b5f6040820190508181035f8301526157348185613fbc565b90506157436020830184613e0a565b9392505050565b7f52616e6b696e67206c656e677468206d69736d617463680000000000000000005f82015250565b5f61577e601783613f8e565b91506157898261574a565b602082019050919050565b5f6020820190508181035f8301526157ab81615772565b9050919050565b7f496e76616c69642072616e6b696e6700000000000000000000000000000000005f82015250565b5f6157e6600f83613f8e565b91506157f1826157b2565b602082019050919050565b5f6020820190508181035f830152615813816157da565b9050919050565b7f496e76616c696420726563697069656e742061646472657373000000000000005f82015250565b5f61584e601983613f8e565b91506158598261581a565b602082019050919050565b5f6020820190508181035f83015261587b81615842565b9050919050565b5f819050919050565b5f61589582615882565b91506158a083615882565b925082820390508181125f8412168282135f8512151617156158c5576158c46150ec565b5b92915050565b5f6158d582615882565b91506158e083615882565b92508282026158ee81615882565b91507f800000000000000000000000000000000000000000000000000000000000000084145f84121615615925576159246150ec565b5b828205841483151761593a576159396150ec565b5b5092915050565b5f60ff82169050919050565b5f61595782615941565b915060ff820361596a576159696150ec565b5b600182019050919050565b5f6080820190506159885f830187614762565b6159956020830186613e0a565b6159a26040830185613e0a565b6159af6060830184613e0a565b95945050505050565b5f6040820190508181035f8301526159d08185614123565b905081810360208301526159e48184614123565b90509392505050565b5f81519050919050565b5f82825260208201905092915050565b5f615a11826159ed565b615a1b81856159f7565b9350615a2b818560208601613f9e565b615a3481613fac565b840191505092915050565b5f60a082019050615a525f830188614762565b615a5f6020830187614762565b615a6c6040830186613e0a565b615a796060830185613e0a565b8181036080830152615a8b8184615a07565b90509695505050505050565b5f81519050615aa581613e5d565b92915050565b5f60208284031215615ac057615abf613d37565b5b5f615acd84828501615a97565b91505092915050565b5f60a082019050615ae95f830188614762565b615af66020830187614762565b8181036040830152615b088186614123565b90508181036060830152615b1c8185614123565b90508181036080830152615b308184615a07565b90509695505050505050565b7f4e487b71000000000000000000000000000000000000000000000000000000005f52605160045260245ffdfe49737375696e67205245535045435420746f6b656e7320666f722067726f7570202573436865636b696e6720696620616c6c206d656d62657273207375626d69747465642072616e6b696e677343757272656e74207765656b2066726f6d2070726f66696c653a2025732c2043757272656e742073746174653a20257344657465726d696e696e6720636f6e73656e73757320666f7220636f6d6d756e6974792025732c207765656b2025732c2067726f7570202573a2646970667358221220de9b5143aea1887793d004bd897d28e29b39a522c1e4b66efa948ce48ab7990864736f6c634300081a0033",
			"opcodes": "PUSH1 0x80 PUSH1 0x40 MSTORE PUSH1 0x40 MLOAD DUP1 PUSH1 0xC0 ADD PUSH1 0x40 MSTORE DUP1 PUSH1 0x15 PUSH1 0xFF AND DUP2 MSTORE PUSH1 0x20 ADD PUSH1 0xD PUSH1 0xFF AND DUP2 MSTORE PUSH1 0x20 ADD PUSH1 0x8 PUSH1 0xFF AND DUP2 MSTORE PUSH1 0x20 ADD PUSH1 0x5 PUSH1 0xFF AND DUP2 MSTORE PUSH1 0x20 ADD PUSH1 0x3 PUSH1 0xFF AND DUP2 MSTORE PUSH1 0x20 ADD PUSH1 0x2 PUSH1 0xFF AND DUP2 MSTORE POP PUSH1 0xA SWAP1 PUSH1 0x6 PUSH2 0x59 SWAP3 SWAP2 SWAP1 PUSH2 0x3BC JUMP JUMPDEST POP CALLVALUE DUP1 ISZERO PUSH2 0x65 JUMPI PUSH0 DUP1 REVERT JUMPDEST POP PUSH1 0x40 MLOAD PUSH2 0x6513 CODESIZE SUB DUP1 PUSH2 0x6513 DUP4 CODECOPY DUP2 DUP2 ADD PUSH1 0x40 MSTORE DUP2 ADD SWAP1 PUSH2 0x87 SWAP2 SWAP1 PUSH2 0x48F JUMP JUMPDEST CALLER PUSH1 0x40 MLOAD DUP1 PUSH1 0x20 ADD PUSH1 0x40 MSTORE DUP1 PUSH0 DUP2 MSTORE POP PUSH2 0xA6 DUP2 PUSH2 0x1F2 PUSH1 0x20 SHL PUSH1 0x20 SHR JUMP JUMPDEST POP PUSH0 PUSH20 0xFFFFFFFFFFFFFFFFFFFFFFFFFFFFFFFFFFFFFFFF AND DUP2 PUSH20 0xFFFFFFFFFFFFFFFFFFFFFFFFFFFFFFFFFFFFFFFF AND SUB PUSH2 0x117 JUMPI PUSH0 PUSH1 0x40 MLOAD PUSH32 0x1E4FBDF700000000000000000000000000000000000000000000000000000000 DUP2 MSTORE PUSH1 0x4 ADD PUSH2 0x10E SWAP2 SWAP1 PUSH2 0x4DC JUMP JUMPDEST PUSH1 0x40 MLOAD DUP1 SWAP2 SUB SWAP1 REVERT JUMPDEST PUSH2 0x126 DUP2 PUSH2 0x205 PUSH1 0x20 SHL PUSH1 0x20 SHR JUMP JUMPDEST POP DUP2 PUSH1 0x4 PUSH0 PUSH2 0x100 EXP DUP2 SLOAD DUP2 PUSH20 0xFFFFFFFFFFFFFFFFFFFFFFFFFFFFFFFFFFFFFFFF MUL NOT AND SWAP1 DUP4 PUSH20 0xFFFFFFFFFFFFFFFFFFFFFFFFFFFFFFFFFFFFFFFF AND MUL OR SWAP1 SSTORE POP DUP1 PUSH1 0x5 PUSH0 PUSH2 0x100 EXP DUP2 SLOAD DUP2 PUSH20 0xFFFFFFFFFFFFFFFFFFFFFFFFFFFFFFFFFFFFFFFF MUL NOT AND SWAP1 DUP4 PUSH20 0xFFFFFFFFFFFFFFFFFFFFFFFFFFFFFFFFFFFFFFFF AND MUL OR SWAP1 SSTORE POP PUSH2 0x1EB PUSH1 0x40 MLOAD DUP1 PUSH1 0x40 ADD PUSH1 0x40 MSTORE DUP1 PUSH1 0x1B DUP2 MSTORE PUSH1 0x20 ADD PUSH32 0x436F6E7472616374206973206265696E67206465706C6F796564210000000000 DUP2 MSTORE POP PUSH2 0x2C8 PUSH1 0x20 SHL PUSH1 0x20 SHR JUMP JUMPDEST POP POP PUSH2 0x8B1 JUMP JUMPDEST DUP1 PUSH1 0x2 SWAP1 DUP2 PUSH2 0x201 SWAP2 SWAP1 PUSH2 0x72F JUMP JUMPDEST POP POP JUMP JUMPDEST PUSH0 PUSH1 0x3 PUSH0 SWAP1 SLOAD SWAP1 PUSH2 0x100 EXP SWAP1 DIV PUSH20 0xFFFFFFFFFFFFFFFFFFFFFFFFFFFFFFFFFFFFFFFF AND SWAP1 POP DUP2 PUSH1 0x3 PUSH0 PUSH2 0x100 EXP DUP2 SLOAD DUP2 PUSH20 0xFFFFFFFFFFFFFFFFFFFFFFFFFFFFFFFFFFFFFFFF MUL NOT AND SWAP1 DUP4 PUSH20 0xFFFFFFFFFFFFFFFFFFFFFFFFFFFFFFFFFFFFFFFF AND MUL OR SWAP1 SSTORE POP DUP2 PUSH20 0xFFFFFFFFFFFFFFFFFFFFFFFFFFFFFFFFFFFFFFFF AND DUP2 PUSH20 0xFFFFFFFFFFFFFFFFFFFFFFFFFFFFFFFFFFFFFFFF AND PUSH32 0x8BE0079C531659141344CD1FD0A4F28419497F9722A3DAAFE3B4186F6B6457E0 PUSH1 0x40 MLOAD PUSH1 0x40 MLOAD DUP1 SWAP2 SUB SWAP1 LOG3 POP POP JUMP JUMPDEST PUSH2 0x364 DUP2 PUSH1 0x40 MLOAD PUSH1 0x24 ADD PUSH2 0x2DC SWAP2 SWAP1 PUSH2 0x864 JUMP JUMPDEST PUSH1 0x40 MLOAD PUSH1 0x20 DUP2 DUP4 SUB SUB DUP2 MSTORE SWAP1 PUSH1 0x40 MSTORE PUSH32 0x41304FAC00000000000000000000000000000000000000000000000000000000 PUSH28 0xFFFFFFFFFFFFFFFFFFFFFFFFFFFFFFFFFFFFFFFFFFFFFFFFFFFFFFFF NOT AND PUSH1 0x20 DUP3 ADD DUP1 MLOAD PUSH28 0xFFFFFFFFFFFFFFFFFFFFFFFFFFFFFFFFFFFFFFFFFFFFFFFFFFFFFFFF DUP4 DUP2 DUP4 AND OR DUP4 MSTORE POP POP POP POP PUSH2 0x367 PUSH1 0x20 SHL PUSH1 0x20 SHR JUMP JUMPDEST POP JUMP JUMPDEST PUSH2 0x388 DUP2 PUSH2 0x383 PUSH2 0x38B PUSH1 0x20 SHL PUSH2 0x1F44 OR PUSH2 0x3AA PUSH1 0x20 SHL PUSH1 0x20 SHR JUMP JUMPDEST PUSH1 0x20 SHR JUMP JUMPDEST POP JUMP JUMPDEST PUSH0 PUSH11 0x636F6E736F6C652E6C6F67 SWAP1 POP PUSH0 DUP1 DUP4 MLOAD PUSH1 0x20 DUP6 ADD DUP5 GAS STATICCALL POP POP POP JUMP JUMPDEST PUSH2 0x40C PUSH1 0x20 SHL PUSH2 0x3CBE OR DUP2 SWAP1 POP SWAP2 SWAP1 POP JUMP JUMPDEST DUP3 DUP1 SLOAD DUP3 DUP3 SSTORE SWAP1 PUSH0 MSTORE PUSH1 0x20 PUSH0 KECCAK256 SWAP1 DUP2 ADD SWAP3 DUP3 ISZERO PUSH2 0x3FB JUMPI SWAP2 PUSH1 0x20 MUL DUP3 ADD JUMPDEST DUP3 DUP2 GT ISZERO PUSH2 0x3FA JUMPI DUP3 MLOAD DUP3 SWAP1 PUSH1 0xFF AND SWAP1 SSTORE SWAP2 PUSH1 0x20 ADD SWAP2 SWAP1 PUSH1 0x1 ADD SWAP1 PUSH2 0x3DA JUMP JUMPDEST JUMPDEST POP SWAP1 POP PUSH2 0x408 SWAP2 SWAP1 PUSH2 0x416 JUMP JUMPDEST POP SWAP1 JUMP JUMPDEST PUSH2 0x414 PUSH2 0x884 JUMP JUMPDEST JUMP JUMPDEST JUMPDEST DUP1 DUP3 GT ISZERO PUSH2 0x42D JUMPI PUSH0 DUP2 PUSH0 SWAP1 SSTORE POP PUSH1 0x1 ADD PUSH2 0x417 JUMP JUMPDEST POP SWAP1 JUMP JUMPDEST PUSH0 DUP1 REVERT JUMPDEST PUSH0 PUSH20 0xFFFFFFFFFFFFFFFFFFFFFFFFFFFFFFFFFFFFFFFF DUP3 AND SWAP1 POP SWAP2 SWAP1 POP JUMP JUMPDEST PUSH0 PUSH2 0x45E DUP3 PUSH2 0x435 JUMP JUMPDEST SWAP1 POP SWAP2 SWAP1 POP JUMP JUMPDEST PUSH2 0x46E DUP2 PUSH2 0x454 JUMP JUMPDEST DUP2 EQ PUSH2 0x478 JUMPI PUSH0 DUP1 REVERT JUMPDEST POP JUMP JUMPDEST PUSH0 DUP2 MLOAD SWAP1 POP PUSH2 0x489 DUP2 PUSH2 0x465 JUMP JUMPDEST SWAP3 SWAP2 POP POP JUMP JUMPDEST PUSH0 DUP1 PUSH1 0x40 DUP4 DUP6 SUB SLT ISZERO PUSH2 0x4A5 JUMPI PUSH2 0x4A4 PUSH2 0x431 JUMP JUMPDEST JUMPDEST PUSH0 PUSH2 0x4B2 DUP6 DUP3 DUP7 ADD PUSH2 0x47B JUMP JUMPDEST SWAP3 POP POP PUSH1 0x20 PUSH2 0x4C3 DUP6 DUP3 DUP7 ADD PUSH2 0x47B JUMP JUMPDEST SWAP2 POP POP SWAP3 POP SWAP3 SWAP1 POP JUMP JUMPDEST PUSH2 0x4D6 DUP2 PUSH2 0x454 JUMP JUMPDEST DUP3 MSTORE POP POP JUMP JUMPDEST PUSH0 PUSH1 0x20 DUP3 ADD SWAP1 POP PUSH2 0x4EF PUSH0 DUP4 ADD DUP5 PUSH2 0x4CD JUMP JUMPDEST SWAP3 SWAP2 POP POP JUMP JUMPDEST PUSH0 DUP2 MLOAD SWAP1 POP SWAP2 SWAP1 POP JUMP JUMPDEST PUSH32 0x4E487B7100000000000000000000000000000000000000000000000000000000 PUSH0 MSTORE PUSH1 0x41 PUSH1 0x4 MSTORE PUSH1 0x24 PUSH0 REVERT JUMPDEST PUSH32 0x4E487B7100000000000000000000000000000000000000000000000000000000 PUSH0 MSTORE PUSH1 0x22 PUSH1 0x4 MSTORE PUSH1 0x24 PUSH0 REVERT JUMPDEST PUSH0 PUSH1 0x2 DUP3 DIV SWAP1 POP PUSH1 0x1 DUP3 AND DUP1 PUSH2 0x570 JUMPI PUSH1 0x7F DUP3 AND SWAP2 POP JUMPDEST PUSH1 0x20 DUP3 LT DUP2 SUB PUSH2 0x583 JUMPI PUSH2 0x582 PUSH2 0x52C JUMP JUMPDEST JUMPDEST POP SWAP2 SWAP1 POP JUMP JUMPDEST PUSH0 DUP2 SWAP1 POP DUP2 PUSH0 MSTORE PUSH1 0x20 PUSH0 KECCAK256 SWAP1 POP SWAP2 SWAP1 POP JUMP JUMPDEST PUSH0 PUSH1 0x20 PUSH1 0x1F DUP4 ADD DIV SWAP1 POP SWAP2 SWAP1 POP JUMP JUMPDEST PUSH0 DUP3 DUP3 SHL SWAP1 POP SWAP3 SWAP2 POP POP JUMP JUMPDEST PUSH0 PUSH1 0x8 DUP4 MUL PUSH2 0x5E5 PUSH32 0xFFFFFFFFFFFFFFFFFFFFFFFFFFFFFFFFFFFFFFFFFFFFFFFFFFFFFFFFFFFFFFFF DUP3 PUSH2 0x5AA JUMP JUMPDEST PUSH2 0x5EF DUP7 DUP4 PUSH2 0x5AA JUMP JUMPDEST SWAP6 POP DUP1 NOT DUP5 AND SWAP4 POP DUP1 DUP7 AND DUP5 OR SWAP3 POP POP POP SWAP4 SWAP3 POP POP POP JUMP JUMPDEST PUSH0 DUP2 SWAP1 POP SWAP2 SWAP1 POP JUMP JUMPDEST PUSH0 DUP2 SWAP1 POP SWAP2 SWAP1 POP JUMP JUMPDEST PUSH0 PUSH2 0x633 PUSH2 0x62E PUSH2 0x629 DUP5 PUSH2 0x607 JUMP JUMPDEST PUSH2 0x610 JUMP JUMPDEST PUSH2 0x607 JUMP JUMPDEST SWAP1 POP SWAP2 SWAP1 POP JUMP JUMPDEST PUSH0 DUP2 SWAP1 POP SWAP2 SWAP1 POP JUMP JUMPDEST PUSH2 0x64C DUP4 PUSH2 0x619 JUMP JUMPDEST PUSH2 0x660 PUSH2 0x658 DUP3 PUSH2 0x63A JUMP JUMPDEST DUP5 DUP5 SLOAD PUSH2 0x5B6 JUMP JUMPDEST DUP3 SSTORE POP POP POP POP JUMP JUMPDEST PUSH0 SWAP1 JUMP JUMPDEST PUSH2 0x674 PUSH2 0x668 JUMP JUMPDEST PUSH2 0x67F DUP2 DUP5 DUP5 PUSH2 0x643 JUMP JUMPDEST POP POP POP JUMP JUMPDEST JUMPDEST DUP2 DUP2 LT ISZERO PUSH2 0x6A2 JUMPI PUSH2 0x697 PUSH0 DUP3 PUSH2 0x66C JUMP JUMPDEST PUSH1 0x1 DUP2 ADD SWAP1 POP PUSH2 0x685 JUMP JUMPDEST POP POP JUMP JUMPDEST PUSH1 0x1F DUP3 GT ISZERO PUSH2 0x6E7 JUMPI PUSH2 0x6B8 DUP2 PUSH2 0x589 JUMP JUMPDEST PUSH2 0x6C1 DUP5 PUSH2 0x59B JUMP JUMPDEST DUP2 ADD PUSH1 0x20 DUP6 LT ISZERO PUSH2 0x6D0 JUMPI DUP2 SWAP1 POP JUMPDEST PUSH2 0x6E4 PUSH2 0x6DC DUP6 PUSH2 0x59B JUMP JUMPDEST DUP4 ADD DUP3 PUSH2 0x684 JUMP JUMPDEST POP POP JUMPDEST POP POP POP JUMP JUMPDEST PUSH0 DUP3 DUP3 SHR SWAP1 POP SWAP3 SWAP2 POP POP JUMP JUMPDEST PUSH0 PUSH2 0x707 PUSH0 NOT DUP5 PUSH1 0x8 MUL PUSH2 0x6EC JUMP JUMPDEST NOT DUP1 DUP4 AND SWAP2 POP POP SWAP3 SWAP2 POP POP JUMP JUMPDEST PUSH0 PUSH2 0x71F DUP4 DUP4 PUSH2 0x6F8 JUMP JUMPDEST SWAP2 POP DUP3 PUSH1 0x2 MUL DUP3 OR SWAP1 POP SWAP3 SWAP2 POP POP JUMP JUMPDEST PUSH2 0x738 DUP3 PUSH2 0x4F5 JUMP JUMPDEST PUSH8 0xFFFFFFFFFFFFFFFF DUP2 GT ISZERO PUSH2 0x751 JUMPI PUSH2 0x750 PUSH2 0x4FF JUMP JUMPDEST JUMPDEST PUSH2 0x75B DUP3 SLOAD PUSH2 0x559 JUMP JUMPDEST PUSH2 0x766 DUP3 DUP3 DUP6 PUSH2 0x6A6 JUMP JUMPDEST PUSH0 PUSH1 0x20 SWAP1 POP PUSH1 0x1F DUP4 GT PUSH1 0x1 DUP2 EQ PUSH2 0x797 JUMPI PUSH0 DUP5 ISZERO PUSH2 0x785 JUMPI DUP3 DUP8 ADD MLOAD SWAP1 POP JUMPDEST PUSH2 0x78F DUP6 DUP3 PUSH2 0x714 JUMP JUMPDEST DUP7 SSTORE POP PUSH2 0x7F6 JUMP JUMPDEST PUSH1 0x1F NOT DUP5 AND PUSH2 0x7A5 DUP7 PUSH2 0x589 JUMP JUMPDEST PUSH0 JUMPDEST DUP3 DUP2 LT ISZERO PUSH2 0x7CC JUMPI DUP5 DUP10 ADD MLOAD DUP3 SSTORE PUSH1 0x1 DUP3 ADD SWAP2 POP PUSH1 0x20 DUP6 ADD SWAP5 POP PUSH1 0x20 DUP2 ADD SWAP1 POP PUSH2 0x7A7 JUMP JUMPDEST DUP7 DUP4 LT ISZERO PUSH2 0x7E9 JUMPI DUP5 DUP10 ADD MLOAD PUSH2 0x7E5 PUSH1 0x1F DUP10 AND DUP3 PUSH2 0x6F8 JUMP JUMPDEST DUP4 SSTORE POP JUMPDEST PUSH1 0x1 PUSH1 0x2 DUP9 MUL ADD DUP9 SSTORE POP POP POP JUMPDEST POP POP POP POP POP POP JUMP JUMPDEST PUSH0 DUP3 DUP3 MSTORE PUSH1 0x20 DUP3 ADD SWAP1 POP SWAP3 SWAP2 POP POP JUMP JUMPDEST DUP3 DUP2 DUP4 MCOPY PUSH0 DUP4 DUP4 ADD MSTORE POP POP POP JUMP JUMPDEST PUSH0 PUSH1 0x1F NOT PUSH1 0x1F DUP4 ADD AND SWAP1 POP SWAP2 SWAP1 POP JUMP JUMPDEST PUSH0 PUSH2 0x836 DUP3 PUSH2 0x4F5 JUMP JUMPDEST PUSH2 0x840 DUP2 DUP6 PUSH2 0x7FE JUMP JUMPDEST SWAP4 POP PUSH2 0x850 DUP2 DUP6 PUSH1 0x20 DUP7 ADD PUSH2 0x80E JUMP JUMPDEST PUSH2 0x859 DUP2 PUSH2 0x81C JUMP JUMPDEST DUP5 ADD SWAP2 POP POP SWAP3 SWAP2 POP POP JUMP JUMPDEST PUSH0 PUSH1 0x20 DUP3 ADD SWAP1 POP DUP2 DUP2 SUB PUSH0 DUP4 ADD MSTORE PUSH2 0x87C DUP2 DUP5 PUSH2 0x82C JUMP JUMPDEST SWAP1 POP SWAP3 SWAP2 POP POP JUMP JUMPDEST PUSH32 0x4E487B7100000000000000000000000000000000000000000000000000000000 PUSH0 MSTORE PUSH1 0x51 PUSH1 0x4 MSTORE PUSH1 0x24 PUSH0 REVERT JUMPDEST PUSH2 0x5C55 DUP1 PUSH2 0x8BE PUSH0 CODECOPY PUSH0 RETURN INVALID PUSH1 0x80 PUSH1 0x40 MSTORE CALLVALUE DUP1 ISZERO PUSH2 0xF JUMPI PUSH0 DUP1 REVERT JUMPDEST POP PUSH1 0x4 CALLDATASIZE LT PUSH2 0x155 JUMPI PUSH0 CALLDATALOAD PUSH1 0xE0 SHR DUP1 PUSH4 0x643F273D GT PUSH2 0xC1 JUMPI DUP1 PUSH4 0xD60429D0 GT PUSH2 0x7A JUMPI DUP1 PUSH4 0xD60429D0 EQ PUSH2 0x3E7 JUMPI DUP1 PUSH4 0xDE04BBD2 EQ PUSH2 0x417 JUMPI DUP1 PUSH4 0xE985E9C5 EQ PUSH2 0x435 JUMPI DUP1 PUSH4 0xF02A9DF8 EQ PUSH2 0x465 JUMPI DUP1 PUSH4 0xF242432A EQ PUSH2 0x496 JUMPI DUP1 PUSH4 0xF2FDE38B EQ PUSH2 0x4B2 JUMPI PUSH2 0x155 JUMP JUMPDEST DUP1 PUSH4 0x643F273D EQ PUSH2 0x33A JUMPI DUP1 PUSH4 0x65C33697 EQ PUSH2 0x36B JUMPI DUP1 PUSH4 0x715018A6 EQ PUSH2 0x387 JUMPI DUP1 PUSH4 0x8DA5CB5B EQ PUSH2 0x391 JUMPI DUP1 PUSH4 0xA22CB465 EQ PUSH2 0x3AF JUMPI DUP1 PUSH4 0xB74CA713 EQ PUSH2 0x3CB JUMPI PUSH2 0x155 JUMP JUMPDEST DUP1 PUSH4 0x2EB2C2D6 GT PUSH2 0x113 JUMPI DUP1 PUSH4 0x2EB2C2D6 EQ PUSH2 0x253 JUMPI DUP1 PUSH4 0x32A7ADB0 EQ PUSH2 0x26F JUMPI DUP1 PUSH4 0x33718CE8 EQ PUSH2 0x2A0 JUMPI DUP1 PUSH4 0x415B5D7D EQ PUSH2 0x2BC JUMPI DUP1 PUSH4 0x46E04A2F EQ PUSH2 0x2EE JUMPI DUP1 PUSH4 0x4E1273F4 EQ PUSH2 0x30A JUMPI PUSH2 0x155 JUMP JUMPDEST DUP1 PUSH3 0xFDD58E EQ PUSH2 0x159 JUMPI DUP1 PUSH4 0x1FFC9A7 EQ PUSH2 0x189 JUMPI DUP1 PUSH4 0x6428F02 EQ PUSH2 0x1B9 JUMPI DUP1 PUSH4 0xE89341C EQ PUSH2 0x1D7 JUMPI DUP1 PUSH4 0x17DD9E73 EQ PUSH2 0x207 JUMPI DUP1 PUSH4 0x2B3DFFEB EQ PUSH2 0x223 JUMPI JUMPDEST PUSH0 DUP1 REVERT JUMPDEST PUSH2 0x173 PUSH1 0x4 DUP1 CALLDATASIZE SUB DUP2 ADD SWAP1 PUSH2 0x16E SWAP2 SWAP1 PUSH2 0x3DCC JUMP JUMPDEST PUSH2 0x4CE JUMP JUMPDEST PUSH1 0x40 MLOAD PUSH2 0x180 SWAP2 SWAP1 PUSH2 0x3E19 JUMP JUMPDEST PUSH1 0x40 MLOAD DUP1 SWAP2 SUB SWAP1 RETURN JUMPDEST PUSH2 0x1A3 PUSH1 0x4 DUP1 CALLDATASIZE SUB DUP2 ADD SWAP1 PUSH2 0x19E SWAP2 SWAP1 PUSH2 0x3E87 JUMP JUMPDEST PUSH2 0x523 JUMP JUMPDEST PUSH1 0x40 MLOAD PUSH2 0x1B0 SWAP2 SWAP1 PUSH2 0x3ECC JUMP JUMPDEST PUSH1 0x40 MLOAD DUP1 SWAP2 SUB SWAP1 RETURN JUMPDEST PUSH2 0x1C1 PUSH2 0x604 JUMP JUMPDEST PUSH1 0x40 MLOAD PUSH2 0x1CE SWAP2 SWAP1 PUSH2 0x3F40 JUMP JUMPDEST PUSH1 0x40 MLOAD DUP1 SWAP2 SUB SWAP1 RETURN JUMPDEST PUSH2 0x1F1 PUSH1 0x4 DUP1 CALLDATASIZE SUB DUP2 ADD SWAP1 PUSH2 0x1EC SWAP2 SWAP1 PUSH2 0x3F59 JUMP JUMPDEST PUSH2 0x629 JUMP JUMPDEST PUSH1 0x40 MLOAD PUSH2 0x1FE SWAP2 SWAP1 PUSH2 0x3FF4 JUMP JUMPDEST PUSH1 0x40 MLOAD DUP1 SWAP2 SUB SWAP1 RETURN JUMPDEST PUSH2 0x221 PUSH1 0x4 DUP1 CALLDATASIZE SUB DUP2 ADD SWAP1 PUSH2 0x21C SWAP2 SWAP1 PUSH2 0x4014 JUMP JUMPDEST PUSH2 0x6BB JUMP JUMPDEST STOP JUMPDEST PUSH2 0x23D PUSH1 0x4 DUP1 CALLDATASIZE SUB DUP2 ADD SWAP1 PUSH2 0x238 SWAP2 SWAP1 PUSH2 0x4064 JUMP JUMPDEST PUSH2 0xBAE JUMP JUMPDEST PUSH1 0x40 MLOAD PUSH2 0x24A SWAP2 SWAP1 PUSH2 0x417F JUMP JUMPDEST PUSH1 0x40 MLOAD DUP1 SWAP2 SUB SWAP1 RETURN JUMPDEST PUSH2 0x26D PUSH1 0x4 DUP1 CALLDATASIZE SUB DUP2 ADD SWAP1 PUSH2 0x268 SWAP2 SWAP1 PUSH2 0x438F JUMP JUMPDEST PUSH2 0xC73 JUMP JUMPDEST STOP JUMPDEST PUSH2 0x289 PUSH1 0x4 DUP1 CALLDATASIZE SUB DUP2 ADD SWAP1 PUSH2 0x284 SWAP2 SWAP1 PUSH2 0x4014 JUMP JUMPDEST PUSH2 0xD1A JUMP JUMPDEST PUSH1 0x40 MLOAD PUSH2 0x297 SWAP3 SWAP2 SWAP1 PUSH2 0x4511 JUMP JUMPDEST PUSH1 0x40 MLOAD DUP1 SWAP2 SUB SWAP1 RETURN JUMPDEST PUSH2 0x2BA PUSH1 0x4 DUP1 CALLDATASIZE SUB DUP2 ADD SWAP1 PUSH2 0x2B5 SWAP2 SWAP1 PUSH2 0x4546 JUMP JUMPDEST PUSH2 0xF81 JUMP JUMPDEST STOP JUMPDEST PUSH2 0x2D6 PUSH1 0x4 DUP1 CALLDATASIZE SUB DUP2 ADD SWAP1 PUSH2 0x2D1 SWAP2 SWAP1 PUSH2 0x4014 JUMP JUMPDEST PUSH2 0x13E8 JUMP JUMPDEST PUSH1 0x40 MLOAD PUSH2 0x2E5 SWAP4 SWAP3 SWAP2 SWAP1 PUSH2 0x4584 JUMP JUMPDEST PUSH1 0x40 MLOAD DUP1 SWAP2 SUB SWAP1 RETURN JUMPDEST PUSH2 0x308 PUSH1 0x4 DUP1 CALLDATASIZE SUB DUP2 ADD SWAP1 PUSH2 0x303 SWAP2 SWAP1 PUSH2 0x3F59 JUMP JUMPDEST PUSH2 0x14DA JUMP JUMPDEST STOP JUMPDEST PUSH2 0x324 PUSH1 0x4 DUP1 CALLDATASIZE SUB DUP2 ADD SWAP1 PUSH2 0x31F SWAP2 SWAP1 PUSH2 0x4687 JUMP JUMPDEST PUSH2 0x1631 JUMP JUMPDEST PUSH1 0x40 MLOAD PUSH2 0x331 SWAP2 SWAP1 PUSH2 0x417F JUMP JUMPDEST PUSH1 0x40 MLOAD DUP1 SWAP2 SUB SWAP1 RETURN JUMPDEST PUSH2 0x354 PUSH1 0x4 DUP1 CALLDATASIZE SUB DUP2 ADD SWAP1 PUSH2 0x34F SWAP2 SWAP1 PUSH2 0x46FD JUMP JUMPDEST PUSH2 0x1738 JUMP JUMPDEST PUSH1 0x40 MLOAD PUSH2 0x362 SWAP3 SWAP2 SWAP1 PUSH2 0x473B JUMP JUMPDEST PUSH1 0x40 MLOAD DUP1 SWAP2 SUB SWAP1 RETURN JUMPDEST PUSH2 0x385 PUSH1 0x4 DUP1 CALLDATASIZE SUB DUP2 ADD SWAP1 PUSH2 0x380 SWAP2 SWAP1 PUSH2 0x3F59 JUMP JUMPDEST PUSH2 0x176F JUMP JUMPDEST STOP JUMPDEST PUSH2 0x38F PUSH2 0x1801 JUMP JUMPDEST STOP JUMPDEST PUSH2 0x399 PUSH2 0x1814 JUMP JUMPDEST PUSH1 0x40 MLOAD PUSH2 0x3A6 SWAP2 SWAP1 PUSH2 0x4771 JUMP JUMPDEST PUSH1 0x40 MLOAD DUP1 SWAP2 SUB SWAP1 RETURN JUMPDEST PUSH2 0x3C9 PUSH1 0x4 DUP1 CALLDATASIZE SUB DUP2 ADD SWAP1 PUSH2 0x3C4 SWAP2 SWAP1 PUSH2 0x47B4 JUMP JUMPDEST PUSH2 0x183C JUMP JUMPDEST STOP JUMPDEST PUSH2 0x3E5 PUSH1 0x4 DUP1 CALLDATASIZE SUB DUP2 ADD SWAP1 PUSH2 0x3E0 SWAP2 SWAP1 PUSH2 0x47F2 JUMP JUMPDEST PUSH2 0x1852 JUMP JUMPDEST STOP JUMPDEST PUSH2 0x401 PUSH1 0x4 DUP1 CALLDATASIZE SUB DUP2 ADD SWAP1 PUSH2 0x3FC SWAP2 SWAP1 PUSH2 0x3F59 JUMP JUMPDEST PUSH2 0x1CD7 JUMP JUMPDEST PUSH1 0x40 MLOAD PUSH2 0x40E SWAP2 SWAP1 PUSH2 0x3ECC JUMP JUMPDEST PUSH1 0x40 MLOAD DUP1 SWAP2 SUB SWAP1 RETURN JUMPDEST PUSH2 0x41F PUSH2 0x1CF4 JUMP JUMPDEST PUSH1 0x40 MLOAD PUSH2 0x42C SWAP2 SWAP1 PUSH2 0x4892 JUMP JUMPDEST PUSH1 0x40 MLOAD DUP1 SWAP2 SUB SWAP1 RETURN JUMPDEST PUSH2 0x44F PUSH1 0x4 DUP1 CALLDATASIZE SUB DUP2 ADD SWAP1 PUSH2 0x44A SWAP2 SWAP1 PUSH2 0x48AB JUMP JUMPDEST PUSH2 0x1D19 JUMP JUMPDEST PUSH1 0x40 MLOAD PUSH2 0x45C SWAP2 SWAP1 PUSH2 0x3ECC JUMP JUMPDEST PUSH1 0x40 MLOAD DUP1 SWAP2 SUB SWAP1 RETURN JUMPDEST PUSH2 0x47F PUSH1 0x4 DUP1 CALLDATASIZE SUB DUP2 ADD SWAP1 PUSH2 0x47A SWAP2 SWAP1 PUSH2 0x46FD JUMP JUMPDEST PUSH2 0x1DA7 JUMP JUMPDEST PUSH1 0x40 MLOAD PUSH2 0x48D SWAP3 SWAP2 SWAP1 PUSH2 0x473B JUMP JUMPDEST PUSH1 0x40 MLOAD DUP1 SWAP2 SUB SWAP1 RETURN JUMPDEST PUSH2 0x4B0 PUSH1 0x4 DUP1 CALLDATASIZE SUB DUP2 ADD SWAP1 PUSH2 0x4AB SWAP2 SWAP1 PUSH2 0x48E9 JUMP JUMPDEST PUSH2 0x1E19 JUMP JUMPDEST STOP JUMPDEST PUSH2 0x4CC PUSH1 0x4 DUP1 CALLDATASIZE SUB DUP2 ADD SWAP1 PUSH2 0x4C7 SWAP2 SWAP1 PUSH2 0x497C JUMP JUMPDEST PUSH2 0x1EC0 JUMP JUMPDEST STOP JUMPDEST PUSH0 DUP1 PUSH0 DUP4 DUP2 MSTORE PUSH1 0x20 ADD SWAP1 DUP2 MSTORE PUSH1 0x20 ADD PUSH0 KECCAK256 PUSH0 DUP5 PUSH20 0xFFFFFFFFFFFFFFFFFFFFFFFFFFFFFFFFFFFFFFFF AND PUSH20 0xFFFFFFFFFFFFFFFFFFFFFFFFFFFFFFFFFFFFFFFF AND DUP2 MSTORE PUSH1 0x20 ADD SWAP1 DUP2 MSTORE PUSH1 0x20 ADD PUSH0 KECCAK256 SLOAD SWAP1 POP SWAP3 SWAP2 POP POP JUMP JUMPDEST PUSH0 PUSH32 0xD9B67A2600000000000000000000000000000000000000000000000000000000 PUSH28 0xFFFFFFFFFFFFFFFFFFFFFFFFFFFFFFFFFFFFFFFFFFFFFFFFFFFFFFFF NOT AND DUP3 PUSH28 0xFFFFFFFFFFFFFFFFFFFFFFFFFFFFFFFFFFFFFFFFFFFFFFFFFFFFFFFF NOT AND EQ DUP1 PUSH2 0x5ED JUMPI POP PUSH32 0xE89341C00000000000000000000000000000000000000000000000000000000 PUSH28 0xFFFFFFFFFFFFFFFFFFFFFFFFFFFFFFFFFFFFFFFFFFFFFFFFFFFFFFFF NOT AND DUP3 PUSH28 0xFFFFFFFFFFFFFFFFFFFFFFFFFFFFFFFFFFFFFFFFFFFFFFFFFFFFFFFF NOT AND EQ JUMPDEST DUP1 PUSH2 0x5FD JUMPI POP PUSH2 0x5FC DUP3 PUSH2 0x1F63 JUMP JUMPDEST JUMPDEST SWAP1 POP SWAP2 SWAP1 POP JUMP JUMPDEST PUSH1 0x5 PUSH0 SWAP1 SLOAD SWAP1 PUSH2 0x100 EXP SWAP1 DIV PUSH20 0xFFFFFFFFFFFFFFFFFFFFFFFFFFFFFFFFFFFFFFFF AND DUP2 JUMP JUMPDEST PUSH1 0x60 PUSH1 0x2 DUP1 SLOAD PUSH2 0x638 SWAP1 PUSH2 0x49D4 JUMP JUMPDEST DUP1 PUSH1 0x1F ADD PUSH1 0x20 DUP1 SWAP2 DIV MUL PUSH1 0x20 ADD PUSH1 0x40 MLOAD SWAP1 DUP2 ADD PUSH1 0x40 MSTORE DUP1 SWAP3 SWAP2 SWAP1 DUP2 DUP2 MSTORE PUSH1 0x20 ADD DUP3 DUP1 SLOAD PUSH2 0x664 SWAP1 PUSH2 0x49D4 JUMP JUMPDEST DUP1 ISZERO PUSH2 0x6AF JUMPI DUP1 PUSH1 0x1F LT PUSH2 0x686 JUMPI PUSH2 0x100 DUP1 DUP4 SLOAD DIV MUL DUP4 MSTORE SWAP2 PUSH1 0x20 ADD SWAP2 PUSH2 0x6AF JUMP JUMPDEST DUP3 ADD SWAP2 SWAP1 PUSH0 MSTORE PUSH1 0x20 PUSH0 KECCAK256 SWAP1 JUMPDEST DUP2 SLOAD DUP2 MSTORE SWAP1 PUSH1 0x1 ADD SWAP1 PUSH1 0x20 ADD DUP1 DUP4 GT PUSH2 0x692 JUMPI DUP3 SWAP1 SUB PUSH1 0x1F AND DUP3 ADD SWAP2 JUMPDEST POP POP POP POP POP SWAP1 POP SWAP2 SWAP1 POP JUMP JUMPDEST PUSH2 0x6DF PUSH1 0x40 MLOAD DUP1 PUSH1 0x60 ADD PUSH1 0x40 MSTORE DUP1 PUSH1 0x39 DUP2 MSTORE PUSH1 0x20 ADD PUSH2 0x5BE7 PUSH1 0x39 SWAP2 CODECOPY DUP5 DUP5 DUP5 PUSH2 0x1FCC JUMP JUMPDEST PUSH0 DUP1 PUSH1 0x5 PUSH0 SWAP1 SLOAD SWAP1 PUSH2 0x100 EXP SWAP1 DIV PUSH20 0xFFFFFFFFFFFFFFFFFFFFFFFFFFFFFFFFFFFFFFFF AND PUSH20 0xFFFFFFFFFFFFFFFFFFFFFFFFFFFFFFFFFFFFFFFF AND PUSH4 0x99664245 DUP7 PUSH1 0x40 MLOAD DUP3 PUSH4 0xFFFFFFFF AND PUSH1 0xE0 SHL DUP2 MSTORE PUSH1 0x4 ADD PUSH2 0x73B SWAP2 SWAP1 PUSH2 0x3E19 JUMP JUMPDEST PUSH0 PUSH1 0x40 MLOAD DUP1 DUP4 SUB DUP2 DUP7 GAS STATICCALL ISZERO DUP1 ISZERO PUSH2 0x755 JUMPI RETURNDATASIZE PUSH0 DUP1 RETURNDATACOPY RETURNDATASIZE PUSH0 REVERT JUMPDEST POP POP POP POP PUSH1 0x40 MLOAD RETURNDATASIZE PUSH0 DUP3 RETURNDATACOPY RETURNDATASIZE PUSH1 0x1F NOT PUSH1 0x1F DUP3 ADD AND DUP3 ADD DUP1 PUSH1 0x40 MSTORE POP DUP2 ADD SWAP1 PUSH2 0x77D SWAP2 SWAP1 PUSH2 0x4AED JUMP JUMPDEST POP SWAP7 POP SWAP7 POP POP POP POP POP POP PUSH2 0x7BC PUSH1 0x40 MLOAD DUP1 PUSH1 0x60 ADD PUSH1 0x40 MSTORE DUP1 PUSH1 0x30 DUP2 MSTORE PUSH1 0x20 ADD PUSH2 0x5BB7 PUSH1 0x30 SWAP2 CODECOPY DUP3 DUP5 PUSH1 0x1 DUP2 GT ISZERO PUSH2 0x7B7 JUMPI PUSH2 0x7B6 PUSH2 0x4BF2 JUMP JUMPDEST JUMPDEST PUSH2 0x206E JUMP JUMPDEST PUSH0 PUSH1 0x4 PUSH0 SWAP1 SLOAD SWAP1 PUSH2 0x100 EXP SWAP1 DIV PUSH20 0xFFFFFFFFFFFFFFFFFFFFFFFFFFFFFFFFFFFFFFFF AND PUSH20 0xFFFFFFFFFFFFFFFFFFFFFFFFFFFFFFFFFFFFFFFF AND PUSH4 0x6C331BD3 DUP8 DUP8 PUSH1 0x40 MLOAD DUP4 PUSH4 0xFFFFFFFF AND PUSH1 0xE0 SHL DUP2 MSTORE PUSH1 0x4 ADD PUSH2 0x819 SWAP3 SWAP2 SWAP1 PUSH2 0x4C1F JUMP JUMPDEST PUSH0 PUSH1 0x40 MLOAD DUP1 DUP4 SUB DUP2 DUP7 GAS STATICCALL ISZERO DUP1 ISZERO PUSH2 0x833 JUMPI RETURNDATASIZE PUSH0 DUP1 RETURNDATACOPY RETURNDATASIZE PUSH0 REVERT JUMPDEST POP POP POP POP PUSH1 0x40 MLOAD RETURNDATASIZE PUSH0 DUP3 RETURNDATACOPY RETURNDATASIZE PUSH1 0x1F NOT PUSH1 0x1F DUP3 ADD AND DUP3 ADD DUP1 PUSH1 0x40 MSTORE POP DUP2 ADD SWAP1 PUSH2 0x85B SWAP2 SWAP1 PUSH2 0x4E16 JUMP JUMPDEST SWAP1 POP DUP1 MLOAD DUP5 LT PUSH2 0x8A0 JUMPI PUSH1 0x40 MLOAD PUSH32 0x8C379A000000000000000000000000000000000000000000000000000000000 DUP2 MSTORE PUSH1 0x4 ADD PUSH2 0x897 SWAP1 PUSH2 0x4EA7 JUMP JUMPDEST PUSH1 0x40 MLOAD DUP1 SWAP2 SUB SWAP1 REVERT JUMPDEST PUSH0 DUP2 DUP6 DUP2 MLOAD DUP2 LT PUSH2 0x8B4 JUMPI PUSH2 0x8B3 PUSH2 0x4EC5 JUMP JUMPDEST JUMPDEST PUSH1 0x20 MUL PUSH1 0x20 ADD ADD MLOAD SWAP1 POP PUSH0 DUP2 PUSH0 ADD MLOAD MLOAD GT PUSH2 0x904 JUMPI PUSH1 0x40 MLOAD PUSH32 0x8C379A000000000000000000000000000000000000000000000000000000000 DUP2 MSTORE PUSH1 0x4 ADD PUSH2 0x8FB SWAP1 PUSH2 0x4F3C JUMP JUMPDEST PUSH1 0x40 MLOAD DUP1 SWAP2 SUB SWAP1 REVERT JUMPDEST PUSH2 0x925 PUSH1 0x40 MLOAD DUP1 PUSH1 0x60 ADD PUSH1 0x40 MSTORE DUP1 PUSH1 0x2A DUP2 MSTORE PUSH1 0x20 ADD PUSH2 0x5B8D PUSH1 0x2A SWAP2 CODECOPY PUSH2 0x210D JUMP JUMPDEST PUSH0 PUSH2 0x932 DUP9 DUP9 DUP9 DUP6 PUSH2 0x21A6 JUMP JUMPDEST SWAP1 POP PUSH2 0x973 PUSH1 0x40 MLOAD DUP1 PUSH1 0x40 ADD PUSH1 0x40 MSTORE DUP1 PUSH1 0x19 DUP2 MSTORE PUSH1 0x20 ADD PUSH32 0x416C6C206D656D62657273207375626D69747465643A20257300000000000000 DUP2 MSTORE POP DUP3 PUSH2 0x226F JUMP JUMPDEST DUP1 PUSH2 0x9B3 JUMPI PUSH1 0x40 MLOAD PUSH32 0x8C379A000000000000000000000000000000000000000000000000000000000 DUP2 MSTORE PUSH1 0x4 ADD PUSH2 0x9AA SWAP1 PUSH2 0x4FCA JUMP JUMPDEST PUSH1 0x40 MLOAD DUP1 SWAP2 SUB SWAP1 REVERT JUMPDEST PUSH0 DUP3 PUSH0 ADD MLOAD MLOAD SWAP1 POP PUSH0 DUP2 PUSH8 0xFFFFFFFFFFFFFFFF DUP2 GT ISZERO PUSH2 0x9D6 JUMPI PUSH2 0x9D5 PUSH2 0x41A3 JUMP JUMPDEST JUMPDEST PUSH1 0x40 MLOAD SWAP1 DUP1 DUP3 MSTORE DUP1 PUSH1 0x20 MUL PUSH1 0x20 ADD DUP3 ADD PUSH1 0x40 MSTORE DUP1 ISZERO PUSH2 0xA04 JUMPI DUP2 PUSH1 0x20 ADD PUSH1 0x20 DUP3 MUL DUP1 CALLDATASIZE DUP4 CALLDATACOPY DUP1 DUP3 ADD SWAP2 POP POP SWAP1 POP JUMPDEST POP SWAP1 POP PUSH0 JUMPDEST DUP3 DUP2 LT ISZERO PUSH2 0xA9B JUMPI PUSH2 0xA1E DUP12 DUP12 DUP12 DUP5 DUP10 PUSH2 0x230B JUMP JUMPDEST DUP3 DUP3 DUP2 MLOAD DUP2 LT PUSH2 0xA31 JUMPI PUSH2 0xA30 PUSH2 0x4EC5 JUMP JUMPDEST JUMPDEST PUSH1 0x20 MUL PUSH1 0x20 ADD ADD DUP2 DUP2 MSTORE POP POP PUSH32 0xF6FF2AD7FC16BDA2A7D32462729431BCE3EBE9B75CC7C9B35A0ADFBF7E7BB9E6 DUP3 DUP3 DUP2 MLOAD DUP2 LT PUSH2 0xA71 JUMPI PUSH2 0xA70 PUSH2 0x4EC5 JUMP JUMPDEST JUMPDEST PUSH1 0x20 MUL PUSH1 0x20 ADD ADD MLOAD PUSH1 0x40 MLOAD PUSH2 0xA86 SWAP2 SWAP1 PUSH2 0x5032 JUMP JUMPDEST PUSH1 0x40 MLOAD DUP1 SWAP2 SUB SWAP1 LOG1 DUP1 DUP1 PUSH1 0x1 ADD SWAP2 POP POP PUSH2 0xA09 JUMP JUMPDEST POP PUSH0 PUSH2 0xAA6 DUP3 PUSH2 0x24DF JUMP JUMPDEST SWAP1 POP PUSH1 0x40 MLOAD DUP1 PUSH1 0x60 ADD PUSH1 0x40 MSTORE DUP1 DUP3 DUP2 MSTORE PUSH1 0x20 ADD DUP4 DUP2 MSTORE PUSH1 0x20 ADD TIMESTAMP DUP2 MSTORE POP PUSH1 0x7 PUSH0 DUP14 DUP2 MSTORE PUSH1 0x20 ADD SWAP1 DUP2 MSTORE PUSH1 0x20 ADD PUSH0 KECCAK256 PUSH0 DUP13 DUP2 MSTORE PUSH1 0x20 ADD SWAP1 DUP2 MSTORE PUSH1 0x20 ADD PUSH0 KECCAK256 PUSH0 DUP12 DUP2 MSTORE PUSH1 0x20 ADD SWAP1 DUP2 MSTORE PUSH1 0x20 ADD PUSH0 KECCAK256 PUSH0 DUP3 ADD MLOAD DUP2 PUSH0 ADD SWAP1 DUP1 MLOAD SWAP1 PUSH1 0x20 ADD SWAP1 PUSH2 0xB0C SWAP3 SWAP2 SWAP1 PUSH2 0x3CC8 JUMP JUMPDEST POP PUSH1 0x20 DUP3 ADD MLOAD DUP2 PUSH1 0x1 ADD SWAP1 DUP1 MLOAD SWAP1 PUSH1 0x20 ADD SWAP1 PUSH2 0xB29 SWAP3 SWAP2 SWAP1 PUSH2 0x3CC8 JUMP JUMPDEST POP PUSH1 0x40 DUP3 ADD MLOAD DUP2 PUSH1 0x2 ADD SSTORE SWAP1 POP POP DUP11 PUSH32 0xB7561A7DCBDF981C91BCBDAEF28458903367918C2B25FE6C1A2485997A91820 DUP12 DUP12 DUP5 PUSH1 0x40 MLOAD PUSH2 0xB6B SWAP4 SWAP3 SWAP2 SWAP1 PUSH2 0x505E JUMP JUMPDEST PUSH1 0x40 MLOAD DUP1 SWAP2 SUB SWAP1 LOG2 PUSH2 0xB95 PUSH1 0x40 MLOAD DUP1 PUSH1 0x60 ADD PUSH1 0x40 MSTORE DUP1 PUSH1 0x23 DUP2 MSTORE PUSH1 0x20 ADD PUSH2 0x5B6A PUSH1 0x23 SWAP2 CODECOPY DUP11 PUSH2 0x274F JUMP JUMPDEST PUSH2 0xBA1 DUP12 DUP12 DUP12 DUP9 PUSH2 0x27EB JUMP JUMPDEST POP POP POP POP POP POP POP POP POP POP POP JUMP JUMPDEST PUSH1 0x60 PUSH1 0x6 PUSH0 DUP7 DUP2 MSTORE PUSH1 0x20 ADD SWAP1 DUP2 MSTORE PUSH1 0x20 ADD PUSH0 KECCAK256 PUSH0 DUP6 DUP2 MSTORE PUSH1 0x20 ADD SWAP1 DUP2 MSTORE PUSH1 0x20 ADD PUSH0 KECCAK256 PUSH0 DUP5 DUP2 MSTORE PUSH1 0x20 ADD SWAP1 DUP2 MSTORE PUSH1 0x20 ADD PUSH0 KECCAK256 PUSH0 DUP4 PUSH20 0xFFFFFFFFFFFFFFFFFFFFFFFFFFFFFFFFFFFFFFFF AND PUSH20 0xFFFFFFFFFFFFFFFFFFFFFFFFFFFFFFFFFFFFFFFF AND DUP2 MSTORE PUSH1 0x20 ADD SWAP1 DUP2 MSTORE PUSH1 0x20 ADD PUSH0 KECCAK256 PUSH0 ADD DUP1 SLOAD DUP1 PUSH1 0x20 MUL PUSH1 0x20 ADD PUSH1 0x40 MLOAD SWAP1 DUP2 ADD PUSH1 0x40 MSTORE DUP1 SWAP3 SWAP2 SWAP1 DUP2 DUP2 MSTORE PUSH1 0x20 ADD DUP3 DUP1 SLOAD DUP1 ISZERO PUSH2 0xC64 JUMPI PUSH1 0x20 MUL DUP3 ADD SWAP2 SWAP1 PUSH0 MSTORE PUSH1 0x20 PUSH0 KECCAK256 SWAP1 JUMPDEST DUP2 SLOAD DUP2 MSTORE PUSH1 0x20 ADD SWAP1 PUSH1 0x1 ADD SWAP1 DUP1 DUP4 GT PUSH2 0xC50 JUMPI JUMPDEST POP POP POP POP POP SWAP1 POP SWAP5 SWAP4 POP POP POP POP JUMP JUMPDEST PUSH0 PUSH2 0xC7C PUSH2 0x2B40 JUMP JUMPDEST SWAP1 POP DUP1 PUSH20 0xFFFFFFFFFFFFFFFFFFFFFFFFFFFFFFFFFFFFFFFF AND DUP7 PUSH20 0xFFFFFFFFFFFFFFFFFFFFFFFFFFFFFFFFFFFFFFFF AND EQ ISZERO DUP1 ISZERO PUSH2 0xCC1 JUMPI POP PUSH2 0xCBF DUP7 DUP3 PUSH2 0x1D19 JUMP JUMPDEST ISZERO JUMPDEST ISZERO PUSH2 0xD05 JUMPI DUP1 DUP7 PUSH1 0x40 MLOAD PUSH32 0xE237D92200000000000000000000000000000000000000000000000000000000 DUP2 MSTORE PUSH1 0x4 ADD PUSH2 0xCFC SWAP3 SWAP2 SWAP1 PUSH2 0x509A JUMP JUMPDEST PUSH1 0x40 MLOAD DUP1 SWAP2 SUB SWAP1 REVERT JUMPDEST PUSH2 0xD12 DUP7 DUP7 DUP7 DUP7 DUP7 PUSH2 0x2B47 JUMP JUMPDEST POP POP POP POP POP POP JUMP JUMPDEST PUSH1 0x60 DUP1 PUSH0 PUSH1 0x4 PUSH0 SWAP1 SLOAD SWAP1 PUSH2 0x100 EXP SWAP1 DIV PUSH20 0xFFFFFFFFFFFFFFFFFFFFFFFFFFFFFFFFFFFFFFFF AND PUSH20 0xFFFFFFFFFFFFFFFFFFFFFFFFFFFFFFFFFFFFFFFF AND PUSH4 0x6C331BD3 DUP8 DUP8 PUSH1 0x40 MLOAD DUP4 PUSH4 0xFFFFFFFF AND PUSH1 0xE0 SHL DUP2 MSTORE PUSH1 0x4 ADD PUSH2 0xD7A SWAP3 SWAP2 SWAP1 PUSH2 0x4C1F JUMP JUMPDEST PUSH0 PUSH1 0x40 MLOAD DUP1 DUP4 SUB DUP2 DUP7 GAS STATICCALL ISZERO DUP1 ISZERO PUSH2 0xD94 JUMPI RETURNDATASIZE PUSH0 DUP1 RETURNDATACOPY RETURNDATASIZE PUSH0 REVERT JUMPDEST POP POP POP POP PUSH1 0x40 MLOAD RETURNDATASIZE PUSH0 DUP3 RETURNDATACOPY RETURNDATASIZE PUSH1 0x1F NOT PUSH1 0x1F DUP3 ADD AND DUP3 ADD DUP1 PUSH1 0x40 MSTORE POP DUP2 ADD SWAP1 PUSH2 0xDBC SWAP2 SWAP1 PUSH2 0x4E16 JUMP JUMPDEST SWAP1 POP DUP1 MLOAD DUP5 LT PUSH2 0xE01 JUMPI PUSH1 0x40 MLOAD PUSH32 0x8C379A000000000000000000000000000000000000000000000000000000000 DUP2 MSTORE PUSH1 0x4 ADD PUSH2 0xDF8 SWAP1 PUSH2 0x4EA7 JUMP JUMPDEST PUSH1 0x40 MLOAD DUP1 SWAP2 SUB SWAP1 REVERT JUMPDEST PUSH0 DUP2 DUP6 DUP2 MLOAD DUP2 LT PUSH2 0xE15 JUMPI PUSH2 0xE14 PUSH2 0x4EC5 JUMP JUMPDEST JUMPDEST PUSH1 0x20 MUL PUSH1 0x20 ADD ADD MLOAD SWAP1 POP PUSH0 DUP2 PUSH0 ADD MLOAD MLOAD SWAP1 POP PUSH0 DUP2 PUSH8 0xFFFFFFFFFFFFFFFF DUP2 GT ISZERO PUSH2 0xE42 JUMPI PUSH2 0xE41 PUSH2 0x41A3 JUMP JUMPDEST JUMPDEST PUSH1 0x40 MLOAD SWAP1 DUP1 DUP3 MSTORE DUP1 PUSH1 0x20 MUL PUSH1 0x20 ADD DUP3 ADD PUSH1 0x40 MSTORE DUP1 ISZERO PUSH2 0xE70 JUMPI DUP2 PUSH1 0x20 ADD PUSH1 0x20 DUP3 MUL DUP1 CALLDATASIZE DUP4 CALLDATACOPY DUP1 DUP3 ADD SWAP2 POP POP SWAP1 POP JUMPDEST POP SWAP1 POP PUSH0 DUP3 PUSH8 0xFFFFFFFFFFFFFFFF DUP2 GT ISZERO PUSH2 0xE8E JUMPI PUSH2 0xE8D PUSH2 0x41A3 JUMP JUMPDEST JUMPDEST PUSH1 0x40 MLOAD SWAP1 DUP1 DUP3 MSTORE DUP1 PUSH1 0x20 MUL PUSH1 0x20 ADD DUP3 ADD PUSH1 0x40 MSTORE DUP1 ISZERO PUSH2 0xEBC JUMPI DUP2 PUSH1 0x20 ADD PUSH1 0x20 DUP3 MUL DUP1 CALLDATASIZE DUP4 CALLDATACOPY DUP1 DUP3 ADD SWAP2 POP POP SWAP1 POP JUMPDEST POP SWAP1 POP PUSH0 JUMPDEST DUP4 DUP2 LT ISZERO PUSH2 0xF6D JUMPI DUP5 PUSH0 ADD MLOAD DUP2 DUP2 MLOAD DUP2 LT PUSH2 0xEDF JUMPI PUSH2 0xEDE PUSH2 0x4EC5 JUMP JUMPDEST JUMPDEST PUSH1 0x20 MUL PUSH1 0x20 ADD ADD MLOAD DUP4 DUP3 DUP2 MLOAD DUP2 LT PUSH2 0xEFA JUMPI PUSH2 0xEF9 PUSH2 0x4EC5 JUMP JUMPDEST JUMPDEST PUSH1 0x20 MUL PUSH1 0x20 ADD ADD SWAP1 PUSH20 0xFFFFFFFFFFFFFFFFFFFFFFFFFFFFFFFFFFFFFFFF AND SWAP1 DUP2 PUSH20 0xFFFFFFFFFFFFFFFFFFFFFFFFFFFFFFFFFFFFFFFF AND DUP2 MSTORE POP POP PUSH2 0xF41 DUP12 DUP12 DUP12 DUP5 DUP10 PUSH2 0x230B JUMP JUMPDEST DUP3 DUP3 DUP2 MLOAD DUP2 LT PUSH2 0xF54 JUMPI PUSH2 0xF53 PUSH2 0x4EC5 JUMP JUMPDEST JUMPDEST PUSH1 0x20 MUL PUSH1 0x20 ADD ADD DUP2 DUP2 MSTORE POP POP DUP1 DUP1 PUSH1 0x1 ADD SWAP2 POP POP PUSH2 0xEC1 JUMP JUMPDEST POP DUP2 DUP2 SWAP7 POP SWAP7 POP POP POP POP POP POP SWAP4 POP SWAP4 SWAP2 POP POP JUMP JUMPDEST PUSH0 PUSH1 0x5 PUSH0 SWAP1 SLOAD SWAP1 PUSH2 0x100 EXP SWAP1 DIV PUSH20 0xFFFFFFFFFFFFFFFFFFFFFFFFFFFFFFFFFFFFFFFF AND PUSH20 0xFFFFFFFFFFFFFFFFFFFFFFFFFFFFFFFFFFFFFFFF AND PUSH4 0xD5D8617A DUP5 PUSH1 0x40 MLOAD DUP3 PUSH4 0xFFFFFFFF AND PUSH1 0xE0 SHL DUP2 MSTORE PUSH1 0x4 ADD PUSH2 0xFDC SWAP2 SWAP1 PUSH2 0x3E19 JUMP JUMPDEST PUSH1 0x20 PUSH1 0x40 MLOAD DUP1 DUP4 SUB DUP2 DUP7 GAS STATICCALL ISZERO DUP1 ISZERO PUSH2 0xFF7 JUMPI RETURNDATASIZE PUSH0 DUP1 RETURNDATACOPY RETURNDATASIZE PUSH0 REVERT JUMPDEST POP POP POP POP PUSH1 0x40 MLOAD RETURNDATASIZE PUSH1 0x1F NOT PUSH1 0x1F DUP3 ADD AND DUP3 ADD DUP1 PUSH1 0x40 MSTORE POP DUP2 ADD SWAP1 PUSH2 0x101B SWAP2 SWAP1 PUSH2 0x50C1 JUMP JUMPDEST SWAP1 POP PUSH0 PUSH1 0x4 PUSH0 SWAP1 SLOAD SWAP1 PUSH2 0x100 EXP SWAP1 DIV PUSH20 0xFFFFFFFFFFFFFFFFFFFFFFFFFFFFFFFFFFFFFFFF AND PUSH20 0xFFFFFFFFFFFFFFFFFFFFFFFFFFFFFFFFFFFFFFFF AND PUSH4 0x6C331BD3 DUP6 DUP6 PUSH1 0x40 MLOAD DUP4 PUSH4 0xFFFFFFFF AND PUSH1 0xE0 SHL DUP2 MSTORE PUSH1 0x4 ADD PUSH2 0x107A SWAP3 SWAP2 SWAP1 PUSH2 0x4C1F JUMP JUMPDEST PUSH0 PUSH1 0x40 MLOAD DUP1 DUP4 SUB DUP2 DUP7 GAS STATICCALL ISZERO DUP1 ISZERO PUSH2 0x1094 JUMPI RETURNDATASIZE PUSH0 DUP1 RETURNDATACOPY RETURNDATASIZE PUSH0 REVERT JUMPDEST POP POP POP POP PUSH1 0x40 MLOAD RETURNDATASIZE PUSH0 DUP3 RETURNDATACOPY RETURNDATASIZE PUSH1 0x1F NOT PUSH1 0x1F DUP3 ADD AND DUP3 ADD DUP1 PUSH1 0x40 MSTORE POP DUP2 ADD SWAP1 PUSH2 0x10BC SWAP2 SWAP1 PUSH2 0x4E16 JUMP JUMPDEST SWAP1 POP PUSH0 DUP2 MLOAD PUSH8 0xFFFFFFFFFFFFFFFF DUP2 GT ISZERO PUSH2 0x10DA JUMPI PUSH2 0x10D9 PUSH2 0x41A3 JUMP JUMPDEST JUMPDEST PUSH1 0x40 MLOAD SWAP1 DUP1 DUP3 MSTORE DUP1 PUSH1 0x20 MUL PUSH1 0x20 ADD DUP3 ADD PUSH1 0x40 MSTORE DUP1 ISZERO PUSH2 0x110D JUMPI DUP2 PUSH1 0x20 ADD JUMPDEST PUSH1 0x60 DUP2 MSTORE PUSH1 0x20 ADD SWAP1 PUSH1 0x1 SWAP1 SUB SWAP1 DUP2 PUSH2 0x10F8 JUMPI SWAP1 POP JUMPDEST POP SWAP1 POP PUSH0 JUMPDEST DUP3 MLOAD DUP2 LT ISZERO PUSH2 0x11D4 JUMPI PUSH2 0x1126 DUP7 DUP7 DUP4 PUSH2 0x6BB JUMP JUMPDEST PUSH0 PUSH1 0x7 PUSH0 DUP9 DUP2 MSTORE PUSH1 0x20 ADD SWAP1 DUP2 MSTORE PUSH1 0x20 ADD PUSH0 KECCAK256 PUSH0 DUP8 DUP2 MSTORE PUSH1 0x20 ADD SWAP1 DUP2 MSTORE PUSH1 0x20 ADD PUSH0 KECCAK256 PUSH0 DUP4 DUP2 MSTORE PUSH1 0x20 ADD SWAP1 DUP2 MSTORE PUSH1 0x20 ADD PUSH0 KECCAK256 SWAP1 POP DUP1 PUSH0 ADD DUP1 SLOAD DUP1 PUSH1 0x20 MUL PUSH1 0x20 ADD PUSH1 0x40 MLOAD SWAP1 DUP2 ADD PUSH1 0x40 MSTORE DUP1 SWAP3 SWAP2 SWAP1 DUP2 DUP2 MSTORE PUSH1 0x20 ADD DUP3 DUP1 SLOAD DUP1 ISZERO PUSH2 0x11A3 JUMPI PUSH1 0x20 MUL DUP3 ADD SWAP2 SWAP1 PUSH0 MSTORE PUSH1 0x20 PUSH0 KECCAK256 SWAP1 JUMPDEST DUP2 SLOAD DUP2 MSTORE PUSH1 0x20 ADD SWAP1 PUSH1 0x1 ADD SWAP1 DUP1 DUP4 GT PUSH2 0x118F JUMPI JUMPDEST POP POP POP POP POP DUP4 DUP4 DUP2 MLOAD DUP2 LT PUSH2 0x11BB JUMPI PUSH2 0x11BA PUSH2 0x4EC5 JUMP JUMPDEST JUMPDEST PUSH1 0x20 MUL PUSH1 0x20 ADD ADD DUP2 SWAP1 MSTORE POP POP DUP1 DUP1 PUSH1 0x1 ADD SWAP2 POP POP PUSH2 0x1112 JUMP JUMPDEST POP PUSH0 PUSH2 0x11E0 DUP5 DUP4 PUSH2 0x2C3B JUMP JUMPDEST SWAP1 POP PUSH0 DUP1 JUMPDEST DUP5 MLOAD DUP2 LT ISZERO PUSH2 0x13DE JUMPI PUSH0 JUMPDEST DUP6 DUP3 DUP2 MLOAD DUP2 LT PUSH2 0x1203 JUMPI PUSH2 0x1202 PUSH2 0x4EC5 JUMP JUMPDEST JUMPDEST PUSH1 0x20 MUL PUSH1 0x20 ADD ADD MLOAD PUSH0 ADD MLOAD MLOAD DUP2 LT ISZERO PUSH2 0x13D0 JUMPI PUSH0 DUP7 DUP4 DUP2 MLOAD DUP2 LT PUSH2 0x122A JUMPI PUSH2 0x1229 PUSH2 0x4EC5 JUMP JUMPDEST JUMPDEST PUSH1 0x20 MUL PUSH1 0x20 ADD ADD MLOAD PUSH0 ADD MLOAD DUP3 DUP2 MLOAD DUP2 LT PUSH2 0x1247 JUMPI PUSH2 0x1246 PUSH2 0x4EC5 JUMP JUMPDEST JUMPDEST PUSH1 0x20 MUL PUSH1 0x20 ADD ADD MLOAD SWAP1 POP PUSH0 DUP6 DUP6 DUP2 MLOAD DUP2 LT PUSH2 0x1265 JUMPI PUSH2 0x1264 PUSH2 0x4EC5 JUMP JUMPDEST JUMPDEST PUSH1 0x20 MUL PUSH1 0x20 ADD ADD MLOAD SWAP1 POP DUP1 PUSH1 0x9 PUSH0 DUP14 DUP2 MSTORE PUSH1 0x20 ADD SWAP1 DUP2 MSTORE PUSH1 0x20 ADD PUSH0 KECCAK256 PUSH0 DUP5 PUSH20 0xFFFFFFFFFFFFFFFFFFFFFFFFFFFFFFFFFFFFFFFF AND PUSH20 0xFFFFFFFFFFFFFFFFFFFFFFFFFFFFFFFFFFFFFFFF AND DUP2 MSTORE PUSH1 0x20 ADD SWAP1 DUP2 MSTORE PUSH1 0x20 ADD PUSH0 KECCAK256 PUSH0 ADD PUSH0 DUP3 DUP3 SLOAD PUSH2 0x12CC SWAP2 SWAP1 PUSH2 0x5119 JUMP JUMPDEST SWAP3 POP POP DUP2 SWAP1 SSTORE POP PUSH1 0x4 PUSH0 SWAP1 SLOAD SWAP1 PUSH2 0x100 EXP SWAP1 DIV PUSH20 0xFFFFFFFFFFFFFFFFFFFFFFFFFFFFFFFFFFFFFFFF AND PUSH20 0xFFFFFFFFFFFFFFFFFFFFFFFFFFFFFFFFFFFFFFFF AND PUSH4 0x9807F9E8 DUP13 DUP5 DUP14 DUP6 PUSH1 0x40 MLOAD DUP6 PUSH4 0xFFFFFFFF AND PUSH1 0xE0 SHL DUP2 MSTORE PUSH1 0x4 ADD PUSH2 0x1333 SWAP5 SWAP4 SWAP3 SWAP2 SWAP1 PUSH2 0x514C JUMP JUMPDEST PUSH0 PUSH1 0x40 MLOAD DUP1 DUP4 SUB DUP2 PUSH0 DUP8 DUP1 EXTCODESIZE ISZERO DUP1 ISZERO PUSH2 0x134A JUMPI PUSH0 DUP1 REVERT JUMPDEST POP GAS CALL ISZERO DUP1 ISZERO PUSH2 0x135C JUMPI RETURNDATASIZE PUSH0 DUP1 RETURNDATACOPY RETURNDATASIZE PUSH0 REVERT JUMPDEST POP POP POP POP DUP2 PUSH20 0xFFFFFFFFFFFFFFFFFFFFFFFFFFFFFFFFFFFFFFFF AND DUP12 PUSH32 0x76A56BEC00F93ABAD57F18250ECC099EE61D7E60E3CF6AE13D80BADBD8E2512A DUP13 DUP8 DUP6 PUSH1 0x40 MLOAD PUSH2 0x13AB SWAP4 SWAP3 SWAP2 SWAP1 PUSH2 0x518F JUMP JUMPDEST PUSH1 0x40 MLOAD DUP1 SWAP2 SUB SWAP1 LOG3 DUP5 DUP1 PUSH2 0x13BE SWAP1 PUSH2 0x51C4 JUMP JUMPDEST SWAP6 POP POP POP POP DUP1 DUP1 PUSH1 0x1 ADD SWAP2 POP POP PUSH2 0x11F0 JUMP JUMPDEST POP DUP1 DUP1 PUSH1 0x1 ADD SWAP2 POP POP PUSH2 0x11E5 JUMP JUMPDEST POP POP POP POP POP POP POP POP JUMP JUMPDEST PUSH1 0x60 DUP1 PUSH0 DUP1 PUSH1 0x7 PUSH0 DUP9 DUP2 MSTORE PUSH1 0x20 ADD SWAP1 DUP2 MSTORE PUSH1 0x20 ADD PUSH0 KECCAK256 PUSH0 DUP8 DUP2 MSTORE PUSH1 0x20 ADD SWAP1 DUP2 MSTORE PUSH1 0x20 ADD PUSH0 KECCAK256 PUSH0 DUP7 DUP2 MSTORE PUSH1 0x20 ADD SWAP1 DUP2 MSTORE PUSH1 0x20 ADD PUSH0 KECCAK256 SWAP1 POP DUP1 PUSH0 ADD DUP2 PUSH1 0x1 ADD DUP3 PUSH1 0x2 ADD SLOAD DUP3 DUP1 SLOAD DUP1 PUSH1 0x20 MUL PUSH1 0x20 ADD PUSH1 0x40 MLOAD SWAP1 DUP2 ADD PUSH1 0x40 MSTORE DUP1 SWAP3 SWAP2 SWAP1 DUP2 DUP2 MSTORE PUSH1 0x20 ADD DUP3 DUP1 SLOAD DUP1 ISZERO PUSH2 0x1473 JUMPI PUSH1 0x20 MUL DUP3 ADD SWAP2 SWAP1 PUSH0 MSTORE PUSH1 0x20 PUSH0 KECCAK256 SWAP1 JUMPDEST DUP2 SLOAD DUP2 MSTORE PUSH1 0x20 ADD SWAP1 PUSH1 0x1 ADD SWAP1 DUP1 DUP4 GT PUSH2 0x145F JUMPI JUMPDEST POP POP POP POP POP SWAP3 POP DUP2 DUP1 SLOAD DUP1 PUSH1 0x20 MUL PUSH1 0x20 ADD PUSH1 0x40 MLOAD SWAP1 DUP2 ADD PUSH1 0x40 MSTORE DUP1 SWAP3 SWAP2 SWAP1 DUP2 DUP2 MSTORE PUSH1 0x20 ADD DUP3 DUP1 SLOAD DUP1 ISZERO PUSH2 0x14C3 JUMPI PUSH1 0x20 MUL DUP3 ADD SWAP2 SWAP1 PUSH0 MSTORE PUSH1 0x20 PUSH0 KECCAK256 SWAP1 JUMPDEST DUP2 SLOAD DUP2 MSTORE PUSH1 0x20 ADD SWAP1 PUSH1 0x1 ADD SWAP1 DUP1 DUP4 GT PUSH2 0x14AF JUMPI JUMPDEST POP POP POP POP POP SWAP2 POP SWAP4 POP SWAP4 POP SWAP4 POP POP SWAP4 POP SWAP4 POP SWAP4 SWAP1 POP JUMP JUMPDEST PUSH0 PUSH1 0x9 PUSH0 DUP4 DUP2 MSTORE PUSH1 0x20 ADD SWAP1 DUP2 MSTORE PUSH1 0x20 ADD PUSH0 KECCAK256 PUSH0 CALLER PUSH20 0xFFFFFFFFFFFFFFFFFFFFFFFFFFFFFFFFFFFFFFFF AND PUSH20 0xFFFFFFFFFFFFFFFFFFFFFFFFFFFFFFFFFFFFFFFF AND DUP2 MSTORE PUSH1 0x20 ADD SWAP1 DUP2 MSTORE PUSH1 0x20 ADD PUSH0 KECCAK256 SWAP1 POP PUSH0 DUP2 PUSH0 ADD SLOAD GT PUSH2 0x156E JUMPI PUSH1 0x40 MLOAD PUSH32 0x8C379A000000000000000000000000000000000000000000000000000000000 DUP2 MSTORE PUSH1 0x4 ADD PUSH2 0x1565 SWAP1 PUSH2 0x5255 JUMP JUMPDEST PUSH1 0x40 MLOAD DUP1 SWAP2 SUB SWAP1 REVERT JUMPDEST DUP1 PUSH1 0x1 ADD PUSH0 SWAP1 SLOAD SWAP1 PUSH2 0x100 EXP SWAP1 DIV PUSH1 0xFF AND ISZERO PUSH2 0x15BF JUMPI PUSH1 0x40 MLOAD PUSH32 0x8C379A000000000000000000000000000000000000000000000000000000000 DUP2 MSTORE PUSH1 0x4 ADD PUSH2 0x15B6 SWAP1 PUSH2 0x52BD JUMP JUMPDEST PUSH1 0x40 MLOAD DUP1 SWAP2 SUB SWAP1 REVERT JUMPDEST PUSH1 0x1 DUP2 PUSH1 0x1 ADD PUSH0 PUSH2 0x100 EXP DUP2 SLOAD DUP2 PUSH1 0xFF MUL NOT AND SWAP1 DUP4 ISZERO ISZERO MUL OR SWAP1 SSTORE POP CALLER PUSH20 0xFFFFFFFFFFFFFFFFFFFFFFFFFFFFFFFFFFFFFFFF AND DUP3 PUSH32 0x880F2EF2613B092F1A0A819F294155C98667EB294B7E6BF7A3810278142C1A1C DUP4 PUSH0 ADD SLOAD PUSH1 0x40 MLOAD PUSH2 0x1625 SWAP2 SWAP1 PUSH2 0x3E19 JUMP JUMPDEST PUSH1 0x40 MLOAD DUP1 SWAP2 SUB SWAP1 LOG3 POP POP JUMP JUMPDEST PUSH1 0x60 DUP2 MLOAD DUP4 MLOAD EQ PUSH2 0x167D JUMPI DUP2 MLOAD DUP4 MLOAD PUSH1 0x40 MLOAD PUSH32 0x5B05999100000000000000000000000000000000000000000000000000000000 DUP2 MSTORE PUSH1 0x4 ADD PUSH2 0x1674 SWAP3 SWAP2 SWAP1 PUSH2 0x4C1F JUMP JUMPDEST PUSH1 0x40 MLOAD DUP1 SWAP2 SUB SWAP1 REVERT JUMPDEST PUSH0 DUP4 MLOAD PUSH8 0xFFFFFFFFFFFFFFFF DUP2 GT ISZERO PUSH2 0x1699 JUMPI PUSH2 0x1698 PUSH2 0x41A3 JUMP JUMPDEST JUMPDEST PUSH1 0x40 MLOAD SWAP1 DUP1 DUP3 MSTORE DUP1 PUSH1 0x20 MUL PUSH1 0x20 ADD DUP3 ADD PUSH1 0x40 MSTORE DUP1 ISZERO PUSH2 0x16C7 JUMPI DUP2 PUSH1 0x20 ADD PUSH1 0x20 DUP3 MUL DUP1 CALLDATASIZE DUP4 CALLDATACOPY DUP1 DUP3 ADD SWAP2 POP POP SWAP1 POP JUMPDEST POP SWAP1 POP PUSH0 JUMPDEST DUP5 MLOAD DUP2 LT ISZERO PUSH2 0x172D JUMPI PUSH2 0x1703 PUSH2 0x16EB DUP3 DUP8 PUSH2 0x2DE5 SWAP1 SWAP2 SWAP1 PUSH4 0xFFFFFFFF AND JUMP JUMPDEST PUSH2 0x16FE DUP4 DUP8 PUSH2 0x2DF8 SWAP1 SWAP2 SWAP1 PUSH4 0xFFFFFFFF AND JUMP JUMPDEST PUSH2 0x4CE JUMP JUMPDEST DUP3 DUP3 DUP2 MLOAD DUP2 LT PUSH2 0x1716 JUMPI PUSH2 0x1715 PUSH2 0x4EC5 JUMP JUMPDEST JUMPDEST PUSH1 0x20 MUL PUSH1 0x20 ADD ADD DUP2 DUP2 MSTORE POP POP DUP1 PUSH1 0x1 ADD SWAP1 POP PUSH2 0x16CC JUMP JUMPDEST POP DUP1 SWAP2 POP POP SWAP3 SWAP2 POP POP JUMP JUMPDEST PUSH1 0x9 PUSH1 0x20 MSTORE DUP2 PUSH0 MSTORE PUSH1 0x40 PUSH0 KECCAK256 PUSH1 0x20 MSTORE DUP1 PUSH0 MSTORE PUSH1 0x40 PUSH0 KECCAK256 PUSH0 SWAP2 POP SWAP2 POP POP DUP1 PUSH0 ADD SLOAD SWAP1 DUP1 PUSH1 0x1 ADD PUSH0 SWAP1 SLOAD SWAP1 PUSH2 0x100 EXP SWAP1 DIV PUSH1 0xFF AND SWAP1 POP DUP3 JUMP JUMPDEST PUSH2 0x1777 PUSH2 0x2E0B JUMP JUMPDEST PUSH1 0x8 PUSH0 DUP3 DUP2 MSTORE PUSH1 0x20 ADD SWAP1 DUP2 MSTORE PUSH1 0x20 ADD PUSH0 KECCAK256 PUSH0 SWAP1 SLOAD SWAP1 PUSH2 0x100 EXP SWAP1 DIV PUSH1 0xFF AND ISZERO PUSH2 0x17D5 JUMPI PUSH1 0x40 MLOAD PUSH32 0x8C379A000000000000000000000000000000000000000000000000000000000 DUP2 MSTORE PUSH1 0x4 ADD PUSH2 0x17CC SWAP1 PUSH2 0x5325 JUMP JUMPDEST PUSH1 0x40 MLOAD DUP1 SWAP2 SUB SWAP1 REVERT JUMPDEST PUSH1 0x1 PUSH1 0x8 PUSH0 DUP4 DUP2 MSTORE PUSH1 0x20 ADD SWAP1 DUP2 MSTORE PUSH1 0x20 ADD PUSH0 KECCAK256 PUSH0 PUSH2 0x100 EXP DUP2 SLOAD DUP2 PUSH1 0xFF MUL NOT AND SWAP1 DUP4 ISZERO ISZERO MUL OR SWAP1 SSTORE POP POP JUMP JUMPDEST PUSH2 0x1809 PUSH2 0x2E0B JUMP JUMPDEST PUSH2 0x1812 PUSH0 PUSH2 0x2E92 JUMP JUMPDEST JUMP JUMPDEST PUSH0 PUSH1 0x3 PUSH0 SWAP1 SLOAD SWAP1 PUSH2 0x100 EXP SWAP1 DIV PUSH20 0xFFFFFFFFFFFFFFFFFFFFFFFFFFFFFFFFFFFFFFFF AND SWAP1 POP SWAP1 JUMP JUMPDEST PUSH2 0x184E PUSH2 0x1847 PUSH2 0x2B40 JUMP JUMPDEST DUP4 DUP4 PUSH2 0x2F55 JUMP JUMPDEST POP POP JUMP JUMPDEST PUSH0 DUP1 PUSH1 0x5 PUSH0 SWAP1 SLOAD SWAP1 PUSH2 0x100 EXP SWAP1 DIV PUSH20 0xFFFFFFFFFFFFFFFFFFFFFFFFFFFFFFFFFFFFFFFF AND PUSH20 0xFFFFFFFFFFFFFFFFFFFFFFFFFFFFFFFFFFFFFFFF AND PUSH4 0x99664245 DUP8 PUSH1 0x40 MLOAD DUP3 PUSH4 0xFFFFFFFF AND PUSH1 0xE0 SHL DUP2 MSTORE PUSH1 0x4 ADD PUSH2 0x18AE SWAP2 SWAP1 PUSH2 0x3E19 JUMP JUMPDEST PUSH0 PUSH1 0x40 MLOAD DUP1 DUP4 SUB DUP2 DUP7 GAS STATICCALL ISZERO DUP1 ISZERO PUSH2 0x18C8 JUMPI RETURNDATASIZE PUSH0 DUP1 RETURNDATACOPY RETURNDATASIZE PUSH0 REVERT JUMPDEST POP POP POP POP PUSH1 0x40 MLOAD RETURNDATASIZE PUSH0 DUP3 RETURNDATACOPY RETURNDATASIZE PUSH1 0x1F NOT PUSH1 0x1F DUP3 ADD AND DUP3 ADD DUP1 PUSH1 0x40 MSTORE POP DUP2 ADD SWAP1 PUSH2 0x18F0 SWAP2 SWAP1 PUSH2 0x4AED JUMP JUMPDEST POP SWAP7 POP SWAP7 POP POP POP POP POP POP PUSH1 0x1 DUP1 DUP2 GT ISZERO PUSH2 0x190D JUMPI PUSH2 0x190C PUSH2 0x4BF2 JUMP JUMPDEST JUMPDEST DUP3 PUSH1 0x1 DUP2 GT ISZERO PUSH2 0x1920 JUMPI PUSH2 0x191F PUSH2 0x4BF2 JUMP JUMPDEST JUMPDEST EQ PUSH2 0x1960 JUMPI PUSH1 0x40 MLOAD PUSH32 0x8C379A000000000000000000000000000000000000000000000000000000000 DUP2 MSTORE PUSH1 0x4 ADD PUSH2 0x1957 SWAP1 PUSH2 0x538D JUMP JUMPDEST PUSH1 0x40 MLOAD DUP1 SWAP2 SUB SWAP1 REVERT JUMPDEST DUP1 DUP6 EQ PUSH2 0x19A2 JUMPI PUSH1 0x40 MLOAD PUSH32 0x8C379A000000000000000000000000000000000000000000000000000000000 DUP2 MSTORE PUSH1 0x4 ADD PUSH2 0x1999 SWAP1 PUSH2 0x541B JUMP JUMPDEST PUSH1 0x40 MLOAD DUP1 SWAP2 SUB SWAP1 REVERT JUMPDEST PUSH0 PUSH1 0x4 PUSH0 SWAP1 SLOAD SWAP1 PUSH2 0x100 EXP SWAP1 DIV PUSH20 0xFFFFFFFFFFFFFFFFFFFFFFFFFFFFFFFFFFFFFFFF AND PUSH20 0xFFFFFFFFFFFFFFFFFFFFFFFFFFFFFFFFFFFFFFFF AND PUSH4 0x6C331BD3 DUP9 DUP9 PUSH1 0x40 MLOAD DUP4 PUSH4 0xFFFFFFFF AND PUSH1 0xE0 SHL DUP2 MSTORE PUSH1 0x4 ADD PUSH2 0x19FF SWAP3 SWAP2 SWAP1 PUSH2 0x4C1F JUMP JUMPDEST PUSH0 PUSH1 0x40 MLOAD DUP1 DUP4 SUB DUP2 DUP7 GAS STATICCALL ISZERO DUP1 ISZERO PUSH2 0x1A19 JUMPI RETURNDATASIZE PUSH0 DUP1 RETURNDATACOPY RETURNDATASIZE PUSH0 REVERT JUMPDEST POP POP POP POP PUSH1 0x40 MLOAD RETURNDATASIZE PUSH0 DUP3 RETURNDATACOPY RETURNDATASIZE PUSH1 0x1F NOT PUSH1 0x1F DUP3 ADD AND DUP3 ADD DUP1 PUSH1 0x40 MSTORE POP DUP2 ADD SWAP1 PUSH2 0x1A41 SWAP2 SWAP1 PUSH2 0x4E16 JUMP JUMPDEST SWAP1 POP DUP1 MLOAD DUP6 LT PUSH2 0x1A86 JUMPI PUSH1 0x40 MLOAD PUSH32 0x8C379A000000000000000000000000000000000000000000000000000000000 DUP2 MSTORE PUSH1 0x4 ADD PUSH2 0x1A7D SWAP1 PUSH2 0x4EA7 JUMP JUMPDEST PUSH1 0x40 MLOAD DUP1 SWAP2 SUB SWAP1 REVERT JUMPDEST PUSH0 DUP2 DUP7 DUP2 MLOAD DUP2 LT PUSH2 0x1A9A JUMPI PUSH2 0x1A99 PUSH2 0x4EC5 JUMP JUMPDEST JUMPDEST PUSH1 0x20 MUL PUSH1 0x20 ADD ADD MLOAD SWAP1 POP DUP1 PUSH0 ADD MLOAD MLOAD DUP6 MLOAD EQ PUSH2 0x1AEB JUMPI PUSH1 0x40 MLOAD PUSH32 0x8C379A000000000000000000000000000000000000000000000000000000000 DUP2 MSTORE PUSH1 0x4 ADD PUSH2 0x1AE2 SWAP1 PUSH2 0x54A9 JUMP JUMPDEST PUSH1 0x40 MLOAD DUP1 SWAP2 SUB SWAP1 REVERT JUMPDEST PUSH2 0x1AF5 DUP2 CALLER PUSH2 0x30BE JUMP JUMPDEST PUSH2 0x1B34 JUMPI PUSH1 0x40 MLOAD PUSH32 0x8C379A000000000000000000000000000000000000000000000000000000000 DUP2 MSTORE PUSH1 0x4 ADD PUSH2 0x1B2B SWAP1 PUSH2 0x5511 JUMP JUMPDEST PUSH1 0x40 MLOAD DUP1 SWAP2 SUB SWAP1 REVERT JUMPDEST PUSH0 PUSH1 0x6 PUSH0 DUP11 DUP2 MSTORE PUSH1 0x20 ADD SWAP1 DUP2 MSTORE PUSH1 0x20 ADD PUSH0 KECCAK256 PUSH0 DUP10 DUP2 MSTORE PUSH1 0x20 ADD SWAP1 DUP2 MSTORE PUSH1 0x20 ADD PUSH0 KECCAK256 PUSH0 DUP9 DUP2 MSTORE PUSH1 0x20 ADD SWAP1 DUP2 MSTORE PUSH1 0x20 ADD PUSH0 KECCAK256 PUSH0 CALLER PUSH20 0xFFFFFFFFFFFFFFFFFFFFFFFFFFFFFFFFFFFFFFFF AND PUSH20 0xFFFFFFFFFFFFFFFFFFFFFFFFFFFFFFFFFFFFFFFF AND DUP2 MSTORE PUSH1 0x20 ADD SWAP1 DUP2 MSTORE PUSH1 0x20 ADD PUSH0 KECCAK256 PUSH0 ADD DUP1 SLOAD SWAP1 POP EQ PUSH2 0x1BE5 JUMPI PUSH1 0x40 MLOAD PUSH32 0x8C379A000000000000000000000000000000000000000000000000000000000 DUP2 MSTORE PUSH1 0x4 ADD PUSH2 0x1BDC SWAP1 PUSH2 0x5579 JUMP JUMPDEST PUSH1 0x40 MLOAD DUP1 SWAP2 SUB SWAP1 REVERT JUMPDEST PUSH1 0x40 MLOAD DUP1 PUSH1 0x20 ADD PUSH1 0x40 MSTORE DUP1 DUP7 DUP2 MSTORE POP PUSH1 0x6 PUSH0 DUP11 DUP2 MSTORE PUSH1 0x20 ADD SWAP1 DUP2 MSTORE PUSH1 0x20 ADD PUSH0 KECCAK256 PUSH0 DUP10 DUP2 MSTORE PUSH1 0x20 ADD SWAP1 DUP2 MSTORE PUSH1 0x20 ADD PUSH0 KECCAK256 PUSH0 DUP9 DUP2 MSTORE PUSH1 0x20 ADD SWAP1 DUP2 MSTORE PUSH1 0x20 ADD PUSH0 KECCAK256 PUSH0 CALLER PUSH20 0xFFFFFFFFFFFFFFFFFFFFFFFFFFFFFFFFFFFFFFFF AND PUSH20 0xFFFFFFFFFFFFFFFFFFFFFFFFFFFFFFFFFFFFFFFF AND DUP2 MSTORE PUSH1 0x20 ADD SWAP1 DUP2 MSTORE PUSH1 0x20 ADD PUSH0 KECCAK256 PUSH0 DUP3 ADD MLOAD DUP2 PUSH0 ADD SWAP1 DUP1 MLOAD SWAP1 PUSH1 0x20 ADD SWAP1 PUSH2 0x1C78 SWAP3 SWAP2 SWAP1 PUSH2 0x3CC8 JUMP JUMPDEST POP SWAP1 POP POP CALLER PUSH20 0xFFFFFFFFFFFFFFFFFFFFFFFFFFFFFFFFFFFFFFFF AND DUP9 PUSH32 0xE2D0F4A25C2B0CC7CCDA020BCD4293DCEFFB51708B88B9C58EF71A0AB96B5E16 DUP10 DUP10 PUSH1 0x40 MLOAD PUSH2 0x1CC5 SWAP3 SWAP2 SWAP1 PUSH2 0x4C1F JUMP JUMPDEST PUSH1 0x40 MLOAD DUP1 SWAP2 SUB SWAP1 LOG3 POP POP POP POP POP POP POP POP JUMP JUMPDEST PUSH1 0x8 PUSH1 0x20 MSTORE DUP1 PUSH0 MSTORE PUSH1 0x40 PUSH0 KECCAK256 PUSH0 SWAP2 POP SLOAD SWAP1 PUSH2 0x100 EXP SWAP1 DIV PUSH1 0xFF AND DUP2 JUMP JUMPDEST PUSH1 0x4 PUSH0 SWAP1 SLOAD SWAP1 PUSH2 0x100 EXP SWAP1 DIV PUSH20 0xFFFFFFFFFFFFFFFFFFFFFFFFFFFFFFFFFFFFFFFF AND DUP2 JUMP JUMPDEST PUSH0 PUSH1 0x1 PUSH0 DUP5 PUSH20 0xFFFFFFFFFFFFFFFFFFFFFFFFFFFFFFFFFFFFFFFF AND PUSH20 0xFFFFFFFFFFFFFFFFFFFFFFFFFFFFFFFFFFFFFFFF AND DUP2 MSTORE PUSH1 0x20 ADD SWAP1 DUP2 MSTORE PUSH1 0x20 ADD PUSH0 KECCAK256 PUSH0 DUP4 PUSH20 0xFFFFFFFFFFFFFFFFFFFFFFFFFFFFFFFFFFFFFFFF AND PUSH20 0xFFFFFFFFFFFFFFFFFFFFFFFFFFFFFFFFFFFFFFFF AND DUP2 MSTORE PUSH1 0x20 ADD SWAP1 DUP2 MSTORE PUSH1 0x20 ADD PUSH0 KECCAK256 PUSH0 SWAP1 SLOAD SWAP1 PUSH2 0x100 EXP SWAP1 DIV PUSH1 0xFF AND SWAP1 POP SWAP3 SWAP2 POP POP JUMP JUMPDEST PUSH0 DUP1 PUSH0 PUSH1 0x9 PUSH0 DUP7 DUP2 MSTORE PUSH1 0x20 ADD SWAP1 DUP2 MSTORE PUSH1 0x20 ADD PUSH0 KECCAK256 PUSH0 DUP6 PUSH20 0xFFFFFFFFFFFFFFFFFFFFFFFFFFFFFFFFFFFFFFFF AND PUSH20 0xFFFFFFFFFFFFFFFFFFFFFFFFFFFFFFFFFFFFFFFF AND DUP2 MSTORE PUSH1 0x20 ADD SWAP1 DUP2 MSTORE PUSH1 0x20 ADD PUSH0 KECCAK256 SWAP1 POP DUP1 PUSH0 ADD SLOAD DUP2 PUSH1 0x1 ADD PUSH0 SWAP1 SLOAD SWAP1 PUSH2 0x100 EXP SWAP1 DIV PUSH1 0xFF AND SWAP3 POP SWAP3 POP POP SWAP3 POP SWAP3 SWAP1 POP JUMP JUMPDEST PUSH0 PUSH2 0x1E22 PUSH2 0x2B40 JUMP JUMPDEST SWAP1 POP DUP1 PUSH20 0xFFFFFFFFFFFFFFFFFFFFFFFFFFFFFFFFFFFFFFFF AND DUP7 PUSH20 0xFFFFFFFFFFFFFFFFFFFFFFFFFFFFFFFFFFFFFFFF AND EQ ISZERO DUP1 ISZERO PUSH2 0x1E67 JUMPI POP PUSH2 0x1E65 DUP7 DUP3 PUSH2 0x1D19 JUMP JUMPDEST ISZERO JUMPDEST ISZERO PUSH2 0x1EAB JUMPI DUP1 DUP7 PUSH1 0x40 MLOAD PUSH32 0xE237D92200000000000000000000000000000000000000000000000000000000 DUP2 MSTORE PUSH1 0x4 ADD PUSH2 0x1EA2 SWAP3 SWAP2 SWAP1 PUSH2 0x509A JUMP JUMPDEST PUSH1 0x40 MLOAD DUP1 SWAP2 SUB SWAP1 REVERT JUMPDEST PUSH2 0x1EB8 DUP7 DUP7 DUP7 DUP7 DUP7 PUSH2 0x3142 JUMP JUMPDEST POP POP POP POP POP POP JUMP JUMPDEST PUSH2 0x1EC8 PUSH2 0x2E0B JUMP JUMPDEST PUSH0 PUSH20 0xFFFFFFFFFFFFFFFFFFFFFFFFFFFFFFFFFFFFFFFF AND DUP2 PUSH20 0xFFFFFFFFFFFFFFFFFFFFFFFFFFFFFFFFFFFFFFFF AND SUB PUSH2 0x1F38 JUMPI PUSH0 PUSH1 0x40 MLOAD PUSH32 0x1E4FBDF700000000000000000000000000000000000000000000000000000000 DUP2 MSTORE PUSH1 0x4 ADD PUSH2 0x1F2F SWAP2 SWAP1 PUSH2 0x4771 JUMP JUMPDEST PUSH1 0x40 MLOAD DUP1 SWAP2 SUB SWAP1 REVERT JUMPDEST PUSH2 0x1F41 DUP2 PUSH2 0x2E92 JUMP JUMPDEST POP JUMP JUMPDEST PUSH0 PUSH11 0x636F6E736F6C652E6C6F67 SWAP1 POP PUSH0 DUP1 DUP4 MLOAD PUSH1 0x20 DUP6 ADD DUP5 GAS STATICCALL POP POP POP JUMP JUMPDEST PUSH0 PUSH32 0x1FFC9A700000000000000000000000000000000000000000000000000000000 PUSH28 0xFFFFFFFFFFFFFFFFFFFFFFFFFFFFFFFFFFFFFFFFFFFFFFFFFFFFFFFF NOT AND DUP3 PUSH28 0xFFFFFFFFFFFFFFFFFFFFFFFFFFFFFFFFFFFFFFFFFFFFFFFFFFFFFFFF NOT AND EQ SWAP1 POP SWAP2 SWAP1 POP JUMP JUMPDEST PUSH2 0x2068 DUP5 DUP5 DUP5 DUP5 PUSH1 0x40 MLOAD PUSH1 0x24 ADD PUSH2 0x1FE6 SWAP5 SWAP4 SWAP3 SWAP2 SWAP1 PUSH2 0x5597 JUMP JUMPDEST PUSH1 0x40 MLOAD PUSH1 0x20 DUP2 DUP4 SUB SUB DUP2 MSTORE SWAP1 PUSH1 0x40 MSTORE PUSH32 0xA7A8785300000000000000000000000000000000000000000000000000000000 PUSH28 0xFFFFFFFFFFFFFFFFFFFFFFFFFFFFFFFFFFFFFFFFFFFFFFFFFFFFFFFF NOT AND PUSH1 0x20 DUP3 ADD DUP1 MLOAD PUSH28 0xFFFFFFFFFFFFFFFFFFFFFFFFFFFFFFFFFFFFFFFFFFFFFFFFFFFFFFFF DUP4 DUP2 DUP4 AND OR DUP4 MSTORE POP POP POP POP PUSH2 0x3248 JUMP JUMPDEST POP POP POP POP JUMP JUMPDEST PUSH2 0x2108 DUP4 DUP4 DUP4 PUSH1 0x40 MLOAD PUSH1 0x24 ADD PUSH2 0x2086 SWAP4 SWAP3 SWAP2 SWAP1 PUSH2 0x55E1 JUMP JUMPDEST PUSH1 0x40 MLOAD PUSH1 0x20 DUP2 DUP4 SUB SUB DUP2 MSTORE SWAP1 PUSH1 0x40 MSTORE PUSH32 0xCA47C4EB00000000000000000000000000000000000000000000000000000000 PUSH28 0xFFFFFFFFFFFFFFFFFFFFFFFFFFFFFFFFFFFFFFFFFFFFFFFFFFFFFFFF NOT AND PUSH1 0x20 DUP3 ADD DUP1 MLOAD PUSH28 0xFFFFFFFFFFFFFFFFFFFFFFFFFFFFFFFFFFFFFFFFFFFFFFFFFFFFFFFF DUP4 DUP2 DUP4 AND OR DUP4 MSTORE POP POP POP POP PUSH2 0x3248 JUMP JUMPDEST POP POP POP JUMP JUMPDEST PUSH2 0x21A3 DUP2 PUSH1 0x40 MLOAD PUSH1 0x24 ADD PUSH2 0x2121 SWAP2 SWAP1 PUSH2 0x3FF4 JUMP JUMPDEST PUSH1 0x40 MLOAD PUSH1 0x20 DUP2 DUP4 SUB SUB DUP2 MSTORE SWAP1 PUSH1 0x40 MSTORE PUSH32 0x41304FAC00000000000000000000000000000000000000000000000000000000 PUSH28 0xFFFFFFFFFFFFFFFFFFFFFFFFFFFFFFFFFFFFFFFFFFFFFFFFFFFFFFFF NOT AND PUSH1 0x20 DUP3 ADD DUP1 MLOAD PUSH28 0xFFFFFFFFFFFFFFFFFFFFFFFFFFFFFFFFFFFFFFFFFFFFFFFFFFFFFFFF DUP4 DUP2 DUP4 AND OR DUP4 MSTORE POP POP POP POP PUSH2 0x3248 JUMP JUMPDEST POP JUMP JUMPDEST PUSH0 DUP1 PUSH0 SWAP1 POP JUMPDEST DUP3 PUSH0 ADD MLOAD MLOAD DUP2 LT ISZERO PUSH2 0x2261 JUMPI PUSH0 PUSH1 0x6 PUSH0 DUP9 DUP2 MSTORE PUSH1 0x20 ADD SWAP1 DUP2 MSTORE PUSH1 0x20 ADD PUSH0 KECCAK256 PUSH0 DUP8 DUP2 MSTORE PUSH1 0x20 ADD SWAP1 DUP2 MSTORE PUSH1 0x20 ADD PUSH0 KECCAK256 PUSH0 DUP7 DUP2 MSTORE PUSH1 0x20 ADD SWAP1 DUP2 MSTORE PUSH1 0x20 ADD PUSH0 KECCAK256 PUSH0 DUP6 PUSH0 ADD MLOAD DUP5 DUP2 MLOAD DUP2 LT PUSH2 0x21FF JUMPI PUSH2 0x21FE PUSH2 0x4EC5 JUMP JUMPDEST JUMPDEST PUSH1 0x20 MUL PUSH1 0x20 ADD ADD MLOAD PUSH20 0xFFFFFFFFFFFFFFFFFFFFFFFFFFFFFFFFFFFFFFFF AND PUSH20 0xFFFFFFFFFFFFFFFFFFFFFFFFFFFFFFFFFFFFFFFF AND DUP2 MSTORE PUSH1 0x20 ADD SWAP1 DUP2 MSTORE PUSH1 0x20 ADD PUSH0 KECCAK256 PUSH0 ADD DUP1 SLOAD SWAP1 POP SUB PUSH2 0x2254 JUMPI PUSH0 SWAP2 POP POP PUSH2 0x2267 JUMP JUMPDEST DUP1 DUP1 PUSH1 0x1 ADD SWAP2 POP POP PUSH2 0x21AC JUMP JUMPDEST POP PUSH1 0x1 SWAP1 POP JUMPDEST SWAP5 SWAP4 POP POP POP POP JUMP JUMPDEST PUSH2 0x2307 DUP3 DUP3 PUSH1 0x40 MLOAD PUSH1 0x24 ADD PUSH2 0x2285 SWAP3 SWAP2 SWAP1 PUSH2 0x561D JUMP JUMPDEST PUSH1 0x40 MLOAD PUSH1 0x20 DUP2 DUP4 SUB SUB DUP2 MSTORE SWAP1 PUSH1 0x40 MSTORE PUSH32 0xC3B5563500000000000000000000000000000000000000000000000000000000 PUSH28 0xFFFFFFFFFFFFFFFFFFFFFFFFFFFFFFFFFFFFFFFFFFFFFFFFFFFFFFFF NOT AND PUSH1 0x20 DUP3 ADD DUP1 MLOAD PUSH28 0xFFFFFFFFFFFFFFFFFFFFFFFFFFFFFFFFFFFFFFFFFFFFFFFFFFFFFFFF DUP4 DUP2 DUP4 AND OR DUP4 MSTORE POP POP POP POP PUSH2 0x3248 JUMP JUMPDEST POP POP JUMP JUMPDEST PUSH0 DUP1 DUP3 PUSH0 ADD MLOAD MLOAD PUSH8 0xFFFFFFFFFFFFFFFF DUP2 GT ISZERO PUSH2 0x232B JUMPI PUSH2 0x232A PUSH2 0x41A3 JUMP JUMPDEST JUMPDEST PUSH1 0x40 MLOAD SWAP1 DUP1 DUP3 MSTORE DUP1 PUSH1 0x20 MUL PUSH1 0x20 ADD DUP3 ADD PUSH1 0x40 MSTORE DUP1 ISZERO PUSH2 0x2359 JUMPI DUP2 PUSH1 0x20 ADD PUSH1 0x20 DUP3 MUL DUP1 CALLDATASIZE DUP4 CALLDATACOPY DUP1 DUP3 ADD SWAP2 POP POP SWAP1 POP JUMPDEST POP SWAP1 POP PUSH0 JUMPDEST DUP4 PUSH0 ADD MLOAD MLOAD DUP2 LT ISZERO PUSH2 0x243A JUMPI PUSH1 0x6 PUSH0 DUP10 DUP2 MSTORE PUSH1 0x20 ADD SWAP1 DUP2 MSTORE PUSH1 0x20 ADD PUSH0 KECCAK256 PUSH0 DUP9 DUP2 MSTORE PUSH1 0x20 ADD SWAP1 DUP2 MSTORE PUSH1 0x20 ADD PUSH0 KECCAK256 PUSH0 DUP8 DUP2 MSTORE PUSH1 0x20 ADD SWAP1 DUP2 MSTORE PUSH1 0x20 ADD PUSH0 KECCAK256 PUSH0 DUP6 PUSH0 ADD MLOAD DUP4 DUP2 MLOAD DUP2 LT PUSH2 0x23B0 JUMPI PUSH2 0x23AF PUSH2 0x4EC5 JUMP JUMPDEST JUMPDEST PUSH1 0x20 MUL PUSH1 0x20 ADD ADD MLOAD PUSH20 0xFFFFFFFFFFFFFFFFFFFFFFFFFFFFFFFFFFFFFFFF AND PUSH20 0xFFFFFFFFFFFFFFFFFFFFFFFFFFFFFFFFFFFFFFFF AND DUP2 MSTORE PUSH1 0x20 ADD SWAP1 DUP2 MSTORE PUSH1 0x20 ADD PUSH0 KECCAK256 PUSH0 ADD DUP6 DUP2 SLOAD DUP2 LT PUSH2 0x2405 JUMPI PUSH2 0x2404 PUSH2 0x4EC5 JUMP JUMPDEST JUMPDEST SWAP1 PUSH0 MSTORE PUSH1 0x20 PUSH0 KECCAK256 ADD SLOAD DUP3 DUP3 DUP2 MLOAD DUP2 LT PUSH2 0x2421 JUMPI PUSH2 0x2420 PUSH2 0x4EC5 JUMP JUMPDEST JUMPDEST PUSH1 0x20 MUL PUSH1 0x20 ADD ADD DUP2 DUP2 MSTORE POP POP DUP1 DUP1 PUSH1 0x1 ADD SWAP2 POP POP PUSH2 0x235E JUMP JUMPDEST POP PUSH0 PUSH2 0x2445 DUP3 PUSH2 0x3262 JUMP JUMPDEST SWAP1 POP PUSH0 PUSH2 0x2451 DUP4 PUSH2 0x32D0 JUMP JUMPDEST SWAP1 POP PUSH0 PUSH2 0x2461 DUP7 PUSH0 ADD MLOAD MLOAD PUSH2 0x3376 JUMP JUMPDEST SWAP1 POP PUSH0 DUP1 DUP3 SUB PUSH2 0x247B JUMPI PUSH8 0xDE0B6B3A7640000 SWAP1 POP PUSH2 0x24B0 JUMP JUMPDEST DUP2 PUSH8 0xDE0B6B3A7640000 DUP5 PUSH2 0x2490 SWAP2 SWAP1 PUSH2 0x564B JUMP JUMPDEST PUSH2 0x249A SWAP2 SWAP1 PUSH2 0x56B9 JUMP JUMPDEST PUSH8 0xDE0B6B3A7640000 PUSH2 0x24AD SWAP2 SWAP1 PUSH2 0x56E9 JUMP JUMPDEST SWAP1 POP JUMPDEST PUSH8 0xDE0B6B3A7640000 DUP2 DUP6 PUSH2 0x24C5 SWAP2 SWAP1 PUSH2 0x564B JUMP JUMPDEST PUSH2 0x24CF SWAP2 SWAP1 PUSH2 0x56B9 JUMP JUMPDEST SWAP6 POP POP POP POP POP POP SWAP6 SWAP5 POP POP POP POP POP JUMP JUMPDEST PUSH1 0x60 PUSH0 DUP3 MLOAD PUSH8 0xFFFFFFFFFFFFFFFF DUP2 GT ISZERO PUSH2 0x24FD JUMPI PUSH2 0x24FC PUSH2 0x41A3 JUMP JUMPDEST JUMPDEST PUSH1 0x40 MLOAD SWAP1 DUP1 DUP3 MSTORE DUP1 PUSH1 0x20 MUL PUSH1 0x20 ADD DUP3 ADD PUSH1 0x40 MSTORE DUP1 ISZERO PUSH2 0x252B JUMPI DUP2 PUSH1 0x20 ADD PUSH1 0x20 DUP3 MUL DUP1 CALLDATASIZE DUP4 CALLDATACOPY DUP1 DUP3 ADD SWAP2 POP POP SWAP1 POP JUMPDEST POP SWAP1 POP PUSH0 JUMPDEST DUP2 MLOAD DUP2 LT ISZERO PUSH2 0x2566 JUMPI DUP1 DUP3 DUP3 DUP2 MLOAD DUP2 LT PUSH2 0x254D JUMPI PUSH2 0x254C PUSH2 0x4EC5 JUMP JUMPDEST JUMPDEST PUSH1 0x20 MUL PUSH1 0x20 ADD ADD DUP2 DUP2 MSTORE POP POP DUP1 DUP1 PUSH1 0x1 ADD SWAP2 POP POP PUSH2 0x2530 JUMP JUMPDEST POP PUSH0 JUMPDEST PUSH1 0x1 DUP5 MLOAD PUSH2 0x2577 SWAP2 SWAP1 PUSH2 0x56E9 JUMP JUMPDEST DUP2 LT ISZERO PUSH2 0x2698 JUMPI PUSH0 PUSH1 0x1 DUP3 PUSH2 0x258C SWAP2 SWAP1 PUSH2 0x5119 JUMP JUMPDEST SWAP1 POP JUMPDEST DUP5 MLOAD DUP2 LT ISZERO PUSH2 0x268A JUMPI DUP5 DUP4 DUP3 DUP2 MLOAD DUP2 LT PUSH2 0x25AC JUMPI PUSH2 0x25AB PUSH2 0x4EC5 JUMP JUMPDEST JUMPDEST PUSH1 0x20 MUL PUSH1 0x20 ADD ADD MLOAD DUP2 MLOAD DUP2 LT PUSH2 0x25C5 JUMPI PUSH2 0x25C4 PUSH2 0x4EC5 JUMP JUMPDEST JUMPDEST PUSH1 0x20 MUL PUSH1 0x20 ADD ADD MLOAD DUP6 DUP5 DUP5 DUP2 MLOAD DUP2 LT PUSH2 0x25E1 JUMPI PUSH2 0x25E0 PUSH2 0x4EC5 JUMP JUMPDEST JUMPDEST PUSH1 0x20 MUL PUSH1 0x20 ADD ADD MLOAD DUP2 MLOAD DUP2 LT PUSH2 0x25FA JUMPI PUSH2 0x25F9 PUSH2 0x4EC5 JUMP JUMPDEST JUMPDEST PUSH1 0x20 MUL PUSH1 0x20 ADD ADD MLOAD LT ISZERO PUSH2 0x267D JUMPI DUP3 DUP2 DUP2 MLOAD DUP2 LT PUSH2 0x261B JUMPI PUSH2 0x261A PUSH2 0x4EC5 JUMP JUMPDEST JUMPDEST PUSH1 0x20 MUL PUSH1 0x20 ADD ADD MLOAD DUP4 DUP4 DUP2 MLOAD DUP2 LT PUSH2 0x2636 JUMPI PUSH2 0x2635 PUSH2 0x4EC5 JUMP JUMPDEST JUMPDEST PUSH1 0x20 MUL PUSH1 0x20 ADD ADD MLOAD DUP5 DUP5 DUP2 MLOAD DUP2 LT PUSH2 0x2651 JUMPI PUSH2 0x2650 PUSH2 0x4EC5 JUMP JUMPDEST JUMPDEST PUSH1 0x20 MUL PUSH1 0x20 ADD ADD DUP6 DUP5 DUP2 MLOAD DUP2 LT PUSH2 0x266B JUMPI PUSH2 0x266A PUSH2 0x4EC5 JUMP JUMPDEST JUMPDEST PUSH1 0x20 MUL PUSH1 0x20 ADD ADD DUP3 DUP2 MSTORE POP DUP3 DUP2 MSTORE POP POP POP JUMPDEST DUP1 DUP1 PUSH1 0x1 ADD SWAP2 POP POP PUSH2 0x258F JUMP JUMPDEST POP DUP1 DUP1 PUSH1 0x1 ADD SWAP2 POP POP PUSH2 0x2569 JUMP JUMPDEST POP PUSH0 DUP4 MLOAD PUSH8 0xFFFFFFFFFFFFFFFF DUP2 GT ISZERO PUSH2 0x26B5 JUMPI PUSH2 0x26B4 PUSH2 0x41A3 JUMP JUMPDEST JUMPDEST PUSH1 0x40 MLOAD SWAP1 DUP1 DUP3 MSTORE DUP1 PUSH1 0x20 MUL PUSH1 0x20 ADD DUP3 ADD PUSH1 0x40 MSTORE DUP1 ISZERO PUSH2 0x26E3 JUMPI DUP2 PUSH1 0x20 ADD PUSH1 0x20 DUP3 MUL DUP1 CALLDATASIZE DUP4 CALLDATACOPY DUP1 DUP3 ADD SWAP2 POP POP SWAP1 POP JUMPDEST POP SWAP1 POP PUSH0 JUMPDEST DUP2 MLOAD DUP2 LT ISZERO PUSH2 0x2744 JUMPI DUP1 DUP6 MLOAD PUSH2 0x26FE SWAP2 SWAP1 PUSH2 0x56E9 JUMP JUMPDEST DUP3 DUP5 DUP4 DUP2 MLOAD DUP2 LT PUSH2 0x2712 JUMPI PUSH2 0x2711 PUSH2 0x4EC5 JUMP JUMPDEST JUMPDEST PUSH1 0x20 MUL PUSH1 0x20 ADD ADD MLOAD DUP2 MLOAD DUP2 LT PUSH2 0x272B JUMPI PUSH2 0x272A PUSH2 0x4EC5 JUMP JUMPDEST JUMPDEST PUSH1 0x20 MUL PUSH1 0x20 ADD ADD DUP2 DUP2 MSTORE POP POP DUP1 DUP1 PUSH1 0x1 ADD SWAP2 POP POP PUSH2 0x26E8 JUMP JUMPDEST POP DUP1 SWAP3 POP POP POP SWAP2 SWAP1 POP JUMP JUMPDEST PUSH2 0x27E7 DUP3 DUP3 PUSH1 0x40 MLOAD PUSH1 0x24 ADD PUSH2 0x2765 SWAP3 SWAP2 SWAP1 PUSH2 0x571C JUMP JUMPDEST PUSH1 0x40 MLOAD PUSH1 0x20 DUP2 DUP4 SUB SUB DUP2 MSTORE SWAP1 PUSH1 0x40 MSTORE PUSH32 0xB60E72CC00000000000000000000000000000000000000000000000000000000 PUSH28 0xFFFFFFFFFFFFFFFFFFFFFFFFFFFFFFFFFFFFFFFFFFFFFFFFFFFFFFFF NOT AND PUSH1 0x20 DUP3 ADD DUP1 MLOAD PUSH28 0xFFFFFFFFFFFFFFFFFFFFFFFFFFFFFFFFFFFFFFFFFFFFFFFFFFFFFFFF DUP4 DUP2 DUP4 AND OR DUP4 MSTORE POP POP POP POP PUSH2 0x3248 JUMP JUMPDEST POP POP JUMP JUMPDEST PUSH0 PUSH1 0x7 PUSH0 DUP7 DUP2 MSTORE PUSH1 0x20 ADD SWAP1 DUP2 MSTORE PUSH1 0x20 ADD PUSH0 KECCAK256 PUSH0 DUP6 DUP2 MSTORE PUSH1 0x20 ADD SWAP1 DUP2 MSTORE PUSH1 0x20 ADD PUSH0 KECCAK256 PUSH0 DUP5 DUP2 MSTORE PUSH1 0x20 ADD SWAP1 DUP2 MSTORE PUSH1 0x20 ADD PUSH0 KECCAK256 PUSH0 ADD DUP1 SLOAD DUP1 PUSH1 0x20 MUL PUSH1 0x20 ADD PUSH1 0x40 MLOAD SWAP1 DUP2 ADD PUSH1 0x40 MSTORE DUP1 SWAP3 SWAP2 SWAP1 DUP2 DUP2 MSTORE PUSH1 0x20 ADD DUP3 DUP1 SLOAD DUP1 ISZERO PUSH2 0x2865 JUMPI PUSH1 0x20 MUL DUP3 ADD SWAP2 SWAP1 PUSH0 MSTORE PUSH1 0x20 PUSH0 KECCAK256 SWAP1 JUMPDEST DUP2 SLOAD DUP2 MSTORE PUSH1 0x20 ADD SWAP1 PUSH1 0x1 ADD SWAP1 DUP1 DUP4 GT PUSH2 0x2851 JUMPI JUMPDEST POP POP POP POP POP SWAP1 POP PUSH0 DUP3 PUSH0 ADD MLOAD MLOAD SWAP1 POP DUP1 DUP3 MLOAD EQ PUSH2 0x28B7 JUMPI PUSH1 0x40 MLOAD PUSH32 0x8C379A000000000000000000000000000000000000000000000000000000000 DUP2 MSTORE PUSH1 0x4 ADD PUSH2 0x28AE SWAP1 PUSH2 0x5794 JUMP JUMPDEST PUSH1 0x40 MLOAD DUP1 SWAP2 SUB SWAP1 REVERT JUMPDEST PUSH0 JUMPDEST DUP2 DUP2 LT DUP1 ISZERO PUSH2 0x28CC JUMPI POP PUSH1 0xA DUP1 SLOAD SWAP1 POP DUP2 LT JUMPDEST ISZERO PUSH2 0x2B37 JUMPI PUSH0 DUP4 DUP3 DUP2 MLOAD DUP2 LT PUSH2 0x28E5 JUMPI PUSH2 0x28E4 PUSH2 0x4EC5 JUMP JUMPDEST JUMPDEST PUSH1 0x20 MUL PUSH1 0x20 ADD ADD MLOAD GT DUP1 ISZERO PUSH2 0x2914 JUMPI POP DUP2 DUP4 DUP3 DUP2 MLOAD DUP2 LT PUSH2 0x2909 JUMPI PUSH2 0x2908 PUSH2 0x4EC5 JUMP JUMPDEST JUMPDEST PUSH1 0x20 MUL PUSH1 0x20 ADD ADD MLOAD GT ISZERO JUMPDEST PUSH2 0x2953 JUMPI PUSH1 0x40 MLOAD PUSH32 0x8C379A000000000000000000000000000000000000000000000000000000000 DUP2 MSTORE PUSH1 0x4 ADD PUSH2 0x294A SWAP1 PUSH2 0x57FC JUMP JUMPDEST PUSH1 0x40 MLOAD DUP1 SWAP2 SUB SWAP1 REVERT JUMPDEST PUSH0 DUP5 PUSH0 ADD MLOAD PUSH1 0x1 DUP6 DUP5 DUP2 MLOAD DUP2 LT PUSH2 0x296D JUMPI PUSH2 0x296C PUSH2 0x4EC5 JUMP JUMPDEST JUMPDEST PUSH1 0x20 MUL PUSH1 0x20 ADD ADD MLOAD PUSH2 0x297F SWAP2 SWAP1 PUSH2 0x56E9 JUMP JUMPDEST DUP2 MLOAD DUP2 LT PUSH2 0x2990 JUMPI PUSH2 0x298F PUSH2 0x4EC5 JUMP JUMPDEST JUMPDEST PUSH1 0x20 MUL PUSH1 0x20 ADD ADD MLOAD SWAP1 POP PUSH0 PUSH1 0xA DUP4 DUP2 SLOAD DUP2 LT PUSH2 0x29AF JUMPI PUSH2 0x29AE PUSH2 0x4EC5 JUMP JUMPDEST JUMPDEST SWAP1 PUSH0 MSTORE PUSH1 0x20 PUSH0 KECCAK256 ADD SLOAD SWAP1 POP PUSH0 PUSH20 0xFFFFFFFFFFFFFFFFFFFFFFFFFFFFFFFFFFFFFFFF AND DUP3 PUSH20 0xFFFFFFFFFFFFFFFFFFFFFFFFFFFFFFFFFFFFFFFF AND SUB PUSH2 0x2A28 JUMPI PUSH1 0x40 MLOAD PUSH32 0x8C379A000000000000000000000000000000000000000000000000000000000 DUP2 MSTORE PUSH1 0x4 ADD PUSH2 0x2A1F SWAP1 PUSH2 0x5864 JUMP JUMPDEST PUSH1 0x40 MLOAD DUP1 SWAP2 SUB SWAP1 REVERT JUMPDEST PUSH2 0x2A42 DUP3 DUP11 DUP4 PUSH1 0x40 MLOAD DUP1 PUSH1 0x20 ADD PUSH1 0x40 MSTORE DUP1 PUSH0 DUP2 MSTORE POP PUSH2 0x33EF JUMP JUMPDEST PUSH1 0x4 PUSH0 SWAP1 SLOAD SWAP1 PUSH2 0x100 EXP SWAP1 DIV PUSH20 0xFFFFFFFFFFFFFFFFFFFFFFFFFFFFFFFFFFFFFFFF AND PUSH20 0xFFFFFFFFFFFFFFFFFFFFFFFFFFFFFFFFFFFFFFFF AND PUSH4 0x9807F9E8 DUP11 DUP5 DUP12 DUP6 PUSH1 0x40 MLOAD DUP6 PUSH4 0xFFFFFFFF AND PUSH1 0xE0 SHL DUP2 MSTORE PUSH1 0x4 ADD PUSH2 0x2AA2 SWAP5 SWAP4 SWAP3 SWAP2 SWAP1 PUSH2 0x514C JUMP JUMPDEST PUSH0 PUSH1 0x40 MLOAD DUP1 DUP4 SUB DUP2 PUSH0 DUP8 DUP1 EXTCODESIZE ISZERO DUP1 ISZERO PUSH2 0x2AB9 JUMPI PUSH0 DUP1 REVERT JUMPDEST POP GAS CALL ISZERO DUP1 ISZERO PUSH2 0x2ACB JUMPI RETURNDATASIZE PUSH0 DUP1 RETURNDATACOPY RETURNDATASIZE PUSH0 REVERT JUMPDEST POP POP POP POP DUP2 PUSH20 0xFFFFFFFFFFFFFFFFFFFFFFFFFFFFFFFFFFFFFFFF AND DUP10 PUSH32 0x76A56BEC00F93ABAD57F18250ECC099EE61D7E60E3CF6AE13D80BADBD8E2512A DUP11 DUP11 DUP6 PUSH1 0x40 MLOAD PUSH2 0x2B1A SWAP4 SWAP3 SWAP2 SWAP1 PUSH2 0x518F JUMP JUMPDEST PUSH1 0x40 MLOAD DUP1 SWAP2 SUB SWAP1 LOG3 POP POP DUP1 DUP1 PUSH2 0x2B2F SWAP1 PUSH2 0x51C4 JUMP JUMPDEST SWAP2 POP POP PUSH2 0x28B9 JUMP JUMPDEST POP POP POP POP POP POP POP JUMP JUMPDEST PUSH0 CALLER SWAP1 POP SWAP1 JUMP JUMPDEST PUSH0 PUSH20 0xFFFFFFFFFFFFFFFFFFFFFFFFFFFFFFFFFFFFFFFF AND DUP5 PUSH20 0xFFFFFFFFFFFFFFFFFFFFFFFFFFFFFFFFFFFFFFFF AND SUB PUSH2 0x2BB7 JUMPI PUSH0 PUSH1 0x40 MLOAD PUSH32 0x57F447CE00000000000000000000000000000000000000000000000000000000 DUP2 MSTORE PUSH1 0x4 ADD PUSH2 0x2BAE SWAP2 SWAP1 PUSH2 0x4771 JUMP JUMPDEST PUSH1 0x40 MLOAD DUP1 SWAP2 SUB SWAP1 REVERT JUMPDEST PUSH0 PUSH20 0xFFFFFFFFFFFFFFFFFFFFFFFFFFFFFFFFFFFFFFFF AND DUP6 PUSH20 0xFFFFFFFFFFFFFFFFFFFFFFFFFFFFFFFFFFFFFFFF AND SUB PUSH2 0x2C27 JUMPI PUSH0 PUSH1 0x40 MLOAD PUSH32 0x1A8351400000000000000000000000000000000000000000000000000000000 DUP2 MSTORE PUSH1 0x4 ADD PUSH2 0x2C1E SWAP2 SWAP1 PUSH2 0x4771 JUMP JUMPDEST PUSH1 0x40 MLOAD DUP1 SWAP2 SUB SWAP1 REVERT JUMPDEST PUSH2 0x2C34 DUP6 DUP6 DUP6 DUP6 DUP6 PUSH2 0x3484 JUMP JUMPDEST POP POP POP POP POP JUMP JUMPDEST PUSH1 0x60 PUSH0 DUP1 JUMPDEST DUP4 MLOAD DUP2 LT ISZERO PUSH2 0x2C7F JUMPI DUP4 DUP2 DUP2 MLOAD DUP2 LT PUSH2 0x2C5C JUMPI PUSH2 0x2C5B PUSH2 0x4EC5 JUMP JUMPDEST JUMPDEST PUSH1 0x20 MUL PUSH1 0x20 ADD ADD MLOAD MLOAD DUP3 PUSH2 0x2C70 SWAP2 SWAP1 PUSH2 0x5119 JUMP JUMPDEST SWAP2 POP DUP1 DUP1 PUSH1 0x1 ADD SWAP2 POP POP PUSH2 0x2C40 JUMP JUMPDEST POP PUSH0 DUP2 PUSH8 0xFFFFFFFFFFFFFFFF DUP2 GT ISZERO PUSH2 0x2C9B JUMPI PUSH2 0x2C9A PUSH2 0x41A3 JUMP JUMPDEST JUMPDEST PUSH1 0x40 MLOAD SWAP1 DUP1 DUP3 MSTORE DUP1 PUSH1 0x20 MUL PUSH1 0x20 ADD DUP3 ADD PUSH1 0x40 MSTORE DUP1 ISZERO PUSH2 0x2CC9 JUMPI DUP2 PUSH1 0x20 ADD PUSH1 0x20 DUP3 MUL DUP1 CALLDATASIZE DUP4 CALLDATACOPY DUP1 DUP3 ADD SWAP2 POP POP SWAP1 POP JUMPDEST POP SWAP1 POP PUSH0 DUP1 PUSH0 JUMPDEST DUP7 MLOAD DUP2 LT ISZERO PUSH2 0x2D6E JUMPI PUSH0 JUMPDEST DUP8 DUP3 DUP2 MLOAD DUP2 LT PUSH2 0x2CEE JUMPI PUSH2 0x2CED PUSH2 0x4EC5 JUMP JUMPDEST JUMPDEST PUSH1 0x20 MUL PUSH1 0x20 ADD ADD MLOAD MLOAD DUP2 LT ISZERO PUSH2 0x2D60 JUMPI PUSH0 PUSH2 0x2D14 DUP3 PUSH1 0x6 PUSH2 0x2D0F SWAP2 SWAP1 PUSH2 0x56E9 JUMP JUMPDEST PUSH2 0x3530 JUMP JUMPDEST SWAP1 POP DUP1 DUP6 PUSH2 0x2D22 SWAP2 SWAP1 PUSH2 0x5119 JUMP JUMPDEST SWAP5 POP DUP1 DUP7 DUP6 DUP2 MLOAD DUP2 LT PUSH2 0x2D38 JUMPI PUSH2 0x2D37 PUSH2 0x4EC5 JUMP JUMPDEST JUMPDEST PUSH1 0x20 MUL PUSH1 0x20 ADD ADD DUP2 DUP2 MSTORE POP POP DUP4 DUP1 PUSH2 0x2D4F SWAP1 PUSH2 0x51C4 JUMP JUMPDEST SWAP5 POP POP POP DUP1 DUP1 PUSH1 0x1 ADD SWAP2 POP POP PUSH2 0x2CDB JUMP JUMPDEST POP DUP1 DUP1 PUSH1 0x1 ADD SWAP2 POP POP PUSH2 0x2CD0 JUMP JUMPDEST POP PUSH0 JUMPDEST DUP4 MLOAD DUP2 LT ISZERO PUSH2 0x2DD7 JUMPI DUP3 DUP9 DUP6 DUP4 DUP2 MLOAD DUP2 LT PUSH2 0x2D8F JUMPI PUSH2 0x2D8E PUSH2 0x4EC5 JUMP JUMPDEST JUMPDEST PUSH1 0x20 MUL PUSH1 0x20 ADD ADD MLOAD PUSH2 0x2DA1 SWAP2 SWAP1 PUSH2 0x564B JUMP JUMPDEST PUSH2 0x2DAB SWAP2 SWAP1 PUSH2 0x56B9 JUMP JUMPDEST DUP5 DUP3 DUP2 MLOAD DUP2 LT PUSH2 0x2DBE JUMPI PUSH2 0x2DBD PUSH2 0x4EC5 JUMP JUMPDEST JUMPDEST PUSH1 0x20 MUL PUSH1 0x20 ADD ADD DUP2 DUP2 MSTORE POP POP DUP1 DUP1 PUSH1 0x1 ADD SWAP2 POP POP PUSH2 0x2D71 JUMP JUMPDEST POP DUP3 SWAP5 POP POP POP POP POP SWAP3 SWAP2 POP POP JUMP JUMPDEST PUSH0 PUSH1 0x20 DUP3 MUL PUSH1 0x20 DUP5 ADD ADD MLOAD SWAP1 POP SWAP3 SWAP2 POP POP JUMP JUMPDEST PUSH0 PUSH1 0x20 DUP3 MUL PUSH1 0x20 DUP5 ADD ADD MLOAD SWAP1 POP SWAP3 SWAP2 POP POP JUMP JUMPDEST PUSH2 0x2E13 PUSH2 0x2B40 JUMP JUMPDEST PUSH20 0xFFFFFFFFFFFFFFFFFFFFFFFFFFFFFFFFFFFFFFFF AND PUSH2 0x2E31 PUSH2 0x1814 JUMP JUMPDEST PUSH20 0xFFFFFFFFFFFFFFFFFFFFFFFFFFFFFFFFFFFFFFFF AND EQ PUSH2 0x2E90 JUMPI PUSH2 0x2E54 PUSH2 0x2B40 JUMP JUMPDEST PUSH1 0x40 MLOAD PUSH32 0x118CDAA700000000000000000000000000000000000000000000000000000000 DUP2 MSTORE PUSH1 0x4 ADD PUSH2 0x2E87 SWAP2 SWAP1 PUSH2 0x4771 JUMP JUMPDEST PUSH1 0x40 MLOAD DUP1 SWAP2 SUB SWAP1 REVERT JUMPDEST JUMP JUMPDEST PUSH0 PUSH1 0x3 PUSH0 SWAP1 SLOAD SWAP1 PUSH2 0x100 EXP SWAP1 DIV PUSH20 0xFFFFFFFFFFFFFFFFFFFFFFFFFFFFFFFFFFFFFFFF AND SWAP1 POP DUP2 PUSH1 0x3 PUSH0 PUSH2 0x100 EXP DUP2 SLOAD DUP2 PUSH20 0xFFFFFFFFFFFFFFFFFFFFFFFFFFFFFFFFFFFFFFFF MUL NOT AND SWAP1 DUP4 PUSH20 0xFFFFFFFFFFFFFFFFFFFFFFFFFFFFFFFFFFFFFFFF AND MUL OR SWAP1 SSTORE POP DUP2 PUSH20 0xFFFFFFFFFFFFFFFFFFFFFFFFFFFFFFFFFFFFFFFF AND DUP2 PUSH20 0xFFFFFFFFFFFFFFFFFFFFFFFFFFFFFFFFFFFFFFFF AND PUSH32 0x8BE0079C531659141344CD1FD0A4F28419497F9722A3DAAFE3B4186F6B6457E0 PUSH1 0x40 MLOAD PUSH1 0x40 MLOAD DUP1 SWAP2 SUB SWAP1 LOG3 POP POP JUMP JUMPDEST PUSH0 PUSH20 0xFFFFFFFFFFFFFFFFFFFFFFFFFFFFFFFFFFFFFFFF AND DUP3 PUSH20 0xFFFFFFFFFFFFFFFFFFFFFFFFFFFFFFFFFFFFFFFF AND SUB PUSH2 0x2FC5 JUMPI PUSH0 PUSH1 0x40 MLOAD PUSH32 0xCED3E10000000000000000000000000000000000000000000000000000000000 DUP2 MSTORE PUSH1 0x4 ADD PUSH2 0x2FBC SWAP2 SWAP1 PUSH2 0x4771 JUMP JUMPDEST PUSH1 0x40 MLOAD DUP1 SWAP2 SUB SWAP1 REVERT JUMPDEST DUP1 PUSH1 0x1 PUSH0 DUP6 PUSH20 0xFFFFFFFFFFFFFFFFFFFFFFFFFFFFFFFFFFFFFFFF AND PUSH20 0xFFFFFFFFFFFFFFFFFFFFFFFFFFFFFFFFFFFFFFFF AND DUP2 MSTORE PUSH1 0x20 ADD SWAP1 DUP2 MSTORE PUSH1 0x20 ADD PUSH0 KECCAK256 PUSH0 DUP5 PUSH20 0xFFFFFFFFFFFFFFFFFFFFFFFFFFFFFFFFFFFFFFFF AND PUSH20 0xFFFFFFFFFFFFFFFFFFFFFFFFFFFFFFFFFFFFFFFF AND DUP2 MSTORE PUSH1 0x20 ADD SWAP1 DUP2 MSTORE PUSH1 0x20 ADD PUSH0 KECCAK256 PUSH0 PUSH2 0x100 EXP DUP2 SLOAD DUP2 PUSH1 0xFF MUL NOT AND SWAP1 DUP4 ISZERO ISZERO MUL OR SWAP1 SSTORE POP DUP2 PUSH20 0xFFFFFFFFFFFFFFFFFFFFFFFFFFFFFFFFFFFFFFFF AND DUP4 PUSH20 0xFFFFFFFFFFFFFFFFFFFFFFFFFFFFFFFFFFFFFFFF AND PUSH32 0x17307EAB39AB6107E8899845AD3D59BD9653F200F220920489CA2B5937696C31 DUP4 PUSH1 0x40 MLOAD PUSH2 0x30B1 SWAP2 SWAP1 PUSH2 0x3ECC JUMP JUMPDEST PUSH1 0x40 MLOAD DUP1 SWAP2 SUB SWAP1 LOG3 POP POP POP JUMP JUMPDEST PUSH0 DUP1 PUSH0 SWAP1 POP JUMPDEST DUP4 PUSH0 ADD MLOAD MLOAD DUP2 LT ISZERO PUSH2 0x3137 JUMPI DUP3 PUSH20 0xFFFFFFFFFFFFFFFFFFFFFFFFFFFFFFFFFFFFFFFF AND DUP5 PUSH0 ADD MLOAD DUP3 DUP2 MLOAD DUP2 LT PUSH2 0x30FD JUMPI PUSH2 0x30FC PUSH2 0x4EC5 JUMP JUMPDEST JUMPDEST PUSH1 0x20 MUL PUSH1 0x20 ADD ADD MLOAD PUSH20 0xFFFFFFFFFFFFFFFFFFFFFFFFFFFFFFFFFFFFFFFF AND SUB PUSH2 0x312A JUMPI PUSH1 0x1 SWAP2 POP POP PUSH2 0x313C JUMP JUMPDEST DUP1 DUP1 PUSH1 0x1 ADD SWAP2 POP POP PUSH2 0x30C4 JUMP JUMPDEST POP PUSH0 SWAP1 POP JUMPDEST SWAP3 SWAP2 POP POP JUMP JUMPDEST PUSH0 PUSH20 0xFFFFFFFFFFFFFFFFFFFFFFFFFFFFFFFFFFFFFFFF AND DUP5 PUSH20 0xFFFFFFFFFFFFFFFFFFFFFFFFFFFFFFFFFFFFFFFF AND SUB PUSH2 0x31B2 JUMPI PUSH0 PUSH1 0x40 MLOAD PUSH32 0x57F447CE00000000000000000000000000000000000000000000000000000000 DUP2 MSTORE PUSH1 0x4 ADD PUSH2 0x31A9 SWAP2 SWAP1 PUSH2 0x4771 JUMP JUMPDEST PUSH1 0x40 MLOAD DUP1 SWAP2 SUB SWAP1 REVERT JUMPDEST PUSH0 PUSH20 0xFFFFFFFFFFFFFFFFFFFFFFFFFFFFFFFFFFFFFFFF AND DUP6 PUSH20 0xFFFFFFFFFFFFFFFFFFFFFFFFFFFFFFFFFFFFFFFF AND SUB PUSH2 0x3222 JUMPI PUSH0 PUSH1 0x40 MLOAD PUSH32 0x1A8351400000000000000000000000000000000000000000000000000000000 DUP2 MSTORE PUSH1 0x4 ADD PUSH2 0x3219 SWAP2 SWAP1 PUSH2 0x4771 JUMP JUMPDEST PUSH1 0x40 MLOAD DUP1 SWAP2 SUB SWAP1 REVERT JUMPDEST PUSH0 DUP1 PUSH2 0x322E DUP6 DUP6 PUSH2 0x3595 JUMP JUMPDEST SWAP2 POP SWAP2 POP PUSH2 0x323F DUP8 DUP8 DUP5 DUP5 DUP8 PUSH2 0x3484 JUMP JUMPDEST POP POP POP POP POP POP POP JUMP JUMPDEST PUSH2 0x325F DUP2 PUSH2 0x3257 PUSH2 0x1F44 PUSH2 0x35C5 JUMP JUMPDEST PUSH4 0xFFFFFFFF AND JUMP JUMPDEST POP JUMP JUMPDEST PUSH0 DUP1 PUSH0 SWAP1 POP PUSH0 JUMPDEST DUP4 MLOAD DUP2 LT ISZERO PUSH2 0x32A7 JUMPI DUP4 DUP2 DUP2 MLOAD DUP2 LT PUSH2 0x3285 JUMPI PUSH2 0x3284 PUSH2 0x4EC5 JUMP JUMPDEST JUMPDEST PUSH1 0x20 MUL PUSH1 0x20 ADD ADD MLOAD DUP3 PUSH2 0x3298 SWAP2 SWAP1 PUSH2 0x5119 JUMP JUMPDEST SWAP2 POP DUP1 DUP1 PUSH1 0x1 ADD SWAP2 POP POP PUSH2 0x3269 JUMP JUMPDEST POP DUP3 MLOAD PUSH8 0xDE0B6B3A7640000 DUP3 PUSH2 0x32BE SWAP2 SWAP1 PUSH2 0x564B JUMP JUMPDEST PUSH2 0x32C8 SWAP2 SWAP1 PUSH2 0x56B9 JUMP JUMPDEST SWAP2 POP POP SWAP2 SWAP1 POP JUMP JUMPDEST PUSH0 DUP1 PUSH2 0x32DB DUP4 PUSH2 0x3262 JUMP JUMPDEST SWAP1 POP PUSH0 DUP1 JUMPDEST DUP5 MLOAD DUP2 LT ISZERO PUSH2 0x335F JUMPI PUSH0 DUP4 PUSH8 0xDE0B6B3A7640000 DUP8 DUP5 DUP2 MLOAD DUP2 LT PUSH2 0x3307 JUMPI PUSH2 0x3306 PUSH2 0x4EC5 JUMP JUMPDEST JUMPDEST PUSH1 0x20 MUL PUSH1 0x20 ADD ADD MLOAD PUSH2 0x3319 SWAP2 SWAP1 PUSH2 0x564B JUMP JUMPDEST PUSH2 0x3323 SWAP2 SWAP1 PUSH2 0x588B JUMP JUMPDEST SWAP1 POP PUSH8 0xDE0B6B3A7640000 DUP2 DUP3 PUSH2 0x333A SWAP2 SWAP1 PUSH2 0x58CB JUMP JUMPDEST PUSH2 0x3344 SWAP2 SWAP1 PUSH2 0x56B9 JUMP JUMPDEST DUP4 PUSH2 0x334F SWAP2 SWAP1 PUSH2 0x5119 JUMP JUMPDEST SWAP3 POP POP DUP1 DUP1 PUSH1 0x1 ADD SWAP2 POP POP PUSH2 0x32E0 JUMP JUMPDEST POP DUP4 MLOAD DUP2 PUSH2 0x336D SWAP2 SWAP1 PUSH2 0x56B9 JUMP JUMPDEST SWAP3 POP POP POP SWAP2 SWAP1 POP JUMP JUMPDEST PUSH0 DUP1 PUSH0 SWAP1 POP PUSH0 PUSH1 0x1 SWAP1 POP JUMPDEST DUP4 DUP2 LT ISZERO PUSH2 0x33C3 JUMPI PUSH1 0x2 PUSH8 0xDE0B6B3A7640000 DUP3 PUSH2 0x339F SWAP2 SWAP1 PUSH2 0x564B JUMP JUMPDEST PUSH2 0x33A9 SWAP2 SWAP1 PUSH2 0x56B9 JUMP JUMPDEST DUP3 PUSH2 0x33B4 SWAP2 SWAP1 PUSH2 0x5119 JUMP JUMPDEST SWAP2 POP DUP1 DUP1 PUSH1 0x1 ADD SWAP2 POP POP PUSH2 0x3381 JUMP JUMPDEST POP PUSH1 0x1 DUP4 PUSH2 0x33D1 SWAP2 SWAP1 PUSH2 0x56E9 JUMP JUMPDEST DUP2 DUP5 PUSH2 0x33DD SWAP2 SWAP1 PUSH2 0x564B JUMP JUMPDEST PUSH2 0x33E7 SWAP2 SWAP1 PUSH2 0x56B9 JUMP JUMPDEST SWAP2 POP POP SWAP2 SWAP1 POP JUMP JUMPDEST PUSH0 PUSH20 0xFFFFFFFFFFFFFFFFFFFFFFFFFFFFFFFFFFFFFFFF AND DUP5 PUSH20 0xFFFFFFFFFFFFFFFFFFFFFFFFFFFFFFFFFFFFFFFF AND SUB PUSH2 0x345F JUMPI PUSH0 PUSH1 0x40 MLOAD PUSH32 0x57F447CE00000000000000000000000000000000000000000000000000000000 DUP2 MSTORE PUSH1 0x4 ADD PUSH2 0x3456 SWAP2 SWAP1 PUSH2 0x4771 JUMP JUMPDEST PUSH1 0x40 MLOAD DUP1 SWAP2 SUB SWAP1 REVERT JUMPDEST PUSH0 DUP1 PUSH2 0x346B DUP6 DUP6 PUSH2 0x3595 JUMP JUMPDEST SWAP2 POP SWAP2 POP PUSH2 0x347C PUSH0 DUP8 DUP5 DUP5 DUP8 PUSH2 0x3484 JUMP JUMPDEST POP POP POP POP POP POP JUMP JUMPDEST PUSH2 0x3490 DUP6 DUP6 DUP6 DUP6 PUSH2 0x35D0 JUMP JUMPDEST PUSH0 PUSH20 0xFFFFFFFFFFFFFFFFFFFFFFFFFFFFFFFFFFFFFFFF AND DUP5 PUSH20 0xFFFFFFFFFFFFFFFFFFFFFFFFFFFFFFFFFFFFFFFF AND EQ PUSH2 0x3529 JUMPI PUSH0 PUSH2 0x34CC PUSH2 0x2B40 JUMP JUMPDEST SWAP1 POP PUSH1 0x1 DUP5 MLOAD SUB PUSH2 0x3518 JUMPI PUSH0 PUSH2 0x34EB PUSH0 DUP7 PUSH2 0x2DF8 SWAP1 SWAP2 SWAP1 PUSH4 0xFFFFFFFF AND JUMP JUMPDEST SWAP1 POP PUSH0 PUSH2 0x3501 PUSH0 DUP7 PUSH2 0x2DF8 SWAP1 SWAP2 SWAP1 PUSH4 0xFFFFFFFF AND JUMP JUMPDEST SWAP1 POP PUSH2 0x3511 DUP4 DUP10 DUP10 DUP6 DUP6 DUP10 PUSH2 0x3960 JUMP JUMPDEST POP POP PUSH2 0x3527 JUMP JUMPDEST PUSH2 0x3526 DUP2 DUP8 DUP8 DUP8 DUP8 DUP8 PUSH2 0x3B0F JUMP JUMPDEST JUMPDEST POP JUMPDEST POP POP POP POP POP JUMP JUMPDEST PUSH0 PUSH1 0x1 DUP3 PUSH1 0xFF AND GT PUSH2 0x3547 JUMPI DUP2 PUSH1 0xFF AND SWAP1 POP PUSH2 0x3590 JUMP JUMPDEST PUSH0 DUP1 PUSH1 0x1 SWAP1 POP PUSH0 PUSH1 0x2 SWAP1 POP JUMPDEST DUP5 PUSH1 0xFF AND DUP2 PUSH1 0xFF AND GT PUSH2 0x3589 JUMPI PUSH0 DUP3 DUP5 PUSH2 0x356D SWAP2 SWAP1 PUSH2 0x5119 JUMP JUMPDEST SWAP1 POP DUP3 SWAP4 POP DUP1 SWAP3 POP POP DUP1 DUP1 PUSH2 0x3581 SWAP1 PUSH2 0x594D JUMP JUMPDEST SWAP2 POP POP PUSH2 0x3553 JUMP JUMPDEST POP DUP1 SWAP3 POP POP POP JUMPDEST SWAP2 SWAP1 POP JUMP JUMPDEST PUSH1 0x60 DUP1 PUSH1 0x40 MLOAD SWAP2 POP PUSH1 0x1 DUP3 MSTORE DUP4 PUSH1 0x20 DUP4 ADD MSTORE PUSH1 0x40 DUP3 ADD SWAP1 POP PUSH1 0x1 DUP2 MSTORE DUP3 PUSH1 0x20 DUP3 ADD MSTORE PUSH1 0x40 DUP2 ADD PUSH1 0x40 MSTORE SWAP3 POP SWAP3 SWAP1 POP JUMP JUMPDEST PUSH2 0x3CBE DUP2 SWAP1 POP SWAP2 SWAP1 POP JUMP JUMPDEST DUP1 MLOAD DUP3 MLOAD EQ PUSH2 0x361A JUMPI DUP2 MLOAD DUP2 MLOAD PUSH1 0x40 MLOAD PUSH32 0x5B05999100000000000000000000000000000000000000000000000000000000 DUP2 MSTORE PUSH1 0x4 ADD PUSH2 0x3611 SWAP3 SWAP2 SWAP1 PUSH2 0x4C1F JUMP JUMPDEST PUSH1 0x40 MLOAD DUP1 SWAP2 SUB SWAP1 REVERT JUMPDEST PUSH0 PUSH2 0x3623 PUSH2 0x2B40 JUMP JUMPDEST SWAP1 POP PUSH0 JUMPDEST DUP4 MLOAD DUP2 LT ISZERO PUSH2 0x381F JUMPI PUSH0 PUSH2 0x3644 DUP3 DUP7 PUSH2 0x2DF8 SWAP1 SWAP2 SWAP1 PUSH4 0xFFFFFFFF AND JUMP JUMPDEST SWAP1 POP PUSH0 PUSH2 0x365A DUP4 DUP7 PUSH2 0x2DF8 SWAP1 SWAP2 SWAP1 PUSH4 0xFFFFFFFF AND JUMP JUMPDEST SWAP1 POP PUSH0 PUSH20 0xFFFFFFFFFFFFFFFFFFFFFFFFFFFFFFFFFFFFFFFF AND DUP9 PUSH20 0xFFFFFFFFFFFFFFFFFFFFFFFFFFFFFFFFFFFFFFFF AND EQ PUSH2 0x377D JUMPI PUSH0 DUP1 PUSH0 DUP5 DUP2 MSTORE PUSH1 0x20 ADD SWAP1 DUP2 MSTORE PUSH1 0x20 ADD PUSH0 KECCAK256 PUSH0 DUP11 PUSH20 0xFFFFFFFFFFFFFFFFFFFFFFFFFFFFFFFFFFFFFFFF AND PUSH20 0xFFFFFFFFFFFFFFFFFFFFFFFFFFFFFFFFFFFFFFFF AND DUP2 MSTORE PUSH1 0x20 ADD SWAP1 DUP2 MSTORE PUSH1 0x20 ADD PUSH0 KECCAK256 SLOAD SWAP1 POP DUP2 DUP2 LT ISZERO PUSH2 0x3729 JUMPI DUP9 DUP2 DUP4 DUP6 PUSH1 0x40 MLOAD PUSH32 0x3DEE4C500000000000000000000000000000000000000000000000000000000 DUP2 MSTORE PUSH1 0x4 ADD PUSH2 0x3720 SWAP5 SWAP4 SWAP3 SWAP2 SWAP1 PUSH2 0x5975 JUMP JUMPDEST PUSH1 0x40 MLOAD DUP1 SWAP2 SUB SWAP1 REVERT JUMPDEST DUP2 DUP2 SUB PUSH0 DUP1 DUP6 DUP2 MSTORE PUSH1 0x20 ADD SWAP1 DUP2 MSTORE PUSH1 0x20 ADD PUSH0 KECCAK256 PUSH0 DUP12 PUSH20 0xFFFFFFFFFFFFFFFFFFFFFFFFFFFFFFFFFFFFFFFF AND PUSH20 0xFFFFFFFFFFFFFFFFFFFFFFFFFFFFFFFFFFFFFFFF AND DUP2 MSTORE PUSH1 0x20 ADD SWAP1 DUP2 MSTORE PUSH1 0x20 ADD PUSH0 KECCAK256 DUP2 SWAP1 SSTORE POP POP JUMPDEST PUSH0 PUSH20 0xFFFFFFFFFFFFFFFFFFFFFFFFFFFFFFFFFFFFFFFF AND DUP8 PUSH20 0xFFFFFFFFFFFFFFFFFFFFFFFFFFFFFFFFFFFFFFFF AND EQ PUSH2 0x3812 JUMPI DUP1 PUSH0 DUP1 DUP5 DUP2 MSTORE PUSH1 0x20 ADD SWAP1 DUP2 MSTORE PUSH1 0x20 ADD PUSH0 KECCAK256 PUSH0 DUP10 PUSH20 0xFFFFFFFFFFFFFFFFFFFFFFFFFFFFFFFFFFFFFFFF AND PUSH20 0xFFFFFFFFFFFFFFFFFFFFFFFFFFFFFFFFFFFFFFFF AND DUP2 MSTORE PUSH1 0x20 ADD SWAP1 DUP2 MSTORE PUSH1 0x20 ADD PUSH0 KECCAK256 PUSH0 DUP3 DUP3 SLOAD PUSH2 0x380A SWAP2 SWAP1 PUSH2 0x5119 JUMP JUMPDEST SWAP3 POP POP DUP2 SWAP1 SSTORE POP JUMPDEST POP POP DUP1 PUSH1 0x1 ADD SWAP1 POP PUSH2 0x3627 JUMP JUMPDEST POP PUSH1 0x1 DUP4 MLOAD SUB PUSH2 0x38DA JUMPI PUSH0 PUSH2 0x383D PUSH0 DUP6 PUSH2 0x2DF8 SWAP1 SWAP2 SWAP1 PUSH4 0xFFFFFFFF AND JUMP JUMPDEST SWAP1 POP PUSH0 PUSH2 0x3853 PUSH0 DUP6 PUSH2 0x2DF8 SWAP1 SWAP2 SWAP1 PUSH4 0xFFFFFFFF AND JUMP JUMPDEST SWAP1 POP DUP6 PUSH20 0xFFFFFFFFFFFFFFFFFFFFFFFFFFFFFFFFFFFFFFFF AND DUP8 PUSH20 0xFFFFFFFFFFFFFFFFFFFFFFFFFFFFFFFFFFFFFFFF AND DUP5 PUSH20 0xFFFFFFFFFFFFFFFFFFFFFFFFFFFFFFFFFFFFFFFF AND PUSH32 0xC3D58168C5AE7397731D063D5BBF3D657854427343F4C083240F7AACAA2D0F62 DUP6 DUP6 PUSH1 0x40 MLOAD PUSH2 0x38CB SWAP3 SWAP2 SWAP1 PUSH2 0x4C1F JUMP JUMPDEST PUSH1 0x40 MLOAD DUP1 SWAP2 SUB SWAP1 LOG4 POP POP PUSH2 0x3959 JUMP JUMPDEST DUP4 PUSH20 0xFFFFFFFFFFFFFFFFFFFFFFFFFFFFFFFFFFFFFFFF AND DUP6 PUSH20 0xFFFFFFFFFFFFFFFFFFFFFFFFFFFFFFFFFFFFFFFF AND DUP3 PUSH20 0xFFFFFFFFFFFFFFFFFFFFFFFFFFFFFFFFFFFFFFFF AND PUSH32 0x4A39DC06D4C0DBC64B70AF90FD698A233A518AA5D07E595D983B8C0526C8F7FB DUP7 DUP7 PUSH1 0x40 MLOAD PUSH2 0x3950 SWAP3 SWAP2 SWAP1 PUSH2 0x59B8 JUMP JUMPDEST PUSH1 0x40 MLOAD DUP1 SWAP2 SUB SWAP1 LOG4 JUMPDEST POP POP POP POP POP JUMP JUMPDEST PUSH0 DUP5 PUSH20 0xFFFFFFFFFFFFFFFFFFFFFFFFFFFFFFFFFFFFFFFF AND EXTCODESIZE GT ISZERO PUSH2 0x3B07 JUMPI DUP4 PUSH20 0xFFFFFFFFFFFFFFFFFFFFFFFFFFFFFFFFFFFFFFFF AND PUSH4 0xF23A6E61 DUP8 DUP8 DUP7 DUP7 DUP7 PUSH1 0x40 MLOAD DUP7 PUSH4 0xFFFFFFFF AND PUSH1 0xE0 SHL DUP2 MSTORE PUSH1 0x4 ADD PUSH2 0x39C0 SWAP6 SWAP5 SWAP4 SWAP3 SWAP2 SWAP1 PUSH2 0x5A3F JUMP JUMPDEST PUSH1 0x20 PUSH1 0x40 MLOAD DUP1 DUP4 SUB DUP2 PUSH0 DUP8 GAS CALL SWAP3 POP POP POP DUP1 ISZERO PUSH2 0x39FB JUMPI POP PUSH1 0x40 MLOAD RETURNDATASIZE PUSH1 0x1F NOT PUSH1 0x1F DUP3 ADD AND DUP3 ADD DUP1 PUSH1 0x40 MSTORE POP DUP2 ADD SWAP1 PUSH2 0x39F8 SWAP2 SWAP1 PUSH2 0x5AAB JUMP JUMPDEST PUSH1 0x1 JUMPDEST PUSH2 0x3A7C JUMPI RETURNDATASIZE DUP1 PUSH0 DUP2 EQ PUSH2 0x3A29 JUMPI PUSH1 0x40 MLOAD SWAP2 POP PUSH1 0x1F NOT PUSH1 0x3F RETURNDATASIZE ADD AND DUP3 ADD PUSH1 0x40 MSTORE RETURNDATASIZE DUP3 MSTORE RETURNDATASIZE PUSH0 PUSH1 0x20 DUP5 ADD RETURNDATACOPY PUSH2 0x3A2E JUMP JUMPDEST PUSH1 0x60 SWAP2 POP JUMPDEST POP PUSH0 DUP2 MLOAD SUB PUSH2 0x3A74 JUMPI DUP5 PUSH1 0x40 MLOAD PUSH32 0x57F447CE00000000000000000000000000000000000000000000000000000000 DUP2 MSTORE PUSH1 0x4 ADD PUSH2 0x3A6B SWAP2 SWAP1 PUSH2 0x4771 JUMP JUMPDEST PUSH1 0x40 MLOAD DUP1 SWAP2 SUB SWAP1 REVERT JUMPDEST DUP1 MLOAD DUP2 PUSH1 0x20 ADD REVERT JUMPDEST PUSH4 0xF23A6E61 PUSH1 0xE0 SHL PUSH28 0xFFFFFFFFFFFFFFFFFFFFFFFFFFFFFFFFFFFFFFFFFFFFFFFFFFFFFFFF NOT AND DUP2 PUSH28 0xFFFFFFFFFFFFFFFFFFFFFFFFFFFFFFFFFFFFFFFFFFFFFFFFFFFFFFFF NOT AND EQ PUSH2 0x3B05 JUMPI DUP5 PUSH1 0x40 MLOAD PUSH32 0x57F447CE00000000000000000000000000000000000000000000000000000000 DUP2 MSTORE PUSH1 0x4 ADD PUSH2 0x3AFC SWAP2 SWAP1 PUSH2 0x4771 JUMP JUMPDEST PUSH1 0x40 MLOAD DUP1 SWAP2 SUB SWAP1 REVERT JUMPDEST POP JUMPDEST POP POP POP POP POP POP JUMP JUMPDEST PUSH0 DUP5 PUSH20 0xFFFFFFFFFFFFFFFFFFFFFFFFFFFFFFFFFFFFFFFF AND EXTCODESIZE GT ISZERO PUSH2 0x3CB6 JUMPI DUP4 PUSH20 0xFFFFFFFFFFFFFFFFFFFFFFFFFFFFFFFFFFFFFFFF AND PUSH4 0xBC197C81 DUP8 DUP8 DUP7 DUP7 DUP7 PUSH1 0x40 MLOAD DUP7 PUSH4 0xFFFFFFFF AND PUSH1 0xE0 SHL DUP2 MSTORE PUSH1 0x4 ADD PUSH2 0x3B6F SWAP6 SWAP5 SWAP4 SWAP3 SWAP2 SWAP1 PUSH2 0x5AD6 JUMP JUMPDEST PUSH1 0x20 PUSH1 0x40 MLOAD DUP1 DUP4 SUB DUP2 PUSH0 DUP8 GAS CALL SWAP3 POP POP POP DUP1 ISZERO PUSH2 0x3BAA JUMPI POP PUSH1 0x40 MLOAD RETURNDATASIZE PUSH1 0x1F NOT PUSH1 0x1F DUP3 ADD AND DUP3 ADD DUP1 PUSH1 0x40 MSTORE POP DUP2 ADD SWAP1 PUSH2 0x3BA7 SWAP2 SWAP1 PUSH2 0x5AAB JUMP JUMPDEST PUSH1 0x1 JUMPDEST PUSH2 0x3C2B JUMPI RETURNDATASIZE DUP1 PUSH0 DUP2 EQ PUSH2 0x3BD8 JUMPI PUSH1 0x40 MLOAD SWAP2 POP PUSH1 0x1F NOT PUSH1 0x3F RETURNDATASIZE ADD AND DUP3 ADD PUSH1 0x40 MSTORE RETURNDATASIZE DUP3 MSTORE RETURNDATASIZE PUSH0 PUSH1 0x20 DUP5 ADD RETURNDATACOPY PUSH2 0x3BDD JUMP JUMPDEST PUSH1 0x60 SWAP2 POP JUMPDEST POP PUSH0 DUP2 MLOAD SUB PUSH2 0x3C23 JUMPI DUP5 PUSH1 0x40 MLOAD PUSH32 0x57F447CE00000000000000000000000000000000000000000000000000000000 DUP2 MSTORE PUSH1 0x4 ADD PUSH2 0x3C1A SWAP2 SWAP1 PUSH2 0x4771 JUMP JUMPDEST PUSH1 0x40 MLOAD DUP1 SWAP2 SUB SWAP1 REVERT JUMPDEST DUP1 MLOAD DUP2 PUSH1 0x20 ADD REVERT JUMPDEST PUSH4 0xBC197C81 PUSH1 0xE0 SHL PUSH28 0xFFFFFFFFFFFFFFFFFFFFFFFFFFFFFFFFFFFFFFFFFFFFFFFFFFFFFFFF NOT AND DUP2 PUSH28 0xFFFFFFFFFFFFFFFFFFFFFFFFFFFFFFFFFFFFFFFFFFFFFFFFFFFFFFFF NOT AND EQ PUSH2 0x3CB4 JUMPI DUP5 PUSH1 0x40 MLOAD PUSH32 0x57F447CE00000000000000000000000000000000000000000000000000000000 DUP2 MSTORE PUSH1 0x4 ADD PUSH2 0x3CAB SWAP2 SWAP1 PUSH2 0x4771 JUMP JUMPDEST PUSH1 0x40 MLOAD DUP1 SWAP2 SUB SWAP1 REVERT JUMPDEST POP JUMPDEST POP POP POP POP POP POP JUMP JUMPDEST PUSH2 0x3CC6 PUSH2 0x5B3C JUMP JUMPDEST JUMP JUMPDEST DUP3 DUP1 SLOAD DUP3 DUP3 SSTORE SWAP1 PUSH0 MSTORE PUSH1 0x20 PUSH0 KECCAK256 SWAP1 DUP2 ADD SWAP3 DUP3 ISZERO PUSH2 0x3D02 JUMPI SWAP2 PUSH1 0x20 MUL DUP3 ADD JUMPDEST DUP3 DUP2 GT ISZERO PUSH2 0x3D01 JUMPI DUP3 MLOAD DUP3 SSTORE SWAP2 PUSH1 0x20 ADD SWAP2 SWAP1 PUSH1 0x1 ADD SWAP1 PUSH2 0x3CE6 JUMP JUMPDEST JUMPDEST POP SWAP1 POP PUSH2 0x3D0F SWAP2 SWAP1 PUSH2 0x3D13 JUMP JUMPDEST POP SWAP1 JUMP JUMPDEST JUMPDEST DUP1 DUP3 GT ISZERO PUSH2 0x3D2A JUMPI PUSH0 DUP2 PUSH0 SWAP1 SSTORE POP PUSH1 0x1 ADD PUSH2 0x3D14 JUMP JUMPDEST POP SWAP1 JUMP JUMPDEST PUSH0 PUSH1 0x40 MLOAD SWAP1 POP SWAP1 JUMP JUMPDEST PUSH0 DUP1 REVERT JUMPDEST PUSH0 DUP1 REVERT JUMPDEST PUSH0 PUSH20 0xFFFFFFFFFFFFFFFFFFFFFFFFFFFFFFFFFFFFFFFF DUP3 AND SWAP1 POP SWAP2 SWAP1 POP JUMP JUMPDEST PUSH0 PUSH2 0x3D68 DUP3 PUSH2 0x3D3F JUMP JUMPDEST SWAP1 POP SWAP2 SWAP1 POP JUMP JUMPDEST PUSH2 0x3D78 DUP2 PUSH2 0x3D5E JUMP JUMPDEST DUP2 EQ PUSH2 0x3D82 JUMPI PUSH0 DUP1 REVERT JUMPDEST POP JUMP JUMPDEST PUSH0 DUP2 CALLDATALOAD SWAP1 POP PUSH2 0x3D93 DUP2 PUSH2 0x3D6F JUMP JUMPDEST SWAP3 SWAP2 POP POP JUMP JUMPDEST PUSH0 DUP2 SWAP1 POP SWAP2 SWAP1 POP JUMP JUMPDEST PUSH2 0x3DAB DUP2 PUSH2 0x3D99 JUMP JUMPDEST DUP2 EQ PUSH2 0x3DB5 JUMPI PUSH0 DUP1 REVERT JUMPDEST POP JUMP JUMPDEST PUSH0 DUP2 CALLDATALOAD SWAP1 POP PUSH2 0x3DC6 DUP2 PUSH2 0x3DA2 JUMP JUMPDEST SWAP3 SWAP2 POP POP JUMP JUMPDEST PUSH0 DUP1 PUSH1 0x40 DUP4 DUP6 SUB SLT ISZERO PUSH2 0x3DE2 JUMPI PUSH2 0x3DE1 PUSH2 0x3D37 JUMP JUMPDEST JUMPDEST PUSH0 PUSH2 0x3DEF DUP6 DUP3 DUP7 ADD PUSH2 0x3D85 JUMP JUMPDEST SWAP3 POP POP PUSH1 0x20 PUSH2 0x3E00 DUP6 DUP3 DUP7 ADD PUSH2 0x3DB8 JUMP JUMPDEST SWAP2 POP POP SWAP3 POP SWAP3 SWAP1 POP JUMP JUMPDEST PUSH2 0x3E13 DUP2 PUSH2 0x3D99 JUMP JUMPDEST DUP3 MSTORE POP POP JUMP JUMPDEST PUSH0 PUSH1 0x20 DUP3 ADD SWAP1 POP PUSH2 0x3E2C PUSH0 DUP4 ADD DUP5 PUSH2 0x3E0A JUMP JUMPDEST SWAP3 SWAP2 POP POP JUMP JUMPDEST PUSH0 PUSH32 0xFFFFFFFF00000000000000000000000000000000000000000000000000000000 DUP3 AND SWAP1 POP SWAP2 SWAP1 POP JUMP JUMPDEST PUSH2 0x3E66 DUP2 PUSH2 0x3E32 JUMP JUMPDEST DUP2 EQ PUSH2 0x3E70 JUMPI PUSH0 DUP1 REVERT JUMPDEST POP JUMP JUMPDEST PUSH0 DUP2 CALLDATALOAD SWAP1 POP PUSH2 0x3E81 DUP2 PUSH2 0x3E5D JUMP JUMPDEST SWAP3 SWAP2 POP POP JUMP JUMPDEST PUSH0 PUSH1 0x20 DUP3 DUP5 SUB SLT ISZERO PUSH2 0x3E9C JUMPI PUSH2 0x3E9B PUSH2 0x3D37 JUMP JUMPDEST JUMPDEST PUSH0 PUSH2 0x3EA9 DUP5 DUP3 DUP6 ADD PUSH2 0x3E73 JUMP JUMPDEST SWAP2 POP POP SWAP3 SWAP2 POP POP JUMP JUMPDEST PUSH0 DUP2 ISZERO ISZERO SWAP1 POP SWAP2 SWAP1 POP JUMP JUMPDEST PUSH2 0x3EC6 DUP2 PUSH2 0x3EB2 JUMP JUMPDEST DUP3 MSTORE POP POP JUMP JUMPDEST PUSH0 PUSH1 0x20 DUP3 ADD SWAP1 POP PUSH2 0x3EDF PUSH0 DUP4 ADD DUP5 PUSH2 0x3EBD JUMP JUMPDEST SWAP3 SWAP2 POP POP JUMP JUMPDEST PUSH0 DUP2 SWAP1 POP SWAP2 SWAP1 POP JUMP JUMPDEST PUSH0 PUSH2 0x3F08 PUSH2 0x3F03 PUSH2 0x3EFE DUP5 PUSH2 0x3D3F JUMP JUMPDEST PUSH2 0x3EE5 JUMP JUMPDEST PUSH2 0x3D3F JUMP JUMPDEST SWAP1 POP SWAP2 SWAP1 POP JUMP JUMPDEST PUSH0 PUSH2 0x3F19 DUP3 PUSH2 0x3EEE JUMP JUMPDEST SWAP1 POP SWAP2 SWAP1 POP JUMP JUMPDEST PUSH0 PUSH2 0x3F2A DUP3 PUSH2 0x3F0F JUMP JUMPDEST SWAP1 POP SWAP2 SWAP1 POP JUMP JUMPDEST PUSH2 0x3F3A DUP2 PUSH2 0x3F20 JUMP JUMPDEST DUP3 MSTORE POP POP JUMP JUMPDEST PUSH0 PUSH1 0x20 DUP3 ADD SWAP1 POP PUSH2 0x3F53 PUSH0 DUP4 ADD DUP5 PUSH2 0x3F31 JUMP JUMPDEST SWAP3 SWAP2 POP POP JUMP JUMPDEST PUSH0 PUSH1 0x20 DUP3 DUP5 SUB SLT ISZERO PUSH2 0x3F6E JUMPI PUSH2 0x3F6D PUSH2 0x3D37 JUMP JUMPDEST JUMPDEST PUSH0 PUSH2 0x3F7B DUP5 DUP3 DUP6 ADD PUSH2 0x3DB8 JUMP JUMPDEST SWAP2 POP POP SWAP3 SWAP2 POP POP JUMP JUMPDEST PUSH0 DUP2 MLOAD SWAP1 POP SWAP2 SWAP1 POP JUMP JUMPDEST PUSH0 DUP3 DUP3 MSTORE PUSH1 0x20 DUP3 ADD SWAP1 POP SWAP3 SWAP2 POP POP JUMP JUMPDEST DUP3 DUP2 DUP4 MCOPY PUSH0 DUP4 DUP4 ADD MSTORE POP POP POP JUMP JUMPDEST PUSH0 PUSH1 0x1F NOT PUSH1 0x1F DUP4 ADD AND SWAP1 POP SWAP2 SWAP1 POP JUMP JUMPDEST PUSH0 PUSH2 0x3FC6 DUP3 PUSH2 0x3F84 JUMP JUMPDEST PUSH2 0x3FD0 DUP2 DUP6 PUSH2 0x3F8E JUMP JUMPDEST SWAP4 POP PUSH2 0x3FE0 DUP2 DUP6 PUSH1 0x20 DUP7 ADD PUSH2 0x3F9E JUMP JUMPDEST PUSH2 0x3FE9 DUP2 PUSH2 0x3FAC JUMP JUMPDEST DUP5 ADD SWAP2 POP POP SWAP3 SWAP2 POP POP JUMP JUMPDEST PUSH0 PUSH1 0x20 DUP3 ADD SWAP1 POP DUP2 DUP2 SUB PUSH0 DUP4 ADD MSTORE PUSH2 0x400C DUP2 DUP5 PUSH2 0x3FBC JUMP JUMPDEST SWAP1 POP SWAP3 SWAP2 POP POP JUMP JUMPDEST PUSH0 DUP1 PUSH0 PUSH1 0x60 DUP5 DUP7 SUB SLT ISZERO PUSH2 0x402B JUMPI PUSH2 0x402A PUSH2 0x3D37 JUMP JUMPDEST JUMPDEST PUSH0 PUSH2 0x4038 DUP7 DUP3 DUP8 ADD PUSH2 0x3DB8 JUMP JUMPDEST SWAP4 POP POP PUSH1 0x20 PUSH2 0x4049 DUP7 DUP3 DUP8 ADD PUSH2 0x3DB8 JUMP JUMPDEST SWAP3 POP POP PUSH1 0x40 PUSH2 0x405A DUP7 DUP3 DUP8 ADD PUSH2 0x3DB8 JUMP JUMPDEST SWAP2 POP POP SWAP3 POP SWAP3 POP SWAP3 JUMP JUMPDEST PUSH0 DUP1 PUSH0 DUP1 PUSH1 0x80 DUP6 DUP8 SUB SLT ISZERO PUSH2 0x407C JUMPI PUSH2 0x407B PUSH2 0x3D37 JUMP JUMPDEST JUMPDEST PUSH0 PUSH2 0x4089 DUP8 DUP3 DUP9 ADD PUSH2 0x3DB8 JUMP JUMPDEST SWAP5 POP POP PUSH1 0x20 PUSH2 0x409A DUP8 DUP3 DUP9 ADD PUSH2 0x3DB8 JUMP JUMPDEST SWAP4 POP POP PUSH1 0x40 PUSH2 0x40AB DUP8 DUP3 DUP9 ADD PUSH2 0x3DB8 JUMP JUMPDEST SWAP3 POP POP PUSH1 0x60 PUSH2 0x40BC DUP8 DUP3 DUP9 ADD PUSH2 0x3D85 JUMP JUMPDEST SWAP2 POP POP SWAP3 SWAP6 SWAP2 SWAP5 POP SWAP3 POP JUMP JUMPDEST PUSH0 DUP2 MLOAD SWAP1 POP SWAP2 SWAP1 POP JUMP JUMPDEST PUSH0 DUP3 DUP3 MSTORE PUSH1 0x20 DUP3 ADD SWAP1 POP SWAP3 SWAP2 POP POP JUMP JUMPDEST PUSH0 DUP2 SWAP1 POP PUSH1 0x20 DUP3 ADD SWAP1 POP SWAP2 SWAP1 POP JUMP JUMPDEST PUSH2 0x40FA DUP2 PUSH2 0x3D99 JUMP JUMPDEST DUP3 MSTORE POP POP JUMP JUMPDEST PUSH0 PUSH2 0x410B DUP4 DUP4 PUSH2 0x40F1 JUMP JUMPDEST PUSH1 0x20 DUP4 ADD SWAP1 POP SWAP3 SWAP2 POP POP JUMP JUMPDEST PUSH0 PUSH1 0x20 DUP3 ADD SWAP1 POP SWAP2 SWAP1 POP JUMP JUMPDEST PUSH0 PUSH2 0x412D DUP3 PUSH2 0x40C8 JUMP JUMPDEST PUSH2 0x4137 DUP2 DUP6 PUSH2 0x40D2 JUMP JUMPDEST SWAP4 POP PUSH2 0x4142 DUP4 PUSH2 0x40E2 JUMP JUMPDEST DUP1 PUSH0 JUMPDEST DUP4 DUP2 LT ISZERO PUSH2 0x4172 JUMPI DUP2 MLOAD PUSH2 0x4159 DUP9 DUP3 PUSH2 0x4100 JUMP JUMPDEST SWAP8 POP PUSH2 0x4164 DUP4 PUSH2 0x4117 JUMP JUMPDEST SWAP3 POP POP PUSH1 0x1 DUP2 ADD SWAP1 POP PUSH2 0x4145 JUMP JUMPDEST POP DUP6 SWAP4 POP POP POP POP SWAP3 SWAP2 POP POP JUMP JUMPDEST PUSH0 PUSH1 0x20 DUP3 ADD SWAP1 POP DUP2 DUP2 SUB PUSH0 DUP4 ADD MSTORE PUSH2 0x4197 DUP2 DUP5 PUSH2 0x4123 JUMP JUMPDEST SWAP1 POP SWAP3 SWAP2 POP POP JUMP JUMPDEST PUSH0 DUP1 REVERT JUMPDEST PUSH32 0x4E487B7100000000000000000000000000000000000000000000000000000000 PUSH0 MSTORE PUSH1 0x41 PUSH1 0x4 MSTORE PUSH1 0x24 PUSH0 REVERT JUMPDEST PUSH2 0x41D9 DUP3 PUSH2 0x3FAC JUMP JUMPDEST DUP2 ADD DUP2 DUP2 LT PUSH8 0xFFFFFFFFFFFFFFFF DUP3 GT OR ISZERO PUSH2 0x41F8 JUMPI PUSH2 0x41F7 PUSH2 0x41A3 JUMP JUMPDEST JUMPDEST DUP1 PUSH1 0x40 MSTORE POP POP POP JUMP JUMPDEST PUSH0 PUSH2 0x420A PUSH2 0x3D2E JUMP JUMPDEST SWAP1 POP PUSH2 0x4216 DUP3 DUP3 PUSH2 0x41D0 JUMP JUMPDEST SWAP2 SWAP1 POP JUMP JUMPDEST PUSH0 PUSH8 0xFFFFFFFFFFFFFFFF DUP3 GT ISZERO PUSH2 0x4235 JUMPI PUSH2 0x4234 PUSH2 0x41A3 JUMP JUMPDEST JUMPDEST PUSH1 0x20 DUP3 MUL SWAP1 POP PUSH1 0x20 DUP2 ADD SWAP1 POP SWAP2 SWAP1 POP JUMP JUMPDEST PUSH0 DUP1 REVERT JUMPDEST PUSH0 PUSH2 0x425C PUSH2 0x4257 DUP5 PUSH2 0x421B JUMP JUMPDEST PUSH2 0x4201 JUMP JUMPDEST SWAP1 POP DUP1 DUP4 DUP3 MSTORE PUSH1 0x20 DUP3 ADD SWAP1 POP PUSH1 0x20 DUP5 MUL DUP4 ADD DUP6 DUP2 GT ISZERO PUSH2 0x427F JUMPI PUSH2 0x427E PUSH2 0x4246 JUMP JUMPDEST JUMPDEST DUP4 JUMPDEST DUP2 DUP2 LT ISZERO PUSH2 0x42A8 JUMPI DUP1 PUSH2 0x4294 DUP9 DUP3 PUSH2 0x3DB8 JUMP JUMPDEST DUP5 MSTORE PUSH1 0x20 DUP5 ADD SWAP4 POP POP PUSH1 0x20 DUP2 ADD SWAP1 POP PUSH2 0x4281 JUMP JUMPDEST POP POP POP SWAP4 SWAP3 POP POP POP JUMP JUMPDEST PUSH0 DUP3 PUSH1 0x1F DUP4 ADD SLT PUSH2 0x42C6 JUMPI PUSH2 0x42C5 PUSH2 0x419F JUMP JUMPDEST JUMPDEST DUP2 CALLDATALOAD PUSH2 0x42D6 DUP5 DUP3 PUSH1 0x20 DUP7 ADD PUSH2 0x424A JUMP JUMPDEST SWAP2 POP POP SWAP3 SWAP2 POP POP JUMP JUMPDEST PUSH0 DUP1 REVERT JUMPDEST PUSH0 PUSH8 0xFFFFFFFFFFFFFFFF DUP3 GT ISZERO PUSH2 0x42FD JUMPI PUSH2 0x42FC PUSH2 0x41A3 JUMP JUMPDEST JUMPDEST PUSH2 0x4306 DUP3 PUSH2 0x3FAC JUMP JUMPDEST SWAP1 POP PUSH1 0x20 DUP2 ADD SWAP1 POP SWAP2 SWAP1 POP JUMP JUMPDEST DUP3 DUP2 DUP4 CALLDATACOPY PUSH0 DUP4 DUP4 ADD MSTORE POP POP POP JUMP JUMPDEST PUSH0 PUSH2 0x4333 PUSH2 0x432E DUP5 PUSH2 0x42E3 JUMP JUMPDEST PUSH2 0x4201 JUMP JUMPDEST SWAP1 POP DUP3 DUP2 MSTORE PUSH1 0x20 DUP2 ADD DUP5 DUP5 DUP5 ADD GT ISZERO PUSH2 0x434F JUMPI PUSH2 0x434E PUSH2 0x42DF JUMP JUMPDEST JUMPDEST PUSH2 0x435A DUP5 DUP3 DUP6 PUSH2 0x4313 JUMP JUMPDEST POP SWAP4 SWAP3 POP POP POP JUMP JUMPDEST PUSH0 DUP3 PUSH1 0x1F DUP4 ADD SLT PUSH2 0x4376 JUMPI PUSH2 0x4375 PUSH2 0x419F JUMP JUMPDEST JUMPDEST DUP2 CALLDATALOAD PUSH2 0x4386 DUP5 DUP3 PUSH1 0x20 DUP7 ADD PUSH2 0x4321 JUMP JUMPDEST SWAP2 POP POP SWAP3 SWAP2 POP POP JUMP JUMPDEST PUSH0 DUP1 PUSH0 DUP1 PUSH0 PUSH1 0xA0 DUP7 DUP9 SUB SLT ISZERO PUSH2 0x43A8 JUMPI PUSH2 0x43A7 PUSH2 0x3D37 JUMP JUMPDEST JUMPDEST PUSH0 PUSH2 0x43B5 DUP9 DUP3 DUP10 ADD PUSH2 0x3D85 JUMP JUMPDEST SWAP6 POP POP PUSH1 0x20 PUSH2 0x43C6 DUP9 DUP3 DUP10 ADD PUSH2 0x3D85 JUMP JUMPDEST SWAP5 POP POP PUSH1 0x40 DUP7 ADD CALLDATALOAD PUSH8 0xFFFFFFFFFFFFFFFF DUP2 GT ISZERO PUSH2 0x43E7 JUMPI PUSH2 0x43E6 PUSH2 0x3D3B JUMP JUMPDEST JUMPDEST PUSH2 0x43F3 DUP9 DUP3 DUP10 ADD PUSH2 0x42B2 JUMP JUMPDEST SWAP4 POP POP PUSH1 0x60 DUP7 ADD CALLDATALOAD PUSH8 0xFFFFFFFFFFFFFFFF DUP2 GT ISZERO PUSH2 0x4414 JUMPI PUSH2 0x4413 PUSH2 0x3D3B JUMP JUMPDEST JUMPDEST PUSH2 0x4420 DUP9 DUP3 DUP10 ADD PUSH2 0x42B2 JUMP JUMPDEST SWAP3 POP POP PUSH1 0x80 DUP7 ADD CALLDATALOAD PUSH8 0xFFFFFFFFFFFFFFFF DUP2 GT ISZERO PUSH2 0x4441 JUMPI PUSH2 0x4440 PUSH2 0x3D3B JUMP JUMPDEST JUMPDEST PUSH2 0x444D DUP9 DUP3 DUP10 ADD PUSH2 0x4362 JUMP JUMPDEST SWAP2 POP POP SWAP3 SWAP6 POP SWAP3 SWAP6 SWAP1 SWAP4 POP JUMP JUMPDEST PUSH0 DUP2 MLOAD SWAP1 POP SWAP2 SWAP1 POP JUMP JUMPDEST PUSH0 DUP3 DUP3 MSTORE PUSH1 0x20 DUP3 ADD SWAP1 POP SWAP3 SWAP2 POP POP JUMP JUMPDEST PUSH0 DUP2 SWAP1 POP PUSH1 0x20 DUP3 ADD SWAP1 POP SWAP2 SWAP1 POP JUMP JUMPDEST PUSH2 0x448C DUP2 PUSH2 0x3D5E JUMP JUMPDEST DUP3 MSTORE POP POP JUMP JUMPDEST PUSH0 PUSH2 0x449D DUP4 DUP4 PUSH2 0x4483 JUMP JUMPDEST PUSH1 0x20 DUP4 ADD SWAP1 POP SWAP3 SWAP2 POP POP JUMP JUMPDEST PUSH0 PUSH1 0x20 DUP3 ADD SWAP1 POP SWAP2 SWAP1 POP JUMP JUMPDEST PUSH0 PUSH2 0x44BF DUP3 PUSH2 0x445A JUMP JUMPDEST PUSH2 0x44C9 DUP2 DUP6 PUSH2 0x4464 JUMP JUMPDEST SWAP4 POP PUSH2 0x44D4 DUP4 PUSH2 0x4474 JUMP JUMPDEST DUP1 PUSH0 JUMPDEST DUP4 DUP2 LT ISZERO PUSH2 0x4504 JUMPI DUP2 MLOAD PUSH2 0x44EB DUP9 DUP3 PUSH2 0x4492 JUMP JUMPDEST SWAP8 POP PUSH2 0x44F6 DUP4 PUSH2 0x44A9 JUMP JUMPDEST SWAP3 POP POP PUSH1 0x1 DUP2 ADD SWAP1 POP PUSH2 0x44D7 JUMP JUMPDEST POP DUP6 SWAP4 POP POP POP POP SWAP3 SWAP2 POP POP JUMP JUMPDEST PUSH0 PUSH1 0x40 DUP3 ADD SWAP1 POP DUP2 DUP2 SUB PUSH0 DUP4 ADD MSTORE PUSH2 0x4529 DUP2 DUP6 PUSH2 0x44B5 JUMP JUMPDEST SWAP1 POP DUP2 DUP2 SUB PUSH1 0x20 DUP4 ADD MSTORE PUSH2 0x453D DUP2 DUP5 PUSH2 0x4123 JUMP JUMPDEST SWAP1 POP SWAP4 SWAP3 POP POP POP JUMP JUMPDEST PUSH0 DUP1 PUSH1 0x40 DUP4 DUP6 SUB SLT ISZERO PUSH2 0x455C JUMPI PUSH2 0x455B PUSH2 0x3D37 JUMP JUMPDEST JUMPDEST PUSH0 PUSH2 0x4569 DUP6 DUP3 DUP7 ADD PUSH2 0x3DB8 JUMP JUMPDEST SWAP3 POP POP PUSH1 0x20 PUSH2 0x457A DUP6 DUP3 DUP7 ADD PUSH2 0x3DB8 JUMP JUMPDEST SWAP2 POP POP SWAP3 POP SWAP3 SWAP1 POP JUMP JUMPDEST PUSH0 PUSH1 0x60 DUP3 ADD SWAP1 POP DUP2 DUP2 SUB PUSH0 DUP4 ADD MSTORE PUSH2 0x459C DUP2 DUP7 PUSH2 0x4123 JUMP JUMPDEST SWAP1 POP DUP2 DUP2 SUB PUSH1 0x20 DUP4 ADD MSTORE PUSH2 0x45B0 DUP2 DUP6 PUSH2 0x4123 JUMP JUMPDEST SWAP1 POP PUSH2 0x45BF PUSH1 0x40 DUP4 ADD DUP5 PUSH2 0x3E0A JUMP JUMPDEST SWAP5 SWAP4 POP POP POP POP JUMP JUMPDEST PUSH0 PUSH8 0xFFFFFFFFFFFFFFFF DUP3 GT ISZERO PUSH2 0x45E1 JUMPI PUSH2 0x45E0 PUSH2 0x41A3 JUMP JUMPDEST JUMPDEST PUSH1 0x20 DUP3 MUL SWAP1 POP PUSH1 0x20 DUP2 ADD SWAP1 POP SWAP2 SWAP1 POP JUMP JUMPDEST PUSH0 PUSH2 0x4604 PUSH2 0x45FF DUP5 PUSH2 0x45C7 JUMP JUMPDEST PUSH2 0x4201 JUMP JUMPDEST SWAP1 POP DUP1 DUP4 DUP3 MSTORE PUSH1 0x20 DUP3 ADD SWAP1 POP PUSH1 0x20 DUP5 MUL DUP4 ADD DUP6 DUP2 GT ISZERO PUSH2 0x4627 JUMPI PUSH2 0x4626 PUSH2 0x4246 JUMP JUMPDEST JUMPDEST DUP4 JUMPDEST DUP2 DUP2 LT ISZERO PUSH2 0x4650 JUMPI DUP1 PUSH2 0x463C DUP9 DUP3 PUSH2 0x3D85 JUMP JUMPDEST DUP5 MSTORE PUSH1 0x20 DUP5 ADD SWAP4 POP POP PUSH1 0x20 DUP2 ADD SWAP1 POP PUSH2 0x4629 JUMP JUMPDEST POP POP POP SWAP4 SWAP3 POP POP POP JUMP JUMPDEST PUSH0 DUP3 PUSH1 0x1F DUP4 ADD SLT PUSH2 0x466E JUMPI PUSH2 0x466D PUSH2 0x419F JUMP JUMPDEST JUMPDEST DUP2 CALLDATALOAD PUSH2 0x467E DUP5 DUP3 PUSH1 0x20 DUP7 ADD PUSH2 0x45F2 JUMP JUMPDEST SWAP2 POP POP SWAP3 SWAP2 POP POP JUMP JUMPDEST PUSH0 DUP1 PUSH1 0x40 DUP4 DUP6 SUB SLT ISZERO PUSH2 0x469D JUMPI PUSH2 0x469C PUSH2 0x3D37 JUMP JUMPDEST JUMPDEST PUSH0 DUP4 ADD CALLDATALOAD PUSH8 0xFFFFFFFFFFFFFFFF DUP2 GT ISZERO PUSH2 0x46BA JUMPI PUSH2 0x46B9 PUSH2 0x3D3B JUMP JUMPDEST JUMPDEST PUSH2 0x46C6 DUP6 DUP3 DUP7 ADD PUSH2 0x465A JUMP JUMPDEST SWAP3 POP POP PUSH1 0x20 DUP4 ADD CALLDATALOAD PUSH8 0xFFFFFFFFFFFFFFFF DUP2 GT ISZERO PUSH2 0x46E7 JUMPI PUSH2 0x46E6 PUSH2 0x3D3B JUMP JUMPDEST JUMPDEST PUSH2 0x46F3 DUP6 DUP3 DUP7 ADD PUSH2 0x42B2 JUMP JUMPDEST SWAP2 POP POP SWAP3 POP SWAP3 SWAP1 POP JUMP JUMPDEST PUSH0 DUP1 PUSH1 0x40 DUP4 DUP6 SUB SLT ISZERO PUSH2 0x4713 JUMPI PUSH2 0x4712 PUSH2 0x3D37 JUMP JUMPDEST JUMPDEST PUSH0 PUSH2 0x4720 DUP6 DUP3 DUP7 ADD PUSH2 0x3DB8 JUMP JUMPDEST SWAP3 POP POP PUSH1 0x20 PUSH2 0x4731 DUP6 DUP3 DUP7 ADD PUSH2 0x3D85 JUMP JUMPDEST SWAP2 POP POP SWAP3 POP SWAP3 SWAP1 POP JUMP JUMPDEST PUSH0 PUSH1 0x40 DUP3 ADD SWAP1 POP PUSH2 0x474E PUSH0 DUP4 ADD DUP6 PUSH2 0x3E0A JUMP JUMPDEST PUSH2 0x475B PUSH1 0x20 DUP4 ADD DUP5 PUSH2 0x3EBD JUMP JUMPDEST SWAP4 SWAP3 POP POP POP JUMP JUMPDEST PUSH2 0x476B DUP2 PUSH2 0x3D5E JUMP JUMPDEST DUP3 MSTORE POP POP JUMP JUMPDEST PUSH0 PUSH1 0x20 DUP3 ADD SWAP1 POP PUSH2 0x4784 PUSH0 DUP4 ADD DUP5 PUSH2 0x4762 JUMP JUMPDEST SWAP3 SWAP2 POP POP JUMP JUMPDEST PUSH2 0x4793 DUP2 PUSH2 0x3EB2 JUMP JUMPDEST DUP2 EQ PUSH2 0x479D JUMPI PUSH0 DUP1 REVERT JUMPDEST POP JUMP JUMPDEST PUSH0 DUP2 CALLDATALOAD SWAP1 POP PUSH2 0x47AE DUP2 PUSH2 0x478A JUMP JUMPDEST SWAP3 SWAP2 POP POP JUMP JUMPDEST PUSH0 DUP1 PUSH1 0x40 DUP4 DUP6 SUB SLT ISZERO PUSH2 0x47CA JUMPI PUSH2 0x47C9 PUSH2 0x3D37 JUMP JUMPDEST JUMPDEST PUSH0 PUSH2 0x47D7 DUP6 DUP3 DUP7 ADD PUSH2 0x3D85 JUMP JUMPDEST SWAP3 POP POP PUSH1 0x20 PUSH2 0x47E8 DUP6 DUP3 DUP7 ADD PUSH2 0x47A0 JUMP JUMPDEST SWAP2 POP POP SWAP3 POP SWAP3 SWAP1 POP JUMP JUMPDEST PUSH0 DUP1 PUSH0 DUP1 PUSH1 0x80 DUP6 DUP8 SUB SLT ISZERO PUSH2 0x480A JUMPI PUSH2 0x4809 PUSH2 0x3D37 JUMP JUMPDEST JUMPDEST PUSH0 PUSH2 0x4817 DUP8 DUP3 DUP9 ADD PUSH2 0x3DB8 JUMP JUMPDEST SWAP5 POP POP PUSH1 0x20 PUSH2 0x4828 DUP8 DUP3 DUP9 ADD PUSH2 0x3DB8 JUMP JUMPDEST SWAP4 POP POP PUSH1 0x40 PUSH2 0x4839 DUP8 DUP3 DUP9 ADD PUSH2 0x3DB8 JUMP JUMPDEST SWAP3 POP POP PUSH1 0x60 DUP6 ADD CALLDATALOAD PUSH8 0xFFFFFFFFFFFFFFFF DUP2 GT ISZERO PUSH2 0x485A JUMPI PUSH2 0x4859 PUSH2 0x3D3B JUMP JUMPDEST JUMPDEST PUSH2 0x4866 DUP8 DUP3 DUP9 ADD PUSH2 0x42B2 JUMP JUMPDEST SWAP2 POP POP SWAP3 SWAP6 SWAP2 SWAP5 POP SWAP3 POP JUMP JUMPDEST PUSH0 PUSH2 0x487C DUP3 PUSH2 0x3F0F JUMP JUMPDEST SWAP1 POP SWAP2 SWAP1 POP JUMP JUMPDEST PUSH2 0x488C DUP2 PUSH2 0x4872 JUMP JUMPDEST DUP3 MSTORE POP POP JUMP JUMPDEST PUSH0 PUSH1 0x20 DUP3 ADD SWAP1 POP PUSH2 0x48A5 PUSH0 DUP4 ADD DUP5 PUSH2 0x4883 JUMP JUMPDEST SWAP3 SWAP2 POP POP JUMP JUMPDEST PUSH0 DUP1 PUSH1 0x40 DUP4 DUP6 SUB SLT ISZERO PUSH2 0x48C1 JUMPI PUSH2 0x48C0 PUSH2 0x3D37 JUMP JUMPDEST JUMPDEST PUSH0 PUSH2 0x48CE DUP6 DUP3 DUP7 ADD PUSH2 0x3D85 JUMP JUMPDEST SWAP3 POP POP PUSH1 0x20 PUSH2 0x48DF DUP6 DUP3 DUP7 ADD PUSH2 0x3D85 JUMP JUMPDEST SWAP2 POP POP SWAP3 POP SWAP3 SWAP1 POP JUMP JUMPDEST PUSH0 DUP1 PUSH0 DUP1 PUSH0 PUSH1 0xA0 DUP7 DUP9 SUB SLT ISZERO PUSH2 0x4902 JUMPI PUSH2 0x4901 PUSH2 0x3D37 JUMP JUMPDEST JUMPDEST PUSH0 PUSH2 0x490F DUP9 DUP3 DUP10 ADD PUSH2 0x3D85 JUMP JUMPDEST SWAP6 POP POP PUSH1 0x20 PUSH2 0x4920 DUP9 DUP3 DUP10 ADD PUSH2 0x3D85 JUMP JUMPDEST SWAP5 POP POP PUSH1 0x40 PUSH2 0x4931 DUP9 DUP3 DUP10 ADD PUSH2 0x3DB8 JUMP JUMPDEST SWAP4 POP POP PUSH1 0x60 PUSH2 0x4942 DUP9 DUP3 DUP10 ADD PUSH2 0x3DB8 JUMP JUMPDEST SWAP3 POP POP PUSH1 0x80 DUP7 ADD CALLDATALOAD PUSH8 0xFFFFFFFFFFFFFFFF DUP2 GT ISZERO PUSH2 0x4963 JUMPI PUSH2 0x4962 PUSH2 0x3D3B JUMP JUMPDEST JUMPDEST PUSH2 0x496F DUP9 DUP3 DUP10 ADD PUSH2 0x4362 JUMP JUMPDEST SWAP2 POP POP SWAP3 SWAP6 POP SWAP3 SWAP6 SWAP1 SWAP4 POP JUMP JUMPDEST PUSH0 PUSH1 0x20 DUP3 DUP5 SUB SLT ISZERO PUSH2 0x4991 JUMPI PUSH2 0x4990 PUSH2 0x3D37 JUMP JUMPDEST JUMPDEST PUSH0 PUSH2 0x499E DUP5 DUP3 DUP6 ADD PUSH2 0x3D85 JUMP JUMPDEST SWAP2 POP POP SWAP3 SWAP2 POP POP JUMP JUMPDEST PUSH32 0x4E487B7100000000000000000000000000000000000000000000000000000000 PUSH0 MSTORE PUSH1 0x22 PUSH1 0x4 MSTORE PUSH1 0x24 PUSH0 REVERT JUMPDEST PUSH0 PUSH1 0x2 DUP3 DIV SWAP1 POP PUSH1 0x1 DUP3 AND DUP1 PUSH2 0x49EB JUMPI PUSH1 0x7F DUP3 AND SWAP2 POP JUMPDEST PUSH1 0x20 DUP3 LT DUP2 SUB PUSH2 0x49FE JUMPI PUSH2 0x49FD PUSH2 0x49A7 JUMP JUMPDEST JUMPDEST POP SWAP2 SWAP1 POP JUMP JUMPDEST PUSH0 PUSH8 0xFFFFFFFFFFFFFFFF DUP3 GT ISZERO PUSH2 0x4A1E JUMPI PUSH2 0x4A1D PUSH2 0x41A3 JUMP JUMPDEST JUMPDEST PUSH2 0x4A27 DUP3 PUSH2 0x3FAC JUMP JUMPDEST SWAP1 POP PUSH1 0x20 DUP2 ADD SWAP1 POP SWAP2 SWAP1 POP JUMP JUMPDEST PUSH0 PUSH2 0x4A46 PUSH2 0x4A41 DUP5 PUSH2 0x4A04 JUMP JUMPDEST PUSH2 0x4201 JUMP JUMPDEST SWAP1 POP DUP3 DUP2 MSTORE PUSH1 0x20 DUP2 ADD DUP5 DUP5 DUP5 ADD GT ISZERO PUSH2 0x4A62 JUMPI PUSH2 0x4A61 PUSH2 0x42DF JUMP JUMPDEST JUMPDEST PUSH2 0x4A6D DUP5 DUP3 DUP6 PUSH2 0x3F9E JUMP JUMPDEST POP SWAP4 SWAP3 POP POP POP JUMP JUMPDEST PUSH0 DUP3 PUSH1 0x1F DUP4 ADD SLT PUSH2 0x4A89 JUMPI PUSH2 0x4A88 PUSH2 0x419F JUMP JUMPDEST JUMPDEST DUP2 MLOAD PUSH2 0x4A99 DUP5 DUP3 PUSH1 0x20 DUP7 ADD PUSH2 0x4A34 JUMP JUMPDEST SWAP2 POP POP SWAP3 SWAP2 POP POP JUMP JUMPDEST PUSH0 DUP2 MLOAD SWAP1 POP PUSH2 0x4AB0 DUP2 PUSH2 0x3D6F JUMP JUMPDEST SWAP3 SWAP2 POP POP JUMP JUMPDEST PUSH0 DUP2 MLOAD SWAP1 POP PUSH2 0x4AC4 DUP2 PUSH2 0x3DA2 JUMP JUMPDEST SWAP3 SWAP2 POP POP JUMP JUMPDEST PUSH1 0x2 DUP2 LT PUSH2 0x4AD6 JUMPI PUSH0 DUP1 REVERT JUMPDEST POP JUMP JUMPDEST PUSH0 DUP2 MLOAD SWAP1 POP PUSH2 0x4AE7 DUP2 PUSH2 0x4ACA JUMP JUMPDEST SWAP3 SWAP2 POP POP JUMP JUMPDEST PUSH0 DUP1 PUSH0 DUP1 PUSH0 DUP1 PUSH0 DUP1 PUSH2 0x100 DUP10 DUP12 SUB SLT ISZERO PUSH2 0x4B0A JUMPI PUSH2 0x4B09 PUSH2 0x3D37 JUMP JUMPDEST JUMPDEST PUSH0 DUP10 ADD MLOAD PUSH8 0xFFFFFFFFFFFFFFFF DUP2 GT ISZERO PUSH2 0x4B27 JUMPI PUSH2 0x4B26 PUSH2 0x3D3B JUMP JUMPDEST JUMPDEST PUSH2 0x4B33 DUP12 DUP3 DUP13 ADD PUSH2 0x4A75 JUMP JUMPDEST SWAP9 POP POP PUSH1 0x20 DUP10 ADD MLOAD PUSH8 0xFFFFFFFFFFFFFFFF DUP2 GT ISZERO PUSH2 0x4B54 JUMPI PUSH2 0x4B53 PUSH2 0x3D3B JUMP JUMPDEST JUMPDEST PUSH2 0x4B60 DUP12 DUP3 DUP13 ADD PUSH2 0x4A75 JUMP JUMPDEST SWAP8 POP POP PUSH1 0x40 DUP10 ADD MLOAD PUSH8 0xFFFFFFFFFFFFFFFF DUP2 GT ISZERO PUSH2 0x4B81 JUMPI PUSH2 0x4B80 PUSH2 0x3D3B JUMP JUMPDEST JUMPDEST PUSH2 0x4B8D DUP12 DUP3 DUP13 ADD PUSH2 0x4A75 JUMP JUMPDEST SWAP7 POP POP PUSH1 0x60 PUSH2 0x4B9E DUP12 DUP3 DUP13 ADD PUSH2 0x4AA2 JUMP JUMPDEST SWAP6 POP POP PUSH1 0x80 PUSH2 0x4BAF DUP12 DUP3 DUP13 ADD PUSH2 0x4AB6 JUMP JUMPDEST SWAP5 POP POP PUSH1 0xA0 PUSH2 0x4BC0 DUP12 DUP3 DUP13 ADD PUSH2 0x4AD9 JUMP JUMPDEST SWAP4 POP POP PUSH1 0xC0 PUSH2 0x4BD1 DUP12 DUP3 DUP13 ADD PUSH2 0x4AB6 JUMP JUMPDEST SWAP3 POP POP PUSH1 0xE0 PUSH2 0x4BE2 DUP12 DUP3 DUP13 ADD PUSH2 0x4AA2 JUMP JUMPDEST SWAP2 POP POP SWAP3 SWAP6 SWAP9 POP SWAP3 SWAP6 SWAP9 SWAP1 SWAP4 SWAP7 POP JUMP JUMPDEST PUSH32 0x4E487B7100000000000000000000000000000000000000000000000000000000 PUSH0 MSTORE PUSH1 0x21 PUSH1 0x4 MSTORE PUSH1 0x24 PUSH0 REVERT JUMPDEST PUSH0 PUSH1 0x40 DUP3 ADD SWAP1 POP PUSH2 0x4C32 PUSH0 DUP4 ADD DUP6 PUSH2 0x3E0A JUMP JUMPDEST PUSH2 0x4C3F PUSH1 0x20 DUP4 ADD DUP5 PUSH2 0x3E0A JUMP JUMPDEST SWAP4 SWAP3 POP POP POP JUMP JUMPDEST PUSH0 PUSH8 0xFFFFFFFFFFFFFFFF DUP3 GT ISZERO PUSH2 0x4C60 JUMPI PUSH2 0x4C5F PUSH2 0x41A3 JUMP JUMPDEST JUMPDEST PUSH1 0x20 DUP3 MUL SWAP1 POP PUSH1 0x20 DUP2 ADD SWAP1 POP SWAP2 SWAP1 POP JUMP JUMPDEST PUSH0 DUP1 REVERT JUMPDEST PUSH0 DUP1 REVERT JUMPDEST PUSH0 PUSH2 0x4C8B PUSH2 0x4C86 DUP5 PUSH2 0x45C7 JUMP JUMPDEST PUSH2 0x4201 JUMP JUMPDEST SWAP1 POP DUP1 DUP4 DUP3 MSTORE PUSH1 0x20 DUP3 ADD SWAP1 POP PUSH1 0x20 DUP5 MUL DUP4 ADD DUP6 DUP2 GT ISZERO PUSH2 0x4CAE JUMPI PUSH2 0x4CAD PUSH2 0x4246 JUMP JUMPDEST JUMPDEST DUP4 JUMPDEST DUP2 DUP2 LT ISZERO PUSH2 0x4CD7 JUMPI DUP1 PUSH2 0x4CC3 DUP9 DUP3 PUSH2 0x4AA2 JUMP JUMPDEST DUP5 MSTORE PUSH1 0x20 DUP5 ADD SWAP4 POP POP PUSH1 0x20 DUP2 ADD SWAP1 POP PUSH2 0x4CB0 JUMP JUMPDEST POP POP POP SWAP4 SWAP3 POP POP POP JUMP JUMPDEST PUSH0 DUP3 PUSH1 0x1F DUP4 ADD SLT PUSH2 0x4CF5 JUMPI PUSH2 0x4CF4 PUSH2 0x419F JUMP JUMPDEST JUMPDEST DUP2 MLOAD PUSH2 0x4D05 DUP5 DUP3 PUSH1 0x20 DUP7 ADD PUSH2 0x4C79 JUMP JUMPDEST SWAP2 POP POP SWAP3 SWAP2 POP POP JUMP JUMPDEST PUSH0 PUSH1 0x20 DUP3 DUP5 SUB SLT ISZERO PUSH2 0x4D23 JUMPI PUSH2 0x4D22 PUSH2 0x4C71 JUMP JUMPDEST JUMPDEST PUSH2 0x4D2D PUSH1 0x20 PUSH2 0x4201 JUMP JUMPDEST SWAP1 POP PUSH0 DUP3 ADD MLOAD PUSH8 0xFFFFFFFFFFFFFFFF DUP2 GT ISZERO PUSH2 0x4D4C JUMPI PUSH2 0x4D4B PUSH2 0x4C75 JUMP JUMPDEST JUMPDEST PUSH2 0x4D58 DUP5 DUP3 DUP6 ADD PUSH2 0x4CE1 JUMP JUMPDEST PUSH0 DUP4 ADD MSTORE POP SWAP3 SWAP2 POP POP JUMP JUMPDEST PUSH0 PUSH2 0x4D75 PUSH2 0x4D70 DUP5 PUSH2 0x4C46 JUMP JUMPDEST PUSH2 0x4201 JUMP JUMPDEST SWAP1 POP DUP1 DUP4 DUP3 MSTORE PUSH1 0x20 DUP3 ADD SWAP1 POP PUSH1 0x20 DUP5 MUL DUP4 ADD DUP6 DUP2 GT ISZERO PUSH2 0x4D98 JUMPI PUSH2 0x4D97 PUSH2 0x4246 JUMP JUMPDEST JUMPDEST DUP4 JUMPDEST DUP2 DUP2 LT ISZERO PUSH2 0x4DDF JUMPI DUP1 MLOAD PUSH8 0xFFFFFFFFFFFFFFFF DUP2 GT ISZERO PUSH2 0x4DBD JUMPI PUSH2 0x4DBC PUSH2 0x419F JUMP JUMPDEST JUMPDEST DUP1 DUP7 ADD PUSH2 0x4DCA DUP10 DUP3 PUSH2 0x4D0E JUMP JUMPDEST DUP6 MSTORE PUSH1 0x20 DUP6 ADD SWAP5 POP POP POP PUSH1 0x20 DUP2 ADD SWAP1 POP PUSH2 0x4D9A JUMP JUMPDEST POP POP POP SWAP4 SWAP3 POP POP POP JUMP JUMPDEST PUSH0 DUP3 PUSH1 0x1F DUP4 ADD SLT PUSH2 0x4DFD JUMPI PUSH2 0x4DFC PUSH2 0x419F JUMP JUMPDEST JUMPDEST DUP2 MLOAD PUSH2 0x4E0D DUP5 DUP3 PUSH1 0x20 DUP7 ADD PUSH2 0x4D63 JUMP JUMPDEST SWAP2 POP POP SWAP3 SWAP2 POP POP JUMP JUMPDEST PUSH0 PUSH1 0x20 DUP3 DUP5 SUB SLT ISZERO PUSH2 0x4E2B JUMPI PUSH2 0x4E2A PUSH2 0x3D37 JUMP JUMPDEST JUMPDEST PUSH0 DUP3 ADD MLOAD PUSH8 0xFFFFFFFFFFFFFFFF DUP2 GT ISZERO PUSH2 0x4E48 JUMPI PUSH2 0x4E47 PUSH2 0x3D3B JUMP JUMPDEST JUMPDEST PUSH2 0x4E54 DUP5 DUP3 DUP6 ADD PUSH2 0x4DE9 JUMP JUMPDEST SWAP2 POP POP SWAP3 SWAP2 POP POP JUMP JUMPDEST PUSH32 0x496E76616C69642067726F757020494400000000000000000000000000000000 PUSH0 DUP3 ADD MSTORE POP JUMP JUMPDEST PUSH0 PUSH2 0x4E91 PUSH1 0x10 DUP4 PUSH2 0x3F8E JUMP JUMPDEST SWAP2 POP PUSH2 0x4E9C DUP3 PUSH2 0x4E5D JUMP JUMPDEST PUSH1 0x20 DUP3 ADD SWAP1 POP SWAP2 SWAP1 POP JUMP JUMPDEST PUSH0 PUSH1 0x20 DUP3 ADD SWAP1 POP DUP2 DUP2 SUB PUSH0 DUP4 ADD MSTORE PUSH2 0x4EBE DUP2 PUSH2 0x4E85 JUMP JUMPDEST SWAP1 POP SWAP2 SWAP1 POP JUMP JUMPDEST PUSH32 0x4E487B7100000000000000000000000000000000000000000000000000000000 PUSH0 MSTORE PUSH1 0x32 PUSH1 0x4 MSTORE PUSH1 0x24 PUSH0 REVERT JUMPDEST PUSH32 0x47726F757020646F6573206E6F74206578697374000000000000000000000000 PUSH0 DUP3 ADD MSTORE POP JUMP JUMPDEST PUSH0 PUSH2 0x4F26 PUSH1 0x14 DUP4 PUSH2 0x3F8E JUMP JUMPDEST SWAP2 POP PUSH2 0x4F31 DUP3 PUSH2 0x4EF2 JUMP JUMPDEST PUSH1 0x20 DUP3 ADD SWAP1 POP SWAP2 SWAP1 POP JUMP JUMPDEST PUSH0 PUSH1 0x20 DUP3 ADD SWAP1 POP DUP2 DUP2 SUB PUSH0 DUP4 ADD MSTORE PUSH2 0x4F53 DUP2 PUSH2 0x4F1A JUMP JUMPDEST SWAP1 POP SWAP2 SWAP1 POP JUMP JUMPDEST PUSH32 0x4E6F7420616C6C206D656D626572732068617665207375626D69747465642072 PUSH0 DUP3 ADD MSTORE PUSH32 0x616E6B696E677300000000000000000000000000000000000000000000000000 PUSH1 0x20 DUP3 ADD MSTORE POP JUMP JUMPDEST PUSH0 PUSH2 0x4FB4 PUSH1 0x27 DUP4 PUSH2 0x3F8E JUMP JUMPDEST SWAP2 POP PUSH2 0x4FBF DUP3 PUSH2 0x4F5A JUMP JUMPDEST PUSH1 0x40 DUP3 ADD SWAP1 POP SWAP2 SWAP1 POP JUMP JUMPDEST PUSH0 PUSH1 0x20 DUP3 ADD SWAP1 POP DUP2 DUP2 SUB PUSH0 DUP4 ADD MSTORE PUSH2 0x4FE1 DUP2 PUSH2 0x4FA8 JUMP JUMPDEST SWAP1 POP SWAP2 SWAP1 POP JUMP JUMPDEST PUSH32 0x5472616E7369656E742073636F726520666F72206D656D626572000000000000 PUSH0 DUP3 ADD MSTORE POP JUMP JUMPDEST PUSH0 PUSH2 0x501C PUSH1 0x1A DUP4 PUSH2 0x3F8E JUMP JUMPDEST SWAP2 POP PUSH2 0x5027 DUP3 PUSH2 0x4FE8 JUMP JUMPDEST PUSH1 0x20 DUP3 ADD SWAP1 POP SWAP2 SWAP1 POP JUMP JUMPDEST PUSH0 PUSH1 0x40 DUP3 ADD SWAP1 POP DUP2 DUP2 SUB PUSH0 DUP4 ADD MSTORE PUSH2 0x5049 DUP2 PUSH2 0x5010 JUMP JUMPDEST SWAP1 POP PUSH2 0x5058 PUSH1 0x20 DUP4 ADD DUP5 PUSH2 0x3E0A JUMP JUMPDEST SWAP3 SWAP2 POP POP JUMP JUMPDEST PUSH0 PUSH1 0x60 DUP3 ADD SWAP1 POP PUSH2 0x5071 PUSH0 DUP4 ADD DUP7 PUSH2 0x3E0A JUMP JUMPDEST PUSH2 0x507E PUSH1 0x20 DUP4 ADD DUP6 PUSH2 0x3E0A JUMP JUMPDEST DUP2 DUP2 SUB PUSH1 0x40 DUP4 ADD MSTORE PUSH2 0x5090 DUP2 DUP5 PUSH2 0x4123 JUMP JUMPDEST SWAP1 POP SWAP5 SWAP4 POP POP POP POP JUMP JUMPDEST PUSH0 PUSH1 0x40 DUP3 ADD SWAP1 POP PUSH2 0x50AD PUSH0 DUP4 ADD DUP6 PUSH2 0x4762 JUMP JUMPDEST PUSH2 0x50BA PUSH1 0x20 DUP4 ADD DUP5 PUSH2 0x4762 JUMP JUMPDEST SWAP4 SWAP3 POP POP POP JUMP JUMPDEST PUSH0 PUSH1 0x20 DUP3 DUP5 SUB SLT ISZERO PUSH2 0x50D6 JUMPI PUSH2 0x50D5 PUSH2 0x3D37 JUMP JUMPDEST JUMPDEST PUSH0 PUSH2 0x50E3 DUP5 DUP3 DUP6 ADD PUSH2 0x4AB6 JUMP JUMPDEST SWAP2 POP POP SWAP3 SWAP2 POP POP JUMP JUMPDEST PUSH32 0x4E487B7100000000000000000000000000000000000000000000000000000000 PUSH0 MSTORE PUSH1 0x11 PUSH1 0x4 MSTORE PUSH1 0x24 PUSH0 REVERT JUMPDEST PUSH0 PUSH2 0x5123 DUP3 PUSH2 0x3D99 JUMP JUMPDEST SWAP2 POP PUSH2 0x512E DUP4 PUSH2 0x3D99 JUMP JUMPDEST SWAP3 POP DUP3 DUP3 ADD SWAP1 POP DUP1 DUP3 GT ISZERO PUSH2 0x5146 JUMPI PUSH2 0x5145 PUSH2 0x50EC JUMP JUMPDEST JUMPDEST SWAP3 SWAP2 POP POP JUMP JUMPDEST PUSH0 PUSH1 0x80 DUP3 ADD SWAP1 POP PUSH2 0x515F PUSH0 DUP4 ADD DUP8 PUSH2 0x3E0A JUMP JUMPDEST PUSH2 0x516C PUSH1 0x20 DUP4 ADD DUP7 PUSH2 0x4762 JUMP JUMPDEST PUSH2 0x5179 PUSH1 0x40 DUP4 ADD DUP6 PUSH2 0x3E0A JUMP JUMPDEST PUSH2 0x5186 PUSH1 0x60 DUP4 ADD DUP5 PUSH2 0x3E0A JUMP JUMPDEST SWAP6 SWAP5 POP POP POP POP POP JUMP JUMPDEST PUSH0 PUSH1 0x60 DUP3 ADD SWAP1 POP PUSH2 0x51A2 PUSH0 DUP4 ADD DUP7 PUSH2 0x3E0A JUMP JUMPDEST PUSH2 0x51AF PUSH1 0x20 DUP4 ADD DUP6 PUSH2 0x3E0A JUMP JUMPDEST PUSH2 0x51BC PUSH1 0x40 DUP4 ADD DUP5 PUSH2 0x3E0A JUMP JUMPDEST SWAP5 SWAP4 POP POP POP POP JUMP JUMPDEST PUSH0 PUSH2 0x51CE DUP3 PUSH2 0x3D99 JUMP JUMPDEST SWAP2 POP PUSH32 0xFFFFFFFFFFFFFFFFFFFFFFFFFFFFFFFFFFFFFFFFFFFFFFFFFFFFFFFFFFFFFFFF DUP3 SUB PUSH2 0x5200 JUMPI PUSH2 0x51FF PUSH2 0x50EC JUMP JUMPDEST JUMPDEST PUSH1 0x1 DUP3 ADD SWAP1 POP SWAP2 SWAP1 POP JUMP JUMPDEST PUSH32 0x4E6F20746F6B656E7320746F20636C61696D0000000000000000000000000000 PUSH0 DUP3 ADD MSTORE POP JUMP JUMPDEST PUSH0 PUSH2 0x523F PUSH1 0x12 DUP4 PUSH2 0x3F8E JUMP JUMPDEST SWAP2 POP PUSH2 0x524A DUP3 PUSH2 0x520B JUMP JUMPDEST PUSH1 0x20 DUP3 ADD SWAP1 POP SWAP2 SWAP1 POP JUMP JUMPDEST PUSH0 PUSH1 0x20 DUP3 ADD SWAP1 POP DUP2 DUP2 SUB PUSH0 DUP4 ADD MSTORE PUSH2 0x526C DUP2 PUSH2 0x5233 JUMP JUMPDEST SWAP1 POP SWAP2 SWAP1 POP JUMP JUMPDEST PUSH32 0x546F6B656E7320616C726561647920636C61696D656400000000000000000000 PUSH0 DUP3 ADD MSTORE POP JUMP JUMPDEST PUSH0 PUSH2 0x52A7 PUSH1 0x16 DUP4 PUSH2 0x3F8E JUMP JUMPDEST SWAP2 POP PUSH2 0x52B2 DUP3 PUSH2 0x5273 JUMP JUMPDEST PUSH1 0x20 DUP3 ADD SWAP1 POP SWAP2 SWAP1 POP JUMP JUMPDEST PUSH0 PUSH1 0x20 DUP3 ADD SWAP1 POP DUP2 DUP2 SUB PUSH0 DUP4 ADD MSTORE PUSH2 0x52D4 DUP2 PUSH2 0x529B JUMP JUMPDEST SWAP1 POP SWAP2 SWAP1 POP JUMP JUMPDEST PUSH32 0x436F6D6D756E69747920746F6B656E20616C7265616479206578697374730000 PUSH0 DUP3 ADD MSTORE POP JUMP JUMPDEST PUSH0 PUSH2 0x530F PUSH1 0x1E DUP4 PUSH2 0x3F8E JUMP JUMPDEST SWAP2 POP PUSH2 0x531A DUP3 PUSH2 0x52DB JUMP JUMPDEST PUSH1 0x20 DUP3 ADD SWAP1 POP SWAP2 SWAP1 POP JUMP JUMPDEST PUSH0 PUSH1 0x20 DUP3 ADD SWAP1 POP DUP2 DUP2 SUB PUSH0 DUP4 ADD MSTORE PUSH2 0x533C DUP2 PUSH2 0x5303 JUMP JUMPDEST SWAP1 POP SWAP2 SWAP1 POP JUMP JUMPDEST PUSH32 0x4E6F7420696E2072616E6B696E67207068617365000000000000000000000000 PUSH0 DUP3 ADD MSTORE POP JUMP JUMPDEST PUSH0 PUSH2 0x5377 PUSH1 0x14 DUP4 PUSH2 0x3F8E JUMP JUMPDEST SWAP2 POP PUSH2 0x5382 DUP3 PUSH2 0x5343 JUMP JUMPDEST PUSH1 0x20 DUP3 ADD SWAP1 POP SWAP2 SWAP1 POP JUMP JUMPDEST PUSH0 PUSH1 0x20 DUP3 ADD SWAP1 POP DUP2 DUP2 SUB PUSH0 DUP4 ADD MSTORE PUSH2 0x53A4 DUP2 PUSH2 0x536B JUMP JUMPDEST SWAP1 POP SWAP2 SWAP1 POP JUMP JUMPDEST PUSH32 0x43616E206F6E6C79207375626D69742072616E6B696E677320666F7220746865 PUSH0 DUP3 ADD MSTORE PUSH32 0x2063757272656E74207765656B00000000000000000000000000000000000000 PUSH1 0x20 DUP3 ADD MSTORE POP JUMP JUMPDEST PUSH0 PUSH2 0x5405 PUSH1 0x2D DUP4 PUSH2 0x3F8E JUMP JUMPDEST SWAP2 POP PUSH2 0x5410 DUP3 PUSH2 0x53AB JUMP JUMPDEST PUSH1 0x40 DUP3 ADD SWAP1 POP SWAP2 SWAP1 POP JUMP JUMPDEST PUSH0 PUSH1 0x20 DUP3 ADD SWAP1 POP DUP2 DUP2 SUB PUSH0 DUP4 ADD MSTORE PUSH2 0x5432 DUP2 PUSH2 0x53F9 JUMP JUMPDEST SWAP1 POP SWAP2 SWAP1 POP JUMP JUMPDEST PUSH32 0x52616E6B696E67206D75737420696E636C75646520616C6C2067726F7570206D PUSH0 DUP3 ADD MSTORE PUSH32 0x656D626572730000000000000000000000000000000000000000000000000000 PUSH1 0x20 DUP3 ADD MSTORE POP JUMP JUMPDEST PUSH0 PUSH2 0x5493 PUSH1 0x26 DUP4 PUSH2 0x3F8E JUMP JUMPDEST SWAP2 POP PUSH2 0x549E DUP3 PUSH2 0x5439 JUMP JUMPDEST PUSH1 0x40 DUP3 ADD SWAP1 POP SWAP2 SWAP1 POP JUMP JUMPDEST PUSH0 PUSH1 0x20 DUP3 ADD SWAP1 POP DUP2 DUP2 SUB PUSH0 DUP4 ADD MSTORE PUSH2 0x54C0 DUP2 PUSH2 0x5487 JUMP JUMPDEST SWAP1 POP SWAP2 SWAP1 POP JUMP JUMPDEST PUSH32 0x53656E646572206E6F742070617274206F66207468652067726F757000000000 PUSH0 DUP3 ADD MSTORE POP JUMP JUMPDEST PUSH0 PUSH2 0x54FB PUSH1 0x1C DUP4 PUSH2 0x3F8E JUMP JUMPDEST SWAP2 POP PUSH2 0x5506 DUP3 PUSH2 0x54C7 JUMP JUMPDEST PUSH1 0x20 DUP3 ADD SWAP1 POP SWAP2 SWAP1 POP JUMP JUMPDEST PUSH0 PUSH1 0x20 DUP3 ADD SWAP1 POP DUP2 DUP2 SUB PUSH0 DUP4 ADD MSTORE PUSH2 0x5528 DUP2 PUSH2 0x54EF JUMP JUMPDEST SWAP1 POP SWAP2 SWAP1 POP JUMP JUMPDEST PUSH32 0x52616E6B696E6720616C7265616479207375626D697474656400000000000000 PUSH0 DUP3 ADD MSTORE POP JUMP JUMPDEST PUSH0 PUSH2 0x5563 PUSH1 0x19 DUP4 PUSH2 0x3F8E JUMP JUMPDEST SWAP2 POP PUSH2 0x556E DUP3 PUSH2 0x552F JUMP JUMPDEST PUSH1 0x20 DUP3 ADD SWAP1 POP SWAP2 SWAP1 POP JUMP JUMPDEST PUSH0 PUSH1 0x20 DUP3 ADD SWAP1 POP DUP2 DUP2 SUB PUSH0 DUP4 ADD MSTORE PUSH2 0x5590 DUP2 PUSH2 0x5557 JUMP JUMPDEST SWAP1 POP SWAP2 SWAP1 POP JUMP JUMPDEST PUSH0 PUSH1 0x80 DUP3 ADD SWAP1 POP DUP2 DUP2 SUB PUSH0 DUP4 ADD MSTORE PUSH2 0x55AF DUP2 DUP8 PUSH2 0x3FBC JUMP JUMPDEST SWAP1 POP PUSH2 0x55BE PUSH1 0x20 DUP4 ADD DUP7 PUSH2 0x3E0A JUMP JUMPDEST PUSH2 0x55CB PUSH1 0x40 DUP4 ADD DUP6 PUSH2 0x3E0A JUMP JUMPDEST PUSH2 0x55D8 PUSH1 0x60 DUP4 ADD DUP5 PUSH2 0x3E0A JUMP JUMPDEST SWAP6 SWAP5 POP POP POP POP POP JUMP JUMPDEST PUSH0 PUSH1 0x60 DUP3 ADD SWAP1 POP DUP2 DUP2 SUB PUSH0 DUP4 ADD MSTORE PUSH2 0x55F9 DUP2 DUP7 PUSH2 0x3FBC JUMP JUMPDEST SWAP1 POP PUSH2 0x5608 PUSH1 0x20 DUP4 ADD DUP6 PUSH2 0x3E0A JUMP JUMPDEST PUSH2 0x5615 PUSH1 0x40 DUP4 ADD DUP5 PUSH2 0x3E0A JUMP JUMPDEST SWAP5 SWAP4 POP POP POP POP JUMP JUMPDEST PUSH0 PUSH1 0x40 DUP3 ADD SWAP1 POP DUP2 DUP2 SUB PUSH0 DUP4 ADD MSTORE PUSH2 0x5635 DUP2 DUP6 PUSH2 0x3FBC JUMP JUMPDEST SWAP1 POP PUSH2 0x5644 PUSH1 0x20 DUP4 ADD DUP5 PUSH2 0x3EBD JUMP JUMPDEST SWAP4 SWAP3 POP POP POP JUMP JUMPDEST PUSH0 PUSH2 0x5655 DUP3 PUSH2 0x3D99 JUMP JUMPDEST SWAP2 POP PUSH2 0x5660 DUP4 PUSH2 0x3D99 JUMP JUMPDEST SWAP3 POP DUP3 DUP3 MUL PUSH2 0x566E DUP2 PUSH2 0x3D99 JUMP JUMPDEST SWAP2 POP DUP3 DUP3 DIV DUP5 EQ DUP4 ISZERO OR PUSH2 0x5685 JUMPI PUSH2 0x5684 PUSH2 0x50EC JUMP JUMPDEST JUMPDEST POP SWAP3 SWAP2 POP POP JUMP JUMPDEST PUSH32 0x4E487B7100000000000000000000000000000000000000000000000000000000 PUSH0 MSTORE PUSH1 0x12 PUSH1 0x4 MSTORE PUSH1 0x24 PUSH0 REVERT JUMPDEST PUSH0 PUSH2 0x56C3 DUP3 PUSH2 0x3D99 JUMP JUMPDEST SWAP2 POP PUSH2 0x56CE DUP4 PUSH2 0x3D99 JUMP JUMPDEST SWAP3 POP DUP3 PUSH2 0x56DE JUMPI PUSH2 0x56DD PUSH2 0x568C JUMP JUMPDEST JUMPDEST DUP3 DUP3 DIV SWAP1 POP SWAP3 SWAP2 POP POP JUMP JUMPDEST PUSH0 PUSH2 0x56F3 DUP3 PUSH2 0x3D99 JUMP JUMPDEST SWAP2 POP PUSH2 0x56FE DUP4 PUSH2 0x3D99 JUMP JUMPDEST SWAP3 POP DUP3 DUP3 SUB SWAP1 POP DUP2 DUP2 GT ISZERO PUSH2 0x5716 JUMPI PUSH2 0x5715 PUSH2 0x50EC JUMP JUMPDEST JUMPDEST SWAP3 SWAP2 POP POP JUMP JUMPDEST PUSH0 PUSH1 0x40 DUP3 ADD SWAP1 POP DUP2 DUP2 SUB PUSH0 DUP4 ADD MSTORE PUSH2 0x5734 DUP2 DUP6 PUSH2 0x3FBC JUMP JUMPDEST SWAP1 POP PUSH2 0x5743 PUSH1 0x20 DUP4 ADD DUP5 PUSH2 0x3E0A JUMP JUMPDEST SWAP4 SWAP3 POP POP POP JUMP JUMPDEST PUSH32 0x52616E6B696E67206C656E677468206D69736D61746368000000000000000000 PUSH0 DUP3 ADD MSTORE POP JUMP JUMPDEST PUSH0 PUSH2 0x577E PUSH1 0x17 DUP4 PUSH2 0x3F8E JUMP JUMPDEST SWAP2 POP PUSH2 0x5789 DUP3 PUSH2 0x574A JUMP JUMPDEST PUSH1 0x20 DUP3 ADD SWAP1 POP SWAP2 SWAP1 POP JUMP JUMPDEST PUSH0 PUSH1 0x20 DUP3 ADD SWAP1 POP DUP2 DUP2 SUB PUSH0 DUP4 ADD MSTORE PUSH2 0x57AB DUP2 PUSH2 0x5772 JUMP JUMPDEST SWAP1 POP SWAP2 SWAP1 POP JUMP JUMPDEST PUSH32 0x496E76616C69642072616E6B696E670000000000000000000000000000000000 PUSH0 DUP3 ADD MSTORE POP JUMP JUMPDEST PUSH0 PUSH2 0x57E6 PUSH1 0xF DUP4 PUSH2 0x3F8E JUMP JUMPDEST SWAP2 POP PUSH2 0x57F1 DUP3 PUSH2 0x57B2 JUMP JUMPDEST PUSH1 0x20 DUP3 ADD SWAP1 POP SWAP2 SWAP1 POP JUMP JUMPDEST PUSH0 PUSH1 0x20 DUP3 ADD SWAP1 POP DUP2 DUP2 SUB PUSH0 DUP4 ADD MSTORE PUSH2 0x5813 DUP2 PUSH2 0x57DA JUMP JUMPDEST SWAP1 POP SWAP2 SWAP1 POP JUMP JUMPDEST PUSH32 0x496E76616C696420726563697069656E74206164647265737300000000000000 PUSH0 DUP3 ADD MSTORE POP JUMP JUMPDEST PUSH0 PUSH2 0x584E PUSH1 0x19 DUP4 PUSH2 0x3F8E JUMP JUMPDEST SWAP2 POP PUSH2 0x5859 DUP3 PUSH2 0x581A JUMP JUMPDEST PUSH1 0x20 DUP3 ADD SWAP1 POP SWAP2 SWAP1 POP JUMP JUMPDEST PUSH0 PUSH1 0x20 DUP3 ADD SWAP1 POP DUP2 DUP2 SUB PUSH0 DUP4 ADD MSTORE PUSH2 0x587B DUP2 PUSH2 0x5842 JUMP JUMPDEST SWAP1 POP SWAP2 SWAP1 POP JUMP JUMPDEST PUSH0 DUP2 SWAP1 POP SWAP2 SWAP1 POP JUMP JUMPDEST PUSH0 PUSH2 0x5895 DUP3 PUSH2 0x5882 JUMP JUMPDEST SWAP2 POP PUSH2 0x58A0 DUP4 PUSH2 0x5882 JUMP JUMPDEST SWAP3 POP DUP3 DUP3 SUB SWAP1 POP DUP2 DUP2 SLT PUSH0 DUP5 SLT AND DUP3 DUP3 SGT PUSH0 DUP6 SLT ISZERO AND OR ISZERO PUSH2 0x58C5 JUMPI PUSH2 0x58C4 PUSH2 0x50EC JUMP JUMPDEST JUMPDEST SWAP3 SWAP2 POP POP JUMP JUMPDEST PUSH0 PUSH2 0x58D5 DUP3 PUSH2 0x5882 JUMP JUMPDEST SWAP2 POP PUSH2 0x58E0 DUP4 PUSH2 0x5882 JUMP JUMPDEST SWAP3 POP DUP3 DUP3 MUL PUSH2 0x58EE DUP2 PUSH2 0x5882 JUMP JUMPDEST SWAP2 POP PUSH32 0x8000000000000000000000000000000000000000000000000000000000000000 DUP5 EQ PUSH0 DUP5 SLT AND ISZERO PUSH2 0x5925 JUMPI PUSH2 0x5924 PUSH2 0x50EC JUMP JUMPDEST JUMPDEST DUP3 DUP3 SDIV DUP5 EQ DUP4 ISZERO OR PUSH2 0x593A JUMPI PUSH2 0x5939 PUSH2 0x50EC JUMP JUMPDEST JUMPDEST POP SWAP3 SWAP2 POP POP JUMP JUMPDEST PUSH0 PUSH1 0xFF DUP3 AND SWAP1 POP SWAP2 SWAP1 POP JUMP JUMPDEST PUSH0 PUSH2 0x5957 DUP3 PUSH2 0x5941 JUMP JUMPDEST SWAP2 POP PUSH1 0xFF DUP3 SUB PUSH2 0x596A JUMPI PUSH2 0x5969 PUSH2 0x50EC JUMP JUMPDEST JUMPDEST PUSH1 0x1 DUP3 ADD SWAP1 POP SWAP2 SWAP1 POP JUMP JUMPDEST PUSH0 PUSH1 0x80 DUP3 ADD SWAP1 POP PUSH2 0x5988 PUSH0 DUP4 ADD DUP8 PUSH2 0x4762 JUMP JUMPDEST PUSH2 0x5995 PUSH1 0x20 DUP4 ADD DUP7 PUSH2 0x3E0A JUMP JUMPDEST PUSH2 0x59A2 PUSH1 0x40 DUP4 ADD DUP6 PUSH2 0x3E0A JUMP JUMPDEST PUSH2 0x59AF PUSH1 0x60 DUP4 ADD DUP5 PUSH2 0x3E0A JUMP JUMPDEST SWAP6 SWAP5 POP POP POP POP POP JUMP JUMPDEST PUSH0 PUSH1 0x40 DUP3 ADD SWAP1 POP DUP2 DUP2 SUB PUSH0 DUP4 ADD MSTORE PUSH2 0x59D0 DUP2 DUP6 PUSH2 0x4123 JUMP JUMPDEST SWAP1 POP DUP2 DUP2 SUB PUSH1 0x20 DUP4 ADD MSTORE PUSH2 0x59E4 DUP2 DUP5 PUSH2 0x4123 JUMP JUMPDEST SWAP1 POP SWAP4 SWAP3 POP POP POP JUMP JUMPDEST PUSH0 DUP2 MLOAD SWAP1 POP SWAP2 SWAP1 POP JUMP JUMPDEST PUSH0 DUP3 DUP3 MSTORE PUSH1 0x20 DUP3 ADD SWAP1 POP SWAP3 SWAP2 POP POP JUMP JUMPDEST PUSH0 PUSH2 0x5A11 DUP3 PUSH2 0x59ED JUMP JUMPDEST PUSH2 0x5A1B DUP2 DUP6 PUSH2 0x59F7 JUMP JUMPDEST SWAP4 POP PUSH2 0x5A2B DUP2 DUP6 PUSH1 0x20 DUP7 ADD PUSH2 0x3F9E JUMP JUMPDEST PUSH2 0x5A34 DUP2 PUSH2 0x3FAC JUMP JUMPDEST DUP5 ADD SWAP2 POP POP SWAP3 SWAP2 POP POP JUMP JUMPDEST PUSH0 PUSH1 0xA0 DUP3 ADD SWAP1 POP PUSH2 0x5A52 PUSH0 DUP4 ADD DUP9 PUSH2 0x4762 JUMP JUMPDEST PUSH2 0x5A5F PUSH1 0x20 DUP4 ADD DUP8 PUSH2 0x4762 JUMP JUMPDEST PUSH2 0x5A6C PUSH1 0x40 DUP4 ADD DUP7 PUSH2 0x3E0A JUMP JUMPDEST PUSH2 0x5A79 PUSH1 0x60 DUP4 ADD DUP6 PUSH2 0x3E0A JUMP JUMPDEST DUP2 DUP2 SUB PUSH1 0x80 DUP4 ADD MSTORE PUSH2 0x5A8B DUP2 DUP5 PUSH2 0x5A07 JUMP JUMPDEST SWAP1 POP SWAP7 SWAP6 POP POP POP POP POP POP JUMP JUMPDEST PUSH0 DUP2 MLOAD SWAP1 POP PUSH2 0x5AA5 DUP2 PUSH2 0x3E5D JUMP JUMPDEST SWAP3 SWAP2 POP POP JUMP JUMPDEST PUSH0 PUSH1 0x20 DUP3 DUP5 SUB SLT ISZERO PUSH2 0x5AC0 JUMPI PUSH2 0x5ABF PUSH2 0x3D37 JUMP JUMPDEST JUMPDEST PUSH0 PUSH2 0x5ACD DUP5 DUP3 DUP6 ADD PUSH2 0x5A97 JUMP JUMPDEST SWAP2 POP POP SWAP3 SWAP2 POP POP JUMP JUMPDEST PUSH0 PUSH1 0xA0 DUP3 ADD SWAP1 POP PUSH2 0x5AE9 PUSH0 DUP4 ADD DUP9 PUSH2 0x4762 JUMP JUMPDEST PUSH2 0x5AF6 PUSH1 0x20 DUP4 ADD DUP8 PUSH2 0x4762 JUMP JUMPDEST DUP2 DUP2 SUB PUSH1 0x40 DUP4 ADD MSTORE PUSH2 0x5B08 DUP2 DUP7 PUSH2 0x4123 JUMP JUMPDEST SWAP1 POP DUP2 DUP2 SUB PUSH1 0x60 DUP4 ADD MSTORE PUSH2 0x5B1C DUP2 DUP6 PUSH2 0x4123 JUMP JUMPDEST SWAP1 POP DUP2 DUP2 SUB PUSH1 0x80 DUP4 ADD MSTORE PUSH2 0x5B30 DUP2 DUP5 PUSH2 0x5A07 JUMP JUMPDEST SWAP1 POP SWAP7 SWAP6 POP POP POP POP POP POP JUMP JUMPDEST PUSH32 0x4E487B7100000000000000000000000000000000000000000000000000000000 PUSH0 MSTORE PUSH1 0x51 PUSH1 0x4 MSTORE PUSH1 0x24 PUSH0 REVERT INVALID BLOBHASH PUSH20 0x7375696E67205245535045435420746F6B656E73 KECCAK256 PUSH7 0x6F722067726F75 PUSH17 0x202573436865636B696E6720696620616C PUSH13 0x206D656D62657273207375626D PUSH10 0x747465642072616E6B69 PUSH15 0x677343757272656E74207765656B20 PUSH7 0x726F6D2070726F PUSH7 0x696C653A202573 0x2C KECCAK256 NUMBER PUSH22 0x7272656E742073746174653A20257344657465726D69 PUSH15 0x696E6720636F6E73656E7375732066 PUSH16 0x7220636F6D6D756E6974792025732C20 PUSH24 0x65656B2025732C2067726F7570202573A264697066735822 SLT KECCAK256 0xDE SWAP12 MLOAD NUMBER 0xAE LOG1 DUP9 PUSH24 0x93D004BD897D28E29B39A522C1E4B66EFA948CE48AB79908 PUSH5 0x736F6C6343 STOP ADDMOD BYTE STOP CALLER "
		},
		"gasEstimates": {
			"creation": {
				"codeDepositCost": "4727400",
				"executionCost": "infinite",
				"totalCost": "infinite"
			},
			"external": {
				"balanceOf(address,uint256)": "infinite",
				"balanceOfBatch(address[],uint256[])": "infinite",
				"claimTokens(uint256)": "infinite",
				"communityExists(uint256)": "2807",
				"contributionsContract()": "infinite",
				"createCommunityToken(uint256)": "infinite",
				"determineConsensus(uint256,uint256,uint256)": "infinite",
				"determineConsensusForAllGroups(uint256,uint256)": "infinite",
				"getClaimableTokens(uint256,address)": "infinite",
				"getConsensusRanking(uint256,uint256,uint256)": "infinite",
				"getRanking(uint256,uint256,uint256,address)": "infinite",
				"getTransientScores(uint256,uint256,uint256)": "infinite",
				"isApprovedForAll(address,address)": "infinite",
				"owner()": "2604",
				"profilesContract()": "infinite",
				"renounceOwnership()": "infinite",
				"safeBatchTransferFrom(address,address,uint256[],uint256[],bytes)": "infinite",
				"safeTransferFrom(address,address,uint256,uint256,bytes)": "infinite",
				"setApprovalForAll(address,bool)": "infinite",
				"submitRanking(uint256,uint256,uint256,uint256[])": "infinite",
				"supportsInterface(bytes4)": "809",
				"transferOwnership(address)": "infinite",
				"uri(uint256)": "infinite",
				"userClaimableTokens(uint256,address)": "infinite"
			},
			"internal": {
				"allMembersSubmitted(uint256,uint256,uint256,struct ICommunityGovernanceContributions.Group memory)": "infinite",
				"calculateMaxVariance(uint256)": "infinite",
				"calculateMean(uint256[] memory)": "infinite",
				"calculateTransientScore(uint256,uint256,uint256,uint256,struct ICommunityGovernanceContributions.Group memory)": "infinite",
				"calculateVariance(uint256[] memory)": "infinite",
				"distributeRespect(uint256,uint256[] memory[] memory)": "infinite",
				"fib(uint8)": "infinite",
				"isPartOfGroup(struct ICommunityGovernanceContributions.Group memory,address)": "infinite",
				"issueRespectTokens(uint256,uint256,uint256,struct ICommunityGovernanceContributions.Group memory)": "infinite",
				"sortByScore(uint256[] memory)": "infinite"
			}
		},
		"methodIdentifiers": {
			"balanceOf(address,uint256)": "00fdd58e",
			"balanceOfBatch(address[],uint256[])": "4e1273f4",
			"claimTokens(uint256)": "46e04a2f",
			"communityExists(uint256)": "d60429d0",
			"contributionsContract()": "de04bbd2",
			"createCommunityToken(uint256)": "65c33697",
			"determineConsensus(uint256,uint256,uint256)": "17dd9e73",
			"determineConsensusForAllGroups(uint256,uint256)": "33718ce8",
			"getClaimableTokens(uint256,address)": "f02a9df8",
			"getConsensusRanking(uint256,uint256,uint256)": "415b5d7d",
			"getRanking(uint256,uint256,uint256,address)": "2b3dffeb",
			"getTransientScores(uint256,uint256,uint256)": "32a7adb0",
			"isApprovedForAll(address,address)": "e985e9c5",
			"owner()": "8da5cb5b",
			"profilesContract()": "06428f02",
			"renounceOwnership()": "715018a6",
			"safeBatchTransferFrom(address,address,uint256[],uint256[],bytes)": "2eb2c2d6",
			"safeTransferFrom(address,address,uint256,uint256,bytes)": "f242432a",
			"setApprovalForAll(address,bool)": "a22cb465",
			"submitRanking(uint256,uint256,uint256,uint256[])": "b74ca713",
			"supportsInterface(bytes4)": "01ffc9a7",
			"transferOwnership(address)": "f2fde38b",
			"uri(uint256)": "0e89341c",
			"userClaimableTokens(uint256,address)": "643f273d"
		}
	},
	"abi": [
		{
			"inputs": [
				{
					"internalType": "address",
					"name": "_contributionsContractAddress",
					"type": "address"
				},
				{
					"internalType": "address",
					"name": "_profilesContractAddress",
					"type": "address"
				}
			],
			"stateMutability": "nonpayable",
			"type": "constructor"
		},
		{
			"inputs": [
				{
					"internalType": "address",
					"name": "sender",
					"type": "address"
				},
				{
					"internalType": "uint256",
					"name": "balance",
					"type": "uint256"
				},
				{
					"internalType": "uint256",
					"name": "needed",
					"type": "uint256"
				},
				{
					"internalType": "uint256",
					"name": "tokenId",
					"type": "uint256"
				}
			],
			"name": "ERC1155InsufficientBalance",
			"type": "error"
		},
		{
			"inputs": [
				{
					"internalType": "address",
					"name": "approver",
					"type": "address"
				}
			],
			"name": "ERC1155InvalidApprover",
			"type": "error"
		},
		{
			"inputs": [
				{
					"internalType": "uint256",
					"name": "idsLength",
					"type": "uint256"
				},
				{
					"internalType": "uint256",
					"name": "valuesLength",
					"type": "uint256"
				}
			],
			"name": "ERC1155InvalidArrayLength",
			"type": "error"
		},
		{
			"inputs": [
				{
					"internalType": "address",
					"name": "operator",
					"type": "address"
				}
			],
			"name": "ERC1155InvalidOperator",
			"type": "error"
		},
		{
			"inputs": [
				{
					"internalType": "address",
					"name": "receiver",
					"type": "address"
				}
			],
			"name": "ERC1155InvalidReceiver",
			"type": "error"
		},
		{
			"inputs": [
				{
					"internalType": "address",
					"name": "sender",
					"type": "address"
				}
			],
			"name": "ERC1155InvalidSender",
			"type": "error"
		},
		{
			"inputs": [
				{
					"internalType": "address",
					"name": "operator",
					"type": "address"
				},
				{
					"internalType": "address",
					"name": "owner",
					"type": "address"
				}
			],
			"name": "ERC1155MissingApprovalForAll",
			"type": "error"
		},
		{
			"inputs": [
				{
					"internalType": "address",
					"name": "owner",
					"type": "address"
				}
			],
			"name": "OwnableInvalidOwner",
			"type": "error"
		},
		{
			"inputs": [
				{
					"internalType": "address",
					"name": "account",
					"type": "address"
				}
			],
			"name": "OwnableUnauthorizedAccount",
			"type": "error"
		},
		{
			"anonymous": false,
			"inputs": [
				{
					"indexed": true,
					"internalType": "address",
					"name": "account",
					"type": "address"
				},
				{
					"indexed": true,
					"internalType": "address",
					"name": "operator",
					"type": "address"
				},
				{
					"indexed": false,
					"internalType": "bool",
					"name": "approved",
					"type": "bool"
				}
			],
			"name": "ApprovalForAll",
			"type": "event"
		},
		{
			"anonymous": false,
			"inputs": [
				{
					"indexed": true,
					"internalType": "uint256",
					"name": "communityId",
					"type": "uint256"
				},
				{
					"indexed": false,
					"internalType": "uint256",
					"name": "weekNumber",
					"type": "uint256"
				},
				{
					"indexed": false,
					"internalType": "uint256",
					"name": "groupId",
					"type": "uint256"
				},
				{
					"indexed": false,
					"internalType": "uint256[]",
					"name": "consensusRanking",
					"type": "uint256[]"
				}
			],
			"name": "ConsensusReached",
			"type": "event"
		},
		{
			"anonymous": false,
			"inputs": [
				{
					"indexed": false,
					"internalType": "string",
					"name": "message",
					"type": "string"
				},
				{
					"indexed": false,
					"internalType": "uint256",
					"name": "value",
					"type": "uint256"
				}
			],
			"name": "DebugLog",
			"type": "event"
		},
		{
			"anonymous": false,
			"inputs": [
				{
					"indexed": true,
					"internalType": "address",
					"name": "previousOwner",
					"type": "address"
				},
				{
					"indexed": true,
					"internalType": "address",
					"name": "newOwner",
					"type": "address"
				}
			],
			"name": "OwnershipTransferred",
			"type": "event"
		},
		{
			"anonymous": false,
			"inputs": [
				{
					"indexed": true,
					"internalType": "uint256",
					"name": "communityId",
					"type": "uint256"
				},
				{
					"indexed": false,
					"internalType": "uint256",
					"name": "weekNumber",
					"type": "uint256"
				},
				{
					"indexed": false,
					"internalType": "uint256",
					"name": "groupId",
					"type": "uint256"
				},
				{
					"indexed": true,
					"internalType": "address",
					"name": "submitter",
					"type": "address"
				}
			],
			"name": "RankingSubmitted",
			"type": "event"
		},
		{
			"anonymous": false,
			"inputs": [
				{
					"indexed": true,
					"internalType": "uint256",
					"name": "communityId",
					"type": "uint256"
				},
				{
					"indexed": false,
					"internalType": "uint256",
					"name": "weekNumber",
					"type": "uint256"
				},
				{
					"indexed": false,
					"internalType": "uint256",
					"name": "groupId",
					"type": "uint256"
				},
				{
					"indexed": true,
					"internalType": "address",
					"name": "recipient",
					"type": "address"
				},
				{
					"indexed": false,
					"internalType": "uint256",
					"name": "amount",
					"type": "uint256"
				},
				{
					"indexed": false,
					"internalType": "string",
					"name": "reason",
					"type": "string"
				}
			],
			"name": "RespectIssueFailed",
			"type": "event"
		},
		{
			"anonymous": false,
			"inputs": [
				{
					"indexed": true,
					"internalType": "uint256",
					"name": "communityId",
					"type": "uint256"
				},
				{
					"indexed": false,
					"internalType": "uint256",
					"name": "weekNumber",
					"type": "uint256"
				},
				{
					"indexed": false,
					"internalType": "uint256",
					"name": "groupId",
					"type": "uint256"
				},
				{
					"indexed": true,
					"internalType": "address",
					"name": "recipient",
					"type": "address"
				},
				{
					"indexed": false,
					"internalType": "uint256",
					"name": "amount",
					"type": "uint256"
				}
			],
			"name": "RespectIssued",
			"type": "event"
		},
		{
			"anonymous": false,
			"inputs": [
				{
					"indexed": true,
					"internalType": "uint256",
					"name": "communityId",
					"type": "uint256"
				},
				{
					"indexed": true,
					"internalType": "address",
					"name": "user",
					"type": "address"
				},
				{
					"indexed": false,
					"internalType": "uint256",
					"name": "amount",
					"type": "uint256"
				}
			],
			"name": "TokensClaimed",
			"type": "event"
		},
		{
			"anonymous": false,
			"inputs": [
				{
					"indexed": true,
					"internalType": "address",
					"name": "operator",
					"type": "address"
				},
				{
					"indexed": true,
					"internalType": "address",
					"name": "from",
					"type": "address"
				},
				{
					"indexed": true,
					"internalType": "address",
					"name": "to",
					"type": "address"
				},
				{
					"indexed": false,
					"internalType": "uint256[]",
					"name": "ids",
					"type": "uint256[]"
				},
				{
					"indexed": false,
					"internalType": "uint256[]",
					"name": "values",
					"type": "uint256[]"
				}
			],
			"name": "TransferBatch",
			"type": "event"
		},
		{
			"anonymous": false,
			"inputs": [
				{
					"indexed": true,
					"internalType": "address",
					"name": "operator",
					"type": "address"
				},
				{
					"indexed": true,
					"internalType": "address",
					"name": "from",
					"type": "address"
				},
				{
					"indexed": true,
					"internalType": "address",
					"name": "to",
					"type": "address"
				},
				{
					"indexed": false,
					"internalType": "uint256",
					"name": "id",
					"type": "uint256"
				},
				{
					"indexed": false,
					"internalType": "uint256",
					"name": "value",
					"type": "uint256"
				}
			],
			"name": "TransferSingle",
			"type": "event"
		},
		{
			"anonymous": false,
			"inputs": [
				{
					"indexed": false,
					"internalType": "string",
					"name": "value",
					"type": "string"
				},
				{
					"indexed": true,
					"internalType": "uint256",
					"name": "id",
					"type": "uint256"
				}
			],
			"name": "URI",
			"type": "event"
		},
		{
			"inputs": [
				{
					"internalType": "address",
					"name": "account",
					"type": "address"
				},
				{
					"internalType": "uint256",
					"name": "id",
					"type": "uint256"
				}
			],
			"name": "balanceOf",
			"outputs": [
				{
					"internalType": "uint256",
					"name": "",
					"type": "uint256"
				}
			],
			"stateMutability": "view",
			"type": "function"
		},
		{
			"inputs": [
				{
					"internalType": "address[]",
					"name": "accounts",
					"type": "address[]"
				},
				{
					"internalType": "uint256[]",
					"name": "ids",
					"type": "uint256[]"
				}
			],
			"name": "balanceOfBatch",
			"outputs": [
				{
					"internalType": "uint256[]",
					"name": "",
					"type": "uint256[]"
				}
			],
			"stateMutability": "view",
			"type": "function"
		},
		{
			"inputs": [
				{
					"internalType": "uint256",
					"name": "_communityId",
					"type": "uint256"
				}
			],
			"name": "claimTokens",
			"outputs": [],
			"stateMutability": "nonpayable",
			"type": "function"
		},
		{
			"inputs": [
				{
					"internalType": "uint256",
					"name": "",
					"type": "uint256"
				}
			],
			"name": "communityExists",
			"outputs": [
				{
					"internalType": "bool",
					"name": "",
					"type": "bool"
				}
			],
			"stateMutability": "view",
			"type": "function"
		},
		{
			"inputs": [],
			"name": "contributionsContract",
			"outputs": [
				{
					"internalType": "contract ICommunityGovernanceContributions",
					"name": "",
					"type": "address"
				}
			],
			"stateMutability": "view",
			"type": "function"
		},
		{
			"inputs": [
				{
					"internalType": "uint256",
					"name": "communityId",
					"type": "uint256"
				}
			],
			"name": "createCommunityToken",
			"outputs": [],
			"stateMutability": "nonpayable",
			"type": "function"
		},
		{
			"inputs": [
				{
					"internalType": "uint256",
					"name": "_communityId",
					"type": "uint256"
				},
				{
					"internalType": "uint256",
					"name": "_weekNumber",
					"type": "uint256"
				},
				{
					"internalType": "uint256",
					"name": "_groupId",
					"type": "uint256"
				}
			],
			"name": "determineConsensus",
			"outputs": [],
			"stateMutability": "nonpayable",
			"type": "function"
		},
		{
			"inputs": [
				{
					"internalType": "uint256",
					"name": "_communityId",
					"type": "uint256"
				},
				{
					"internalType": "uint256",
					"name": "_weekNumber",
					"type": "uint256"
				}
			],
			"name": "determineConsensusForAllGroups",
			"outputs": [],
			"stateMutability": "nonpayable",
			"type": "function"
		},
		{
			"inputs": [
				{
					"internalType": "uint256",
					"name": "_communityId",
					"type": "uint256"
				},
				{
					"internalType": "address",
					"name": "_user",
					"type": "address"
				}
			],
			"name": "getClaimableTokens",
			"outputs": [
				{
					"internalType": "uint256",
					"name": "amount",
					"type": "uint256"
				},
				{
					"internalType": "bool",
					"name": "claimed",
					"type": "bool"
				}
			],
			"stateMutability": "view",
			"type": "function"
		},
		{
			"inputs": [
				{
					"internalType": "uint256",
					"name": "_communityId",
					"type": "uint256"
				},
				{
					"internalType": "uint256",
					"name": "_weekNumber",
					"type": "uint256"
				},
				{
					"internalType": "uint256",
					"name": "_groupId",
					"type": "uint256"
				}
			],
			"name": "getConsensusRanking",
			"outputs": [
				{
					"internalType": "uint256[]",
					"name": "rankedScores",
					"type": "uint256[]"
				},
				{
					"internalType": "uint256[]",
					"name": "transientScores",
					"type": "uint256[]"
				},
				{
					"internalType": "uint256",
					"name": "timestamp",
					"type": "uint256"
				}
			],
			"stateMutability": "view",
			"type": "function"
		},
		{
			"inputs": [
				{
					"internalType": "uint256",
					"name": "_communityId",
					"type": "uint256"
				},
				{
					"internalType": "uint256",
					"name": "_weekNumber",
					"type": "uint256"
				},
				{
					"internalType": "uint256",
					"name": "_groupId",
					"type": "uint256"
				},
				{
					"internalType": "address",
					"name": "_user",
					"type": "address"
				}
			],
			"name": "getRanking",
			"outputs": [
				{
					"internalType": "uint256[]",
					"name": "",
					"type": "uint256[]"
				}
			],
			"stateMutability": "view",
			"type": "function"
		},
		{
			"inputs": [
				{
					"internalType": "uint256",
					"name": "_communityId",
					"type": "uint256"
				},
				{
					"internalType": "uint256",
					"name": "_weekNumber",
					"type": "uint256"
				},
				{
					"internalType": "uint256",
					"name": "_groupId",
					"type": "uint256"
				}
			],
			"name": "getTransientScores",
			"outputs": [
				{
					"internalType": "address[]",
					"name": "",
					"type": "address[]"
				},
				{
					"internalType": "uint256[]",
					"name": "",
					"type": "uint256[]"
				}
			],
			"stateMutability": "view",
			"type": "function"
		},
		{
			"inputs": [
				{
					"internalType": "address",
					"name": "account",
					"type": "address"
				},
				{
					"internalType": "address",
					"name": "operator",
					"type": "address"
				}
			],
			"name": "isApprovedForAll",
			"outputs": [
				{
					"internalType": "bool",
					"name": "",
					"type": "bool"
				}
			],
			"stateMutability": "view",
			"type": "function"
		},
		{
			"inputs": [],
			"name": "owner",
			"outputs": [
				{
					"internalType": "address",
					"name": "",
					"type": "address"
				}
			],
			"stateMutability": "view",
			"type": "function"
		},
		{
			"inputs": [],
			"name": "profilesContract",
			"outputs": [
				{
					"internalType": "contract ICommunityGovernanceProfiles",
					"name": "",
					"type": "address"
				}
			],
			"stateMutability": "view",
			"type": "function"
		},
		{
			"inputs": [],
			"name": "renounceOwnership",
			"outputs": [],
			"stateMutability": "nonpayable",
			"type": "function"
		},
		{
			"inputs": [
				{
					"internalType": "address",
					"name": "from",
					"type": "address"
				},
				{
					"internalType": "address",
					"name": "to",
					"type": "address"
				},
				{
					"internalType": "uint256[]",
					"name": "ids",
					"type": "uint256[]"
				},
				{
					"internalType": "uint256[]",
					"name": "values",
					"type": "uint256[]"
				},
				{
					"internalType": "bytes",
					"name": "data",
					"type": "bytes"
				}
			],
			"name": "safeBatchTransferFrom",
			"outputs": [],
			"stateMutability": "nonpayable",
			"type": "function"
		},
		{
			"inputs": [
				{
					"internalType": "address",
					"name": "from",
					"type": "address"
				},
				{
					"internalType": "address",
					"name": "to",
					"type": "address"
				},
				{
					"internalType": "uint256",
					"name": "id",
					"type": "uint256"
				},
				{
					"internalType": "uint256",
					"name": "value",
					"type": "uint256"
				},
				{
					"internalType": "bytes",
					"name": "data",
					"type": "bytes"
				}
			],
			"name": "safeTransferFrom",
			"outputs": [],
			"stateMutability": "nonpayable",
			"type": "function"
		},
		{
			"inputs": [
				{
					"internalType": "address",
					"name": "operator",
					"type": "address"
				},
				{
					"internalType": "bool",
					"name": "approved",
					"type": "bool"
				}
			],
			"name": "setApprovalForAll",
			"outputs": [],
			"stateMutability": "nonpayable",
			"type": "function"
		},
		{
			"inputs": [
				{
					"internalType": "uint256",
					"name": "_communityId",
					"type": "uint256"
				},
				{
					"internalType": "uint256",
					"name": "_weekNumber",
					"type": "uint256"
				},
				{
					"internalType": "uint256",
					"name": "_groupId",
					"type": "uint256"
				},
				{
					"internalType": "uint256[]",
					"name": "_ranking",
					"type": "uint256[]"
				}
			],
			"name": "submitRanking",
			"outputs": [],
			"stateMutability": "nonpayable",
			"type": "function"
		},
		{
			"inputs": [
				{
					"internalType": "bytes4",
					"name": "interfaceId",
					"type": "bytes4"
				}
			],
			"name": "supportsInterface",
			"outputs": [
				{
					"internalType": "bool",
					"name": "",
					"type": "bool"
				}
			],
			"stateMutability": "view",
			"type": "function"
		},
		{
			"inputs": [
				{
					"internalType": "address",
					"name": "newOwner",
					"type": "address"
				}
			],
			"name": "transferOwnership",
			"outputs": [],
			"stateMutability": "nonpayable",
			"type": "function"
		},
		{
			"inputs": [
				{
					"internalType": "uint256",
					"name": "",
					"type": "uint256"
				}
			],
			"name": "uri",
			"outputs": [
				{
					"internalType": "string",
					"name": "",
					"type": "string"
				}
			],
			"stateMutability": "view",
			"type": "function"
		},
		{
			"inputs": [
				{
					"internalType": "uint256",
					"name": "",
					"type": "uint256"
				},
				{
					"internalType": "address",
					"name": "",
					"type": "address"
				}
			],
			"name": "userClaimableTokens",
			"outputs": [
				{
					"internalType": "uint256",
					"name": "amount",
					"type": "uint256"
				},
				{
					"internalType": "bool",
					"name": "claimed",
					"type": "bool"
				}
			],
			"stateMutability": "view",
			"type": "function"
		}
	]
}